{
	"data": {
		"bytecode": {
			"linkReferences": {},
			"object": "60806040523480156200001157600080fd5b506040805180820182526009815268434d44205469746c6560b81b60208083019182528351808501909452600384526215151360ea1b90840152815173f8e81d47203a594245e36c48e151709f0c19fbe8939162000073916000919062000994565b5080516200008990600190602084019062000994565b5050600a80546001600160a01b0319166001600160a01b03939093169290921782555060009064e8d4a51000905b600d8360ff16101562000143576040805180820182526001600160401b038085168252838116602080840191825260ff88166000908152601390915293909320915182549351821668010000000000000000026001600160801b03199094169116179190911790556200012c600a8362000b03565b9150826200013a8162000bb9565b935050620000b7565b600092505b600a8360ff161015620001765762000160336200017f565b50826200016d8162000bb9565b93505062000148565b50505062000c1e565b600d8054600091600160a01b9091046001600160401b03169081906014620001a78362000b8f565b82546101009290920a6001600160401b038181021990931691831602179091556040805160c08101825260008082526020808301878152838501838152600e8054881660608701908152608087018681523360a089019081528c885260129096529786209651875460ff191660ff9091161787559251600187015590516002860155905160038501805496519188166001600160801b03199097169690961768010000000000000000918816919091021790945551600490920180546001600160a01b0319166001600160a01b03909316929092179091558154909216925090620002928362000b8f565b91906101000a8154816001600160401b0302191690836001600160401b0316021790555050620002c983826200030760201b60201c565b604080518281523360208201527fb31d8e8fa42b269769f65cb3fbee94d28efb43a3a870e2417a6aef591601a9f8910160405180910390a192915050565b620003298282604051806020016040528060008152506200032d60201b60201c565b5050565b620003398383620003a9565b620003486000848484620004ff565b620003a45760405162461bcd60e51b8152602060048201526032602482015260008051602062003b8d83398151915260448201527131b2b4bb32b91034b6b83632b6b2b73a32b960711b60648201526084015b60405180910390fd5b505050565b6001600160a01b038216620004015760405162461bcd60e51b815260206004820181905260248201527f4552433732313a206d696e7420746f20746865207a65726f206164647265737360448201526064016200039b565b6000818152600260205260409020546001600160a01b031615620004685760405162461bcd60e51b815260206004820152601c60248201527f4552433732313a20746f6b656e20616c7265616479206d696e7465640000000060448201526064016200039b565b620004766000838362000668565b6001600160a01b0382166000908152600360205260408120805460019290620004a190849062000ae8565b909155505060008181526002602052604080822080546001600160a01b0319166001600160a01b03861690811790915590518392907fddf252ad1be2c89b69c2b068fc378daa952ba7f163c4a11628f55a4df523b3ef908290a45050565b600062000520846001600160a01b03166200074460201b62001b7a1760201c565b156200065c57604051630a85bd0160e11b81526001600160a01b0385169063150b7a02906200055a90339089908890889060040162000a6d565b602060405180830381600087803b1580156200057557600080fd5b505af1925050508015620005a8575060408051601f3d908101601f19168201909252620005a59181019062000a3a565b60015b62000641573d808015620005d9576040519150601f19603f3d011682016040523d82523d6000602084013e620005de565b606091505b508051620006395760405162461bcd60e51b8152602060048201526032602482015260008051602062003b8d83398151915260448201527131b2b4bb32b91034b6b83632b6b2b73a32b960711b60648201526084016200039b565b805181602001fd5b6001600160e01b031916630a85bd0160e11b14905062000660565b5060015b949350505050565b62000680838383620003a460201b620006881760201c565b6001600160a01b038316620006de57620006d881600880546000838152600960205260408120829055600182018355919091527ff3f7a9fe364faab93b216da50a3214154f22a0a2b415b23a84c8169e8b636ee30155565b62000704565b816001600160a01b0316836001600160a01b031614620007045762000704838262000753565b6001600160a01b0382166200071e57620003a48162000800565b826001600160a01b0316826001600160a01b031614620003a457620003a48282620008ba565b6001600160a01b03163b151590565b600060016200076d846200090b60201b620016841760201c565b62000779919062000b38565b600083815260076020526040902054909150808214620007cd576001600160a01b03841660009081526006602090815260408083208584528252808320548484528184208190558352600790915290208190555b5060009182526007602090815260408084208490556001600160a01b039094168352600681528383209183525290812055565b600854600090620008149060019062000b38565b600083815260096020526040812054600880549394509092849081106200083f576200083f62000c08565b90600052602060002001549050806008838154811062000863576200086362000c08565b60009182526020808320909101929092558281526009909152604080822084905585825281205560088054806200089e576200089e62000bf2565b6001900381819060005260206000200160009055905550505050565b6000620008d2836200090b60201b620016841760201c565b6001600160a01b039093166000908152600660209081526040808320868452825280832085905593825260079052919091209190915550565b60006001600160a01b038216620009785760405162461bcd60e51b815260206004820152602a60248201527f4552433732313a2062616c616e636520717565727920666f7220746865207a65604482015269726f206164647265737360b01b60648201526084016200039b565b506001600160a01b031660009081526003602052604090205490565b828054620009a29062000b52565b90600052602060002090601f016020900481019282620009c6576000855562000a11565b82601f10620009e157805160ff191683800117855562000a11565b8280016001018555821562000a11579182015b8281111562000a11578251825591602001919060010190620009f4565b5062000a1f92915062000a23565b5090565b5b8082111562000a1f576000815560010162000a24565b60006020828403121562000a4d57600080fd5b81516001600160e01b03198116811462000a6657600080fd5b9392505050565b600060018060a01b038087168352602081871681850152856040850152608060608501528451915081608085015260005b8281101562000abc5785810182015185820160a00152810162000a9e565b8281111562000acf57600060a084870101525b5050601f01601f19169190910160a00195945050505050565b6000821982111562000afe5762000afe62000bdc565b500190565b60006001600160401b038381168062000b2c57634e487b7160e01b600052601260045260246000fd5b92169190910492915050565b60008282101562000b4d5762000b4d62000bdc565b500390565b600181811c9082168062000b6757607f821691505b6020821081141562000b8957634e487b7160e01b600052602260045260246000fd5b50919050565b60006001600160401b038281168082141562000baf5762000baf62000bdc565b6001019392505050565b600060ff821660ff81141562000bd35762000bd362000bdc565b60010192915050565b634e487b7160e01b600052601160045260246000fd5b634e487b7160e01b600052603160045260246000fd5b634e487b7160e01b600052603260045260246000fd5b612f5f8062000c2e6000396000f3fe608060405234801561001057600080fd5b50600436106101c45760003560e01c80636352211e116100f957806395d89b4111610097578063b88d4fde11610071578063b88d4fde146103ab578063bd96237d146103be578063c87b56dd146103d1578063e985e9c5146103e457600080fd5b806395d89b411461037d5780639634540b14610385578063a22cb4651461039857600080fd5b80636a7dac7d116100d35780636a7dac7d1461033157806370a0823114610344578063800b01601461035757806390dd6f0b1461036a57600080fd5b80636352211e146102f857806367d81b321461030b5780636892e18d1461031e57600080fd5b80632f745c5911610166578063485456bc11610140578063485456bc146102b75780634f6ccce7146102bf57806350089621146102d257806359f755fe146102e557600080fd5b80632f745c591461027e57806342842e0e1461029157806346582ca4146102a457600080fd5b8063095ea7b3116101a2578063095ea7b31461023157806318160ddd146102465780631e7aa37d1461025857806323b872dd1461026b57600080fd5b806301ffc9a7146101c957806306fdde03146101f1578063081812fc14610206575b600080fd5b6101dc6101d7366004612ab7565b610420565b60405190151581526020015b60405180910390f35b6101f961044b565b6040516101e89190612c50565b610219610214366004612af1565b6104dd565b6040516001600160a01b0390911681526020016101e8565b61024461023f366004612a34565b610577565b005b6008545b6040519081526020016101e8565b61024a610266366004612af1565b61068d565b6102446102793660046128e6565b6106b7565b61024a61028c366004612a34565b6106e8565b61024461029f3660046128e6565b61077e565b61024a6102b2366004612b3e565b610799565b61024a6108c0565b61024a6102cd366004612af1565b61097d565b6101dc6102e0366004612a34565b610a10565b61024a6102f3366004612b5a565b610a36565b610219610306366004612af1565b610c22565b61024a610319366004612b5a565b610c99565b61024461032c366004612af1565b610eba565b61024a61033f366004612af1565b611042565b61024a610352366004612898565b611684565b610244610365366004612af1565b61170b565b61024a610378366004612a5e565b611825565b6101f9611858565b610244610393366004612af1565b611867565b6102446103a63660046129fd565b6119f1565b6102446103b9366004612922565b6119fc565b61024a6103cc366004612b23565b611a2e565b6101f96103df366004612af1565b611a92565b6101dc6103f23660046128b3565b6001600160a01b03918216600090815260056020908152604080832093909416825291909152205460ff1690565b60006001600160e01b0319821663780e9d6360e01b1480610445575061044582611b89565b92915050565b60606000805461045a90612de3565b80601f016020809104026020016040519081016040528092919081815260200182805461048690612de3565b80156104d35780601f106104a8576101008083540402835291602001916104d3565b820191906000526020600020905b8154815290600101906020018083116104b657829003601f168201915b5050505050905090565b6000818152600260205260408120546001600160a01b031661055b5760405162461bcd60e51b815260206004820152602c60248201527f4552433732313a20617070726f76656420717565727920666f72206e6f6e657860448201526b34b9ba32b73a103a37b5b2b760a11b60648201526084015b60405180910390fd5b506000908152600460205260409020546001600160a01b031690565b600061058282610c22565b9050806001600160a01b0316836001600160a01b031614156105f05760405162461bcd60e51b815260206004820152602160248201527f4552433732313a20617070726f76616c20746f2063757272656e74206f776e656044820152603960f91b6064820152608401610552565b336001600160a01b038216148061060c575061060c81336103f2565b61067e5760405162461bcd60e51b815260206004820152603860248201527f4552433732313a20617070726f76652063616c6c6572206973206e6f74206f7760448201527f6e6572206e6f7220617070726f76656420666f7220616c6c00000000000000006064820152608401610552565b6106888383611bd9565b505050565b60008181526012602052604081205460ff16600c14156106af57506001919050565b506000919050565b6106c13382611c47565b6106dd5760405162461bcd60e51b815260040161055290612cdf565b610688838383611d3a565b60006106f383611684565b82106107555760405162461bcd60e51b815260206004820152602b60248201527f455243373231456e756d657261626c653a206f776e657220696e646578206f7560448201526a74206f6620626f756e647360a81b6064820152608401610552565b506001600160a01b03919091166000908152600660209081526040808320938352929052205490565b610688838383604051806020016040528060008152506119fc565b601580546000918190836107ac83612e1e565b9091555050600a546000906001600160a01b0316634a0e2aa133624c4b406107d74262015180612d30565b6107e442620a8c00612d30565b6040518563ffffffff1660e01b81526004016108039493929190612c2a565b602060405180830381600087803b15801561081d57600080fd5b505af1158015610831573d6000803e3d6000fd5b505050506040513d601f19601f820116820180604052508101906108559190612b0a565b6040805160608101825260ff80891682526001600160a01b0380891660208085019182528486019687526000898152601790915294909420925183549451909116610100026001600160a81b0319909416911617919091178155905160019091015550905092915050565b336000908152600f602052604081208054908290556010805482919084906108e9908490612da0565b9091555050600d546040516323b872dd60e01b8152306004820152336024820152604481018390526001600160a01b03909116906323b872dd90606401602060405180830381600087803b15801561094057600080fd5b505af1158015610954573d6000803e3d6000fd5b505050506040513d601f19601f820116820180604052508101906109789190612a9a565b505090565b600061098860085490565b82106109eb5760405162461bcd60e51b815260206004820152602c60248201527f455243373231456e756d657261626c653a20676c6f62616c20696e646578206f60448201526b7574206f6620626f756e647360a01b6064820152608401610552565b600882815481106109fe576109fe612ed6565b90600052602060002001549050919050565b6000826001600160a01b0316610a2583610c22565b6001600160a01b0316149392505050565b6000600d8360ff1610610a825760405162461bcd60e51b815260206004820152601460248201527327379039bab1b4103930b7359032bc34b9ba399760611b6044820152606401610552565b6000826001600160401b031611610adb5760405162461bcd60e51b815260206004820152601e60248201527f46726565206d696e74696e67206973206e6576657220616c6c6f7765642e00006044820152606401610552565b601480549081906000610aed83612e1e565b9091555050600a546000906001600160a01b0316634a0e2aa133624c4b40610b184262015180612d30565b610b2542620a8c00612d30565b6040518563ffffffff1660e01b8152600401610b449493929190612c2a565b602060405180830381600087803b158015610b5e57600080fd5b505af1158015610b72573d6000803e3d6000fd5b505050506040513d601f19601f82011682018060405250810190610b969190612b0a565b6040805160808101825260ff80891682526001600160401b03808916602080850191825260018587018181526060870198895260008b815260169093529690912094518554925196511515600160481b0260ff60481b19979094166101000268ffffffffffffffffff199093169416939093171793909316929092178155915191015550905092915050565b6000818152600260205260408120546001600160a01b0316806104455760405162461bcd60e51b815260206004820152602960248201527f4552433732313a206f776e657220717565727920666f72206e6f6e657869737460448201526832b73a103a37b5b2b760b91b6064820152608401610552565b6000808360ff1611610cf95760405162461bcd60e51b8152602060048201526024808201527f43616e277420736574206d696e74206c696d697420666f7220676f64207469746044820152633632b99760e11b6064820152608401610552565b600c8360ff1610610d725760405162461bcd60e51b815260206004820152603960248201527f4f6e6c79207469746c657320686967686572207468616e20612070726f76696e60448201527f6369616c207469746c652063616e206265206d696e7465642e000000000000006064820152608401610552565b601480549081906000610d8483612e1e565b9091555050600a546000906001600160a01b0316634a0e2aa133624c4b40610daf4262015180612d30565b610dbc42620a8c00612d30565b6040518563ffffffff1660e01b8152600401610ddb9493929190612c2a565b602060405180830381600087803b158015610df557600080fd5b505af1158015610e09573d6000803e3d6000fd5b505050506040513d601f19601f82011682018060405250810190610e2d9190612b0a565b6040805160808101825260ff97881681526001600160401b03968716602080830191825260008385018181526060850196875288825260169092529390932091518254915193511515600160481b0260ff60481b19949099166101000268ffffffffffffffffff199092169916989098179790971716949094178555509151600190930192909255919050565b600b548110610edb5760405162461bcd60e51b815260040161055290612cb5565b6000818152600c6020908152604091829020825160808101845281546001600160a01b039081168252600183015493820193909352600282015483168185015260039091015460608201819052600a5493516385aa033d60e01b815260048101919091523360248201529092909116906385aa033d90604401602060405180830381600087803b158015610f6e57600080fd5b505af1158015610f82573d6000803e3d6000fd5b505050506040513d601f19601f82011682018060405250810190610fa69190612a9a565b508051604080830151602084015191516323b872dd60e01b81523060048201526001600160a01b03918216602482015260448101929092528216906323b872dd90606401602060405180830381600087803b15801561100457600080fd5b505af1158015611018573d6000803e3d6000fd5b505050506040513d601f19601f8201168201806040525081019061103c9190612a9a565b50505050565b60008181526012602052604081203361105a84610c22565b6001600160a01b0316146110b05760405162461bcd60e51b815260206004820152601d60248201527f5573657220646f6573206e6f74206f776e2074686973207469746c652e0000006044820152606401610552565b80546000906110c39060ff166001612d48565b905060008160ff16116111285760405162461bcd60e51b815260206004820152602760248201527f476f64207469746c6573206d757374206265206d696e746564207468726f756760448201526634103b37ba329760c91b6064820152608401610552565b600c8160ff16106111945760405162461bcd60e51b815260206004820152603060248201527f50726f76696e6369616c207469746c65732063616e6e6f74206d696e74206c6f60448201526f3bb2b9103a34b2b9103a34ba3632b99760811b6064820152608401610552565b60ff81166000908152601360205260409081902054600d5491516370a0823160e01b81523360048201526001600160401b039091169182916001600160a01b03909116906370a082319060240160206040518083038186803b1580156111f957600080fd5b505afa15801561120d573d6000803e3d6000fd5b505050506040513d601f19601f820116820180604052508101906112319190612b0a565b10156112745760405162461bcd60e51b8152602060048201526012602482015271496e73756666696369656e742046756e647360701b6044820152606401610552565b600d54604051636eb1769f60e11b815233600482015230602482015282916001600160a01b03169063dd62ed3e9060440160206040518083038186803b1580156112bd57600080fd5b505afa1580156112d1573d6000803e3d6000fd5b505050506040513d601f19601f820116820180604052508101906112f59190612b0a565b101561133b5760405162461bcd60e51b8152602060048201526015602482015274125b9cdd59999a58da595b9d08105c1c1c9bdd985b605a1b6044820152606401610552565b600383015460ff83166000908152601360205260409020546001600160401b03600160401b928390048116929091041681106113d05760405162461bcd60e51b815260206004820152602e60248201527f54686973207469746c6520686173207265616368656420697473206d6178696d60448201526d3ab69036b4b73a1031b7bab73a1760911b6064820152608401610552565b600384018054600160401b90046001600160401b03169060086113f283612e39565b82546101009290920a6001600160401b03818102199093169183160217909155600d8054600160a01b900490911691508190601461142f83612e39565b82546101009290920a6001600160401b038181021990931691831602179091556040805160c08101825260ff888116825260208083018781528385018e8152898716606086019081526000608087018181523360a089018181528d84526012909752989091209651875460ff19169616959095178655915160018601555160028501555160038401805493519187166001600160801b031990941693909317600160401b91909616029490941790559151600490920180546001600160a01b0319166001600160a01b039093169290921790915561150e915082611ee1565b600d546040516323b872dd60e01b8152336004820152306024820152604481018590526001600160a01b03909116906323b872dd90606401602060405180830381600087803b15801561156057600080fd5b505af1158015611574573d6000803e3d6000fd5b505050506040513d601f19601f820116820180604052508101906115989190612a9a565b50600060036115a8856001612d81565b6115b29190612d6d565b9050855b81601060008282546115c89190612d30565b9250508190555060006115de8260010154610c22565b6001600160a01b0381166000908152600f602052604081208054929350859290919061160b908490612d30565b909155505060029182015460009081526012602052604090209161162f9084612d6d565b825490935060ff16151590506115b657604080518481523360208201527fb31d8e8fa42b269769f65cb3fbee94d28efb43a3a870e2417a6aef591601a9f8910160405180910390a15090979650505050505050565b60006001600160a01b0382166116ef5760405162461bcd60e51b815260206004820152602a60248201527f4552433732313a2062616c616e636520717565727920666f7220746865207a65604482015269726f206164647265737360b01b6064820152608401610552565b506001600160a01b031660009081526003602052604090205490565b601554811061172c5760405162461bcd60e51b815260040161055290612cb5565b6000818152601760209081526040918290208251606081018452815460ff8116825261010090046001600160a01b0390811693820193909352600190910154818401819052600a5493516385aa033d60e01b815260048101919091523360248201529092909116906385aa033d90604401602060405180830381600087803b1580156117b757600080fd5b505af11580156117cb573d6000803e3d6000fd5b505050506040513d601f19601f820116820180604052508101906117ef9190612a9a565b5060005b816000015160ff168160ff161015610688576118128260200151611efb565b508061181d81612e60565b9150506117f3565b60006118508484624c4b408561183e4262015180612d30565b61184b426202a300612d30565b612072565b949350505050565b60606001805461045a90612de3565b60145481106118885760405162461bcd60e51b815260040161055290612cb5565b6000818152601660209081526040918290208251608081018452815460ff808216835261010082046001600160401b031694830194909452600160481b90049092161515828401526001015460608201819052600a5492516385aa033d60e01b8152600481019190915233602482015290916001600160a01b0316906385aa033d90604401602060405180830381600087803b15801561192757600080fd5b505af115801561193b573d6000803e3d6000fd5b505050506040513d601f19601f8201168201806040525081019061195f9190612a9a565b508060400151156119a457602081810151915160ff166000908152601390915260409020805467ffffffffffffffff19166001600160401b0390921691909117905550565b602080820151825160ff1660009081526013909252604090912080546001600160401b03909216600160401b026fffffffffffffffff0000000000000000199092169190911790555b5050565b6119ed338383612196565b611a063383611c47565b611a225760405162461bcd60e51b815260040161055290612cdf565b61103c84848484612265565b6000600d8260ff1610611a735760405162461bcd60e51b815260206004820152600d60248201526c4e6f20737563682072616e6b2160981b6044820152606401610552565b5060ff166000908152601360205260409020546001600160401b031690565b6000818152600260205260409020546060906001600160a01b0316611b115760405162461bcd60e51b815260206004820152602f60248201527f4552433732314d657461646174613a2055524920717565727920666f72206e6f60448201526e3732bc34b9ba32b73a103a37b5b2b760891b6064820152608401610552565b6000611b2860408051602081019091526000815290565b90506000815111611b485760405180602001604052806000815250611b73565b80611b5284612298565b604051602001611b63929190612bbe565b6040516020818303038152906040525b9392505050565b6001600160a01b03163b151590565b60006001600160e01b031982166380ac58cd60e01b1480611bba57506001600160e01b03198216635b5e139f60e01b145b8061044557506301ffc9a760e01b6001600160e01b0319831614610445565b600081815260046020526040902080546001600160a01b0319166001600160a01b0384169081179091558190611c0e82610c22565b6001600160a01b03167f8c5be1e5ebec7d5bd14f71427d1e84f3dd0314c0f7b2291e5b200ac8c7c3b92560405160405180910390a45050565b6000818152600260205260408120546001600160a01b0316611cc05760405162461bcd60e51b815260206004820152602c60248201527f4552433732313a206f70657261746f7220717565727920666f72206e6f6e657860448201526b34b9ba32b73a103a37b5b2b760a11b6064820152608401610552565b6000611ccb83610c22565b9050806001600160a01b0316846001600160a01b03161480611d065750836001600160a01b0316611cfb846104dd565b6001600160a01b0316145b8061185057506001600160a01b0380821660009081526005602090815260408083209388168352929052205460ff16611850565b826001600160a01b0316611d4d82610c22565b6001600160a01b031614611db15760405162461bcd60e51b815260206004820152602560248201527f4552433732313a207472616e736665722066726f6d20696e636f72726563742060448201526437bbb732b960d91b6064820152608401610552565b6001600160a01b038216611e135760405162461bcd60e51b8152602060048201526024808201527f4552433732313a207472616e7366657220746f20746865207a65726f206164646044820152637265737360e01b6064820152608401610552565b611e1e838383612395565b611e29600082611bd9565b6001600160a01b0383166000908152600360205260408120805460019290611e52908490612da0565b90915550506001600160a01b0382166000908152600360205260408120805460019290611e80908490612d30565b909155505060008181526002602052604080822080546001600160a01b0319166001600160a01b0386811691821790925591518493918716917fddf252ad1be2c89b69c2b068fc378daa952ba7f163c4a11628f55a4df523b3ef91a4505050565b6119ed82826040518060200160405280600081525061244d565b600d8054600091600160a01b9091046001600160401b03169081906014611f2183612e39565b82546101009290920a6001600160401b038181021990931691831602179091556040805160c08101825260008082526020808301878152838501838152600e8054881660608701908152608087018681523360a089019081528c885260129096529786209651875460ff191660ff9091161787559251600187015590516002860155905160038501805496519188166001600160801b031990971696909617600160401b918816919091021790945551600490920180546001600160a01b0319166001600160a01b0390931692909217909155815490921692509061200583612e39565b91906101000a8154816001600160401b0302191690836001600160401b03160217905550506120348382611ee1565b604080518281523360208201527fb31d8e8fa42b269769f65cb3fbee94d28efb43a3a870e2417a6aef591601a9f8910160405180910390a192915050565b600b805460009181908361208583612e1e565b9091555050600a54604051634a0e2aa160e01b81526000916001600160a01b031690634a0e2aa1906120c19033908b908a908a90600401612c2a565b602060405180830381600087803b1580156120db57600080fd5b505af11580156120ef573d6000803e3d6000fd5b505050506040513d601f19601f820116820180604052508101906121139190612b0a565b604080516080810182526001600160a01b039b8c16815260208082019b8c52988c16818301908152606082018481526000968752600c909a529190942093518454908c166001600160a01b0319918216178555995160018501555160028401805491909b1699169890981790985593516003909401939093555092949350505050565b816001600160a01b0316836001600160a01b031614156121f85760405162461bcd60e51b815260206004820152601960248201527f4552433732313a20617070726f766520746f2063616c6c6572000000000000006044820152606401610552565b6001600160a01b03838116600081815260056020908152604080832094871680845294825291829020805460ff191686151590811790915591519182527f17307eab39ab6107e8899845ad3d59bd9653f200f220920489ca2b5937696c31910160405180910390a3505050565b612270848484611d3a565b61227c84848484612480565b61103c5760405162461bcd60e51b815260040161055290612c63565b6060816122bc5750506040805180820190915260018152600360fc1b602082015290565b8160005b81156122e657806122d081612e1e565b91506122df9050600a83612d6d565b91506122c0565b6000816001600160401b0381111561230057612300612eec565b6040519080825280601f01601f19166020018201604052801561232a576020820181803683370190505b5090505b84156118505761233f600183612da0565b915061234c600a86612e80565b612357906030612d30565b60f81b81838151811061236c5761236c612ed6565b60200101906001600160f81b031916908160001a90535061238e600a86612d6d565b945061232e565b6001600160a01b0383166123f0576123eb81600880546000838152600960205260408120829055600182018355919091527ff3f7a9fe364faab93b216da50a3214154f22a0a2b415b23a84c8169e8b636ee30155565b612413565b816001600160a01b0316836001600160a01b03161461241357612413838261258d565b6001600160a01b03821661242a576106888161262a565b826001600160a01b0316826001600160a01b0316146106885761068882826126d9565b612457838361271d565b6124646000848484612480565b6106885760405162461bcd60e51b815260040161055290612c63565b60006001600160a01b0384163b1561258257604051630a85bd0160e11b81526001600160a01b0385169063150b7a02906124c4903390899088908890600401612bed565b602060405180830381600087803b1580156124de57600080fd5b505af192505050801561250e575060408051601f3d908101601f1916820190925261250b91810190612ad4565b60015b612568573d80801561253c576040519150601f19603f3d011682016040523d82523d6000602084013e612541565b606091505b5080516125605760405162461bcd60e51b815260040161055290612c63565b805181602001fd5b6001600160e01b031916630a85bd0160e11b149050611850565b506001949350505050565b6000600161259a84611684565b6125a49190612da0565b6000838152600760205260409020549091508082146125f7576001600160a01b03841660009081526006602090815260408083208584528252808320548484528184208190558352600790915290208190555b5060009182526007602090815260408084208490556001600160a01b039094168352600681528383209183525290812055565b60085460009061263c90600190612da0565b6000838152600960205260408120546008805493945090928490811061266457612664612ed6565b90600052602060002001549050806008838154811061268557612685612ed6565b60009182526020808320909101929092558281526009909152604080822084905585825281205560088054806126bd576126bd612ec0565b6001900381819060005260206000200160009055905550505050565b60006126e483611684565b6001600160a01b039093166000908152600660209081526040808320868452825280832085905593825260079052919091209190915550565b6001600160a01b0382166127735760405162461bcd60e51b815260206004820181905260248201527f4552433732313a206d696e7420746f20746865207a65726f20616464726573736044820152606401610552565b6000818152600260205260409020546001600160a01b0316156127d85760405162461bcd60e51b815260206004820152601c60248201527f4552433732313a20746f6b656e20616c7265616479206d696e746564000000006044820152606401610552565b6127e460008383612395565b6001600160a01b038216600090815260036020526040812080546001929061280d908490612d30565b909155505060008181526002602052604080822080546001600160a01b0319166001600160a01b03861690811790915590518392907fddf252ad1be2c89b69c2b068fc378daa952ba7f163c4a11628f55a4df523b3ef908290a45050565b80356001600160a01b038116811461288257600080fd5b919050565b803560ff8116811461288257600080fd5b6000602082840312156128aa57600080fd5b611b738261286b565b600080604083850312156128c657600080fd5b6128cf8361286b565b91506128dd6020840161286b565b90509250929050565b6000806000606084860312156128fb57600080fd5b6129048461286b565b92506129126020850161286b565b9150604084013590509250925092565b6000806000806080858703121561293857600080fd5b6129418561286b565b935061294f6020860161286b565b92506040850135915060608501356001600160401b038082111561297257600080fd5b818701915087601f83011261298657600080fd5b81358181111561299857612998612eec565b604051601f8201601f19908116603f011681019083821181831017156129c0576129c0612eec565b816040528281528a60208487010111156129d957600080fd5b82602086016020830137600060208483010152809550505050505092959194509250565b60008060408385031215612a1057600080fd5b612a198361286b565b91506020830135612a2981612f02565b809150509250929050565b60008060408385031215612a4757600080fd5b612a508361286b565b946020939093013593505050565b600080600060608486031215612a7357600080fd5b612a7c8461286b565b925060208401359150612a916040850161286b565b90509250925092565b600060208284031215612aac57600080fd5b8151611b7381612f02565b600060208284031215612ac957600080fd5b8135611b7381612f13565b600060208284031215612ae657600080fd5b8151611b7381612f13565b600060208284031215612b0357600080fd5b5035919050565b600060208284031215612b1c57600080fd5b5051919050565b600060208284031215612b3557600080fd5b611b7382612887565b60008060408385031215612b5157600080fd5b6128cf83612887565b60008060408385031215612b6d57600080fd5b612b7683612887565b915060208301356001600160401b0381168114612a2957600080fd5b60008151808452612baa816020860160208601612db7565b601f01601f19169290920160200192915050565b60008351612bd0818460208801612db7565b835190830190612be4818360208801612db7565b01949350505050565b6001600160a01b0385811682528416602082015260408101839052608060608201819052600090612c2090830184612b92565b9695505050505050565b6001600160a01b0394909416845260208401929092526040830152606082015260800190565b602081526000611b736020830184612b92565b60208082526032908201527f4552433732313a207472616e7366657220746f206e6f6e20455243373231526560408201527131b2b4bb32b91034b6b83632b6b2b73a32b960711b606082015260800190565b60208082526010908201526f27379039bab1b4103932b8bab2b9ba1760811b604082015260600190565b60208082526031908201527f4552433732313a207472616e736665722063616c6c6572206973206e6f74206f6040820152701ddb995c881b9bdc88185c1c1c9bdd9959607a1b606082015260800190565b60008219821115612d4357612d43612e94565b500190565b600060ff821660ff84168060ff03821115612d6557612d65612e94565b019392505050565b600082612d7c57612d7c612eaa565b500490565b6000816000190483118215151615612d9b57612d9b612e94565b500290565b600082821015612db257612db2612e94565b500390565b60005b83811015612dd2578181015183820152602001612dba565b8381111561103c5750506000910152565b600181811c90821680612df757607f821691505b60208210811415612e1857634e487b7160e01b600052602260045260246000fd5b50919050565b6000600019821415612e3257612e32612e94565b5060010190565b60006001600160401b0380831681811415612e5657612e56612e94565b6001019392505050565b600060ff821660ff811415612e7757612e77612e94565b60010192915050565b600082612e8f57612e8f612eaa565b500690565b634e487b7160e01b600052601160045260246000fd5b634e487b7160e01b600052601260045260246000fd5b634e487b7160e01b600052603160045260246000fd5b634e487b7160e01b600052603260045260246000fd5b634e487b7160e01b600052604160045260246000fd5b8015158114612f1057600080fd5b50565b6001600160e01b031981168114612f1057600080fdfea26469706673582212200bec6b85b4a21923c317e1aac29dd1b14774dc45d08f24ad6fb1642d1a4f1a0264736f6c634300080700334552433732313a207472616e7366657220746f206e6f6e204552433732315265",
			"opcodes": "PUSH1 0x80 PUSH1 0x40 MSTORE CALLVALUE DUP1 ISZERO PUSH3 0x11 JUMPI PUSH1 0x0 DUP1 REVERT JUMPDEST POP PUSH1 0x40 DUP1 MLOAD DUP1 DUP3 ADD DUP3 MSTORE PUSH1 0x9 DUP2 MSTORE PUSH9 0x434D44205469746C65 PUSH1 0xB8 SHL PUSH1 0x20 DUP1 DUP4 ADD SWAP2 DUP3 MSTORE DUP4 MLOAD DUP1 DUP6 ADD SWAP1 SWAP5 MSTORE PUSH1 0x3 DUP5 MSTORE PUSH3 0x151513 PUSH1 0xEA SHL SWAP1 DUP5 ADD MSTORE DUP2 MLOAD PUSH20 0xF8E81D47203A594245E36C48E151709F0C19FBE8 SWAP4 SWAP2 PUSH3 0x73 SWAP2 PUSH1 0x0 SWAP2 SWAP1 PUSH3 0x994 JUMP JUMPDEST POP DUP1 MLOAD PUSH3 0x89 SWAP1 PUSH1 0x1 SWAP1 PUSH1 0x20 DUP5 ADD SWAP1 PUSH3 0x994 JUMP JUMPDEST POP POP PUSH1 0xA DUP1 SLOAD PUSH1 0x1 PUSH1 0x1 PUSH1 0xA0 SHL SUB NOT AND PUSH1 0x1 PUSH1 0x1 PUSH1 0xA0 SHL SUB SWAP4 SWAP1 SWAP4 AND SWAP3 SWAP1 SWAP3 OR DUP3 SSTORE POP PUSH1 0x0 SWAP1 PUSH5 0xE8D4A51000 SWAP1 JUMPDEST PUSH1 0xD DUP4 PUSH1 0xFF AND LT ISZERO PUSH3 0x143 JUMPI PUSH1 0x40 DUP1 MLOAD DUP1 DUP3 ADD DUP3 MSTORE PUSH1 0x1 PUSH1 0x1 PUSH1 0x40 SHL SUB DUP1 DUP6 AND DUP3 MSTORE DUP4 DUP2 AND PUSH1 0x20 DUP1 DUP5 ADD SWAP2 DUP3 MSTORE PUSH1 0xFF DUP9 AND PUSH1 0x0 SWAP1 DUP2 MSTORE PUSH1 0x13 SWAP1 SWAP2 MSTORE SWAP4 SWAP1 SWAP4 KECCAK256 SWAP2 MLOAD DUP3 SLOAD SWAP4 MLOAD DUP3 AND PUSH9 0x10000000000000000 MUL PUSH1 0x1 PUSH1 0x1 PUSH1 0x80 SHL SUB NOT SWAP1 SWAP5 AND SWAP2 AND OR SWAP2 SWAP1 SWAP2 OR SWAP1 SSTORE PUSH3 0x12C PUSH1 0xA DUP4 PUSH3 0xB03 JUMP JUMPDEST SWAP2 POP DUP3 PUSH3 0x13A DUP2 PUSH3 0xBB9 JUMP JUMPDEST SWAP4 POP POP PUSH3 0xB7 JUMP JUMPDEST PUSH1 0x0 SWAP3 POP JUMPDEST PUSH1 0xA DUP4 PUSH1 0xFF AND LT ISZERO PUSH3 0x176 JUMPI PUSH3 0x160 CALLER PUSH3 0x17F JUMP JUMPDEST POP DUP3 PUSH3 0x16D DUP2 PUSH3 0xBB9 JUMP JUMPDEST SWAP4 POP POP PUSH3 0x148 JUMP JUMPDEST POP POP POP PUSH3 0xC1E JUMP JUMPDEST PUSH1 0xD DUP1 SLOAD PUSH1 0x0 SWAP2 PUSH1 0x1 PUSH1 0xA0 SHL SWAP1 SWAP2 DIV PUSH1 0x1 PUSH1 0x1 PUSH1 0x40 SHL SUB AND SWAP1 DUP2 SWAP1 PUSH1 0x14 PUSH3 0x1A7 DUP4 PUSH3 0xB8F JUMP JUMPDEST DUP3 SLOAD PUSH2 0x100 SWAP3 SWAP1 SWAP3 EXP PUSH1 0x1 PUSH1 0x1 PUSH1 0x40 SHL SUB DUP2 DUP2 MUL NOT SWAP1 SWAP4 AND SWAP2 DUP4 AND MUL OR SWAP1 SWAP2 SSTORE PUSH1 0x40 DUP1 MLOAD PUSH1 0xC0 DUP2 ADD DUP3 MSTORE PUSH1 0x0 DUP1 DUP3 MSTORE PUSH1 0x20 DUP1 DUP4 ADD DUP8 DUP2 MSTORE DUP4 DUP6 ADD DUP4 DUP2 MSTORE PUSH1 0xE DUP1 SLOAD DUP9 AND PUSH1 0x60 DUP8 ADD SWAP1 DUP2 MSTORE PUSH1 0x80 DUP8 ADD DUP7 DUP2 MSTORE CALLER PUSH1 0xA0 DUP10 ADD SWAP1 DUP2 MSTORE DUP13 DUP9 MSTORE PUSH1 0x12 SWAP1 SWAP7 MSTORE SWAP8 DUP7 KECCAK256 SWAP7 MLOAD DUP8 SLOAD PUSH1 0xFF NOT AND PUSH1 0xFF SWAP1 SWAP2 AND OR DUP8 SSTORE SWAP3 MLOAD PUSH1 0x1 DUP8 ADD SSTORE SWAP1 MLOAD PUSH1 0x2 DUP7 ADD SSTORE SWAP1 MLOAD PUSH1 0x3 DUP6 ADD DUP1 SLOAD SWAP7 MLOAD SWAP2 DUP9 AND PUSH1 0x1 PUSH1 0x1 PUSH1 0x80 SHL SUB NOT SWAP1 SWAP8 AND SWAP7 SWAP1 SWAP7 OR PUSH9 0x10000000000000000 SWAP2 DUP9 AND SWAP2 SWAP1 SWAP2 MUL OR SWAP1 SWAP5 SSTORE MLOAD PUSH1 0x4 SWAP1 SWAP3 ADD DUP1 SLOAD PUSH1 0x1 PUSH1 0x1 PUSH1 0xA0 SHL SUB NOT AND PUSH1 0x1 PUSH1 0x1 PUSH1 0xA0 SHL SUB SWAP1 SWAP4 AND SWAP3 SWAP1 SWAP3 OR SWAP1 SWAP2 SSTORE DUP2 SLOAD SWAP1 SWAP3 AND SWAP3 POP SWAP1 PUSH3 0x292 DUP4 PUSH3 0xB8F JUMP JUMPDEST SWAP2 SWAP1 PUSH2 0x100 EXP DUP2 SLOAD DUP2 PUSH1 0x1 PUSH1 0x1 PUSH1 0x40 SHL SUB MUL NOT AND SWAP1 DUP4 PUSH1 0x1 PUSH1 0x1 PUSH1 0x40 SHL SUB AND MUL OR SWAP1 SSTORE POP POP PUSH3 0x2C9 DUP4 DUP3 PUSH3 0x307 PUSH1 0x20 SHL PUSH1 0x20 SHR JUMP JUMPDEST PUSH1 0x40 DUP1 MLOAD DUP3 DUP2 MSTORE CALLER PUSH1 0x20 DUP3 ADD MSTORE PUSH32 0xB31D8E8FA42B269769F65CB3FBEE94D28EFB43A3A870E2417A6AEF591601A9F8 SWAP2 ADD PUSH1 0x40 MLOAD DUP1 SWAP2 SUB SWAP1 LOG1 SWAP3 SWAP2 POP POP JUMP JUMPDEST PUSH3 0x329 DUP3 DUP3 PUSH1 0x40 MLOAD DUP1 PUSH1 0x20 ADD PUSH1 0x40 MSTORE DUP1 PUSH1 0x0 DUP2 MSTORE POP PUSH3 0x32D PUSH1 0x20 SHL PUSH1 0x20 SHR JUMP JUMPDEST POP POP JUMP JUMPDEST PUSH3 0x339 DUP4 DUP4 PUSH3 0x3A9 JUMP JUMPDEST PUSH3 0x348 PUSH1 0x0 DUP5 DUP5 DUP5 PUSH3 0x4FF JUMP JUMPDEST PUSH3 0x3A4 JUMPI PUSH1 0x40 MLOAD PUSH3 0x461BCD PUSH1 0xE5 SHL DUP2 MSTORE PUSH1 0x20 PUSH1 0x4 DUP3 ADD MSTORE PUSH1 0x32 PUSH1 0x24 DUP3 ADD MSTORE PUSH1 0x0 DUP1 MLOAD PUSH1 0x20 PUSH3 0x3B8D DUP4 CODECOPY DUP2 MLOAD SWAP2 MSTORE PUSH1 0x44 DUP3 ADD MSTORE PUSH18 0x31B2B4BB32B91034B6B83632B6B2B73A32B9 PUSH1 0x71 SHL PUSH1 0x64 DUP3 ADD MSTORE PUSH1 0x84 ADD JUMPDEST PUSH1 0x40 MLOAD DUP1 SWAP2 SUB SWAP1 REVERT JUMPDEST POP POP POP JUMP JUMPDEST PUSH1 0x1 PUSH1 0x1 PUSH1 0xA0 SHL SUB DUP3 AND PUSH3 0x401 JUMPI PUSH1 0x40 MLOAD PUSH3 0x461BCD PUSH1 0xE5 SHL DUP2 MSTORE PUSH1 0x20 PUSH1 0x4 DUP3 ADD DUP2 SWAP1 MSTORE PUSH1 0x24 DUP3 ADD MSTORE PUSH32 0x4552433732313A206D696E7420746F20746865207A65726F2061646472657373 PUSH1 0x44 DUP3 ADD MSTORE PUSH1 0x64 ADD PUSH3 0x39B JUMP JUMPDEST PUSH1 0x0 DUP2 DUP2 MSTORE PUSH1 0x2 PUSH1 0x20 MSTORE PUSH1 0x40 SWAP1 KECCAK256 SLOAD PUSH1 0x1 PUSH1 0x1 PUSH1 0xA0 SHL SUB AND ISZERO PUSH3 0x468 JUMPI PUSH1 0x40 MLOAD PUSH3 0x461BCD PUSH1 0xE5 SHL DUP2 MSTORE PUSH1 0x20 PUSH1 0x4 DUP3 ADD MSTORE PUSH1 0x1C PUSH1 0x24 DUP3 ADD MSTORE PUSH32 0x4552433732313A20746F6B656E20616C7265616479206D696E74656400000000 PUSH1 0x44 DUP3 ADD MSTORE PUSH1 0x64 ADD PUSH3 0x39B JUMP JUMPDEST PUSH3 0x476 PUSH1 0x0 DUP4 DUP4 PUSH3 0x668 JUMP JUMPDEST PUSH1 0x1 PUSH1 0x1 PUSH1 0xA0 SHL SUB DUP3 AND PUSH1 0x0 SWAP1 DUP2 MSTORE PUSH1 0x3 PUSH1 0x20 MSTORE PUSH1 0x40 DUP2 KECCAK256 DUP1 SLOAD PUSH1 0x1 SWAP3 SWAP1 PUSH3 0x4A1 SWAP1 DUP5 SWAP1 PUSH3 0xAE8 JUMP JUMPDEST SWAP1 SWAP2 SSTORE POP POP PUSH1 0x0 DUP2 DUP2 MSTORE PUSH1 0x2 PUSH1 0x20 MSTORE PUSH1 0x40 DUP1 DUP3 KECCAK256 DUP1 SLOAD PUSH1 0x1 PUSH1 0x1 PUSH1 0xA0 SHL SUB NOT AND PUSH1 0x1 PUSH1 0x1 PUSH1 0xA0 SHL SUB DUP7 AND SWAP1 DUP2 OR SWAP1 SWAP2 SSTORE SWAP1 MLOAD DUP4 SWAP3 SWAP1 PUSH32 0xDDF252AD1BE2C89B69C2B068FC378DAA952BA7F163C4A11628F55A4DF523B3EF SWAP1 DUP3 SWAP1 LOG4 POP POP JUMP JUMPDEST PUSH1 0x0 PUSH3 0x520 DUP5 PUSH1 0x1 PUSH1 0x1 PUSH1 0xA0 SHL SUB AND PUSH3 0x744 PUSH1 0x20 SHL PUSH3 0x1B7A OR PUSH1 0x20 SHR JUMP JUMPDEST ISZERO PUSH3 0x65C JUMPI PUSH1 0x40 MLOAD PUSH4 0xA85BD01 PUSH1 0xE1 SHL DUP2 MSTORE PUSH1 0x1 PUSH1 0x1 PUSH1 0xA0 SHL SUB DUP6 AND SWAP1 PUSH4 0x150B7A02 SWAP1 PUSH3 0x55A SWAP1 CALLER SWAP1 DUP10 SWAP1 DUP9 SWAP1 DUP9 SWAP1 PUSH1 0x4 ADD PUSH3 0xA6D JUMP JUMPDEST PUSH1 0x20 PUSH1 0x40 MLOAD DUP1 DUP4 SUB DUP2 PUSH1 0x0 DUP8 DUP1 EXTCODESIZE ISZERO DUP1 ISZERO PUSH3 0x575 JUMPI PUSH1 0x0 DUP1 REVERT JUMPDEST POP GAS CALL SWAP3 POP POP POP DUP1 ISZERO PUSH3 0x5A8 JUMPI POP PUSH1 0x40 DUP1 MLOAD PUSH1 0x1F RETURNDATASIZE SWAP1 DUP2 ADD PUSH1 0x1F NOT AND DUP3 ADD SWAP1 SWAP3 MSTORE PUSH3 0x5A5 SWAP2 DUP2 ADD SWAP1 PUSH3 0xA3A JUMP JUMPDEST PUSH1 0x1 JUMPDEST PUSH3 0x641 JUMPI RETURNDATASIZE DUP1 DUP1 ISZERO PUSH3 0x5D9 JUMPI PUSH1 0x40 MLOAD SWAP2 POP PUSH1 0x1F NOT PUSH1 0x3F RETURNDATASIZE ADD AND DUP3 ADD PUSH1 0x40 MSTORE RETURNDATASIZE DUP3 MSTORE RETURNDATASIZE PUSH1 0x0 PUSH1 0x20 DUP5 ADD RETURNDATACOPY PUSH3 0x5DE JUMP JUMPDEST PUSH1 0x60 SWAP2 POP JUMPDEST POP DUP1 MLOAD PUSH3 0x639 JUMPI PUSH1 0x40 MLOAD PUSH3 0x461BCD PUSH1 0xE5 SHL DUP2 MSTORE PUSH1 0x20 PUSH1 0x4 DUP3 ADD MSTORE PUSH1 0x32 PUSH1 0x24 DUP3 ADD MSTORE PUSH1 0x0 DUP1 MLOAD PUSH1 0x20 PUSH3 0x3B8D DUP4 CODECOPY DUP2 MLOAD SWAP2 MSTORE PUSH1 0x44 DUP3 ADD MSTORE PUSH18 0x31B2B4BB32B91034B6B83632B6B2B73A32B9 PUSH1 0x71 SHL PUSH1 0x64 DUP3 ADD MSTORE PUSH1 0x84 ADD PUSH3 0x39B JUMP JUMPDEST DUP1 MLOAD DUP2 PUSH1 0x20 ADD REVERT JUMPDEST PUSH1 0x1 PUSH1 0x1 PUSH1 0xE0 SHL SUB NOT AND PUSH4 0xA85BD01 PUSH1 0xE1 SHL EQ SWAP1 POP PUSH3 0x660 JUMP JUMPDEST POP PUSH1 0x1 JUMPDEST SWAP5 SWAP4 POP POP POP POP JUMP JUMPDEST PUSH3 0x680 DUP4 DUP4 DUP4 PUSH3 0x3A4 PUSH1 0x20 SHL PUSH3 0x688 OR PUSH1 0x20 SHR JUMP JUMPDEST PUSH1 0x1 PUSH1 0x1 PUSH1 0xA0 SHL SUB DUP4 AND PUSH3 0x6DE JUMPI PUSH3 0x6D8 DUP2 PUSH1 0x8 DUP1 SLOAD PUSH1 0x0 DUP4 DUP2 MSTORE PUSH1 0x9 PUSH1 0x20 MSTORE PUSH1 0x40 DUP2 KECCAK256 DUP3 SWAP1 SSTORE PUSH1 0x1 DUP3 ADD DUP4 SSTORE SWAP2 SWAP1 SWAP2 MSTORE PUSH32 0xF3F7A9FE364FAAB93B216DA50A3214154F22A0A2B415B23A84C8169E8B636EE3 ADD SSTORE JUMP JUMPDEST PUSH3 0x704 JUMP JUMPDEST DUP2 PUSH1 0x1 PUSH1 0x1 PUSH1 0xA0 SHL SUB AND DUP4 PUSH1 0x1 PUSH1 0x1 PUSH1 0xA0 SHL SUB AND EQ PUSH3 0x704 JUMPI PUSH3 0x704 DUP4 DUP3 PUSH3 0x753 JUMP JUMPDEST PUSH1 0x1 PUSH1 0x1 PUSH1 0xA0 SHL SUB DUP3 AND PUSH3 0x71E JUMPI PUSH3 0x3A4 DUP2 PUSH3 0x800 JUMP JUMPDEST DUP3 PUSH1 0x1 PUSH1 0x1 PUSH1 0xA0 SHL SUB AND DUP3 PUSH1 0x1 PUSH1 0x1 PUSH1 0xA0 SHL SUB AND EQ PUSH3 0x3A4 JUMPI PUSH3 0x3A4 DUP3 DUP3 PUSH3 0x8BA JUMP JUMPDEST PUSH1 0x1 PUSH1 0x1 PUSH1 0xA0 SHL SUB AND EXTCODESIZE ISZERO ISZERO SWAP1 JUMP JUMPDEST PUSH1 0x0 PUSH1 0x1 PUSH3 0x76D DUP5 PUSH3 0x90B PUSH1 0x20 SHL PUSH3 0x1684 OR PUSH1 0x20 SHR JUMP JUMPDEST PUSH3 0x779 SWAP2 SWAP1 PUSH3 0xB38 JUMP JUMPDEST PUSH1 0x0 DUP4 DUP2 MSTORE PUSH1 0x7 PUSH1 0x20 MSTORE PUSH1 0x40 SWAP1 KECCAK256 SLOAD SWAP1 SWAP2 POP DUP1 DUP3 EQ PUSH3 0x7CD JUMPI PUSH1 0x1 PUSH1 0x1 PUSH1 0xA0 SHL SUB DUP5 AND PUSH1 0x0 SWAP1 DUP2 MSTORE PUSH1 0x6 PUSH1 0x20 SWAP1 DUP2 MSTORE PUSH1 0x40 DUP1 DUP4 KECCAK256 DUP6 DUP5 MSTORE DUP3 MSTORE DUP1 DUP4 KECCAK256 SLOAD DUP5 DUP5 MSTORE DUP2 DUP5 KECCAK256 DUP2 SWAP1 SSTORE DUP4 MSTORE PUSH1 0x7 SWAP1 SWAP2 MSTORE SWAP1 KECCAK256 DUP2 SWAP1 SSTORE JUMPDEST POP PUSH1 0x0 SWAP2 DUP3 MSTORE PUSH1 0x7 PUSH1 0x20 SWAP1 DUP2 MSTORE PUSH1 0x40 DUP1 DUP5 KECCAK256 DUP5 SWAP1 SSTORE PUSH1 0x1 PUSH1 0x1 PUSH1 0xA0 SHL SUB SWAP1 SWAP5 AND DUP4 MSTORE PUSH1 0x6 DUP2 MSTORE DUP4 DUP4 KECCAK256 SWAP2 DUP4 MSTORE MSTORE SWAP1 DUP2 KECCAK256 SSTORE JUMP JUMPDEST PUSH1 0x8 SLOAD PUSH1 0x0 SWAP1 PUSH3 0x814 SWAP1 PUSH1 0x1 SWAP1 PUSH3 0xB38 JUMP JUMPDEST PUSH1 0x0 DUP4 DUP2 MSTORE PUSH1 0x9 PUSH1 0x20 MSTORE PUSH1 0x40 DUP2 KECCAK256 SLOAD PUSH1 0x8 DUP1 SLOAD SWAP4 SWAP5 POP SWAP1 SWAP3 DUP5 SWAP1 DUP2 LT PUSH3 0x83F JUMPI PUSH3 0x83F PUSH3 0xC08 JUMP JUMPDEST SWAP1 PUSH1 0x0 MSTORE PUSH1 0x20 PUSH1 0x0 KECCAK256 ADD SLOAD SWAP1 POP DUP1 PUSH1 0x8 DUP4 DUP2 SLOAD DUP2 LT PUSH3 0x863 JUMPI PUSH3 0x863 PUSH3 0xC08 JUMP JUMPDEST PUSH1 0x0 SWAP2 DUP3 MSTORE PUSH1 0x20 DUP1 DUP4 KECCAK256 SWAP1 SWAP2 ADD SWAP3 SWAP1 SWAP3 SSTORE DUP3 DUP2 MSTORE PUSH1 0x9 SWAP1 SWAP2 MSTORE PUSH1 0x40 DUP1 DUP3 KECCAK256 DUP5 SWAP1 SSTORE DUP6 DUP3 MSTORE DUP2 KECCAK256 SSTORE PUSH1 0x8 DUP1 SLOAD DUP1 PUSH3 0x89E JUMPI PUSH3 0x89E PUSH3 0xBF2 JUMP JUMPDEST PUSH1 0x1 SWAP1 SUB DUP2 DUP2 SWAP1 PUSH1 0x0 MSTORE PUSH1 0x20 PUSH1 0x0 KECCAK256 ADD PUSH1 0x0 SWAP1 SSTORE SWAP1 SSTORE POP POP POP POP JUMP JUMPDEST PUSH1 0x0 PUSH3 0x8D2 DUP4 PUSH3 0x90B PUSH1 0x20 SHL PUSH3 0x1684 OR PUSH1 0x20 SHR JUMP JUMPDEST PUSH1 0x1 PUSH1 0x1 PUSH1 0xA0 SHL SUB SWAP1 SWAP4 AND PUSH1 0x0 SWAP1 DUP2 MSTORE PUSH1 0x6 PUSH1 0x20 SWAP1 DUP2 MSTORE PUSH1 0x40 DUP1 DUP4 KECCAK256 DUP7 DUP5 MSTORE DUP3 MSTORE DUP1 DUP4 KECCAK256 DUP6 SWAP1 SSTORE SWAP4 DUP3 MSTORE PUSH1 0x7 SWAP1 MSTORE SWAP2 SWAP1 SWAP2 KECCAK256 SWAP2 SWAP1 SWAP2 SSTORE POP JUMP JUMPDEST PUSH1 0x0 PUSH1 0x1 PUSH1 0x1 PUSH1 0xA0 SHL SUB DUP3 AND PUSH3 0x978 JUMPI PUSH1 0x40 MLOAD PUSH3 0x461BCD PUSH1 0xE5 SHL DUP2 MSTORE PUSH1 0x20 PUSH1 0x4 DUP3 ADD MSTORE PUSH1 0x2A PUSH1 0x24 DUP3 ADD MSTORE PUSH32 0x4552433732313A2062616C616E636520717565727920666F7220746865207A65 PUSH1 0x44 DUP3 ADD MSTORE PUSH10 0x726F2061646472657373 PUSH1 0xB0 SHL PUSH1 0x64 DUP3 ADD MSTORE PUSH1 0x84 ADD PUSH3 0x39B JUMP JUMPDEST POP PUSH1 0x1 PUSH1 0x1 PUSH1 0xA0 SHL SUB AND PUSH1 0x0 SWAP1 DUP2 MSTORE PUSH1 0x3 PUSH1 0x20 MSTORE PUSH1 0x40 SWAP1 KECCAK256 SLOAD SWAP1 JUMP JUMPDEST DUP3 DUP1 SLOAD PUSH3 0x9A2 SWAP1 PUSH3 0xB52 JUMP JUMPDEST SWAP1 PUSH1 0x0 MSTORE PUSH1 0x20 PUSH1 0x0 KECCAK256 SWAP1 PUSH1 0x1F ADD PUSH1 0x20 SWAP1 DIV DUP2 ADD SWAP3 DUP3 PUSH3 0x9C6 JUMPI PUSH1 0x0 DUP6 SSTORE PUSH3 0xA11 JUMP JUMPDEST DUP3 PUSH1 0x1F LT PUSH3 0x9E1 JUMPI DUP1 MLOAD PUSH1 0xFF NOT AND DUP4 DUP1 ADD OR DUP6 SSTORE PUSH3 0xA11 JUMP JUMPDEST DUP3 DUP1 ADD PUSH1 0x1 ADD DUP6 SSTORE DUP3 ISZERO PUSH3 0xA11 JUMPI SWAP2 DUP3 ADD JUMPDEST DUP3 DUP2 GT ISZERO PUSH3 0xA11 JUMPI DUP3 MLOAD DUP3 SSTORE SWAP2 PUSH1 0x20 ADD SWAP2 SWAP1 PUSH1 0x1 ADD SWAP1 PUSH3 0x9F4 JUMP JUMPDEST POP PUSH3 0xA1F SWAP3 SWAP2 POP PUSH3 0xA23 JUMP JUMPDEST POP SWAP1 JUMP JUMPDEST JUMPDEST DUP1 DUP3 GT ISZERO PUSH3 0xA1F JUMPI PUSH1 0x0 DUP2 SSTORE PUSH1 0x1 ADD PUSH3 0xA24 JUMP JUMPDEST PUSH1 0x0 PUSH1 0x20 DUP3 DUP5 SUB SLT ISZERO PUSH3 0xA4D JUMPI PUSH1 0x0 DUP1 REVERT JUMPDEST DUP2 MLOAD PUSH1 0x1 PUSH1 0x1 PUSH1 0xE0 SHL SUB NOT DUP2 AND DUP2 EQ PUSH3 0xA66 JUMPI PUSH1 0x0 DUP1 REVERT JUMPDEST SWAP4 SWAP3 POP POP POP JUMP JUMPDEST PUSH1 0x0 PUSH1 0x1 DUP1 PUSH1 0xA0 SHL SUB DUP1 DUP8 AND DUP4 MSTORE PUSH1 0x20 DUP2 DUP8 AND DUP2 DUP6 ADD MSTORE DUP6 PUSH1 0x40 DUP6 ADD MSTORE PUSH1 0x80 PUSH1 0x60 DUP6 ADD MSTORE DUP5 MLOAD SWAP2 POP DUP2 PUSH1 0x80 DUP6 ADD MSTORE PUSH1 0x0 JUMPDEST DUP3 DUP2 LT ISZERO PUSH3 0xABC JUMPI DUP6 DUP2 ADD DUP3 ADD MLOAD DUP6 DUP3 ADD PUSH1 0xA0 ADD MSTORE DUP2 ADD PUSH3 0xA9E JUMP JUMPDEST DUP3 DUP2 GT ISZERO PUSH3 0xACF JUMPI PUSH1 0x0 PUSH1 0xA0 DUP5 DUP8 ADD ADD MSTORE JUMPDEST POP POP PUSH1 0x1F ADD PUSH1 0x1F NOT AND SWAP2 SWAP1 SWAP2 ADD PUSH1 0xA0 ADD SWAP6 SWAP5 POP POP POP POP POP JUMP JUMPDEST PUSH1 0x0 DUP3 NOT DUP3 GT ISZERO PUSH3 0xAFE JUMPI PUSH3 0xAFE PUSH3 0xBDC JUMP JUMPDEST POP ADD SWAP1 JUMP JUMPDEST PUSH1 0x0 PUSH1 0x1 PUSH1 0x1 PUSH1 0x40 SHL SUB DUP4 DUP2 AND DUP1 PUSH3 0xB2C JUMPI PUSH4 0x4E487B71 PUSH1 0xE0 SHL PUSH1 0x0 MSTORE PUSH1 0x12 PUSH1 0x4 MSTORE PUSH1 0x24 PUSH1 0x0 REVERT JUMPDEST SWAP3 AND SWAP2 SWAP1 SWAP2 DIV SWAP3 SWAP2 POP POP JUMP JUMPDEST PUSH1 0x0 DUP3 DUP3 LT ISZERO PUSH3 0xB4D JUMPI PUSH3 0xB4D PUSH3 0xBDC JUMP JUMPDEST POP SUB SWAP1 JUMP JUMPDEST PUSH1 0x1 DUP2 DUP2 SHR SWAP1 DUP3 AND DUP1 PUSH3 0xB67 JUMPI PUSH1 0x7F DUP3 AND SWAP2 POP JUMPDEST PUSH1 0x20 DUP3 LT DUP2 EQ ISZERO PUSH3 0xB89 JUMPI PUSH4 0x4E487B71 PUSH1 0xE0 SHL PUSH1 0x0 MSTORE PUSH1 0x22 PUSH1 0x4 MSTORE PUSH1 0x24 PUSH1 0x0 REVERT JUMPDEST POP SWAP2 SWAP1 POP JUMP JUMPDEST PUSH1 0x0 PUSH1 0x1 PUSH1 0x1 PUSH1 0x40 SHL SUB DUP3 DUP2 AND DUP1 DUP3 EQ ISZERO PUSH3 0xBAF JUMPI PUSH3 0xBAF PUSH3 0xBDC JUMP JUMPDEST PUSH1 0x1 ADD SWAP4 SWAP3 POP POP POP JUMP JUMPDEST PUSH1 0x0 PUSH1 0xFF DUP3 AND PUSH1 0xFF DUP2 EQ ISZERO PUSH3 0xBD3 JUMPI PUSH3 0xBD3 PUSH3 0xBDC JUMP JUMPDEST PUSH1 0x1 ADD SWAP3 SWAP2 POP POP JUMP JUMPDEST PUSH4 0x4E487B71 PUSH1 0xE0 SHL PUSH1 0x0 MSTORE PUSH1 0x11 PUSH1 0x4 MSTORE PUSH1 0x24 PUSH1 0x0 REVERT JUMPDEST PUSH4 0x4E487B71 PUSH1 0xE0 SHL PUSH1 0x0 MSTORE PUSH1 0x31 PUSH1 0x4 MSTORE PUSH1 0x24 PUSH1 0x0 REVERT JUMPDEST PUSH4 0x4E487B71 PUSH1 0xE0 SHL PUSH1 0x0 MSTORE PUSH1 0x32 PUSH1 0x4 MSTORE PUSH1 0x24 PUSH1 0x0 REVERT JUMPDEST PUSH2 0x2F5F DUP1 PUSH3 0xC2E PUSH1 0x0 CODECOPY PUSH1 0x0 RETURN INVALID PUSH1 0x80 PUSH1 0x40 MSTORE CALLVALUE DUP1 ISZERO PUSH2 0x10 JUMPI PUSH1 0x0 DUP1 REVERT JUMPDEST POP PUSH1 0x4 CALLDATASIZE LT PUSH2 0x1C4 JUMPI PUSH1 0x0 CALLDATALOAD PUSH1 0xE0 SHR DUP1 PUSH4 0x6352211E GT PUSH2 0xF9 JUMPI DUP1 PUSH4 0x95D89B41 GT PUSH2 0x97 JUMPI DUP1 PUSH4 0xB88D4FDE GT PUSH2 0x71 JUMPI DUP1 PUSH4 0xB88D4FDE EQ PUSH2 0x3AB JUMPI DUP1 PUSH4 0xBD96237D EQ PUSH2 0x3BE JUMPI DUP1 PUSH4 0xC87B56DD EQ PUSH2 0x3D1 JUMPI DUP1 PUSH4 0xE985E9C5 EQ PUSH2 0x3E4 JUMPI PUSH1 0x0 DUP1 REVERT JUMPDEST DUP1 PUSH4 0x95D89B41 EQ PUSH2 0x37D JUMPI DUP1 PUSH4 0x9634540B EQ PUSH2 0x385 JUMPI DUP1 PUSH4 0xA22CB465 EQ PUSH2 0x398 JUMPI PUSH1 0x0 DUP1 REVERT JUMPDEST DUP1 PUSH4 0x6A7DAC7D GT PUSH2 0xD3 JUMPI DUP1 PUSH4 0x6A7DAC7D EQ PUSH2 0x331 JUMPI DUP1 PUSH4 0x70A08231 EQ PUSH2 0x344 JUMPI DUP1 PUSH4 0x800B0160 EQ PUSH2 0x357 JUMPI DUP1 PUSH4 0x90DD6F0B EQ PUSH2 0x36A JUMPI PUSH1 0x0 DUP1 REVERT JUMPDEST DUP1 PUSH4 0x6352211E EQ PUSH2 0x2F8 JUMPI DUP1 PUSH4 0x67D81B32 EQ PUSH2 0x30B JUMPI DUP1 PUSH4 0x6892E18D EQ PUSH2 0x31E JUMPI PUSH1 0x0 DUP1 REVERT JUMPDEST DUP1 PUSH4 0x2F745C59 GT PUSH2 0x166 JUMPI DUP1 PUSH4 0x485456BC GT PUSH2 0x140 JUMPI DUP1 PUSH4 0x485456BC EQ PUSH2 0x2B7 JUMPI DUP1 PUSH4 0x4F6CCCE7 EQ PUSH2 0x2BF JUMPI DUP1 PUSH4 0x50089621 EQ PUSH2 0x2D2 JUMPI DUP1 PUSH4 0x59F755FE EQ PUSH2 0x2E5 JUMPI PUSH1 0x0 DUP1 REVERT JUMPDEST DUP1 PUSH4 0x2F745C59 EQ PUSH2 0x27E JUMPI DUP1 PUSH4 0x42842E0E EQ PUSH2 0x291 JUMPI DUP1 PUSH4 0x46582CA4 EQ PUSH2 0x2A4 JUMPI PUSH1 0x0 DUP1 REVERT JUMPDEST DUP1 PUSH4 0x95EA7B3 GT PUSH2 0x1A2 JUMPI DUP1 PUSH4 0x95EA7B3 EQ PUSH2 0x231 JUMPI DUP1 PUSH4 0x18160DDD EQ PUSH2 0x246 JUMPI DUP1 PUSH4 0x1E7AA37D EQ PUSH2 0x258 JUMPI DUP1 PUSH4 0x23B872DD EQ PUSH2 0x26B JUMPI PUSH1 0x0 DUP1 REVERT JUMPDEST DUP1 PUSH4 0x1FFC9A7 EQ PUSH2 0x1C9 JUMPI DUP1 PUSH4 0x6FDDE03 EQ PUSH2 0x1F1 JUMPI DUP1 PUSH4 0x81812FC EQ PUSH2 0x206 JUMPI JUMPDEST PUSH1 0x0 DUP1 REVERT JUMPDEST PUSH2 0x1DC PUSH2 0x1D7 CALLDATASIZE PUSH1 0x4 PUSH2 0x2AB7 JUMP JUMPDEST PUSH2 0x420 JUMP JUMPDEST PUSH1 0x40 MLOAD SWAP1 ISZERO ISZERO DUP2 MSTORE PUSH1 0x20 ADD JUMPDEST PUSH1 0x40 MLOAD DUP1 SWAP2 SUB SWAP1 RETURN JUMPDEST PUSH2 0x1F9 PUSH2 0x44B JUMP JUMPDEST PUSH1 0x40 MLOAD PUSH2 0x1E8 SWAP2 SWAP1 PUSH2 0x2C50 JUMP JUMPDEST PUSH2 0x219 PUSH2 0x214 CALLDATASIZE PUSH1 0x4 PUSH2 0x2AF1 JUMP JUMPDEST PUSH2 0x4DD JUMP JUMPDEST PUSH1 0x40 MLOAD PUSH1 0x1 PUSH1 0x1 PUSH1 0xA0 SHL SUB SWAP1 SWAP2 AND DUP2 MSTORE PUSH1 0x20 ADD PUSH2 0x1E8 JUMP JUMPDEST PUSH2 0x244 PUSH2 0x23F CALLDATASIZE PUSH1 0x4 PUSH2 0x2A34 JUMP JUMPDEST PUSH2 0x577 JUMP JUMPDEST STOP JUMPDEST PUSH1 0x8 SLOAD JUMPDEST PUSH1 0x40 MLOAD SWAP1 DUP2 MSTORE PUSH1 0x20 ADD PUSH2 0x1E8 JUMP JUMPDEST PUSH2 0x24A PUSH2 0x266 CALLDATASIZE PUSH1 0x4 PUSH2 0x2AF1 JUMP JUMPDEST PUSH2 0x68D JUMP JUMPDEST PUSH2 0x244 PUSH2 0x279 CALLDATASIZE PUSH1 0x4 PUSH2 0x28E6 JUMP JUMPDEST PUSH2 0x6B7 JUMP JUMPDEST PUSH2 0x24A PUSH2 0x28C CALLDATASIZE PUSH1 0x4 PUSH2 0x2A34 JUMP JUMPDEST PUSH2 0x6E8 JUMP JUMPDEST PUSH2 0x244 PUSH2 0x29F CALLDATASIZE PUSH1 0x4 PUSH2 0x28E6 JUMP JUMPDEST PUSH2 0x77E JUMP JUMPDEST PUSH2 0x24A PUSH2 0x2B2 CALLDATASIZE PUSH1 0x4 PUSH2 0x2B3E JUMP JUMPDEST PUSH2 0x799 JUMP JUMPDEST PUSH2 0x24A PUSH2 0x8C0 JUMP JUMPDEST PUSH2 0x24A PUSH2 0x2CD CALLDATASIZE PUSH1 0x4 PUSH2 0x2AF1 JUMP JUMPDEST PUSH2 0x97D JUMP JUMPDEST PUSH2 0x1DC PUSH2 0x2E0 CALLDATASIZE PUSH1 0x4 PUSH2 0x2A34 JUMP JUMPDEST PUSH2 0xA10 JUMP JUMPDEST PUSH2 0x24A PUSH2 0x2F3 CALLDATASIZE PUSH1 0x4 PUSH2 0x2B5A JUMP JUMPDEST PUSH2 0xA36 JUMP JUMPDEST PUSH2 0x219 PUSH2 0x306 CALLDATASIZE PUSH1 0x4 PUSH2 0x2AF1 JUMP JUMPDEST PUSH2 0xC22 JUMP JUMPDEST PUSH2 0x24A PUSH2 0x319 CALLDATASIZE PUSH1 0x4 PUSH2 0x2B5A JUMP JUMPDEST PUSH2 0xC99 JUMP JUMPDEST PUSH2 0x244 PUSH2 0x32C CALLDATASIZE PUSH1 0x4 PUSH2 0x2AF1 JUMP JUMPDEST PUSH2 0xEBA JUMP JUMPDEST PUSH2 0x24A PUSH2 0x33F CALLDATASIZE PUSH1 0x4 PUSH2 0x2AF1 JUMP JUMPDEST PUSH2 0x1042 JUMP JUMPDEST PUSH2 0x24A PUSH2 0x352 CALLDATASIZE PUSH1 0x4 PUSH2 0x2898 JUMP JUMPDEST PUSH2 0x1684 JUMP JUMPDEST PUSH2 0x244 PUSH2 0x365 CALLDATASIZE PUSH1 0x4 PUSH2 0x2AF1 JUMP JUMPDEST PUSH2 0x170B JUMP JUMPDEST PUSH2 0x24A PUSH2 0x378 CALLDATASIZE PUSH1 0x4 PUSH2 0x2A5E JUMP JUMPDEST PUSH2 0x1825 JUMP JUMPDEST PUSH2 0x1F9 PUSH2 0x1858 JUMP JUMPDEST PUSH2 0x244 PUSH2 0x393 CALLDATASIZE PUSH1 0x4 PUSH2 0x2AF1 JUMP JUMPDEST PUSH2 0x1867 JUMP JUMPDEST PUSH2 0x244 PUSH2 0x3A6 CALLDATASIZE PUSH1 0x4 PUSH2 0x29FD JUMP JUMPDEST PUSH2 0x19F1 JUMP JUMPDEST PUSH2 0x244 PUSH2 0x3B9 CALLDATASIZE PUSH1 0x4 PUSH2 0x2922 JUMP JUMPDEST PUSH2 0x19FC JUMP JUMPDEST PUSH2 0x24A PUSH2 0x3CC CALLDATASIZE PUSH1 0x4 PUSH2 0x2B23 JUMP JUMPDEST PUSH2 0x1A2E JUMP JUMPDEST PUSH2 0x1F9 PUSH2 0x3DF CALLDATASIZE PUSH1 0x4 PUSH2 0x2AF1 JUMP JUMPDEST PUSH2 0x1A92 JUMP JUMPDEST PUSH2 0x1DC PUSH2 0x3F2 CALLDATASIZE PUSH1 0x4 PUSH2 0x28B3 JUMP JUMPDEST PUSH1 0x1 PUSH1 0x1 PUSH1 0xA0 SHL SUB SWAP2 DUP3 AND PUSH1 0x0 SWAP1 DUP2 MSTORE PUSH1 0x5 PUSH1 0x20 SWAP1 DUP2 MSTORE PUSH1 0x40 DUP1 DUP4 KECCAK256 SWAP4 SWAP1 SWAP5 AND DUP3 MSTORE SWAP2 SWAP1 SWAP2 MSTORE KECCAK256 SLOAD PUSH1 0xFF AND SWAP1 JUMP JUMPDEST PUSH1 0x0 PUSH1 0x1 PUSH1 0x1 PUSH1 0xE0 SHL SUB NOT DUP3 AND PUSH4 0x780E9D63 PUSH1 0xE0 SHL EQ DUP1 PUSH2 0x445 JUMPI POP PUSH2 0x445 DUP3 PUSH2 0x1B89 JUMP JUMPDEST SWAP3 SWAP2 POP POP JUMP JUMPDEST PUSH1 0x60 PUSH1 0x0 DUP1 SLOAD PUSH2 0x45A SWAP1 PUSH2 0x2DE3 JUMP JUMPDEST DUP1 PUSH1 0x1F ADD PUSH1 0x20 DUP1 SWAP2 DIV MUL PUSH1 0x20 ADD PUSH1 0x40 MLOAD SWAP1 DUP2 ADD PUSH1 0x40 MSTORE DUP1 SWAP3 SWAP2 SWAP1 DUP2 DUP2 MSTORE PUSH1 0x20 ADD DUP3 DUP1 SLOAD PUSH2 0x486 SWAP1 PUSH2 0x2DE3 JUMP JUMPDEST DUP1 ISZERO PUSH2 0x4D3 JUMPI DUP1 PUSH1 0x1F LT PUSH2 0x4A8 JUMPI PUSH2 0x100 DUP1 DUP4 SLOAD DIV MUL DUP4 MSTORE SWAP2 PUSH1 0x20 ADD SWAP2 PUSH2 0x4D3 JUMP JUMPDEST DUP3 ADD SWAP2 SWAP1 PUSH1 0x0 MSTORE PUSH1 0x20 PUSH1 0x0 KECCAK256 SWAP1 JUMPDEST DUP2 SLOAD DUP2 MSTORE SWAP1 PUSH1 0x1 ADD SWAP1 PUSH1 0x20 ADD DUP1 DUP4 GT PUSH2 0x4B6 JUMPI DUP3 SWAP1 SUB PUSH1 0x1F AND DUP3 ADD SWAP2 JUMPDEST POP POP POP POP POP SWAP1 POP SWAP1 JUMP JUMPDEST PUSH1 0x0 DUP2 DUP2 MSTORE PUSH1 0x2 PUSH1 0x20 MSTORE PUSH1 0x40 DUP2 KECCAK256 SLOAD PUSH1 0x1 PUSH1 0x1 PUSH1 0xA0 SHL SUB AND PUSH2 0x55B JUMPI PUSH1 0x40 MLOAD PUSH3 0x461BCD PUSH1 0xE5 SHL DUP2 MSTORE PUSH1 0x20 PUSH1 0x4 DUP3 ADD MSTORE PUSH1 0x2C PUSH1 0x24 DUP3 ADD MSTORE PUSH32 0x4552433732313A20617070726F76656420717565727920666F72206E6F6E6578 PUSH1 0x44 DUP3 ADD MSTORE PUSH12 0x34B9BA32B73A103A37B5B2B7 PUSH1 0xA1 SHL PUSH1 0x64 DUP3 ADD MSTORE PUSH1 0x84 ADD JUMPDEST PUSH1 0x40 MLOAD DUP1 SWAP2 SUB SWAP1 REVERT JUMPDEST POP PUSH1 0x0 SWAP1 DUP2 MSTORE PUSH1 0x4 PUSH1 0x20 MSTORE PUSH1 0x40 SWAP1 KECCAK256 SLOAD PUSH1 0x1 PUSH1 0x1 PUSH1 0xA0 SHL SUB AND SWAP1 JUMP JUMPDEST PUSH1 0x0 PUSH2 0x582 DUP3 PUSH2 0xC22 JUMP JUMPDEST SWAP1 POP DUP1 PUSH1 0x1 PUSH1 0x1 PUSH1 0xA0 SHL SUB AND DUP4 PUSH1 0x1 PUSH1 0x1 PUSH1 0xA0 SHL SUB AND EQ ISZERO PUSH2 0x5F0 JUMPI PUSH1 0x40 MLOAD PUSH3 0x461BCD PUSH1 0xE5 SHL DUP2 MSTORE PUSH1 0x20 PUSH1 0x4 DUP3 ADD MSTORE PUSH1 0x21 PUSH1 0x24 DUP3 ADD MSTORE PUSH32 0x4552433732313A20617070726F76616C20746F2063757272656E74206F776E65 PUSH1 0x44 DUP3 ADD MSTORE PUSH1 0x39 PUSH1 0xF9 SHL PUSH1 0x64 DUP3 ADD MSTORE PUSH1 0x84 ADD PUSH2 0x552 JUMP JUMPDEST CALLER PUSH1 0x1 PUSH1 0x1 PUSH1 0xA0 SHL SUB DUP3 AND EQ DUP1 PUSH2 0x60C JUMPI POP PUSH2 0x60C DUP2 CALLER PUSH2 0x3F2 JUMP JUMPDEST PUSH2 0x67E JUMPI PUSH1 0x40 MLOAD PUSH3 0x461BCD PUSH1 0xE5 SHL DUP2 MSTORE PUSH1 0x20 PUSH1 0x4 DUP3 ADD MSTORE PUSH1 0x38 PUSH1 0x24 DUP3 ADD MSTORE PUSH32 0x4552433732313A20617070726F76652063616C6C6572206973206E6F74206F77 PUSH1 0x44 DUP3 ADD MSTORE PUSH32 0x6E6572206E6F7220617070726F76656420666F7220616C6C0000000000000000 PUSH1 0x64 DUP3 ADD MSTORE PUSH1 0x84 ADD PUSH2 0x552 JUMP JUMPDEST PUSH2 0x688 DUP4 DUP4 PUSH2 0x1BD9 JUMP JUMPDEST POP POP POP JUMP JUMPDEST PUSH1 0x0 DUP2 DUP2 MSTORE PUSH1 0x12 PUSH1 0x20 MSTORE PUSH1 0x40 DUP2 KECCAK256 SLOAD PUSH1 0xFF AND PUSH1 0xC EQ ISZERO PUSH2 0x6AF JUMPI POP PUSH1 0x1 SWAP2 SWAP1 POP JUMP JUMPDEST POP PUSH1 0x0 SWAP2 SWAP1 POP JUMP JUMPDEST PUSH2 0x6C1 CALLER DUP3 PUSH2 0x1C47 JUMP JUMPDEST PUSH2 0x6DD JUMPI PUSH1 0x40 MLOAD PUSH3 0x461BCD PUSH1 0xE5 SHL DUP2 MSTORE PUSH1 0x4 ADD PUSH2 0x552 SWAP1 PUSH2 0x2CDF JUMP JUMPDEST PUSH2 0x688 DUP4 DUP4 DUP4 PUSH2 0x1D3A JUMP JUMPDEST PUSH1 0x0 PUSH2 0x6F3 DUP4 PUSH2 0x1684 JUMP JUMPDEST DUP3 LT PUSH2 0x755 JUMPI PUSH1 0x40 MLOAD PUSH3 0x461BCD PUSH1 0xE5 SHL DUP2 MSTORE PUSH1 0x20 PUSH1 0x4 DUP3 ADD MSTORE PUSH1 0x2B PUSH1 0x24 DUP3 ADD MSTORE PUSH32 0x455243373231456E756D657261626C653A206F776E657220696E646578206F75 PUSH1 0x44 DUP3 ADD MSTORE PUSH11 0x74206F6620626F756E6473 PUSH1 0xA8 SHL PUSH1 0x64 DUP3 ADD MSTORE PUSH1 0x84 ADD PUSH2 0x552 JUMP JUMPDEST POP PUSH1 0x1 PUSH1 0x1 PUSH1 0xA0 SHL SUB SWAP2 SWAP1 SWAP2 AND PUSH1 0x0 SWAP1 DUP2 MSTORE PUSH1 0x6 PUSH1 0x20 SWAP1 DUP2 MSTORE PUSH1 0x40 DUP1 DUP4 KECCAK256 SWAP4 DUP4 MSTORE SWAP3 SWAP1 MSTORE KECCAK256 SLOAD SWAP1 JUMP JUMPDEST PUSH2 0x688 DUP4 DUP4 DUP4 PUSH1 0x40 MLOAD DUP1 PUSH1 0x20 ADD PUSH1 0x40 MSTORE DUP1 PUSH1 0x0 DUP2 MSTORE POP PUSH2 0x19FC JUMP JUMPDEST PUSH1 0x15 DUP1 SLOAD PUSH1 0x0 SWAP2 DUP2 SWAP1 DUP4 PUSH2 0x7AC DUP4 PUSH2 0x2E1E JUMP JUMPDEST SWAP1 SWAP2 SSTORE POP POP PUSH1 0xA SLOAD PUSH1 0x0 SWAP1 PUSH1 0x1 PUSH1 0x1 PUSH1 0xA0 SHL SUB AND PUSH4 0x4A0E2AA1 CALLER PUSH3 0x4C4B40 PUSH2 0x7D7 TIMESTAMP PUSH3 0x15180 PUSH2 0x2D30 JUMP JUMPDEST PUSH2 0x7E4 TIMESTAMP PUSH3 0xA8C00 PUSH2 0x2D30 JUMP JUMPDEST PUSH1 0x40 MLOAD DUP6 PUSH4 0xFFFFFFFF AND PUSH1 0xE0 SHL DUP2 MSTORE PUSH1 0x4 ADD PUSH2 0x803 SWAP5 SWAP4 SWAP3 SWAP2 SWAP1 PUSH2 0x2C2A JUMP JUMPDEST PUSH1 0x20 PUSH1 0x40 MLOAD DUP1 DUP4 SUB DUP2 PUSH1 0x0 DUP8 DUP1 EXTCODESIZE ISZERO DUP1 ISZERO PUSH2 0x81D JUMPI PUSH1 0x0 DUP1 REVERT JUMPDEST POP GAS CALL ISZERO DUP1 ISZERO PUSH2 0x831 JUMPI RETURNDATASIZE PUSH1 0x0 DUP1 RETURNDATACOPY RETURNDATASIZE PUSH1 0x0 REVERT JUMPDEST POP POP POP POP PUSH1 0x40 MLOAD RETURNDATASIZE PUSH1 0x1F NOT PUSH1 0x1F DUP3 ADD AND DUP3 ADD DUP1 PUSH1 0x40 MSTORE POP DUP2 ADD SWAP1 PUSH2 0x855 SWAP2 SWAP1 PUSH2 0x2B0A JUMP JUMPDEST PUSH1 0x40 DUP1 MLOAD PUSH1 0x60 DUP2 ADD DUP3 MSTORE PUSH1 0xFF DUP1 DUP10 AND DUP3 MSTORE PUSH1 0x1 PUSH1 0x1 PUSH1 0xA0 SHL SUB DUP1 DUP10 AND PUSH1 0x20 DUP1 DUP6 ADD SWAP2 DUP3 MSTORE DUP5 DUP7 ADD SWAP7 DUP8 MSTORE PUSH1 0x0 DUP10 DUP2 MSTORE PUSH1 0x17 SWAP1 SWAP2 MSTORE SWAP5 SWAP1 SWAP5 KECCAK256 SWAP3 MLOAD DUP4 SLOAD SWAP5 MLOAD SWAP1 SWAP2 AND PUSH2 0x100 MUL PUSH1 0x1 PUSH1 0x1 PUSH1 0xA8 SHL SUB NOT SWAP1 SWAP5 AND SWAP2 AND OR SWAP2 SWAP1 SWAP2 OR DUP2 SSTORE SWAP1 MLOAD PUSH1 0x1 SWAP1 SWAP2 ADD SSTORE POP SWAP1 POP SWAP3 SWAP2 POP POP JUMP JUMPDEST CALLER PUSH1 0x0 SWAP1 DUP2 MSTORE PUSH1 0xF PUSH1 0x20 MSTORE PUSH1 0x40 DUP2 KECCAK256 DUP1 SLOAD SWAP1 DUP3 SWAP1 SSTORE PUSH1 0x10 DUP1 SLOAD DUP3 SWAP2 SWAP1 DUP5 SWAP1 PUSH2 0x8E9 SWAP1 DUP5 SWAP1 PUSH2 0x2DA0 JUMP JUMPDEST SWAP1 SWAP2 SSTORE POP POP PUSH1 0xD SLOAD PUSH1 0x40 MLOAD PUSH4 0x23B872DD PUSH1 0xE0 SHL DUP2 MSTORE ADDRESS PUSH1 0x4 DUP3 ADD MSTORE CALLER PUSH1 0x24 DUP3 ADD MSTORE PUSH1 0x44 DUP2 ADD DUP4 SWAP1 MSTORE PUSH1 0x1 PUSH1 0x1 PUSH1 0xA0 SHL SUB SWAP1 SWAP2 AND SWAP1 PUSH4 0x23B872DD SWAP1 PUSH1 0x64 ADD PUSH1 0x20 PUSH1 0x40 MLOAD DUP1 DUP4 SUB DUP2 PUSH1 0x0 DUP8 DUP1 EXTCODESIZE ISZERO DUP1 ISZERO PUSH2 0x940 JUMPI PUSH1 0x0 DUP1 REVERT JUMPDEST POP GAS CALL ISZERO DUP1 ISZERO PUSH2 0x954 JUMPI RETURNDATASIZE PUSH1 0x0 DUP1 RETURNDATACOPY RETURNDATASIZE PUSH1 0x0 REVERT JUMPDEST POP POP POP POP PUSH1 0x40 MLOAD RETURNDATASIZE PUSH1 0x1F NOT PUSH1 0x1F DUP3 ADD AND DUP3 ADD DUP1 PUSH1 0x40 MSTORE POP DUP2 ADD SWAP1 PUSH2 0x978 SWAP2 SWAP1 PUSH2 0x2A9A JUMP JUMPDEST POP POP SWAP1 JUMP JUMPDEST PUSH1 0x0 PUSH2 0x988 PUSH1 0x8 SLOAD SWAP1 JUMP JUMPDEST DUP3 LT PUSH2 0x9EB JUMPI PUSH1 0x40 MLOAD PUSH3 0x461BCD PUSH1 0xE5 SHL DUP2 MSTORE PUSH1 0x20 PUSH1 0x4 DUP3 ADD MSTORE PUSH1 0x2C PUSH1 0x24 DUP3 ADD MSTORE PUSH32 0x455243373231456E756D657261626C653A20676C6F62616C20696E646578206F PUSH1 0x44 DUP3 ADD MSTORE PUSH12 0x7574206F6620626F756E6473 PUSH1 0xA0 SHL PUSH1 0x64 DUP3 ADD MSTORE PUSH1 0x84 ADD PUSH2 0x552 JUMP JUMPDEST PUSH1 0x8 DUP3 DUP2 SLOAD DUP2 LT PUSH2 0x9FE JUMPI PUSH2 0x9FE PUSH2 0x2ED6 JUMP JUMPDEST SWAP1 PUSH1 0x0 MSTORE PUSH1 0x20 PUSH1 0x0 KECCAK256 ADD SLOAD SWAP1 POP SWAP2 SWAP1 POP JUMP JUMPDEST PUSH1 0x0 DUP3 PUSH1 0x1 PUSH1 0x1 PUSH1 0xA0 SHL SUB AND PUSH2 0xA25 DUP4 PUSH2 0xC22 JUMP JUMPDEST PUSH1 0x1 PUSH1 0x1 PUSH1 0xA0 SHL SUB AND EQ SWAP4 SWAP3 POP POP POP JUMP JUMPDEST PUSH1 0x0 PUSH1 0xD DUP4 PUSH1 0xFF AND LT PUSH2 0xA82 JUMPI PUSH1 0x40 MLOAD PUSH3 0x461BCD PUSH1 0xE5 SHL DUP2 MSTORE PUSH1 0x20 PUSH1 0x4 DUP3 ADD MSTORE PUSH1 0x14 PUSH1 0x24 DUP3 ADD MSTORE PUSH20 0x27379039BAB1B4103930B7359032BC34B9BA3997 PUSH1 0x61 SHL PUSH1 0x44 DUP3 ADD MSTORE PUSH1 0x64 ADD PUSH2 0x552 JUMP JUMPDEST PUSH1 0x0 DUP3 PUSH1 0x1 PUSH1 0x1 PUSH1 0x40 SHL SUB AND GT PUSH2 0xADB JUMPI PUSH1 0x40 MLOAD PUSH3 0x461BCD PUSH1 0xE5 SHL DUP2 MSTORE PUSH1 0x20 PUSH1 0x4 DUP3 ADD MSTORE PUSH1 0x1E PUSH1 0x24 DUP3 ADD MSTORE PUSH32 0x46726565206D696E74696E67206973206E6576657220616C6C6F7765642E0000 PUSH1 0x44 DUP3 ADD MSTORE PUSH1 0x64 ADD PUSH2 0x552 JUMP JUMPDEST PUSH1 0x14 DUP1 SLOAD SWAP1 DUP2 SWAP1 PUSH1 0x0 PUSH2 0xAED DUP4 PUSH2 0x2E1E JUMP JUMPDEST SWAP1 SWAP2 SSTORE POP POP PUSH1 0xA SLOAD PUSH1 0x0 SWAP1 PUSH1 0x1 PUSH1 0x1 PUSH1 0xA0 SHL SUB AND PUSH4 0x4A0E2AA1 CALLER PUSH3 0x4C4B40 PUSH2 0xB18 TIMESTAMP PUSH3 0x15180 PUSH2 0x2D30 JUMP JUMPDEST PUSH2 0xB25 TIMESTAMP PUSH3 0xA8C00 PUSH2 0x2D30 JUMP JUMPDEST PUSH1 0x40 MLOAD DUP6 PUSH4 0xFFFFFFFF AND PUSH1 0xE0 SHL DUP2 MSTORE PUSH1 0x4 ADD PUSH2 0xB44 SWAP5 SWAP4 SWAP3 SWAP2 SWAP1 PUSH2 0x2C2A JUMP JUMPDEST PUSH1 0x20 PUSH1 0x40 MLOAD DUP1 DUP4 SUB DUP2 PUSH1 0x0 DUP8 DUP1 EXTCODESIZE ISZERO DUP1 ISZERO PUSH2 0xB5E JUMPI PUSH1 0x0 DUP1 REVERT JUMPDEST POP GAS CALL ISZERO DUP1 ISZERO PUSH2 0xB72 JUMPI RETURNDATASIZE PUSH1 0x0 DUP1 RETURNDATACOPY RETURNDATASIZE PUSH1 0x0 REVERT JUMPDEST POP POP POP POP PUSH1 0x40 MLOAD RETURNDATASIZE PUSH1 0x1F NOT PUSH1 0x1F DUP3 ADD AND DUP3 ADD DUP1 PUSH1 0x40 MSTORE POP DUP2 ADD SWAP1 PUSH2 0xB96 SWAP2 SWAP1 PUSH2 0x2B0A JUMP JUMPDEST PUSH1 0x40 DUP1 MLOAD PUSH1 0x80 DUP2 ADD DUP3 MSTORE PUSH1 0xFF DUP1 DUP10 AND DUP3 MSTORE PUSH1 0x1 PUSH1 0x1 PUSH1 0x40 SHL SUB DUP1 DUP10 AND PUSH1 0x20 DUP1 DUP6 ADD SWAP2 DUP3 MSTORE PUSH1 0x1 DUP6 DUP8 ADD DUP2 DUP2 MSTORE PUSH1 0x60 DUP8 ADD SWAP9 DUP10 MSTORE PUSH1 0x0 DUP12 DUP2 MSTORE PUSH1 0x16 SWAP1 SWAP4 MSTORE SWAP7 SWAP1 SWAP2 KECCAK256 SWAP5 MLOAD DUP6 SLOAD SWAP3 MLOAD SWAP7 MLOAD ISZERO ISZERO PUSH1 0x1 PUSH1 0x48 SHL MUL PUSH1 0xFF PUSH1 0x48 SHL NOT SWAP8 SWAP1 SWAP5 AND PUSH2 0x100 MUL PUSH9 0xFFFFFFFFFFFFFFFFFF NOT SWAP1 SWAP4 AND SWAP5 AND SWAP4 SWAP1 SWAP4 OR OR SWAP4 SWAP1 SWAP4 AND SWAP3 SWAP1 SWAP3 OR DUP2 SSTORE SWAP2 MLOAD SWAP2 ADD SSTORE POP SWAP1 POP SWAP3 SWAP2 POP POP JUMP JUMPDEST PUSH1 0x0 DUP2 DUP2 MSTORE PUSH1 0x2 PUSH1 0x20 MSTORE PUSH1 0x40 DUP2 KECCAK256 SLOAD PUSH1 0x1 PUSH1 0x1 PUSH1 0xA0 SHL SUB AND DUP1 PUSH2 0x445 JUMPI PUSH1 0x40 MLOAD PUSH3 0x461BCD PUSH1 0xE5 SHL DUP2 MSTORE PUSH1 0x20 PUSH1 0x4 DUP3 ADD MSTORE PUSH1 0x29 PUSH1 0x24 DUP3 ADD MSTORE PUSH32 0x4552433732313A206F776E657220717565727920666F72206E6F6E6578697374 PUSH1 0x44 DUP3 ADD MSTORE PUSH9 0x32B73A103A37B5B2B7 PUSH1 0xB9 SHL PUSH1 0x64 DUP3 ADD MSTORE PUSH1 0x84 ADD PUSH2 0x552 JUMP JUMPDEST PUSH1 0x0 DUP1 DUP4 PUSH1 0xFF AND GT PUSH2 0xCF9 JUMPI PUSH1 0x40 MLOAD PUSH3 0x461BCD PUSH1 0xE5 SHL DUP2 MSTORE PUSH1 0x20 PUSH1 0x4 DUP3 ADD MSTORE PUSH1 0x24 DUP1 DUP3 ADD MSTORE PUSH32 0x43616E277420736574206D696E74206C696D697420666F7220676F6420746974 PUSH1 0x44 DUP3 ADD MSTORE PUSH4 0x3632B997 PUSH1 0xE1 SHL PUSH1 0x64 DUP3 ADD MSTORE PUSH1 0x84 ADD PUSH2 0x552 JUMP JUMPDEST PUSH1 0xC DUP4 PUSH1 0xFF AND LT PUSH2 0xD72 JUMPI PUSH1 0x40 MLOAD PUSH3 0x461BCD PUSH1 0xE5 SHL DUP2 MSTORE PUSH1 0x20 PUSH1 0x4 DUP3 ADD MSTORE PUSH1 0x39 PUSH1 0x24 DUP3 ADD MSTORE PUSH32 0x4F6E6C79207469746C657320686967686572207468616E20612070726F76696E PUSH1 0x44 DUP3 ADD MSTORE PUSH32 0x6369616C207469746C652063616E206265206D696E7465642E00000000000000 PUSH1 0x64 DUP3 ADD MSTORE PUSH1 0x84 ADD PUSH2 0x552 JUMP JUMPDEST PUSH1 0x14 DUP1 SLOAD SWAP1 DUP2 SWAP1 PUSH1 0x0 PUSH2 0xD84 DUP4 PUSH2 0x2E1E JUMP JUMPDEST SWAP1 SWAP2 SSTORE POP POP PUSH1 0xA SLOAD PUSH1 0x0 SWAP1 PUSH1 0x1 PUSH1 0x1 PUSH1 0xA0 SHL SUB AND PUSH4 0x4A0E2AA1 CALLER PUSH3 0x4C4B40 PUSH2 0xDAF TIMESTAMP PUSH3 0x15180 PUSH2 0x2D30 JUMP JUMPDEST PUSH2 0xDBC TIMESTAMP PUSH3 0xA8C00 PUSH2 0x2D30 JUMP JUMPDEST PUSH1 0x40 MLOAD DUP6 PUSH4 0xFFFFFFFF AND PUSH1 0xE0 SHL DUP2 MSTORE PUSH1 0x4 ADD PUSH2 0xDDB SWAP5 SWAP4 SWAP3 SWAP2 SWAP1 PUSH2 0x2C2A JUMP JUMPDEST PUSH1 0x20 PUSH1 0x40 MLOAD DUP1 DUP4 SUB DUP2 PUSH1 0x0 DUP8 DUP1 EXTCODESIZE ISZERO DUP1 ISZERO PUSH2 0xDF5 JUMPI PUSH1 0x0 DUP1 REVERT JUMPDEST POP GAS CALL ISZERO DUP1 ISZERO PUSH2 0xE09 JUMPI RETURNDATASIZE PUSH1 0x0 DUP1 RETURNDATACOPY RETURNDATASIZE PUSH1 0x0 REVERT JUMPDEST POP POP POP POP PUSH1 0x40 MLOAD RETURNDATASIZE PUSH1 0x1F NOT PUSH1 0x1F DUP3 ADD AND DUP3 ADD DUP1 PUSH1 0x40 MSTORE POP DUP2 ADD SWAP1 PUSH2 0xE2D SWAP2 SWAP1 PUSH2 0x2B0A JUMP JUMPDEST PUSH1 0x40 DUP1 MLOAD PUSH1 0x80 DUP2 ADD DUP3 MSTORE PUSH1 0xFF SWAP8 DUP9 AND DUP2 MSTORE PUSH1 0x1 PUSH1 0x1 PUSH1 0x40 SHL SUB SWAP7 DUP8 AND PUSH1 0x20 DUP1 DUP4 ADD SWAP2 DUP3 MSTORE PUSH1 0x0 DUP4 DUP6 ADD DUP2 DUP2 MSTORE PUSH1 0x60 DUP6 ADD SWAP7 DUP8 MSTORE DUP9 DUP3 MSTORE PUSH1 0x16 SWAP1 SWAP3 MSTORE SWAP4 SWAP1 SWAP4 KECCAK256 SWAP2 MLOAD DUP3 SLOAD SWAP2 MLOAD SWAP4 MLOAD ISZERO ISZERO PUSH1 0x1 PUSH1 0x48 SHL MUL PUSH1 0xFF PUSH1 0x48 SHL NOT SWAP5 SWAP1 SWAP10 AND PUSH2 0x100 MUL PUSH9 0xFFFFFFFFFFFFFFFFFF NOT SWAP1 SWAP3 AND SWAP10 AND SWAP9 SWAP1 SWAP9 OR SWAP8 SWAP1 SWAP8 OR AND SWAP5 SWAP1 SWAP5 OR DUP6 SSTORE POP SWAP2 MLOAD PUSH1 0x1 SWAP1 SWAP4 ADD SWAP3 SWAP1 SWAP3 SSTORE SWAP2 SWAP1 POP JUMP JUMPDEST PUSH1 0xB SLOAD DUP2 LT PUSH2 0xEDB JUMPI PUSH1 0x40 MLOAD PUSH3 0x461BCD PUSH1 0xE5 SHL DUP2 MSTORE PUSH1 0x4 ADD PUSH2 0x552 SWAP1 PUSH2 0x2CB5 JUMP JUMPDEST PUSH1 0x0 DUP2 DUP2 MSTORE PUSH1 0xC PUSH1 0x20 SWAP1 DUP2 MSTORE PUSH1 0x40 SWAP2 DUP3 SWAP1 KECCAK256 DUP3 MLOAD PUSH1 0x80 DUP2 ADD DUP5 MSTORE DUP2 SLOAD PUSH1 0x1 PUSH1 0x1 PUSH1 0xA0 SHL SUB SWAP1 DUP2 AND DUP3 MSTORE PUSH1 0x1 DUP4 ADD SLOAD SWAP4 DUP3 ADD SWAP4 SWAP1 SWAP4 MSTORE PUSH1 0x2 DUP3 ADD SLOAD DUP4 AND DUP2 DUP6 ADD MSTORE PUSH1 0x3 SWAP1 SWAP2 ADD SLOAD PUSH1 0x60 DUP3 ADD DUP2 SWAP1 MSTORE PUSH1 0xA SLOAD SWAP4 MLOAD PUSH4 0x85AA033D PUSH1 0xE0 SHL DUP2 MSTORE PUSH1 0x4 DUP2 ADD SWAP2 SWAP1 SWAP2 MSTORE CALLER PUSH1 0x24 DUP3 ADD MSTORE SWAP1 SWAP3 SWAP1 SWAP2 AND SWAP1 PUSH4 0x85AA033D SWAP1 PUSH1 0x44 ADD PUSH1 0x20 PUSH1 0x40 MLOAD DUP1 DUP4 SUB DUP2 PUSH1 0x0 DUP8 DUP1 EXTCODESIZE ISZERO DUP1 ISZERO PUSH2 0xF6E JUMPI PUSH1 0x0 DUP1 REVERT JUMPDEST POP GAS CALL ISZERO DUP1 ISZERO PUSH2 0xF82 JUMPI RETURNDATASIZE PUSH1 0x0 DUP1 RETURNDATACOPY RETURNDATASIZE PUSH1 0x0 REVERT JUMPDEST POP POP POP POP PUSH1 0x40 MLOAD RETURNDATASIZE PUSH1 0x1F NOT PUSH1 0x1F DUP3 ADD AND DUP3 ADD DUP1 PUSH1 0x40 MSTORE POP DUP2 ADD SWAP1 PUSH2 0xFA6 SWAP2 SWAP1 PUSH2 0x2A9A JUMP JUMPDEST POP DUP1 MLOAD PUSH1 0x40 DUP1 DUP4 ADD MLOAD PUSH1 0x20 DUP5 ADD MLOAD SWAP2 MLOAD PUSH4 0x23B872DD PUSH1 0xE0 SHL DUP2 MSTORE ADDRESS PUSH1 0x4 DUP3 ADD MSTORE PUSH1 0x1 PUSH1 0x1 PUSH1 0xA0 SHL SUB SWAP2 DUP3 AND PUSH1 0x24 DUP3 ADD MSTORE PUSH1 0x44 DUP2 ADD SWAP3 SWAP1 SWAP3 MSTORE DUP3 AND SWAP1 PUSH4 0x23B872DD SWAP1 PUSH1 0x64 ADD PUSH1 0x20 PUSH1 0x40 MLOAD DUP1 DUP4 SUB DUP2 PUSH1 0x0 DUP8 DUP1 EXTCODESIZE ISZERO DUP1 ISZERO PUSH2 0x1004 JUMPI PUSH1 0x0 DUP1 REVERT JUMPDEST POP GAS CALL ISZERO DUP1 ISZERO PUSH2 0x1018 JUMPI RETURNDATASIZE PUSH1 0x0 DUP1 RETURNDATACOPY RETURNDATASIZE PUSH1 0x0 REVERT JUMPDEST POP POP POP POP PUSH1 0x40 MLOAD RETURNDATASIZE PUSH1 0x1F NOT PUSH1 0x1F DUP3 ADD AND DUP3 ADD DUP1 PUSH1 0x40 MSTORE POP DUP2 ADD SWAP1 PUSH2 0x103C SWAP2 SWAP1 PUSH2 0x2A9A JUMP JUMPDEST POP POP POP POP JUMP JUMPDEST PUSH1 0x0 DUP2 DUP2 MSTORE PUSH1 0x12 PUSH1 0x20 MSTORE PUSH1 0x40 DUP2 KECCAK256 CALLER PUSH2 0x105A DUP5 PUSH2 0xC22 JUMP JUMPDEST PUSH1 0x1 PUSH1 0x1 PUSH1 0xA0 SHL SUB AND EQ PUSH2 0x10B0 JUMPI PUSH1 0x40 MLOAD PUSH3 0x461BCD PUSH1 0xE5 SHL DUP2 MSTORE PUSH1 0x20 PUSH1 0x4 DUP3 ADD MSTORE PUSH1 0x1D PUSH1 0x24 DUP3 ADD MSTORE PUSH32 0x5573657220646F6573206E6F74206F776E2074686973207469746C652E000000 PUSH1 0x44 DUP3 ADD MSTORE PUSH1 0x64 ADD PUSH2 0x552 JUMP JUMPDEST DUP1 SLOAD PUSH1 0x0 SWAP1 PUSH2 0x10C3 SWAP1 PUSH1 0xFF AND PUSH1 0x1 PUSH2 0x2D48 JUMP JUMPDEST SWAP1 POP PUSH1 0x0 DUP2 PUSH1 0xFF AND GT PUSH2 0x1128 JUMPI PUSH1 0x40 MLOAD PUSH3 0x461BCD PUSH1 0xE5 SHL DUP2 MSTORE PUSH1 0x20 PUSH1 0x4 DUP3 ADD MSTORE PUSH1 0x27 PUSH1 0x24 DUP3 ADD MSTORE PUSH32 0x476F64207469746C6573206D757374206265206D696E746564207468726F7567 PUSH1 0x44 DUP3 ADD MSTORE PUSH7 0x34103B37BA3297 PUSH1 0xC9 SHL PUSH1 0x64 DUP3 ADD MSTORE PUSH1 0x84 ADD PUSH2 0x552 JUMP JUMPDEST PUSH1 0xC DUP2 PUSH1 0xFF AND LT PUSH2 0x1194 JUMPI PUSH1 0x40 MLOAD PUSH3 0x461BCD PUSH1 0xE5 SHL DUP2 MSTORE PUSH1 0x20 PUSH1 0x4 DUP3 ADD MSTORE PUSH1 0x30 PUSH1 0x24 DUP3 ADD MSTORE PUSH32 0x50726F76696E6369616C207469746C65732063616E6E6F74206D696E74206C6F PUSH1 0x44 DUP3 ADD MSTORE PUSH16 0x3BB2B9103A34B2B9103A34BA3632B997 PUSH1 0x81 SHL PUSH1 0x64 DUP3 ADD MSTORE PUSH1 0x84 ADD PUSH2 0x552 JUMP JUMPDEST PUSH1 0xFF DUP2 AND PUSH1 0x0 SWAP1 DUP2 MSTORE PUSH1 0x13 PUSH1 0x20 MSTORE PUSH1 0x40 SWAP1 DUP2 SWAP1 KECCAK256 SLOAD PUSH1 0xD SLOAD SWAP2 MLOAD PUSH4 0x70A08231 PUSH1 0xE0 SHL DUP2 MSTORE CALLER PUSH1 0x4 DUP3 ADD MSTORE PUSH1 0x1 PUSH1 0x1 PUSH1 0x40 SHL SUB SWAP1 SWAP2 AND SWAP2 DUP3 SWAP2 PUSH1 0x1 PUSH1 0x1 PUSH1 0xA0 SHL SUB SWAP1 SWAP2 AND SWAP1 PUSH4 0x70A08231 SWAP1 PUSH1 0x24 ADD PUSH1 0x20 PUSH1 0x40 MLOAD DUP1 DUP4 SUB DUP2 DUP7 DUP1 EXTCODESIZE ISZERO DUP1 ISZERO PUSH2 0x11F9 JUMPI PUSH1 0x0 DUP1 REVERT JUMPDEST POP GAS STATICCALL ISZERO DUP1 ISZERO PUSH2 0x120D JUMPI RETURNDATASIZE PUSH1 0x0 DUP1 RETURNDATACOPY RETURNDATASIZE PUSH1 0x0 REVERT JUMPDEST POP POP POP POP PUSH1 0x40 MLOAD RETURNDATASIZE PUSH1 0x1F NOT PUSH1 0x1F DUP3 ADD AND DUP3 ADD DUP1 PUSH1 0x40 MSTORE POP DUP2 ADD SWAP1 PUSH2 0x1231 SWAP2 SWAP1 PUSH2 0x2B0A JUMP JUMPDEST LT ISZERO PUSH2 0x1274 JUMPI PUSH1 0x40 MLOAD PUSH3 0x461BCD PUSH1 0xE5 SHL DUP2 MSTORE PUSH1 0x20 PUSH1 0x4 DUP3 ADD MSTORE PUSH1 0x12 PUSH1 0x24 DUP3 ADD MSTORE PUSH18 0x496E73756666696369656E742046756E6473 PUSH1 0x70 SHL PUSH1 0x44 DUP3 ADD MSTORE PUSH1 0x64 ADD PUSH2 0x552 JUMP JUMPDEST PUSH1 0xD SLOAD PUSH1 0x40 MLOAD PUSH4 0x6EB1769F PUSH1 0xE1 SHL DUP2 MSTORE CALLER PUSH1 0x4 DUP3 ADD MSTORE ADDRESS PUSH1 0x24 DUP3 ADD MSTORE DUP3 SWAP2 PUSH1 0x1 PUSH1 0x1 PUSH1 0xA0 SHL SUB AND SWAP1 PUSH4 0xDD62ED3E SWAP1 PUSH1 0x44 ADD PUSH1 0x20 PUSH1 0x40 MLOAD DUP1 DUP4 SUB DUP2 DUP7 DUP1 EXTCODESIZE ISZERO DUP1 ISZERO PUSH2 0x12BD JUMPI PUSH1 0x0 DUP1 REVERT JUMPDEST POP GAS STATICCALL ISZERO DUP1 ISZERO PUSH2 0x12D1 JUMPI RETURNDATASIZE PUSH1 0x0 DUP1 RETURNDATACOPY RETURNDATASIZE PUSH1 0x0 REVERT JUMPDEST POP POP POP POP PUSH1 0x40 MLOAD RETURNDATASIZE PUSH1 0x1F NOT PUSH1 0x1F DUP3 ADD AND DUP3 ADD DUP1 PUSH1 0x40 MSTORE POP DUP2 ADD SWAP1 PUSH2 0x12F5 SWAP2 SWAP1 PUSH2 0x2B0A JUMP JUMPDEST LT ISZERO PUSH2 0x133B JUMPI PUSH1 0x40 MLOAD PUSH3 0x461BCD PUSH1 0xE5 SHL DUP2 MSTORE PUSH1 0x20 PUSH1 0x4 DUP3 ADD MSTORE PUSH1 0x15 PUSH1 0x24 DUP3 ADD MSTORE PUSH21 0x125B9CDD59999A58DA595B9D08105C1C1C9BDD985B PUSH1 0x5A SHL PUSH1 0x44 DUP3 ADD MSTORE PUSH1 0x64 ADD PUSH2 0x552 JUMP JUMPDEST PUSH1 0x3 DUP4 ADD SLOAD PUSH1 0xFF DUP4 AND PUSH1 0x0 SWAP1 DUP2 MSTORE PUSH1 0x13 PUSH1 0x20 MSTORE PUSH1 0x40 SWAP1 KECCAK256 SLOAD PUSH1 0x1 PUSH1 0x1 PUSH1 0x40 SHL SUB PUSH1 0x1 PUSH1 0x40 SHL SWAP3 DUP4 SWAP1 DIV DUP2 AND SWAP3 SWAP1 SWAP2 DIV AND DUP2 LT PUSH2 0x13D0 JUMPI PUSH1 0x40 MLOAD PUSH3 0x461BCD PUSH1 0xE5 SHL DUP2 MSTORE PUSH1 0x20 PUSH1 0x4 DUP3 ADD MSTORE PUSH1 0x2E PUSH1 0x24 DUP3 ADD MSTORE PUSH32 0x54686973207469746C6520686173207265616368656420697473206D6178696D PUSH1 0x44 DUP3 ADD MSTORE PUSH14 0x3AB69036B4B73A1031B7BAB73A17 PUSH1 0x91 SHL PUSH1 0x64 DUP3 ADD MSTORE PUSH1 0x84 ADD PUSH2 0x552 JUMP JUMPDEST PUSH1 0x3 DUP5 ADD DUP1 SLOAD PUSH1 0x1 PUSH1 0x40 SHL SWAP1 DIV PUSH1 0x1 PUSH1 0x1 PUSH1 0x40 SHL SUB AND SWAP1 PUSH1 0x8 PUSH2 0x13F2 DUP4 PUSH2 0x2E39 JUMP JUMPDEST DUP3 SLOAD PUSH2 0x100 SWAP3 SWAP1 SWAP3 EXP PUSH1 0x1 PUSH1 0x1 PUSH1 0x40 SHL SUB DUP2 DUP2 MUL NOT SWAP1 SWAP4 AND SWAP2 DUP4 AND MUL OR SWAP1 SWAP2 SSTORE PUSH1 0xD DUP1 SLOAD PUSH1 0x1 PUSH1 0xA0 SHL SWAP1 DIV SWAP1 SWAP2 AND SWAP2 POP DUP2 SWAP1 PUSH1 0x14 PUSH2 0x142F DUP4 PUSH2 0x2E39 JUMP JUMPDEST DUP3 SLOAD PUSH2 0x100 SWAP3 SWAP1 SWAP3 EXP PUSH1 0x1 PUSH1 0x1 PUSH1 0x40 SHL SUB DUP2 DUP2 MUL NOT SWAP1 SWAP4 AND SWAP2 DUP4 AND MUL OR SWAP1 SWAP2 SSTORE PUSH1 0x40 DUP1 MLOAD PUSH1 0xC0 DUP2 ADD DUP3 MSTORE PUSH1 0xFF DUP9 DUP2 AND DUP3 MSTORE PUSH1 0x20 DUP1 DUP4 ADD DUP8 DUP2 MSTORE DUP4 DUP6 ADD DUP15 DUP2 MSTORE DUP10 DUP8 AND PUSH1 0x60 DUP7 ADD SWAP1 DUP2 MSTORE PUSH1 0x0 PUSH1 0x80 DUP8 ADD DUP2 DUP2 MSTORE CALLER PUSH1 0xA0 DUP10 ADD DUP2 DUP2 MSTORE DUP14 DUP5 MSTORE PUSH1 0x12 SWAP1 SWAP8 MSTORE SWAP9 SWAP1 SWAP2 KECCAK256 SWAP7 MLOAD DUP8 SLOAD PUSH1 0xFF NOT AND SWAP7 AND SWAP6 SWAP1 SWAP6 OR DUP7 SSTORE SWAP2 MLOAD PUSH1 0x1 DUP7 ADD SSTORE MLOAD PUSH1 0x2 DUP6 ADD SSTORE MLOAD PUSH1 0x3 DUP5 ADD DUP1 SLOAD SWAP4 MLOAD SWAP2 DUP8 AND PUSH1 0x1 PUSH1 0x1 PUSH1 0x80 SHL SUB NOT SWAP1 SWAP5 AND SWAP4 SWAP1 SWAP4 OR PUSH1 0x1 PUSH1 0x40 SHL SWAP2 SWAP1 SWAP7 AND MUL SWAP5 SWAP1 SWAP5 OR SWAP1 SSTORE SWAP2 MLOAD PUSH1 0x4 SWAP1 SWAP3 ADD DUP1 SLOAD PUSH1 0x1 PUSH1 0x1 PUSH1 0xA0 SHL SUB NOT AND PUSH1 0x1 PUSH1 0x1 PUSH1 0xA0 SHL SUB SWAP1 SWAP4 AND SWAP3 SWAP1 SWAP3 OR SWAP1 SWAP2 SSTORE PUSH2 0x150E SWAP2 POP DUP3 PUSH2 0x1EE1 JUMP JUMPDEST PUSH1 0xD SLOAD PUSH1 0x40 MLOAD PUSH4 0x23B872DD PUSH1 0xE0 SHL DUP2 MSTORE CALLER PUSH1 0x4 DUP3 ADD MSTORE ADDRESS PUSH1 0x24 DUP3 ADD MSTORE PUSH1 0x44 DUP2 ADD DUP6 SWAP1 MSTORE PUSH1 0x1 PUSH1 0x1 PUSH1 0xA0 SHL SUB SWAP1 SWAP2 AND SWAP1 PUSH4 0x23B872DD SWAP1 PUSH1 0x64 ADD PUSH1 0x20 PUSH1 0x40 MLOAD DUP1 DUP4 SUB DUP2 PUSH1 0x0 DUP8 DUP1 EXTCODESIZE ISZERO DUP1 ISZERO PUSH2 0x1560 JUMPI PUSH1 0x0 DUP1 REVERT JUMPDEST POP GAS CALL ISZERO DUP1 ISZERO PUSH2 0x1574 JUMPI RETURNDATASIZE PUSH1 0x0 DUP1 RETURNDATACOPY RETURNDATASIZE PUSH1 0x0 REVERT JUMPDEST POP POP POP POP PUSH1 0x40 MLOAD RETURNDATASIZE PUSH1 0x1F NOT PUSH1 0x1F DUP3 ADD AND DUP3 ADD DUP1 PUSH1 0x40 MSTORE POP DUP2 ADD SWAP1 PUSH2 0x1598 SWAP2 SWAP1 PUSH2 0x2A9A JUMP JUMPDEST POP PUSH1 0x0 PUSH1 0x3 PUSH2 0x15A8 DUP6 PUSH1 0x1 PUSH2 0x2D81 JUMP JUMPDEST PUSH2 0x15B2 SWAP2 SWAP1 PUSH2 0x2D6D JUMP JUMPDEST SWAP1 POP DUP6 JUMPDEST DUP2 PUSH1 0x10 PUSH1 0x0 DUP3 DUP3 SLOAD PUSH2 0x15C8 SWAP2 SWAP1 PUSH2 0x2D30 JUMP JUMPDEST SWAP3 POP POP DUP2 SWAP1 SSTORE POP PUSH1 0x0 PUSH2 0x15DE DUP3 PUSH1 0x1 ADD SLOAD PUSH2 0xC22 JUMP JUMPDEST PUSH1 0x1 PUSH1 0x1 PUSH1 0xA0 SHL SUB DUP2 AND PUSH1 0x0 SWAP1 DUP2 MSTORE PUSH1 0xF PUSH1 0x20 MSTORE PUSH1 0x40 DUP2 KECCAK256 DUP1 SLOAD SWAP3 SWAP4 POP DUP6 SWAP3 SWAP1 SWAP2 SWAP1 PUSH2 0x160B SWAP1 DUP5 SWAP1 PUSH2 0x2D30 JUMP JUMPDEST SWAP1 SWAP2 SSTORE POP POP PUSH1 0x2 SWAP2 DUP3 ADD SLOAD PUSH1 0x0 SWAP1 DUP2 MSTORE PUSH1 0x12 PUSH1 0x20 MSTORE PUSH1 0x40 SWAP1 KECCAK256 SWAP2 PUSH2 0x162F SWAP1 DUP5 PUSH2 0x2D6D JUMP JUMPDEST DUP3 SLOAD SWAP1 SWAP4 POP PUSH1 0xFF AND ISZERO ISZERO SWAP1 POP PUSH2 0x15B6 JUMPI PUSH1 0x40 DUP1 MLOAD DUP5 DUP2 MSTORE CALLER PUSH1 0x20 DUP3 ADD MSTORE PUSH32 0xB31D8E8FA42B269769F65CB3FBEE94D28EFB43A3A870E2417A6AEF591601A9F8 SWAP2 ADD PUSH1 0x40 MLOAD DUP1 SWAP2 SUB SWAP1 LOG1 POP SWAP1 SWAP8 SWAP7 POP POP POP POP POP POP POP JUMP JUMPDEST PUSH1 0x0 PUSH1 0x1 PUSH1 0x1 PUSH1 0xA0 SHL SUB DUP3 AND PUSH2 0x16EF JUMPI PUSH1 0x40 MLOAD PUSH3 0x461BCD PUSH1 0xE5 SHL DUP2 MSTORE PUSH1 0x20 PUSH1 0x4 DUP3 ADD MSTORE PUSH1 0x2A PUSH1 0x24 DUP3 ADD MSTORE PUSH32 0x4552433732313A2062616C616E636520717565727920666F7220746865207A65 PUSH1 0x44 DUP3 ADD MSTORE PUSH10 0x726F2061646472657373 PUSH1 0xB0 SHL PUSH1 0x64 DUP3 ADD MSTORE PUSH1 0x84 ADD PUSH2 0x552 JUMP JUMPDEST POP PUSH1 0x1 PUSH1 0x1 PUSH1 0xA0 SHL SUB AND PUSH1 0x0 SWAP1 DUP2 MSTORE PUSH1 0x3 PUSH1 0x20 MSTORE PUSH1 0x40 SWAP1 KECCAK256 SLOAD SWAP1 JUMP JUMPDEST PUSH1 0x15 SLOAD DUP2 LT PUSH2 0x172C JUMPI PUSH1 0x40 MLOAD PUSH3 0x461BCD PUSH1 0xE5 SHL DUP2 MSTORE PUSH1 0x4 ADD PUSH2 0x552 SWAP1 PUSH2 0x2CB5 JUMP JUMPDEST PUSH1 0x0 DUP2 DUP2 MSTORE PUSH1 0x17 PUSH1 0x20 SWAP1 DUP2 MSTORE PUSH1 0x40 SWAP2 DUP3 SWAP1 KECCAK256 DUP3 MLOAD PUSH1 0x60 DUP2 ADD DUP5 MSTORE DUP2 SLOAD PUSH1 0xFF DUP2 AND DUP3 MSTORE PUSH2 0x100 SWAP1 DIV PUSH1 0x1 PUSH1 0x1 PUSH1 0xA0 SHL SUB SWAP1 DUP2 AND SWAP4 DUP3 ADD SWAP4 SWAP1 SWAP4 MSTORE PUSH1 0x1 SWAP1 SWAP2 ADD SLOAD DUP2 DUP5 ADD DUP2 SWAP1 MSTORE PUSH1 0xA SLOAD SWAP4 MLOAD PUSH4 0x85AA033D PUSH1 0xE0 SHL DUP2 MSTORE PUSH1 0x4 DUP2 ADD SWAP2 SWAP1 SWAP2 MSTORE CALLER PUSH1 0x24 DUP3 ADD MSTORE SWAP1 SWAP3 SWAP1 SWAP2 AND SWAP1 PUSH4 0x85AA033D SWAP1 PUSH1 0x44 ADD PUSH1 0x20 PUSH1 0x40 MLOAD DUP1 DUP4 SUB DUP2 PUSH1 0x0 DUP8 DUP1 EXTCODESIZE ISZERO DUP1 ISZERO PUSH2 0x17B7 JUMPI PUSH1 0x0 DUP1 REVERT JUMPDEST POP GAS CALL ISZERO DUP1 ISZERO PUSH2 0x17CB JUMPI RETURNDATASIZE PUSH1 0x0 DUP1 RETURNDATACOPY RETURNDATASIZE PUSH1 0x0 REVERT JUMPDEST POP POP POP POP PUSH1 0x40 MLOAD RETURNDATASIZE PUSH1 0x1F NOT PUSH1 0x1F DUP3 ADD AND DUP3 ADD DUP1 PUSH1 0x40 MSTORE POP DUP2 ADD SWAP1 PUSH2 0x17EF SWAP2 SWAP1 PUSH2 0x2A9A JUMP JUMPDEST POP PUSH1 0x0 JUMPDEST DUP2 PUSH1 0x0 ADD MLOAD PUSH1 0xFF AND DUP2 PUSH1 0xFF AND LT ISZERO PUSH2 0x688 JUMPI PUSH2 0x1812 DUP3 PUSH1 0x20 ADD MLOAD PUSH2 0x1EFB JUMP JUMPDEST POP DUP1 PUSH2 0x181D DUP2 PUSH2 0x2E60 JUMP JUMPDEST SWAP2 POP POP PUSH2 0x17F3 JUMP JUMPDEST PUSH1 0x0 PUSH2 0x1850 DUP5 DUP5 PUSH3 0x4C4B40 DUP6 PUSH2 0x183E TIMESTAMP PUSH3 0x15180 PUSH2 0x2D30 JUMP JUMPDEST PUSH2 0x184B TIMESTAMP PUSH3 0x2A300 PUSH2 0x2D30 JUMP JUMPDEST PUSH2 0x2072 JUMP JUMPDEST SWAP5 SWAP4 POP POP POP POP JUMP JUMPDEST PUSH1 0x60 PUSH1 0x1 DUP1 SLOAD PUSH2 0x45A SWAP1 PUSH2 0x2DE3 JUMP JUMPDEST PUSH1 0x14 SLOAD DUP2 LT PUSH2 0x1888 JUMPI PUSH1 0x40 MLOAD PUSH3 0x461BCD PUSH1 0xE5 SHL DUP2 MSTORE PUSH1 0x4 ADD PUSH2 0x552 SWAP1 PUSH2 0x2CB5 JUMP JUMPDEST PUSH1 0x0 DUP2 DUP2 MSTORE PUSH1 0x16 PUSH1 0x20 SWAP1 DUP2 MSTORE PUSH1 0x40 SWAP2 DUP3 SWAP1 KECCAK256 DUP3 MLOAD PUSH1 0x80 DUP2 ADD DUP5 MSTORE DUP2 SLOAD PUSH1 0xFF DUP1 DUP3 AND DUP4 MSTORE PUSH2 0x100 DUP3 DIV PUSH1 0x1 PUSH1 0x1 PUSH1 0x40 SHL SUB AND SWAP5 DUP4 ADD SWAP5 SWAP1 SWAP5 MSTORE PUSH1 0x1 PUSH1 0x48 SHL SWAP1 DIV SWAP1 SWAP3 AND ISZERO ISZERO DUP3 DUP5 ADD MSTORE PUSH1 0x1 ADD SLOAD PUSH1 0x60 DUP3 ADD DUP2 SWAP1 MSTORE PUSH1 0xA SLOAD SWAP3 MLOAD PUSH4 0x85AA033D PUSH1 0xE0 SHL DUP2 MSTORE PUSH1 0x4 DUP2 ADD SWAP2 SWAP1 SWAP2 MSTORE CALLER PUSH1 0x24 DUP3 ADD MSTORE SWAP1 SWAP2 PUSH1 0x1 PUSH1 0x1 PUSH1 0xA0 SHL SUB AND SWAP1 PUSH4 0x85AA033D SWAP1 PUSH1 0x44 ADD PUSH1 0x20 PUSH1 0x40 MLOAD DUP1 DUP4 SUB DUP2 PUSH1 0x0 DUP8 DUP1 EXTCODESIZE ISZERO DUP1 ISZERO PUSH2 0x1927 JUMPI PUSH1 0x0 DUP1 REVERT JUMPDEST POP GAS CALL ISZERO DUP1 ISZERO PUSH2 0x193B JUMPI RETURNDATASIZE PUSH1 0x0 DUP1 RETURNDATACOPY RETURNDATASIZE PUSH1 0x0 REVERT JUMPDEST POP POP POP POP PUSH1 0x40 MLOAD RETURNDATASIZE PUSH1 0x1F NOT PUSH1 0x1F DUP3 ADD AND DUP3 ADD DUP1 PUSH1 0x40 MSTORE POP DUP2 ADD SWAP1 PUSH2 0x195F SWAP2 SWAP1 PUSH2 0x2A9A JUMP JUMPDEST POP DUP1 PUSH1 0x40 ADD MLOAD ISZERO PUSH2 0x19A4 JUMPI PUSH1 0x20 DUP2 DUP2 ADD MLOAD SWAP2 MLOAD PUSH1 0xFF AND PUSH1 0x0 SWAP1 DUP2 MSTORE PUSH1 0x13 SWAP1 SWAP2 MSTORE PUSH1 0x40 SWAP1 KECCAK256 DUP1 SLOAD PUSH8 0xFFFFFFFFFFFFFFFF NOT AND PUSH1 0x1 PUSH1 0x1 PUSH1 0x40 SHL SUB SWAP1 SWAP3 AND SWAP2 SWAP1 SWAP2 OR SWAP1 SSTORE POP JUMP JUMPDEST PUSH1 0x20 DUP1 DUP3 ADD MLOAD DUP3 MLOAD PUSH1 0xFF AND PUSH1 0x0 SWAP1 DUP2 MSTORE PUSH1 0x13 SWAP1 SWAP3 MSTORE PUSH1 0x40 SWAP1 SWAP2 KECCAK256 DUP1 SLOAD PUSH1 0x1 PUSH1 0x1 PUSH1 0x40 SHL SUB SWAP1 SWAP3 AND PUSH1 0x1 PUSH1 0x40 SHL MUL PUSH16 0xFFFFFFFFFFFFFFFF0000000000000000 NOT SWAP1 SWAP3 AND SWAP2 SWAP1 SWAP2 OR SWAP1 SSTORE JUMPDEST POP POP JUMP JUMPDEST PUSH2 0x19ED CALLER DUP4 DUP4 PUSH2 0x2196 JUMP JUMPDEST PUSH2 0x1A06 CALLER DUP4 PUSH2 0x1C47 JUMP JUMPDEST PUSH2 0x1A22 JUMPI PUSH1 0x40 MLOAD PUSH3 0x461BCD PUSH1 0xE5 SHL DUP2 MSTORE PUSH1 0x4 ADD PUSH2 0x552 SWAP1 PUSH2 0x2CDF JUMP JUMPDEST PUSH2 0x103C DUP5 DUP5 DUP5 DUP5 PUSH2 0x2265 JUMP JUMPDEST PUSH1 0x0 PUSH1 0xD DUP3 PUSH1 0xFF AND LT PUSH2 0x1A73 JUMPI PUSH1 0x40 MLOAD PUSH3 0x461BCD PUSH1 0xE5 SHL DUP2 MSTORE PUSH1 0x20 PUSH1 0x4 DUP3 ADD MSTORE PUSH1 0xD PUSH1 0x24 DUP3 ADD MSTORE PUSH13 0x4E6F20737563682072616E6B21 PUSH1 0x98 SHL PUSH1 0x44 DUP3 ADD MSTORE PUSH1 0x64 ADD PUSH2 0x552 JUMP JUMPDEST POP PUSH1 0xFF AND PUSH1 0x0 SWAP1 DUP2 MSTORE PUSH1 0x13 PUSH1 0x20 MSTORE PUSH1 0x40 SWAP1 KECCAK256 SLOAD PUSH1 0x1 PUSH1 0x1 PUSH1 0x40 SHL SUB AND SWAP1 JUMP JUMPDEST PUSH1 0x0 DUP2 DUP2 MSTORE PUSH1 0x2 PUSH1 0x20 MSTORE PUSH1 0x40 SWAP1 KECCAK256 SLOAD PUSH1 0x60 SWAP1 PUSH1 0x1 PUSH1 0x1 PUSH1 0xA0 SHL SUB AND PUSH2 0x1B11 JUMPI PUSH1 0x40 MLOAD PUSH3 0x461BCD PUSH1 0xE5 SHL DUP2 MSTORE PUSH1 0x20 PUSH1 0x4 DUP3 ADD MSTORE PUSH1 0x2F PUSH1 0x24 DUP3 ADD MSTORE PUSH32 0x4552433732314D657461646174613A2055524920717565727920666F72206E6F PUSH1 0x44 DUP3 ADD MSTORE PUSH15 0x3732BC34B9BA32B73A103A37B5B2B7 PUSH1 0x89 SHL PUSH1 0x64 DUP3 ADD MSTORE PUSH1 0x84 ADD PUSH2 0x552 JUMP JUMPDEST PUSH1 0x0 PUSH2 0x1B28 PUSH1 0x40 DUP1 MLOAD PUSH1 0x20 DUP2 ADD SWAP1 SWAP2 MSTORE PUSH1 0x0 DUP2 MSTORE SWAP1 JUMP JUMPDEST SWAP1 POP PUSH1 0x0 DUP2 MLOAD GT PUSH2 0x1B48 JUMPI PUSH1 0x40 MLOAD DUP1 PUSH1 0x20 ADD PUSH1 0x40 MSTORE DUP1 PUSH1 0x0 DUP2 MSTORE POP PUSH2 0x1B73 JUMP JUMPDEST DUP1 PUSH2 0x1B52 DUP5 PUSH2 0x2298 JUMP JUMPDEST PUSH1 0x40 MLOAD PUSH1 0x20 ADD PUSH2 0x1B63 SWAP3 SWAP2 SWAP1 PUSH2 0x2BBE JUMP JUMPDEST PUSH1 0x40 MLOAD PUSH1 0x20 DUP2 DUP4 SUB SUB DUP2 MSTORE SWAP1 PUSH1 0x40 MSTORE JUMPDEST SWAP4 SWAP3 POP POP POP JUMP JUMPDEST PUSH1 0x1 PUSH1 0x1 PUSH1 0xA0 SHL SUB AND EXTCODESIZE ISZERO ISZERO SWAP1 JUMP JUMPDEST PUSH1 0x0 PUSH1 0x1 PUSH1 0x1 PUSH1 0xE0 SHL SUB NOT DUP3 AND PUSH4 0x80AC58CD PUSH1 0xE0 SHL EQ DUP1 PUSH2 0x1BBA JUMPI POP PUSH1 0x1 PUSH1 0x1 PUSH1 0xE0 SHL SUB NOT DUP3 AND PUSH4 0x5B5E139F PUSH1 0xE0 SHL EQ JUMPDEST DUP1 PUSH2 0x445 JUMPI POP PUSH4 0x1FFC9A7 PUSH1 0xE0 SHL PUSH1 0x1 PUSH1 0x1 PUSH1 0xE0 SHL SUB NOT DUP4 AND EQ PUSH2 0x445 JUMP JUMPDEST PUSH1 0x0 DUP2 DUP2 MSTORE PUSH1 0x4 PUSH1 0x20 MSTORE PUSH1 0x40 SWAP1 KECCAK256 DUP1 SLOAD PUSH1 0x1 PUSH1 0x1 PUSH1 0xA0 SHL SUB NOT AND PUSH1 0x1 PUSH1 0x1 PUSH1 0xA0 SHL SUB DUP5 AND SWAP1 DUP2 OR SWAP1 SWAP2 SSTORE DUP2 SWAP1 PUSH2 0x1C0E DUP3 PUSH2 0xC22 JUMP JUMPDEST PUSH1 0x1 PUSH1 0x1 PUSH1 0xA0 SHL SUB AND PUSH32 0x8C5BE1E5EBEC7D5BD14F71427D1E84F3DD0314C0F7B2291E5B200AC8C7C3B925 PUSH1 0x40 MLOAD PUSH1 0x40 MLOAD DUP1 SWAP2 SUB SWAP1 LOG4 POP POP JUMP JUMPDEST PUSH1 0x0 DUP2 DUP2 MSTORE PUSH1 0x2 PUSH1 0x20 MSTORE PUSH1 0x40 DUP2 KECCAK256 SLOAD PUSH1 0x1 PUSH1 0x1 PUSH1 0xA0 SHL SUB AND PUSH2 0x1CC0 JUMPI PUSH1 0x40 MLOAD PUSH3 0x461BCD PUSH1 0xE5 SHL DUP2 MSTORE PUSH1 0x20 PUSH1 0x4 DUP3 ADD MSTORE PUSH1 0x2C PUSH1 0x24 DUP3 ADD MSTORE PUSH32 0x4552433732313A206F70657261746F7220717565727920666F72206E6F6E6578 PUSH1 0x44 DUP3 ADD MSTORE PUSH12 0x34B9BA32B73A103A37B5B2B7 PUSH1 0xA1 SHL PUSH1 0x64 DUP3 ADD MSTORE PUSH1 0x84 ADD PUSH2 0x552 JUMP JUMPDEST PUSH1 0x0 PUSH2 0x1CCB DUP4 PUSH2 0xC22 JUMP JUMPDEST SWAP1 POP DUP1 PUSH1 0x1 PUSH1 0x1 PUSH1 0xA0 SHL SUB AND DUP5 PUSH1 0x1 PUSH1 0x1 PUSH1 0xA0 SHL SUB AND EQ DUP1 PUSH2 0x1D06 JUMPI POP DUP4 PUSH1 0x1 PUSH1 0x1 PUSH1 0xA0 SHL SUB AND PUSH2 0x1CFB DUP5 PUSH2 0x4DD JUMP JUMPDEST PUSH1 0x1 PUSH1 0x1 PUSH1 0xA0 SHL SUB AND EQ JUMPDEST DUP1 PUSH2 0x1850 JUMPI POP PUSH1 0x1 PUSH1 0x1 PUSH1 0xA0 SHL SUB DUP1 DUP3 AND PUSH1 0x0 SWAP1 DUP2 MSTORE PUSH1 0x5 PUSH1 0x20 SWAP1 DUP2 MSTORE PUSH1 0x40 DUP1 DUP4 KECCAK256 SWAP4 DUP9 AND DUP4 MSTORE SWAP3 SWAP1 MSTORE KECCAK256 SLOAD PUSH1 0xFF AND PUSH2 0x1850 JUMP JUMPDEST DUP3 PUSH1 0x1 PUSH1 0x1 PUSH1 0xA0 SHL SUB AND PUSH2 0x1D4D DUP3 PUSH2 0xC22 JUMP JUMPDEST PUSH1 0x1 PUSH1 0x1 PUSH1 0xA0 SHL SUB AND EQ PUSH2 0x1DB1 JUMPI PUSH1 0x40 MLOAD PUSH3 0x461BCD PUSH1 0xE5 SHL DUP2 MSTORE PUSH1 0x20 PUSH1 0x4 DUP3 ADD MSTORE PUSH1 0x25 PUSH1 0x24 DUP3 ADD MSTORE PUSH32 0x4552433732313A207472616E736665722066726F6D20696E636F727265637420 PUSH1 0x44 DUP3 ADD MSTORE PUSH5 0x37BBB732B9 PUSH1 0xD9 SHL PUSH1 0x64 DUP3 ADD MSTORE PUSH1 0x84 ADD PUSH2 0x552 JUMP JUMPDEST PUSH1 0x1 PUSH1 0x1 PUSH1 0xA0 SHL SUB DUP3 AND PUSH2 0x1E13 JUMPI PUSH1 0x40 MLOAD PUSH3 0x461BCD PUSH1 0xE5 SHL DUP2 MSTORE PUSH1 0x20 PUSH1 0x4 DUP3 ADD MSTORE PUSH1 0x24 DUP1 DUP3 ADD MSTORE PUSH32 0x4552433732313A207472616E7366657220746F20746865207A65726F20616464 PUSH1 0x44 DUP3 ADD MSTORE PUSH4 0x72657373 PUSH1 0xE0 SHL PUSH1 0x64 DUP3 ADD MSTORE PUSH1 0x84 ADD PUSH2 0x552 JUMP JUMPDEST PUSH2 0x1E1E DUP4 DUP4 DUP4 PUSH2 0x2395 JUMP JUMPDEST PUSH2 0x1E29 PUSH1 0x0 DUP3 PUSH2 0x1BD9 JUMP JUMPDEST PUSH1 0x1 PUSH1 0x1 PUSH1 0xA0 SHL SUB DUP4 AND PUSH1 0x0 SWAP1 DUP2 MSTORE PUSH1 0x3 PUSH1 0x20 MSTORE PUSH1 0x40 DUP2 KECCAK256 DUP1 SLOAD PUSH1 0x1 SWAP3 SWAP1 PUSH2 0x1E52 SWAP1 DUP5 SWAP1 PUSH2 0x2DA0 JUMP JUMPDEST SWAP1 SWAP2 SSTORE POP POP PUSH1 0x1 PUSH1 0x1 PUSH1 0xA0 SHL SUB DUP3 AND PUSH1 0x0 SWAP1 DUP2 MSTORE PUSH1 0x3 PUSH1 0x20 MSTORE PUSH1 0x40 DUP2 KECCAK256 DUP1 SLOAD PUSH1 0x1 SWAP3 SWAP1 PUSH2 0x1E80 SWAP1 DUP5 SWAP1 PUSH2 0x2D30 JUMP JUMPDEST SWAP1 SWAP2 SSTORE POP POP PUSH1 0x0 DUP2 DUP2 MSTORE PUSH1 0x2 PUSH1 0x20 MSTORE PUSH1 0x40 DUP1 DUP3 KECCAK256 DUP1 SLOAD PUSH1 0x1 PUSH1 0x1 PUSH1 0xA0 SHL SUB NOT AND PUSH1 0x1 PUSH1 0x1 PUSH1 0xA0 SHL SUB DUP7 DUP2 AND SWAP2 DUP3 OR SWAP1 SWAP3 SSTORE SWAP2 MLOAD DUP5 SWAP4 SWAP2 DUP8 AND SWAP2 PUSH32 0xDDF252AD1BE2C89B69C2B068FC378DAA952BA7F163C4A11628F55A4DF523B3EF SWAP2 LOG4 POP POP POP JUMP JUMPDEST PUSH2 0x19ED DUP3 DUP3 PUSH1 0x40 MLOAD DUP1 PUSH1 0x20 ADD PUSH1 0x40 MSTORE DUP1 PUSH1 0x0 DUP2 MSTORE POP PUSH2 0x244D JUMP JUMPDEST PUSH1 0xD DUP1 SLOAD PUSH1 0x0 SWAP2 PUSH1 0x1 PUSH1 0xA0 SHL SWAP1 SWAP2 DIV PUSH1 0x1 PUSH1 0x1 PUSH1 0x40 SHL SUB AND SWAP1 DUP2 SWAP1 PUSH1 0x14 PUSH2 0x1F21 DUP4 PUSH2 0x2E39 JUMP JUMPDEST DUP3 SLOAD PUSH2 0x100 SWAP3 SWAP1 SWAP3 EXP PUSH1 0x1 PUSH1 0x1 PUSH1 0x40 SHL SUB DUP2 DUP2 MUL NOT SWAP1 SWAP4 AND SWAP2 DUP4 AND MUL OR SWAP1 SWAP2 SSTORE PUSH1 0x40 DUP1 MLOAD PUSH1 0xC0 DUP2 ADD DUP3 MSTORE PUSH1 0x0 DUP1 DUP3 MSTORE PUSH1 0x20 DUP1 DUP4 ADD DUP8 DUP2 MSTORE DUP4 DUP6 ADD DUP4 DUP2 MSTORE PUSH1 0xE DUP1 SLOAD DUP9 AND PUSH1 0x60 DUP8 ADD SWAP1 DUP2 MSTORE PUSH1 0x80 DUP8 ADD DUP7 DUP2 MSTORE CALLER PUSH1 0xA0 DUP10 ADD SWAP1 DUP2 MSTORE DUP13 DUP9 MSTORE PUSH1 0x12 SWAP1 SWAP7 MSTORE SWAP8 DUP7 KECCAK256 SWAP7 MLOAD DUP8 SLOAD PUSH1 0xFF NOT AND PUSH1 0xFF SWAP1 SWAP2 AND OR DUP8 SSTORE SWAP3 MLOAD PUSH1 0x1 DUP8 ADD SSTORE SWAP1 MLOAD PUSH1 0x2 DUP7 ADD SSTORE SWAP1 MLOAD PUSH1 0x3 DUP6 ADD DUP1 SLOAD SWAP7 MLOAD SWAP2 DUP9 AND PUSH1 0x1 PUSH1 0x1 PUSH1 0x80 SHL SUB NOT SWAP1 SWAP8 AND SWAP7 SWAP1 SWAP7 OR PUSH1 0x1 PUSH1 0x40 SHL SWAP2 DUP9 AND SWAP2 SWAP1 SWAP2 MUL OR SWAP1 SWAP5 SSTORE MLOAD PUSH1 0x4 SWAP1 SWAP3 ADD DUP1 SLOAD PUSH1 0x1 PUSH1 0x1 PUSH1 0xA0 SHL SUB NOT AND PUSH1 0x1 PUSH1 0x1 PUSH1 0xA0 SHL SUB SWAP1 SWAP4 AND SWAP3 SWAP1 SWAP3 OR SWAP1 SWAP2 SSTORE DUP2 SLOAD SWAP1 SWAP3 AND SWAP3 POP SWAP1 PUSH2 0x2005 DUP4 PUSH2 0x2E39 JUMP JUMPDEST SWAP2 SWAP1 PUSH2 0x100 EXP DUP2 SLOAD DUP2 PUSH1 0x1 PUSH1 0x1 PUSH1 0x40 SHL SUB MUL NOT AND SWAP1 DUP4 PUSH1 0x1 PUSH1 0x1 PUSH1 0x40 SHL SUB AND MUL OR SWAP1 SSTORE POP POP PUSH2 0x2034 DUP4 DUP3 PUSH2 0x1EE1 JUMP JUMPDEST PUSH1 0x40 DUP1 MLOAD DUP3 DUP2 MSTORE CALLER PUSH1 0x20 DUP3 ADD MSTORE PUSH32 0xB31D8E8FA42B269769F65CB3FBEE94D28EFB43A3A870E2417A6AEF591601A9F8 SWAP2 ADD PUSH1 0x40 MLOAD DUP1 SWAP2 SUB SWAP1 LOG1 SWAP3 SWAP2 POP POP JUMP JUMPDEST PUSH1 0xB DUP1 SLOAD PUSH1 0x0 SWAP2 DUP2 SWAP1 DUP4 PUSH2 0x2085 DUP4 PUSH2 0x2E1E JUMP JUMPDEST SWAP1 SWAP2 SSTORE POP POP PUSH1 0xA SLOAD PUSH1 0x40 MLOAD PUSH4 0x4A0E2AA1 PUSH1 0xE0 SHL DUP2 MSTORE PUSH1 0x0 SWAP2 PUSH1 0x1 PUSH1 0x1 PUSH1 0xA0 SHL SUB AND SWAP1 PUSH4 0x4A0E2AA1 SWAP1 PUSH2 0x20C1 SWAP1 CALLER SWAP1 DUP12 SWAP1 DUP11 SWAP1 DUP11 SWAP1 PUSH1 0x4 ADD PUSH2 0x2C2A JUMP JUMPDEST PUSH1 0x20 PUSH1 0x40 MLOAD DUP1 DUP4 SUB DUP2 PUSH1 0x0 DUP8 DUP1 EXTCODESIZE ISZERO DUP1 ISZERO PUSH2 0x20DB JUMPI PUSH1 0x0 DUP1 REVERT JUMPDEST POP GAS CALL ISZERO DUP1 ISZERO PUSH2 0x20EF JUMPI RETURNDATASIZE PUSH1 0x0 DUP1 RETURNDATACOPY RETURNDATASIZE PUSH1 0x0 REVERT JUMPDEST POP POP POP POP PUSH1 0x40 MLOAD RETURNDATASIZE PUSH1 0x1F NOT PUSH1 0x1F DUP3 ADD AND DUP3 ADD DUP1 PUSH1 0x40 MSTORE POP DUP2 ADD SWAP1 PUSH2 0x2113 SWAP2 SWAP1 PUSH2 0x2B0A JUMP JUMPDEST PUSH1 0x40 DUP1 MLOAD PUSH1 0x80 DUP2 ADD DUP3 MSTORE PUSH1 0x1 PUSH1 0x1 PUSH1 0xA0 SHL SUB SWAP12 DUP13 AND DUP2 MSTORE PUSH1 0x20 DUP1 DUP3 ADD SWAP12 DUP13 MSTORE SWAP9 DUP13 AND DUP2 DUP4 ADD SWAP1 DUP2 MSTORE PUSH1 0x60 DUP3 ADD DUP5 DUP2 MSTORE PUSH1 0x0 SWAP7 DUP8 MSTORE PUSH1 0xC SWAP1 SWAP11 MSTORE SWAP2 SWAP1 SWAP5 KECCAK256 SWAP4 MLOAD DUP5 SLOAD SWAP1 DUP13 AND PUSH1 0x1 PUSH1 0x1 PUSH1 0xA0 SHL SUB NOT SWAP2 DUP3 AND OR DUP6 SSTORE SWAP10 MLOAD PUSH1 0x1 DUP6 ADD SSTORE MLOAD PUSH1 0x2 DUP5 ADD DUP1 SLOAD SWAP2 SWAP1 SWAP12 AND SWAP10 AND SWAP9 SWAP1 SWAP9 OR SWAP1 SWAP9 SSTORE SWAP4 MLOAD PUSH1 0x3 SWAP1 SWAP5 ADD SWAP4 SWAP1 SWAP4 SSTORE POP SWAP3 SWAP5 SWAP4 POP POP POP POP JUMP JUMPDEST DUP2 PUSH1 0x1 PUSH1 0x1 PUSH1 0xA0 SHL SUB AND DUP4 PUSH1 0x1 PUSH1 0x1 PUSH1 0xA0 SHL SUB AND EQ ISZERO PUSH2 0x21F8 JUMPI PUSH1 0x40 MLOAD PUSH3 0x461BCD PUSH1 0xE5 SHL DUP2 MSTORE PUSH1 0x20 PUSH1 0x4 DUP3 ADD MSTORE PUSH1 0x19 PUSH1 0x24 DUP3 ADD MSTORE PUSH32 0x4552433732313A20617070726F766520746F2063616C6C657200000000000000 PUSH1 0x44 DUP3 ADD MSTORE PUSH1 0x64 ADD PUSH2 0x552 JUMP JUMPDEST PUSH1 0x1 PUSH1 0x1 PUSH1 0xA0 SHL SUB DUP4 DUP2 AND PUSH1 0x0 DUP2 DUP2 MSTORE PUSH1 0x5 PUSH1 0x20 SWAP1 DUP2 MSTORE PUSH1 0x40 DUP1 DUP4 KECCAK256 SWAP5 DUP8 AND DUP1 DUP5 MSTORE SWAP5 DUP3 MSTORE SWAP2 DUP3 SWAP1 KECCAK256 DUP1 SLOAD PUSH1 0xFF NOT AND DUP7 ISZERO ISZERO SWAP1 DUP2 OR SWAP1 SWAP2 SSTORE SWAP2 MLOAD SWAP2 DUP3 MSTORE PUSH32 0x17307EAB39AB6107E8899845AD3D59BD9653F200F220920489CA2B5937696C31 SWAP2 ADD PUSH1 0x40 MLOAD DUP1 SWAP2 SUB SWAP1 LOG3 POP POP POP JUMP JUMPDEST PUSH2 0x2270 DUP5 DUP5 DUP5 PUSH2 0x1D3A JUMP JUMPDEST PUSH2 0x227C DUP5 DUP5 DUP5 DUP5 PUSH2 0x2480 JUMP JUMPDEST PUSH2 0x103C JUMPI PUSH1 0x40 MLOAD PUSH3 0x461BCD PUSH1 0xE5 SHL DUP2 MSTORE PUSH1 0x4 ADD PUSH2 0x552 SWAP1 PUSH2 0x2C63 JUMP JUMPDEST PUSH1 0x60 DUP2 PUSH2 0x22BC JUMPI POP POP PUSH1 0x40 DUP1 MLOAD DUP1 DUP3 ADD SWAP1 SWAP2 MSTORE PUSH1 0x1 DUP2 MSTORE PUSH1 0x3 PUSH1 0xFC SHL PUSH1 0x20 DUP3 ADD MSTORE SWAP1 JUMP JUMPDEST DUP2 PUSH1 0x0 JUMPDEST DUP2 ISZERO PUSH2 0x22E6 JUMPI DUP1 PUSH2 0x22D0 DUP2 PUSH2 0x2E1E JUMP JUMPDEST SWAP2 POP PUSH2 0x22DF SWAP1 POP PUSH1 0xA DUP4 PUSH2 0x2D6D JUMP JUMPDEST SWAP2 POP PUSH2 0x22C0 JUMP JUMPDEST PUSH1 0x0 DUP2 PUSH1 0x1 PUSH1 0x1 PUSH1 0x40 SHL SUB DUP2 GT ISZERO PUSH2 0x2300 JUMPI PUSH2 0x2300 PUSH2 0x2EEC JUMP JUMPDEST PUSH1 0x40 MLOAD SWAP1 DUP1 DUP3 MSTORE DUP1 PUSH1 0x1F ADD PUSH1 0x1F NOT AND PUSH1 0x20 ADD DUP3 ADD PUSH1 0x40 MSTORE DUP1 ISZERO PUSH2 0x232A JUMPI PUSH1 0x20 DUP3 ADD DUP2 DUP1 CALLDATASIZE DUP4 CALLDATACOPY ADD SWAP1 POP JUMPDEST POP SWAP1 POP JUMPDEST DUP5 ISZERO PUSH2 0x1850 JUMPI PUSH2 0x233F PUSH1 0x1 DUP4 PUSH2 0x2DA0 JUMP JUMPDEST SWAP2 POP PUSH2 0x234C PUSH1 0xA DUP7 PUSH2 0x2E80 JUMP JUMPDEST PUSH2 0x2357 SWAP1 PUSH1 0x30 PUSH2 0x2D30 JUMP JUMPDEST PUSH1 0xF8 SHL DUP2 DUP4 DUP2 MLOAD DUP2 LT PUSH2 0x236C JUMPI PUSH2 0x236C PUSH2 0x2ED6 JUMP JUMPDEST PUSH1 0x20 ADD ADD SWAP1 PUSH1 0x1 PUSH1 0x1 PUSH1 0xF8 SHL SUB NOT AND SWAP1 DUP2 PUSH1 0x0 BYTE SWAP1 MSTORE8 POP PUSH2 0x238E PUSH1 0xA DUP7 PUSH2 0x2D6D JUMP JUMPDEST SWAP5 POP PUSH2 0x232E JUMP JUMPDEST PUSH1 0x1 PUSH1 0x1 PUSH1 0xA0 SHL SUB DUP4 AND PUSH2 0x23F0 JUMPI PUSH2 0x23EB DUP2 PUSH1 0x8 DUP1 SLOAD PUSH1 0x0 DUP4 DUP2 MSTORE PUSH1 0x9 PUSH1 0x20 MSTORE PUSH1 0x40 DUP2 KECCAK256 DUP3 SWAP1 SSTORE PUSH1 0x1 DUP3 ADD DUP4 SSTORE SWAP2 SWAP1 SWAP2 MSTORE PUSH32 0xF3F7A9FE364FAAB93B216DA50A3214154F22A0A2B415B23A84C8169E8B636EE3 ADD SSTORE JUMP JUMPDEST PUSH2 0x2413 JUMP JUMPDEST DUP2 PUSH1 0x1 PUSH1 0x1 PUSH1 0xA0 SHL SUB AND DUP4 PUSH1 0x1 PUSH1 0x1 PUSH1 0xA0 SHL SUB AND EQ PUSH2 0x2413 JUMPI PUSH2 0x2413 DUP4 DUP3 PUSH2 0x258D JUMP JUMPDEST PUSH1 0x1 PUSH1 0x1 PUSH1 0xA0 SHL SUB DUP3 AND PUSH2 0x242A JUMPI PUSH2 0x688 DUP2 PUSH2 0x262A JUMP JUMPDEST DUP3 PUSH1 0x1 PUSH1 0x1 PUSH1 0xA0 SHL SUB AND DUP3 PUSH1 0x1 PUSH1 0x1 PUSH1 0xA0 SHL SUB AND EQ PUSH2 0x688 JUMPI PUSH2 0x688 DUP3 DUP3 PUSH2 0x26D9 JUMP JUMPDEST PUSH2 0x2457 DUP4 DUP4 PUSH2 0x271D JUMP JUMPDEST PUSH2 0x2464 PUSH1 0x0 DUP5 DUP5 DUP5 PUSH2 0x2480 JUMP JUMPDEST PUSH2 0x688 JUMPI PUSH1 0x40 MLOAD PUSH3 0x461BCD PUSH1 0xE5 SHL DUP2 MSTORE PUSH1 0x4 ADD PUSH2 0x552 SWAP1 PUSH2 0x2C63 JUMP JUMPDEST PUSH1 0x0 PUSH1 0x1 PUSH1 0x1 PUSH1 0xA0 SHL SUB DUP5 AND EXTCODESIZE ISZERO PUSH2 0x2582 JUMPI PUSH1 0x40 MLOAD PUSH4 0xA85BD01 PUSH1 0xE1 SHL DUP2 MSTORE PUSH1 0x1 PUSH1 0x1 PUSH1 0xA0 SHL SUB DUP6 AND SWAP1 PUSH4 0x150B7A02 SWAP1 PUSH2 0x24C4 SWAP1 CALLER SWAP1 DUP10 SWAP1 DUP9 SWAP1 DUP9 SWAP1 PUSH1 0x4 ADD PUSH2 0x2BED JUMP JUMPDEST PUSH1 0x20 PUSH1 0x40 MLOAD DUP1 DUP4 SUB DUP2 PUSH1 0x0 DUP8 DUP1 EXTCODESIZE ISZERO DUP1 ISZERO PUSH2 0x24DE JUMPI PUSH1 0x0 DUP1 REVERT JUMPDEST POP GAS CALL SWAP3 POP POP POP DUP1 ISZERO PUSH2 0x250E JUMPI POP PUSH1 0x40 DUP1 MLOAD PUSH1 0x1F RETURNDATASIZE SWAP1 DUP2 ADD PUSH1 0x1F NOT AND DUP3 ADD SWAP1 SWAP3 MSTORE PUSH2 0x250B SWAP2 DUP2 ADD SWAP1 PUSH2 0x2AD4 JUMP JUMPDEST PUSH1 0x1 JUMPDEST PUSH2 0x2568 JUMPI RETURNDATASIZE DUP1 DUP1 ISZERO PUSH2 0x253C JUMPI PUSH1 0x40 MLOAD SWAP2 POP PUSH1 0x1F NOT PUSH1 0x3F RETURNDATASIZE ADD AND DUP3 ADD PUSH1 0x40 MSTORE RETURNDATASIZE DUP3 MSTORE RETURNDATASIZE PUSH1 0x0 PUSH1 0x20 DUP5 ADD RETURNDATACOPY PUSH2 0x2541 JUMP JUMPDEST PUSH1 0x60 SWAP2 POP JUMPDEST POP DUP1 MLOAD PUSH2 0x2560 JUMPI PUSH1 0x40 MLOAD PUSH3 0x461BCD PUSH1 0xE5 SHL DUP2 MSTORE PUSH1 0x4 ADD PUSH2 0x552 SWAP1 PUSH2 0x2C63 JUMP JUMPDEST DUP1 MLOAD DUP2 PUSH1 0x20 ADD REVERT JUMPDEST PUSH1 0x1 PUSH1 0x1 PUSH1 0xE0 SHL SUB NOT AND PUSH4 0xA85BD01 PUSH1 0xE1 SHL EQ SWAP1 POP PUSH2 0x1850 JUMP JUMPDEST POP PUSH1 0x1 SWAP5 SWAP4 POP POP POP POP JUMP JUMPDEST PUSH1 0x0 PUSH1 0x1 PUSH2 0x259A DUP5 PUSH2 0x1684 JUMP JUMPDEST PUSH2 0x25A4 SWAP2 SWAP1 PUSH2 0x2DA0 JUMP JUMPDEST PUSH1 0x0 DUP4 DUP2 MSTORE PUSH1 0x7 PUSH1 0x20 MSTORE PUSH1 0x40 SWAP1 KECCAK256 SLOAD SWAP1 SWAP2 POP DUP1 DUP3 EQ PUSH2 0x25F7 JUMPI PUSH1 0x1 PUSH1 0x1 PUSH1 0xA0 SHL SUB DUP5 AND PUSH1 0x0 SWAP1 DUP2 MSTORE PUSH1 0x6 PUSH1 0x20 SWAP1 DUP2 MSTORE PUSH1 0x40 DUP1 DUP4 KECCAK256 DUP6 DUP5 MSTORE DUP3 MSTORE DUP1 DUP4 KECCAK256 SLOAD DUP5 DUP5 MSTORE DUP2 DUP5 KECCAK256 DUP2 SWAP1 SSTORE DUP4 MSTORE PUSH1 0x7 SWAP1 SWAP2 MSTORE SWAP1 KECCAK256 DUP2 SWAP1 SSTORE JUMPDEST POP PUSH1 0x0 SWAP2 DUP3 MSTORE PUSH1 0x7 PUSH1 0x20 SWAP1 DUP2 MSTORE PUSH1 0x40 DUP1 DUP5 KECCAK256 DUP5 SWAP1 SSTORE PUSH1 0x1 PUSH1 0x1 PUSH1 0xA0 SHL SUB SWAP1 SWAP5 AND DUP4 MSTORE PUSH1 0x6 DUP2 MSTORE DUP4 DUP4 KECCAK256 SWAP2 DUP4 MSTORE MSTORE SWAP1 DUP2 KECCAK256 SSTORE JUMP JUMPDEST PUSH1 0x8 SLOAD PUSH1 0x0 SWAP1 PUSH2 0x263C SWAP1 PUSH1 0x1 SWAP1 PUSH2 0x2DA0 JUMP JUMPDEST PUSH1 0x0 DUP4 DUP2 MSTORE PUSH1 0x9 PUSH1 0x20 MSTORE PUSH1 0x40 DUP2 KECCAK256 SLOAD PUSH1 0x8 DUP1 SLOAD SWAP4 SWAP5 POP SWAP1 SWAP3 DUP5 SWAP1 DUP2 LT PUSH2 0x2664 JUMPI PUSH2 0x2664 PUSH2 0x2ED6 JUMP JUMPDEST SWAP1 PUSH1 0x0 MSTORE PUSH1 0x20 PUSH1 0x0 KECCAK256 ADD SLOAD SWAP1 POP DUP1 PUSH1 0x8 DUP4 DUP2 SLOAD DUP2 LT PUSH2 0x2685 JUMPI PUSH2 0x2685 PUSH2 0x2ED6 JUMP JUMPDEST PUSH1 0x0 SWAP2 DUP3 MSTORE PUSH1 0x20 DUP1 DUP4 KECCAK256 SWAP1 SWAP2 ADD SWAP3 SWAP1 SWAP3 SSTORE DUP3 DUP2 MSTORE PUSH1 0x9 SWAP1 SWAP2 MSTORE PUSH1 0x40 DUP1 DUP3 KECCAK256 DUP5 SWAP1 SSTORE DUP6 DUP3 MSTORE DUP2 KECCAK256 SSTORE PUSH1 0x8 DUP1 SLOAD DUP1 PUSH2 0x26BD JUMPI PUSH2 0x26BD PUSH2 0x2EC0 JUMP JUMPDEST PUSH1 0x1 SWAP1 SUB DUP2 DUP2 SWAP1 PUSH1 0x0 MSTORE PUSH1 0x20 PUSH1 0x0 KECCAK256 ADD PUSH1 0x0 SWAP1 SSTORE SWAP1 SSTORE POP POP POP POP JUMP JUMPDEST PUSH1 0x0 PUSH2 0x26E4 DUP4 PUSH2 0x1684 JUMP JUMPDEST PUSH1 0x1 PUSH1 0x1 PUSH1 0xA0 SHL SUB SWAP1 SWAP4 AND PUSH1 0x0 SWAP1 DUP2 MSTORE PUSH1 0x6 PUSH1 0x20 SWAP1 DUP2 MSTORE PUSH1 0x40 DUP1 DUP4 KECCAK256 DUP7 DUP5 MSTORE DUP3 MSTORE DUP1 DUP4 KECCAK256 DUP6 SWAP1 SSTORE SWAP4 DUP3 MSTORE PUSH1 0x7 SWAP1 MSTORE SWAP2 SWAP1 SWAP2 KECCAK256 SWAP2 SWAP1 SWAP2 SSTORE POP JUMP JUMPDEST PUSH1 0x1 PUSH1 0x1 PUSH1 0xA0 SHL SUB DUP3 AND PUSH2 0x2773 JUMPI PUSH1 0x40 MLOAD PUSH3 0x461BCD PUSH1 0xE5 SHL DUP2 MSTORE PUSH1 0x20 PUSH1 0x4 DUP3 ADD DUP2 SWAP1 MSTORE PUSH1 0x24 DUP3 ADD MSTORE PUSH32 0x4552433732313A206D696E7420746F20746865207A65726F2061646472657373 PUSH1 0x44 DUP3 ADD MSTORE PUSH1 0x64 ADD PUSH2 0x552 JUMP JUMPDEST PUSH1 0x0 DUP2 DUP2 MSTORE PUSH1 0x2 PUSH1 0x20 MSTORE PUSH1 0x40 SWAP1 KECCAK256 SLOAD PUSH1 0x1 PUSH1 0x1 PUSH1 0xA0 SHL SUB AND ISZERO PUSH2 0x27D8 JUMPI PUSH1 0x40 MLOAD PUSH3 0x461BCD PUSH1 0xE5 SHL DUP2 MSTORE PUSH1 0x20 PUSH1 0x4 DUP3 ADD MSTORE PUSH1 0x1C PUSH1 0x24 DUP3 ADD MSTORE PUSH32 0x4552433732313A20746F6B656E20616C7265616479206D696E74656400000000 PUSH1 0x44 DUP3 ADD MSTORE PUSH1 0x64 ADD PUSH2 0x552 JUMP JUMPDEST PUSH2 0x27E4 PUSH1 0x0 DUP4 DUP4 PUSH2 0x2395 JUMP JUMPDEST PUSH1 0x1 PUSH1 0x1 PUSH1 0xA0 SHL SUB DUP3 AND PUSH1 0x0 SWAP1 DUP2 MSTORE PUSH1 0x3 PUSH1 0x20 MSTORE PUSH1 0x40 DUP2 KECCAK256 DUP1 SLOAD PUSH1 0x1 SWAP3 SWAP1 PUSH2 0x280D SWAP1 DUP5 SWAP1 PUSH2 0x2D30 JUMP JUMPDEST SWAP1 SWAP2 SSTORE POP POP PUSH1 0x0 DUP2 DUP2 MSTORE PUSH1 0x2 PUSH1 0x20 MSTORE PUSH1 0x40 DUP1 DUP3 KECCAK256 DUP1 SLOAD PUSH1 0x1 PUSH1 0x1 PUSH1 0xA0 SHL SUB NOT AND PUSH1 0x1 PUSH1 0x1 PUSH1 0xA0 SHL SUB DUP7 AND SWAP1 DUP2 OR SWAP1 SWAP2 SSTORE SWAP1 MLOAD DUP4 SWAP3 SWAP1 PUSH32 0xDDF252AD1BE2C89B69C2B068FC378DAA952BA7F163C4A11628F55A4DF523B3EF SWAP1 DUP3 SWAP1 LOG4 POP POP JUMP JUMPDEST DUP1 CALLDATALOAD PUSH1 0x1 PUSH1 0x1 PUSH1 0xA0 SHL SUB DUP2 AND DUP2 EQ PUSH2 0x2882 JUMPI PUSH1 0x0 DUP1 REVERT JUMPDEST SWAP2 SWAP1 POP JUMP JUMPDEST DUP1 CALLDATALOAD PUSH1 0xFF DUP2 AND DUP2 EQ PUSH2 0x2882 JUMPI PUSH1 0x0 DUP1 REVERT JUMPDEST PUSH1 0x0 PUSH1 0x20 DUP3 DUP5 SUB SLT ISZERO PUSH2 0x28AA JUMPI PUSH1 0x0 DUP1 REVERT JUMPDEST PUSH2 0x1B73 DUP3 PUSH2 0x286B JUMP JUMPDEST PUSH1 0x0 DUP1 PUSH1 0x40 DUP4 DUP6 SUB SLT ISZERO PUSH2 0x28C6 JUMPI PUSH1 0x0 DUP1 REVERT JUMPDEST PUSH2 0x28CF DUP4 PUSH2 0x286B JUMP JUMPDEST SWAP2 POP PUSH2 0x28DD PUSH1 0x20 DUP5 ADD PUSH2 0x286B JUMP JUMPDEST SWAP1 POP SWAP3 POP SWAP3 SWAP1 POP JUMP JUMPDEST PUSH1 0x0 DUP1 PUSH1 0x0 PUSH1 0x60 DUP5 DUP7 SUB SLT ISZERO PUSH2 0x28FB JUMPI PUSH1 0x0 DUP1 REVERT JUMPDEST PUSH2 0x2904 DUP5 PUSH2 0x286B JUMP JUMPDEST SWAP3 POP PUSH2 0x2912 PUSH1 0x20 DUP6 ADD PUSH2 0x286B JUMP JUMPDEST SWAP2 POP PUSH1 0x40 DUP5 ADD CALLDATALOAD SWAP1 POP SWAP3 POP SWAP3 POP SWAP3 JUMP JUMPDEST PUSH1 0x0 DUP1 PUSH1 0x0 DUP1 PUSH1 0x80 DUP6 DUP8 SUB SLT ISZERO PUSH2 0x2938 JUMPI PUSH1 0x0 DUP1 REVERT JUMPDEST PUSH2 0x2941 DUP6 PUSH2 0x286B JUMP JUMPDEST SWAP4 POP PUSH2 0x294F PUSH1 0x20 DUP7 ADD PUSH2 0x286B JUMP JUMPDEST SWAP3 POP PUSH1 0x40 DUP6 ADD CALLDATALOAD SWAP2 POP PUSH1 0x60 DUP6 ADD CALLDATALOAD PUSH1 0x1 PUSH1 0x1 PUSH1 0x40 SHL SUB DUP1 DUP3 GT ISZERO PUSH2 0x2972 JUMPI PUSH1 0x0 DUP1 REVERT JUMPDEST DUP2 DUP8 ADD SWAP2 POP DUP8 PUSH1 0x1F DUP4 ADD SLT PUSH2 0x2986 JUMPI PUSH1 0x0 DUP1 REVERT JUMPDEST DUP2 CALLDATALOAD DUP2 DUP2 GT ISZERO PUSH2 0x2998 JUMPI PUSH2 0x2998 PUSH2 0x2EEC JUMP JUMPDEST PUSH1 0x40 MLOAD PUSH1 0x1F DUP3 ADD PUSH1 0x1F NOT SWAP1 DUP2 AND PUSH1 0x3F ADD AND DUP2 ADD SWAP1 DUP4 DUP3 GT DUP2 DUP4 LT OR ISZERO PUSH2 0x29C0 JUMPI PUSH2 0x29C0 PUSH2 0x2EEC JUMP JUMPDEST DUP2 PUSH1 0x40 MSTORE DUP3 DUP2 MSTORE DUP11 PUSH1 0x20 DUP5 DUP8 ADD ADD GT ISZERO PUSH2 0x29D9 JUMPI PUSH1 0x0 DUP1 REVERT JUMPDEST DUP3 PUSH1 0x20 DUP7 ADD PUSH1 0x20 DUP4 ADD CALLDATACOPY PUSH1 0x0 PUSH1 0x20 DUP5 DUP4 ADD ADD MSTORE DUP1 SWAP6 POP POP POP POP POP POP SWAP3 SWAP6 SWAP2 SWAP5 POP SWAP3 POP JUMP JUMPDEST PUSH1 0x0 DUP1 PUSH1 0x40 DUP4 DUP6 SUB SLT ISZERO PUSH2 0x2A10 JUMPI PUSH1 0x0 DUP1 REVERT JUMPDEST PUSH2 0x2A19 DUP4 PUSH2 0x286B JUMP JUMPDEST SWAP2 POP PUSH1 0x20 DUP4 ADD CALLDATALOAD PUSH2 0x2A29 DUP2 PUSH2 0x2F02 JUMP JUMPDEST DUP1 SWAP2 POP POP SWAP3 POP SWAP3 SWAP1 POP JUMP JUMPDEST PUSH1 0x0 DUP1 PUSH1 0x40 DUP4 DUP6 SUB SLT ISZERO PUSH2 0x2A47 JUMPI PUSH1 0x0 DUP1 REVERT JUMPDEST PUSH2 0x2A50 DUP4 PUSH2 0x286B JUMP JUMPDEST SWAP5 PUSH1 0x20 SWAP4 SWAP1 SWAP4 ADD CALLDATALOAD SWAP4 POP POP POP JUMP JUMPDEST PUSH1 0x0 DUP1 PUSH1 0x0 PUSH1 0x60 DUP5 DUP7 SUB SLT ISZERO PUSH2 0x2A73 JUMPI PUSH1 0x0 DUP1 REVERT JUMPDEST PUSH2 0x2A7C DUP5 PUSH2 0x286B JUMP JUMPDEST SWAP3 POP PUSH1 0x20 DUP5 ADD CALLDATALOAD SWAP2 POP PUSH2 0x2A91 PUSH1 0x40 DUP6 ADD PUSH2 0x286B JUMP JUMPDEST SWAP1 POP SWAP3 POP SWAP3 POP SWAP3 JUMP JUMPDEST PUSH1 0x0 PUSH1 0x20 DUP3 DUP5 SUB SLT ISZERO PUSH2 0x2AAC JUMPI PUSH1 0x0 DUP1 REVERT JUMPDEST DUP2 MLOAD PUSH2 0x1B73 DUP2 PUSH2 0x2F02 JUMP JUMPDEST PUSH1 0x0 PUSH1 0x20 DUP3 DUP5 SUB SLT ISZERO PUSH2 0x2AC9 JUMPI PUSH1 0x0 DUP1 REVERT JUMPDEST DUP2 CALLDATALOAD PUSH2 0x1B73 DUP2 PUSH2 0x2F13 JUMP JUMPDEST PUSH1 0x0 PUSH1 0x20 DUP3 DUP5 SUB SLT ISZERO PUSH2 0x2AE6 JUMPI PUSH1 0x0 DUP1 REVERT JUMPDEST DUP2 MLOAD PUSH2 0x1B73 DUP2 PUSH2 0x2F13 JUMP JUMPDEST PUSH1 0x0 PUSH1 0x20 DUP3 DUP5 SUB SLT ISZERO PUSH2 0x2B03 JUMPI PUSH1 0x0 DUP1 REVERT JUMPDEST POP CALLDATALOAD SWAP2 SWAP1 POP JUMP JUMPDEST PUSH1 0x0 PUSH1 0x20 DUP3 DUP5 SUB SLT ISZERO PUSH2 0x2B1C JUMPI PUSH1 0x0 DUP1 REVERT JUMPDEST POP MLOAD SWAP2 SWAP1 POP JUMP JUMPDEST PUSH1 0x0 PUSH1 0x20 DUP3 DUP5 SUB SLT ISZERO PUSH2 0x2B35 JUMPI PUSH1 0x0 DUP1 REVERT JUMPDEST PUSH2 0x1B73 DUP3 PUSH2 0x2887 JUMP JUMPDEST PUSH1 0x0 DUP1 PUSH1 0x40 DUP4 DUP6 SUB SLT ISZERO PUSH2 0x2B51 JUMPI PUSH1 0x0 DUP1 REVERT JUMPDEST PUSH2 0x28CF DUP4 PUSH2 0x2887 JUMP JUMPDEST PUSH1 0x0 DUP1 PUSH1 0x40 DUP4 DUP6 SUB SLT ISZERO PUSH2 0x2B6D JUMPI PUSH1 0x0 DUP1 REVERT JUMPDEST PUSH2 0x2B76 DUP4 PUSH2 0x2887 JUMP JUMPDEST SWAP2 POP PUSH1 0x20 DUP4 ADD CALLDATALOAD PUSH1 0x1 PUSH1 0x1 PUSH1 0x40 SHL SUB DUP2 AND DUP2 EQ PUSH2 0x2A29 JUMPI PUSH1 0x0 DUP1 REVERT JUMPDEST PUSH1 0x0 DUP2 MLOAD DUP1 DUP5 MSTORE PUSH2 0x2BAA DUP2 PUSH1 0x20 DUP7 ADD PUSH1 0x20 DUP7 ADD PUSH2 0x2DB7 JUMP JUMPDEST PUSH1 0x1F ADD PUSH1 0x1F NOT AND SWAP3 SWAP1 SWAP3 ADD PUSH1 0x20 ADD SWAP3 SWAP2 POP POP JUMP JUMPDEST PUSH1 0x0 DUP4 MLOAD PUSH2 0x2BD0 DUP2 DUP5 PUSH1 0x20 DUP9 ADD PUSH2 0x2DB7 JUMP JUMPDEST DUP4 MLOAD SWAP1 DUP4 ADD SWAP1 PUSH2 0x2BE4 DUP2 DUP4 PUSH1 0x20 DUP9 ADD PUSH2 0x2DB7 JUMP JUMPDEST ADD SWAP5 SWAP4 POP POP POP POP JUMP JUMPDEST PUSH1 0x1 PUSH1 0x1 PUSH1 0xA0 SHL SUB DUP6 DUP2 AND DUP3 MSTORE DUP5 AND PUSH1 0x20 DUP3 ADD MSTORE PUSH1 0x40 DUP2 ADD DUP4 SWAP1 MSTORE PUSH1 0x80 PUSH1 0x60 DUP3 ADD DUP2 SWAP1 MSTORE PUSH1 0x0 SWAP1 PUSH2 0x2C20 SWAP1 DUP4 ADD DUP5 PUSH2 0x2B92 JUMP JUMPDEST SWAP7 SWAP6 POP POP POP POP POP POP JUMP JUMPDEST PUSH1 0x1 PUSH1 0x1 PUSH1 0xA0 SHL SUB SWAP5 SWAP1 SWAP5 AND DUP5 MSTORE PUSH1 0x20 DUP5 ADD SWAP3 SWAP1 SWAP3 MSTORE PUSH1 0x40 DUP4 ADD MSTORE PUSH1 0x60 DUP3 ADD MSTORE PUSH1 0x80 ADD SWAP1 JUMP JUMPDEST PUSH1 0x20 DUP2 MSTORE PUSH1 0x0 PUSH2 0x1B73 PUSH1 0x20 DUP4 ADD DUP5 PUSH2 0x2B92 JUMP JUMPDEST PUSH1 0x20 DUP1 DUP3 MSTORE PUSH1 0x32 SWAP1 DUP3 ADD MSTORE PUSH32 0x4552433732313A207472616E7366657220746F206E6F6E204552433732315265 PUSH1 0x40 DUP3 ADD MSTORE PUSH18 0x31B2B4BB32B91034B6B83632B6B2B73A32B9 PUSH1 0x71 SHL PUSH1 0x60 DUP3 ADD MSTORE PUSH1 0x80 ADD SWAP1 JUMP JUMPDEST PUSH1 0x20 DUP1 DUP3 MSTORE PUSH1 0x10 SWAP1 DUP3 ADD MSTORE PUSH16 0x27379039BAB1B4103932B8BAB2B9BA17 PUSH1 0x81 SHL PUSH1 0x40 DUP3 ADD MSTORE PUSH1 0x60 ADD SWAP1 JUMP JUMPDEST PUSH1 0x20 DUP1 DUP3 MSTORE PUSH1 0x31 SWAP1 DUP3 ADD MSTORE PUSH32 0x4552433732313A207472616E736665722063616C6C6572206973206E6F74206F PUSH1 0x40 DUP3 ADD MSTORE PUSH17 0x1DDB995C881B9BDC88185C1C1C9BDD9959 PUSH1 0x7A SHL PUSH1 0x60 DUP3 ADD MSTORE PUSH1 0x80 ADD SWAP1 JUMP JUMPDEST PUSH1 0x0 DUP3 NOT DUP3 GT ISZERO PUSH2 0x2D43 JUMPI PUSH2 0x2D43 PUSH2 0x2E94 JUMP JUMPDEST POP ADD SWAP1 JUMP JUMPDEST PUSH1 0x0 PUSH1 0xFF DUP3 AND PUSH1 0xFF DUP5 AND DUP1 PUSH1 0xFF SUB DUP3 GT ISZERO PUSH2 0x2D65 JUMPI PUSH2 0x2D65 PUSH2 0x2E94 JUMP JUMPDEST ADD SWAP4 SWAP3 POP POP POP JUMP JUMPDEST PUSH1 0x0 DUP3 PUSH2 0x2D7C JUMPI PUSH2 0x2D7C PUSH2 0x2EAA JUMP JUMPDEST POP DIV SWAP1 JUMP JUMPDEST PUSH1 0x0 DUP2 PUSH1 0x0 NOT DIV DUP4 GT DUP3 ISZERO ISZERO AND ISZERO PUSH2 0x2D9B JUMPI PUSH2 0x2D9B PUSH2 0x2E94 JUMP JUMPDEST POP MUL SWAP1 JUMP JUMPDEST PUSH1 0x0 DUP3 DUP3 LT ISZERO PUSH2 0x2DB2 JUMPI PUSH2 0x2DB2 PUSH2 0x2E94 JUMP JUMPDEST POP SUB SWAP1 JUMP JUMPDEST PUSH1 0x0 JUMPDEST DUP4 DUP2 LT ISZERO PUSH2 0x2DD2 JUMPI DUP2 DUP2 ADD MLOAD DUP4 DUP3 ADD MSTORE PUSH1 0x20 ADD PUSH2 0x2DBA JUMP JUMPDEST DUP4 DUP2 GT ISZERO PUSH2 0x103C JUMPI POP POP PUSH1 0x0 SWAP2 ADD MSTORE JUMP JUMPDEST PUSH1 0x1 DUP2 DUP2 SHR SWAP1 DUP3 AND DUP1 PUSH2 0x2DF7 JUMPI PUSH1 0x7F DUP3 AND SWAP2 POP JUMPDEST PUSH1 0x20 DUP3 LT DUP2 EQ ISZERO PUSH2 0x2E18 JUMPI PUSH4 0x4E487B71 PUSH1 0xE0 SHL PUSH1 0x0 MSTORE PUSH1 0x22 PUSH1 0x4 MSTORE PUSH1 0x24 PUSH1 0x0 REVERT JUMPDEST POP SWAP2 SWAP1 POP JUMP JUMPDEST PUSH1 0x0 PUSH1 0x0 NOT DUP3 EQ ISZERO PUSH2 0x2E32 JUMPI PUSH2 0x2E32 PUSH2 0x2E94 JUMP JUMPDEST POP PUSH1 0x1 ADD SWAP1 JUMP JUMPDEST PUSH1 0x0 PUSH1 0x1 PUSH1 0x1 PUSH1 0x40 SHL SUB DUP1 DUP4 AND DUP2 DUP2 EQ ISZERO PUSH2 0x2E56 JUMPI PUSH2 0x2E56 PUSH2 0x2E94 JUMP JUMPDEST PUSH1 0x1 ADD SWAP4 SWAP3 POP POP POP JUMP JUMPDEST PUSH1 0x0 PUSH1 0xFF DUP3 AND PUSH1 0xFF DUP2 EQ ISZERO PUSH2 0x2E77 JUMPI PUSH2 0x2E77 PUSH2 0x2E94 JUMP JUMPDEST PUSH1 0x1 ADD SWAP3 SWAP2 POP POP JUMP JUMPDEST PUSH1 0x0 DUP3 PUSH2 0x2E8F JUMPI PUSH2 0x2E8F PUSH2 0x2EAA JUMP JUMPDEST POP MOD SWAP1 JUMP JUMPDEST PUSH4 0x4E487B71 PUSH1 0xE0 SHL PUSH1 0x0 MSTORE PUSH1 0x11 PUSH1 0x4 MSTORE PUSH1 0x24 PUSH1 0x0 REVERT JUMPDEST PUSH4 0x4E487B71 PUSH1 0xE0 SHL PUSH1 0x0 MSTORE PUSH1 0x12 PUSH1 0x4 MSTORE PUSH1 0x24 PUSH1 0x0 REVERT JUMPDEST PUSH4 0x4E487B71 PUSH1 0xE0 SHL PUSH1 0x0 MSTORE PUSH1 0x31 PUSH1 0x4 MSTORE PUSH1 0x24 PUSH1 0x0 REVERT JUMPDEST PUSH4 0x4E487B71 PUSH1 0xE0 SHL PUSH1 0x0 MSTORE PUSH1 0x32 PUSH1 0x4 MSTORE PUSH1 0x24 PUSH1 0x0 REVERT JUMPDEST PUSH4 0x4E487B71 PUSH1 0xE0 SHL PUSH1 0x0 MSTORE PUSH1 0x41 PUSH1 0x4 MSTORE PUSH1 0x24 PUSH1 0x0 REVERT JUMPDEST DUP1 ISZERO ISZERO DUP2 EQ PUSH2 0x2F10 JUMPI PUSH1 0x0 DUP1 REVERT JUMPDEST POP JUMP JUMPDEST PUSH1 0x1 PUSH1 0x1 PUSH1 0xE0 SHL SUB NOT DUP2 AND DUP2 EQ PUSH2 0x2F10 JUMPI PUSH1 0x0 DUP1 REVERT INVALID LOG2 PUSH5 0x6970667358 0x22 SLT KECCAK256 SIGNEXTEND 0xEC PUSH12 0x85B4A21923C317E1AAC29DD1 0xB1 SELFBALANCE PUSH21 0xDC45D08F24AD6FB1642D1A4F1A0264736F6C634300 ADDMOD SMOD STOP CALLER GASLIMIT MSTORE NUMBER CALLDATACOPY ORIGIN BALANCE GASPRICE KECCAK256 PUSH21 0x72616E7366657220746F206E6F6E20455243373231 MSTORE PUSH6 0x0 "
		},
		"gasEstimates": {
			"creation": {
				"codeDepositCost": "2425400",
				"executionCost": "infinite",
				"totalCost": "infinite"
			},
			"external": {
				"approve(address,uint256)": "infinite",
				"balanceOf(address)": "2656",
				"executeGodMint(uint256)": "infinite",
				"executeRankChange(uint256)": "infinite",
				"executeWithdraw20(uint256)": "infinite",
				"getApproved(uint256)": "4783",
				"getVotingWeight(uint256)": "2579",
				"hasFiduciaryPower(address,uint256)": "2789",
				"isApprovedForAll(address,address)": "infinite",
				"mintCost(uint8)": "2643",
				"mintTitle(uint256)": "infinite",
				"name()": "infinite",
				"ownerOf(uint256)": "2602",
				"requestGodMint(uint8,address)": "infinite",
				"requestMintLimitChange(uint8,uint64)": "infinite",
				"requestRankCostChange(uint8,uint64)": "infinite",
				"requestWithdraw20(address,uint256,address)": "infinite",
				"safeTransferFrom(address,address,uint256)": "infinite",
				"safeTransferFrom(address,address,uint256,bytes)": "infinite",
				"setApprovalForAll(address,bool)": "26804",
				"supportsInterface(bytes4)": "infinite",
				"symbol()": "infinite",
				"tokenByIndex(uint256)": "6782",
				"tokenOfOwnerByIndex(address,uint256)": "4976",
				"tokenURI(uint256)": "infinite",
				"totalSupply()": "2349",
				"transferFrom(address,address,uint256)": "infinite",
				"withdrawCMD()": "infinite"
			},
			"internal": {
				"_mintGodTitle(address)": "infinite"
			}
		},
		"methodIdentifiers": {
			"approve(address,uint256)": "095ea7b3",
			"balanceOf(address)": "70a08231",
			"executeGodMint(uint256)": "800b0160",
			"executeRankChange(uint256)": "9634540b",
			"executeWithdraw20(uint256)": "6892e18d",
			"getApproved(uint256)": "081812fc",
			"getVotingWeight(uint256)": "1e7aa37d",
			"hasFiduciaryPower(address,uint256)": "50089621",
			"isApprovedForAll(address,address)": "e985e9c5",
			"mintCost(uint8)": "bd96237d",
			"mintTitle(uint256)": "6a7dac7d",
			"name()": "06fdde03",
			"ownerOf(uint256)": "6352211e",
			"requestGodMint(uint8,address)": "46582ca4",
			"requestMintLimitChange(uint8,uint64)": "67d81b32",
			"requestRankCostChange(uint8,uint64)": "59f755fe",
			"requestWithdraw20(address,uint256,address)": "90dd6f0b",
			"safeTransferFrom(address,address,uint256)": "42842e0e",
			"safeTransferFrom(address,address,uint256,bytes)": "b88d4fde",
			"setApprovalForAll(address,bool)": "a22cb465",
			"supportsInterface(bytes4)": "01ffc9a7",
			"symbol()": "95d89b41",
			"tokenByIndex(uint256)": "4f6ccce7",
			"tokenOfOwnerByIndex(address,uint256)": "2f745c59",
			"tokenURI(uint256)": "c87b56dd",
			"totalSupply()": "18160ddd",
			"transferFrom(address,address,uint256)": "23b872dd",
			"withdrawCMD()": "485456bc"
		}
	},
	"abi": [
		{
			"inputs": [],
			"stateMutability": "nonpayable",
			"type": "constructor"
		},
		{
			"anonymous": false,
			"inputs": [
				{
					"indexed": true,
					"internalType": "address",
					"name": "owner",
					"type": "address"
				},
				{
					"indexed": true,
					"internalType": "address",
					"name": "approved",
					"type": "address"
				},
				{
					"indexed": true,
					"internalType": "uint256",
					"name": "tokenId",
					"type": "uint256"
				}
			],
			"name": "Approval",
			"type": "event"
		},
		{
			"anonymous": false,
			"inputs": [
				{
					"indexed": true,
					"internalType": "address",
					"name": "owner",
					"type": "address"
				},
				{
					"indexed": true,
					"internalType": "address",
					"name": "operator",
					"type": "address"
				},
				{
					"indexed": false,
					"internalType": "bool",
					"name": "approved",
					"type": "bool"
				}
			],
			"name": "ApprovalForAll",
			"type": "event"
		},
		{
			"anonymous": false,
			"inputs": [
				{
					"indexed": false,
					"internalType": "address",
					"name": "minter",
					"type": "address"
				},
				{
					"indexed": false,
					"internalType": "uint256",
					"name": "amount",
					"type": "uint256"
				}
			],
			"name": "CMDClaim",
			"type": "event"
		},
		{
			"anonymous": false,
			"inputs": [
				{
					"indexed": false,
					"internalType": "uint256",
					"name": "titleID",
					"type": "uint256"
				},
				{
					"indexed": false,
					"internalType": "address",
					"name": "minter",
					"type": "address"
				}
			],
			"name": "TitleMinted",
			"type": "event"
		},
		{
			"anonymous": false,
			"inputs": [
				{
					"indexed": true,
					"internalType": "address",
					"name": "from",
					"type": "address"
				},
				{
					"indexed": true,
					"internalType": "address",
					"name": "to",
					"type": "address"
				},
				{
					"indexed": true,
					"internalType": "uint256",
					"name": "tokenId",
					"type": "uint256"
				}
			],
			"name": "Transfer",
			"type": "event"
		},
		{
			"inputs": [
				{
					"internalType": "address",
					"name": "to",
					"type": "address"
				},
				{
					"internalType": "uint256",
					"name": "tokenId",
					"type": "uint256"
				}
			],
			"name": "approve",
			"outputs": [],
			"stateMutability": "nonpayable",
			"type": "function"
		},
		{
			"inputs": [
				{
					"internalType": "address",
					"name": "owner",
					"type": "address"
				}
			],
			"name": "balanceOf",
			"outputs": [
				{
					"internalType": "uint256",
					"name": "",
					"type": "uint256"
				}
			],
			"stateMutability": "view",
			"type": "function"
		},
		{
			"inputs": [
				{
					"internalType": "uint256",
					"name": "requestID",
					"type": "uint256"
				}
			],
			"name": "executeGodMint",
			"outputs": [],
			"stateMutability": "nonpayable",
			"type": "function"
		},
		{
			"inputs": [
				{
					"internalType": "uint256",
					"name": "requestID",
					"type": "uint256"
				}
			],
			"name": "executeRankChange",
			"outputs": [],
			"stateMutability": "nonpayable",
			"type": "function"
		},
		{
			"inputs": [
				{
					"internalType": "uint256",
					"name": "requestID",
					"type": "uint256"
				}
			],
			"name": "executeWithdraw20",
			"outputs": [],
			"stateMutability": "nonpayable",
			"type": "function"
		},
		{
			"inputs": [
				{
					"internalType": "uint256",
					"name": "tokenId",
					"type": "uint256"
				}
			],
			"name": "getApproved",
			"outputs": [
				{
					"internalType": "address",
					"name": "",
					"type": "address"
				}
			],
			"stateMutability": "view",
			"type": "function"
		},
		{
			"inputs": [
				{
					"internalType": "uint256",
					"name": "titleID",
					"type": "uint256"
				}
			],
			"name": "getVotingWeight",
			"outputs": [
				{
					"internalType": "uint256",
					"name": "weight",
					"type": "uint256"
				}
			],
			"stateMutability": "view",
			"type": "function"
		},
		{
			"inputs": [
				{
					"internalType": "address",
					"name": "addr",
					"type": "address"
				},
				{
					"internalType": "uint256",
					"name": "titleID",
					"type": "uint256"
				}
			],
			"name": "hasFiduciaryPower",
			"outputs": [
				{
					"internalType": "bool",
					"name": "hasPower",
					"type": "bool"
				}
			],
			"stateMutability": "view",
			"type": "function"
		},
		{
			"inputs": [
				{
					"internalType": "address",
					"name": "owner",
					"type": "address"
				},
				{
					"internalType": "address",
					"name": "operator",
					"type": "address"
				}
			],
			"name": "isApprovedForAll",
			"outputs": [
				{
					"internalType": "bool",
					"name": "",
					"type": "bool"
				}
			],
			"stateMutability": "view",
			"type": "function"
		},
		{
			"inputs": [
				{
					"internalType": "uint8",
					"name": "rank",
					"type": "uint8"
				}
			],
			"name": "mintCost",
			"outputs": [
				{
					"internalType": "uint256",
					"name": "cost",
					"type": "uint256"
				}
			],
			"stateMutability": "view",
			"type": "function"
		},
		{
			"inputs": [
				{
					"internalType": "uint256",
					"name": "_parentID",
					"type": "uint256"
				}
			],
			"name": "mintTitle",
			"outputs": [
				{
					"internalType": "uint256",
					"name": "id",
					"type": "uint256"
				}
			],
			"stateMutability": "nonpayable",
			"type": "function"
		},
		{
			"inputs": [],
			"name": "name",
			"outputs": [
				{
					"internalType": "string",
					"name": "",
					"type": "string"
				}
			],
			"stateMutability": "view",
			"type": "function"
		},
		{
			"inputs": [
				{
					"internalType": "uint256",
					"name": "tokenId",
					"type": "uint256"
				}
			],
			"name": "ownerOf",
			"outputs": [
				{
					"internalType": "address",
					"name": "",
					"type": "address"
				}
			],
			"stateMutability": "view",
			"type": "function"
		},
		{
			"inputs": [
				{
					"internalType": "uint8",
					"name": "amt",
					"type": "uint8"
				},
				{
					"internalType": "address",
					"name": "receiver",
					"type": "address"
				}
			],
			"name": "requestGodMint",
			"outputs": [
				{
					"internalType": "uint256",
					"name": "requestID",
					"type": "uint256"
				}
			],
			"stateMutability": "nonpayable",
			"type": "function"
		},
		{
			"inputs": [
				{
					"internalType": "uint8",
					"name": "rank",
					"type": "uint8"
				},
				{
					"internalType": "uint64",
					"name": "limit",
					"type": "uint64"
				}
			],
			"name": "requestMintLimitChange",
			"outputs": [
				{
					"internalType": "uint256",
					"name": "propositionID",
					"type": "uint256"
				}
			],
			"stateMutability": "nonpayable",
			"type": "function"
		},
		{
			"inputs": [
				{
					"internalType": "uint8",
					"name": "rank",
					"type": "uint8"
				},
				{
					"internalType": "uint64",
					"name": "cost",
					"type": "uint64"
				}
			],
			"name": "requestRankCostChange",
			"outputs": [
				{
					"internalType": "uint256",
					"name": "requestID",
					"type": "uint256"
				}
			],
			"stateMutability": "nonpayable",
			"type": "function"
		},
		{
			"inputs": [
				{
					"internalType": "address",
					"name": "token",
					"type": "address"
				},
				{
					"internalType": "uint256",
					"name": "amt",
					"type": "uint256"
				},
				{
					"internalType": "address",
					"name": "receiver",
					"type": "address"
				}
			],
			"name": "requestWithdraw20",
			"outputs": [
				{
					"internalType": "uint256",
					"name": "propositionID",
					"type": "uint256"
				}
			],
			"stateMutability": "nonpayable",
			"type": "function"
		},
		{
			"inputs": [
				{
					"internalType": "address",
					"name": "from",
					"type": "address"
				},
				{
					"internalType": "address",
					"name": "to",
					"type": "address"
				},
				{
					"internalType": "uint256",
					"name": "tokenId",
					"type": "uint256"
				}
			],
			"name": "safeTransferFrom",
			"outputs": [],
			"stateMutability": "nonpayable",
			"type": "function"
		},
		{
			"inputs": [
				{
					"internalType": "address",
					"name": "from",
					"type": "address"
				},
				{
					"internalType": "address",
					"name": "to",
					"type": "address"
				},
				{
					"internalType": "uint256",
					"name": "tokenId",
					"type": "uint256"
				},
				{
					"internalType": "bytes",
					"name": "_data",
					"type": "bytes"
				}
			],
			"name": "safeTransferFrom",
			"outputs": [],
			"stateMutability": "nonpayable",
			"type": "function"
		},
		{
			"inputs": [
				{
					"internalType": "address",
					"name": "operator",
					"type": "address"
				},
				{
					"internalType": "bool",
					"name": "approved",
					"type": "bool"
				}
			],
			"name": "setApprovalForAll",
			"outputs": [],
			"stateMutability": "nonpayable",
			"type": "function"
		},
		{
			"inputs": [
				{
					"internalType": "bytes4",
					"name": "interfaceId",
					"type": "bytes4"
				}
			],
			"name": "supportsInterface",
			"outputs": [
				{
					"internalType": "bool",
					"name": "",
					"type": "bool"
				}
			],
			"stateMutability": "view",
			"type": "function"
		},
		{
			"inputs": [],
			"name": "symbol",
			"outputs": [
				{
					"internalType": "string",
					"name": "",
					"type": "string"
				}
			],
			"stateMutability": "view",
			"type": "function"
		},
		{
			"inputs": [
				{
					"internalType": "uint256",
					"name": "index",
					"type": "uint256"
				}
			],
			"name": "tokenByIndex",
			"outputs": [
				{
					"internalType": "uint256",
					"name": "",
					"type": "uint256"
				}
			],
			"stateMutability": "view",
			"type": "function"
		},
		{
			"inputs": [
				{
					"internalType": "address",
					"name": "owner",
					"type": "address"
				},
				{
					"internalType": "uint256",
					"name": "index",
					"type": "uint256"
				}
			],
			"name": "tokenOfOwnerByIndex",
			"outputs": [
				{
					"internalType": "uint256",
					"name": "",
					"type": "uint256"
				}
			],
			"stateMutability": "view",
			"type": "function"
		},
		{
			"inputs": [
				{
					"internalType": "uint256",
					"name": "tokenId",
					"type": "uint256"
				}
			],
			"name": "tokenURI",
			"outputs": [
				{
					"internalType": "string",
					"name": "",
					"type": "string"
				}
			],
			"stateMutability": "view",
			"type": "function"
		},
		{
			"inputs": [],
			"name": "totalSupply",
			"outputs": [
				{
					"internalType": "uint256",
					"name": "",
					"type": "uint256"
				}
			],
			"stateMutability": "view",
			"type": "function"
		},
		{
			"inputs": [
				{
					"internalType": "address",
					"name": "from",
					"type": "address"
				},
				{
					"internalType": "address",
					"name": "to",
					"type": "address"
				},
				{
					"internalType": "uint256",
					"name": "tokenId",
					"type": "uint256"
				}
			],
			"name": "transferFrom",
			"outputs": [],
			"stateMutability": "nonpayable",
			"type": "function"
		},
		{
			"inputs": [],
			"name": "withdrawCMD",
			"outputs": [
				{
					"internalType": "uint256",
					"name": "amt",
					"type": "uint256"
				}
			],
			"stateMutability": "nonpayable",
			"type": "function"
		}
	]
}