{
	"data": {
		"bytecode": {
			"linkReferences": {},
			"object": "6080604052600b805461ffff1916905534801561001b57600080fd5b50604051620023823803806200238283398101604081905261003c9161006a565b600080546001600160a01b039092166001600160a01b0319928316179055600180549091163317905561009a565b60006020828403121561007c57600080fd5b81516001600160a01b038116811461009357600080fd5b9392505050565b6122d880620000aa6000396000f3fe608060405234801561001057600080fd5b50600436106100d45760003560e01c80638fc4718f11610081578063c5584d411161005b578063c5584d41146101d5578063dc2c28f0146101e8578063f9000ba8146101fb57600080fd5b80638fc4718f1461018d5780639fe321af146101a0578063bb993bb4146101c057600080fd5b806351da0700116100b257806351da070014610132578063764019e01461014557806385aa033d1461017a57600080fd5b806319e6e158146100d957806340be27651461010c5780634a0e2aa11461011f575b600080fd5b6100f96100e7366004611f31565b60009081526007602052604090205490565b6040519081526020015b60405180910390f35b6100f961011a366004611f0d565b61020e565b6100f961012d366004611eb7565b6102c3565b6100f9610140366004611e05565b610300565b61016a610153366004611f31565b600090815260046020526040902060070154421090565b6040519015158152602001610103565b61016a610188366004611f63565b6104cc565b61016a61019b366004611f31565b610867565b6101b36101ae366004611f8f565b61092c565b6040516101039190612091565b6101d36101ce366004611dea565b61109a565b005b6101d36101e3366004611f31565b611185565b61016a6101f6366004611f31565b611480565b6100f9610209366004612058565b61152c565b60006103e88261ffff161061022257600080fd5b600d80549081906000610234836121cb565b909155506000905061025e33624c4b406102514262015180612124565b61012d42620a8c00612124565b60408051808201825261ffff968716815260208082019384526000868152600c90915291909120905181547fffffffffffffffffffffffffffffffffffffffffffffffffffffffffffff00001696169590951785555160019094019390935592915050565b60006102f7856040518060a00160405280878152602001600081526020016000815260200186815260200185815250610300565b50949350505050565b6000805b600b5461ffff16811015610324578061031c816121cb565b915050610304565b50600280549081906000610337836121cb565b9091555050604080516101208101825282815273ffffffffffffffffffffffffffffffffffffffff808716602080840191825233848601818152895160608088019182528b8501516080808a019182528d8b015160a08b01908152928e015160c08b01908152908e015160e08b0190815260006101008c018181528e82526004998a9052908d90209b518c55985160018c018054918c167fffffffffffffffffffffffff0000000000000000000000000000000000000000928316179055955160028c01805491909b1696169590951790985591516003890155905193870193909355915160058601559251600685015551600784015551600890920180549215157fffffffffffffffffffffffffffffffffffffffffffffffffffffffffffffff00939093169290921790915590517f41e55d258ef3d68defd83d8e9e34d9aaad44c943df27c6fc93d382f8c90c3fb9916104bd918491889192835273ffffffffffffffffffffffffffffffffffffffff918216602084015216604082015260600190565b60405180910390a19392505050565b600082815260046020526040812060078101544211610571576040517f08c379a0000000000000000000000000000000000000000000000000000000008152602060048201526024808201527f50726f706f736974696f6e20766f74696e67206973207374696c6c206f6e676f60448201527f696e672e0000000000000000000000000000000000000000000000000000000060648201526084015b60405180910390fd5b62278d0081600701544261058591906121b4565b10610612576040517f08c379a000000000000000000000000000000000000000000000000000000000815260206004820152603060248201527f457865637574696f6e206f6620657870697265642070726f706f736974696f6e60448201527f206973206e6f7420616c6c6f7765642e000000000000000000000000000000006064820152608401610568565b61061b84611bf6565b6106a7576040517f08c379a000000000000000000000000000000000000000000000000000000000815260206004820152602260248201527f50726f706f736974696f6e20686173206e6f74206265656e20617070726f766560448201527f642e0000000000000000000000000000000000000000000000000000000000006064820152608401610568565b600881015460ff1615610716576040517f08c379a000000000000000000000000000000000000000000000000000000000815260206004820152601d60248201527f50726f706f736974696f6e20616c72656164792065786563757465642e0000006044820152606401610568565b600281015473ffffffffffffffffffffffffffffffffffffffff1633146107e5576040517f08c379a000000000000000000000000000000000000000000000000000000000815260206004820152604260248201527f54686973206973206e6f74207468652064656d6f63726174697a656420636f6e60448201527f7472616374207468617420696e69746961746564207468652070726f706f736160648201527f6c2e000000000000000000000000000000000000000000000000000000000000608482015260a401610568565b6008810180547fffffffffffffffffffffffffffffffffffffffffffffffffffffffffffffff001660011790556040805185815273ffffffffffffffffffffffffffffffffffffffff851660208201527f9dc434e2ccbaa88f9c399d53eeb38db0706adfb1d49bb3152fb14a53b3995eb0910160405180910390a15092915050565b600081815260046020818152604080842081516101208101835281548152600182015473ffffffffffffffffffffffffffffffffffffffff9081169482019490945260028201549093169183019190915260038101546060830152918201546080820152600582015460a0820152600682015460c08201819052600783015460e083015260089092015460ff1615156101008201529042108061090e57508060e001514210155b1561091c5750600092915050565b61092583611bf6565b9392505050565b60606000835167ffffffffffffffff81111561094a5761094a612262565b604051908082528060200260200182016040528015610973578160200160208202803683370190505b50905060005b84518110156102f757600085828151811061099657610996612233565b6020908102919091018101516000898152600a83526040808220838352909352919091205490915060ff1615610a74576040517f08c379a000000000000000000000000000000000000000000000000000000000815260206004820152604160248201527f5468697320766f7465722068617320616c72656164792063617374207468656960448201527f7220766f746520666f722074686520676976656e2070726f706f736974696f6e60648201527f2e00000000000000000000000000000000000000000000000000000000000000608482015260a401610568565b600080546040517f1e7aa37d0000000000000000000000000000000000000000000000000000000081526004810184905273ffffffffffffffffffffffffffffffffffffffff90911690631e7aa37d9060240160206040518083038186803b158015610adf57600080fd5b505afa158015610af3573d6000803e3d6000fd5b505050506040513d601f19601f82011682018060405250810190610b179190611f4a565b905060008111610b83576040517f08c379a000000000000000000000000000000000000000000000000000000000815260206004820181905260248201527f5468697320766f74657220686173206e6f20766f74696e67207765696768742e6044820152606401610568565b6000546040517f500896210000000000000000000000000000000000000000000000000000000081523360048201526024810184905273ffffffffffffffffffffffffffffffffffffffff9091169063500896219060440160206040518083038186803b158015610bf357600080fd5b505afa158015610c07573d6000803e3d6000fd5b505050506040513d601f19601f82011682018060405250810190610c2b9190611ef0565b610cb7576040517f08c379a000000000000000000000000000000000000000000000000000000000815260206004820152603560248201527f5468652073656e64657220646f6573206e6f74206861766520706f776572207460448201527f6f20766f746520756e64657220746869732049442e00000000000000000000006064820152608401610568565b6000888152600a60209081526040808320858452825280832080547fffffffffffffffffffffffffffffffffffffffffffffffffffffffffffffff001660011790558a83526004909152902060068101544210801590610d1a5750806007015442105b610d80576040517f08c379a000000000000000000000000000000000000000000000000000000000815260206004820152601560248201527f496e6163746976652070726f706f736974696f6e2e00000000000000000000006044820152606401610568565b600380549081906000610d92836121cb565b909155505060008a8152600760205260408120805491829190610db4836121cb565b91905055506040518060e001604052808381526020013373ffffffffffffffffffffffffffffffffffffffff1681526020018681526020018c81526020018281526020018a1515815260200185815250600660008481526020019081526020016000206000820151816000015560208201518160010160006101000a81548173ffffffffffffffffffffffffffffffffffffffff021916908373ffffffffffffffffffffffffffffffffffffffff16021790555060408201518160020155606082015181600301556080820151816004015560a08201518160050160006101000a81548160ff02191690831515021790555060c0820151816006015590505060066000838152602001908152602001600020600560008d81526020019081526020016000206000838152602001908152602001600020600082015481600001556001820160009054906101000a900473ffffffffffffffffffffffffffffffffffffffff168160010160006101000a81548173ffffffffffffffffffffffffffffffffffffffff021916908373ffffffffffffffffffffffffffffffffffffffff1602179055506002820154816002015560038201548160030155600482015481600401556005820160009054906101000a900460ff168160050160006101000a81548160ff021916908315150217905550600682015481600601559050508815610fe25760008b81526008602052604081208054869290610fd7908490612124565b909155506110069050565b60008b81526009602052604081208054869290611000908490612124565b90915550505b60408051838152336020820152908101869052606081018c90526080810182905289151560a082015260c081018590527f1b1281172c5f1b23ee6378b9604001823bf5d738b7447da0a8b63d3e04468fe79060e00160405180910390a18187878151811061107657611076612233565b60200260200101818152505050505050508080611092906121cb565b915050610979565b60015473ffffffffffffffffffffffffffffffffffffffff1633146110be57600080fd5b60005473ffffffffffffffffffffffffffffffffffffffff161561113e576040517f08c379a000000000000000000000000000000000000000000000000000000000815260206004820152601c60248201527f52696768747320636f6e747261637420616c7265616479207365742e000000006044820152606401610568565b600080547fffffffffffffffffffffffff00000000000000000000000000000000000000001673ffffffffffffffffffffffffffffffffffffffff92909216919091179055565b600d5481106111f0576040517f08c379a000000000000000000000000000000000000000000000000000000000815260206004820152601060248201527f4e6f207375636820726571756573742e000000000000000000000000000000006044820152606401610568565b6000818152600c6020908152604080832081518083018352815461ffff16815260019091015481840181905284526004909252909120600781015442116112b8576040517f08c379a0000000000000000000000000000000000000000000000000000000008152602060048201526024808201527f50726f706f736974696f6e20766f74696e67206973207374696c6c206f6e676f60448201527f696e672e000000000000000000000000000000000000000000000000000000006064820152608401610568565b6112c58260200151611bf6565b611351576040517f08c379a000000000000000000000000000000000000000000000000000000000815260206004820152602260248201527f50726f706f736974696f6e20686173206e6f74206265656e20617070726f766560448201527f642e0000000000000000000000000000000000000000000000000000000000006064820152608401610568565b600881015460ff16156113c0576040517f08c379a000000000000000000000000000000000000000000000000000000000815260206004820152601d60248201527f50726f706f736974696f6e20616c72656164792065786563757465642e0000006044820152606401610568565b6008810180547fffffffffffffffffffffffffffffffffffffffffffffffffffffffffffffff0016600117905560208201516040517f9dc434e2ccbaa88f9c399d53eeb38db0706adfb1d49bb3152fb14a53b3995eb09161144191339091825273ffffffffffffffffffffffffffffffffffffffff16602082015260400190565b60405180910390a15051600b80547fffffffffffffffffffffffffffffffffffffffffffffffffffffffffffff00001661ffff90921691909117905550565b600081815260046020818152604080842081516101208101835281548152600182015473ffffffffffffffffffffffffffffffffffffffff9081169482019490945260028201549093169183019190915260038101546060830152918201546080820152600582015460a0820152600682015460c08201819052600783015460e083015260089092015460ff161515610100820152904210801590610925575060e00151421092915050565b6000838152600a6020908152604080832085845290915281205460ff16156115fc576040517f08c379a000000000000000000000000000000000000000000000000000000000815260206004820152604160248201527f5468697320766f7465722068617320616c72656164792063617374207468656960448201527f7220766f746520666f722074686520676976656e2070726f706f736974696f6e60648201527f2e00000000000000000000000000000000000000000000000000000000000000608482015260a401610568565b600080546040517f1e7aa37d0000000000000000000000000000000000000000000000000000000081526004810186905273ffffffffffffffffffffffffffffffffffffffff90911690631e7aa37d9060240160206040518083038186803b15801561166757600080fd5b505afa15801561167b573d6000803e3d6000fd5b505050506040513d601f19601f8201168201806040525081019061169f9190611f4a565b90506000811161170b576040517f08c379a000000000000000000000000000000000000000000000000000000000815260206004820181905260248201527f5468697320766f74657220686173206e6f20766f74696e67207765696768742e6044820152606401610568565b6000546040517f500896210000000000000000000000000000000000000000000000000000000081523360048201526024810186905273ffffffffffffffffffffffffffffffffffffffff9091169063500896219060440160206040518083038186803b15801561177b57600080fd5b505afa15801561178f573d6000803e3d6000fd5b505050506040513d601f19601f820116820180604052508101906117b39190611ef0565b61183f576040517f08c379a000000000000000000000000000000000000000000000000000000000815260206004820152603560248201527f5468652073656e64657220646f6573206e6f74206861766520706f776572207460448201527f6f20766f746520756e64657220746869732049442e00000000000000000000006064820152608401610568565b6000858152600a60209081526040808320878452825280832080547fffffffffffffffffffffffffffffffffffffffffffffffffffffffffffffff0016600117905587835260049091529020600681015442108015906118a25750806007015442105b611908576040517f08c379a000000000000000000000000000000000000000000000000000000000815260206004820152601560248201527f496e6163746976652070726f706f736974696f6e2e00000000000000000000006044820152606401610568565b60038054908190600061191a836121cb565b9091555050600087815260076020526040812080549182919061193c836121cb565b91905055506040518060e001604052808381526020013373ffffffffffffffffffffffffffffffffffffffff168152602001888152602001898152602001828152602001871515815260200185815250600660008481526020019081526020016000206000820151816000015560208201518160010160006101000a81548173ffffffffffffffffffffffffffffffffffffffff021916908373ffffffffffffffffffffffffffffffffffffffff16021790555060408201518160020155606082015181600301556080820151816004015560a08201518160050160006101000a81548160ff02191690831515021790555060c0820151816006015590505060066000838152602001908152602001600020600560008a81526020019081526020016000206000838152602001908152602001600020600082015481600001556001820160009054906101000a900473ffffffffffffffffffffffffffffffffffffffff168160010160006101000a81548173ffffffffffffffffffffffffffffffffffffffff021916908373ffffffffffffffffffffffffffffffffffffffff1602179055506002820154816002015560038201548160030155600482015481600401556005820160009054906101000a900460ff168160050160006101000a81548160ff021916908315150217905550600682015481600601559050508515611b6a5760008881526008602052604081208054869290611b5f908490612124565b90915550611b8e9050565b60008881526009602052604081208054869290611b88908490612124565b90915550505b60408051838152336020820152908101889052606081018990526080810182905286151560a082015260c081018590527f1b1281172c5f1b23ee6378b9604001823bf5d738b7447da0a8b63d3e04468fe79060e00160405180910390a1509695505050505050565b600081815260046020818152604080842081516101208101835281548152600182015473ffffffffffffffffffffffffffffffffffffffff908116828601526002830154168184015260038201546060820152938101546080850152600581015460a0850152600681015460c0850152600781015460e085015260089081015460ff161515610100850152858552600983528185205492528320548391611c9c91612124565b60608301516000868152600960209081526040808320546008909252909120549293509091611cce9062989680612177565b611cd8919061213c565b10158015611cea575081608001518110155b8015611dae57508160a0015160008054906101000a900473ffffffffffffffffffffffffffffffffffffffff1673ffffffffffffffffffffffffffffffffffffffff166307a48f8f6040518163ffffffff1660e01b815260040160206040518083038186803b158015611d5c57600080fd5b505afa158015611d70573d6000803e3d6000fd5b505050506040513d601f19601f82011682018060405250810190611d949190611f4a565b611da18362989680612177565b611dab919061213c565b10155b949350505050565b803573ffffffffffffffffffffffffffffffffffffffff81168114611dda57600080fd5b919050565b8035611dda81612291565b600060208284031215611dfc57600080fd5b61092582611db6565b60008082840360c0811215611e1957600080fd5b611e2284611db6565b925060a07fffffffffffffffffffffffffffffffffffffffffffffffffffffffffffffffe082011215611e5457600080fd5b5060405160a0810181811067ffffffffffffffff82111715611e7857611e78612262565b80604052506020840135815260408401356020820152606084013560408201526080840135606082015260a08401356080820152809150509250929050565b60008060008060808587031215611ecd57600080fd5b611ed685611db6565b966020860135965060408601359560600135945092505050565b600060208284031215611f0257600080fd5b815161092581612291565b600060208284031215611f1f57600080fd5b813561ffff8116811461092557600080fd5b600060208284031215611f4357600080fd5b5035919050565b600060208284031215611f5c57600080fd5b5051919050565b60008060408385031215611f7657600080fd5b82359150611f8660208401611db6565b90509250929050565b600080600060608486031215611fa457600080fd5b8335925060208085013567ffffffffffffffff80821115611fc457600080fd5b818701915087601f830112611fd857600080fd5b813581811115611fea57611fea612262565b8060051b9150611ffb8483016120d5565b8181528481019084860184860187018c101561201657600080fd5b600095505b8386101561203957803583526001959095019491860191860161201b565b5080975050505050505061204f60408501611ddf565b90509250925092565b60008060006060848603121561206d57600080fd5b8335925060208401359150604084013561208681612291565b809150509250925092565b6020808252825182820181905260009190848201906040850190845b818110156120c9578351835292840192918401916001016120ad565b50909695505050505050565b604051601f82017fffffffffffffffffffffffffffffffffffffffffffffffffffffffffffffffe016810167ffffffffffffffff8111828210171561211c5761211c612262565b604052919050565b6000821982111561213757612137612204565b500190565b600082612172577f4e487b7100000000000000000000000000000000000000000000000000000000600052601260045260246000fd5b500490565b6000817fffffffffffffffffffffffffffffffffffffffffffffffffffffffffffffffff04831182151516156121af576121af612204565b500290565b6000828210156121c6576121c6612204565b500390565b60007fffffffffffffffffffffffffffffffffffffffffffffffffffffffffffffffff8214156121fd576121fd612204565b5060010190565b7f4e487b7100000000000000000000000000000000000000000000000000000000600052601160045260246000fd5b7f4e487b7100000000000000000000000000000000000000000000000000000000600052603260045260246000fd5b7f4e487b7100000000000000000000000000000000000000000000000000000000600052604160045260246000fd5b801515811461229f57600080fd5b5056fea2646970667358221220a143f690994f506b1c3007b8abe3f5eb00643d16befb3461aeabbd77e57d479464736f6c63430008070033",
			"opcodes": "PUSH1 0x80 PUSH1 0x40 MSTORE PUSH1 0xB DUP1 SLOAD PUSH2 0xFFFF NOT AND SWAP1 SSTORE CALLVALUE DUP1 ISZERO PUSH2 0x1B JUMPI PUSH1 0x0 DUP1 REVERT JUMPDEST POP PUSH1 0x40 MLOAD PUSH3 0x2382 CODESIZE SUB DUP1 PUSH3 0x2382 DUP4 CODECOPY DUP2 ADD PUSH1 0x40 DUP2 SWAP1 MSTORE PUSH2 0x3C SWAP2 PUSH2 0x6A JUMP JUMPDEST PUSH1 0x0 DUP1 SLOAD PUSH1 0x1 PUSH1 0x1 PUSH1 0xA0 SHL SUB SWAP1 SWAP3 AND PUSH1 0x1 PUSH1 0x1 PUSH1 0xA0 SHL SUB NOT SWAP3 DUP4 AND OR SWAP1 SSTORE PUSH1 0x1 DUP1 SLOAD SWAP1 SWAP2 AND CALLER OR SWAP1 SSTORE PUSH2 0x9A JUMP JUMPDEST PUSH1 0x0 PUSH1 0x20 DUP3 DUP5 SUB SLT ISZERO PUSH2 0x7C JUMPI PUSH1 0x0 DUP1 REVERT JUMPDEST DUP2 MLOAD PUSH1 0x1 PUSH1 0x1 PUSH1 0xA0 SHL SUB DUP2 AND DUP2 EQ PUSH2 0x93 JUMPI PUSH1 0x0 DUP1 REVERT JUMPDEST SWAP4 SWAP3 POP POP POP JUMP JUMPDEST PUSH2 0x22D8 DUP1 PUSH3 0xAA PUSH1 0x0 CODECOPY PUSH1 0x0 RETURN INVALID PUSH1 0x80 PUSH1 0x40 MSTORE CALLVALUE DUP1 ISZERO PUSH2 0x10 JUMPI PUSH1 0x0 DUP1 REVERT JUMPDEST POP PUSH1 0x4 CALLDATASIZE LT PUSH2 0xD4 JUMPI PUSH1 0x0 CALLDATALOAD PUSH1 0xE0 SHR DUP1 PUSH4 0x8FC4718F GT PUSH2 0x81 JUMPI DUP1 PUSH4 0xC5584D41 GT PUSH2 0x5B JUMPI DUP1 PUSH4 0xC5584D41 EQ PUSH2 0x1D5 JUMPI DUP1 PUSH4 0xDC2C28F0 EQ PUSH2 0x1E8 JUMPI DUP1 PUSH4 0xF9000BA8 EQ PUSH2 0x1FB JUMPI PUSH1 0x0 DUP1 REVERT JUMPDEST DUP1 PUSH4 0x8FC4718F EQ PUSH2 0x18D JUMPI DUP1 PUSH4 0x9FE321AF EQ PUSH2 0x1A0 JUMPI DUP1 PUSH4 0xBB993BB4 EQ PUSH2 0x1C0 JUMPI PUSH1 0x0 DUP1 REVERT JUMPDEST DUP1 PUSH4 0x51DA0700 GT PUSH2 0xB2 JUMPI DUP1 PUSH4 0x51DA0700 EQ PUSH2 0x132 JUMPI DUP1 PUSH4 0x764019E0 EQ PUSH2 0x145 JUMPI DUP1 PUSH4 0x85AA033D EQ PUSH2 0x17A JUMPI PUSH1 0x0 DUP1 REVERT JUMPDEST DUP1 PUSH4 0x19E6E158 EQ PUSH2 0xD9 JUMPI DUP1 PUSH4 0x40BE2765 EQ PUSH2 0x10C JUMPI DUP1 PUSH4 0x4A0E2AA1 EQ PUSH2 0x11F JUMPI JUMPDEST PUSH1 0x0 DUP1 REVERT JUMPDEST PUSH2 0xF9 PUSH2 0xE7 CALLDATASIZE PUSH1 0x4 PUSH2 0x1F31 JUMP JUMPDEST PUSH1 0x0 SWAP1 DUP2 MSTORE PUSH1 0x7 PUSH1 0x20 MSTORE PUSH1 0x40 SWAP1 KECCAK256 SLOAD SWAP1 JUMP JUMPDEST PUSH1 0x40 MLOAD SWAP1 DUP2 MSTORE PUSH1 0x20 ADD JUMPDEST PUSH1 0x40 MLOAD DUP1 SWAP2 SUB SWAP1 RETURN JUMPDEST PUSH2 0xF9 PUSH2 0x11A CALLDATASIZE PUSH1 0x4 PUSH2 0x1F0D JUMP JUMPDEST PUSH2 0x20E JUMP JUMPDEST PUSH2 0xF9 PUSH2 0x12D CALLDATASIZE PUSH1 0x4 PUSH2 0x1EB7 JUMP JUMPDEST PUSH2 0x2C3 JUMP JUMPDEST PUSH2 0xF9 PUSH2 0x140 CALLDATASIZE PUSH1 0x4 PUSH2 0x1E05 JUMP JUMPDEST PUSH2 0x300 JUMP JUMPDEST PUSH2 0x16A PUSH2 0x153 CALLDATASIZE PUSH1 0x4 PUSH2 0x1F31 JUMP JUMPDEST PUSH1 0x0 SWAP1 DUP2 MSTORE PUSH1 0x4 PUSH1 0x20 MSTORE PUSH1 0x40 SWAP1 KECCAK256 PUSH1 0x7 ADD SLOAD TIMESTAMP LT SWAP1 JUMP JUMPDEST PUSH1 0x40 MLOAD SWAP1 ISZERO ISZERO DUP2 MSTORE PUSH1 0x20 ADD PUSH2 0x103 JUMP JUMPDEST PUSH2 0x16A PUSH2 0x188 CALLDATASIZE PUSH1 0x4 PUSH2 0x1F63 JUMP JUMPDEST PUSH2 0x4CC JUMP JUMPDEST PUSH2 0x16A PUSH2 0x19B CALLDATASIZE PUSH1 0x4 PUSH2 0x1F31 JUMP JUMPDEST PUSH2 0x867 JUMP JUMPDEST PUSH2 0x1B3 PUSH2 0x1AE CALLDATASIZE PUSH1 0x4 PUSH2 0x1F8F JUMP JUMPDEST PUSH2 0x92C JUMP JUMPDEST PUSH1 0x40 MLOAD PUSH2 0x103 SWAP2 SWAP1 PUSH2 0x2091 JUMP JUMPDEST PUSH2 0x1D3 PUSH2 0x1CE CALLDATASIZE PUSH1 0x4 PUSH2 0x1DEA JUMP JUMPDEST PUSH2 0x109A JUMP JUMPDEST STOP JUMPDEST PUSH2 0x1D3 PUSH2 0x1E3 CALLDATASIZE PUSH1 0x4 PUSH2 0x1F31 JUMP JUMPDEST PUSH2 0x1185 JUMP JUMPDEST PUSH2 0x16A PUSH2 0x1F6 CALLDATASIZE PUSH1 0x4 PUSH2 0x1F31 JUMP JUMPDEST PUSH2 0x1480 JUMP JUMPDEST PUSH2 0xF9 PUSH2 0x209 CALLDATASIZE PUSH1 0x4 PUSH2 0x2058 JUMP JUMPDEST PUSH2 0x152C JUMP JUMPDEST PUSH1 0x0 PUSH2 0x3E8 DUP3 PUSH2 0xFFFF AND LT PUSH2 0x222 JUMPI PUSH1 0x0 DUP1 REVERT JUMPDEST PUSH1 0xD DUP1 SLOAD SWAP1 DUP2 SWAP1 PUSH1 0x0 PUSH2 0x234 DUP4 PUSH2 0x21CB JUMP JUMPDEST SWAP1 SWAP2 SSTORE POP PUSH1 0x0 SWAP1 POP PUSH2 0x25E CALLER PUSH3 0x4C4B40 PUSH2 0x251 TIMESTAMP PUSH3 0x15180 PUSH2 0x2124 JUMP JUMPDEST PUSH2 0x12D TIMESTAMP PUSH3 0xA8C00 PUSH2 0x2124 JUMP JUMPDEST PUSH1 0x40 DUP1 MLOAD DUP1 DUP3 ADD DUP3 MSTORE PUSH2 0xFFFF SWAP7 DUP8 AND DUP2 MSTORE PUSH1 0x20 DUP1 DUP3 ADD SWAP4 DUP5 MSTORE PUSH1 0x0 DUP7 DUP2 MSTORE PUSH1 0xC SWAP1 SWAP2 MSTORE SWAP2 SWAP1 SWAP2 KECCAK256 SWAP1 MLOAD DUP2 SLOAD PUSH32 0xFFFFFFFFFFFFFFFFFFFFFFFFFFFFFFFFFFFFFFFFFFFFFFFFFFFFFFFFFFFF0000 AND SWAP7 AND SWAP6 SWAP1 SWAP6 OR DUP6 SSTORE MLOAD PUSH1 0x1 SWAP1 SWAP5 ADD SWAP4 SWAP1 SWAP4 SSTORE SWAP3 SWAP2 POP POP JUMP JUMPDEST PUSH1 0x0 PUSH2 0x2F7 DUP6 PUSH1 0x40 MLOAD DUP1 PUSH1 0xA0 ADD PUSH1 0x40 MSTORE DUP1 DUP8 DUP2 MSTORE PUSH1 0x20 ADD PUSH1 0x0 DUP2 MSTORE PUSH1 0x20 ADD PUSH1 0x0 DUP2 MSTORE PUSH1 0x20 ADD DUP7 DUP2 MSTORE PUSH1 0x20 ADD DUP6 DUP2 MSTORE POP PUSH2 0x300 JUMP JUMPDEST POP SWAP5 SWAP4 POP POP POP POP JUMP JUMPDEST PUSH1 0x0 DUP1 JUMPDEST PUSH1 0xB SLOAD PUSH2 0xFFFF AND DUP2 LT ISZERO PUSH2 0x324 JUMPI DUP1 PUSH2 0x31C DUP2 PUSH2 0x21CB JUMP JUMPDEST SWAP2 POP POP PUSH2 0x304 JUMP JUMPDEST POP PUSH1 0x2 DUP1 SLOAD SWAP1 DUP2 SWAP1 PUSH1 0x0 PUSH2 0x337 DUP4 PUSH2 0x21CB JUMP JUMPDEST SWAP1 SWAP2 SSTORE POP POP PUSH1 0x40 DUP1 MLOAD PUSH2 0x120 DUP2 ADD DUP3 MSTORE DUP3 DUP2 MSTORE PUSH20 0xFFFFFFFFFFFFFFFFFFFFFFFFFFFFFFFFFFFFFFFF DUP1 DUP8 AND PUSH1 0x20 DUP1 DUP5 ADD SWAP2 DUP3 MSTORE CALLER DUP5 DUP7 ADD DUP2 DUP2 MSTORE DUP10 MLOAD PUSH1 0x60 DUP1 DUP9 ADD SWAP2 DUP3 MSTORE DUP12 DUP6 ADD MLOAD PUSH1 0x80 DUP1 DUP11 ADD SWAP2 DUP3 MSTORE DUP14 DUP12 ADD MLOAD PUSH1 0xA0 DUP12 ADD SWAP1 DUP2 MSTORE SWAP3 DUP15 ADD MLOAD PUSH1 0xC0 DUP12 ADD SWAP1 DUP2 MSTORE SWAP1 DUP15 ADD MLOAD PUSH1 0xE0 DUP12 ADD SWAP1 DUP2 MSTORE PUSH1 0x0 PUSH2 0x100 DUP13 ADD DUP2 DUP2 MSTORE DUP15 DUP3 MSTORE PUSH1 0x4 SWAP10 DUP11 SWAP1 MSTORE SWAP1 DUP14 SWAP1 KECCAK256 SWAP12 MLOAD DUP13 SSTORE SWAP9 MLOAD PUSH1 0x1 DUP13 ADD DUP1 SLOAD SWAP2 DUP13 AND PUSH32 0xFFFFFFFFFFFFFFFFFFFFFFFF0000000000000000000000000000000000000000 SWAP3 DUP4 AND OR SWAP1 SSTORE SWAP6 MLOAD PUSH1 0x2 DUP13 ADD DUP1 SLOAD SWAP2 SWAP1 SWAP12 AND SWAP7 AND SWAP6 SWAP1 SWAP6 OR SWAP1 SWAP9 SSTORE SWAP2 MLOAD PUSH1 0x3 DUP10 ADD SSTORE SWAP1 MLOAD SWAP4 DUP8 ADD SWAP4 SWAP1 SWAP4 SSTORE SWAP2 MLOAD PUSH1 0x5 DUP7 ADD SSTORE SWAP3 MLOAD PUSH1 0x6 DUP6 ADD SSTORE MLOAD PUSH1 0x7 DUP5 ADD SSTORE MLOAD PUSH1 0x8 SWAP1 SWAP3 ADD DUP1 SLOAD SWAP3 ISZERO ISZERO PUSH32 0xFFFFFFFFFFFFFFFFFFFFFFFFFFFFFFFFFFFFFFFFFFFFFFFFFFFFFFFFFFFFFF00 SWAP4 SWAP1 SWAP4 AND SWAP3 SWAP1 SWAP3 OR SWAP1 SWAP2 SSTORE SWAP1 MLOAD PUSH32 0x41E55D258EF3D68DEFD83D8E9E34D9AAAD44C943DF27C6FC93D382F8C90C3FB9 SWAP2 PUSH2 0x4BD SWAP2 DUP5 SWAP2 DUP9 SWAP2 SWAP3 DUP4 MSTORE PUSH20 0xFFFFFFFFFFFFFFFFFFFFFFFFFFFFFFFFFFFFFFFF SWAP2 DUP3 AND PUSH1 0x20 DUP5 ADD MSTORE AND PUSH1 0x40 DUP3 ADD MSTORE PUSH1 0x60 ADD SWAP1 JUMP JUMPDEST PUSH1 0x40 MLOAD DUP1 SWAP2 SUB SWAP1 LOG1 SWAP4 SWAP3 POP POP POP JUMP JUMPDEST PUSH1 0x0 DUP3 DUP2 MSTORE PUSH1 0x4 PUSH1 0x20 MSTORE PUSH1 0x40 DUP2 KECCAK256 PUSH1 0x7 DUP2 ADD SLOAD TIMESTAMP GT PUSH2 0x571 JUMPI PUSH1 0x40 MLOAD PUSH32 0x8C379A000000000000000000000000000000000000000000000000000000000 DUP2 MSTORE PUSH1 0x20 PUSH1 0x4 DUP3 ADD MSTORE PUSH1 0x24 DUP1 DUP3 ADD MSTORE PUSH32 0x50726F706F736974696F6E20766F74696E67206973207374696C6C206F6E676F PUSH1 0x44 DUP3 ADD MSTORE PUSH32 0x696E672E00000000000000000000000000000000000000000000000000000000 PUSH1 0x64 DUP3 ADD MSTORE PUSH1 0x84 ADD JUMPDEST PUSH1 0x40 MLOAD DUP1 SWAP2 SUB SWAP1 REVERT JUMPDEST PUSH3 0x278D00 DUP2 PUSH1 0x7 ADD SLOAD TIMESTAMP PUSH2 0x585 SWAP2 SWAP1 PUSH2 0x21B4 JUMP JUMPDEST LT PUSH2 0x612 JUMPI PUSH1 0x40 MLOAD PUSH32 0x8C379A000000000000000000000000000000000000000000000000000000000 DUP2 MSTORE PUSH1 0x20 PUSH1 0x4 DUP3 ADD MSTORE PUSH1 0x30 PUSH1 0x24 DUP3 ADD MSTORE PUSH32 0x457865637574696F6E206F6620657870697265642070726F706F736974696F6E PUSH1 0x44 DUP3 ADD MSTORE PUSH32 0x206973206E6F7420616C6C6F7765642E00000000000000000000000000000000 PUSH1 0x64 DUP3 ADD MSTORE PUSH1 0x84 ADD PUSH2 0x568 JUMP JUMPDEST PUSH2 0x61B DUP5 PUSH2 0x1BF6 JUMP JUMPDEST PUSH2 0x6A7 JUMPI PUSH1 0x40 MLOAD PUSH32 0x8C379A000000000000000000000000000000000000000000000000000000000 DUP2 MSTORE PUSH1 0x20 PUSH1 0x4 DUP3 ADD MSTORE PUSH1 0x22 PUSH1 0x24 DUP3 ADD MSTORE PUSH32 0x50726F706F736974696F6E20686173206E6F74206265656E20617070726F7665 PUSH1 0x44 DUP3 ADD MSTORE PUSH32 0x642E000000000000000000000000000000000000000000000000000000000000 PUSH1 0x64 DUP3 ADD MSTORE PUSH1 0x84 ADD PUSH2 0x568 JUMP JUMPDEST PUSH1 0x8 DUP2 ADD SLOAD PUSH1 0xFF AND ISZERO PUSH2 0x716 JUMPI PUSH1 0x40 MLOAD PUSH32 0x8C379A000000000000000000000000000000000000000000000000000000000 DUP2 MSTORE PUSH1 0x20 PUSH1 0x4 DUP3 ADD MSTORE PUSH1 0x1D PUSH1 0x24 DUP3 ADD MSTORE PUSH32 0x50726F706F736974696F6E20616C72656164792065786563757465642E000000 PUSH1 0x44 DUP3 ADD MSTORE PUSH1 0x64 ADD PUSH2 0x568 JUMP JUMPDEST PUSH1 0x2 DUP2 ADD SLOAD PUSH20 0xFFFFFFFFFFFFFFFFFFFFFFFFFFFFFFFFFFFFFFFF AND CALLER EQ PUSH2 0x7E5 JUMPI PUSH1 0x40 MLOAD PUSH32 0x8C379A000000000000000000000000000000000000000000000000000000000 DUP2 MSTORE PUSH1 0x20 PUSH1 0x4 DUP3 ADD MSTORE PUSH1 0x42 PUSH1 0x24 DUP3 ADD MSTORE PUSH32 0x54686973206973206E6F74207468652064656D6F63726174697A656420636F6E PUSH1 0x44 DUP3 ADD MSTORE PUSH32 0x7472616374207468617420696E69746961746564207468652070726F706F7361 PUSH1 0x64 DUP3 ADD MSTORE PUSH32 0x6C2E000000000000000000000000000000000000000000000000000000000000 PUSH1 0x84 DUP3 ADD MSTORE PUSH1 0xA4 ADD PUSH2 0x568 JUMP JUMPDEST PUSH1 0x8 DUP2 ADD DUP1 SLOAD PUSH32 0xFFFFFFFFFFFFFFFFFFFFFFFFFFFFFFFFFFFFFFFFFFFFFFFFFFFFFFFFFFFFFF00 AND PUSH1 0x1 OR SWAP1 SSTORE PUSH1 0x40 DUP1 MLOAD DUP6 DUP2 MSTORE PUSH20 0xFFFFFFFFFFFFFFFFFFFFFFFFFFFFFFFFFFFFFFFF DUP6 AND PUSH1 0x20 DUP3 ADD MSTORE PUSH32 0x9DC434E2CCBAA88F9C399D53EEB38DB0706ADFB1D49BB3152FB14A53B3995EB0 SWAP2 ADD PUSH1 0x40 MLOAD DUP1 SWAP2 SUB SWAP1 LOG1 POP SWAP3 SWAP2 POP POP JUMP JUMPDEST PUSH1 0x0 DUP2 DUP2 MSTORE PUSH1 0x4 PUSH1 0x20 DUP2 DUP2 MSTORE PUSH1 0x40 DUP1 DUP5 KECCAK256 DUP2 MLOAD PUSH2 0x120 DUP2 ADD DUP4 MSTORE DUP2 SLOAD DUP2 MSTORE PUSH1 0x1 DUP3 ADD SLOAD PUSH20 0xFFFFFFFFFFFFFFFFFFFFFFFFFFFFFFFFFFFFFFFF SWAP1 DUP2 AND SWAP5 DUP3 ADD SWAP5 SWAP1 SWAP5 MSTORE PUSH1 0x2 DUP3 ADD SLOAD SWAP1 SWAP4 AND SWAP2 DUP4 ADD SWAP2 SWAP1 SWAP2 MSTORE PUSH1 0x3 DUP2 ADD SLOAD PUSH1 0x60 DUP4 ADD MSTORE SWAP2 DUP3 ADD SLOAD PUSH1 0x80 DUP3 ADD MSTORE PUSH1 0x5 DUP3 ADD SLOAD PUSH1 0xA0 DUP3 ADD MSTORE PUSH1 0x6 DUP3 ADD SLOAD PUSH1 0xC0 DUP3 ADD DUP2 SWAP1 MSTORE PUSH1 0x7 DUP4 ADD SLOAD PUSH1 0xE0 DUP4 ADD MSTORE PUSH1 0x8 SWAP1 SWAP3 ADD SLOAD PUSH1 0xFF AND ISZERO ISZERO PUSH2 0x100 DUP3 ADD MSTORE SWAP1 TIMESTAMP LT DUP1 PUSH2 0x90E JUMPI POP DUP1 PUSH1 0xE0 ADD MLOAD TIMESTAMP LT ISZERO JUMPDEST ISZERO PUSH2 0x91C JUMPI POP PUSH1 0x0 SWAP3 SWAP2 POP POP JUMP JUMPDEST PUSH2 0x925 DUP4 PUSH2 0x1BF6 JUMP JUMPDEST SWAP4 SWAP3 POP POP POP JUMP JUMPDEST PUSH1 0x60 PUSH1 0x0 DUP4 MLOAD PUSH8 0xFFFFFFFFFFFFFFFF DUP2 GT ISZERO PUSH2 0x94A JUMPI PUSH2 0x94A PUSH2 0x2262 JUMP JUMPDEST PUSH1 0x40 MLOAD SWAP1 DUP1 DUP3 MSTORE DUP1 PUSH1 0x20 MUL PUSH1 0x20 ADD DUP3 ADD PUSH1 0x40 MSTORE DUP1 ISZERO PUSH2 0x973 JUMPI DUP2 PUSH1 0x20 ADD PUSH1 0x20 DUP3 MUL DUP1 CALLDATASIZE DUP4 CALLDATACOPY ADD SWAP1 POP JUMPDEST POP SWAP1 POP PUSH1 0x0 JUMPDEST DUP5 MLOAD DUP2 LT ISZERO PUSH2 0x2F7 JUMPI PUSH1 0x0 DUP6 DUP3 DUP2 MLOAD DUP2 LT PUSH2 0x996 JUMPI PUSH2 0x996 PUSH2 0x2233 JUMP JUMPDEST PUSH1 0x20 SWAP1 DUP2 MUL SWAP2 SWAP1 SWAP2 ADD DUP2 ADD MLOAD PUSH1 0x0 DUP10 DUP2 MSTORE PUSH1 0xA DUP4 MSTORE PUSH1 0x40 DUP1 DUP3 KECCAK256 DUP4 DUP4 MSTORE SWAP1 SWAP4 MSTORE SWAP2 SWAP1 SWAP2 KECCAK256 SLOAD SWAP1 SWAP2 POP PUSH1 0xFF AND ISZERO PUSH2 0xA74 JUMPI PUSH1 0x40 MLOAD PUSH32 0x8C379A000000000000000000000000000000000000000000000000000000000 DUP2 MSTORE PUSH1 0x20 PUSH1 0x4 DUP3 ADD MSTORE PUSH1 0x41 PUSH1 0x24 DUP3 ADD MSTORE PUSH32 0x5468697320766F7465722068617320616C726561647920636173742074686569 PUSH1 0x44 DUP3 ADD MSTORE PUSH32 0x7220766F746520666F722074686520676976656E2070726F706F736974696F6E PUSH1 0x64 DUP3 ADD MSTORE PUSH32 0x2E00000000000000000000000000000000000000000000000000000000000000 PUSH1 0x84 DUP3 ADD MSTORE PUSH1 0xA4 ADD PUSH2 0x568 JUMP JUMPDEST PUSH1 0x0 DUP1 SLOAD PUSH1 0x40 MLOAD PUSH32 0x1E7AA37D00000000000000000000000000000000000000000000000000000000 DUP2 MSTORE PUSH1 0x4 DUP2 ADD DUP5 SWAP1 MSTORE PUSH20 0xFFFFFFFFFFFFFFFFFFFFFFFFFFFFFFFFFFFFFFFF SWAP1 SWAP2 AND SWAP1 PUSH4 0x1E7AA37D SWAP1 PUSH1 0x24 ADD PUSH1 0x20 PUSH1 0x40 MLOAD DUP1 DUP4 SUB DUP2 DUP7 DUP1 EXTCODESIZE ISZERO DUP1 ISZERO PUSH2 0xADF JUMPI PUSH1 0x0 DUP1 REVERT JUMPDEST POP GAS STATICCALL ISZERO DUP1 ISZERO PUSH2 0xAF3 JUMPI RETURNDATASIZE PUSH1 0x0 DUP1 RETURNDATACOPY RETURNDATASIZE PUSH1 0x0 REVERT JUMPDEST POP POP POP POP PUSH1 0x40 MLOAD RETURNDATASIZE PUSH1 0x1F NOT PUSH1 0x1F DUP3 ADD AND DUP3 ADD DUP1 PUSH1 0x40 MSTORE POP DUP2 ADD SWAP1 PUSH2 0xB17 SWAP2 SWAP1 PUSH2 0x1F4A JUMP JUMPDEST SWAP1 POP PUSH1 0x0 DUP2 GT PUSH2 0xB83 JUMPI PUSH1 0x40 MLOAD PUSH32 0x8C379A000000000000000000000000000000000000000000000000000000000 DUP2 MSTORE PUSH1 0x20 PUSH1 0x4 DUP3 ADD DUP2 SWAP1 MSTORE PUSH1 0x24 DUP3 ADD MSTORE PUSH32 0x5468697320766F74657220686173206E6F20766F74696E67207765696768742E PUSH1 0x44 DUP3 ADD MSTORE PUSH1 0x64 ADD PUSH2 0x568 JUMP JUMPDEST PUSH1 0x0 SLOAD PUSH1 0x40 MLOAD PUSH32 0x5008962100000000000000000000000000000000000000000000000000000000 DUP2 MSTORE CALLER PUSH1 0x4 DUP3 ADD MSTORE PUSH1 0x24 DUP2 ADD DUP5 SWAP1 MSTORE PUSH20 0xFFFFFFFFFFFFFFFFFFFFFFFFFFFFFFFFFFFFFFFF SWAP1 SWAP2 AND SWAP1 PUSH4 0x50089621 SWAP1 PUSH1 0x44 ADD PUSH1 0x20 PUSH1 0x40 MLOAD DUP1 DUP4 SUB DUP2 DUP7 DUP1 EXTCODESIZE ISZERO DUP1 ISZERO PUSH2 0xBF3 JUMPI PUSH1 0x0 DUP1 REVERT JUMPDEST POP GAS STATICCALL ISZERO DUP1 ISZERO PUSH2 0xC07 JUMPI RETURNDATASIZE PUSH1 0x0 DUP1 RETURNDATACOPY RETURNDATASIZE PUSH1 0x0 REVERT JUMPDEST POP POP POP POP PUSH1 0x40 MLOAD RETURNDATASIZE PUSH1 0x1F NOT PUSH1 0x1F DUP3 ADD AND DUP3 ADD DUP1 PUSH1 0x40 MSTORE POP DUP2 ADD SWAP1 PUSH2 0xC2B SWAP2 SWAP1 PUSH2 0x1EF0 JUMP JUMPDEST PUSH2 0xCB7 JUMPI PUSH1 0x40 MLOAD PUSH32 0x8C379A000000000000000000000000000000000000000000000000000000000 DUP2 MSTORE PUSH1 0x20 PUSH1 0x4 DUP3 ADD MSTORE PUSH1 0x35 PUSH1 0x24 DUP3 ADD MSTORE PUSH32 0x5468652073656E64657220646F6573206E6F74206861766520706F7765722074 PUSH1 0x44 DUP3 ADD MSTORE PUSH32 0x6F20766F746520756E64657220746869732049442E0000000000000000000000 PUSH1 0x64 DUP3 ADD MSTORE PUSH1 0x84 ADD PUSH2 0x568 JUMP JUMPDEST PUSH1 0x0 DUP9 DUP2 MSTORE PUSH1 0xA PUSH1 0x20 SWAP1 DUP2 MSTORE PUSH1 0x40 DUP1 DUP4 KECCAK256 DUP6 DUP5 MSTORE DUP3 MSTORE DUP1 DUP4 KECCAK256 DUP1 SLOAD PUSH32 0xFFFFFFFFFFFFFFFFFFFFFFFFFFFFFFFFFFFFFFFFFFFFFFFFFFFFFFFFFFFFFF00 AND PUSH1 0x1 OR SWAP1 SSTORE DUP11 DUP4 MSTORE PUSH1 0x4 SWAP1 SWAP2 MSTORE SWAP1 KECCAK256 PUSH1 0x6 DUP2 ADD SLOAD TIMESTAMP LT DUP1 ISZERO SWAP1 PUSH2 0xD1A JUMPI POP DUP1 PUSH1 0x7 ADD SLOAD TIMESTAMP LT JUMPDEST PUSH2 0xD80 JUMPI PUSH1 0x40 MLOAD PUSH32 0x8C379A000000000000000000000000000000000000000000000000000000000 DUP2 MSTORE PUSH1 0x20 PUSH1 0x4 DUP3 ADD MSTORE PUSH1 0x15 PUSH1 0x24 DUP3 ADD MSTORE PUSH32 0x496E6163746976652070726F706F736974696F6E2E0000000000000000000000 PUSH1 0x44 DUP3 ADD MSTORE PUSH1 0x64 ADD PUSH2 0x568 JUMP JUMPDEST PUSH1 0x3 DUP1 SLOAD SWAP1 DUP2 SWAP1 PUSH1 0x0 PUSH2 0xD92 DUP4 PUSH2 0x21CB JUMP JUMPDEST SWAP1 SWAP2 SSTORE POP POP PUSH1 0x0 DUP11 DUP2 MSTORE PUSH1 0x7 PUSH1 0x20 MSTORE PUSH1 0x40 DUP2 KECCAK256 DUP1 SLOAD SWAP2 DUP3 SWAP2 SWAP1 PUSH2 0xDB4 DUP4 PUSH2 0x21CB JUMP JUMPDEST SWAP2 SWAP1 POP SSTORE POP PUSH1 0x40 MLOAD DUP1 PUSH1 0xE0 ADD PUSH1 0x40 MSTORE DUP1 DUP4 DUP2 MSTORE PUSH1 0x20 ADD CALLER PUSH20 0xFFFFFFFFFFFFFFFFFFFFFFFFFFFFFFFFFFFFFFFF AND DUP2 MSTORE PUSH1 0x20 ADD DUP7 DUP2 MSTORE PUSH1 0x20 ADD DUP13 DUP2 MSTORE PUSH1 0x20 ADD DUP3 DUP2 MSTORE PUSH1 0x20 ADD DUP11 ISZERO ISZERO DUP2 MSTORE PUSH1 0x20 ADD DUP6 DUP2 MSTORE POP PUSH1 0x6 PUSH1 0x0 DUP5 DUP2 MSTORE PUSH1 0x20 ADD SWAP1 DUP2 MSTORE PUSH1 0x20 ADD PUSH1 0x0 KECCAK256 PUSH1 0x0 DUP3 ADD MLOAD DUP2 PUSH1 0x0 ADD SSTORE PUSH1 0x20 DUP3 ADD MLOAD DUP2 PUSH1 0x1 ADD PUSH1 0x0 PUSH2 0x100 EXP DUP2 SLOAD DUP2 PUSH20 0xFFFFFFFFFFFFFFFFFFFFFFFFFFFFFFFFFFFFFFFF MUL NOT AND SWAP1 DUP4 PUSH20 0xFFFFFFFFFFFFFFFFFFFFFFFFFFFFFFFFFFFFFFFF AND MUL OR SWAP1 SSTORE POP PUSH1 0x40 DUP3 ADD MLOAD DUP2 PUSH1 0x2 ADD SSTORE PUSH1 0x60 DUP3 ADD MLOAD DUP2 PUSH1 0x3 ADD SSTORE PUSH1 0x80 DUP3 ADD MLOAD DUP2 PUSH1 0x4 ADD SSTORE PUSH1 0xA0 DUP3 ADD MLOAD DUP2 PUSH1 0x5 ADD PUSH1 0x0 PUSH2 0x100 EXP DUP2 SLOAD DUP2 PUSH1 0xFF MUL NOT AND SWAP1 DUP4 ISZERO ISZERO MUL OR SWAP1 SSTORE POP PUSH1 0xC0 DUP3 ADD MLOAD DUP2 PUSH1 0x6 ADD SSTORE SWAP1 POP POP PUSH1 0x6 PUSH1 0x0 DUP4 DUP2 MSTORE PUSH1 0x20 ADD SWAP1 DUP2 MSTORE PUSH1 0x20 ADD PUSH1 0x0 KECCAK256 PUSH1 0x5 PUSH1 0x0 DUP14 DUP2 MSTORE PUSH1 0x20 ADD SWAP1 DUP2 MSTORE PUSH1 0x20 ADD PUSH1 0x0 KECCAK256 PUSH1 0x0 DUP4 DUP2 MSTORE PUSH1 0x20 ADD SWAP1 DUP2 MSTORE PUSH1 0x20 ADD PUSH1 0x0 KECCAK256 PUSH1 0x0 DUP3 ADD SLOAD DUP2 PUSH1 0x0 ADD SSTORE PUSH1 0x1 DUP3 ADD PUSH1 0x0 SWAP1 SLOAD SWAP1 PUSH2 0x100 EXP SWAP1 DIV PUSH20 0xFFFFFFFFFFFFFFFFFFFFFFFFFFFFFFFFFFFFFFFF AND DUP2 PUSH1 0x1 ADD PUSH1 0x0 PUSH2 0x100 EXP DUP2 SLOAD DUP2 PUSH20 0xFFFFFFFFFFFFFFFFFFFFFFFFFFFFFFFFFFFFFFFF MUL NOT AND SWAP1 DUP4 PUSH20 0xFFFFFFFFFFFFFFFFFFFFFFFFFFFFFFFFFFFFFFFF AND MUL OR SWAP1 SSTORE POP PUSH1 0x2 DUP3 ADD SLOAD DUP2 PUSH1 0x2 ADD SSTORE PUSH1 0x3 DUP3 ADD SLOAD DUP2 PUSH1 0x3 ADD SSTORE PUSH1 0x4 DUP3 ADD SLOAD DUP2 PUSH1 0x4 ADD SSTORE PUSH1 0x5 DUP3 ADD PUSH1 0x0 SWAP1 SLOAD SWAP1 PUSH2 0x100 EXP SWAP1 DIV PUSH1 0xFF AND DUP2 PUSH1 0x5 ADD PUSH1 0x0 PUSH2 0x100 EXP DUP2 SLOAD DUP2 PUSH1 0xFF MUL NOT AND SWAP1 DUP4 ISZERO ISZERO MUL OR SWAP1 SSTORE POP PUSH1 0x6 DUP3 ADD SLOAD DUP2 PUSH1 0x6 ADD SSTORE SWAP1 POP POP DUP9 ISZERO PUSH2 0xFE2 JUMPI PUSH1 0x0 DUP12 DUP2 MSTORE PUSH1 0x8 PUSH1 0x20 MSTORE PUSH1 0x40 DUP2 KECCAK256 DUP1 SLOAD DUP7 SWAP3 SWAP1 PUSH2 0xFD7 SWAP1 DUP5 SWAP1 PUSH2 0x2124 JUMP JUMPDEST SWAP1 SWAP2 SSTORE POP PUSH2 0x1006 SWAP1 POP JUMP JUMPDEST PUSH1 0x0 DUP12 DUP2 MSTORE PUSH1 0x9 PUSH1 0x20 MSTORE PUSH1 0x40 DUP2 KECCAK256 DUP1 SLOAD DUP7 SWAP3 SWAP1 PUSH2 0x1000 SWAP1 DUP5 SWAP1 PUSH2 0x2124 JUMP JUMPDEST SWAP1 SWAP2 SSTORE POP POP JUMPDEST PUSH1 0x40 DUP1 MLOAD DUP4 DUP2 MSTORE CALLER PUSH1 0x20 DUP3 ADD MSTORE SWAP1 DUP2 ADD DUP7 SWAP1 MSTORE PUSH1 0x60 DUP2 ADD DUP13 SWAP1 MSTORE PUSH1 0x80 DUP2 ADD DUP3 SWAP1 MSTORE DUP10 ISZERO ISZERO PUSH1 0xA0 DUP3 ADD MSTORE PUSH1 0xC0 DUP2 ADD DUP6 SWAP1 MSTORE PUSH32 0x1B1281172C5F1B23EE6378B9604001823BF5D738B7447DA0A8B63D3E04468FE7 SWAP1 PUSH1 0xE0 ADD PUSH1 0x40 MLOAD DUP1 SWAP2 SUB SWAP1 LOG1 DUP2 DUP8 DUP8 DUP2 MLOAD DUP2 LT PUSH2 0x1076 JUMPI PUSH2 0x1076 PUSH2 0x2233 JUMP JUMPDEST PUSH1 0x20 MUL PUSH1 0x20 ADD ADD DUP2 DUP2 MSTORE POP POP POP POP POP POP POP DUP1 DUP1 PUSH2 0x1092 SWAP1 PUSH2 0x21CB JUMP JUMPDEST SWAP2 POP POP PUSH2 0x979 JUMP JUMPDEST PUSH1 0x1 SLOAD PUSH20 0xFFFFFFFFFFFFFFFFFFFFFFFFFFFFFFFFFFFFFFFF AND CALLER EQ PUSH2 0x10BE JUMPI PUSH1 0x0 DUP1 REVERT JUMPDEST PUSH1 0x0 SLOAD PUSH20 0xFFFFFFFFFFFFFFFFFFFFFFFFFFFFFFFFFFFFFFFF AND ISZERO PUSH2 0x113E JUMPI PUSH1 0x40 MLOAD PUSH32 0x8C379A000000000000000000000000000000000000000000000000000000000 DUP2 MSTORE PUSH1 0x20 PUSH1 0x4 DUP3 ADD MSTORE PUSH1 0x1C PUSH1 0x24 DUP3 ADD MSTORE PUSH32 0x52696768747320636F6E747261637420616C7265616479207365742E00000000 PUSH1 0x44 DUP3 ADD MSTORE PUSH1 0x64 ADD PUSH2 0x568 JUMP JUMPDEST PUSH1 0x0 DUP1 SLOAD PUSH32 0xFFFFFFFFFFFFFFFFFFFFFFFF0000000000000000000000000000000000000000 AND PUSH20 0xFFFFFFFFFFFFFFFFFFFFFFFFFFFFFFFFFFFFFFFF SWAP3 SWAP1 SWAP3 AND SWAP2 SWAP1 SWAP2 OR SWAP1 SSTORE JUMP JUMPDEST PUSH1 0xD SLOAD DUP2 LT PUSH2 0x11F0 JUMPI PUSH1 0x40 MLOAD PUSH32 0x8C379A000000000000000000000000000000000000000000000000000000000 DUP2 MSTORE PUSH1 0x20 PUSH1 0x4 DUP3 ADD MSTORE PUSH1 0x10 PUSH1 0x24 DUP3 ADD MSTORE PUSH32 0x4E6F207375636820726571756573742E00000000000000000000000000000000 PUSH1 0x44 DUP3 ADD MSTORE PUSH1 0x64 ADD PUSH2 0x568 JUMP JUMPDEST PUSH1 0x0 DUP2 DUP2 MSTORE PUSH1 0xC PUSH1 0x20 SWAP1 DUP2 MSTORE PUSH1 0x40 DUP1 DUP4 KECCAK256 DUP2 MLOAD DUP1 DUP4 ADD DUP4 MSTORE DUP2 SLOAD PUSH2 0xFFFF AND DUP2 MSTORE PUSH1 0x1 SWAP1 SWAP2 ADD SLOAD DUP2 DUP5 ADD DUP2 SWAP1 MSTORE DUP5 MSTORE PUSH1 0x4 SWAP1 SWAP3 MSTORE SWAP1 SWAP2 KECCAK256 PUSH1 0x7 DUP2 ADD SLOAD TIMESTAMP GT PUSH2 0x12B8 JUMPI PUSH1 0x40 MLOAD PUSH32 0x8C379A000000000000000000000000000000000000000000000000000000000 DUP2 MSTORE PUSH1 0x20 PUSH1 0x4 DUP3 ADD MSTORE PUSH1 0x24 DUP1 DUP3 ADD MSTORE PUSH32 0x50726F706F736974696F6E20766F74696E67206973207374696C6C206F6E676F PUSH1 0x44 DUP3 ADD MSTORE PUSH32 0x696E672E00000000000000000000000000000000000000000000000000000000 PUSH1 0x64 DUP3 ADD MSTORE PUSH1 0x84 ADD PUSH2 0x568 JUMP JUMPDEST PUSH2 0x12C5 DUP3 PUSH1 0x20 ADD MLOAD PUSH2 0x1BF6 JUMP JUMPDEST PUSH2 0x1351 JUMPI PUSH1 0x40 MLOAD PUSH32 0x8C379A000000000000000000000000000000000000000000000000000000000 DUP2 MSTORE PUSH1 0x20 PUSH1 0x4 DUP3 ADD MSTORE PUSH1 0x22 PUSH1 0x24 DUP3 ADD MSTORE PUSH32 0x50726F706F736974696F6E20686173206E6F74206265656E20617070726F7665 PUSH1 0x44 DUP3 ADD MSTORE PUSH32 0x642E000000000000000000000000000000000000000000000000000000000000 PUSH1 0x64 DUP3 ADD MSTORE PUSH1 0x84 ADD PUSH2 0x568 JUMP JUMPDEST PUSH1 0x8 DUP2 ADD SLOAD PUSH1 0xFF AND ISZERO PUSH2 0x13C0 JUMPI PUSH1 0x40 MLOAD PUSH32 0x8C379A000000000000000000000000000000000000000000000000000000000 DUP2 MSTORE PUSH1 0x20 PUSH1 0x4 DUP3 ADD MSTORE PUSH1 0x1D PUSH1 0x24 DUP3 ADD MSTORE PUSH32 0x50726F706F736974696F6E20616C72656164792065786563757465642E000000 PUSH1 0x44 DUP3 ADD MSTORE PUSH1 0x64 ADD PUSH2 0x568 JUMP JUMPDEST PUSH1 0x8 DUP2 ADD DUP1 SLOAD PUSH32 0xFFFFFFFFFFFFFFFFFFFFFFFFFFFFFFFFFFFFFFFFFFFFFFFFFFFFFFFFFFFFFF00 AND PUSH1 0x1 OR SWAP1 SSTORE PUSH1 0x20 DUP3 ADD MLOAD PUSH1 0x40 MLOAD PUSH32 0x9DC434E2CCBAA88F9C399D53EEB38DB0706ADFB1D49BB3152FB14A53B3995EB0 SWAP2 PUSH2 0x1441 SWAP2 CALLER SWAP1 SWAP2 DUP3 MSTORE PUSH20 0xFFFFFFFFFFFFFFFFFFFFFFFFFFFFFFFFFFFFFFFF AND PUSH1 0x20 DUP3 ADD MSTORE PUSH1 0x40 ADD SWAP1 JUMP JUMPDEST PUSH1 0x40 MLOAD DUP1 SWAP2 SUB SWAP1 LOG1 POP MLOAD PUSH1 0xB DUP1 SLOAD PUSH32 0xFFFFFFFFFFFFFFFFFFFFFFFFFFFFFFFFFFFFFFFFFFFFFFFFFFFFFFFFFFFF0000 AND PUSH2 0xFFFF SWAP1 SWAP3 AND SWAP2 SWAP1 SWAP2 OR SWAP1 SSTORE POP JUMP JUMPDEST PUSH1 0x0 DUP2 DUP2 MSTORE PUSH1 0x4 PUSH1 0x20 DUP2 DUP2 MSTORE PUSH1 0x40 DUP1 DUP5 KECCAK256 DUP2 MLOAD PUSH2 0x120 DUP2 ADD DUP4 MSTORE DUP2 SLOAD DUP2 MSTORE PUSH1 0x1 DUP3 ADD SLOAD PUSH20 0xFFFFFFFFFFFFFFFFFFFFFFFFFFFFFFFFFFFFFFFF SWAP1 DUP2 AND SWAP5 DUP3 ADD SWAP5 SWAP1 SWAP5 MSTORE PUSH1 0x2 DUP3 ADD SLOAD SWAP1 SWAP4 AND SWAP2 DUP4 ADD SWAP2 SWAP1 SWAP2 MSTORE PUSH1 0x3 DUP2 ADD SLOAD PUSH1 0x60 DUP4 ADD MSTORE SWAP2 DUP3 ADD SLOAD PUSH1 0x80 DUP3 ADD MSTORE PUSH1 0x5 DUP3 ADD SLOAD PUSH1 0xA0 DUP3 ADD MSTORE PUSH1 0x6 DUP3 ADD SLOAD PUSH1 0xC0 DUP3 ADD DUP2 SWAP1 MSTORE PUSH1 0x7 DUP4 ADD SLOAD PUSH1 0xE0 DUP4 ADD MSTORE PUSH1 0x8 SWAP1 SWAP3 ADD SLOAD PUSH1 0xFF AND ISZERO ISZERO PUSH2 0x100 DUP3 ADD MSTORE SWAP1 TIMESTAMP LT DUP1 ISZERO SWAP1 PUSH2 0x925 JUMPI POP PUSH1 0xE0 ADD MLOAD TIMESTAMP LT SWAP3 SWAP2 POP POP JUMP JUMPDEST PUSH1 0x0 DUP4 DUP2 MSTORE PUSH1 0xA PUSH1 0x20 SWAP1 DUP2 MSTORE PUSH1 0x40 DUP1 DUP4 KECCAK256 DUP6 DUP5 MSTORE SWAP1 SWAP2 MSTORE DUP2 KECCAK256 SLOAD PUSH1 0xFF AND ISZERO PUSH2 0x15FC JUMPI PUSH1 0x40 MLOAD PUSH32 0x8C379A000000000000000000000000000000000000000000000000000000000 DUP2 MSTORE PUSH1 0x20 PUSH1 0x4 DUP3 ADD MSTORE PUSH1 0x41 PUSH1 0x24 DUP3 ADD MSTORE PUSH32 0x5468697320766F7465722068617320616C726561647920636173742074686569 PUSH1 0x44 DUP3 ADD MSTORE PUSH32 0x7220766F746520666F722074686520676976656E2070726F706F736974696F6E PUSH1 0x64 DUP3 ADD MSTORE PUSH32 0x2E00000000000000000000000000000000000000000000000000000000000000 PUSH1 0x84 DUP3 ADD MSTORE PUSH1 0xA4 ADD PUSH2 0x568 JUMP JUMPDEST PUSH1 0x0 DUP1 SLOAD PUSH1 0x40 MLOAD PUSH32 0x1E7AA37D00000000000000000000000000000000000000000000000000000000 DUP2 MSTORE PUSH1 0x4 DUP2 ADD DUP7 SWAP1 MSTORE PUSH20 0xFFFFFFFFFFFFFFFFFFFFFFFFFFFFFFFFFFFFFFFF SWAP1 SWAP2 AND SWAP1 PUSH4 0x1E7AA37D SWAP1 PUSH1 0x24 ADD PUSH1 0x20 PUSH1 0x40 MLOAD DUP1 DUP4 SUB DUP2 DUP7 DUP1 EXTCODESIZE ISZERO DUP1 ISZERO PUSH2 0x1667 JUMPI PUSH1 0x0 DUP1 REVERT JUMPDEST POP GAS STATICCALL ISZERO DUP1 ISZERO PUSH2 0x167B JUMPI RETURNDATASIZE PUSH1 0x0 DUP1 RETURNDATACOPY RETURNDATASIZE PUSH1 0x0 REVERT JUMPDEST POP POP POP POP PUSH1 0x40 MLOAD RETURNDATASIZE PUSH1 0x1F NOT PUSH1 0x1F DUP3 ADD AND DUP3 ADD DUP1 PUSH1 0x40 MSTORE POP DUP2 ADD SWAP1 PUSH2 0x169F SWAP2 SWAP1 PUSH2 0x1F4A JUMP JUMPDEST SWAP1 POP PUSH1 0x0 DUP2 GT PUSH2 0x170B JUMPI PUSH1 0x40 MLOAD PUSH32 0x8C379A000000000000000000000000000000000000000000000000000000000 DUP2 MSTORE PUSH1 0x20 PUSH1 0x4 DUP3 ADD DUP2 SWAP1 MSTORE PUSH1 0x24 DUP3 ADD MSTORE PUSH32 0x5468697320766F74657220686173206E6F20766F74696E67207765696768742E PUSH1 0x44 DUP3 ADD MSTORE PUSH1 0x64 ADD PUSH2 0x568 JUMP JUMPDEST PUSH1 0x0 SLOAD PUSH1 0x40 MLOAD PUSH32 0x5008962100000000000000000000000000000000000000000000000000000000 DUP2 MSTORE CALLER PUSH1 0x4 DUP3 ADD MSTORE PUSH1 0x24 DUP2 ADD DUP7 SWAP1 MSTORE PUSH20 0xFFFFFFFFFFFFFFFFFFFFFFFFFFFFFFFFFFFFFFFF SWAP1 SWAP2 AND SWAP1 PUSH4 0x50089621 SWAP1 PUSH1 0x44 ADD PUSH1 0x20 PUSH1 0x40 MLOAD DUP1 DUP4 SUB DUP2 DUP7 DUP1 EXTCODESIZE ISZERO DUP1 ISZERO PUSH2 0x177B JUMPI PUSH1 0x0 DUP1 REVERT JUMPDEST POP GAS STATICCALL ISZERO DUP1 ISZERO PUSH2 0x178F JUMPI RETURNDATASIZE PUSH1 0x0 DUP1 RETURNDATACOPY RETURNDATASIZE PUSH1 0x0 REVERT JUMPDEST POP POP POP POP PUSH1 0x40 MLOAD RETURNDATASIZE PUSH1 0x1F NOT PUSH1 0x1F DUP3 ADD AND DUP3 ADD DUP1 PUSH1 0x40 MSTORE POP DUP2 ADD SWAP1 PUSH2 0x17B3 SWAP2 SWAP1 PUSH2 0x1EF0 JUMP JUMPDEST PUSH2 0x183F JUMPI PUSH1 0x40 MLOAD PUSH32 0x8C379A000000000000000000000000000000000000000000000000000000000 DUP2 MSTORE PUSH1 0x20 PUSH1 0x4 DUP3 ADD MSTORE PUSH1 0x35 PUSH1 0x24 DUP3 ADD MSTORE PUSH32 0x5468652073656E64657220646F6573206E6F74206861766520706F7765722074 PUSH1 0x44 DUP3 ADD MSTORE PUSH32 0x6F20766F746520756E64657220746869732049442E0000000000000000000000 PUSH1 0x64 DUP3 ADD MSTORE PUSH1 0x84 ADD PUSH2 0x568 JUMP JUMPDEST PUSH1 0x0 DUP6 DUP2 MSTORE PUSH1 0xA PUSH1 0x20 SWAP1 DUP2 MSTORE PUSH1 0x40 DUP1 DUP4 KECCAK256 DUP8 DUP5 MSTORE DUP3 MSTORE DUP1 DUP4 KECCAK256 DUP1 SLOAD PUSH32 0xFFFFFFFFFFFFFFFFFFFFFFFFFFFFFFFFFFFFFFFFFFFFFFFFFFFFFFFFFFFFFF00 AND PUSH1 0x1 OR SWAP1 SSTORE DUP8 DUP4 MSTORE PUSH1 0x4 SWAP1 SWAP2 MSTORE SWAP1 KECCAK256 PUSH1 0x6 DUP2 ADD SLOAD TIMESTAMP LT DUP1 ISZERO SWAP1 PUSH2 0x18A2 JUMPI POP DUP1 PUSH1 0x7 ADD SLOAD TIMESTAMP LT JUMPDEST PUSH2 0x1908 JUMPI PUSH1 0x40 MLOAD PUSH32 0x8C379A000000000000000000000000000000000000000000000000000000000 DUP2 MSTORE PUSH1 0x20 PUSH1 0x4 DUP3 ADD MSTORE PUSH1 0x15 PUSH1 0x24 DUP3 ADD MSTORE PUSH32 0x496E6163746976652070726F706F736974696F6E2E0000000000000000000000 PUSH1 0x44 DUP3 ADD MSTORE PUSH1 0x64 ADD PUSH2 0x568 JUMP JUMPDEST PUSH1 0x3 DUP1 SLOAD SWAP1 DUP2 SWAP1 PUSH1 0x0 PUSH2 0x191A DUP4 PUSH2 0x21CB JUMP JUMPDEST SWAP1 SWAP2 SSTORE POP POP PUSH1 0x0 DUP8 DUP2 MSTORE PUSH1 0x7 PUSH1 0x20 MSTORE PUSH1 0x40 DUP2 KECCAK256 DUP1 SLOAD SWAP2 DUP3 SWAP2 SWAP1 PUSH2 0x193C DUP4 PUSH2 0x21CB JUMP JUMPDEST SWAP2 SWAP1 POP SSTORE POP PUSH1 0x40 MLOAD DUP1 PUSH1 0xE0 ADD PUSH1 0x40 MSTORE DUP1 DUP4 DUP2 MSTORE PUSH1 0x20 ADD CALLER PUSH20 0xFFFFFFFFFFFFFFFFFFFFFFFFFFFFFFFFFFFFFFFF AND DUP2 MSTORE PUSH1 0x20 ADD DUP9 DUP2 MSTORE PUSH1 0x20 ADD DUP10 DUP2 MSTORE PUSH1 0x20 ADD DUP3 DUP2 MSTORE PUSH1 0x20 ADD DUP8 ISZERO ISZERO DUP2 MSTORE PUSH1 0x20 ADD DUP6 DUP2 MSTORE POP PUSH1 0x6 PUSH1 0x0 DUP5 DUP2 MSTORE PUSH1 0x20 ADD SWAP1 DUP2 MSTORE PUSH1 0x20 ADD PUSH1 0x0 KECCAK256 PUSH1 0x0 DUP3 ADD MLOAD DUP2 PUSH1 0x0 ADD SSTORE PUSH1 0x20 DUP3 ADD MLOAD DUP2 PUSH1 0x1 ADD PUSH1 0x0 PUSH2 0x100 EXP DUP2 SLOAD DUP2 PUSH20 0xFFFFFFFFFFFFFFFFFFFFFFFFFFFFFFFFFFFFFFFF MUL NOT AND SWAP1 DUP4 PUSH20 0xFFFFFFFFFFFFFFFFFFFFFFFFFFFFFFFFFFFFFFFF AND MUL OR SWAP1 SSTORE POP PUSH1 0x40 DUP3 ADD MLOAD DUP2 PUSH1 0x2 ADD SSTORE PUSH1 0x60 DUP3 ADD MLOAD DUP2 PUSH1 0x3 ADD SSTORE PUSH1 0x80 DUP3 ADD MLOAD DUP2 PUSH1 0x4 ADD SSTORE PUSH1 0xA0 DUP3 ADD MLOAD DUP2 PUSH1 0x5 ADD PUSH1 0x0 PUSH2 0x100 EXP DUP2 SLOAD DUP2 PUSH1 0xFF MUL NOT AND SWAP1 DUP4 ISZERO ISZERO MUL OR SWAP1 SSTORE POP PUSH1 0xC0 DUP3 ADD MLOAD DUP2 PUSH1 0x6 ADD SSTORE SWAP1 POP POP PUSH1 0x6 PUSH1 0x0 DUP4 DUP2 MSTORE PUSH1 0x20 ADD SWAP1 DUP2 MSTORE PUSH1 0x20 ADD PUSH1 0x0 KECCAK256 PUSH1 0x5 PUSH1 0x0 DUP11 DUP2 MSTORE PUSH1 0x20 ADD SWAP1 DUP2 MSTORE PUSH1 0x20 ADD PUSH1 0x0 KECCAK256 PUSH1 0x0 DUP4 DUP2 MSTORE PUSH1 0x20 ADD SWAP1 DUP2 MSTORE PUSH1 0x20 ADD PUSH1 0x0 KECCAK256 PUSH1 0x0 DUP3 ADD SLOAD DUP2 PUSH1 0x0 ADD SSTORE PUSH1 0x1 DUP3 ADD PUSH1 0x0 SWAP1 SLOAD SWAP1 PUSH2 0x100 EXP SWAP1 DIV PUSH20 0xFFFFFFFFFFFFFFFFFFFFFFFFFFFFFFFFFFFFFFFF AND DUP2 PUSH1 0x1 ADD PUSH1 0x0 PUSH2 0x100 EXP DUP2 SLOAD DUP2 PUSH20 0xFFFFFFFFFFFFFFFFFFFFFFFFFFFFFFFFFFFFFFFF MUL NOT AND SWAP1 DUP4 PUSH20 0xFFFFFFFFFFFFFFFFFFFFFFFFFFFFFFFFFFFFFFFF AND MUL OR SWAP1 SSTORE POP PUSH1 0x2 DUP3 ADD SLOAD DUP2 PUSH1 0x2 ADD SSTORE PUSH1 0x3 DUP3 ADD SLOAD DUP2 PUSH1 0x3 ADD SSTORE PUSH1 0x4 DUP3 ADD SLOAD DUP2 PUSH1 0x4 ADD SSTORE PUSH1 0x5 DUP3 ADD PUSH1 0x0 SWAP1 SLOAD SWAP1 PUSH2 0x100 EXP SWAP1 DIV PUSH1 0xFF AND DUP2 PUSH1 0x5 ADD PUSH1 0x0 PUSH2 0x100 EXP DUP2 SLOAD DUP2 PUSH1 0xFF MUL NOT AND SWAP1 DUP4 ISZERO ISZERO MUL OR SWAP1 SSTORE POP PUSH1 0x6 DUP3 ADD SLOAD DUP2 PUSH1 0x6 ADD SSTORE SWAP1 POP POP DUP6 ISZERO PUSH2 0x1B6A JUMPI PUSH1 0x0 DUP9 DUP2 MSTORE PUSH1 0x8 PUSH1 0x20 MSTORE PUSH1 0x40 DUP2 KECCAK256 DUP1 SLOAD DUP7 SWAP3 SWAP1 PUSH2 0x1B5F SWAP1 DUP5 SWAP1 PUSH2 0x2124 JUMP JUMPDEST SWAP1 SWAP2 SSTORE POP PUSH2 0x1B8E SWAP1 POP JUMP JUMPDEST PUSH1 0x0 DUP9 DUP2 MSTORE PUSH1 0x9 PUSH1 0x20 MSTORE PUSH1 0x40 DUP2 KECCAK256 DUP1 SLOAD DUP7 SWAP3 SWAP1 PUSH2 0x1B88 SWAP1 DUP5 SWAP1 PUSH2 0x2124 JUMP JUMPDEST SWAP1 SWAP2 SSTORE POP POP JUMPDEST PUSH1 0x40 DUP1 MLOAD DUP4 DUP2 MSTORE CALLER PUSH1 0x20 DUP3 ADD MSTORE SWAP1 DUP2 ADD DUP9 SWAP1 MSTORE PUSH1 0x60 DUP2 ADD DUP10 SWAP1 MSTORE PUSH1 0x80 DUP2 ADD DUP3 SWAP1 MSTORE DUP7 ISZERO ISZERO PUSH1 0xA0 DUP3 ADD MSTORE PUSH1 0xC0 DUP2 ADD DUP6 SWAP1 MSTORE PUSH32 0x1B1281172C5F1B23EE6378B9604001823BF5D738B7447DA0A8B63D3E04468FE7 SWAP1 PUSH1 0xE0 ADD PUSH1 0x40 MLOAD DUP1 SWAP2 SUB SWAP1 LOG1 POP SWAP7 SWAP6 POP POP POP POP POP POP JUMP JUMPDEST PUSH1 0x0 DUP2 DUP2 MSTORE PUSH1 0x4 PUSH1 0x20 DUP2 DUP2 MSTORE PUSH1 0x40 DUP1 DUP5 KECCAK256 DUP2 MLOAD PUSH2 0x120 DUP2 ADD DUP4 MSTORE DUP2 SLOAD DUP2 MSTORE PUSH1 0x1 DUP3 ADD SLOAD PUSH20 0xFFFFFFFFFFFFFFFFFFFFFFFFFFFFFFFFFFFFFFFF SWAP1 DUP2 AND DUP3 DUP7 ADD MSTORE PUSH1 0x2 DUP4 ADD SLOAD AND DUP2 DUP5 ADD MSTORE PUSH1 0x3 DUP3 ADD SLOAD PUSH1 0x60 DUP3 ADD MSTORE SWAP4 DUP2 ADD SLOAD PUSH1 0x80 DUP6 ADD MSTORE PUSH1 0x5 DUP2 ADD SLOAD PUSH1 0xA0 DUP6 ADD MSTORE PUSH1 0x6 DUP2 ADD SLOAD PUSH1 0xC0 DUP6 ADD MSTORE PUSH1 0x7 DUP2 ADD SLOAD PUSH1 0xE0 DUP6 ADD MSTORE PUSH1 0x8 SWAP1 DUP2 ADD SLOAD PUSH1 0xFF AND ISZERO ISZERO PUSH2 0x100 DUP6 ADD MSTORE DUP6 DUP6 MSTORE PUSH1 0x9 DUP4 MSTORE DUP2 DUP6 KECCAK256 SLOAD SWAP3 MSTORE DUP4 KECCAK256 SLOAD DUP4 SWAP2 PUSH2 0x1C9C SWAP2 PUSH2 0x2124 JUMP JUMPDEST PUSH1 0x60 DUP4 ADD MLOAD PUSH1 0x0 DUP7 DUP2 MSTORE PUSH1 0x9 PUSH1 0x20 SWAP1 DUP2 MSTORE PUSH1 0x40 DUP1 DUP4 KECCAK256 SLOAD PUSH1 0x8 SWAP1 SWAP3 MSTORE SWAP1 SWAP2 KECCAK256 SLOAD SWAP3 SWAP4 POP SWAP1 SWAP2 PUSH2 0x1CCE SWAP1 PUSH3 0x989680 PUSH2 0x2177 JUMP JUMPDEST PUSH2 0x1CD8 SWAP2 SWAP1 PUSH2 0x213C JUMP JUMPDEST LT ISZERO DUP1 ISZERO PUSH2 0x1CEA JUMPI POP DUP2 PUSH1 0x80 ADD MLOAD DUP2 LT ISZERO JUMPDEST DUP1 ISZERO PUSH2 0x1DAE JUMPI POP DUP2 PUSH1 0xA0 ADD MLOAD PUSH1 0x0 DUP1 SLOAD SWAP1 PUSH2 0x100 EXP SWAP1 DIV PUSH20 0xFFFFFFFFFFFFFFFFFFFFFFFFFFFFFFFFFFFFFFFF AND PUSH20 0xFFFFFFFFFFFFFFFFFFFFFFFFFFFFFFFFFFFFFFFF AND PUSH4 0x7A48F8F PUSH1 0x40 MLOAD DUP2 PUSH4 0xFFFFFFFF AND PUSH1 0xE0 SHL DUP2 MSTORE PUSH1 0x4 ADD PUSH1 0x20 PUSH1 0x40 MLOAD DUP1 DUP4 SUB DUP2 DUP7 DUP1 EXTCODESIZE ISZERO DUP1 ISZERO PUSH2 0x1D5C JUMPI PUSH1 0x0 DUP1 REVERT JUMPDEST POP GAS STATICCALL ISZERO DUP1 ISZERO PUSH2 0x1D70 JUMPI RETURNDATASIZE PUSH1 0x0 DUP1 RETURNDATACOPY RETURNDATASIZE PUSH1 0x0 REVERT JUMPDEST POP POP POP POP PUSH1 0x40 MLOAD RETURNDATASIZE PUSH1 0x1F NOT PUSH1 0x1F DUP3 ADD AND DUP3 ADD DUP1 PUSH1 0x40 MSTORE POP DUP2 ADD SWAP1 PUSH2 0x1D94 SWAP2 SWAP1 PUSH2 0x1F4A JUMP JUMPDEST PUSH2 0x1DA1 DUP4 PUSH3 0x989680 PUSH2 0x2177 JUMP JUMPDEST PUSH2 0x1DAB SWAP2 SWAP1 PUSH2 0x213C JUMP JUMPDEST LT ISZERO JUMPDEST SWAP5 SWAP4 POP POP POP POP JUMP JUMPDEST DUP1 CALLDATALOAD PUSH20 0xFFFFFFFFFFFFFFFFFFFFFFFFFFFFFFFFFFFFFFFF DUP2 AND DUP2 EQ PUSH2 0x1DDA JUMPI PUSH1 0x0 DUP1 REVERT JUMPDEST SWAP2 SWAP1 POP JUMP JUMPDEST DUP1 CALLDATALOAD PUSH2 0x1DDA DUP2 PUSH2 0x2291 JUMP JUMPDEST PUSH1 0x0 PUSH1 0x20 DUP3 DUP5 SUB SLT ISZERO PUSH2 0x1DFC JUMPI PUSH1 0x0 DUP1 REVERT JUMPDEST PUSH2 0x925 DUP3 PUSH2 0x1DB6 JUMP JUMPDEST PUSH1 0x0 DUP1 DUP3 DUP5 SUB PUSH1 0xC0 DUP2 SLT ISZERO PUSH2 0x1E19 JUMPI PUSH1 0x0 DUP1 REVERT JUMPDEST PUSH2 0x1E22 DUP5 PUSH2 0x1DB6 JUMP JUMPDEST SWAP3 POP PUSH1 0xA0 PUSH32 0xFFFFFFFFFFFFFFFFFFFFFFFFFFFFFFFFFFFFFFFFFFFFFFFFFFFFFFFFFFFFFFE0 DUP3 ADD SLT ISZERO PUSH2 0x1E54 JUMPI PUSH1 0x0 DUP1 REVERT JUMPDEST POP PUSH1 0x40 MLOAD PUSH1 0xA0 DUP2 ADD DUP2 DUP2 LT PUSH8 0xFFFFFFFFFFFFFFFF DUP3 GT OR ISZERO PUSH2 0x1E78 JUMPI PUSH2 0x1E78 PUSH2 0x2262 JUMP JUMPDEST DUP1 PUSH1 0x40 MSTORE POP PUSH1 0x20 DUP5 ADD CALLDATALOAD DUP2 MSTORE PUSH1 0x40 DUP5 ADD CALLDATALOAD PUSH1 0x20 DUP3 ADD MSTORE PUSH1 0x60 DUP5 ADD CALLDATALOAD PUSH1 0x40 DUP3 ADD MSTORE PUSH1 0x80 DUP5 ADD CALLDATALOAD PUSH1 0x60 DUP3 ADD MSTORE PUSH1 0xA0 DUP5 ADD CALLDATALOAD PUSH1 0x80 DUP3 ADD MSTORE DUP1 SWAP2 POP POP SWAP3 POP SWAP3 SWAP1 POP JUMP JUMPDEST PUSH1 0x0 DUP1 PUSH1 0x0 DUP1 PUSH1 0x80 DUP6 DUP8 SUB SLT ISZERO PUSH2 0x1ECD JUMPI PUSH1 0x0 DUP1 REVERT JUMPDEST PUSH2 0x1ED6 DUP6 PUSH2 0x1DB6 JUMP JUMPDEST SWAP7 PUSH1 0x20 DUP7 ADD CALLDATALOAD SWAP7 POP PUSH1 0x40 DUP7 ADD CALLDATALOAD SWAP6 PUSH1 0x60 ADD CALLDATALOAD SWAP5 POP SWAP3 POP POP POP JUMP JUMPDEST PUSH1 0x0 PUSH1 0x20 DUP3 DUP5 SUB SLT ISZERO PUSH2 0x1F02 JUMPI PUSH1 0x0 DUP1 REVERT JUMPDEST DUP2 MLOAD PUSH2 0x925 DUP2 PUSH2 0x2291 JUMP JUMPDEST PUSH1 0x0 PUSH1 0x20 DUP3 DUP5 SUB SLT ISZERO PUSH2 0x1F1F JUMPI PUSH1 0x0 DUP1 REVERT JUMPDEST DUP2 CALLDATALOAD PUSH2 0xFFFF DUP2 AND DUP2 EQ PUSH2 0x925 JUMPI PUSH1 0x0 DUP1 REVERT JUMPDEST PUSH1 0x0 PUSH1 0x20 DUP3 DUP5 SUB SLT ISZERO PUSH2 0x1F43 JUMPI PUSH1 0x0 DUP1 REVERT JUMPDEST POP CALLDATALOAD SWAP2 SWAP1 POP JUMP JUMPDEST PUSH1 0x0 PUSH1 0x20 DUP3 DUP5 SUB SLT ISZERO PUSH2 0x1F5C JUMPI PUSH1 0x0 DUP1 REVERT JUMPDEST POP MLOAD SWAP2 SWAP1 POP JUMP JUMPDEST PUSH1 0x0 DUP1 PUSH1 0x40 DUP4 DUP6 SUB SLT ISZERO PUSH2 0x1F76 JUMPI PUSH1 0x0 DUP1 REVERT JUMPDEST DUP3 CALLDATALOAD SWAP2 POP PUSH2 0x1F86 PUSH1 0x20 DUP5 ADD PUSH2 0x1DB6 JUMP JUMPDEST SWAP1 POP SWAP3 POP SWAP3 SWAP1 POP JUMP JUMPDEST PUSH1 0x0 DUP1 PUSH1 0x0 PUSH1 0x60 DUP5 DUP7 SUB SLT ISZERO PUSH2 0x1FA4 JUMPI PUSH1 0x0 DUP1 REVERT JUMPDEST DUP4 CALLDATALOAD SWAP3 POP PUSH1 0x20 DUP1 DUP6 ADD CALLDATALOAD PUSH8 0xFFFFFFFFFFFFFFFF DUP1 DUP3 GT ISZERO PUSH2 0x1FC4 JUMPI PUSH1 0x0 DUP1 REVERT JUMPDEST DUP2 DUP8 ADD SWAP2 POP DUP8 PUSH1 0x1F DUP4 ADD SLT PUSH2 0x1FD8 JUMPI PUSH1 0x0 DUP1 REVERT JUMPDEST DUP2 CALLDATALOAD DUP2 DUP2 GT ISZERO PUSH2 0x1FEA JUMPI PUSH2 0x1FEA PUSH2 0x2262 JUMP JUMPDEST DUP1 PUSH1 0x5 SHL SWAP2 POP PUSH2 0x1FFB DUP5 DUP4 ADD PUSH2 0x20D5 JUMP JUMPDEST DUP2 DUP2 MSTORE DUP5 DUP2 ADD SWAP1 DUP5 DUP7 ADD DUP5 DUP7 ADD DUP8 ADD DUP13 LT ISZERO PUSH2 0x2016 JUMPI PUSH1 0x0 DUP1 REVERT JUMPDEST PUSH1 0x0 SWAP6 POP JUMPDEST DUP4 DUP7 LT ISZERO PUSH2 0x2039 JUMPI DUP1 CALLDATALOAD DUP4 MSTORE PUSH1 0x1 SWAP6 SWAP1 SWAP6 ADD SWAP5 SWAP2 DUP7 ADD SWAP2 DUP7 ADD PUSH2 0x201B JUMP JUMPDEST POP DUP1 SWAP8 POP POP POP POP POP POP POP PUSH2 0x204F PUSH1 0x40 DUP6 ADD PUSH2 0x1DDF JUMP JUMPDEST SWAP1 POP SWAP3 POP SWAP3 POP SWAP3 JUMP JUMPDEST PUSH1 0x0 DUP1 PUSH1 0x0 PUSH1 0x60 DUP5 DUP7 SUB SLT ISZERO PUSH2 0x206D JUMPI PUSH1 0x0 DUP1 REVERT JUMPDEST DUP4 CALLDATALOAD SWAP3 POP PUSH1 0x20 DUP5 ADD CALLDATALOAD SWAP2 POP PUSH1 0x40 DUP5 ADD CALLDATALOAD PUSH2 0x2086 DUP2 PUSH2 0x2291 JUMP JUMPDEST DUP1 SWAP2 POP POP SWAP3 POP SWAP3 POP SWAP3 JUMP JUMPDEST PUSH1 0x20 DUP1 DUP3 MSTORE DUP3 MLOAD DUP3 DUP3 ADD DUP2 SWAP1 MSTORE PUSH1 0x0 SWAP2 SWAP1 DUP5 DUP3 ADD SWAP1 PUSH1 0x40 DUP6 ADD SWAP1 DUP5 JUMPDEST DUP2 DUP2 LT ISZERO PUSH2 0x20C9 JUMPI DUP4 MLOAD DUP4 MSTORE SWAP3 DUP5 ADD SWAP3 SWAP2 DUP5 ADD SWAP2 PUSH1 0x1 ADD PUSH2 0x20AD JUMP JUMPDEST POP SWAP1 SWAP7 SWAP6 POP POP POP POP POP POP JUMP JUMPDEST PUSH1 0x40 MLOAD PUSH1 0x1F DUP3 ADD PUSH32 0xFFFFFFFFFFFFFFFFFFFFFFFFFFFFFFFFFFFFFFFFFFFFFFFFFFFFFFFFFFFFFFE0 AND DUP2 ADD PUSH8 0xFFFFFFFFFFFFFFFF DUP2 GT DUP3 DUP3 LT OR ISZERO PUSH2 0x211C JUMPI PUSH2 0x211C PUSH2 0x2262 JUMP JUMPDEST PUSH1 0x40 MSTORE SWAP2 SWAP1 POP JUMP JUMPDEST PUSH1 0x0 DUP3 NOT DUP3 GT ISZERO PUSH2 0x2137 JUMPI PUSH2 0x2137 PUSH2 0x2204 JUMP JUMPDEST POP ADD SWAP1 JUMP JUMPDEST PUSH1 0x0 DUP3 PUSH2 0x2172 JUMPI PUSH32 0x4E487B7100000000000000000000000000000000000000000000000000000000 PUSH1 0x0 MSTORE PUSH1 0x12 PUSH1 0x4 MSTORE PUSH1 0x24 PUSH1 0x0 REVERT JUMPDEST POP DIV SWAP1 JUMP JUMPDEST PUSH1 0x0 DUP2 PUSH32 0xFFFFFFFFFFFFFFFFFFFFFFFFFFFFFFFFFFFFFFFFFFFFFFFFFFFFFFFFFFFFFFFF DIV DUP4 GT DUP3 ISZERO ISZERO AND ISZERO PUSH2 0x21AF JUMPI PUSH2 0x21AF PUSH2 0x2204 JUMP JUMPDEST POP MUL SWAP1 JUMP JUMPDEST PUSH1 0x0 DUP3 DUP3 LT ISZERO PUSH2 0x21C6 JUMPI PUSH2 0x21C6 PUSH2 0x2204 JUMP JUMPDEST POP SUB SWAP1 JUMP JUMPDEST PUSH1 0x0 PUSH32 0xFFFFFFFFFFFFFFFFFFFFFFFFFFFFFFFFFFFFFFFFFFFFFFFFFFFFFFFFFFFFFFFF DUP3 EQ ISZERO PUSH2 0x21FD JUMPI PUSH2 0x21FD PUSH2 0x2204 JUMP JUMPDEST POP PUSH1 0x1 ADD SWAP1 JUMP JUMPDEST PUSH32 0x4E487B7100000000000000000000000000000000000000000000000000000000 PUSH1 0x0 MSTORE PUSH1 0x11 PUSH1 0x4 MSTORE PUSH1 0x24 PUSH1 0x0 REVERT JUMPDEST PUSH32 0x4E487B7100000000000000000000000000000000000000000000000000000000 PUSH1 0x0 MSTORE PUSH1 0x32 PUSH1 0x4 MSTORE PUSH1 0x24 PUSH1 0x0 REVERT JUMPDEST PUSH32 0x4E487B7100000000000000000000000000000000000000000000000000000000 PUSH1 0x0 MSTORE PUSH1 0x41 PUSH1 0x4 MSTORE PUSH1 0x24 PUSH1 0x0 REVERT JUMPDEST DUP1 ISZERO ISZERO DUP2 EQ PUSH2 0x229F JUMPI PUSH1 0x0 DUP1 REVERT JUMPDEST POP JUMP INVALID LOG2 PUSH5 0x6970667358 0x22 SLT KECCAK256 LOG1 NUMBER 0xF6 SWAP1 SWAP10 0x4F POP PUSH12 0x1C3007B8ABE3F5EB00643D16 0xBE 0xFB CALLVALUE PUSH2 0xAEAB 0xBD PUSH24 0xE57D479464736F6C63430008070033000000000000000000 "
		},
		"gasEstimates": {
			"creation": {
				"codeDepositCost": "1784000",
				"executionCost": "infinite",
				"totalCost": "infinite"
			},
			"external": {
				"addProposition(address,(uint256,uint256,uint256,uint256,uint256))": "infinite",
				"addProposition(address,uint256,uint256,uint256)": "infinite",
				"batchCastVotes(uint256,uint256[],bool)": "infinite",
				"castVote(uint256,uint256,bool)": "infinite",
				"executeLoopChange(uint256)": "infinite",
				"executeProposition(uint256,address)": "infinite",
				"propositionApproved(uint256)": "infinite",
				"propositionOpen(uint256)": "2500",
				"requestLoopChange(uint16)": "infinite",
				"setVotingRightsContract(address)": "28853",
				"totalVotes(uint256)": "2451",
				"votingOpen(uint256)": "19647"
			},
			"internal": {
				"_checkPropositionThreshold(uint256)": "infinite"
			}
		},
		"methodIdentifiers": {
			"addProposition(address,(uint256,uint256,uint256,uint256,uint256))": "51da0700",
			"addProposition(address,uint256,uint256,uint256)": "4a0e2aa1",
			"batchCastVotes(uint256,uint256[],bool)": "9fe321af",
			"castVote(uint256,uint256,bool)": "f9000ba8",
			"executeLoopChange(uint256)": "c5584d41",
			"executeProposition(uint256,address)": "85aa033d",
			"propositionApproved(uint256)": "8fc4718f",
			"propositionOpen(uint256)": "764019e0",
			"requestLoopChange(uint16)": "40be2765",
			"setVotingRightsContract(address)": "bb993bb4",
			"totalVotes(uint256)": "19e6e158",
			"votingOpen(uint256)": "dc2c28f0"
		}
	},
	"abi": [
		{
			"inputs": [
				{
					"internalType": "contract VotingRights",
					"name": "votingRights_",
					"type": "address"
				}
			],
			"stateMutability": "nonpayable",
			"type": "constructor"
		},
		{
			"anonymous": false,
			"inputs": [
				{
					"indexed": false,
					"internalType": "uint256",
					"name": "id",
					"type": "uint256"
				},
				{
					"indexed": false,
					"internalType": "address",
					"name": "sender",
					"type": "address"
				},
				{
					"indexed": false,
					"internalType": "address",
					"name": "democratized",
					"type": "address"
				}
			],
			"name": "NewProposition",
			"type": "event"
		},
		{
			"anonymous": false,
			"inputs": [
				{
					"indexed": false,
					"internalType": "uint256",
					"name": "id",
					"type": "uint256"
				},
				{
					"indexed": false,
					"internalType": "address",
					"name": "votingAddress",
					"type": "address"
				},
				{
					"indexed": false,
					"internalType": "uint256",
					"name": "voterID",
					"type": "uint256"
				},
				{
					"indexed": false,
					"internalType": "uint256",
					"name": "propositionID",
					"type": "uint256"
				},
				{
					"indexed": false,
					"internalType": "uint256",
					"name": "propositionVoteID",
					"type": "uint256"
				},
				{
					"indexed": false,
					"internalType": "bool",
					"name": "vote",
					"type": "bool"
				},
				{
					"indexed": false,
					"internalType": "uint256",
					"name": "weight",
					"type": "uint256"
				}
			],
			"name": "NewVote",
			"type": "event"
		},
		{
			"anonymous": false,
			"inputs": [
				{
					"indexed": false,
					"internalType": "uint256",
					"name": "propositionID",
					"type": "uint256"
				},
				{
					"indexed": false,
					"internalType": "address",
					"name": "executedBy",
					"type": "address"
				}
			],
			"name": "PropositionExecuted",
			"type": "event"
		},
		{
			"inputs": [
				{
					"internalType": "address",
					"name": "sender",
					"type": "address"
				},
				{
					"internalType": "uint256",
					"name": "threshold",
					"type": "uint256"
				},
				{
					"internalType": "uint256",
					"name": "startTime",
					"type": "uint256"
				},
				{
					"internalType": "uint256",
					"name": "endTime",
					"type": "uint256"
				}
			],
			"name": "addProposition",
			"outputs": [
				{
					"internalType": "uint256",
					"name": "propositionID",
					"type": "uint256"
				}
			],
			"stateMutability": "nonpayable",
			"type": "function"
		},
		{
			"inputs": [
				{
					"internalType": "address",
					"name": "sender",
					"type": "address"
				},
				{
					"components": [
						{
							"internalType": "uint256",
							"name": "threshold",
							"type": "uint256"
						},
						{
							"internalType": "uint256",
							"name": "minimumVoteABS",
							"type": "uint256"
						},
						{
							"internalType": "uint256",
							"name": "minimumVoteREL",
							"type": "uint256"
						},
						{
							"internalType": "uint256",
							"name": "startTime",
							"type": "uint256"
						},
						{
							"internalType": "uint256",
							"name": "endTime",
							"type": "uint256"
						}
					],
					"internalType": "struct VotingMachine.PropositionRequirements",
					"name": "requirements",
					"type": "tuple"
				}
			],
			"name": "addProposition",
			"outputs": [
				{
					"internalType": "uint256",
					"name": "voteID",
					"type": "uint256"
				}
			],
			"stateMutability": "nonpayable",
			"type": "function"
		},
		{
			"inputs": [
				{
					"internalType": "uint256",
					"name": "propositionID",
					"type": "uint256"
				},
				{
					"internalType": "uint256[]",
					"name": "voterIDs",
					"type": "uint256[]"
				},
				{
					"internalType": "bool",
					"name": "vote",
					"type": "bool"
				}
			],
			"name": "batchCastVotes",
			"outputs": [
				{
					"internalType": "uint256[]",
					"name": "voteIDs",
					"type": "uint256[]"
				}
			],
			"stateMutability": "nonpayable",
			"type": "function"
		},
		{
			"inputs": [
				{
					"internalType": "uint256",
					"name": "propositionID",
					"type": "uint256"
				},
				{
					"internalType": "uint256",
					"name": "voterID",
					"type": "uint256"
				},
				{
					"internalType": "bool",
					"name": "vote",
					"type": "bool"
				}
			],
			"name": "castVote",
			"outputs": [
				{
					"internalType": "uint256",
					"name": "voteID",
					"type": "uint256"
				}
			],
			"stateMutability": "nonpayable",
			"type": "function"
		},
		{
			"inputs": [
				{
					"internalType": "uint256",
					"name": "requestID_",
					"type": "uint256"
				}
			],
			"name": "executeLoopChange",
			"outputs": [],
			"stateMutability": "nonpayable",
			"type": "function"
		},
		{
			"inputs": [
				{
					"internalType": "uint256",
					"name": "propositionID",
					"type": "uint256"
				},
				{
					"internalType": "address",
					"name": "executedBy",
					"type": "address"
				}
			],
			"name": "executeProposition",
			"outputs": [
				{
					"internalType": "bool",
					"name": "success",
					"type": "bool"
				}
			],
			"stateMutability": "nonpayable",
			"type": "function"
		},
		{
			"inputs": [
				{
					"internalType": "uint256",
					"name": "propositionID",
					"type": "uint256"
				}
			],
			"name": "propositionApproved",
			"outputs": [
				{
					"internalType": "bool",
					"name": "approval",
					"type": "bool"
				}
			],
			"stateMutability": "view",
			"type": "function"
		},
		{
			"inputs": [
				{
					"internalType": "uint256",
					"name": "propositionID",
					"type": "uint256"
				}
			],
			"name": "propositionOpen",
			"outputs": [
				{
					"internalType": "bool",
					"name": "open",
					"type": "bool"
				}
			],
			"stateMutability": "view",
			"type": "function"
		},
		{
			"inputs": [
				{
					"internalType": "uint16",
					"name": "loops_",
					"type": "uint16"
				}
			],
			"name": "requestLoopChange",
			"outputs": [
				{
					"internalType": "uint256",
					"name": "requestID",
					"type": "uint256"
				}
			],
			"stateMutability": "nonpayable",
			"type": "function"
		},
		{
			"inputs": [
				{
					"internalType": "address",
					"name": "addr",
					"type": "address"
				}
			],
			"name": "setVotingRightsContract",
			"outputs": [],
			"stateMutability": "nonpayable",
			"type": "function"
		},
		{
			"inputs": [
				{
					"internalType": "uint256",
					"name": "propositionID",
					"type": "uint256"
				}
			],
			"name": "totalVotes",
			"outputs": [
				{
					"internalType": "uint256",
					"name": "votes",
					"type": "uint256"
				}
			],
			"stateMutability": "view",
			"type": "function"
		},
		{
			"inputs": [
				{
					"internalType": "uint256",
					"name": "propositionID_",
					"type": "uint256"
				}
			],
			"name": "votingOpen",
			"outputs": [
				{
					"internalType": "bool",
					"name": "open",
					"type": "bool"
				}
			],
			"stateMutability": "view",
			"type": "function"
		}
	]
}