{
	"data": {
		"bytecode": {
			"linkReferences": {},
			"object": "60806040523480156200001157600080fd5b50604080518082018252600581526412d95b595d60da1b602080830191825283518085019094526003808552624b454d60e81b918501919091528251600094926200005d929162000293565b5080516200007390600490602084019062000293565b5050600580546001600160a01b0319166001600160a01b03939093169290921790915550604051600090620000a89062000322565b604051809103906000f080158015620000c5573d6000803e3d6000fd5b50905060008130604051620000da9062000330565b6001600160a01b03928316815291166020820152604001604051809103906000f0801580156200010e573d6000803e3d6000fd5b50604051633b81b0bb60e01b81526001600160a01b03808316600483015291925090831690633b81b0bb90602401600060405180830381600087803b1580156200015757600080fd5b505af11580156200016c573d6000803e3d6000fd5b5050600580546001600160a01b0319166001600160a01b03861617905550620001a39050336a52b7d2dcc80cd2e4000000620001ab565b5050620003b9565b6001600160a01b038216620002065760405162461bcd60e51b815260206004820152601f60248201527f45524332303a206d696e7420746f20746865207a65726f206164647265737300604482015260640160405180910390fd5b80600260008282546200021a919062000355565b90915550506001600160a01b038216600090815260208190526040812080548392906200024990849062000355565b90915550506040518181526001600160a01b038316906000907fddf252ad1be2c89b69c2b068fc378daa952ba7f163c4a11628f55a4df523b3ef9060200160405180910390a35050565b828054620002a1906200037c565b90600052602060002090601f016020900481019282620002c5576000855562000310565b82601f10620002e057805160ff191683800117855562000310565b8280016001018555821562000310579182015b8281111562000310578251825591602001919060010190620002f3565b506200031e9291506200033e565b5090565b618735806200318f83390190565b614be6806200b8c483390190565b5b808211156200031e57600081556001016200033f565b600082198211156200037757634e487b7160e01b600052601160045260246000fd5b500190565b600181811c908216806200039157607f821691505b60208210811415620003b357634e487b7160e01b600052602260045260246000fd5b50919050565b612dc680620003c96000396000f3fe608060405234801561001057600080fd5b50600436106101c45760003560e01c8063a1f4225b116100f9578063e121158e11610097578063f23a6e6111610071578063f23a6e611461047f578063f3a0ae2c146104b7578063fc04e65d146104ca578063fc185b83146104dd57600080fd5b8063e121158e14610446578063e7a486fb14610459578063f2386a361461046c57600080fd5b8063bc197c81116100d3578063bc197c811461038d578063be5baceb146103c5578063dd62ed3e146103d8578063dfe5576b1461041e57600080fd5b8063a1f4225b14610354578063a457c2d714610367578063a9059cbb1461037a57600080fd5b806331a02bce1161016657806362dfcc071161014057806362dfcc07146102f057806370a08231146103035780638b07af2b1461033957806395d89b411461034c57600080fd5b806331a02bce146102b557806339509351146102c85780635eb3009c146102db57600080fd5b8063150b7a02116101a2578063150b7a021461021957806318160ddd1461028157806323b872dd14610293578063313ce567146102a657600080fd5b806301ffc9a7146101c957806306fdde03146101f1578063095ea7b314610206575b600080fd5b6101dc6101d7366004612a6a565b6104f0565b60405190151581526020015b60405180910390f35b6101f9610630565b6040516101e89190612ba6565b6101dc61021436600461299b565b6106c2565b61025061022736600461283d565b7f150b7a0200000000000000000000000000000000000000000000000000000000949350505050565b6040517fffffffff0000000000000000000000000000000000000000000000000000000090911681526020016101e8565b6002545b6040519081526020016101e8565b6101dc6102a13660046127fc565b6106d8565b604051601281526020016101e8565b6102856102c336600461299b565b6107e8565b6101dc6102d636600461299b565b610976565b6102ee6102e9366004612aac565b6109bf565b005b6102856102fe366004612912565b610c71565b6102856103113660046126f8565b73ffffffffffffffffffffffffffffffffffffffff1660009081526020819052604090205490565b610285610347366004612ade565b610ca6565b6101f9610cd7565b610285610362366004612a09565b610ce6565b6101dc61037536600461299b565b610d12565b6101dc61038836600461299b565b610dea565b61025061039b36600461274e565b7fbc197c810000000000000000000000000000000000000000000000000000000095945050505050565b6102ee6103d3366004612aac565b610df7565b6102856103e6366004612715565b73ffffffffffffffffffffffffffffffffffffffff918216600090815260016020908152604080832093909416825291909152205490565b60055460405173ffffffffffffffffffffffffffffffffffffffff90911681526020016101e8565b6102856104543660046129c7565b610fe0565b6102ee610467366004612aac565b611013565b61028561047a3660046129c7565b61117a565b61025061048d3660046128a9565b7ff23a6e610000000000000000000000000000000000000000000000000000000095945050505050565b6102ee6104c5366004612aac565b6111a5565b6102ee6104d8366004612aac565b6113c3565b6102ee6104eb366004612aac565b611563565b60007fffffffff0000000000000000000000000000000000000000000000000000000082167f80ac58cd00000000000000000000000000000000000000000000000000000000148061058357507fffffffff0000000000000000000000000000000000000000000000000000000082167f5b5e139f00000000000000000000000000000000000000000000000000000000145b806105cf57507fffffffff0000000000000000000000000000000000000000000000000000000082167f780e9d6300000000000000000000000000000000000000000000000000000000145b8061061b57507fffffffff0000000000000000000000000000000000000000000000000000000082167fd9b67a2600000000000000000000000000000000000000000000000000000000145b8061062a575061062a8261172e565b92915050565b60606003805461063f90612c80565b80601f016020809104026020016040519081016040528092919081815260200182805461066b90612c80565b80156106b85780601f1061068d576101008083540402835291602001916106b8565b820191906000526020600020905b81548152906001019060200180831161069b57829003601f168201915b5050505050905090565b60006106cf3384846117c5565b50600192915050565b73ffffffffffffffffffffffffffffffffffffffff831660009081526001602090815260408083203384529091528120547fffffffffffffffffffffffffffffffffffffffffffffffffffffffffffffffff81146107d257828110156107c5576040517f08c379a000000000000000000000000000000000000000000000000000000000815260206004820152602860248201527f45524332303a207472616e7366657220616d6f756e742065786365656473206160448201527f6c6c6f77616e636500000000000000000000000000000000000000000000000060648201526084015b60405180910390fd5b6107d285338584036117c5565b6107dd858585611978565b506001949350505050565b601180546000918190836107fb83612cd4565b909155505060055460009073ffffffffffffffffffffffffffffffffffffffff16634a0e2aa133624c4b406108334262015180612c68565b61084042620a8c00612c68565b6040517fffffffff0000000000000000000000000000000000000000000000000000000060e087901b16815273ffffffffffffffffffffffffffffffffffffffff9094166004850152602484019290925260448301526064820152608401602060405180830381600087803b1580156108b857600080fd5b505af11580156108cc573d6000803e3d6000fd5b505050506040513d601f19601f820116820180604052508101906108f09190612ac5565b6040805160608101825273ffffffffffffffffffffffffffffffffffffffff978816815260208082019788528183018481526000968752601090915291909420935184547fffffffffffffffffffffffff000000000000000000000000000000000000000016971696909617835593516001830155509251600290930192909255919050565b33600081815260016020908152604080832073ffffffffffffffffffffffffffffffffffffffff8716845290915281205490916106cf9185906109ba908690612c68565b6117c5565b600f548110610a2a576040517f08c379a000000000000000000000000000000000000000000000000000000000815260206004820152601060248201527f4e6f207375636820726571756573742e0000000000000000000000000000000060448201526064016107bc565b6000818152600a60209081526040808320815160a081018352815473ffffffffffffffffffffffffffffffffffffffff1681526001820180548451818702810187019095528085529194929385840193909290830182828015610aac57602002820191906000526020600020905b815481526020019060010190808311610a98575b5050505050815260200160028201805480602002602001604051908101604052809291908181526020018280548015610b0457602002820191906000526020600020905b815481526020019060010190808311610af0575b5050509183525050600382015473ffffffffffffffffffffffffffffffffffffffff9081166020830152600492830154604092830152600554608085015192517f85aa033d00000000000000000000000000000000000000000000000000000000815293840192909252336024840152929350909116906385aa033d90604401602060405180830381600087803b158015610b9e57600080fd5b505af1158015610bb2573d6000803e3d6000fd5b505050506040513d601f19601f82011682018060405250810190610bd69190612a48565b5080516060820151602083015160408085015190517f2eb2c2d600000000000000000000000000000000000000000000000000000000815273ffffffffffffffffffffffffffffffffffffffff851693632eb2c2d693610c3a933093600401612b3e565b600060405180830381600087803b158015610c5457600080fd5b505af1158015610c68573d6000803e3d6000fd5b50505050505050565b6000610c9d858585624c4b4086610c8b4262015180612c68565b610c98426202a300612c68565b611c2b565b95945050505050565b6000610cd083624c4b4084610cbe4262015180612c68565b610ccb426202a300612c68565b611e15565b9392505050565b60606004805461063f90612c80565b6000610c9d858585624c4b4086610d004262015180612c68565b610d0d426202a300612c68565b611fa9565b33600090815260016020908152604080832073ffffffffffffffffffffffffffffffffffffffff8616845290915281205482811015610dd3576040517f08c379a000000000000000000000000000000000000000000000000000000000815260206004820152602560248201527f45524332303a2064656372656173656420616c6c6f77616e63652062656c6f7760448201527f207a65726f00000000000000000000000000000000000000000000000000000060648201526084016107bc565b610de033858584036117c5565b5060019392505050565b60006106cf338484611978565b600e548110610e62576040517f08c379a000000000000000000000000000000000000000000000000000000000815260206004820152601060248201527f4e6f207375636820726571756573742e0000000000000000000000000000000060448201526064016107bc565b600081815260096020908152604091829020825160a081018452815473ffffffffffffffffffffffffffffffffffffffff90811682526001830154938201939093526002820154818501526003820154831660608201526004918201546080820181905260055494517f85aa033d0000000000000000000000000000000000000000000000000000000081529283015233602483015292909116906385aa033d90604401602060405180830381600087803b158015610f2057600080fd5b505af1158015610f34573d6000803e3d6000fd5b505050506040513d601f19601f82011682018060405250810190610f589190612a48565b5080516060820151602083015160408085015190517ff242432a00000000000000000000000000000000000000000000000000000000815230600482015273ffffffffffffffffffffffffffffffffffffffff93841660248201526044810192909252606482015260a06084820152600060a48201529082169063f242432a9060c401610c3a565b600061100b8484624c4b4085610ff94262015180612c68565b611006426202a300612c68565b612130565b949350505050565b601154811061107e576040517f08c379a000000000000000000000000000000000000000000000000000000000815260206004820152601060248201527f4e6f207375636820726571756573742e0000000000000000000000000000000060448201526064016107bc565b6000818152601060209081526040918290208251606081018452815473ffffffffffffffffffffffffffffffffffffffff908116825260018301549382019390935260029091015481840181905260055493517f85aa033d00000000000000000000000000000000000000000000000000000000815260048101919091523360248201529092909116906385aa033d90604401602060405180830381600087803b15801561112b57600080fd5b505af115801561113f573d6000803e3d6000fd5b505050506040513d601f19601f820116820180604052508101906111639190612a48565b50611176816000015182602001516122a9565b5050565b600061100b8484624c4b40856111934262015180612c68565b6111a0426202a300612c68565b6123c9565b600c548110611210576040517f08c379a000000000000000000000000000000000000000000000000000000000815260206004820152601060248201527f4e6f207375636820726571756573742e0000000000000000000000000000000060448201526064016107bc565b6000818152600760209081526040918290208251608081018452815473ffffffffffffffffffffffffffffffffffffffff908116825260018301549382019390935260028201548316818501526003909101546060820181905260055493517f85aa033d00000000000000000000000000000000000000000000000000000000815260048101919091523360248201529092909116906385aa033d90604401602060405180830381600087803b1580156112c957600080fd5b505af11580156112dd573d6000803e3d6000fd5b505050506040513d601f19601f820116820180604052508101906113019190612a48565b508051604080830151602084015191517f23b872dd00000000000000000000000000000000000000000000000000000000815230600482015273ffffffffffffffffffffffffffffffffffffffff918216602482015260448101929092528216906323b872dd90606401602060405180830381600087803b15801561138557600080fd5b505af1158015611399573d6000803e3d6000fd5b505050506040513d601f19601f820116820180604052508101906113bd9190612a48565b50505050565b600b54811061142e576040517f08c379a000000000000000000000000000000000000000000000000000000000815260206004820152601060248201527f4e6f207375636820726571756573742e0000000000000000000000000000000060448201526064016107bc565b600081815260066020908152604091829020825160608101845281548152600182015473ffffffffffffffffffffffffffffffffffffffff9081169382019390935260029091015481840181905260055493517f85aa033d00000000000000000000000000000000000000000000000000000000815260048101919091523360248201529092909116906385aa033d90604401602060405180830381600087803b1580156114db57600080fd5b505af11580156114ef573d6000803e3d6000fd5b505050506040513d601f19601f820116820180604052508101906115139190612a48565b506020810151815160405173ffffffffffffffffffffffffffffffffffffffff9092169181156108fc0291906000818181858888f1935050505015801561155e573d6000803e3d6000fd5b505050565b600d5481106115ce576040517f08c379a000000000000000000000000000000000000000000000000000000000815260206004820152601060248201527f4e6f207375636820726571756573742e0000000000000000000000000000000060448201526064016107bc565b6000818152600860209081526040918290208251608081018452815473ffffffffffffffffffffffffffffffffffffffff908116825260018301549382019390935260028201548316818501526003909101546060820181905260055493517f85aa033d00000000000000000000000000000000000000000000000000000000815260048101919091523360248201529092909116906385aa033d90604401602060405180830381600087803b15801561168757600080fd5b505af115801561169b573d6000803e3d6000fd5b505050506040513d601f19601f820116820180604052508101906116bf9190612a48565b508051604080830151602084015191517f42842e0e00000000000000000000000000000000000000000000000000000000815230600482015273ffffffffffffffffffffffffffffffffffffffff918216602482015260448101929092528216906342842e0e90606401610c3a565b60007fffffffff0000000000000000000000000000000000000000000000000000000082167f4e2312e000000000000000000000000000000000000000000000000000000000148061062a57507f01ffc9a7000000000000000000000000000000000000000000000000000000007fffffffff0000000000000000000000000000000000000000000000000000000083161461062a565b73ffffffffffffffffffffffffffffffffffffffff8316611867576040517f08c379a0000000000000000000000000000000000000000000000000000000008152602060048201526024808201527f45524332303a20617070726f76652066726f6d20746865207a65726f2061646460448201527f726573730000000000000000000000000000000000000000000000000000000060648201526084016107bc565b73ffffffffffffffffffffffffffffffffffffffff821661190a576040517f08c379a000000000000000000000000000000000000000000000000000000000815260206004820152602260248201527f45524332303a20617070726f766520746f20746865207a65726f20616464726560448201527f737300000000000000000000000000000000000000000000000000000000000060648201526084016107bc565b73ffffffffffffffffffffffffffffffffffffffff83811660008181526001602090815260408083209487168084529482529182902085905590518481527f8c5be1e5ebec7d5bd14f71427d1e84f3dd0314c0f7b2291e5b200ac8c7c3b925910160405180910390a3505050565b73ffffffffffffffffffffffffffffffffffffffff8316611a1b576040517f08c379a000000000000000000000000000000000000000000000000000000000815260206004820152602560248201527f45524332303a207472616e736665722066726f6d20746865207a65726f20616460448201527f647265737300000000000000000000000000000000000000000000000000000060648201526084016107bc565b73ffffffffffffffffffffffffffffffffffffffff8216611abe576040517f08c379a000000000000000000000000000000000000000000000000000000000815260206004820152602360248201527f45524332303a207472616e7366657220746f20746865207a65726f206164647260448201527f657373000000000000000000000000000000000000000000000000000000000060648201526084016107bc565b73ffffffffffffffffffffffffffffffffffffffff831660009081526020819052604090205481811015611b74576040517f08c379a000000000000000000000000000000000000000000000000000000000815260206004820152602660248201527f45524332303a207472616e7366657220616d6f756e742065786365656473206260448201527f616c616e6365000000000000000000000000000000000000000000000000000060648201526084016107bc565b73ffffffffffffffffffffffffffffffffffffffff808516600090815260208190526040808220858503905591851681529081208054849290611bb8908490612c68565b925050819055508273ffffffffffffffffffffffffffffffffffffffff168473ffffffffffffffffffffffffffffffffffffffff167fddf252ad1be2c89b69c2b068fc378daa952ba7f163c4a11628f55a4df523b3ef84604051611c1e91815260200190565b60405180910390a36113bd565b600f8054600091819083611c3e83612cd4565b90915550506005546040517f4a0e2aa100000000000000000000000000000000000000000000000000000000815233600482015260248101889052604481018690526064810185905260009173ffffffffffffffffffffffffffffffffffffffff1690634a0e2aa190608401602060405180830381600087803b158015611cc457600080fd5b505af1158015611cd8573d6000803e3d6000fd5b505050506040513d601f19601f82011682018060405250810190611cfc9190612ac5565b6040805160a08101825273ffffffffffffffffffffffffffffffffffffffff8d8116825260208083018e81528385018e90528b83166060850152608084018690526000888152600a835294909420835181547fffffffffffffffffffffffff00000000000000000000000000000000000000001693169290921782559251805194955091939092611d94926001850192910190612584565b5060408201518051611db0916002840191602090910190612584565b5060608201516003820180547fffffffffffffffffffffffff00000000000000000000000000000000000000001673ffffffffffffffffffffffffffffffffffffffff9092169190911790556080909101516004909101559998505050505050505050565b600b8054600091819083611e2883612cd4565b90915550506005546040517f4a0e2aa100000000000000000000000000000000000000000000000000000000815233600482015260248101889052604481018690526064810185905260009173ffffffffffffffffffffffffffffffffffffffff1690634a0e2aa190608401602060405180830381600087803b158015611eae57600080fd5b505af1158015611ec2573d6000803e3d6000fd5b505050506040513d601f19601f82011682018060405250810190611ee69190612ac5565b604080516060810182528a815273ffffffffffffffffffffffffffffffffffffffff89811660208084019182528385018681526000898152600683528690209451855591516001850180547fffffffffffffffffffffffff00000000000000000000000000000000000000001691909416179092555160029092019190915581518b81529081018590529192507f5bd988af35b5d201645e02c3e7c48d1829b4d37cc8a45258eaf0719b1de6d395910160405180910390a1979650505050505050565b600e8054600091819083611fbc83612cd4565b90915550506005546040517f4a0e2aa100000000000000000000000000000000000000000000000000000000815233600482015260248101889052604481018690526064810185905260009173ffffffffffffffffffffffffffffffffffffffff1690634a0e2aa190608401602060405180830381600087803b15801561204257600080fd5b505af1158015612056573d6000803e3d6000fd5b505050506040513d601f19601f8201168201806040525081019061207a9190612ac5565b6040805160a08101825273ffffffffffffffffffffffffffffffffffffffff9c8d16815260208082019c8d528183019b8c52988d16606082019081526080820184815260009687526009909a529190942093518454908d167fffffffffffffffffffffffff00000000000000000000000000000000000000009182161785559a51600185015598516002840155975160038301805491909b16991698909817909855505090516004909501949094555092915050565b600d805460009181908361214383612cd4565b90915550506005546040517f4a0e2aa100000000000000000000000000000000000000000000000000000000815233600482015260248101889052604481018690526064810185905260009173ffffffffffffffffffffffffffffffffffffffff1690634a0e2aa190608401602060405180830381600087803b1580156121c957600080fd5b505af11580156121dd573d6000803e3d6000fd5b505050506040513d601f19601f820116820180604052508101906122019190612ac5565b6040805160808101825273ffffffffffffffffffffffffffffffffffffffff9b8c16815260208082019b8c52988c168183019081526060820184815260009687526008909a529190942093518454908c167fffffffffffffffffffffffff0000000000000000000000000000000000000000918216178555995160018501555160028401805491909b1699169890981790985593516003909401939093555092949350505050565b73ffffffffffffffffffffffffffffffffffffffff8216612326576040517f08c379a000000000000000000000000000000000000000000000000000000000815260206004820152601f60248201527f45524332303a206d696e7420746f20746865207a65726f20616464726573730060448201526064016107bc565b80600260008282546123389190612c68565b909155505073ffffffffffffffffffffffffffffffffffffffff821660009081526020819052604081208054839290612372908490612c68565b909155505060405181815273ffffffffffffffffffffffffffffffffffffffff8316906000907fddf252ad1be2c89b69c2b068fc378daa952ba7f163c4a11628f55a4df523b3ef9060200160405180910390a35050565b600c80546000918190836123dc83612cd4565b90915550506005546040517f4a0e2aa100000000000000000000000000000000000000000000000000000000815233600482015260248101889052604481018690526064810185905260009173ffffffffffffffffffffffffffffffffffffffff1690634a0e2aa190608401602060405180830381600087803b15801561246257600080fd5b505af1158015612476573d6000803e3d6000fd5b505050506040513d601f19601f8201168201806040525081019061249a9190612ac5565b6040805160808101825273ffffffffffffffffffffffffffffffffffffffff8c811680835260208084018e81528c8416858701908152606080870189815260008c815260078652899020975188549088167fffffffffffffffffffffffff000000000000000000000000000000000000000091821617895593516001890155915160028801805491909716931692909217909455925160039094019390935583519081529182018c90529181018590529192507f910585f63acc02d6018f09a37fbaabc1337981145d31b4ec43b8d459e8ce67ba910160405180910390a198975050505050505050565b8280548282559060005260206000209081019282156125bf579160200282015b828111156125bf5782518255916020019190600101906125a4565b506125cb9291506125cf565b5090565b5b808211156125cb57600081556001016125d0565b600082601f8301126125f557600080fd5b8135602067ffffffffffffffff82111561261157612611612d3c565b8160051b612620828201612c19565b83815282810190868401838801850189101561263b57600080fd5b600093505b8584101561265e578035835260019390930192918401918401612640565b50979650505050505050565b600082601f83011261267b57600080fd5b813567ffffffffffffffff81111561269557612695612d3c565b6126c660207fffffffffffffffffffffffffffffffffffffffffffffffffffffffffffffffe0601f84011601612c19565b8181528460208386010111156126db57600080fd5b816020850160208301376000918101602001919091529392505050565b60006020828403121561270a57600080fd5b8135610cd081612d6b565b6000806040838503121561272857600080fd5b823561273381612d6b565b9150602083013561274381612d6b565b809150509250929050565b600080600080600060a0868803121561276657600080fd5b853561277181612d6b565b9450602086013561278181612d6b565b9350604086013567ffffffffffffffff8082111561279e57600080fd5b6127aa89838a016125e4565b945060608801359150808211156127c057600080fd5b6127cc89838a016125e4565b935060808801359150808211156127e257600080fd5b506127ef8882890161266a565b9150509295509295909350565b60008060006060848603121561281157600080fd5b833561281c81612d6b565b9250602084013561282c81612d6b565b929592945050506040919091013590565b6000806000806080858703121561285357600080fd5b843561285e81612d6b565b9350602085013561286e81612d6b565b925060408501359150606085013567ffffffffffffffff81111561289157600080fd5b61289d8782880161266a565b91505092959194509250565b600080600080600060a086880312156128c157600080fd5b85356128cc81612d6b565b945060208601356128dc81612d6b565b93506040860135925060608601359150608086013567ffffffffffffffff81111561290657600080fd5b6127ef8882890161266a565b6000806000806080858703121561292857600080fd5b843561293381612d6b565b9350602085013567ffffffffffffffff8082111561295057600080fd5b61295c888389016125e4565b9450604087013591508082111561297257600080fd5b5061297f878288016125e4565b925050606085013561299081612d6b565b939692955090935050565b600080604083850312156129ae57600080fd5b82356129b981612d6b565b946020939093013593505050565b6000806000606084860312156129dc57600080fd5b83356129e781612d6b565b92506020840135915060408401356129fe81612d6b565b809150509250925092565b60008060008060808587031215612a1f57600080fd5b8435612a2a81612d6b565b93506020850135925060408501359150606085013561299081612d6b565b600060208284031215612a5a57600080fd5b81518015158114610cd057600080fd5b600060208284031215612a7c57600080fd5b81357fffffffff0000000000000000000000000000000000000000000000000000000081168114610cd057600080fd5b600060208284031215612abe57600080fd5b5035919050565b600060208284031215612ad757600080fd5b5051919050565b60008060408385031215612af157600080fd5b82359150602083013561274381612d6b565b600081518084526020808501945080840160005b83811015612b3357815187529582019590820190600101612b17565b509495945050505050565b600073ffffffffffffffffffffffffffffffffffffffff808716835280861660208401525060a06040830152612b7760a0830185612b03565b8281036060840152612b898185612b03565b838103608090940193909352505060008152602001949350505050565b600060208083528351808285015260005b81811015612bd357858101830151858201604001528201612bb7565b81811115612be5576000604083870101525b50601f017fffffffffffffffffffffffffffffffffffffffffffffffffffffffffffffffe016929092016040019392505050565b604051601f82017fffffffffffffffffffffffffffffffffffffffffffffffffffffffffffffffe016810167ffffffffffffffff81118282101715612c6057612c60612d3c565b604052919050565b60008219821115612c7b57612c7b612d0d565b500190565b600181811c90821680612c9457607f821691505b60208210811415612cce577f4e487b7100000000000000000000000000000000000000000000000000000000600052602260045260246000fd5b50919050565b60007fffffffffffffffffffffffffffffffffffffffffffffffffffffffffffffffff821415612d0657612d06612d0d565b5060010190565b7f4e487b7100000000000000000000000000000000000000000000000000000000600052601160045260246000fd5b7f4e487b7100000000000000000000000000000000000000000000000000000000600052604160045260246000fd5b73ffffffffffffffffffffffffffffffffffffffff81168114612d8d57600080fd5b5056fea26469706673582212205667af3c54b69425b58b52e8f1eec81d3da6917ea1f2a33e56fb468af4a7741464736f6c6343000807003360806040526015805461ffff191690553480156200001c57600080fd5b506040805180820182526009815268434d44205469746c6560b81b60208083019182528351808501909452600384526215151360ea1b908401528151309384939290916200006d9160009162000a24565b5080516200008390600190602084019062000a24565b5050600a80546001600160a01b03199081166001600160a01b03948516178255600b80543390831681179091556018805483169690951695909517909355602580549093169093179091555060408051808201909152601b8082527f68747470733a2f2f7469746c65732e77726c64636f696e2e696f2f000000000060209092019182526000926908ac7230489e800000009290916200012691602a9162000a24565b50600092505b600d8360ff161015620001ac576040805180820182528381526001600160401b03838116602080840191825260ff88166000908152602990915293909320915182559151600190910180546001600160401b031916919092161790556200019560028362000b93565b915082620001a38162000c37565b9350506200012c565b600092505b60328360ff161015620001df57620001c933620001e8565b5082620001d68162000c37565b935050620001b1565b50505062000c9c565b60238054600091600160a01b9091046001600160401b03169081906014620002108362000c0d565b82546101009290920a6001600160401b038181021990931691831602179091556040805160c081018252600080825260208083018781528385018381527fb7634ec2165a7280a285aac3ec10cf370eca86d8aa9d3243c90b2151434091ad8054881660608701908152608087018681523360a089019081528c8852602887529887209751885460ff191660ff9091161788559351600188015591516002870155905160038601805493519189166001600160801b0319909416939093176801000000000000000091891691909102179091559351600490930180546001600160a01b0319166001600160a01b039094169390931790925580805260249091528154909216925090620003228362000c0d565b91906101000a8154816001600160401b0302191690836001600160401b03160217905550506200035983826200039760201b60201c565b604080518281523360208201527fb31d8e8fa42b269769f65cb3fbee94d28efb43a3a870e2417a6aef591601a9f8910160405180910390a192915050565b620003b9828260405180602001604052806000815250620003bd60201b60201c565b5050565b620003c9838362000439565b620003d860008484846200058f565b620004345760405162461bcd60e51b815260206004820152603260248201526000805160206200871583398151915260448201527131b2b4bb32b91034b6b83632b6b2b73a32b960711b60648201526084015b60405180910390fd5b505050565b6001600160a01b038216620004915760405162461bcd60e51b815260206004820181905260248201527f4552433732313a206d696e7420746f20746865207a65726f206164647265737360448201526064016200042b565b6000818152600260205260409020546001600160a01b031615620004f85760405162461bcd60e51b815260206004820152601c60248201527f4552433732313a20746f6b656e20616c7265616479206d696e7465640000000060448201526064016200042b565b6200050660008383620006f8565b6001600160a01b03821660009081526003602052604081208054600192906200053190849062000b78565b909155505060008181526002602052604080822080546001600160a01b0319166001600160a01b03861690811790915590518392907fddf252ad1be2c89b69c2b068fc378daa952ba7f163c4a11628f55a4df523b3ef908290a45050565b6000620005b0846001600160a01b0316620007d460201b620050fd1760201c565b15620006ec57604051630a85bd0160e11b81526001600160a01b0385169063150b7a0290620005ea90339089908890889060040162000afd565b602060405180830381600087803b1580156200060557600080fd5b505af192505050801562000638575060408051601f3d908101601f19168201909252620006359181019062000aca565b60015b620006d1573d80801562000669576040519150601f19603f3d011682016040523d82523d6000602084013e6200066e565b606091505b508051620006c95760405162461bcd60e51b815260206004820152603260248201526000805160206200871583398151915260448201527131b2b4bb32b91034b6b83632b6b2b73a32b960711b60648201526084016200042b565b805181602001fd5b6001600160e01b031916630a85bd0160e11b149050620006f0565b5060015b949350505050565b620007108383836200043460201b62000c361760201c565b6001600160a01b0383166200076e576200076881600880546000838152600960205260408120829055600182018355919091527ff3f7a9fe364faab93b216da50a3214154f22a0a2b415b23a84c8169e8b636ee30155565b62000794565b816001600160a01b0316836001600160a01b0316146200079457620007948382620007e3565b6001600160a01b038216620007ae57620004348162000890565b826001600160a01b0316826001600160a01b03161462000434576200043482826200094a565b6001600160a01b03163b151590565b60006001620007fd846200099b60201b620026821760201c565b62000809919062000bb6565b6000838152600760205260409020549091508082146200085d576001600160a01b03841660009081526006602090815260408083208584528252808320548484528184208190558352600790915290208190555b5060009182526007602090815260408084208490556001600160a01b039094168352600681528383209183525290812055565b600854600090620008a49060019062000bb6565b60008381526009602052604081205460088054939450909284908110620008cf57620008cf62000c86565b906000526020600020015490508060088381548110620008f357620008f362000c86565b60009182526020808320909101929092558281526009909152604080822084905585825281205560088054806200092e576200092e62000c70565b6001900381819060005260206000200160009055905550505050565b600062000962836200099b60201b620026821760201c565b6001600160a01b039093166000908152600660209081526040808320868452825280832085905593825260079052919091209190915550565b60006001600160a01b03821662000a085760405162461bcd60e51b815260206004820152602a60248201527f4552433732313a2062616c616e636520717565727920666f7220746865207a65604482015269726f206164647265737360b01b60648201526084016200042b565b506001600160a01b031660009081526003602052604090205490565b82805462000a329062000bd0565b90600052602060002090601f01602090048101928262000a56576000855562000aa1565b82601f1062000a7157805160ff191683800117855562000aa1565b8280016001018555821562000aa1579182015b8281111562000aa157825182559160200191906001019062000a84565b5062000aaf92915062000ab3565b5090565b5b8082111562000aaf576000815560010162000ab4565b60006020828403121562000add57600080fd5b81516001600160e01b03198116811462000af657600080fd5b9392505050565b600060018060a01b038087168352602081871681850152856040850152608060608501528451915081608085015260005b8281101562000b4c5785810182015185820160a00152810162000b2e565b8281111562000b5f57600060a084870101525b5050601f01601f19169190910160a00195945050505050565b6000821982111562000b8e5762000b8e62000c5a565b500190565b60008262000bb157634e487b7160e01b600052601260045260246000fd5b500490565b60008282101562000bcb5762000bcb62000c5a565b500390565b600181811c9082168062000be557607f821691505b6020821081141562000c0757634e487b7160e01b600052602260045260246000fd5b50919050565b60006001600160401b038281168082141562000c2d5762000c2d62000c5a565b6001019392505050565b600060ff821660ff81141562000c515762000c5162000c5a565b60010192915050565b634e487b7160e01b600052601160045260246000fd5b634e487b7160e01b600052603160045260246000fd5b634e487b7160e01b600052603260045260246000fd5b617a698062000cac6000396000f3fe608060405234801561001057600080fd5b506004361061038e5760003560e01c806382f68dc4116101de578063be5baceb1161010f578063f2386a36116100ad578063fc04e65d1161007c578063fc04e65d146108de578063fc185b83146108f1578063fe5a338014610904578063ff24c1ff1461091757600080fd5b8063f2386a361461086d578063f23a6e6114610880578063f3a0ae2c146108b8578063f9000ba8146108cb57600080fd5b8063dc2c28f0116100e9578063dc2c28f0146107e0578063dfe5576b146107f3578063e121158e14610811578063e985e9c51461082457600080fd5b8063be5baceb146107a7578063c5584d41146107ba578063c87b56dd146107cd57600080fd5b8063a1f4225b1161017c578063b88d4fde11610156578063b88d4fde14610736578063bb993bb414610749578063bc197c811461075c578063bd96237d1461079457600080fd5b8063a1f4225b146106fd578063a22cb46514610710578063b0eb385d1461072357600080fd5b80638fc4718f116101b85780638fc4718f146106af57806395d89b41146106c25780639634540b146106ca5780639fe321af146106dd57600080fd5b806382f68dc41461066457806385aa033d146106895780638b07af2b1461069c57600080fd5b806342842e0e116102c35780635eb3009c116102615780636a7dac7d116102305780636a7dac7d1461060657806370a0823114610619578063764019e01461062c578063800b01601461065157600080fd5b80635eb3009c146105ba57806362dfcc07146105cd5780636352211e146105e057806367d81b32146105f357600080fd5b80634a0e2aa11161029d5780634a0e2aa11461056e5780634f6ccce7146105815780635008962114610594578063567c6e07146105a757600080fd5b806342842e0e1461054057806346582ca414610553578063485456bc1461056657600080fd5b806318160ddd1161033057806323b872dd1161030a57806323b872dd146104f45780632f745c59146105075780633b81b0bb1461051a57806340be27651461052d57600080fd5b806318160ddd146104b957806319e6e158146104c15780631e7aa37d146104e157600080fd5b8063081812fc1161036c578063081812fc14610415578063095ea7b31461044d578063142cd06a14610462578063150b7a021461047557600080fd5b806301ffc9a71461039357806306fdde03146103bb57806307a48f8f146103d0575b600080fd5b6103a66103a1366004617325565b61092c565b60405190151581526020015b60405180910390f35b6103c361093d565b6040516103b291906176a5565b600c60005260246020527fcfd901ba1675b89e59c977e85e6e7a7c4ff7751b63723061dce346746771b9255467ffffffffffffffff165b6040519081526020016103b2565b6104286104233660046173cc565b6109cf565b60405173ffffffffffffffffffffffffffffffffffffffff90911681526020016103b2565b61046061045b366004617220565b610aae565b005b6104076104703660046174a1565b610c3b565b610488610483366004617094565b610cca565b6040517fffffffff0000000000000000000000000000000000000000000000000000000090911681526020016103b2565b600854610407565b6104076104cf3660046173cc565b60009081526011602052604090205490565b6104076104ef3660046173cc565b610cf4565b610460610502366004617053565b610d1e565b610407610515366004617220565b610dbf565b610460610528366004616f4f565b610e8e565b61040761053b3660046173a8565b610f70565b61046061054e366004617053565b611025565b6104076105613660046174bc565b611040565b6104076111d8565b61040761057c3660046172cd565b6112d9565b61040761058f3660046173cc565b61148c565b6103a66105a2366004617220565b61154a565b6104076105b536600461735f565b61158a565b6104606105c83660046173cc565b6116e1565b6104076105db366004617169565b611993565b6104286105ee3660046173cc565b6119c8565b6104076106013660046174f4565b611a7a565b6104076106143660046173cc565b611d3d565b610407610627366004616f4f565b612682565b6103a661063a3660046173cc565b6000908152600e6020526040902060050154421090565b61046061065f3660046173cc565b612750565b6106776106723660046173cc565b6128da565b60405160ff90911681526020016103b2565b6103a66106973660046173fe565b612963565b6104076106aa3660046173fe565b612cf9565b6103a66106bd3660046173cc565b612d2a565b6103c3612dd2565b6104606106d83660046173cc565b612de1565b6106f06106eb366004617423565b612fbe565b6040516103b29190617692565b61040761070b36600461728e565b613735565b61046061071e3660046171f2565b613761565b6104606107313660046173cc565b61376c565b610460610744366004617094565b613952565b610460610757366004616f4f565b6139fa565b61048861076a366004616fa5565b7fbc197c810000000000000000000000000000000000000000000000000000000095945050505050565b6104076107a23660046174a1565b613ae5565b6104606107b53660046173cc565b613b6a565b6104606107c83660046173cc565b613d53565b6103c36107db3660046173cc565b61404e565b6103a66107ee3660046173cc565b61415d565b60185473ffffffffffffffffffffffffffffffffffffffff16610428565b61040761081f36600461724c565b6141f3565b6103a6610832366004616f6c565b73ffffffffffffffffffffffffffffffffffffffff918216600090815260056020908152604080832093909416825291909152205460ff1690565b61040761087b36600461724c565b61421e565b61048861088e366004617100565b7ff23a6e610000000000000000000000000000000000000000000000000000000095945050505050565b6104606108c63660046173cc565b614249565b6104076108d9366004617473565b614461565b6104606108ec3660046173cc565b614b2b565b6104606108ff3660046173cc565b614cc6565b6104076109123660046174d8565b614e91565b33600090815260266020526040902054610407565b600061093782615119565b92915050565b60606000805461094c906177d8565b80601f0160208091040260200160405190810160405280929190818152602001828054610978906177d8565b80156109c55780601f1061099a576101008083540402835291602001916109c5565b820191906000526020600020905b8154815290600101906020018083116109a857829003601f168201915b5050505050905090565b60008181526002602052604081205473ffffffffffffffffffffffffffffffffffffffff16610a85576040517f08c379a000000000000000000000000000000000000000000000000000000000815260206004820152602c60248201527f4552433732313a20617070726f76656420717565727920666f72206e6f6e657860448201527f697374656e7420746f6b656e000000000000000000000000000000000000000060648201526084015b60405180910390fd5b5060009081526004602052604090205473ffffffffffffffffffffffffffffffffffffffff1690565b6000610ab9826119c8565b90508073ffffffffffffffffffffffffffffffffffffffff168373ffffffffffffffffffffffffffffffffffffffff161415610b77576040517f08c379a000000000000000000000000000000000000000000000000000000000815260206004820152602160248201527f4552433732313a20617070726f76616c20746f2063757272656e74206f776e6560448201527f72000000000000000000000000000000000000000000000000000000000000006064820152608401610a7c565b3373ffffffffffffffffffffffffffffffffffffffff82161480610ba05750610ba08133610832565b610c2c576040517f08c379a000000000000000000000000000000000000000000000000000000000815260206004820152603860248201527f4552433732313a20617070726f76652063616c6c6572206973206e6f74206f7760448201527f6e6572206e6f7220617070726f76656420666f7220616c6c00000000000000006064820152608401610a7c565b610c368383615253565b505050565b6000600d8260ff1610610caa576040517f08c379a000000000000000000000000000000000000000000000000000000000815260206004820152600d60248201527f4e6f20737563682072616e6b21000000000000000000000000000000000000006044820152606401610a7c565b5060ff1660009081526024602052604090205467ffffffffffffffff1690565b7f150b7a02000000000000000000000000000000000000000000000000000000005b949350505050565b60008181526028602052604081205460ff16600c1415610d1657506001919050565b506000919050565b610d2833826152f3565b610db4576040517f08c379a000000000000000000000000000000000000000000000000000000000815260206004820152603160248201527f4552433732313a207472616e736665722063616c6c6572206973206e6f74206f60448201527f776e6572206e6f7220617070726f7665640000000000000000000000000000006064820152608401610a7c565b610c3683838361545f565b6000610dca83612682565b8210610e58576040517f08c379a000000000000000000000000000000000000000000000000000000000815260206004820152602b60248201527f455243373231456e756d657261626c653a206f776e657220696e646578206f7560448201527f74206f6620626f756e64730000000000000000000000000000000000000000006064820152608401610a7c565b5073ffffffffffffffffffffffffffffffffffffffff919091166000908152600660209081526040808320938352929052205490565b60255473ffffffffffffffffffffffffffffffffffffffff163314610f0f576040517f08c379a000000000000000000000000000000000000000000000000000000000815260206004820152600c60248201527f4e6f742063726561746f722100000000000000000000000000000000000000006044820152606401610a7c565b60235473ffffffffffffffffffffffffffffffffffffffff16610f6d57602380547fffffffffffffffffffffffff00000000000000000000000000000000000000001673ffffffffffffffffffffffffffffffffffffffff83161790555b50565b60006103e88261ffff1610610f8457600080fd5b601780549081906000610f9683617826565b9091555060009050610fc033624c4b40610fb34262015180617707565b61057c42620a8c00617707565b60408051808201825261ffff968716815260208082019384526000868152601690915291909120905181547fffffffffffffffffffffffffffffffffffffffffffffffffffffffffffff00001696169590951785555160019094019390935592915050565b610c3683838360405180602001604052806000815250613952565b602c805460009181908361105383617826565b909155505060185460009073ffffffffffffffffffffffffffffffffffffffff16634a0e2aa133624c4b4061108b4262015180617707565b61109842620a8c00617707565b6040517fffffffff0000000000000000000000000000000000000000000000000000000060e087901b16815273ffffffffffffffffffffffffffffffffffffffff9094166004850152602484019290925260448301526064820152608401602060405180830381600087803b15801561111057600080fd5b505af1158015611124573d6000803e3d6000fd5b505050506040513d601f19601f8201168201806040525081019061114891906173e5565b6040805160608101825260ff808916825273ffffffffffffffffffffffffffffffffffffffff80891660208085019182528486019687526000898152602f90915294909420925183549451909116610100027fffffffffffffffffffffff000000000000000000000000000000000000000000909416911617919091178155905160019091015550905092915050565b336000908152602660205260408120546027548111156111fa576111fa6178bb565b3360009081526026602052604081208190556027805483929061121e908490617795565b90915550506023546040517f23b872dd0000000000000000000000000000000000000000000000000000000081523060048201523360248201526044810183905273ffffffffffffffffffffffffffffffffffffffff909116906323b872dd90606401602060405180830381600087803b15801561129b57600080fd5b505af11580156112af573d6000803e3d6000fd5b505050506040513d601f19601f820116820180604052508101906112d39190617308565b50919050565b6000805b60155461ffff168110156112fd57806112f581617826565b9150506112dd565b50600c8054908190600061131083617826565b90915550506040805160e08101825282815273ffffffffffffffffffffffffffffffffffffffff808916602080840191825233848601818152606086018c8152608087018c815260a088018c8152600060c08a018181528c8252600e9097528a90209851895595516001890180549189167fffffffffffffffffffffffff000000000000000000000000000000000000000092831617905592516002890180549190981693169290921790955593516003860155925160048501559051600584015551600690920180549215157fffffffffffffffffffffffffffffffffffffffffffffffffffffffffffffff009093169290921790915590517ffde04a75a21f54e1e560d7a3cd1dbbf903f911bb966606480451365ff8e51eca9161147b9184918a918a908a908a9095865273ffffffffffffffffffffffffffffffffffffffff94851660208701529290931660408501526060840152608083019190915260a082015260c00190565b60405180910390a195945050505050565b600061149760085490565b8210611525576040517f08c379a000000000000000000000000000000000000000000000000000000000815260206004820152602c60248201527f455243373231456e756d657261626c653a20676c6f62616c20696e646578206f60448201527f7574206f6620626f756e647300000000000000000000000000000000000000006064820152608401610a7c565b6008828154811061153857611538617977565b90600052602060002001549050919050565b60008273ffffffffffffffffffffffffffffffffffffffff1661156c836119c8565b73ffffffffffffffffffffffffffffffffffffffff16149392505050565b602d805460009181908361159d83617826565b909155505060185460009073ffffffffffffffffffffffffffffffffffffffff16634a0e2aa133624c4b406115d54262015180617707565b6115e242620a8c00617707565b6040517fffffffff0000000000000000000000000000000000000000000000000000000060e087901b16815273ffffffffffffffffffffffffffffffffffffffff9094166004850152602484019290925260448301526064820152608401602060405180830381600087803b15801561165a57600080fd5b505af115801561166e573d6000803e3d6000fd5b505050506040513d601f19601f8201168201806040525081019061169291906173e5565b60408051808201825286815260208082018490526000868152603082529290922081518051949550919390926116cc928492910190616d4a565b50602091909101516001909101555092915050565b602254811061174c576040517f08c379a000000000000000000000000000000000000000000000000000000000815260206004820152601060248201527f4e6f207375636820726571756573742e000000000000000000000000000000006044820152606401610a7c565b6000818152601d60209081526040808320815160a081018352815473ffffffffffffffffffffffffffffffffffffffff16815260018201805484518187028101870190955280855291949293858401939092908301828280156117ce57602002820191906000526020600020905b8154815260200190600101908083116117ba575b505050505081526020016002820180548060200260200160405190810160405280929190818152602001828054801561182657602002820191906000526020600020905b815481526020019060010190808311611812575b5050509183525050600382015473ffffffffffffffffffffffffffffffffffffffff9081166020830152600492830154604092830152601854608085015192517f85aa033d00000000000000000000000000000000000000000000000000000000815293840192909252336024840152929350909116906385aa033d90604401602060405180830381600087803b1580156118c057600080fd5b505af11580156118d4573d6000803e3d6000fd5b505050506040513d601f19601f820116820180604052508101906118f89190617308565b5080516060820151602083015160408085015190517f2eb2c2d600000000000000000000000000000000000000000000000000000000815273ffffffffffffffffffffffffffffffffffffffff851693632eb2c2d69361195c9330936004016175e1565b600060405180830381600087803b15801561197657600080fd5b505af115801561198a573d6000803e3d6000fd5b50505050505050565b60006119bf858585624c4b40866119ad4262015180617707565b6119ba426202a300617707565b6156d1565b95945050505050565b60008181526002602052604081205473ffffffffffffffffffffffffffffffffffffffff1680610937576040517f08c379a000000000000000000000000000000000000000000000000000000000815260206004820152602960248201527f4552433732313a206f776e657220717565727920666f72206e6f6e657869737460448201527f656e7420746f6b656e00000000000000000000000000000000000000000000006064820152608401610a7c565b6000808360ff1611611b0d576040517f08c379a0000000000000000000000000000000000000000000000000000000008152602060048201526024808201527f43616e277420736574206d696e74206c696d697420666f7220676f642074697460448201527f6c65732e000000000000000000000000000000000000000000000000000000006064820152608401610a7c565b600c8360ff1610611ba0576040517f08c379a000000000000000000000000000000000000000000000000000000000815260206004820152603960248201527f4f6e6c79207469746c657320686967686572207468616e20612070726f76696e60448201527f6369616c207469746c652063616e206265206d696e7465642e000000000000006064820152608401610a7c565b602b80549081906000611bb283617826565b909155505060185460009073ffffffffffffffffffffffffffffffffffffffff16634a0e2aa133624c4b40611bea4262015180617707565b611bf742620a8c00617707565b6040517fffffffff0000000000000000000000000000000000000000000000000000000060e087901b16815273ffffffffffffffffffffffffffffffffffffffff9094166004850152602484019290925260448301526064820152608401602060405180830381600087803b158015611c6f57600080fd5b505af1158015611c83573d6000803e3d6000fd5b505050506040513d601f19601f82011682018060405250810190611ca791906173e5565b6040805160808101825260ff808916825267ffffffffffffffff88166020808401918252600084860181815260608601978852898252602e909252949094209251835492167fffffffffffffffffffffffffffffffffffffffffffffffffffffffffffffff0092831617835551600183015591516002820180549115159190931617909155905160039091015550905092915050565b600081815260286020526040812033611d55846119c8565b73ffffffffffffffffffffffffffffffffffffffff1614611dd2576040517f08c379a000000000000000000000000000000000000000000000000000000000815260206004820152601d60248201527f5573657220646f6573206e6f74206f776e2074686973207469746c652e0000006044820152606401610a7c565b8054600090611de59060ff16600161771f565b905060008160ff1611611e7a576040517f08c379a000000000000000000000000000000000000000000000000000000000815260206004820152602760248201527f476f64207469746c6573206d757374206265206d696e746564207468726f756760448201527f6820766f74652e000000000000000000000000000000000000000000000000006064820152608401610a7c565b600c8160ff1610611f0d576040517f08c379a000000000000000000000000000000000000000000000000000000000815260206004820152603060248201527f50726f76696e6369616c207469746c65732063616e6e6f74206d696e74206c6f60448201527f7765722074696572207469746c65732e000000000000000000000000000000006064820152608401610a7c565b60ff8116600090815260296020526040908190205460235491517f70a082310000000000000000000000000000000000000000000000000000000081523360048201529091829173ffffffffffffffffffffffffffffffffffffffff909116906370a082319060240160206040518083038186803b158015611f8e57600080fd5b505afa158015611fa2573d6000803e3d6000fd5b505050506040513d601f19601f82011682018060405250810190611fc691906173e5565b101561202e576040517f08c379a000000000000000000000000000000000000000000000000000000000815260206004820152601260248201527f496e73756666696369656e742046756e647300000000000000000000000000006044820152606401610a7c565b6023546040517fdd62ed3e000000000000000000000000000000000000000000000000000000008152336004820152306024820152829173ffffffffffffffffffffffffffffffffffffffff169063dd62ed3e9060440160206040518083038186803b15801561209d57600080fd5b505afa1580156120b1573d6000803e3d6000fd5b505050506040513d601f19601f820116820180604052508101906120d591906173e5565b101561213d576040517f08c379a000000000000000000000000000000000000000000000000000000000815260206004820152601560248201527f496e73756666696369656e7420417070726f76616c00000000000000000000006044820152606401610a7c565b600383015460ff831660009081526029602052604090206001015467ffffffffffffffff68010000000000000000909204821691168110612200576040517f08c379a000000000000000000000000000000000000000000000000000000000815260206004820152602e60248201527f54686973207469746c6520686173207265616368656420697473206d6178696d60448201527f756d206d696e7420636f756e742e0000000000000000000000000000000000006064820152608401610a7c565b60038401805468010000000000000000900467ffffffffffffffff169060086122288361785f565b82546101009290920a67ffffffffffffffff818102199093169183160217909155602380547401000000000000000000000000000000000000000090049091169150819060146122778361785f565b82546101009290920a67ffffffffffffffff8181021990931691831602179091556040805160c08101825260ff888116825260208083018781528385018e8152898716606086019081526000608087018181523360a089018181528d8452602890975298909120965187547fffffffffffffffffffffffffffffffffffffffffffffffffffffffffffffff00169616959095178655915160018601555160028501555160038401805493519187167fffffffffffffffffffffffffffffffff00000000000000000000000000000000909416939093176801000000000000000091909616029490941790559151600490920180547fffffffffffffffffffffffff00000000000000000000000000000000000000001673ffffffffffffffffffffffffffffffffffffffff909316929092179091556123b79150826158bb565b60ff84166000908152602460205260408120805467ffffffffffffffff16916123df8361785f565b825467ffffffffffffffff9182166101009390930a9283029190920219909116179055506023546040517f23b872dd0000000000000000000000000000000000000000000000000000000081523360048201523060248201526044810185905273ffffffffffffffffffffffffffffffffffffffff909116906323b872dd90606401602060405180830381600087803b15801561247b57600080fd5b505af115801561248f573d6000803e3d6000fd5b505050506040513d601f19601f820116820180604052508101906124b39190617308565b5060006124c1600385617744565b6040805160c081018252885460ff16815260018901546020820152600289015491810191909152600388015467ffffffffffffffff808216606084015268010000000000000000909104166080820152600488015473ffffffffffffffffffffffffffffffffffffffff1660a08201529091505b81602760008282546125479190617707565b92505081905550600061255d82602001516119c8565b73ffffffffffffffffffffffffffffffffffffffff8116600090815260266020526040812080549293508592909190612597908490617707565b909155505060409182015160009081526028602090815290839020835160c081018552815460ff16815260018201549281019290925260028082015494830194909452600381015467ffffffffffffffff8082166060850152680100000000000000009091041660808301526004015473ffffffffffffffffffffffffffffffffffffffff1660a08201529161262d9084617744565b825190935060ff161515905061253557604080518481523360208201527fb31d8e8fa42b269769f65cb3fbee94d28efb43a3a870e2417a6aef591601a9f8910160405180910390a15090979650505050505050565b600073ffffffffffffffffffffffffffffffffffffffff8216612727576040517f08c379a000000000000000000000000000000000000000000000000000000000815260206004820152602a60248201527f4552433732313a2062616c616e636520717565727920666f7220746865207a6560448201527f726f2061646472657373000000000000000000000000000000000000000000006064820152608401610a7c565b5073ffffffffffffffffffffffffffffffffffffffff1660009081526003602052604090205490565b602c5481106127bb576040517f08c379a000000000000000000000000000000000000000000000000000000000815260206004820152601060248201527f4e6f207375636820726571756573742e000000000000000000000000000000006044820152606401610a7c565b6000818152602f60209081526040918290208251606081018452815460ff81168252610100900473ffffffffffffffffffffffffffffffffffffffff9081169382019390935260019091015481840181905260185493517f85aa033d00000000000000000000000000000000000000000000000000000000815260048101919091523360248201529092909116906385aa033d90604401602060405180830381600087803b15801561286c57600080fd5b505af1158015612880573d6000803e3d6000fd5b505050506040513d601f19601f820116820180604052508101906128a49190617308565b5060005b816000015160ff168160ff161015610c36576128c782602001516158d5565b50806128d281617887565b9150506128a8565b60006128e560085490565b821061294d576040517f08c379a000000000000000000000000000000000000000000000000000000000815260206004820152600e60248201527f4e6f2073756368207469746c65210000000000000000000000000000000000006044820152606401610a7c565b5060009081526028602052604090205460ff1690565b6000828152600e6020526040812060058101544211612a03576040517f08c379a0000000000000000000000000000000000000000000000000000000008152602060048201526024808201527f50726f706f736974696f6e20766f74696e67206973207374696c6c206f6e676f60448201527f696e672e000000000000000000000000000000000000000000000000000000006064820152608401610a7c565b62278d00816005015442612a179190617795565b10612aa4576040517f08c379a000000000000000000000000000000000000000000000000000000000815260206004820152603060248201527f457865637574696f6e206f6620657870697265642070726f706f736974696f6e60448201527f206973206e6f7420616c6c6f7765642e000000000000000000000000000000006064820152608401610a7c565b612aad84615ae8565b612b39576040517f08c379a000000000000000000000000000000000000000000000000000000000815260206004820152602260248201527f50726f706f736974696f6e20686173206e6f74206265656e20617070726f766560448201527f642e0000000000000000000000000000000000000000000000000000000000006064820152608401610a7c565b600681015460ff1615612ba8576040517f08c379a000000000000000000000000000000000000000000000000000000000815260206004820152601d60248201527f50726f706f736974696f6e20616c72656164792065786563757465642e0000006044820152606401610a7c565b600281015473ffffffffffffffffffffffffffffffffffffffff163314612c77576040517f08c379a000000000000000000000000000000000000000000000000000000000815260206004820152604260248201527f54686973206973206e6f74207468652064656d6f63726174697a656420636f6e60448201527f7472616374207468617420696e69746961746564207468652070726f706f736160648201527f6c2e000000000000000000000000000000000000000000000000000000000000608482015260a401610a7c565b6006810180547fffffffffffffffffffffffffffffffffffffffffffffffffffffffffffffff001660011790556040805185815273ffffffffffffffffffffffffffffffffffffffff851660208201527f9dc434e2ccbaa88f9c399d53eeb38db0706adfb1d49bb3152fb14a53b3995eb0910160405180910390a15092915050565b6000612d2383624c4b4084612d114262015180617707565b612d1e426202a300617707565b615b30565b9392505050565b6000818152600e60209081526040808320815160e08101835281548152600182015473ffffffffffffffffffffffffffffffffffffffff9081169482019490945260028201549093169183019190915260038101546060830152600481015460808301819052600582015460a084015260069091015460ff16151560c0830152421080612dbb57508060a001514210155b15612dc95750600092915050565b612d2383615ae8565b60606001805461094c906177d8565b602b548110612e4c576040517f08c379a000000000000000000000000000000000000000000000000000000000815260206004820152601060248201527f4e6f207375636820726571756573742e000000000000000000000000000000006044820152606401610a7c565b6000818152602e60209081526040918290208251608081018452815460ff90811682526001830154938201939093526002820154909216151582840152600301546060820181905260185492517f85aa033d0000000000000000000000000000000000000000000000000000000081526004810191909152336024820152909173ffffffffffffffffffffffffffffffffffffffff16906385aa033d90604401602060405180830381600087803b158015612f0657600080fd5b505af1158015612f1a573d6000803e3d6000fd5b505050506040513d601f19601f82011682018060405250810190612f3e9190617308565b50806040015115612f6657602081810151915160ff1660009081526029909152604090205550565b602081810151825160ff1660009081526029909252604090912060010180547fffffffffffffffffffffffffffffffffffffffffffffffff00000000000000001667ffffffffffffffff9092169190911790555b5050565b60606000835167ffffffffffffffff811115612fdc57612fdc6179a6565b604051908082528060200260200182016040528015613005578160200160208202803683370190505b50905060005b845181101561372c57600085828151811061302857613028617977565b6020908102919091018101516000898152601483526040808220838352909352919091205490915060ff1615613106576040517f08c379a000000000000000000000000000000000000000000000000000000000815260206004820152604160248201527f5468697320766f7465722068617320616c72656164792063617374207468656960448201527f7220766f746520666f722074686520676976656e2070726f706f736974696f6e60648201527f2e00000000000000000000000000000000000000000000000000000000000000608482015260a401610a7c565b600a546040517f1e7aa37d0000000000000000000000000000000000000000000000000000000081526004810183905260009173ffffffffffffffffffffffffffffffffffffffff1690631e7aa37d9060240160206040518083038186803b15801561317157600080fd5b505afa158015613185573d6000803e3d6000fd5b505050506040513d601f19601f820116820180604052508101906131a991906173e5565b905060008111613215576040517f08c379a000000000000000000000000000000000000000000000000000000000815260206004820181905260248201527f5468697320766f74657220686173206e6f20766f74696e67207765696768742e6044820152606401610a7c565b600a546040517f500896210000000000000000000000000000000000000000000000000000000081523360048201526024810184905273ffffffffffffffffffffffffffffffffffffffff9091169063500896219060440160206040518083038186803b15801561328557600080fd5b505afa158015613299573d6000803e3d6000fd5b505050506040513d601f19601f820116820180604052508101906132bd9190617308565b613349576040517f08c379a000000000000000000000000000000000000000000000000000000000815260206004820152603560248201527f5468652073656e64657220646f6573206e6f74206861766520706f776572207460448201527f6f20766f746520756e64657220746869732049442e00000000000000000000006064820152608401610a7c565b6000888152601460209081526040808320858452825280832080547fffffffffffffffffffffffffffffffffffffffffffffffffffffffffffffff001660011790558a8352600e9091529020600481015442108015906133ac5750806005015442105b613412576040517f08c379a000000000000000000000000000000000000000000000000000000000815260206004820152601560248201527f496e6163746976652070726f706f736974696f6e2e00000000000000000000006044820152606401610a7c565b600d8054908190600061342483617826565b909155505060008a815260116020526040812080549182919061344683617826565b91905055506040518060e001604052808381526020013373ffffffffffffffffffffffffffffffffffffffff1681526020018681526020018c81526020018281526020018a1515815260200185815250601060008481526020019081526020016000206000820151816000015560208201518160010160006101000a81548173ffffffffffffffffffffffffffffffffffffffff021916908373ffffffffffffffffffffffffffffffffffffffff16021790555060408201518160020155606082015181600301556080820151816004015560a08201518160050160006101000a81548160ff02191690831515021790555060c0820151816006015590505060106000838152602001908152602001600020600f60008d81526020019081526020016000206000838152602001908152602001600020600082015481600001556001820160009054906101000a900473ffffffffffffffffffffffffffffffffffffffff168160010160006101000a81548173ffffffffffffffffffffffffffffffffffffffff021916908373ffffffffffffffffffffffffffffffffffffffff1602179055506002820154816002015560038201548160030155600482015481600401556005820160009054906101000a900460ff168160050160006101000a81548160ff0219169083151502179055506006820154816006015590505088156136745760008b81526012602052604081208054869290613669908490617707565b909155506136989050565b60008b81526013602052604081208054869290613692908490617707565b90915550505b60408051838152336020820152908101869052606081018c90526080810182905289151560a082015260c081018590527f1b1281172c5f1b23ee6378b9604001823bf5d738b7447da0a8b63d3e04468fe79060e00160405180910390a18187878151811061370857613708617977565b6020026020010181815250505050505050808061372490617826565b91505061300b565b50949350505050565b60006119bf858585624c4b408661374f4262015180617707565b61375c426202a300617707565b615cc4565b612fba338383615e4b565b602d5481106137d7576040517f08c379a000000000000000000000000000000000000000000000000000000000815260206004820152601060248201527f4e6f207375636820726571756573742e000000000000000000000000000000006044820152606401610a7c565b60008181526030602052604080822081518083019092528054829082906137fd906177d8565b80601f0160208091040260200160405190810160405280929190818152602001828054613829906177d8565b80156138765780601f1061384b57610100808354040283529160200191613876565b820191906000526020600020905b81548152906001019060200180831161385957829003601f168201915b505050918352505060019190910154602091820152601854908201516040517f85aa033d000000000000000000000000000000000000000000000000000000008152600481019190915233602482015291925073ffffffffffffffffffffffffffffffffffffffff16906385aa033d90604401602060405180830381600087803b15801561390357600080fd5b505af1158015613917573d6000803e3d6000fd5b505050506040513d601f19601f8201168201806040525081019061393b9190617308565b5080518051610c3691602a91602090910190616d4a565b61395c33836152f3565b6139e8576040517f08c379a000000000000000000000000000000000000000000000000000000000815260206004820152603160248201527f4552433732313a207472616e736665722063616c6c6572206973206e6f74206f60448201527f776e6572206e6f7220617070726f7665640000000000000000000000000000006064820152608401610a7c565b6139f484848484615f79565b50505050565b600b5473ffffffffffffffffffffffffffffffffffffffff163314613a1e57600080fd5b600a5473ffffffffffffffffffffffffffffffffffffffff1615613a9e576040517f08c379a000000000000000000000000000000000000000000000000000000000815260206004820152601c60248201527f52696768747320636f6e747261637420616c7265616479207365742e000000006044820152606401610a7c565b600a80547fffffffffffffffffffffffff00000000000000000000000000000000000000001673ffffffffffffffffffffffffffffffffffffffff92909216919091179055565b6000600d8260ff1610613b54576040517f08c379a000000000000000000000000000000000000000000000000000000000815260206004820152600d60248201527f4e6f20737563682072616e6b21000000000000000000000000000000000000006044820152606401610a7c565b5060ff1660009081526029602052604090205490565b6021548110613bd5576040517f08c379a000000000000000000000000000000000000000000000000000000000815260206004820152601060248201527f4e6f207375636820726571756573742e000000000000000000000000000000006044820152606401610a7c565b6000818152601c6020908152604091829020825160a081018452815473ffffffffffffffffffffffffffffffffffffffff90811682526001830154938201939093526002820154818501526003820154831660608201526004918201546080820181905260185494517f85aa033d0000000000000000000000000000000000000000000000000000000081529283015233602483015292909116906385aa033d90604401602060405180830381600087803b158015613c9357600080fd5b505af1158015613ca7573d6000803e3d6000fd5b505050506040513d601f19601f82011682018060405250810190613ccb9190617308565b5080516060820151602083015160408085015190517ff242432a00000000000000000000000000000000000000000000000000000000815230600482015273ffffffffffffffffffffffffffffffffffffffff93841660248201526044810192909252606482015260a06084820152600060a48201529082169063f242432a9060c40161195c565b6017548110613dbe576040517f08c379a000000000000000000000000000000000000000000000000000000000815260206004820152601060248201527f4e6f207375636820726571756573742e000000000000000000000000000000006044820152606401610a7c565b600081815260166020908152604080832081518083018352815461ffff1681526001909101548184018190528452600e90925290912060058101544211613e86576040517f08c379a0000000000000000000000000000000000000000000000000000000008152602060048201526024808201527f50726f706f736974696f6e20766f74696e67206973207374696c6c206f6e676f60448201527f696e672e000000000000000000000000000000000000000000000000000000006064820152608401610a7c565b613e938260200151615ae8565b613f1f576040517f08c379a000000000000000000000000000000000000000000000000000000000815260206004820152602260248201527f50726f706f736974696f6e20686173206e6f74206265656e20617070726f766560448201527f642e0000000000000000000000000000000000000000000000000000000000006064820152608401610a7c565b600681015460ff1615613f8e576040517f08c379a000000000000000000000000000000000000000000000000000000000815260206004820152601d60248201527f50726f706f736974696f6e20616c72656164792065786563757465642e0000006044820152606401610a7c565b6006810180547fffffffffffffffffffffffffffffffffffffffffffffffffffffffffffffff0016600117905560208201516040517f9dc434e2ccbaa88f9c399d53eeb38db0706adfb1d49bb3152fb14a53b3995eb09161400f91339091825273ffffffffffffffffffffffffffffffffffffffff16602082015260400190565b60405180910390a15051601580547fffffffffffffffffffffffffffffffffffffffffffffffffffffffffffff00001661ffff90921691909117905550565b60008181526002602052604090205460609073ffffffffffffffffffffffffffffffffffffffff16614102576040517f08c379a000000000000000000000000000000000000000000000000000000000815260206004820152602f60248201527f4552433732314d657461646174613a2055524920717565727920666f72206e6f60448201527f6e6578697374656e7420746f6b656e00000000000000000000000000000000006064820152608401610a7c565b600061410c61601c565b9050600081511161412c5760405180602001604052806000815250612d23565b806141368461602b565b6040516020016141479291906175b2565b6040516020818303038152906040529392505050565b6000818152600e60209081526040808320815160e08101835281548152600182015473ffffffffffffffffffffffffffffffffffffffff9081169482019490945260028201549093169183019190915260038101546060830152600481015460808301819052600582015460a084015260069091015460ff16151560c08301524210801590612d23575060a00151421092915050565b6000610cec8484624c4b408561420c4262015180617707565b614219426202a300617707565b61615d565b6000610cec8484624c4b40856142374262015180617707565b614244426202a300617707565b6162d6565b601f5481106142b4576040517f08c379a000000000000000000000000000000000000000000000000000000000815260206004820152601060248201527f4e6f207375636820726571756573742e000000000000000000000000000000006044820152606401610a7c565b6000818152601a60209081526040918290208251608081018452815473ffffffffffffffffffffffffffffffffffffffff908116825260018301549382019390935260028201548316818501526003909101546060820181905260185493517f85aa033d00000000000000000000000000000000000000000000000000000000815260048101919091523360248201529092909116906385aa033d90604401602060405180830381600087803b15801561436d57600080fd5b505af1158015614381573d6000803e3d6000fd5b505050506040513d601f19601f820116820180604052508101906143a59190617308565b508051604080830151602084015191517f23b872dd00000000000000000000000000000000000000000000000000000000815230600482015273ffffffffffffffffffffffffffffffffffffffff918216602482015260448101929092528216906323b872dd90606401602060405180830381600087803b15801561442957600080fd5b505af115801561443d573d6000803e3d6000fd5b505050506040513d601f19601f820116820180604052508101906139f49190617308565b600083815260146020908152604080832085845290915281205460ff1615614531576040517f08c379a000000000000000000000000000000000000000000000000000000000815260206004820152604160248201527f5468697320766f7465722068617320616c72656164792063617374207468656960448201527f7220766f746520666f722074686520676976656e2070726f706f736974696f6e60648201527f2e00000000000000000000000000000000000000000000000000000000000000608482015260a401610a7c565b600a546040517f1e7aa37d0000000000000000000000000000000000000000000000000000000081526004810185905260009173ffffffffffffffffffffffffffffffffffffffff1690631e7aa37d9060240160206040518083038186803b15801561459c57600080fd5b505afa1580156145b0573d6000803e3d6000fd5b505050506040513d601f19601f820116820180604052508101906145d491906173e5565b905060008111614640576040517f08c379a000000000000000000000000000000000000000000000000000000000815260206004820181905260248201527f5468697320766f74657220686173206e6f20766f74696e67207765696768742e6044820152606401610a7c565b600a546040517f500896210000000000000000000000000000000000000000000000000000000081523360048201526024810186905273ffffffffffffffffffffffffffffffffffffffff9091169063500896219060440160206040518083038186803b1580156146b057600080fd5b505afa1580156146c4573d6000803e3d6000fd5b505050506040513d601f19601f820116820180604052508101906146e89190617308565b614774576040517f08c379a000000000000000000000000000000000000000000000000000000000815260206004820152603560248201527f5468652073656e64657220646f6573206e6f74206861766520706f776572207460448201527f6f20766f746520756e64657220746869732049442e00000000000000000000006064820152608401610a7c565b6000858152601460209081526040808320878452825280832080547fffffffffffffffffffffffffffffffffffffffffffffffffffffffffffffff00166001179055878352600e9091529020600481015442108015906147d75750806005015442105b61483d576040517f08c379a000000000000000000000000000000000000000000000000000000000815260206004820152601560248201527f496e6163746976652070726f706f736974696f6e2e00000000000000000000006044820152606401610a7c565b600d8054908190600061484f83617826565b9091555050600087815260116020526040812080549182919061487183617826565b91905055506040518060e001604052808381526020013373ffffffffffffffffffffffffffffffffffffffff168152602001888152602001898152602001828152602001871515815260200185815250601060008481526020019081526020016000206000820151816000015560208201518160010160006101000a81548173ffffffffffffffffffffffffffffffffffffffff021916908373ffffffffffffffffffffffffffffffffffffffff16021790555060408201518160020155606082015181600301556080820151816004015560a08201518160050160006101000a81548160ff02191690831515021790555060c0820151816006015590505060106000838152602001908152602001600020600f60008a81526020019081526020016000206000838152602001908152602001600020600082015481600001556001820160009054906101000a900473ffffffffffffffffffffffffffffffffffffffff168160010160006101000a81548173ffffffffffffffffffffffffffffffffffffffff021916908373ffffffffffffffffffffffffffffffffffffffff1602179055506002820154816002015560038201548160030155600482015481600401556005820160009054906101000a900460ff168160050160006101000a81548160ff021916908315150217905550600682015481600601559050508515614a9f5760008881526012602052604081208054869290614a94908490617707565b90915550614ac39050565b60008881526013602052604081208054869290614abd908490617707565b90915550505b60408051838152336020820152908101889052606081018990526080810182905286151560a082015260c081018590527f1b1281172c5f1b23ee6378b9604001823bf5d738b7447da0a8b63d3e04468fe79060e00160405180910390a1509695505050505050565b601e548110614b96576040517f08c379a000000000000000000000000000000000000000000000000000000000815260206004820152601060248201527f4e6f207375636820726571756573742e000000000000000000000000000000006044820152606401610a7c565b600081815260196020908152604091829020825160608101845281548152600182015473ffffffffffffffffffffffffffffffffffffffff9081169382019390935260029091015481840181905260185493517f85aa033d00000000000000000000000000000000000000000000000000000000815260048101919091523360248201529092909116906385aa033d90604401602060405180830381600087803b158015614c4357600080fd5b505af1158015614c57573d6000803e3d6000fd5b505050506040513d601f19601f82011682018060405250810190614c7b9190617308565b506020810151815160405173ffffffffffffffffffffffffffffffffffffffff9092169181156108fc0291906000818181858888f19350505050158015610c36573d6000803e3d6000fd5b6020548110614d31576040517f08c379a000000000000000000000000000000000000000000000000000000000815260206004820152601060248201527f4e6f207375636820726571756573742e000000000000000000000000000000006044820152606401610a7c565b6000818152601b60209081526040918290208251608081018452815473ffffffffffffffffffffffffffffffffffffffff908116825260018301549382019390935260028201548316818501526003909101546060820181905260185493517f85aa033d00000000000000000000000000000000000000000000000000000000815260048101919091523360248201529092909116906385aa033d90604401602060405180830381600087803b158015614dea57600080fd5b505af1158015614dfe573d6000803e3d6000fd5b505050506040513d601f19601f82011682018060405250810190614e229190617308565b508051604080830151602084015191517f42842e0e00000000000000000000000000000000000000000000000000000000815230600482015273ffffffffffffffffffffffffffffffffffffffff918216602482015260448101929092528216906342842e0e9060640161195c565b6000600d8360ff1610614f00576040517f08c379a000000000000000000000000000000000000000000000000000000000815260206004820152601460248201527f4e6f20737563682072616e6b206578697374732e0000000000000000000000006044820152606401610a7c565b60008211614f6a576040517f08c379a000000000000000000000000000000000000000000000000000000000815260206004820152601e60248201527f46726565206d696e74696e67206973206e6576657220616c6c6f7765642e00006044820152606401610a7c565b602b80549081906000614f7c83617826565b909155505060185460009073ffffffffffffffffffffffffffffffffffffffff16634a0e2aa133624c4b40614fb44262015180617707565b614fc142620a8c00617707565b6040517fffffffff0000000000000000000000000000000000000000000000000000000060e087901b16815273ffffffffffffffffffffffffffffffffffffffff9094166004850152602484019290925260448301526064820152608401602060405180830381600087803b15801561503957600080fd5b505af115801561504d573d6000803e3d6000fd5b505050506040513d601f19601f8201168201806040525081019061507191906173e5565b6040805160808101825260ff8089168252602080830189815260018486018181526060860197885260008a8152602e909452959092209351845493167fffffffffffffffffffffffffffffffffffffffffffffffffffffffffffffff00938416178455519083015591516002820180549115159190931617909155905160039091015550905092915050565b73ffffffffffffffffffffffffffffffffffffffff163b151590565b60007fffffffff0000000000000000000000000000000000000000000000000000000082167f80ac58cd0000000000000000000000000000000000000000000000000000000014806151ac57507fffffffff0000000000000000000000000000000000000000000000000000000082167f5b5e139f00000000000000000000000000000000000000000000000000000000145b806151f857507fffffffff0000000000000000000000000000000000000000000000000000000082167f780e9d6300000000000000000000000000000000000000000000000000000000145b8061524457507fffffffff0000000000000000000000000000000000000000000000000000000082167fd9b67a2600000000000000000000000000000000000000000000000000000000145b80610937575061093782616491565b600081815260046020526040902080547fffffffffffffffffffffffff00000000000000000000000000000000000000001673ffffffffffffffffffffffffffffffffffffffff841690811790915581906152ad826119c8565b73ffffffffffffffffffffffffffffffffffffffff167f8c5be1e5ebec7d5bd14f71427d1e84f3dd0314c0f7b2291e5b200ac8c7c3b92560405160405180910390a45050565b60008181526002602052604081205473ffffffffffffffffffffffffffffffffffffffff166153a4576040517f08c379a000000000000000000000000000000000000000000000000000000000815260206004820152602c60248201527f4552433732313a206f70657261746f7220717565727920666f72206e6f6e657860448201527f697374656e7420746f6b656e00000000000000000000000000000000000000006064820152608401610a7c565b60006153af836119c8565b90508073ffffffffffffffffffffffffffffffffffffffff168473ffffffffffffffffffffffffffffffffffffffff16148061541e57508373ffffffffffffffffffffffffffffffffffffffff16615406846109cf565b73ffffffffffffffffffffffffffffffffffffffff16145b80610cec575073ffffffffffffffffffffffffffffffffffffffff80821660009081526005602090815260408083209388168352929052205460ff16610cec565b8273ffffffffffffffffffffffffffffffffffffffff1661547f826119c8565b73ffffffffffffffffffffffffffffffffffffffff1614615522576040517f08c379a000000000000000000000000000000000000000000000000000000000815260206004820152602560248201527f4552433732313a207472616e736665722066726f6d20696e636f72726563742060448201527f6f776e65720000000000000000000000000000000000000000000000000000006064820152608401610a7c565b73ffffffffffffffffffffffffffffffffffffffff82166155c4576040517f08c379a0000000000000000000000000000000000000000000000000000000008152602060048201526024808201527f4552433732313a207472616e7366657220746f20746865207a65726f2061646460448201527f72657373000000000000000000000000000000000000000000000000000000006064820152608401610a7c565b6155cf8383836164e7565b6155da600082615253565b73ffffffffffffffffffffffffffffffffffffffff83166000908152600360205260408120805460019290615610908490617795565b909155505073ffffffffffffffffffffffffffffffffffffffff8216600090815260036020526040812080546001929061564b908490617707565b909155505060008181526002602052604080822080547fffffffffffffffffffffffff00000000000000000000000000000000000000001673ffffffffffffffffffffffffffffffffffffffff86811691821790925591518493918716917fddf252ad1be2c89b69c2b068fc378daa952ba7f163c4a11628f55a4df523b3ef91a4505050565b602280546000918190836156e483617826565b90915550506018546040517f4a0e2aa100000000000000000000000000000000000000000000000000000000815233600482015260248101889052604481018690526064810185905260009173ffffffffffffffffffffffffffffffffffffffff1690634a0e2aa190608401602060405180830381600087803b15801561576a57600080fd5b505af115801561577e573d6000803e3d6000fd5b505050506040513d601f19601f820116820180604052508101906157a291906173e5565b6040805160a08101825273ffffffffffffffffffffffffffffffffffffffff8d8116825260208083018e81528385018e90528b83166060850152608084018690526000888152601d835294909420835181547fffffffffffffffffffffffff0000000000000000000000000000000000000000169316929092178255925180519495509193909261583a926001850192910190616dce565b5060408201518051615856916002840191602090910190616dce565b5060608201516003820180547fffffffffffffffffffffffff00000000000000000000000000000000000000001673ffffffffffffffffffffffffffffffffffffffff9092169190911790556080909101516004909101559998505050505050505050565b612fba8282604051806020016040528060008152506165ed565b602380546000917401000000000000000000000000000000000000000090910467ffffffffffffffff16908190601461590d8361785f565b82546101009290920a67ffffffffffffffff8181021990931691831602179091556040805160c081018252600080825260208083018781528385018381527fb7634ec2165a7280a285aac3ec10cf370eca86d8aa9d3243c90b2151434091ad8054881660608701908152608087018681523360a089019081528c885260288752988720975188547fffffffffffffffffffffffffffffffffffffffffffffffffffffffffffffff001660ff9091161788559351600188015591516002870155905160038601805493519189167fffffffffffffffffffffffffffffffff00000000000000000000000000000000909416939093176801000000000000000091891691909102179091559351600490930180547fffffffffffffffffffffffff00000000000000000000000000000000000000001673ffffffffffffffffffffffffffffffffffffffff9094169390931790925580805260249091528154909216925090615a798361785f565b91906101000a81548167ffffffffffffffff021916908367ffffffffffffffff16021790555050615aaa83826158bb565b604080518281523360208201527fb31d8e8fa42b269769f65cb3fbee94d28efb43a3a870e2417a6aef591601a9f8910160405180910390a192915050565b6000818152600e60209081526040808320600301546013835281842054601290935290832054909190615b1e90620186a0617758565b615b289190617744565b101592915050565b601e8054600091819083615b4383617826565b90915550506018546040517f4a0e2aa100000000000000000000000000000000000000000000000000000000815233600482015260248101889052604481018690526064810185905260009173ffffffffffffffffffffffffffffffffffffffff1690634a0e2aa190608401602060405180830381600087803b158015615bc957600080fd5b505af1158015615bdd573d6000803e3d6000fd5b505050506040513d601f19601f82011682018060405250810190615c0191906173e5565b604080516060810182528a815273ffffffffffffffffffffffffffffffffffffffff89811660208084019182528385018681526000898152601983528690209451855591516001850180547fffffffffffffffffffffffff00000000000000000000000000000000000000001691909416179092555160029092019190915581518b81529081018590529192507f5bd988af35b5d201645e02c3e7c48d1829b4d37cc8a45258eaf0719b1de6d395910160405180910390a1979650505050505050565b60218054600091819083615cd783617826565b90915550506018546040517f4a0e2aa100000000000000000000000000000000000000000000000000000000815233600482015260248101889052604481018690526064810185905260009173ffffffffffffffffffffffffffffffffffffffff1690634a0e2aa190608401602060405180830381600087803b158015615d5d57600080fd5b505af1158015615d71573d6000803e3d6000fd5b505050506040513d601f19601f82011682018060405250810190615d9591906173e5565b6040805160a08101825273ffffffffffffffffffffffffffffffffffffffff9c8d16815260208082019c8d528183019b8c52988d1660608201908152608082018481526000968752601c909a529190942093518454908d167fffffffffffffffffffffffff00000000000000000000000000000000000000009182161785559a51600185015598516002840155975160038301805491909b16991698909817909855505090516004909501949094555092915050565b8173ffffffffffffffffffffffffffffffffffffffff168373ffffffffffffffffffffffffffffffffffffffff161415615ee1576040517f08c379a000000000000000000000000000000000000000000000000000000000815260206004820152601960248201527f4552433732313a20617070726f766520746f2063616c6c6572000000000000006044820152606401610a7c565b73ffffffffffffffffffffffffffffffffffffffff83811660008181526005602090815260408083209487168084529482529182902080547fffffffffffffffffffffffffffffffffffffffffffffffffffffffffffffff001686151590811790915591519182527f17307eab39ab6107e8899845ad3d59bd9653f200f220920489ca2b5937696c31910160405180910390a3505050565b615f8484848461545f565b615f9084848484616690565b6139f4576040517f08c379a000000000000000000000000000000000000000000000000000000000815260206004820152603260248201527f4552433732313a207472616e7366657220746f206e6f6e20455243373231526560448201527f63656976657220696d706c656d656e74657200000000000000000000000000006064820152608401610a7c565b6060602a805461094c906177d8565b60608161606b57505060408051808201909152600181527f3000000000000000000000000000000000000000000000000000000000000000602082015290565b8160005b8115616095578061607f81617826565b915061608e9050600a83617744565b915061606f565b60008167ffffffffffffffff8111156160b0576160b06179a6565b6040519080825280601f01601f1916602001820160405280156160da576020820181803683370190505b5090505b8415610cec576160ef600183617795565b91506160fc600a866178a7565b616107906030617707565b60f81b81838151811061611c5761611c617977565b60200101907effffffffffffffffffffffffffffffffffffffffffffffffffffffffffffff1916908160001a905350616156600a86617744565b94506160de565b6020805460009181908361617083617826565b90915550506018546040517f4a0e2aa100000000000000000000000000000000000000000000000000000000815233600482015260248101889052604481018690526064810185905260009173ffffffffffffffffffffffffffffffffffffffff1690634a0e2aa190608401602060405180830381600087803b1580156161f657600080fd5b505af115801561620a573d6000803e3d6000fd5b505050506040513d601f19601f8201168201806040525081019061622e91906173e5565b6040805160808101825273ffffffffffffffffffffffffffffffffffffffff9b8c16815260208082019b8c52988c16818301908152606082018481526000968752601b909a529190942093518454908c167fffffffffffffffffffffffff0000000000000000000000000000000000000000918216178555995160018501555160028401805491909b1699169890981790985593516003909401939093555092949350505050565b601f80546000918190836162e983617826565b90915550506018546040517f4a0e2aa100000000000000000000000000000000000000000000000000000000815233600482015260248101889052604481018690526064810185905260009173ffffffffffffffffffffffffffffffffffffffff1690634a0e2aa190608401602060405180830381600087803b15801561636f57600080fd5b505af1158015616383573d6000803e3d6000fd5b505050506040513d601f19601f820116820180604052508101906163a791906173e5565b6040805160808101825273ffffffffffffffffffffffffffffffffffffffff8c811680835260208084018e81528c8416858701908152606080870189815260008c8152601a8652899020975188549088167fffffffffffffffffffffffff000000000000000000000000000000000000000091821617895593516001890155915160028801805491909716931692909217909455925160039094019390935583519081529182018c90529181018590529192507f910585f63acc02d6018f09a37fbaabc1337981145d31b4ec43b8d459e8ce67ba910160405180910390a198975050505050505050565b60007fffffffff0000000000000000000000000000000000000000000000000000000082167f4e2312e000000000000000000000000000000000000000000000000000000000148061093757506109378261688c565b73ffffffffffffffffffffffffffffffffffffffff831661654f5761654a81600880546000838152600960205260408120829055600182018355919091527ff3f7a9fe364faab93b216da50a3214154f22a0a2b415b23a84c8169e8b636ee30155565b61658c565b8173ffffffffffffffffffffffffffffffffffffffff168373ffffffffffffffffffffffffffffffffffffffff161461658c5761658c83826168e2565b73ffffffffffffffffffffffffffffffffffffffff82166165b057610c3681616999565b8273ffffffffffffffffffffffffffffffffffffffff168273ffffffffffffffffffffffffffffffffffffffff1614610c3657610c368282616a48565b6165f78383616a99565b6166046000848484616690565b610c36576040517f08c379a000000000000000000000000000000000000000000000000000000000815260206004820152603260248201527f4552433732313a207472616e7366657220746f206e6f6e20455243373231526560448201527f63656976657220696d706c656d656e74657200000000000000000000000000006064820152608401610a7c565b600073ffffffffffffffffffffffffffffffffffffffff84163b15616884576040517f150b7a0200000000000000000000000000000000000000000000000000000000815273ffffffffffffffffffffffffffffffffffffffff85169063150b7a0290616707903390899088908890600401617649565b602060405180830381600087803b15801561672157600080fd5b505af192505050801561676f575060408051601f3d9081017fffffffffffffffffffffffffffffffffffffffffffffffffffffffffffffffe016820190925261676c91810190617342565b60015b616839573d80801561679d576040519150601f19603f3d011682016040523d82523d6000602084013e6167a2565b606091505b508051616831576040517f08c379a000000000000000000000000000000000000000000000000000000000815260206004820152603260248201527f4552433732313a207472616e7366657220746f206e6f6e20455243373231526560448201527f63656976657220696d706c656d656e74657200000000000000000000000000006064820152608401610a7c565b805181602001fd5b7fffffffff00000000000000000000000000000000000000000000000000000000167f150b7a0200000000000000000000000000000000000000000000000000000000149050610cec565b506001610cec565b60007fffffffff0000000000000000000000000000000000000000000000000000000082167f780e9d63000000000000000000000000000000000000000000000000000000001480610937575061093782616c67565b600060016168ef84612682565b6168f99190617795565b6000838152600760205260409020549091508082146169595773ffffffffffffffffffffffffffffffffffffffff841660009081526006602090815260408083208584528252808320548484528184208190558352600790915290208190555b50600091825260076020908152604080842084905573ffffffffffffffffffffffffffffffffffffffff9094168352600681528383209183525290812055565b6008546000906169ab90600190617795565b600083815260096020526040812054600880549394509092849081106169d3576169d3617977565b9060005260206000200154905080600883815481106169f4576169f4617977565b6000918252602080832090910192909255828152600990915260408082208490558582528120556008805480616a2c57616a2c617948565b6001900381819060005260206000200160009055905550505050565b6000616a5383612682565b73ffffffffffffffffffffffffffffffffffffffff9093166000908152600660209081526040808320868452825280832085905593825260079052919091209190915550565b73ffffffffffffffffffffffffffffffffffffffff8216616b16576040517f08c379a000000000000000000000000000000000000000000000000000000000815260206004820181905260248201527f4552433732313a206d696e7420746f20746865207a65726f20616464726573736044820152606401610a7c565b60008181526002602052604090205473ffffffffffffffffffffffffffffffffffffffff1615616ba2576040517f08c379a000000000000000000000000000000000000000000000000000000000815260206004820152601c60248201527f4552433732313a20746f6b656e20616c7265616479206d696e746564000000006044820152606401610a7c565b616bae600083836164e7565b73ffffffffffffffffffffffffffffffffffffffff82166000908152600360205260408120805460019290616be4908490617707565b909155505060008181526002602052604080822080547fffffffffffffffffffffffff00000000000000000000000000000000000000001673ffffffffffffffffffffffffffffffffffffffff861690811790915590518392907fddf252ad1be2c89b69c2b068fc378daa952ba7f163c4a11628f55a4df523b3ef908290a45050565b60007fffffffff0000000000000000000000000000000000000000000000000000000082167f80ac58cd000000000000000000000000000000000000000000000000000000001480616cfa57507fffffffff0000000000000000000000000000000000000000000000000000000082167f5b5e139f00000000000000000000000000000000000000000000000000000000145b8061093757507f01ffc9a7000000000000000000000000000000000000000000000000000000007fffffffff00000000000000000000000000000000000000000000000000000000831614610937565b828054616d56906177d8565b90600052602060002090601f016020900481019282616d785760008555616dbe565b82601f10616d9157805160ff1916838001178555616dbe565b82800160010185558215616dbe579182015b82811115616dbe578251825591602001919060010190616da3565b50616dca929150616e08565b5090565b828054828255906000526020600020908101928215616dbe5791602002820182811115616dbe578251825591602001919060010190616da3565b5b80821115616dca5760008155600101616e09565b600067ffffffffffffffff831115616e3757616e376179a6565b616e6860207fffffffffffffffffffffffffffffffffffffffffffffffffffffffffffffffe0601f860116016176b8565b9050828152838383011115616e7c57600080fd5b828260208301376000602084830101529392505050565b600082601f830112616ea457600080fd5b8135602067ffffffffffffffff821115616ec057616ec06179a6565b8160051b616ecf8282016176b8565b838152828101908684018388018501891015616eea57600080fd5b600093505b85841015616f0d578035835260019390930192918401918401616eef565b50979650505050505050565b600082601f830112616f2a57600080fd5b612d2383833560208501616e1d565b803560ff81168114616f4a57600080fd5b919050565b600060208284031215616f6157600080fd5b8135612d23816179d5565b60008060408385031215616f7f57600080fd5b8235616f8a816179d5565b91506020830135616f9a816179d5565b809150509250929050565b600080600080600060a08688031215616fbd57600080fd5b8535616fc8816179d5565b94506020860135616fd8816179d5565b9350604086013567ffffffffffffffff80821115616ff557600080fd5b61700189838a01616e93565b9450606088013591508082111561701757600080fd5b61702389838a01616e93565b9350608088013591508082111561703957600080fd5b5061704688828901616f19565b9150509295509295909350565b60008060006060848603121561706857600080fd5b8335617073816179d5565b92506020840135617083816179d5565b929592945050506040919091013590565b600080600080608085870312156170aa57600080fd5b84356170b5816179d5565b935060208501356170c5816179d5565b925060408501359150606085013567ffffffffffffffff8111156170e857600080fd5b6170f487828801616f19565b91505092959194509250565b600080600080600060a0868803121561711857600080fd5b8535617123816179d5565b94506020860135617133816179d5565b93506040860135925060608601359150608086013567ffffffffffffffff81111561715d57600080fd5b61704688828901616f19565b6000806000806080858703121561717f57600080fd5b843561718a816179d5565b9350602085013567ffffffffffffffff808211156171a757600080fd5b6171b388838901616e93565b945060408701359150808211156171c957600080fd5b506171d687828801616e93565b92505060608501356171e7816179d5565b939692955090935050565b6000806040838503121561720557600080fd5b8235617210816179d5565b91506020830135616f9a816179f7565b6000806040838503121561723357600080fd5b823561723e816179d5565b946020939093013593505050565b60008060006060848603121561726157600080fd5b833561726c816179d5565b9250602084013591506040840135617283816179d5565b809150509250925092565b600080600080608085870312156172a457600080fd5b84356172af816179d5565b9350602085013592506040850135915060608501356171e7816179d5565b600080600080608085870312156172e357600080fd5b84356172ee816179d5565b966020860135965060408601359560600135945092505050565b60006020828403121561731a57600080fd5b8151612d23816179f7565b60006020828403121561733757600080fd5b8135612d2381617a05565b60006020828403121561735457600080fd5b8151612d2381617a05565b60006020828403121561737157600080fd5b813567ffffffffffffffff81111561738857600080fd5b8201601f8101841361739957600080fd5b610cec84823560208401616e1d565b6000602082840312156173ba57600080fd5b813561ffff81168114612d2357600080fd5b6000602082840312156173de57600080fd5b5035919050565b6000602082840312156173f757600080fd5b5051919050565b6000806040838503121561741157600080fd5b823591506020830135616f9a816179d5565b60008060006060848603121561743857600080fd5b83359250602084013567ffffffffffffffff81111561745657600080fd5b61746286828701616e93565b9250506040840135617283816179f7565b60008060006060848603121561748857600080fd5b83359250602084013591506040840135617283816179f7565b6000602082840312156174b357600080fd5b612d2382616f39565b600080604083850312156174cf57600080fd5b616f8a83616f39565b600080604083850312156174eb57600080fd5b61723e83616f39565b6000806040838503121561750757600080fd5b61751083616f39565b9150602083013567ffffffffffffffff81168114616f9a57600080fd5b600081518084526020808501945080840160005b8381101561755d57815187529582019590820190600101617541565b509495945050505050565b600081518084526175808160208601602086016177ac565b601f017fffffffffffffffffffffffffffffffffffffffffffffffffffffffffffffffe0169290920160200192915050565b600083516175c48184602088016177ac565b8351908301906175d88183602088016177ac565b01949350505050565b600073ffffffffffffffffffffffffffffffffffffffff808716835280861660208401525060a0604083015261761a60a083018561752d565b828103606084015261762c818561752d565b838103608090940193909352505060008152602001949350505050565b600073ffffffffffffffffffffffffffffffffffffffff8087168352808616602084015250836040830152608060608301526176886080830184617568565b9695505050505050565b602081526000612d23602083018461752d565b602081526000612d236020830184617568565b604051601f82017fffffffffffffffffffffffffffffffffffffffffffffffffffffffffffffffe016810167ffffffffffffffff811182821017156176ff576176ff6179a6565b604052919050565b6000821982111561771a5761771a6178ea565b500190565b600060ff821660ff84168060ff0382111561773c5761773c6178ea565b019392505050565b60008261775357617753617919565b500490565b6000817fffffffffffffffffffffffffffffffffffffffffffffffffffffffffffffffff0483118215151615617790576177906178ea565b500290565b6000828210156177a7576177a76178ea565b500390565b60005b838110156177c75781810151838201526020016177af565b838111156139f45750506000910152565b600181811c908216806177ec57607f821691505b602082108114156112d3577f4e487b7100000000000000000000000000000000000000000000000000000000600052602260045260246000fd5b60007fffffffffffffffffffffffffffffffffffffffffffffffffffffffffffffffff821415617858576178586178ea565b5060010190565b600067ffffffffffffffff8083168181141561787d5761787d6178ea565b6001019392505050565b600060ff821660ff81141561789e5761789e6178ea565b60010192915050565b6000826178b6576178b6617919565b500690565b7f4e487b7100000000000000000000000000000000000000000000000000000000600052600160045260246000fd5b7f4e487b7100000000000000000000000000000000000000000000000000000000600052601160045260246000fd5b7f4e487b7100000000000000000000000000000000000000000000000000000000600052601260045260246000fd5b7f4e487b7100000000000000000000000000000000000000000000000000000000600052603160045260246000fd5b7f4e487b7100000000000000000000000000000000000000000000000000000000600052603260045260246000fd5b7f4e487b7100000000000000000000000000000000000000000000000000000000600052604160045260246000fd5b73ffffffffffffffffffffffffffffffffffffffff81168114610f6d57600080fd5b8015158114610f6d57600080fd5b7fffffffff0000000000000000000000000000000000000000000000000000000081168114610f6d57600080fdfea2646970667358221220de74679d64c41e38d95729ae4a913b7c05933415a7e97d93f432adc7efc0d68e64736f6c634300080700334552433732313a207472616e7366657220746f206e6f6e20455243373231526560806040523480156200001157600080fd5b5060405162004be638038062004be683398101604081905262000034916200039c565b6040518060400160405280600781526020016610dbdb5b585b9960ca1b8152506040518060400160405280600381526020016210d35160ea1b81525067016345785d8a000083606469021e19e0c9bab240000069d3c21bcecceda10000008887878160039080519060200190620000ad929190620002f6565b508051620000c3906004906020840190620002f6565b5050600580546001600160a01b03199081166001600160a01b03948516179091556040805160a08101825288851681526020808201898152928201888152600060608401818152600160808601818152928052601190945293517f4ad3b33220dddc71b994a52d72c06b10862965f7d926534c05c00fb7e819e7b7805490971698169790971790945591517f4ad3b33220dddc71b994a52d72c06b10862965f7d926534c05c00fb7e819e7b85591517f4ad3b33220dddc71b994a52d72c06b10862965f7d926534c05c00fb7e819e7b95590517f4ad3b33220dddc71b994a52d72c06b10862965f7d926534c05c00fb7e819e7ba5591517f4ad3b33220dddc71b994a52d72c06b10862965f7d926534c05c00fb7e819e7bb805460ff1916911515919091179055506010556015859055620001ff33826200020e565b50505050505050505062000458565b6001600160a01b038216620002695760405162461bcd60e51b815260206004820152601f60248201527f45524332303a206d696e7420746f20746865207a65726f206164647265737300604482015260640160405180910390fd5b80600260008282546200027d9190620003db565b90915550506001600160a01b03821660009081526020819052604081208054839290620002ac908490620003db565b90915550506040518181526001600160a01b038316906000907fddf252ad1be2c89b69c2b068fc378daa952ba7f163c4a11628f55a4df523b3ef9060200160405180910390a35050565b828054620003049062000402565b90600052602060002090601f01602090048101928262000328576000855562000373565b82601f106200034357805160ff191683800117855562000373565b8280016001018555821562000373579182015b828111156200037357825182559160200191906001019062000356565b506200038192915062000385565b5090565b5b8082111562000381576000815560010162000386565b60008060408385031215620003b057600080fd5b8251620003bd816200043f565b6020840151909250620003d0816200043f565b809150509250929050565b60008219821115620003fd57634e487b7160e01b600052601160045260246000fd5b500190565b600181811c908216806200041757607f821691505b602082108114156200043957634e487b7160e01b600052602260045260246000fd5b50919050565b6001600160a01b03811681146200045557600080fd5b50565b61477e80620004686000396000f3fe6080604052600436106103345760003560e01c806381989415116101b0578063cd992eec116100ec578063e121158e11610095578063f23a6e611161006f578063f23a6e6114610ab0578063f3a0ae2c14610af5578063fc04e65d14610b15578063fc185b8314610b3557600080fd5b8063e121158e14610a50578063ef0b878414610a70578063f2386a3614610a9057600080fd5b8063d3df2b61116100c6578063d3df2b61146109a8578063dd62ed3e146109c8578063dfe5576b14610a1b57600080fd5b8063cd992eec14610948578063ceb2c00614610968578063d3aab25c1461098857600080fd5b8063a9059cbb11610159578063bc197c8111610133578063bc197c811461087d578063be5baceb146108c2578063c24bf5b8146108e2578063cb131ce61461090257600080fd5b8063a9059cbb14610818578063a94e834b14610838578063bba87a1a1461085857600080fd5b806395d89b411161018a57806395d89b41146107c3578063a1f4225b146107d8578063a457c2d7146107f857600080fd5b806381989415146107585780638b07af2b14610760578063912509001461078057600080fd5b80633ab5e5be1161027f578063635acb8f11610228578063712b71c811610202578063712b71c81461068e57806372f4d88a146106be57806376e9280f146106de5780637ffdf53e1461071b57600080fd5b8063635acb8f146105fb5780636f95f2c31461062b57806370a082311461064b57600080fd5b80635b5a83e3116102595780635b5a83e3146105a45780635eb3009c146105b957806362dfcc07146105db57600080fd5b80633ab5e5be146105425780634ecb779514610562578063586fc5b51461058257600080fd5b806318160ddd116102e157806326140d16116102bb57806326140d16146104e6578063313ce56714610506578063395093511461052257600080fd5b806318160ddd146104815780631d55513b1461049657806323b872dd146104c657600080fd5b8063095ea7b311610312578063095ea7b3146103af5780630a36495e146103cf578063150b7a021461040c57600080fd5b806301ffc9a71461033957806306fdde031461036e57806308d1816914610390575b600080fd5b34801561034557600080fd5b50610359610354366004614354565b610b55565b60405190151581526020015b60405180910390f35b34801561037a57600080fd5b50610383610c95565b60405161036591906144fe565b34801561039c57600080fd5b506015545b604051908152602001610365565b3480156103bb57600080fd5b506103596103ca366004614255565b610d27565b3480156103db57600080fd5b506000805260116020527f4ad3b33220dddc71b994a52d72c06b10862965f7d926534c05c00fb7e819e7b9546103a1565b34801561041857600080fd5b506104506104273660046140f7565b7f150b7a0200000000000000000000000000000000000000000000000000000000949350505050565b6040517fffffffff000000000000000000000000000000000000000000000000000000009091168152602001610365565b34801561048d57600080fd5b506002546103a1565b3480156104a257600080fd5b506103a16104b1366004614396565b60009081526011602052604090206002015490565b3480156104d257600080fd5b506103596104e13660046140b6565b610d3d565b3480156104f257600080fd5b506103a16105013660046142c3565b610e4d565b34801561051257600080fd5b5060405160128152602001610365565b34801561052e57600080fd5b5061035961053d366004614255565b611037565b34801561054e57600080fd5b506103a161055d366004613fb2565b611080565b34801561056e57600080fd5b5061035961057d366004613fb2565b6110da565b34801561058e57600080fd5b50336000908152601360205260409020546103a1565b3480156105b057600080fd5b506014546103a1565b3480156105c557600080fd5b506105d96105d4366004614396565b611152565b005b3480156105e757600080fd5b506103a16105f63660046141cc565b611404565b34801561060757600080fd5b506103a1610616366004614396565b60009081526011602052604090206003015490565b34801561063757600080fd5b506103a1610646366004614396565b611439565b34801561065757600080fd5b506103a1610666366004613fb2565b73ffffffffffffffffffffffffffffffffffffffff1660009081526020819052604090205490565b34801561069a57600080fd5b506103a16106a9366004614396565b60009081526011602052604090206001015490565b3480156106ca57600080fd5b506103a16106d9366004614396565b611612565b3480156106ea57600080fd5b506000805260116020527f4ad3b33220dddc71b994a52d72c06b10862965f7d926534c05c00fb7e819e7ba546103a1565b34801561072757600080fd5b506000805260116020527f4ad3b33220dddc71b994a52d72c06b10862965f7d926534c05c00fb7e819e7b8546103a1565b61035961174d565b34801561076c57600080fd5b506103a161077b3660046143c8565b611897565b34801561078c57600080fd5b506103a161079b366004613fb2565b73ffffffffffffffffffffffffffffffffffffffff1660009081526012602052604090205490565b3480156107cf57600080fd5b506103836118c1565b3480156107e457600080fd5b506103a16107f33660046142f8565b6118d0565b34801561080457600080fd5b50610359610813366004614255565b6118fc565b34801561082457600080fd5b50610359610833366004614255565b6119d4565b34801561084457600080fd5b506103a1610853366004614396565b6119e1565b34801561086457600080fd5b503360009081526016602052604090205460ff16610359565b34801561088957600080fd5b50610450610898366004614008565b7fbc197c810000000000000000000000000000000000000000000000000000000095945050505050565b3480156108ce57600080fd5b506105d96108dd366004614396565b6119ee565b3480156108ee57600080fd5b506105d96108fd366004614396565b611bd7565b34801561090e57600080fd5b5061035961091d366004613fb2565b73ffffffffffffffffffffffffffffffffffffffff1660009081526016602052604090205460ff1690565b34801561095457600080fd5b506103a1610963366004614412565b611d6b565b34801561097457600080fd5b506103a16109833660046143ed565b611f60565b34801561099457600080fd5b506105d96109a3366004614396565b612148565b3480156109b457600080fd5b506105d96109c3366004614396565b61228d565b3480156109d457600080fd5b506103a16109e3366004613fcf565b73ffffffffffffffffffffffffffffffffffffffff918216600090815260016020908152604080832093909416825291909152205490565b348015610a2757600080fd5b5060055460405173ffffffffffffffffffffffffffffffffffffffff9091168152602001610365565b348015610a5c57600080fd5b506103a1610a6b366004614281565b612427565b348015610a7c57600080fd5b506103a1610a8b366004614439565b61245a565b348015610a9c57600080fd5b506103a1610aab366004614281565b612466565b348015610abc57600080fd5b50610450610acb366004614163565b7ff23a6e610000000000000000000000000000000000000000000000000000000095945050505050565b348015610b0157600080fd5b506105d9610b10366004614396565b612491565b348015610b2157600080fd5b506105d9610b30366004614396565b6126af565b348015610b4157600080fd5b506105d9610b50366004614396565b61284a565b60007fffffffff0000000000000000000000000000000000000000000000000000000082167f80ac58cd000000000000000000000000000000000000000000000000000000001480610be857507fffffffff0000000000000000000000000000000000000000000000000000000082167f5b5e139f00000000000000000000000000000000000000000000000000000000145b80610c3457507fffffffff0000000000000000000000000000000000000000000000000000000082167f780e9d6300000000000000000000000000000000000000000000000000000000145b80610c8057507fffffffff0000000000000000000000000000000000000000000000000000000082167fd9b67a2600000000000000000000000000000000000000000000000000000000145b80610c8f5750610c8f82612a15565b92915050565b606060038054610ca49061462a565b80601f0160208091040260200160405190810160405280929190818152602001828054610cd09061462a565b8015610d1d5780601f10610cf257610100808354040283529160200191610d1d565b820191906000526020600020905b815481529060010190602001808311610d0057829003601f168201915b5050505050905090565b6000610d34338484612aac565b50600192915050565b73ffffffffffffffffffffffffffffffffffffffff831660009081526001602090815260408083203384529091528120547fffffffffffffffffffffffffffffffffffffffffffffffffffffffffffffffff8114610e375782811015610e2a576040517f08c379a000000000000000000000000000000000000000000000000000000000815260206004820152602860248201527f45524332303a207472616e7366657220616d6f756e742065786365656473206160448201527f6c6c6f77616e636500000000000000000000000000000000000000000000000060648201526084015b60405180910390fd5b610e378533858403612aac565b610e42858585612c5f565b506001949350505050565b601b8054600091819083610e608361467e565b909155505060055460009073ffffffffffffffffffffffffffffffffffffffff16634a0e2aa133624c4b40610e9842620151806145c0565b610ea542620a8c006145c0565b6040517fffffffff0000000000000000000000000000000000000000000000000000000060e087901b16815273ffffffffffffffffffffffffffffffffffffffff9094166004850152602484019290925260448301526064820152608401602060405180830381600087803b158015610f1d57600080fd5b505af1158015610f31573d6000803e3d6000fd5b505050506040513d601f19601f82011682018060405250810190610f5591906143af565b604080516080808201835273ffffffffffffffffffffffffffffffffffffffff8a811680845260208085018c81528587018c815260608088018a815260008d8152601786528a9020985189547fffffffffffffffffffffffff00000000000000000000000000000000000000001697169690961788559151600188015551600287015592516003909501949094558451888152938401529282018990529181018790529081018290529091507f1d17fc23ee270662541f5c2b538e155ca4a87cbb501982116065d55f8058cfe09060a00160405180910390a150949350505050565b33600081815260016020908152604080832073ffffffffffffffffffffffffffffffffffffffff871684529091528120549091610d3491859061107b9086906145c0565b612aac565b73ffffffffffffffffffffffffffffffffffffffff811660009081526013602052604081205481906110b29042614613565b9050610e108111156110c75750600092915050565b6110d381610e10614613565b9392505050565b73ffffffffffffffffffffffffffffffffffffffff8116600090815260126020526040812054151580610c8f5750506000805260116020527f4ad3b33220dddc71b994a52d72c06b10862965f7d926534c05c00fb7e819e7b75473ffffffffffffffffffffffffffffffffffffffff91821691161490565b600f5481106111bd576040517f08c379a000000000000000000000000000000000000000000000000000000000815260206004820152601060248201527f4e6f207375636820726571756573742e000000000000000000000000000000006044820152606401610e21565b6000818152600a60209081526040808320815160a081018352815473ffffffffffffffffffffffffffffffffffffffff168152600182018054845181870281018701909552808552919492938584019390929083018282801561123f57602002820191906000526020600020905b81548152602001906001019080831161122b575b505050505081526020016002820180548060200260200160405190810160405280929190818152602001828054801561129757602002820191906000526020600020905b815481526020019060010190808311611283575b5050509183525050600382015473ffffffffffffffffffffffffffffffffffffffff9081166020830152600492830154604092830152600554608085015192517f85aa033d00000000000000000000000000000000000000000000000000000000815293840192909252336024840152929350909116906385aa033d90604401602060405180830381600087803b15801561133157600080fd5b505af1158015611345573d6000803e3d6000fd5b505050506040513d601f19601f820116820180604052508101906113699190614337565b5080516060820151602083015160408085015190517f2eb2c2d600000000000000000000000000000000000000000000000000000000815273ffffffffffffffffffffffffffffffffffffffff851693632eb2c2d6936113cd933093600401614496565b600060405180830381600087803b1580156113e757600080fd5b505af11580156113fb573d6000803e3d6000fd5b50505050505050565b6000611430858585624c4b408661141e42620151806145c0565b61142b426202a3006145c0565b612f12565b95945050505050565b6000601b5482106114a6576040517f08c379a000000000000000000000000000000000000000000000000000000000815260206004820152601060248201527f4e6f207375636820726571756573742e000000000000000000000000000000006044820152606401610e21565b6000828152601760209081526040918290208251608081018452815473ffffffffffffffffffffffffffffffffffffffff90811682526001830154938201939093526002820154818501526003909101546060820181905260055493517f85aa033d00000000000000000000000000000000000000000000000000000000815260048101919091523360248201529092909116906385aa033d90604401602060405180830381600087803b15801561155d57600080fd5b505af1158015611571573d6000803e3d6000fd5b505050506040513d601f19601f820116820180604052508101906115959190614337565b5060006115af8260000151836020015184604001516130fc565b8251604080518381526020810188905273ffffffffffffffffffffffffffffffffffffffff909216908201529091507f78876ff03abddc92b8df7fd42c0865ee2bb3decc2d9411ade07a5b6fcd8079cf9060600160405180910390a19392505050565b601d80546000918190836116258361467e565b909155505060055460009073ffffffffffffffffffffffffffffffffffffffff16634a0e2aa133624c4b4061165d42620151806145c0565b61166a42620a8c006145c0565b6040517fffffffff0000000000000000000000000000000000000000000000000000000060e087901b16815273ffffffffffffffffffffffffffffffffffffffff9094166004850152602484019290925260448301526064820152608401602060405180830381600087803b1580156116e257600080fd5b505af11580156116f6573d6000803e3d6000fd5b505050506040513d601f19601f8201168201806040525081019061171a91906143af565b60408051808201825295865260208087019283526000858152601990915220945185555160019094019390935592915050565b3360009081526016602052604081205460ff16156117ed576040517f08c379a000000000000000000000000000000000000000000000000000000000815260206004820152602160248201527f5468697320736d69746820697320616c7265616479207265676973746572656460448201527f2e000000000000000000000000000000000000000000000000000000000000006064820152608401610e21565b6015543414611858576040517f08c379a000000000000000000000000000000000000000000000000000000000815260206004820152600e60248201527f496e636f7272656374206665652e0000000000000000000000000000000000006044820152606401610e21565b5033600090815260166020526040902080547fffffffffffffffffffffffffffffffffffffffffffffffffffffffffffffff0016600190811790915590565b60006110d383624c4b40846118af42620151806145c0565b6118bc426202a3006145c0565b613252565b606060048054610ca49061462a565b6000611430858585624c4b40866118ea42620151806145c0565b6118f7426202a3006145c0565b6133e6565b33600090815260016020908152604080832073ffffffffffffffffffffffffffffffffffffffff86168452909152812054828110156119bd576040517f08c379a000000000000000000000000000000000000000000000000000000000815260206004820152602560248201527f45524332303a2064656372656173656420616c6c6f77616e63652062656c6f7760448201527f207a65726f0000000000000000000000000000000000000000000000000000006064820152608401610e21565b6119ca3385858403612aac565b5060019392505050565b6000610d34338484612c5f565b6000610c8f60008361356d565b600e548110611a59576040517f08c379a000000000000000000000000000000000000000000000000000000000815260206004820152601060248201527f4e6f207375636820726571756573742e000000000000000000000000000000006044820152606401610e21565b600081815260096020908152604091829020825160a081018452815473ffffffffffffffffffffffffffffffffffffffff90811682526001830154938201939093526002820154818501526003820154831660608201526004918201546080820181905260055494517f85aa033d0000000000000000000000000000000000000000000000000000000081529283015233602483015292909116906385aa033d90604401602060405180830381600087803b158015611b1757600080fd5b505af1158015611b2b573d6000803e3d6000fd5b505050506040513d601f19601f82011682018060405250810190611b4f9190614337565b5080516060820151602083015160408085015190517ff242432a00000000000000000000000000000000000000000000000000000000815230600482015273ffffffffffffffffffffffffffffffffffffffff93841660248201526044810192909252606482015260a06084820152600060a48201529082169063f242432a9060c4016113cd565b601b548110611c42576040517f08c379a000000000000000000000000000000000000000000000000000000000815260206004820152601060248201527f4e6f207375636820726571756573742e000000000000000000000000000000006044820152606401610e21565b600081815260186020908152604091829020825160808101845281548152600182015460ff16151592810192909252600281015482840152600301546060820181905260055492517f85aa033d0000000000000000000000000000000000000000000000000000000081526004810191909152336024820152909173ffffffffffffffffffffffffffffffffffffffff16906385aa033d90604401602060405180830381600087803b158015611cf757600080fd5b505af1158015611d0b573d6000803e3d6000fd5b505050506040513d601f19601f82011682018060405250810190611d2f9190614337565b50805160009081526011602090815260409091209082015115611d5b5760408201516001820155505050565b604082015160028201555b505050565b60006010548410611dd8576040517f08c379a000000000000000000000000000000000000000000000000000000000815260206004820152601960248201527f4e6f2073756368207265736f7572636520646566696e65642e000000000000006044820152606401610e21565b601c80549081906000611dea8361467e565b909155505060055460009073ffffffffffffffffffffffffffffffffffffffff16634a0e2aa133624c4b40611e2242620151806145c0565b611e2f42620a8c006145c0565b6040517fffffffff0000000000000000000000000000000000000000000000000000000060e087901b16815273ffffffffffffffffffffffffffffffffffffffff9094166004850152602484019290925260448301526064820152608401602060405180830381600087803b158015611ea757600080fd5b505af1158015611ebb573d6000803e3d6000fd5b505050506040513d601f19601f82011682018060405250810190611edf91906143af565b6040805160808101825297885295151560208089019182528888019687526060890192835260008581526018909152969096209651875594516001870180547fffffffffffffffffffffffffffffffffffffffffffffffffffffffffffffff0016911515919091179055509151600285015550905160039092019190915590565b60006010548310611fcd576040517f08c379a000000000000000000000000000000000000000000000000000000000815260206004820152601960248201527f4e6f2073756368207265736f7572636520646566696e65642e000000000000006044820152606401610e21565b601e80549081906000611fdf8361467e565b909155505060055460009073ffffffffffffffffffffffffffffffffffffffff16634a0e2aa133624c4b4061201742620151806145c0565b61202442620a8c006145c0565b6040517fffffffff0000000000000000000000000000000000000000000000000000000060e087901b16815273ffffffffffffffffffffffffffffffffffffffff9094166004850152602484019290925260448301526064820152608401602060405180830381600087803b15801561209c57600080fd5b505af11580156120b0573d6000803e3d6000fd5b505050506040513d601f19601f820116820180604052508101906120d491906143af565b6040805160608101825296875294151560208088019182528787019283526000858152601a909152959095209551865593516001860180547fffffffffffffffffffffffffffffffffffffffffffffffffffffffffffffff0016911515919091179055509151600290930192909255919050565b601d5481106121b3576040517f08c379a000000000000000000000000000000000000000000000000000000000815260206004820152601060248201527f4e6f207375636820726571756573742e000000000000000000000000000000006044820152606401610e21565b600081815260196020908152604091829020825180840184528154815260019091015491810182905260055492517f85aa033d00000000000000000000000000000000000000000000000000000000815260048101929092523360248301529173ffffffffffffffffffffffffffffffffffffffff16906385aa033d90604401602060405180830381600087803b15801561224d57600080fd5b505af1158015612261573d6000803e3d6000fd5b505050506040513d601f19601f820116820180604052508101906122859190614337565b505160155550565b601e5481106122f8576040517f08c379a000000000000000000000000000000000000000000000000000000000815260206004820152601060248201527f4e6f207375636820726571756573742e000000000000000000000000000000006044820152606401610e21565b6000818152601a6020908152604091829020825160608101845281548152600182015460ff161515928101929092526002015481830181905260055492517f85aa033d0000000000000000000000000000000000000000000000000000000081526004810191909152336024820152909173ffffffffffffffffffffffffffffffffffffffff16906385aa033d90604401602060405180830381600087803b1580156123a357600080fd5b505af11580156123b7573d6000803e3d6000fd5b505050506040513d601f19601f820116820180604052508101906123db9190614337565b5080516000908152601160209081526040909120910151600490910180547fffffffffffffffffffffffffffffffffffffffffffffffffffffffffffffff001691151591909117905550565b60006124528484624c4b408561244042620151806145c0565b61244d426202a3006145c0565b6139ea565b949350505050565b60006110d3838361356d565b60006124528484624c4b408561247f42620151806145c0565b61248c426202a3006145c0565b613b63565b600c5481106124fc576040517f08c379a000000000000000000000000000000000000000000000000000000000815260206004820152601060248201527f4e6f207375636820726571756573742e000000000000000000000000000000006044820152606401610e21565b6000818152600760209081526040918290208251608081018452815473ffffffffffffffffffffffffffffffffffffffff908116825260018301549382019390935260028201548316818501526003909101546060820181905260055493517f85aa033d00000000000000000000000000000000000000000000000000000000815260048101919091523360248201529092909116906385aa033d90604401602060405180830381600087803b1580156125b557600080fd5b505af11580156125c9573d6000803e3d6000fd5b505050506040513d601f19601f820116820180604052508101906125ed9190614337565b508051604080830151602084015191517f23b872dd00000000000000000000000000000000000000000000000000000000815230600482015273ffffffffffffffffffffffffffffffffffffffff918216602482015260448101929092528216906323b872dd90606401602060405180830381600087803b15801561267157600080fd5b505af1158015612685573d6000803e3d6000fd5b505050506040513d601f19601f820116820180604052508101906126a99190614337565b50505050565b600b54811061271a576040517f08c379a000000000000000000000000000000000000000000000000000000000815260206004820152601060248201527f4e6f207375636820726571756573742e000000000000000000000000000000006044820152606401610e21565b600081815260066020908152604091829020825160608101845281548152600182015473ffffffffffffffffffffffffffffffffffffffff9081169382019390935260029091015481840181905260055493517f85aa033d00000000000000000000000000000000000000000000000000000000815260048101919091523360248201529092909116906385aa033d90604401602060405180830381600087803b1580156127c757600080fd5b505af11580156127db573d6000803e3d6000fd5b505050506040513d601f19601f820116820180604052508101906127ff9190614337565b506020810151815160405173ffffffffffffffffffffffffffffffffffffffff9092169181156108fc0291906000818181858888f19350505050158015611d66573d6000803e3d6000fd5b600d5481106128b5576040517f08c379a000000000000000000000000000000000000000000000000000000000815260206004820152601060248201527f4e6f207375636820726571756573742e000000000000000000000000000000006044820152606401610e21565b6000818152600860209081526040918290208251608081018452815473ffffffffffffffffffffffffffffffffffffffff908116825260018301549382019390935260028201548316818501526003909101546060820181905260055493517f85aa033d00000000000000000000000000000000000000000000000000000000815260048101919091523360248201529092909116906385aa033d90604401602060405180830381600087803b15801561296e57600080fd5b505af1158015612982573d6000803e3d6000fd5b505050506040513d601f19601f820116820180604052508101906129a69190614337565b508051604080830151602084015191517f42842e0e00000000000000000000000000000000000000000000000000000000815230600482015273ffffffffffffffffffffffffffffffffffffffff918216602482015260448101929092528216906342842e0e906064016113cd565b60007fffffffff0000000000000000000000000000000000000000000000000000000082167f4e2312e0000000000000000000000000000000000000000000000000000000001480610c8f57507f01ffc9a7000000000000000000000000000000000000000000000000000000007fffffffff00000000000000000000000000000000000000000000000000000000831614610c8f565b73ffffffffffffffffffffffffffffffffffffffff8316612b4e576040517f08c379a0000000000000000000000000000000000000000000000000000000008152602060048201526024808201527f45524332303a20617070726f76652066726f6d20746865207a65726f2061646460448201527f72657373000000000000000000000000000000000000000000000000000000006064820152608401610e21565b73ffffffffffffffffffffffffffffffffffffffff8216612bf1576040517f08c379a000000000000000000000000000000000000000000000000000000000815260206004820152602260248201527f45524332303a20617070726f766520746f20746865207a65726f20616464726560448201527f73730000000000000000000000000000000000000000000000000000000000006064820152608401610e21565b73ffffffffffffffffffffffffffffffffffffffff83811660008181526001602090815260408083209487168084529482529182902085905590518481527f8c5be1e5ebec7d5bd14f71427d1e84f3dd0314c0f7b2291e5b200ac8c7c3b925910160405180910390a3505050565b73ffffffffffffffffffffffffffffffffffffffff8316612d02576040517f08c379a000000000000000000000000000000000000000000000000000000000815260206004820152602560248201527f45524332303a207472616e736665722066726f6d20746865207a65726f20616460448201527f64726573730000000000000000000000000000000000000000000000000000006064820152608401610e21565b73ffffffffffffffffffffffffffffffffffffffff8216612da5576040517f08c379a000000000000000000000000000000000000000000000000000000000815260206004820152602360248201527f45524332303a207472616e7366657220746f20746865207a65726f206164647260448201527f65737300000000000000000000000000000000000000000000000000000000006064820152608401610e21565b73ffffffffffffffffffffffffffffffffffffffff831660009081526020819052604090205481811015612e5b576040517f08c379a000000000000000000000000000000000000000000000000000000000815260206004820152602660248201527f45524332303a207472616e7366657220616d6f756e742065786365656473206260448201527f616c616e636500000000000000000000000000000000000000000000000000006064820152608401610e21565b73ffffffffffffffffffffffffffffffffffffffff808516600090815260208190526040808220858503905591851681529081208054849290612e9f9084906145c0565b925050819055508273ffffffffffffffffffffffffffffffffffffffff168473ffffffffffffffffffffffffffffffffffffffff167fddf252ad1be2c89b69c2b068fc378daa952ba7f163c4a11628f55a4df523b3ef84604051612f0591815260200190565b60405180910390a36126a9565b600f8054600091819083612f258361467e565b90915550506005546040517f4a0e2aa100000000000000000000000000000000000000000000000000000000815233600482015260248101889052604481018690526064810185905260009173ffffffffffffffffffffffffffffffffffffffff1690634a0e2aa190608401602060405180830381600087803b158015612fab57600080fd5b505af1158015612fbf573d6000803e3d6000fd5b505050506040513d601f19601f82011682018060405250810190612fe391906143af565b6040805160a08101825273ffffffffffffffffffffffffffffffffffffffff8d8116825260208083018e81528385018e90528b83166060850152608084018690526000888152600a835294909420835181547fffffffffffffffffffffffff0000000000000000000000000000000000000000169316929092178255925180519495509193909261307b926001850192910190613e3e565b5060408201518051613097916002840191602090910190613e3e565b5060608201516003820180547fffffffffffffffffffffffff00000000000000000000000000000000000000001673ffffffffffffffffffffffffffffffffffffffff9092169190911790556080909101516004909101559998505050505050505050565b6000613107846110da565b1561316e576040517f08c379a000000000000000000000000000000000000000000000000000000000815260206004820152601d60248201527f546f6b656e20616c7265616479206861732061207265736f75726365210000006044820152606401610e21565b6010805490819060006131808361467e565b90915550506040805160a08101825273ffffffffffffffffffffffffffffffffffffffff96871681526020808201968752818301958652600060608301818152600160808501818152878452601190945294909120925183547fffffffffffffffffffffffff00000000000000000000000000000000000000001699169890981782559551918101919091559251600284015593516003830155509051600490910180547fffffffffffffffffffffffffffffffffffffffffffffffffffffffffffffff001691151591909117905590565b600b80546000918190836132658361467e565b90915550506005546040517f4a0e2aa100000000000000000000000000000000000000000000000000000000815233600482015260248101889052604481018690526064810185905260009173ffffffffffffffffffffffffffffffffffffffff1690634a0e2aa190608401602060405180830381600087803b1580156132eb57600080fd5b505af11580156132ff573d6000803e3d6000fd5b505050506040513d601f19601f8201168201806040525081019061332391906143af565b604080516060810182528a815273ffffffffffffffffffffffffffffffffffffffff89811660208084019182528385018681526000898152600683528690209451855591516001850180547fffffffffffffffffffffffff00000000000000000000000000000000000000001691909416179092555160029092019190915581518b81529081018590529192507f5bd988af35b5d201645e02c3e7c48d1829b4d37cc8a45258eaf0719b1de6d395910160405180910390a1979650505050505050565b600e80546000918190836133f98361467e565b90915550506005546040517f4a0e2aa100000000000000000000000000000000000000000000000000000000815233600482015260248101889052604481018690526064810185905260009173ffffffffffffffffffffffffffffffffffffffff1690634a0e2aa190608401602060405180830381600087803b15801561347f57600080fd5b505af1158015613493573d6000803e3d6000fd5b505050506040513d601f19601f820116820180604052508101906134b791906143af565b6040805160a08101825273ffffffffffffffffffffffffffffffffffffffff9c8d16815260208082019c8d528183019b8c52988d16606082019081526080820184815260009687526009909a529190942093518454908d167fffffffffffffffffffffffff00000000000000000000000000000000000000009182161785559a51600185015598516002840155975160038301805491909b16991698909817909855505090516004909501949094555092915050565b600060105483106135da576040517f08c379a000000000000000000000000000000000000000000000000000000000815260206004820152601760248201527f4e6f2073756368207265736f7572636520746f6b656e2e0000000000000000006044820152606401610e21565b600083815260116020908152604091829020825160a081018452815473ffffffffffffffffffffffffffffffffffffffff1681526001820154928101929092526002810154928201839052600381015460608301526004015460ff1615156080820152908311156136cd576040517f08c379a000000000000000000000000000000000000000000000000000000000815260206004820152603f60248201527f54686520666f72676520697320746f6f20736d616c6c20746f2066697420746860448201527f6520616d6f756e74206f66206d6174657269616c207265717565737465642e006064820152608401610e21565b80516040517f70a08231000000000000000000000000000000000000000000000000000000008152336004820152849073ffffffffffffffffffffffffffffffffffffffff8316906370a082319060240160206040518083038186803b15801561373657600080fd5b505afa15801561374a573d6000803e3d6000fd5b505050506040513d601f19601f8201168201806040525081019061376e91906143af565b10156137d6576040517f08c379a000000000000000000000000000000000000000000000000000000000815260206004820152601b60248201527f496e73756666696369656e742066756e647320746f206d696e742e00000000006044820152606401610e21565b6040517fdd62ed3e000000000000000000000000000000000000000000000000000000008152336004820152306024820152849073ffffffffffffffffffffffffffffffffffffffff83169063dd62ed3e9060440160206040518083038186803b15801561384357600080fd5b505afa158015613857573d6000803e3d6000fd5b505050506040513d601f19601f8201168201806040525081019061387b91906143af565b10156138e3576040517f08c379a000000000000000000000000000000000000000000000000000000000815260206004820152601c60248201527f496e73756666696369656e7420617070726f7665642066756e64732e000000006044820152606401610e21565b6040517f23b872dd0000000000000000000000000000000000000000000000000000000081523360048201523060248201526044810185905273ffffffffffffffffffffffffffffffffffffffff8216906323b872dd90606401602060405180830381600087803b15801561395757600080fd5b505af115801561396b573d6000803e3d6000fd5b505050506040513d601f19601f8201168201806040525081019061398f9190614337565b5060008260200151856139a291906145d8565b604080518781526020810183905291925033917f3adf92e6f32049ba19076ba71279a2a6c4a61bf23125ec746c2814b4b03ec16e910160405180910390a26114303382613d1e565b600d80546000918190836139fd8361467e565b90915550506005546040517f4a0e2aa100000000000000000000000000000000000000000000000000000000815233600482015260248101889052604481018690526064810185905260009173ffffffffffffffffffffffffffffffffffffffff1690634a0e2aa190608401602060405180830381600087803b158015613a8357600080fd5b505af1158015613a97573d6000803e3d6000fd5b505050506040513d601f19601f82011682018060405250810190613abb91906143af565b6040805160808101825273ffffffffffffffffffffffffffffffffffffffff9b8c16815260208082019b8c52988c168183019081526060820184815260009687526008909a529190942093518454908c167fffffffffffffffffffffffff0000000000000000000000000000000000000000918216178555995160018501555160028401805491909b1699169890981790985593516003909401939093555092949350505050565b600c8054600091819083613b768361467e565b90915550506005546040517f4a0e2aa100000000000000000000000000000000000000000000000000000000815233600482015260248101889052604481018690526064810185905260009173ffffffffffffffffffffffffffffffffffffffff1690634a0e2aa190608401602060405180830381600087803b158015613bfc57600080fd5b505af1158015613c10573d6000803e3d6000fd5b505050506040513d601f19601f82011682018060405250810190613c3491906143af565b6040805160808101825273ffffffffffffffffffffffffffffffffffffffff8c811680835260208084018e81528c8416858701908152606080870189815260008c815260078652899020975188549088167fffffffffffffffffffffffff000000000000000000000000000000000000000091821617895593516001890155915160028801805491909716931692909217909455925160039094019390935583519081529182018c90529181018590529192507f910585f63acc02d6018f09a37fbaabc1337981145d31b4ec43b8d459e8ce67ba910160405180910390a198975050505050505050565b73ffffffffffffffffffffffffffffffffffffffff8216613d9b576040517f08c379a000000000000000000000000000000000000000000000000000000000815260206004820152601f60248201527f45524332303a206d696e7420746f20746865207a65726f2061646472657373006044820152606401610e21565b8060026000828254613dad91906145c0565b909155505073ffffffffffffffffffffffffffffffffffffffff821660009081526020819052604081208054839290613de79084906145c0565b909155505060405181815273ffffffffffffffffffffffffffffffffffffffff8316906000907fddf252ad1be2c89b69c2b068fc378daa952ba7f163c4a11628f55a4df523b3ef9060200160405180910390a35050565b828054828255906000526020600020908101928215613e79579160200282015b82811115613e79578251825591602001919060010190613e5e565b50613e85929150613e89565b5090565b5b80821115613e855760008155600101613e8a565b600082601f830112613eaf57600080fd5b8135602067ffffffffffffffff821115613ecb57613ecb6146e6565b8160051b613eda828201614571565b838152828101908684018388018501891015613ef557600080fd5b600093505b85841015613f18578035835260019390930192918401918401613efa565b50979650505050505050565b600082601f830112613f3557600080fd5b813567ffffffffffffffff811115613f4f57613f4f6146e6565b613f8060207fffffffffffffffffffffffffffffffffffffffffffffffffffffffffffffffe0601f84011601614571565b818152846020838601011115613f9557600080fd5b816020850160208301376000918101602001919091529392505050565b600060208284031215613fc457600080fd5b81356110d381614715565b60008060408385031215613fe257600080fd5b8235613fed81614715565b91506020830135613ffd81614715565b809150509250929050565b600080600080600060a0868803121561402057600080fd5b853561402b81614715565b9450602086013561403b81614715565b9350604086013567ffffffffffffffff8082111561405857600080fd5b61406489838a01613e9e565b9450606088013591508082111561407a57600080fd5b61408689838a01613e9e565b9350608088013591508082111561409c57600080fd5b506140a988828901613f24565b9150509295509295909350565b6000806000606084860312156140cb57600080fd5b83356140d681614715565b925060208401356140e681614715565b929592945050506040919091013590565b6000806000806080858703121561410d57600080fd5b843561411881614715565b9350602085013561412881614715565b925060408501359150606085013567ffffffffffffffff81111561414b57600080fd5b61415787828801613f24565b91505092959194509250565b600080600080600060a0868803121561417b57600080fd5b853561418681614715565b9450602086013561419681614715565b93506040860135925060608601359150608086013567ffffffffffffffff8111156141c057600080fd5b6140a988828901613f24565b600080600080608085870312156141e257600080fd5b84356141ed81614715565b9350602085013567ffffffffffffffff8082111561420a57600080fd5b61421688838901613e9e565b9450604087013591508082111561422c57600080fd5b5061423987828801613e9e565b925050606085013561424a81614715565b939692955090935050565b6000806040838503121561426857600080fd5b823561427381614715565b946020939093013593505050565b60008060006060848603121561429657600080fd5b83356142a181614715565b92506020840135915060408401356142b881614715565b809150509250925092565b6000806000606084860312156142d857600080fd5b83356142e381614715565b95602085013595506040909401359392505050565b6000806000806080858703121561430e57600080fd5b843561431981614715565b93506020850135925060408501359150606085013561424a81614715565b60006020828403121561434957600080fd5b81516110d38161473a565b60006020828403121561436657600080fd5b81357fffffffff00000000000000000000000000000000000000000000000000000000811681146110d357600080fd5b6000602082840312156143a857600080fd5b5035919050565b6000602082840312156143c157600080fd5b5051919050565b600080604083850312156143db57600080fd5b823591506020830135613ffd81614715565b6000806040838503121561440057600080fd5b823591506020830135613ffd8161473a565b60008060006060848603121561442757600080fd5b8335925060208401356140e68161473a565b6000806040838503121561444c57600080fd5b50508035926020909101359150565b600081518084526020808501945080840160005b8381101561448b5781518752958201959082019060010161446f565b509495945050505050565b600073ffffffffffffffffffffffffffffffffffffffff808716835280861660208401525060a060408301526144cf60a083018561445b565b82810360608401526144e1818561445b565b838103608090940193909352505060008152602001949350505050565b600060208083528351808285015260005b8181101561452b5785810183015185820160400152820161450f565b8181111561453d576000604083870101525b50601f017fffffffffffffffffffffffffffffffffffffffffffffffffffffffffffffffe016929092016040019392505050565b604051601f82017fffffffffffffffffffffffffffffffffffffffffffffffffffffffffffffffe016810167ffffffffffffffff811182821017156145b8576145b86146e6565b604052919050565b600082198211156145d3576145d36146b7565b500190565b60008261460e577f4e487b7100000000000000000000000000000000000000000000000000000000600052601260045260246000fd5b500490565b600082821015614625576146256146b7565b500390565b600181811c9082168061463e57607f821691505b60208210811415614678577f4e487b7100000000000000000000000000000000000000000000000000000000600052602260045260246000fd5b50919050565b60007fffffffffffffffffffffffffffffffffffffffffffffffffffffffffffffffff8214156146b0576146b06146b7565b5060010190565b7f4e487b7100000000000000000000000000000000000000000000000000000000600052601160045260246000fd5b7f4e487b7100000000000000000000000000000000000000000000000000000000600052604160045260246000fd5b73ffffffffffffffffffffffffffffffffffffffff8116811461473757600080fd5b50565b801515811461473757600080fdfea26469706673582212205eab2880d7a25ed83e9ceab95716a4970a851da6c84a71253501ffe0d94cc65264736f6c63430008070033",
			"opcodes": "PUSH1 0x80 PUSH1 0x40 MSTORE CALLVALUE DUP1 ISZERO PUSH3 0x11 JUMPI PUSH1 0x0 DUP1 REVERT JUMPDEST POP PUSH1 0x40 DUP1 MLOAD DUP1 DUP3 ADD DUP3 MSTORE PUSH1 0x5 DUP2 MSTORE PUSH5 0x12D95B595D PUSH1 0xDA SHL PUSH1 0x20 DUP1 DUP4 ADD SWAP2 DUP3 MSTORE DUP4 MLOAD DUP1 DUP6 ADD SWAP1 SWAP5 MSTORE PUSH1 0x3 DUP1 DUP6 MSTORE PUSH3 0x4B454D PUSH1 0xE8 SHL SWAP2 DUP6 ADD SWAP2 SWAP1 SWAP2 MSTORE DUP3 MLOAD PUSH1 0x0 SWAP5 SWAP3 PUSH3 0x5D SWAP3 SWAP2 PUSH3 0x293 JUMP JUMPDEST POP DUP1 MLOAD PUSH3 0x73 SWAP1 PUSH1 0x4 SWAP1 PUSH1 0x20 DUP5 ADD SWAP1 PUSH3 0x293 JUMP JUMPDEST POP POP PUSH1 0x5 DUP1 SLOAD PUSH1 0x1 PUSH1 0x1 PUSH1 0xA0 SHL SUB NOT AND PUSH1 0x1 PUSH1 0x1 PUSH1 0xA0 SHL SUB SWAP4 SWAP1 SWAP4 AND SWAP3 SWAP1 SWAP3 OR SWAP1 SWAP2 SSTORE POP PUSH1 0x40 MLOAD PUSH1 0x0 SWAP1 PUSH3 0xA8 SWAP1 PUSH3 0x322 JUMP JUMPDEST PUSH1 0x40 MLOAD DUP1 SWAP2 SUB SWAP1 PUSH1 0x0 CREATE DUP1 ISZERO DUP1 ISZERO PUSH3 0xC5 JUMPI RETURNDATASIZE PUSH1 0x0 DUP1 RETURNDATACOPY RETURNDATASIZE PUSH1 0x0 REVERT JUMPDEST POP SWAP1 POP PUSH1 0x0 DUP2 ADDRESS PUSH1 0x40 MLOAD PUSH3 0xDA SWAP1 PUSH3 0x330 JUMP JUMPDEST PUSH1 0x1 PUSH1 0x1 PUSH1 0xA0 SHL SUB SWAP3 DUP4 AND DUP2 MSTORE SWAP2 AND PUSH1 0x20 DUP3 ADD MSTORE PUSH1 0x40 ADD PUSH1 0x40 MLOAD DUP1 SWAP2 SUB SWAP1 PUSH1 0x0 CREATE DUP1 ISZERO DUP1 ISZERO PUSH3 0x10E JUMPI RETURNDATASIZE PUSH1 0x0 DUP1 RETURNDATACOPY RETURNDATASIZE PUSH1 0x0 REVERT JUMPDEST POP PUSH1 0x40 MLOAD PUSH4 0x3B81B0BB PUSH1 0xE0 SHL DUP2 MSTORE PUSH1 0x1 PUSH1 0x1 PUSH1 0xA0 SHL SUB DUP1 DUP4 AND PUSH1 0x4 DUP4 ADD MSTORE SWAP2 SWAP3 POP SWAP1 DUP4 AND SWAP1 PUSH4 0x3B81B0BB SWAP1 PUSH1 0x24 ADD PUSH1 0x0 PUSH1 0x40 MLOAD DUP1 DUP4 SUB DUP2 PUSH1 0x0 DUP8 DUP1 EXTCODESIZE ISZERO DUP1 ISZERO PUSH3 0x157 JUMPI PUSH1 0x0 DUP1 REVERT JUMPDEST POP GAS CALL ISZERO DUP1 ISZERO PUSH3 0x16C JUMPI RETURNDATASIZE PUSH1 0x0 DUP1 RETURNDATACOPY RETURNDATASIZE PUSH1 0x0 REVERT JUMPDEST POP POP PUSH1 0x5 DUP1 SLOAD PUSH1 0x1 PUSH1 0x1 PUSH1 0xA0 SHL SUB NOT AND PUSH1 0x1 PUSH1 0x1 PUSH1 0xA0 SHL SUB DUP7 AND OR SWAP1 SSTORE POP PUSH3 0x1A3 SWAP1 POP CALLER PUSH11 0x52B7D2DCC80CD2E4000000 PUSH3 0x1AB JUMP JUMPDEST POP POP PUSH3 0x3B9 JUMP JUMPDEST PUSH1 0x1 PUSH1 0x1 PUSH1 0xA0 SHL SUB DUP3 AND PUSH3 0x206 JUMPI PUSH1 0x40 MLOAD PUSH3 0x461BCD PUSH1 0xE5 SHL DUP2 MSTORE PUSH1 0x20 PUSH1 0x4 DUP3 ADD MSTORE PUSH1 0x1F PUSH1 0x24 DUP3 ADD MSTORE PUSH32 0x45524332303A206D696E7420746F20746865207A65726F206164647265737300 PUSH1 0x44 DUP3 ADD MSTORE PUSH1 0x64 ADD PUSH1 0x40 MLOAD DUP1 SWAP2 SUB SWAP1 REVERT JUMPDEST DUP1 PUSH1 0x2 PUSH1 0x0 DUP3 DUP3 SLOAD PUSH3 0x21A SWAP2 SWAP1 PUSH3 0x355 JUMP JUMPDEST SWAP1 SWAP2 SSTORE POP POP PUSH1 0x1 PUSH1 0x1 PUSH1 0xA0 SHL SUB DUP3 AND PUSH1 0x0 SWAP1 DUP2 MSTORE PUSH1 0x20 DUP2 SWAP1 MSTORE PUSH1 0x40 DUP2 KECCAK256 DUP1 SLOAD DUP4 SWAP3 SWAP1 PUSH3 0x249 SWAP1 DUP5 SWAP1 PUSH3 0x355 JUMP JUMPDEST SWAP1 SWAP2 SSTORE POP POP PUSH1 0x40 MLOAD DUP2 DUP2 MSTORE PUSH1 0x1 PUSH1 0x1 PUSH1 0xA0 SHL SUB DUP4 AND SWAP1 PUSH1 0x0 SWAP1 PUSH32 0xDDF252AD1BE2C89B69C2B068FC378DAA952BA7F163C4A11628F55A4DF523B3EF SWAP1 PUSH1 0x20 ADD PUSH1 0x40 MLOAD DUP1 SWAP2 SUB SWAP1 LOG3 POP POP JUMP JUMPDEST DUP3 DUP1 SLOAD PUSH3 0x2A1 SWAP1 PUSH3 0x37C JUMP JUMPDEST SWAP1 PUSH1 0x0 MSTORE PUSH1 0x20 PUSH1 0x0 KECCAK256 SWAP1 PUSH1 0x1F ADD PUSH1 0x20 SWAP1 DIV DUP2 ADD SWAP3 DUP3 PUSH3 0x2C5 JUMPI PUSH1 0x0 DUP6 SSTORE PUSH3 0x310 JUMP JUMPDEST DUP3 PUSH1 0x1F LT PUSH3 0x2E0 JUMPI DUP1 MLOAD PUSH1 0xFF NOT AND DUP4 DUP1 ADD OR DUP6 SSTORE PUSH3 0x310 JUMP JUMPDEST DUP3 DUP1 ADD PUSH1 0x1 ADD DUP6 SSTORE DUP3 ISZERO PUSH3 0x310 JUMPI SWAP2 DUP3 ADD JUMPDEST DUP3 DUP2 GT ISZERO PUSH3 0x310 JUMPI DUP3 MLOAD DUP3 SSTORE SWAP2 PUSH1 0x20 ADD SWAP2 SWAP1 PUSH1 0x1 ADD SWAP1 PUSH3 0x2F3 JUMP JUMPDEST POP PUSH3 0x31E SWAP3 SWAP2 POP PUSH3 0x33E JUMP JUMPDEST POP SWAP1 JUMP JUMPDEST PUSH2 0x8735 DUP1 PUSH3 0x318F DUP4 CODECOPY ADD SWAP1 JUMP JUMPDEST PUSH2 0x4BE6 DUP1 PUSH3 0xB8C4 DUP4 CODECOPY ADD SWAP1 JUMP JUMPDEST JUMPDEST DUP1 DUP3 GT ISZERO PUSH3 0x31E JUMPI PUSH1 0x0 DUP2 SSTORE PUSH1 0x1 ADD PUSH3 0x33F JUMP JUMPDEST PUSH1 0x0 DUP3 NOT DUP3 GT ISZERO PUSH3 0x377 JUMPI PUSH4 0x4E487B71 PUSH1 0xE0 SHL PUSH1 0x0 MSTORE PUSH1 0x11 PUSH1 0x4 MSTORE PUSH1 0x24 PUSH1 0x0 REVERT JUMPDEST POP ADD SWAP1 JUMP JUMPDEST PUSH1 0x1 DUP2 DUP2 SHR SWAP1 DUP3 AND DUP1 PUSH3 0x391 JUMPI PUSH1 0x7F DUP3 AND SWAP2 POP JUMPDEST PUSH1 0x20 DUP3 LT DUP2 EQ ISZERO PUSH3 0x3B3 JUMPI PUSH4 0x4E487B71 PUSH1 0xE0 SHL PUSH1 0x0 MSTORE PUSH1 0x22 PUSH1 0x4 MSTORE PUSH1 0x24 PUSH1 0x0 REVERT JUMPDEST POP SWAP2 SWAP1 POP JUMP JUMPDEST PUSH2 0x2DC6 DUP1 PUSH3 0x3C9 PUSH1 0x0 CODECOPY PUSH1 0x0 RETURN INVALID PUSH1 0x80 PUSH1 0x40 MSTORE CALLVALUE DUP1 ISZERO PUSH2 0x10 JUMPI PUSH1 0x0 DUP1 REVERT JUMPDEST POP PUSH1 0x4 CALLDATASIZE LT PUSH2 0x1C4 JUMPI PUSH1 0x0 CALLDATALOAD PUSH1 0xE0 SHR DUP1 PUSH4 0xA1F4225B GT PUSH2 0xF9 JUMPI DUP1 PUSH4 0xE121158E GT PUSH2 0x97 JUMPI DUP1 PUSH4 0xF23A6E61 GT PUSH2 0x71 JUMPI DUP1 PUSH4 0xF23A6E61 EQ PUSH2 0x47F JUMPI DUP1 PUSH4 0xF3A0AE2C EQ PUSH2 0x4B7 JUMPI DUP1 PUSH4 0xFC04E65D EQ PUSH2 0x4CA JUMPI DUP1 PUSH4 0xFC185B83 EQ PUSH2 0x4DD JUMPI PUSH1 0x0 DUP1 REVERT JUMPDEST DUP1 PUSH4 0xE121158E EQ PUSH2 0x446 JUMPI DUP1 PUSH4 0xE7A486FB EQ PUSH2 0x459 JUMPI DUP1 PUSH4 0xF2386A36 EQ PUSH2 0x46C JUMPI PUSH1 0x0 DUP1 REVERT JUMPDEST DUP1 PUSH4 0xBC197C81 GT PUSH2 0xD3 JUMPI DUP1 PUSH4 0xBC197C81 EQ PUSH2 0x38D JUMPI DUP1 PUSH4 0xBE5BACEB EQ PUSH2 0x3C5 JUMPI DUP1 PUSH4 0xDD62ED3E EQ PUSH2 0x3D8 JUMPI DUP1 PUSH4 0xDFE5576B EQ PUSH2 0x41E JUMPI PUSH1 0x0 DUP1 REVERT JUMPDEST DUP1 PUSH4 0xA1F4225B EQ PUSH2 0x354 JUMPI DUP1 PUSH4 0xA457C2D7 EQ PUSH2 0x367 JUMPI DUP1 PUSH4 0xA9059CBB EQ PUSH2 0x37A JUMPI PUSH1 0x0 DUP1 REVERT JUMPDEST DUP1 PUSH4 0x31A02BCE GT PUSH2 0x166 JUMPI DUP1 PUSH4 0x62DFCC07 GT PUSH2 0x140 JUMPI DUP1 PUSH4 0x62DFCC07 EQ PUSH2 0x2F0 JUMPI DUP1 PUSH4 0x70A08231 EQ PUSH2 0x303 JUMPI DUP1 PUSH4 0x8B07AF2B EQ PUSH2 0x339 JUMPI DUP1 PUSH4 0x95D89B41 EQ PUSH2 0x34C JUMPI PUSH1 0x0 DUP1 REVERT JUMPDEST DUP1 PUSH4 0x31A02BCE EQ PUSH2 0x2B5 JUMPI DUP1 PUSH4 0x39509351 EQ PUSH2 0x2C8 JUMPI DUP1 PUSH4 0x5EB3009C EQ PUSH2 0x2DB JUMPI PUSH1 0x0 DUP1 REVERT JUMPDEST DUP1 PUSH4 0x150B7A02 GT PUSH2 0x1A2 JUMPI DUP1 PUSH4 0x150B7A02 EQ PUSH2 0x219 JUMPI DUP1 PUSH4 0x18160DDD EQ PUSH2 0x281 JUMPI DUP1 PUSH4 0x23B872DD EQ PUSH2 0x293 JUMPI DUP1 PUSH4 0x313CE567 EQ PUSH2 0x2A6 JUMPI PUSH1 0x0 DUP1 REVERT JUMPDEST DUP1 PUSH4 0x1FFC9A7 EQ PUSH2 0x1C9 JUMPI DUP1 PUSH4 0x6FDDE03 EQ PUSH2 0x1F1 JUMPI DUP1 PUSH4 0x95EA7B3 EQ PUSH2 0x206 JUMPI JUMPDEST PUSH1 0x0 DUP1 REVERT JUMPDEST PUSH2 0x1DC PUSH2 0x1D7 CALLDATASIZE PUSH1 0x4 PUSH2 0x2A6A JUMP JUMPDEST PUSH2 0x4F0 JUMP JUMPDEST PUSH1 0x40 MLOAD SWAP1 ISZERO ISZERO DUP2 MSTORE PUSH1 0x20 ADD JUMPDEST PUSH1 0x40 MLOAD DUP1 SWAP2 SUB SWAP1 RETURN JUMPDEST PUSH2 0x1F9 PUSH2 0x630 JUMP JUMPDEST PUSH1 0x40 MLOAD PUSH2 0x1E8 SWAP2 SWAP1 PUSH2 0x2BA6 JUMP JUMPDEST PUSH2 0x1DC PUSH2 0x214 CALLDATASIZE PUSH1 0x4 PUSH2 0x299B JUMP JUMPDEST PUSH2 0x6C2 JUMP JUMPDEST PUSH2 0x250 PUSH2 0x227 CALLDATASIZE PUSH1 0x4 PUSH2 0x283D JUMP JUMPDEST PUSH32 0x150B7A0200000000000000000000000000000000000000000000000000000000 SWAP5 SWAP4 POP POP POP POP JUMP JUMPDEST PUSH1 0x40 MLOAD PUSH32 0xFFFFFFFF00000000000000000000000000000000000000000000000000000000 SWAP1 SWAP2 AND DUP2 MSTORE PUSH1 0x20 ADD PUSH2 0x1E8 JUMP JUMPDEST PUSH1 0x2 SLOAD JUMPDEST PUSH1 0x40 MLOAD SWAP1 DUP2 MSTORE PUSH1 0x20 ADD PUSH2 0x1E8 JUMP JUMPDEST PUSH2 0x1DC PUSH2 0x2A1 CALLDATASIZE PUSH1 0x4 PUSH2 0x27FC JUMP JUMPDEST PUSH2 0x6D8 JUMP JUMPDEST PUSH1 0x40 MLOAD PUSH1 0x12 DUP2 MSTORE PUSH1 0x20 ADD PUSH2 0x1E8 JUMP JUMPDEST PUSH2 0x285 PUSH2 0x2C3 CALLDATASIZE PUSH1 0x4 PUSH2 0x299B JUMP JUMPDEST PUSH2 0x7E8 JUMP JUMPDEST PUSH2 0x1DC PUSH2 0x2D6 CALLDATASIZE PUSH1 0x4 PUSH2 0x299B JUMP JUMPDEST PUSH2 0x976 JUMP JUMPDEST PUSH2 0x2EE PUSH2 0x2E9 CALLDATASIZE PUSH1 0x4 PUSH2 0x2AAC JUMP JUMPDEST PUSH2 0x9BF JUMP JUMPDEST STOP JUMPDEST PUSH2 0x285 PUSH2 0x2FE CALLDATASIZE PUSH1 0x4 PUSH2 0x2912 JUMP JUMPDEST PUSH2 0xC71 JUMP JUMPDEST PUSH2 0x285 PUSH2 0x311 CALLDATASIZE PUSH1 0x4 PUSH2 0x26F8 JUMP JUMPDEST PUSH20 0xFFFFFFFFFFFFFFFFFFFFFFFFFFFFFFFFFFFFFFFF AND PUSH1 0x0 SWAP1 DUP2 MSTORE PUSH1 0x20 DUP2 SWAP1 MSTORE PUSH1 0x40 SWAP1 KECCAK256 SLOAD SWAP1 JUMP JUMPDEST PUSH2 0x285 PUSH2 0x347 CALLDATASIZE PUSH1 0x4 PUSH2 0x2ADE JUMP JUMPDEST PUSH2 0xCA6 JUMP JUMPDEST PUSH2 0x1F9 PUSH2 0xCD7 JUMP JUMPDEST PUSH2 0x285 PUSH2 0x362 CALLDATASIZE PUSH1 0x4 PUSH2 0x2A09 JUMP JUMPDEST PUSH2 0xCE6 JUMP JUMPDEST PUSH2 0x1DC PUSH2 0x375 CALLDATASIZE PUSH1 0x4 PUSH2 0x299B JUMP JUMPDEST PUSH2 0xD12 JUMP JUMPDEST PUSH2 0x1DC PUSH2 0x388 CALLDATASIZE PUSH1 0x4 PUSH2 0x299B JUMP JUMPDEST PUSH2 0xDEA JUMP JUMPDEST PUSH2 0x250 PUSH2 0x39B CALLDATASIZE PUSH1 0x4 PUSH2 0x274E JUMP JUMPDEST PUSH32 0xBC197C8100000000000000000000000000000000000000000000000000000000 SWAP6 SWAP5 POP POP POP POP POP JUMP JUMPDEST PUSH2 0x2EE PUSH2 0x3D3 CALLDATASIZE PUSH1 0x4 PUSH2 0x2AAC JUMP JUMPDEST PUSH2 0xDF7 JUMP JUMPDEST PUSH2 0x285 PUSH2 0x3E6 CALLDATASIZE PUSH1 0x4 PUSH2 0x2715 JUMP JUMPDEST PUSH20 0xFFFFFFFFFFFFFFFFFFFFFFFFFFFFFFFFFFFFFFFF SWAP2 DUP3 AND PUSH1 0x0 SWAP1 DUP2 MSTORE PUSH1 0x1 PUSH1 0x20 SWAP1 DUP2 MSTORE PUSH1 0x40 DUP1 DUP4 KECCAK256 SWAP4 SWAP1 SWAP5 AND DUP3 MSTORE SWAP2 SWAP1 SWAP2 MSTORE KECCAK256 SLOAD SWAP1 JUMP JUMPDEST PUSH1 0x5 SLOAD PUSH1 0x40 MLOAD PUSH20 0xFFFFFFFFFFFFFFFFFFFFFFFFFFFFFFFFFFFFFFFF SWAP1 SWAP2 AND DUP2 MSTORE PUSH1 0x20 ADD PUSH2 0x1E8 JUMP JUMPDEST PUSH2 0x285 PUSH2 0x454 CALLDATASIZE PUSH1 0x4 PUSH2 0x29C7 JUMP JUMPDEST PUSH2 0xFE0 JUMP JUMPDEST PUSH2 0x2EE PUSH2 0x467 CALLDATASIZE PUSH1 0x4 PUSH2 0x2AAC JUMP JUMPDEST PUSH2 0x1013 JUMP JUMPDEST PUSH2 0x285 PUSH2 0x47A CALLDATASIZE PUSH1 0x4 PUSH2 0x29C7 JUMP JUMPDEST PUSH2 0x117A JUMP JUMPDEST PUSH2 0x250 PUSH2 0x48D CALLDATASIZE PUSH1 0x4 PUSH2 0x28A9 JUMP JUMPDEST PUSH32 0xF23A6E6100000000000000000000000000000000000000000000000000000000 SWAP6 SWAP5 POP POP POP POP POP JUMP JUMPDEST PUSH2 0x2EE PUSH2 0x4C5 CALLDATASIZE PUSH1 0x4 PUSH2 0x2AAC JUMP JUMPDEST PUSH2 0x11A5 JUMP JUMPDEST PUSH2 0x2EE PUSH2 0x4D8 CALLDATASIZE PUSH1 0x4 PUSH2 0x2AAC JUMP JUMPDEST PUSH2 0x13C3 JUMP JUMPDEST PUSH2 0x2EE PUSH2 0x4EB CALLDATASIZE PUSH1 0x4 PUSH2 0x2AAC JUMP JUMPDEST PUSH2 0x1563 JUMP JUMPDEST PUSH1 0x0 PUSH32 0xFFFFFFFF00000000000000000000000000000000000000000000000000000000 DUP3 AND PUSH32 0x80AC58CD00000000000000000000000000000000000000000000000000000000 EQ DUP1 PUSH2 0x583 JUMPI POP PUSH32 0xFFFFFFFF00000000000000000000000000000000000000000000000000000000 DUP3 AND PUSH32 0x5B5E139F00000000000000000000000000000000000000000000000000000000 EQ JUMPDEST DUP1 PUSH2 0x5CF JUMPI POP PUSH32 0xFFFFFFFF00000000000000000000000000000000000000000000000000000000 DUP3 AND PUSH32 0x780E9D6300000000000000000000000000000000000000000000000000000000 EQ JUMPDEST DUP1 PUSH2 0x61B JUMPI POP PUSH32 0xFFFFFFFF00000000000000000000000000000000000000000000000000000000 DUP3 AND PUSH32 0xD9B67A2600000000000000000000000000000000000000000000000000000000 EQ JUMPDEST DUP1 PUSH2 0x62A JUMPI POP PUSH2 0x62A DUP3 PUSH2 0x172E JUMP JUMPDEST SWAP3 SWAP2 POP POP JUMP JUMPDEST PUSH1 0x60 PUSH1 0x3 DUP1 SLOAD PUSH2 0x63F SWAP1 PUSH2 0x2C80 JUMP JUMPDEST DUP1 PUSH1 0x1F ADD PUSH1 0x20 DUP1 SWAP2 DIV MUL PUSH1 0x20 ADD PUSH1 0x40 MLOAD SWAP1 DUP2 ADD PUSH1 0x40 MSTORE DUP1 SWAP3 SWAP2 SWAP1 DUP2 DUP2 MSTORE PUSH1 0x20 ADD DUP3 DUP1 SLOAD PUSH2 0x66B SWAP1 PUSH2 0x2C80 JUMP JUMPDEST DUP1 ISZERO PUSH2 0x6B8 JUMPI DUP1 PUSH1 0x1F LT PUSH2 0x68D JUMPI PUSH2 0x100 DUP1 DUP4 SLOAD DIV MUL DUP4 MSTORE SWAP2 PUSH1 0x20 ADD SWAP2 PUSH2 0x6B8 JUMP JUMPDEST DUP3 ADD SWAP2 SWAP1 PUSH1 0x0 MSTORE PUSH1 0x20 PUSH1 0x0 KECCAK256 SWAP1 JUMPDEST DUP2 SLOAD DUP2 MSTORE SWAP1 PUSH1 0x1 ADD SWAP1 PUSH1 0x20 ADD DUP1 DUP4 GT PUSH2 0x69B JUMPI DUP3 SWAP1 SUB PUSH1 0x1F AND DUP3 ADD SWAP2 JUMPDEST POP POP POP POP POP SWAP1 POP SWAP1 JUMP JUMPDEST PUSH1 0x0 PUSH2 0x6CF CALLER DUP5 DUP5 PUSH2 0x17C5 JUMP JUMPDEST POP PUSH1 0x1 SWAP3 SWAP2 POP POP JUMP JUMPDEST PUSH20 0xFFFFFFFFFFFFFFFFFFFFFFFFFFFFFFFFFFFFFFFF DUP4 AND PUSH1 0x0 SWAP1 DUP2 MSTORE PUSH1 0x1 PUSH1 0x20 SWAP1 DUP2 MSTORE PUSH1 0x40 DUP1 DUP4 KECCAK256 CALLER DUP5 MSTORE SWAP1 SWAP2 MSTORE DUP2 KECCAK256 SLOAD PUSH32 0xFFFFFFFFFFFFFFFFFFFFFFFFFFFFFFFFFFFFFFFFFFFFFFFFFFFFFFFFFFFFFFFF DUP2 EQ PUSH2 0x7D2 JUMPI DUP3 DUP2 LT ISZERO PUSH2 0x7C5 JUMPI PUSH1 0x40 MLOAD PUSH32 0x8C379A000000000000000000000000000000000000000000000000000000000 DUP2 MSTORE PUSH1 0x20 PUSH1 0x4 DUP3 ADD MSTORE PUSH1 0x28 PUSH1 0x24 DUP3 ADD MSTORE PUSH32 0x45524332303A207472616E7366657220616D6F756E7420657863656564732061 PUSH1 0x44 DUP3 ADD MSTORE PUSH32 0x6C6C6F77616E6365000000000000000000000000000000000000000000000000 PUSH1 0x64 DUP3 ADD MSTORE PUSH1 0x84 ADD JUMPDEST PUSH1 0x40 MLOAD DUP1 SWAP2 SUB SWAP1 REVERT JUMPDEST PUSH2 0x7D2 DUP6 CALLER DUP6 DUP5 SUB PUSH2 0x17C5 JUMP JUMPDEST PUSH2 0x7DD DUP6 DUP6 DUP6 PUSH2 0x1978 JUMP JUMPDEST POP PUSH1 0x1 SWAP5 SWAP4 POP POP POP POP JUMP JUMPDEST PUSH1 0x11 DUP1 SLOAD PUSH1 0x0 SWAP2 DUP2 SWAP1 DUP4 PUSH2 0x7FB DUP4 PUSH2 0x2CD4 JUMP JUMPDEST SWAP1 SWAP2 SSTORE POP POP PUSH1 0x5 SLOAD PUSH1 0x0 SWAP1 PUSH20 0xFFFFFFFFFFFFFFFFFFFFFFFFFFFFFFFFFFFFFFFF AND PUSH4 0x4A0E2AA1 CALLER PUSH3 0x4C4B40 PUSH2 0x833 TIMESTAMP PUSH3 0x15180 PUSH2 0x2C68 JUMP JUMPDEST PUSH2 0x840 TIMESTAMP PUSH3 0xA8C00 PUSH2 0x2C68 JUMP JUMPDEST PUSH1 0x40 MLOAD PUSH32 0xFFFFFFFF00000000000000000000000000000000000000000000000000000000 PUSH1 0xE0 DUP8 SWAP1 SHL AND DUP2 MSTORE PUSH20 0xFFFFFFFFFFFFFFFFFFFFFFFFFFFFFFFFFFFFFFFF SWAP1 SWAP5 AND PUSH1 0x4 DUP6 ADD MSTORE PUSH1 0x24 DUP5 ADD SWAP3 SWAP1 SWAP3 MSTORE PUSH1 0x44 DUP4 ADD MSTORE PUSH1 0x64 DUP3 ADD MSTORE PUSH1 0x84 ADD PUSH1 0x20 PUSH1 0x40 MLOAD DUP1 DUP4 SUB DUP2 PUSH1 0x0 DUP8 DUP1 EXTCODESIZE ISZERO DUP1 ISZERO PUSH2 0x8B8 JUMPI PUSH1 0x0 DUP1 REVERT JUMPDEST POP GAS CALL ISZERO DUP1 ISZERO PUSH2 0x8CC JUMPI RETURNDATASIZE PUSH1 0x0 DUP1 RETURNDATACOPY RETURNDATASIZE PUSH1 0x0 REVERT JUMPDEST POP POP POP POP PUSH1 0x40 MLOAD RETURNDATASIZE PUSH1 0x1F NOT PUSH1 0x1F DUP3 ADD AND DUP3 ADD DUP1 PUSH1 0x40 MSTORE POP DUP2 ADD SWAP1 PUSH2 0x8F0 SWAP2 SWAP1 PUSH2 0x2AC5 JUMP JUMPDEST PUSH1 0x40 DUP1 MLOAD PUSH1 0x60 DUP2 ADD DUP3 MSTORE PUSH20 0xFFFFFFFFFFFFFFFFFFFFFFFFFFFFFFFFFFFFFFFF SWAP8 DUP9 AND DUP2 MSTORE PUSH1 0x20 DUP1 DUP3 ADD SWAP8 DUP9 MSTORE DUP2 DUP4 ADD DUP5 DUP2 MSTORE PUSH1 0x0 SWAP7 DUP8 MSTORE PUSH1 0x10 SWAP1 SWAP2 MSTORE SWAP2 SWAP1 SWAP5 KECCAK256 SWAP4 MLOAD DUP5 SLOAD PUSH32 0xFFFFFFFFFFFFFFFFFFFFFFFF0000000000000000000000000000000000000000 AND SWAP8 AND SWAP7 SWAP1 SWAP7 OR DUP4 SSTORE SWAP4 MLOAD PUSH1 0x1 DUP4 ADD SSTORE POP SWAP3 MLOAD PUSH1 0x2 SWAP1 SWAP4 ADD SWAP3 SWAP1 SWAP3 SSTORE SWAP2 SWAP1 POP JUMP JUMPDEST CALLER PUSH1 0x0 DUP2 DUP2 MSTORE PUSH1 0x1 PUSH1 0x20 SWAP1 DUP2 MSTORE PUSH1 0x40 DUP1 DUP4 KECCAK256 PUSH20 0xFFFFFFFFFFFFFFFFFFFFFFFFFFFFFFFFFFFFFFFF DUP8 AND DUP5 MSTORE SWAP1 SWAP2 MSTORE DUP2 KECCAK256 SLOAD SWAP1 SWAP2 PUSH2 0x6CF SWAP2 DUP6 SWAP1 PUSH2 0x9BA SWAP1 DUP7 SWAP1 PUSH2 0x2C68 JUMP JUMPDEST PUSH2 0x17C5 JUMP JUMPDEST PUSH1 0xF SLOAD DUP2 LT PUSH2 0xA2A JUMPI PUSH1 0x40 MLOAD PUSH32 0x8C379A000000000000000000000000000000000000000000000000000000000 DUP2 MSTORE PUSH1 0x20 PUSH1 0x4 DUP3 ADD MSTORE PUSH1 0x10 PUSH1 0x24 DUP3 ADD MSTORE PUSH32 0x4E6F207375636820726571756573742E00000000000000000000000000000000 PUSH1 0x44 DUP3 ADD MSTORE PUSH1 0x64 ADD PUSH2 0x7BC JUMP JUMPDEST PUSH1 0x0 DUP2 DUP2 MSTORE PUSH1 0xA PUSH1 0x20 SWAP1 DUP2 MSTORE PUSH1 0x40 DUP1 DUP4 KECCAK256 DUP2 MLOAD PUSH1 0xA0 DUP2 ADD DUP4 MSTORE DUP2 SLOAD PUSH20 0xFFFFFFFFFFFFFFFFFFFFFFFFFFFFFFFFFFFFFFFF AND DUP2 MSTORE PUSH1 0x1 DUP3 ADD DUP1 SLOAD DUP5 MLOAD DUP2 DUP8 MUL DUP2 ADD DUP8 ADD SWAP1 SWAP6 MSTORE DUP1 DUP6 MSTORE SWAP2 SWAP5 SWAP3 SWAP4 DUP6 DUP5 ADD SWAP4 SWAP1 SWAP3 SWAP1 DUP4 ADD DUP3 DUP3 DUP1 ISZERO PUSH2 0xAAC JUMPI PUSH1 0x20 MUL DUP3 ADD SWAP2 SWAP1 PUSH1 0x0 MSTORE PUSH1 0x20 PUSH1 0x0 KECCAK256 SWAP1 JUMPDEST DUP2 SLOAD DUP2 MSTORE PUSH1 0x20 ADD SWAP1 PUSH1 0x1 ADD SWAP1 DUP1 DUP4 GT PUSH2 0xA98 JUMPI JUMPDEST POP POP POP POP POP DUP2 MSTORE PUSH1 0x20 ADD PUSH1 0x2 DUP3 ADD DUP1 SLOAD DUP1 PUSH1 0x20 MUL PUSH1 0x20 ADD PUSH1 0x40 MLOAD SWAP1 DUP2 ADD PUSH1 0x40 MSTORE DUP1 SWAP3 SWAP2 SWAP1 DUP2 DUP2 MSTORE PUSH1 0x20 ADD DUP3 DUP1 SLOAD DUP1 ISZERO PUSH2 0xB04 JUMPI PUSH1 0x20 MUL DUP3 ADD SWAP2 SWAP1 PUSH1 0x0 MSTORE PUSH1 0x20 PUSH1 0x0 KECCAK256 SWAP1 JUMPDEST DUP2 SLOAD DUP2 MSTORE PUSH1 0x20 ADD SWAP1 PUSH1 0x1 ADD SWAP1 DUP1 DUP4 GT PUSH2 0xAF0 JUMPI JUMPDEST POP POP POP SWAP2 DUP4 MSTORE POP POP PUSH1 0x3 DUP3 ADD SLOAD PUSH20 0xFFFFFFFFFFFFFFFFFFFFFFFFFFFFFFFFFFFFFFFF SWAP1 DUP2 AND PUSH1 0x20 DUP4 ADD MSTORE PUSH1 0x4 SWAP3 DUP4 ADD SLOAD PUSH1 0x40 SWAP3 DUP4 ADD MSTORE PUSH1 0x5 SLOAD PUSH1 0x80 DUP6 ADD MLOAD SWAP3 MLOAD PUSH32 0x85AA033D00000000000000000000000000000000000000000000000000000000 DUP2 MSTORE SWAP4 DUP5 ADD SWAP3 SWAP1 SWAP3 MSTORE CALLER PUSH1 0x24 DUP5 ADD MSTORE SWAP3 SWAP4 POP SWAP1 SWAP2 AND SWAP1 PUSH4 0x85AA033D SWAP1 PUSH1 0x44 ADD PUSH1 0x20 PUSH1 0x40 MLOAD DUP1 DUP4 SUB DUP2 PUSH1 0x0 DUP8 DUP1 EXTCODESIZE ISZERO DUP1 ISZERO PUSH2 0xB9E JUMPI PUSH1 0x0 DUP1 REVERT JUMPDEST POP GAS CALL ISZERO DUP1 ISZERO PUSH2 0xBB2 JUMPI RETURNDATASIZE PUSH1 0x0 DUP1 RETURNDATACOPY RETURNDATASIZE PUSH1 0x0 REVERT JUMPDEST POP POP POP POP PUSH1 0x40 MLOAD RETURNDATASIZE PUSH1 0x1F NOT PUSH1 0x1F DUP3 ADD AND DUP3 ADD DUP1 PUSH1 0x40 MSTORE POP DUP2 ADD SWAP1 PUSH2 0xBD6 SWAP2 SWAP1 PUSH2 0x2A48 JUMP JUMPDEST POP DUP1 MLOAD PUSH1 0x60 DUP3 ADD MLOAD PUSH1 0x20 DUP4 ADD MLOAD PUSH1 0x40 DUP1 DUP6 ADD MLOAD SWAP1 MLOAD PUSH32 0x2EB2C2D600000000000000000000000000000000000000000000000000000000 DUP2 MSTORE PUSH20 0xFFFFFFFFFFFFFFFFFFFFFFFFFFFFFFFFFFFFFFFF DUP6 AND SWAP4 PUSH4 0x2EB2C2D6 SWAP4 PUSH2 0xC3A SWAP4 ADDRESS SWAP4 PUSH1 0x4 ADD PUSH2 0x2B3E JUMP JUMPDEST PUSH1 0x0 PUSH1 0x40 MLOAD DUP1 DUP4 SUB DUP2 PUSH1 0x0 DUP8 DUP1 EXTCODESIZE ISZERO DUP1 ISZERO PUSH2 0xC54 JUMPI PUSH1 0x0 DUP1 REVERT JUMPDEST POP GAS CALL ISZERO DUP1 ISZERO PUSH2 0xC68 JUMPI RETURNDATASIZE PUSH1 0x0 DUP1 RETURNDATACOPY RETURNDATASIZE PUSH1 0x0 REVERT JUMPDEST POP POP POP POP POP POP POP JUMP JUMPDEST PUSH1 0x0 PUSH2 0xC9D DUP6 DUP6 DUP6 PUSH3 0x4C4B40 DUP7 PUSH2 0xC8B TIMESTAMP PUSH3 0x15180 PUSH2 0x2C68 JUMP JUMPDEST PUSH2 0xC98 TIMESTAMP PUSH3 0x2A300 PUSH2 0x2C68 JUMP JUMPDEST PUSH2 0x1C2B JUMP JUMPDEST SWAP6 SWAP5 POP POP POP POP POP JUMP JUMPDEST PUSH1 0x0 PUSH2 0xCD0 DUP4 PUSH3 0x4C4B40 DUP5 PUSH2 0xCBE TIMESTAMP PUSH3 0x15180 PUSH2 0x2C68 JUMP JUMPDEST PUSH2 0xCCB TIMESTAMP PUSH3 0x2A300 PUSH2 0x2C68 JUMP JUMPDEST PUSH2 0x1E15 JUMP JUMPDEST SWAP4 SWAP3 POP POP POP JUMP JUMPDEST PUSH1 0x60 PUSH1 0x4 DUP1 SLOAD PUSH2 0x63F SWAP1 PUSH2 0x2C80 JUMP JUMPDEST PUSH1 0x0 PUSH2 0xC9D DUP6 DUP6 DUP6 PUSH3 0x4C4B40 DUP7 PUSH2 0xD00 TIMESTAMP PUSH3 0x15180 PUSH2 0x2C68 JUMP JUMPDEST PUSH2 0xD0D TIMESTAMP PUSH3 0x2A300 PUSH2 0x2C68 JUMP JUMPDEST PUSH2 0x1FA9 JUMP JUMPDEST CALLER PUSH1 0x0 SWAP1 DUP2 MSTORE PUSH1 0x1 PUSH1 0x20 SWAP1 DUP2 MSTORE PUSH1 0x40 DUP1 DUP4 KECCAK256 PUSH20 0xFFFFFFFFFFFFFFFFFFFFFFFFFFFFFFFFFFFFFFFF DUP7 AND DUP5 MSTORE SWAP1 SWAP2 MSTORE DUP2 KECCAK256 SLOAD DUP3 DUP2 LT ISZERO PUSH2 0xDD3 JUMPI PUSH1 0x40 MLOAD PUSH32 0x8C379A000000000000000000000000000000000000000000000000000000000 DUP2 MSTORE PUSH1 0x20 PUSH1 0x4 DUP3 ADD MSTORE PUSH1 0x25 PUSH1 0x24 DUP3 ADD MSTORE PUSH32 0x45524332303A2064656372656173656420616C6C6F77616E63652062656C6F77 PUSH1 0x44 DUP3 ADD MSTORE PUSH32 0x207A65726F000000000000000000000000000000000000000000000000000000 PUSH1 0x64 DUP3 ADD MSTORE PUSH1 0x84 ADD PUSH2 0x7BC JUMP JUMPDEST PUSH2 0xDE0 CALLER DUP6 DUP6 DUP5 SUB PUSH2 0x17C5 JUMP JUMPDEST POP PUSH1 0x1 SWAP4 SWAP3 POP POP POP JUMP JUMPDEST PUSH1 0x0 PUSH2 0x6CF CALLER DUP5 DUP5 PUSH2 0x1978 JUMP JUMPDEST PUSH1 0xE SLOAD DUP2 LT PUSH2 0xE62 JUMPI PUSH1 0x40 MLOAD PUSH32 0x8C379A000000000000000000000000000000000000000000000000000000000 DUP2 MSTORE PUSH1 0x20 PUSH1 0x4 DUP3 ADD MSTORE PUSH1 0x10 PUSH1 0x24 DUP3 ADD MSTORE PUSH32 0x4E6F207375636820726571756573742E00000000000000000000000000000000 PUSH1 0x44 DUP3 ADD MSTORE PUSH1 0x64 ADD PUSH2 0x7BC JUMP JUMPDEST PUSH1 0x0 DUP2 DUP2 MSTORE PUSH1 0x9 PUSH1 0x20 SWAP1 DUP2 MSTORE PUSH1 0x40 SWAP2 DUP3 SWAP1 KECCAK256 DUP3 MLOAD PUSH1 0xA0 DUP2 ADD DUP5 MSTORE DUP2 SLOAD PUSH20 0xFFFFFFFFFFFFFFFFFFFFFFFFFFFFFFFFFFFFFFFF SWAP1 DUP2 AND DUP3 MSTORE PUSH1 0x1 DUP4 ADD SLOAD SWAP4 DUP3 ADD SWAP4 SWAP1 SWAP4 MSTORE PUSH1 0x2 DUP3 ADD SLOAD DUP2 DUP6 ADD MSTORE PUSH1 0x3 DUP3 ADD SLOAD DUP4 AND PUSH1 0x60 DUP3 ADD MSTORE PUSH1 0x4 SWAP2 DUP3 ADD SLOAD PUSH1 0x80 DUP3 ADD DUP2 SWAP1 MSTORE PUSH1 0x5 SLOAD SWAP5 MLOAD PUSH32 0x85AA033D00000000000000000000000000000000000000000000000000000000 DUP2 MSTORE SWAP3 DUP4 ADD MSTORE CALLER PUSH1 0x24 DUP4 ADD MSTORE SWAP3 SWAP1 SWAP2 AND SWAP1 PUSH4 0x85AA033D SWAP1 PUSH1 0x44 ADD PUSH1 0x20 PUSH1 0x40 MLOAD DUP1 DUP4 SUB DUP2 PUSH1 0x0 DUP8 DUP1 EXTCODESIZE ISZERO DUP1 ISZERO PUSH2 0xF20 JUMPI PUSH1 0x0 DUP1 REVERT JUMPDEST POP GAS CALL ISZERO DUP1 ISZERO PUSH2 0xF34 JUMPI RETURNDATASIZE PUSH1 0x0 DUP1 RETURNDATACOPY RETURNDATASIZE PUSH1 0x0 REVERT JUMPDEST POP POP POP POP PUSH1 0x40 MLOAD RETURNDATASIZE PUSH1 0x1F NOT PUSH1 0x1F DUP3 ADD AND DUP3 ADD DUP1 PUSH1 0x40 MSTORE POP DUP2 ADD SWAP1 PUSH2 0xF58 SWAP2 SWAP1 PUSH2 0x2A48 JUMP JUMPDEST POP DUP1 MLOAD PUSH1 0x60 DUP3 ADD MLOAD PUSH1 0x20 DUP4 ADD MLOAD PUSH1 0x40 DUP1 DUP6 ADD MLOAD SWAP1 MLOAD PUSH32 0xF242432A00000000000000000000000000000000000000000000000000000000 DUP2 MSTORE ADDRESS PUSH1 0x4 DUP3 ADD MSTORE PUSH20 0xFFFFFFFFFFFFFFFFFFFFFFFFFFFFFFFFFFFFFFFF SWAP4 DUP5 AND PUSH1 0x24 DUP3 ADD MSTORE PUSH1 0x44 DUP2 ADD SWAP3 SWAP1 SWAP3 MSTORE PUSH1 0x64 DUP3 ADD MSTORE PUSH1 0xA0 PUSH1 0x84 DUP3 ADD MSTORE PUSH1 0x0 PUSH1 0xA4 DUP3 ADD MSTORE SWAP1 DUP3 AND SWAP1 PUSH4 0xF242432A SWAP1 PUSH1 0xC4 ADD PUSH2 0xC3A JUMP JUMPDEST PUSH1 0x0 PUSH2 0x100B DUP5 DUP5 PUSH3 0x4C4B40 DUP6 PUSH2 0xFF9 TIMESTAMP PUSH3 0x15180 PUSH2 0x2C68 JUMP JUMPDEST PUSH2 0x1006 TIMESTAMP PUSH3 0x2A300 PUSH2 0x2C68 JUMP JUMPDEST PUSH2 0x2130 JUMP JUMPDEST SWAP5 SWAP4 POP POP POP POP JUMP JUMPDEST PUSH1 0x11 SLOAD DUP2 LT PUSH2 0x107E JUMPI PUSH1 0x40 MLOAD PUSH32 0x8C379A000000000000000000000000000000000000000000000000000000000 DUP2 MSTORE PUSH1 0x20 PUSH1 0x4 DUP3 ADD MSTORE PUSH1 0x10 PUSH1 0x24 DUP3 ADD MSTORE PUSH32 0x4E6F207375636820726571756573742E00000000000000000000000000000000 PUSH1 0x44 DUP3 ADD MSTORE PUSH1 0x64 ADD PUSH2 0x7BC JUMP JUMPDEST PUSH1 0x0 DUP2 DUP2 MSTORE PUSH1 0x10 PUSH1 0x20 SWAP1 DUP2 MSTORE PUSH1 0x40 SWAP2 DUP3 SWAP1 KECCAK256 DUP3 MLOAD PUSH1 0x60 DUP2 ADD DUP5 MSTORE DUP2 SLOAD PUSH20 0xFFFFFFFFFFFFFFFFFFFFFFFFFFFFFFFFFFFFFFFF SWAP1 DUP2 AND DUP3 MSTORE PUSH1 0x1 DUP4 ADD SLOAD SWAP4 DUP3 ADD SWAP4 SWAP1 SWAP4 MSTORE PUSH1 0x2 SWAP1 SWAP2 ADD SLOAD DUP2 DUP5 ADD DUP2 SWAP1 MSTORE PUSH1 0x5 SLOAD SWAP4 MLOAD PUSH32 0x85AA033D00000000000000000000000000000000000000000000000000000000 DUP2 MSTORE PUSH1 0x4 DUP2 ADD SWAP2 SWAP1 SWAP2 MSTORE CALLER PUSH1 0x24 DUP3 ADD MSTORE SWAP1 SWAP3 SWAP1 SWAP2 AND SWAP1 PUSH4 0x85AA033D SWAP1 PUSH1 0x44 ADD PUSH1 0x20 PUSH1 0x40 MLOAD DUP1 DUP4 SUB DUP2 PUSH1 0x0 DUP8 DUP1 EXTCODESIZE ISZERO DUP1 ISZERO PUSH2 0x112B JUMPI PUSH1 0x0 DUP1 REVERT JUMPDEST POP GAS CALL ISZERO DUP1 ISZERO PUSH2 0x113F JUMPI RETURNDATASIZE PUSH1 0x0 DUP1 RETURNDATACOPY RETURNDATASIZE PUSH1 0x0 REVERT JUMPDEST POP POP POP POP PUSH1 0x40 MLOAD RETURNDATASIZE PUSH1 0x1F NOT PUSH1 0x1F DUP3 ADD AND DUP3 ADD DUP1 PUSH1 0x40 MSTORE POP DUP2 ADD SWAP1 PUSH2 0x1163 SWAP2 SWAP1 PUSH2 0x2A48 JUMP JUMPDEST POP PUSH2 0x1176 DUP2 PUSH1 0x0 ADD MLOAD DUP3 PUSH1 0x20 ADD MLOAD PUSH2 0x22A9 JUMP JUMPDEST POP POP JUMP JUMPDEST PUSH1 0x0 PUSH2 0x100B DUP5 DUP5 PUSH3 0x4C4B40 DUP6 PUSH2 0x1193 TIMESTAMP PUSH3 0x15180 PUSH2 0x2C68 JUMP JUMPDEST PUSH2 0x11A0 TIMESTAMP PUSH3 0x2A300 PUSH2 0x2C68 JUMP JUMPDEST PUSH2 0x23C9 JUMP JUMPDEST PUSH1 0xC SLOAD DUP2 LT PUSH2 0x1210 JUMPI PUSH1 0x40 MLOAD PUSH32 0x8C379A000000000000000000000000000000000000000000000000000000000 DUP2 MSTORE PUSH1 0x20 PUSH1 0x4 DUP3 ADD MSTORE PUSH1 0x10 PUSH1 0x24 DUP3 ADD MSTORE PUSH32 0x4E6F207375636820726571756573742E00000000000000000000000000000000 PUSH1 0x44 DUP3 ADD MSTORE PUSH1 0x64 ADD PUSH2 0x7BC JUMP JUMPDEST PUSH1 0x0 DUP2 DUP2 MSTORE PUSH1 0x7 PUSH1 0x20 SWAP1 DUP2 MSTORE PUSH1 0x40 SWAP2 DUP3 SWAP1 KECCAK256 DUP3 MLOAD PUSH1 0x80 DUP2 ADD DUP5 MSTORE DUP2 SLOAD PUSH20 0xFFFFFFFFFFFFFFFFFFFFFFFFFFFFFFFFFFFFFFFF SWAP1 DUP2 AND DUP3 MSTORE PUSH1 0x1 DUP4 ADD SLOAD SWAP4 DUP3 ADD SWAP4 SWAP1 SWAP4 MSTORE PUSH1 0x2 DUP3 ADD SLOAD DUP4 AND DUP2 DUP6 ADD MSTORE PUSH1 0x3 SWAP1 SWAP2 ADD SLOAD PUSH1 0x60 DUP3 ADD DUP2 SWAP1 MSTORE PUSH1 0x5 SLOAD SWAP4 MLOAD PUSH32 0x85AA033D00000000000000000000000000000000000000000000000000000000 DUP2 MSTORE PUSH1 0x4 DUP2 ADD SWAP2 SWAP1 SWAP2 MSTORE CALLER PUSH1 0x24 DUP3 ADD MSTORE SWAP1 SWAP3 SWAP1 SWAP2 AND SWAP1 PUSH4 0x85AA033D SWAP1 PUSH1 0x44 ADD PUSH1 0x20 PUSH1 0x40 MLOAD DUP1 DUP4 SUB DUP2 PUSH1 0x0 DUP8 DUP1 EXTCODESIZE ISZERO DUP1 ISZERO PUSH2 0x12C9 JUMPI PUSH1 0x0 DUP1 REVERT JUMPDEST POP GAS CALL ISZERO DUP1 ISZERO PUSH2 0x12DD JUMPI RETURNDATASIZE PUSH1 0x0 DUP1 RETURNDATACOPY RETURNDATASIZE PUSH1 0x0 REVERT JUMPDEST POP POP POP POP PUSH1 0x40 MLOAD RETURNDATASIZE PUSH1 0x1F NOT PUSH1 0x1F DUP3 ADD AND DUP3 ADD DUP1 PUSH1 0x40 MSTORE POP DUP2 ADD SWAP1 PUSH2 0x1301 SWAP2 SWAP1 PUSH2 0x2A48 JUMP JUMPDEST POP DUP1 MLOAD PUSH1 0x40 DUP1 DUP4 ADD MLOAD PUSH1 0x20 DUP5 ADD MLOAD SWAP2 MLOAD PUSH32 0x23B872DD00000000000000000000000000000000000000000000000000000000 DUP2 MSTORE ADDRESS PUSH1 0x4 DUP3 ADD MSTORE PUSH20 0xFFFFFFFFFFFFFFFFFFFFFFFFFFFFFFFFFFFFFFFF SWAP2 DUP3 AND PUSH1 0x24 DUP3 ADD MSTORE PUSH1 0x44 DUP2 ADD SWAP3 SWAP1 SWAP3 MSTORE DUP3 AND SWAP1 PUSH4 0x23B872DD SWAP1 PUSH1 0x64 ADD PUSH1 0x20 PUSH1 0x40 MLOAD DUP1 DUP4 SUB DUP2 PUSH1 0x0 DUP8 DUP1 EXTCODESIZE ISZERO DUP1 ISZERO PUSH2 0x1385 JUMPI PUSH1 0x0 DUP1 REVERT JUMPDEST POP GAS CALL ISZERO DUP1 ISZERO PUSH2 0x1399 JUMPI RETURNDATASIZE PUSH1 0x0 DUP1 RETURNDATACOPY RETURNDATASIZE PUSH1 0x0 REVERT JUMPDEST POP POP POP POP PUSH1 0x40 MLOAD RETURNDATASIZE PUSH1 0x1F NOT PUSH1 0x1F DUP3 ADD AND DUP3 ADD DUP1 PUSH1 0x40 MSTORE POP DUP2 ADD SWAP1 PUSH2 0x13BD SWAP2 SWAP1 PUSH2 0x2A48 JUMP JUMPDEST POP POP POP POP JUMP JUMPDEST PUSH1 0xB SLOAD DUP2 LT PUSH2 0x142E JUMPI PUSH1 0x40 MLOAD PUSH32 0x8C379A000000000000000000000000000000000000000000000000000000000 DUP2 MSTORE PUSH1 0x20 PUSH1 0x4 DUP3 ADD MSTORE PUSH1 0x10 PUSH1 0x24 DUP3 ADD MSTORE PUSH32 0x4E6F207375636820726571756573742E00000000000000000000000000000000 PUSH1 0x44 DUP3 ADD MSTORE PUSH1 0x64 ADD PUSH2 0x7BC JUMP JUMPDEST PUSH1 0x0 DUP2 DUP2 MSTORE PUSH1 0x6 PUSH1 0x20 SWAP1 DUP2 MSTORE PUSH1 0x40 SWAP2 DUP3 SWAP1 KECCAK256 DUP3 MLOAD PUSH1 0x60 DUP2 ADD DUP5 MSTORE DUP2 SLOAD DUP2 MSTORE PUSH1 0x1 DUP3 ADD SLOAD PUSH20 0xFFFFFFFFFFFFFFFFFFFFFFFFFFFFFFFFFFFFFFFF SWAP1 DUP2 AND SWAP4 DUP3 ADD SWAP4 SWAP1 SWAP4 MSTORE PUSH1 0x2 SWAP1 SWAP2 ADD SLOAD DUP2 DUP5 ADD DUP2 SWAP1 MSTORE PUSH1 0x5 SLOAD SWAP4 MLOAD PUSH32 0x85AA033D00000000000000000000000000000000000000000000000000000000 DUP2 MSTORE PUSH1 0x4 DUP2 ADD SWAP2 SWAP1 SWAP2 MSTORE CALLER PUSH1 0x24 DUP3 ADD MSTORE SWAP1 SWAP3 SWAP1 SWAP2 AND SWAP1 PUSH4 0x85AA033D SWAP1 PUSH1 0x44 ADD PUSH1 0x20 PUSH1 0x40 MLOAD DUP1 DUP4 SUB DUP2 PUSH1 0x0 DUP8 DUP1 EXTCODESIZE ISZERO DUP1 ISZERO PUSH2 0x14DB JUMPI PUSH1 0x0 DUP1 REVERT JUMPDEST POP GAS CALL ISZERO DUP1 ISZERO PUSH2 0x14EF JUMPI RETURNDATASIZE PUSH1 0x0 DUP1 RETURNDATACOPY RETURNDATASIZE PUSH1 0x0 REVERT JUMPDEST POP POP POP POP PUSH1 0x40 MLOAD RETURNDATASIZE PUSH1 0x1F NOT PUSH1 0x1F DUP3 ADD AND DUP3 ADD DUP1 PUSH1 0x40 MSTORE POP DUP2 ADD SWAP1 PUSH2 0x1513 SWAP2 SWAP1 PUSH2 0x2A48 JUMP JUMPDEST POP PUSH1 0x20 DUP2 ADD MLOAD DUP2 MLOAD PUSH1 0x40 MLOAD PUSH20 0xFFFFFFFFFFFFFFFFFFFFFFFFFFFFFFFFFFFFFFFF SWAP1 SWAP3 AND SWAP2 DUP2 ISZERO PUSH2 0x8FC MUL SWAP2 SWAP1 PUSH1 0x0 DUP2 DUP2 DUP2 DUP6 DUP9 DUP9 CALL SWAP4 POP POP POP POP ISZERO DUP1 ISZERO PUSH2 0x155E JUMPI RETURNDATASIZE PUSH1 0x0 DUP1 RETURNDATACOPY RETURNDATASIZE PUSH1 0x0 REVERT JUMPDEST POP POP POP JUMP JUMPDEST PUSH1 0xD SLOAD DUP2 LT PUSH2 0x15CE JUMPI PUSH1 0x40 MLOAD PUSH32 0x8C379A000000000000000000000000000000000000000000000000000000000 DUP2 MSTORE PUSH1 0x20 PUSH1 0x4 DUP3 ADD MSTORE PUSH1 0x10 PUSH1 0x24 DUP3 ADD MSTORE PUSH32 0x4E6F207375636820726571756573742E00000000000000000000000000000000 PUSH1 0x44 DUP3 ADD MSTORE PUSH1 0x64 ADD PUSH2 0x7BC JUMP JUMPDEST PUSH1 0x0 DUP2 DUP2 MSTORE PUSH1 0x8 PUSH1 0x20 SWAP1 DUP2 MSTORE PUSH1 0x40 SWAP2 DUP3 SWAP1 KECCAK256 DUP3 MLOAD PUSH1 0x80 DUP2 ADD DUP5 MSTORE DUP2 SLOAD PUSH20 0xFFFFFFFFFFFFFFFFFFFFFFFFFFFFFFFFFFFFFFFF SWAP1 DUP2 AND DUP3 MSTORE PUSH1 0x1 DUP4 ADD SLOAD SWAP4 DUP3 ADD SWAP4 SWAP1 SWAP4 MSTORE PUSH1 0x2 DUP3 ADD SLOAD DUP4 AND DUP2 DUP6 ADD MSTORE PUSH1 0x3 SWAP1 SWAP2 ADD SLOAD PUSH1 0x60 DUP3 ADD DUP2 SWAP1 MSTORE PUSH1 0x5 SLOAD SWAP4 MLOAD PUSH32 0x85AA033D00000000000000000000000000000000000000000000000000000000 DUP2 MSTORE PUSH1 0x4 DUP2 ADD SWAP2 SWAP1 SWAP2 MSTORE CALLER PUSH1 0x24 DUP3 ADD MSTORE SWAP1 SWAP3 SWAP1 SWAP2 AND SWAP1 PUSH4 0x85AA033D SWAP1 PUSH1 0x44 ADD PUSH1 0x20 PUSH1 0x40 MLOAD DUP1 DUP4 SUB DUP2 PUSH1 0x0 DUP8 DUP1 EXTCODESIZE ISZERO DUP1 ISZERO PUSH2 0x1687 JUMPI PUSH1 0x0 DUP1 REVERT JUMPDEST POP GAS CALL ISZERO DUP1 ISZERO PUSH2 0x169B JUMPI RETURNDATASIZE PUSH1 0x0 DUP1 RETURNDATACOPY RETURNDATASIZE PUSH1 0x0 REVERT JUMPDEST POP POP POP POP PUSH1 0x40 MLOAD RETURNDATASIZE PUSH1 0x1F NOT PUSH1 0x1F DUP3 ADD AND DUP3 ADD DUP1 PUSH1 0x40 MSTORE POP DUP2 ADD SWAP1 PUSH2 0x16BF SWAP2 SWAP1 PUSH2 0x2A48 JUMP JUMPDEST POP DUP1 MLOAD PUSH1 0x40 DUP1 DUP4 ADD MLOAD PUSH1 0x20 DUP5 ADD MLOAD SWAP2 MLOAD PUSH32 0x42842E0E00000000000000000000000000000000000000000000000000000000 DUP2 MSTORE ADDRESS PUSH1 0x4 DUP3 ADD MSTORE PUSH20 0xFFFFFFFFFFFFFFFFFFFFFFFFFFFFFFFFFFFFFFFF SWAP2 DUP3 AND PUSH1 0x24 DUP3 ADD MSTORE PUSH1 0x44 DUP2 ADD SWAP3 SWAP1 SWAP3 MSTORE DUP3 AND SWAP1 PUSH4 0x42842E0E SWAP1 PUSH1 0x64 ADD PUSH2 0xC3A JUMP JUMPDEST PUSH1 0x0 PUSH32 0xFFFFFFFF00000000000000000000000000000000000000000000000000000000 DUP3 AND PUSH32 0x4E2312E000000000000000000000000000000000000000000000000000000000 EQ DUP1 PUSH2 0x62A JUMPI POP PUSH32 0x1FFC9A700000000000000000000000000000000000000000000000000000000 PUSH32 0xFFFFFFFF00000000000000000000000000000000000000000000000000000000 DUP4 AND EQ PUSH2 0x62A JUMP JUMPDEST PUSH20 0xFFFFFFFFFFFFFFFFFFFFFFFFFFFFFFFFFFFFFFFF DUP4 AND PUSH2 0x1867 JUMPI PUSH1 0x40 MLOAD PUSH32 0x8C379A000000000000000000000000000000000000000000000000000000000 DUP2 MSTORE PUSH1 0x20 PUSH1 0x4 DUP3 ADD MSTORE PUSH1 0x24 DUP1 DUP3 ADD MSTORE PUSH32 0x45524332303A20617070726F76652066726F6D20746865207A65726F20616464 PUSH1 0x44 DUP3 ADD MSTORE PUSH32 0x7265737300000000000000000000000000000000000000000000000000000000 PUSH1 0x64 DUP3 ADD MSTORE PUSH1 0x84 ADD PUSH2 0x7BC JUMP JUMPDEST PUSH20 0xFFFFFFFFFFFFFFFFFFFFFFFFFFFFFFFFFFFFFFFF DUP3 AND PUSH2 0x190A JUMPI PUSH1 0x40 MLOAD PUSH32 0x8C379A000000000000000000000000000000000000000000000000000000000 DUP2 MSTORE PUSH1 0x20 PUSH1 0x4 DUP3 ADD MSTORE PUSH1 0x22 PUSH1 0x24 DUP3 ADD MSTORE PUSH32 0x45524332303A20617070726F766520746F20746865207A65726F206164647265 PUSH1 0x44 DUP3 ADD MSTORE PUSH32 0x7373000000000000000000000000000000000000000000000000000000000000 PUSH1 0x64 DUP3 ADD MSTORE PUSH1 0x84 ADD PUSH2 0x7BC JUMP JUMPDEST PUSH20 0xFFFFFFFFFFFFFFFFFFFFFFFFFFFFFFFFFFFFFFFF DUP4 DUP2 AND PUSH1 0x0 DUP2 DUP2 MSTORE PUSH1 0x1 PUSH1 0x20 SWAP1 DUP2 MSTORE PUSH1 0x40 DUP1 DUP4 KECCAK256 SWAP5 DUP8 AND DUP1 DUP5 MSTORE SWAP5 DUP3 MSTORE SWAP2 DUP3 SWAP1 KECCAK256 DUP6 SWAP1 SSTORE SWAP1 MLOAD DUP5 DUP2 MSTORE PUSH32 0x8C5BE1E5EBEC7D5BD14F71427D1E84F3DD0314C0F7B2291E5B200AC8C7C3B925 SWAP2 ADD PUSH1 0x40 MLOAD DUP1 SWAP2 SUB SWAP1 LOG3 POP POP POP JUMP JUMPDEST PUSH20 0xFFFFFFFFFFFFFFFFFFFFFFFFFFFFFFFFFFFFFFFF DUP4 AND PUSH2 0x1A1B JUMPI PUSH1 0x40 MLOAD PUSH32 0x8C379A000000000000000000000000000000000000000000000000000000000 DUP2 MSTORE PUSH1 0x20 PUSH1 0x4 DUP3 ADD MSTORE PUSH1 0x25 PUSH1 0x24 DUP3 ADD MSTORE PUSH32 0x45524332303A207472616E736665722066726F6D20746865207A65726F206164 PUSH1 0x44 DUP3 ADD MSTORE PUSH32 0x6472657373000000000000000000000000000000000000000000000000000000 PUSH1 0x64 DUP3 ADD MSTORE PUSH1 0x84 ADD PUSH2 0x7BC JUMP JUMPDEST PUSH20 0xFFFFFFFFFFFFFFFFFFFFFFFFFFFFFFFFFFFFFFFF DUP3 AND PUSH2 0x1ABE JUMPI PUSH1 0x40 MLOAD PUSH32 0x8C379A000000000000000000000000000000000000000000000000000000000 DUP2 MSTORE PUSH1 0x20 PUSH1 0x4 DUP3 ADD MSTORE PUSH1 0x23 PUSH1 0x24 DUP3 ADD MSTORE PUSH32 0x45524332303A207472616E7366657220746F20746865207A65726F2061646472 PUSH1 0x44 DUP3 ADD MSTORE PUSH32 0x6573730000000000000000000000000000000000000000000000000000000000 PUSH1 0x64 DUP3 ADD MSTORE PUSH1 0x84 ADD PUSH2 0x7BC JUMP JUMPDEST PUSH20 0xFFFFFFFFFFFFFFFFFFFFFFFFFFFFFFFFFFFFFFFF DUP4 AND PUSH1 0x0 SWAP1 DUP2 MSTORE PUSH1 0x20 DUP2 SWAP1 MSTORE PUSH1 0x40 SWAP1 KECCAK256 SLOAD DUP2 DUP2 LT ISZERO PUSH2 0x1B74 JUMPI PUSH1 0x40 MLOAD PUSH32 0x8C379A000000000000000000000000000000000000000000000000000000000 DUP2 MSTORE PUSH1 0x20 PUSH1 0x4 DUP3 ADD MSTORE PUSH1 0x26 PUSH1 0x24 DUP3 ADD MSTORE PUSH32 0x45524332303A207472616E7366657220616D6F756E7420657863656564732062 PUSH1 0x44 DUP3 ADD MSTORE PUSH32 0x616C616E63650000000000000000000000000000000000000000000000000000 PUSH1 0x64 DUP3 ADD MSTORE PUSH1 0x84 ADD PUSH2 0x7BC JUMP JUMPDEST PUSH20 0xFFFFFFFFFFFFFFFFFFFFFFFFFFFFFFFFFFFFFFFF DUP1 DUP6 AND PUSH1 0x0 SWAP1 DUP2 MSTORE PUSH1 0x20 DUP2 SWAP1 MSTORE PUSH1 0x40 DUP1 DUP3 KECCAK256 DUP6 DUP6 SUB SWAP1 SSTORE SWAP2 DUP6 AND DUP2 MSTORE SWAP1 DUP2 KECCAK256 DUP1 SLOAD DUP5 SWAP3 SWAP1 PUSH2 0x1BB8 SWAP1 DUP5 SWAP1 PUSH2 0x2C68 JUMP JUMPDEST SWAP3 POP POP DUP2 SWAP1 SSTORE POP DUP3 PUSH20 0xFFFFFFFFFFFFFFFFFFFFFFFFFFFFFFFFFFFFFFFF AND DUP5 PUSH20 0xFFFFFFFFFFFFFFFFFFFFFFFFFFFFFFFFFFFFFFFF AND PUSH32 0xDDF252AD1BE2C89B69C2B068FC378DAA952BA7F163C4A11628F55A4DF523B3EF DUP5 PUSH1 0x40 MLOAD PUSH2 0x1C1E SWAP2 DUP2 MSTORE PUSH1 0x20 ADD SWAP1 JUMP JUMPDEST PUSH1 0x40 MLOAD DUP1 SWAP2 SUB SWAP1 LOG3 PUSH2 0x13BD JUMP JUMPDEST PUSH1 0xF DUP1 SLOAD PUSH1 0x0 SWAP2 DUP2 SWAP1 DUP4 PUSH2 0x1C3E DUP4 PUSH2 0x2CD4 JUMP JUMPDEST SWAP1 SWAP2 SSTORE POP POP PUSH1 0x5 SLOAD PUSH1 0x40 MLOAD PUSH32 0x4A0E2AA100000000000000000000000000000000000000000000000000000000 DUP2 MSTORE CALLER PUSH1 0x4 DUP3 ADD MSTORE PUSH1 0x24 DUP2 ADD DUP9 SWAP1 MSTORE PUSH1 0x44 DUP2 ADD DUP7 SWAP1 MSTORE PUSH1 0x64 DUP2 ADD DUP6 SWAP1 MSTORE PUSH1 0x0 SWAP2 PUSH20 0xFFFFFFFFFFFFFFFFFFFFFFFFFFFFFFFFFFFFFFFF AND SWAP1 PUSH4 0x4A0E2AA1 SWAP1 PUSH1 0x84 ADD PUSH1 0x20 PUSH1 0x40 MLOAD DUP1 DUP4 SUB DUP2 PUSH1 0x0 DUP8 DUP1 EXTCODESIZE ISZERO DUP1 ISZERO PUSH2 0x1CC4 JUMPI PUSH1 0x0 DUP1 REVERT JUMPDEST POP GAS CALL ISZERO DUP1 ISZERO PUSH2 0x1CD8 JUMPI RETURNDATASIZE PUSH1 0x0 DUP1 RETURNDATACOPY RETURNDATASIZE PUSH1 0x0 REVERT JUMPDEST POP POP POP POP PUSH1 0x40 MLOAD RETURNDATASIZE PUSH1 0x1F NOT PUSH1 0x1F DUP3 ADD AND DUP3 ADD DUP1 PUSH1 0x40 MSTORE POP DUP2 ADD SWAP1 PUSH2 0x1CFC SWAP2 SWAP1 PUSH2 0x2AC5 JUMP JUMPDEST PUSH1 0x40 DUP1 MLOAD PUSH1 0xA0 DUP2 ADD DUP3 MSTORE PUSH20 0xFFFFFFFFFFFFFFFFFFFFFFFFFFFFFFFFFFFFFFFF DUP14 DUP2 AND DUP3 MSTORE PUSH1 0x20 DUP1 DUP4 ADD DUP15 DUP2 MSTORE DUP4 DUP6 ADD DUP15 SWAP1 MSTORE DUP12 DUP4 AND PUSH1 0x60 DUP6 ADD MSTORE PUSH1 0x80 DUP5 ADD DUP7 SWAP1 MSTORE PUSH1 0x0 DUP9 DUP2 MSTORE PUSH1 0xA DUP4 MSTORE SWAP5 SWAP1 SWAP5 KECCAK256 DUP4 MLOAD DUP2 SLOAD PUSH32 0xFFFFFFFFFFFFFFFFFFFFFFFF0000000000000000000000000000000000000000 AND SWAP4 AND SWAP3 SWAP1 SWAP3 OR DUP3 SSTORE SWAP3 MLOAD DUP1 MLOAD SWAP5 SWAP6 POP SWAP2 SWAP4 SWAP1 SWAP3 PUSH2 0x1D94 SWAP3 PUSH1 0x1 DUP6 ADD SWAP3 SWAP2 ADD SWAP1 PUSH2 0x2584 JUMP JUMPDEST POP PUSH1 0x40 DUP3 ADD MLOAD DUP1 MLOAD PUSH2 0x1DB0 SWAP2 PUSH1 0x2 DUP5 ADD SWAP2 PUSH1 0x20 SWAP1 SWAP2 ADD SWAP1 PUSH2 0x2584 JUMP JUMPDEST POP PUSH1 0x60 DUP3 ADD MLOAD PUSH1 0x3 DUP3 ADD DUP1 SLOAD PUSH32 0xFFFFFFFFFFFFFFFFFFFFFFFF0000000000000000000000000000000000000000 AND PUSH20 0xFFFFFFFFFFFFFFFFFFFFFFFFFFFFFFFFFFFFFFFF SWAP1 SWAP3 AND SWAP2 SWAP1 SWAP2 OR SWAP1 SSTORE PUSH1 0x80 SWAP1 SWAP2 ADD MLOAD PUSH1 0x4 SWAP1 SWAP2 ADD SSTORE SWAP10 SWAP9 POP POP POP POP POP POP POP POP POP JUMP JUMPDEST PUSH1 0xB DUP1 SLOAD PUSH1 0x0 SWAP2 DUP2 SWAP1 DUP4 PUSH2 0x1E28 DUP4 PUSH2 0x2CD4 JUMP JUMPDEST SWAP1 SWAP2 SSTORE POP POP PUSH1 0x5 SLOAD PUSH1 0x40 MLOAD PUSH32 0x4A0E2AA100000000000000000000000000000000000000000000000000000000 DUP2 MSTORE CALLER PUSH1 0x4 DUP3 ADD MSTORE PUSH1 0x24 DUP2 ADD DUP9 SWAP1 MSTORE PUSH1 0x44 DUP2 ADD DUP7 SWAP1 MSTORE PUSH1 0x64 DUP2 ADD DUP6 SWAP1 MSTORE PUSH1 0x0 SWAP2 PUSH20 0xFFFFFFFFFFFFFFFFFFFFFFFFFFFFFFFFFFFFFFFF AND SWAP1 PUSH4 0x4A0E2AA1 SWAP1 PUSH1 0x84 ADD PUSH1 0x20 PUSH1 0x40 MLOAD DUP1 DUP4 SUB DUP2 PUSH1 0x0 DUP8 DUP1 EXTCODESIZE ISZERO DUP1 ISZERO PUSH2 0x1EAE JUMPI PUSH1 0x0 DUP1 REVERT JUMPDEST POP GAS CALL ISZERO DUP1 ISZERO PUSH2 0x1EC2 JUMPI RETURNDATASIZE PUSH1 0x0 DUP1 RETURNDATACOPY RETURNDATASIZE PUSH1 0x0 REVERT JUMPDEST POP POP POP POP PUSH1 0x40 MLOAD RETURNDATASIZE PUSH1 0x1F NOT PUSH1 0x1F DUP3 ADD AND DUP3 ADD DUP1 PUSH1 0x40 MSTORE POP DUP2 ADD SWAP1 PUSH2 0x1EE6 SWAP2 SWAP1 PUSH2 0x2AC5 JUMP JUMPDEST PUSH1 0x40 DUP1 MLOAD PUSH1 0x60 DUP2 ADD DUP3 MSTORE DUP11 DUP2 MSTORE PUSH20 0xFFFFFFFFFFFFFFFFFFFFFFFFFFFFFFFFFFFFFFFF DUP10 DUP2 AND PUSH1 0x20 DUP1 DUP5 ADD SWAP2 DUP3 MSTORE DUP4 DUP6 ADD DUP7 DUP2 MSTORE PUSH1 0x0 DUP10 DUP2 MSTORE PUSH1 0x6 DUP4 MSTORE DUP7 SWAP1 KECCAK256 SWAP5 MLOAD DUP6 SSTORE SWAP2 MLOAD PUSH1 0x1 DUP6 ADD DUP1 SLOAD PUSH32 0xFFFFFFFFFFFFFFFFFFFFFFFF0000000000000000000000000000000000000000 AND SWAP2 SWAP1 SWAP5 AND OR SWAP1 SWAP3 SSTORE MLOAD PUSH1 0x2 SWAP1 SWAP3 ADD SWAP2 SWAP1 SWAP2 SSTORE DUP2 MLOAD DUP12 DUP2 MSTORE SWAP1 DUP2 ADD DUP6 SWAP1 MSTORE SWAP2 SWAP3 POP PUSH32 0x5BD988AF35B5D201645E02C3E7C48D1829B4D37CC8A45258EAF0719B1DE6D395 SWAP2 ADD PUSH1 0x40 MLOAD DUP1 SWAP2 SUB SWAP1 LOG1 SWAP8 SWAP7 POP POP POP POP POP POP POP JUMP JUMPDEST PUSH1 0xE DUP1 SLOAD PUSH1 0x0 SWAP2 DUP2 SWAP1 DUP4 PUSH2 0x1FBC DUP4 PUSH2 0x2CD4 JUMP JUMPDEST SWAP1 SWAP2 SSTORE POP POP PUSH1 0x5 SLOAD PUSH1 0x40 MLOAD PUSH32 0x4A0E2AA100000000000000000000000000000000000000000000000000000000 DUP2 MSTORE CALLER PUSH1 0x4 DUP3 ADD MSTORE PUSH1 0x24 DUP2 ADD DUP9 SWAP1 MSTORE PUSH1 0x44 DUP2 ADD DUP7 SWAP1 MSTORE PUSH1 0x64 DUP2 ADD DUP6 SWAP1 MSTORE PUSH1 0x0 SWAP2 PUSH20 0xFFFFFFFFFFFFFFFFFFFFFFFFFFFFFFFFFFFFFFFF AND SWAP1 PUSH4 0x4A0E2AA1 SWAP1 PUSH1 0x84 ADD PUSH1 0x20 PUSH1 0x40 MLOAD DUP1 DUP4 SUB DUP2 PUSH1 0x0 DUP8 DUP1 EXTCODESIZE ISZERO DUP1 ISZERO PUSH2 0x2042 JUMPI PUSH1 0x0 DUP1 REVERT JUMPDEST POP GAS CALL ISZERO DUP1 ISZERO PUSH2 0x2056 JUMPI RETURNDATASIZE PUSH1 0x0 DUP1 RETURNDATACOPY RETURNDATASIZE PUSH1 0x0 REVERT JUMPDEST POP POP POP POP PUSH1 0x40 MLOAD RETURNDATASIZE PUSH1 0x1F NOT PUSH1 0x1F DUP3 ADD AND DUP3 ADD DUP1 PUSH1 0x40 MSTORE POP DUP2 ADD SWAP1 PUSH2 0x207A SWAP2 SWAP1 PUSH2 0x2AC5 JUMP JUMPDEST PUSH1 0x40 DUP1 MLOAD PUSH1 0xA0 DUP2 ADD DUP3 MSTORE PUSH20 0xFFFFFFFFFFFFFFFFFFFFFFFFFFFFFFFFFFFFFFFF SWAP13 DUP14 AND DUP2 MSTORE PUSH1 0x20 DUP1 DUP3 ADD SWAP13 DUP14 MSTORE DUP2 DUP4 ADD SWAP12 DUP13 MSTORE SWAP9 DUP14 AND PUSH1 0x60 DUP3 ADD SWAP1 DUP2 MSTORE PUSH1 0x80 DUP3 ADD DUP5 DUP2 MSTORE PUSH1 0x0 SWAP7 DUP8 MSTORE PUSH1 0x9 SWAP1 SWAP11 MSTORE SWAP2 SWAP1 SWAP5 KECCAK256 SWAP4 MLOAD DUP5 SLOAD SWAP1 DUP14 AND PUSH32 0xFFFFFFFFFFFFFFFFFFFFFFFF0000000000000000000000000000000000000000 SWAP2 DUP3 AND OR DUP6 SSTORE SWAP11 MLOAD PUSH1 0x1 DUP6 ADD SSTORE SWAP9 MLOAD PUSH1 0x2 DUP5 ADD SSTORE SWAP8 MLOAD PUSH1 0x3 DUP4 ADD DUP1 SLOAD SWAP2 SWAP1 SWAP12 AND SWAP10 AND SWAP9 SWAP1 SWAP9 OR SWAP1 SWAP9 SSTORE POP POP SWAP1 MLOAD PUSH1 0x4 SWAP1 SWAP6 ADD SWAP5 SWAP1 SWAP5 SSTORE POP SWAP3 SWAP2 POP POP JUMP JUMPDEST PUSH1 0xD DUP1 SLOAD PUSH1 0x0 SWAP2 DUP2 SWAP1 DUP4 PUSH2 0x2143 DUP4 PUSH2 0x2CD4 JUMP JUMPDEST SWAP1 SWAP2 SSTORE POP POP PUSH1 0x5 SLOAD PUSH1 0x40 MLOAD PUSH32 0x4A0E2AA100000000000000000000000000000000000000000000000000000000 DUP2 MSTORE CALLER PUSH1 0x4 DUP3 ADD MSTORE PUSH1 0x24 DUP2 ADD DUP9 SWAP1 MSTORE PUSH1 0x44 DUP2 ADD DUP7 SWAP1 MSTORE PUSH1 0x64 DUP2 ADD DUP6 SWAP1 MSTORE PUSH1 0x0 SWAP2 PUSH20 0xFFFFFFFFFFFFFFFFFFFFFFFFFFFFFFFFFFFFFFFF AND SWAP1 PUSH4 0x4A0E2AA1 SWAP1 PUSH1 0x84 ADD PUSH1 0x20 PUSH1 0x40 MLOAD DUP1 DUP4 SUB DUP2 PUSH1 0x0 DUP8 DUP1 EXTCODESIZE ISZERO DUP1 ISZERO PUSH2 0x21C9 JUMPI PUSH1 0x0 DUP1 REVERT JUMPDEST POP GAS CALL ISZERO DUP1 ISZERO PUSH2 0x21DD JUMPI RETURNDATASIZE PUSH1 0x0 DUP1 RETURNDATACOPY RETURNDATASIZE PUSH1 0x0 REVERT JUMPDEST POP POP POP POP PUSH1 0x40 MLOAD RETURNDATASIZE PUSH1 0x1F NOT PUSH1 0x1F DUP3 ADD AND DUP3 ADD DUP1 PUSH1 0x40 MSTORE POP DUP2 ADD SWAP1 PUSH2 0x2201 SWAP2 SWAP1 PUSH2 0x2AC5 JUMP JUMPDEST PUSH1 0x40 DUP1 MLOAD PUSH1 0x80 DUP2 ADD DUP3 MSTORE PUSH20 0xFFFFFFFFFFFFFFFFFFFFFFFFFFFFFFFFFFFFFFFF SWAP12 DUP13 AND DUP2 MSTORE PUSH1 0x20 DUP1 DUP3 ADD SWAP12 DUP13 MSTORE SWAP9 DUP13 AND DUP2 DUP4 ADD SWAP1 DUP2 MSTORE PUSH1 0x60 DUP3 ADD DUP5 DUP2 MSTORE PUSH1 0x0 SWAP7 DUP8 MSTORE PUSH1 0x8 SWAP1 SWAP11 MSTORE SWAP2 SWAP1 SWAP5 KECCAK256 SWAP4 MLOAD DUP5 SLOAD SWAP1 DUP13 AND PUSH32 0xFFFFFFFFFFFFFFFFFFFFFFFF0000000000000000000000000000000000000000 SWAP2 DUP3 AND OR DUP6 SSTORE SWAP10 MLOAD PUSH1 0x1 DUP6 ADD SSTORE MLOAD PUSH1 0x2 DUP5 ADD DUP1 SLOAD SWAP2 SWAP1 SWAP12 AND SWAP10 AND SWAP9 SWAP1 SWAP9 OR SWAP1 SWAP9 SSTORE SWAP4 MLOAD PUSH1 0x3 SWAP1 SWAP5 ADD SWAP4 SWAP1 SWAP4 SSTORE POP SWAP3 SWAP5 SWAP4 POP POP POP POP JUMP JUMPDEST PUSH20 0xFFFFFFFFFFFFFFFFFFFFFFFFFFFFFFFFFFFFFFFF DUP3 AND PUSH2 0x2326 JUMPI PUSH1 0x40 MLOAD PUSH32 0x8C379A000000000000000000000000000000000000000000000000000000000 DUP2 MSTORE PUSH1 0x20 PUSH1 0x4 DUP3 ADD MSTORE PUSH1 0x1F PUSH1 0x24 DUP3 ADD MSTORE PUSH32 0x45524332303A206D696E7420746F20746865207A65726F206164647265737300 PUSH1 0x44 DUP3 ADD MSTORE PUSH1 0x64 ADD PUSH2 0x7BC JUMP JUMPDEST DUP1 PUSH1 0x2 PUSH1 0x0 DUP3 DUP3 SLOAD PUSH2 0x2338 SWAP2 SWAP1 PUSH2 0x2C68 JUMP JUMPDEST SWAP1 SWAP2 SSTORE POP POP PUSH20 0xFFFFFFFFFFFFFFFFFFFFFFFFFFFFFFFFFFFFFFFF DUP3 AND PUSH1 0x0 SWAP1 DUP2 MSTORE PUSH1 0x20 DUP2 SWAP1 MSTORE PUSH1 0x40 DUP2 KECCAK256 DUP1 SLOAD DUP4 SWAP3 SWAP1 PUSH2 0x2372 SWAP1 DUP5 SWAP1 PUSH2 0x2C68 JUMP JUMPDEST SWAP1 SWAP2 SSTORE POP POP PUSH1 0x40 MLOAD DUP2 DUP2 MSTORE PUSH20 0xFFFFFFFFFFFFFFFFFFFFFFFFFFFFFFFFFFFFFFFF DUP4 AND SWAP1 PUSH1 0x0 SWAP1 PUSH32 0xDDF252AD1BE2C89B69C2B068FC378DAA952BA7F163C4A11628F55A4DF523B3EF SWAP1 PUSH1 0x20 ADD PUSH1 0x40 MLOAD DUP1 SWAP2 SUB SWAP1 LOG3 POP POP JUMP JUMPDEST PUSH1 0xC DUP1 SLOAD PUSH1 0x0 SWAP2 DUP2 SWAP1 DUP4 PUSH2 0x23DC DUP4 PUSH2 0x2CD4 JUMP JUMPDEST SWAP1 SWAP2 SSTORE POP POP PUSH1 0x5 SLOAD PUSH1 0x40 MLOAD PUSH32 0x4A0E2AA100000000000000000000000000000000000000000000000000000000 DUP2 MSTORE CALLER PUSH1 0x4 DUP3 ADD MSTORE PUSH1 0x24 DUP2 ADD DUP9 SWAP1 MSTORE PUSH1 0x44 DUP2 ADD DUP7 SWAP1 MSTORE PUSH1 0x64 DUP2 ADD DUP6 SWAP1 MSTORE PUSH1 0x0 SWAP2 PUSH20 0xFFFFFFFFFFFFFFFFFFFFFFFFFFFFFFFFFFFFFFFF AND SWAP1 PUSH4 0x4A0E2AA1 SWAP1 PUSH1 0x84 ADD PUSH1 0x20 PUSH1 0x40 MLOAD DUP1 DUP4 SUB DUP2 PUSH1 0x0 DUP8 DUP1 EXTCODESIZE ISZERO DUP1 ISZERO PUSH2 0x2462 JUMPI PUSH1 0x0 DUP1 REVERT JUMPDEST POP GAS CALL ISZERO DUP1 ISZERO PUSH2 0x2476 JUMPI RETURNDATASIZE PUSH1 0x0 DUP1 RETURNDATACOPY RETURNDATASIZE PUSH1 0x0 REVERT JUMPDEST POP POP POP POP PUSH1 0x40 MLOAD RETURNDATASIZE PUSH1 0x1F NOT PUSH1 0x1F DUP3 ADD AND DUP3 ADD DUP1 PUSH1 0x40 MSTORE POP DUP2 ADD SWAP1 PUSH2 0x249A SWAP2 SWAP1 PUSH2 0x2AC5 JUMP JUMPDEST PUSH1 0x40 DUP1 MLOAD PUSH1 0x80 DUP2 ADD DUP3 MSTORE PUSH20 0xFFFFFFFFFFFFFFFFFFFFFFFFFFFFFFFFFFFFFFFF DUP13 DUP2 AND DUP1 DUP4 MSTORE PUSH1 0x20 DUP1 DUP5 ADD DUP15 DUP2 MSTORE DUP13 DUP5 AND DUP6 DUP8 ADD SWAP1 DUP2 MSTORE PUSH1 0x60 DUP1 DUP8 ADD DUP10 DUP2 MSTORE PUSH1 0x0 DUP13 DUP2 MSTORE PUSH1 0x7 DUP7 MSTORE DUP10 SWAP1 KECCAK256 SWAP8 MLOAD DUP9 SLOAD SWAP1 DUP9 AND PUSH32 0xFFFFFFFFFFFFFFFFFFFFFFFF0000000000000000000000000000000000000000 SWAP2 DUP3 AND OR DUP10 SSTORE SWAP4 MLOAD PUSH1 0x1 DUP10 ADD SSTORE SWAP2 MLOAD PUSH1 0x2 DUP9 ADD DUP1 SLOAD SWAP2 SWAP1 SWAP8 AND SWAP4 AND SWAP3 SWAP1 SWAP3 OR SWAP1 SWAP5 SSTORE SWAP3 MLOAD PUSH1 0x3 SWAP1 SWAP5 ADD SWAP4 SWAP1 SWAP4 SSTORE DUP4 MLOAD SWAP1 DUP2 MSTORE SWAP2 DUP3 ADD DUP13 SWAP1 MSTORE SWAP2 DUP2 ADD DUP6 SWAP1 MSTORE SWAP2 SWAP3 POP PUSH32 0x910585F63ACC02D6018F09A37FBAABC1337981145D31B4EC43B8D459E8CE67BA SWAP2 ADD PUSH1 0x40 MLOAD DUP1 SWAP2 SUB SWAP1 LOG1 SWAP9 SWAP8 POP POP POP POP POP POP POP POP JUMP JUMPDEST DUP3 DUP1 SLOAD DUP3 DUP3 SSTORE SWAP1 PUSH1 0x0 MSTORE PUSH1 0x20 PUSH1 0x0 KECCAK256 SWAP1 DUP2 ADD SWAP3 DUP3 ISZERO PUSH2 0x25BF JUMPI SWAP2 PUSH1 0x20 MUL DUP3 ADD JUMPDEST DUP3 DUP2 GT ISZERO PUSH2 0x25BF JUMPI DUP3 MLOAD DUP3 SSTORE SWAP2 PUSH1 0x20 ADD SWAP2 SWAP1 PUSH1 0x1 ADD SWAP1 PUSH2 0x25A4 JUMP JUMPDEST POP PUSH2 0x25CB SWAP3 SWAP2 POP PUSH2 0x25CF JUMP JUMPDEST POP SWAP1 JUMP JUMPDEST JUMPDEST DUP1 DUP3 GT ISZERO PUSH2 0x25CB JUMPI PUSH1 0x0 DUP2 SSTORE PUSH1 0x1 ADD PUSH2 0x25D0 JUMP JUMPDEST PUSH1 0x0 DUP3 PUSH1 0x1F DUP4 ADD SLT PUSH2 0x25F5 JUMPI PUSH1 0x0 DUP1 REVERT JUMPDEST DUP2 CALLDATALOAD PUSH1 0x20 PUSH8 0xFFFFFFFFFFFFFFFF DUP3 GT ISZERO PUSH2 0x2611 JUMPI PUSH2 0x2611 PUSH2 0x2D3C JUMP JUMPDEST DUP2 PUSH1 0x5 SHL PUSH2 0x2620 DUP3 DUP3 ADD PUSH2 0x2C19 JUMP JUMPDEST DUP4 DUP2 MSTORE DUP3 DUP2 ADD SWAP1 DUP7 DUP5 ADD DUP4 DUP9 ADD DUP6 ADD DUP10 LT ISZERO PUSH2 0x263B JUMPI PUSH1 0x0 DUP1 REVERT JUMPDEST PUSH1 0x0 SWAP4 POP JUMPDEST DUP6 DUP5 LT ISZERO PUSH2 0x265E JUMPI DUP1 CALLDATALOAD DUP4 MSTORE PUSH1 0x1 SWAP4 SWAP1 SWAP4 ADD SWAP3 SWAP2 DUP5 ADD SWAP2 DUP5 ADD PUSH2 0x2640 JUMP JUMPDEST POP SWAP8 SWAP7 POP POP POP POP POP POP POP JUMP JUMPDEST PUSH1 0x0 DUP3 PUSH1 0x1F DUP4 ADD SLT PUSH2 0x267B JUMPI PUSH1 0x0 DUP1 REVERT JUMPDEST DUP2 CALLDATALOAD PUSH8 0xFFFFFFFFFFFFFFFF DUP2 GT ISZERO PUSH2 0x2695 JUMPI PUSH2 0x2695 PUSH2 0x2D3C JUMP JUMPDEST PUSH2 0x26C6 PUSH1 0x20 PUSH32 0xFFFFFFFFFFFFFFFFFFFFFFFFFFFFFFFFFFFFFFFFFFFFFFFFFFFFFFFFFFFFFFE0 PUSH1 0x1F DUP5 ADD AND ADD PUSH2 0x2C19 JUMP JUMPDEST DUP2 DUP2 MSTORE DUP5 PUSH1 0x20 DUP4 DUP7 ADD ADD GT ISZERO PUSH2 0x26DB JUMPI PUSH1 0x0 DUP1 REVERT JUMPDEST DUP2 PUSH1 0x20 DUP6 ADD PUSH1 0x20 DUP4 ADD CALLDATACOPY PUSH1 0x0 SWAP2 DUP2 ADD PUSH1 0x20 ADD SWAP2 SWAP1 SWAP2 MSTORE SWAP4 SWAP3 POP POP POP JUMP JUMPDEST PUSH1 0x0 PUSH1 0x20 DUP3 DUP5 SUB SLT ISZERO PUSH2 0x270A JUMPI PUSH1 0x0 DUP1 REVERT JUMPDEST DUP2 CALLDATALOAD PUSH2 0xCD0 DUP2 PUSH2 0x2D6B JUMP JUMPDEST PUSH1 0x0 DUP1 PUSH1 0x40 DUP4 DUP6 SUB SLT ISZERO PUSH2 0x2728 JUMPI PUSH1 0x0 DUP1 REVERT JUMPDEST DUP3 CALLDATALOAD PUSH2 0x2733 DUP2 PUSH2 0x2D6B JUMP JUMPDEST SWAP2 POP PUSH1 0x20 DUP4 ADD CALLDATALOAD PUSH2 0x2743 DUP2 PUSH2 0x2D6B JUMP JUMPDEST DUP1 SWAP2 POP POP SWAP3 POP SWAP3 SWAP1 POP JUMP JUMPDEST PUSH1 0x0 DUP1 PUSH1 0x0 DUP1 PUSH1 0x0 PUSH1 0xA0 DUP7 DUP9 SUB SLT ISZERO PUSH2 0x2766 JUMPI PUSH1 0x0 DUP1 REVERT JUMPDEST DUP6 CALLDATALOAD PUSH2 0x2771 DUP2 PUSH2 0x2D6B JUMP JUMPDEST SWAP5 POP PUSH1 0x20 DUP7 ADD CALLDATALOAD PUSH2 0x2781 DUP2 PUSH2 0x2D6B JUMP JUMPDEST SWAP4 POP PUSH1 0x40 DUP7 ADD CALLDATALOAD PUSH8 0xFFFFFFFFFFFFFFFF DUP1 DUP3 GT ISZERO PUSH2 0x279E JUMPI PUSH1 0x0 DUP1 REVERT JUMPDEST PUSH2 0x27AA DUP10 DUP4 DUP11 ADD PUSH2 0x25E4 JUMP JUMPDEST SWAP5 POP PUSH1 0x60 DUP9 ADD CALLDATALOAD SWAP2 POP DUP1 DUP3 GT ISZERO PUSH2 0x27C0 JUMPI PUSH1 0x0 DUP1 REVERT JUMPDEST PUSH2 0x27CC DUP10 DUP4 DUP11 ADD PUSH2 0x25E4 JUMP JUMPDEST SWAP4 POP PUSH1 0x80 DUP9 ADD CALLDATALOAD SWAP2 POP DUP1 DUP3 GT ISZERO PUSH2 0x27E2 JUMPI PUSH1 0x0 DUP1 REVERT JUMPDEST POP PUSH2 0x27EF DUP9 DUP3 DUP10 ADD PUSH2 0x266A JUMP JUMPDEST SWAP2 POP POP SWAP3 SWAP6 POP SWAP3 SWAP6 SWAP1 SWAP4 POP JUMP JUMPDEST PUSH1 0x0 DUP1 PUSH1 0x0 PUSH1 0x60 DUP5 DUP7 SUB SLT ISZERO PUSH2 0x2811 JUMPI PUSH1 0x0 DUP1 REVERT JUMPDEST DUP4 CALLDATALOAD PUSH2 0x281C DUP2 PUSH2 0x2D6B JUMP JUMPDEST SWAP3 POP PUSH1 0x20 DUP5 ADD CALLDATALOAD PUSH2 0x282C DUP2 PUSH2 0x2D6B JUMP JUMPDEST SWAP3 SWAP6 SWAP3 SWAP5 POP POP POP PUSH1 0x40 SWAP2 SWAP1 SWAP2 ADD CALLDATALOAD SWAP1 JUMP JUMPDEST PUSH1 0x0 DUP1 PUSH1 0x0 DUP1 PUSH1 0x80 DUP6 DUP8 SUB SLT ISZERO PUSH2 0x2853 JUMPI PUSH1 0x0 DUP1 REVERT JUMPDEST DUP5 CALLDATALOAD PUSH2 0x285E DUP2 PUSH2 0x2D6B JUMP JUMPDEST SWAP4 POP PUSH1 0x20 DUP6 ADD CALLDATALOAD PUSH2 0x286E DUP2 PUSH2 0x2D6B JUMP JUMPDEST SWAP3 POP PUSH1 0x40 DUP6 ADD CALLDATALOAD SWAP2 POP PUSH1 0x60 DUP6 ADD CALLDATALOAD PUSH8 0xFFFFFFFFFFFFFFFF DUP2 GT ISZERO PUSH2 0x2891 JUMPI PUSH1 0x0 DUP1 REVERT JUMPDEST PUSH2 0x289D DUP8 DUP3 DUP9 ADD PUSH2 0x266A JUMP JUMPDEST SWAP2 POP POP SWAP3 SWAP6 SWAP2 SWAP5 POP SWAP3 POP JUMP JUMPDEST PUSH1 0x0 DUP1 PUSH1 0x0 DUP1 PUSH1 0x0 PUSH1 0xA0 DUP7 DUP9 SUB SLT ISZERO PUSH2 0x28C1 JUMPI PUSH1 0x0 DUP1 REVERT JUMPDEST DUP6 CALLDATALOAD PUSH2 0x28CC DUP2 PUSH2 0x2D6B JUMP JUMPDEST SWAP5 POP PUSH1 0x20 DUP7 ADD CALLDATALOAD PUSH2 0x28DC DUP2 PUSH2 0x2D6B JUMP JUMPDEST SWAP4 POP PUSH1 0x40 DUP7 ADD CALLDATALOAD SWAP3 POP PUSH1 0x60 DUP7 ADD CALLDATALOAD SWAP2 POP PUSH1 0x80 DUP7 ADD CALLDATALOAD PUSH8 0xFFFFFFFFFFFFFFFF DUP2 GT ISZERO PUSH2 0x2906 JUMPI PUSH1 0x0 DUP1 REVERT JUMPDEST PUSH2 0x27EF DUP9 DUP3 DUP10 ADD PUSH2 0x266A JUMP JUMPDEST PUSH1 0x0 DUP1 PUSH1 0x0 DUP1 PUSH1 0x80 DUP6 DUP8 SUB SLT ISZERO PUSH2 0x2928 JUMPI PUSH1 0x0 DUP1 REVERT JUMPDEST DUP5 CALLDATALOAD PUSH2 0x2933 DUP2 PUSH2 0x2D6B JUMP JUMPDEST SWAP4 POP PUSH1 0x20 DUP6 ADD CALLDATALOAD PUSH8 0xFFFFFFFFFFFFFFFF DUP1 DUP3 GT ISZERO PUSH2 0x2950 JUMPI PUSH1 0x0 DUP1 REVERT JUMPDEST PUSH2 0x295C DUP9 DUP4 DUP10 ADD PUSH2 0x25E4 JUMP JUMPDEST SWAP5 POP PUSH1 0x40 DUP8 ADD CALLDATALOAD SWAP2 POP DUP1 DUP3 GT ISZERO PUSH2 0x2972 JUMPI PUSH1 0x0 DUP1 REVERT JUMPDEST POP PUSH2 0x297F DUP8 DUP3 DUP9 ADD PUSH2 0x25E4 JUMP JUMPDEST SWAP3 POP POP PUSH1 0x60 DUP6 ADD CALLDATALOAD PUSH2 0x2990 DUP2 PUSH2 0x2D6B JUMP JUMPDEST SWAP4 SWAP7 SWAP3 SWAP6 POP SWAP1 SWAP4 POP POP JUMP JUMPDEST PUSH1 0x0 DUP1 PUSH1 0x40 DUP4 DUP6 SUB SLT ISZERO PUSH2 0x29AE JUMPI PUSH1 0x0 DUP1 REVERT JUMPDEST DUP3 CALLDATALOAD PUSH2 0x29B9 DUP2 PUSH2 0x2D6B JUMP JUMPDEST SWAP5 PUSH1 0x20 SWAP4 SWAP1 SWAP4 ADD CALLDATALOAD SWAP4 POP POP POP JUMP JUMPDEST PUSH1 0x0 DUP1 PUSH1 0x0 PUSH1 0x60 DUP5 DUP7 SUB SLT ISZERO PUSH2 0x29DC JUMPI PUSH1 0x0 DUP1 REVERT JUMPDEST DUP4 CALLDATALOAD PUSH2 0x29E7 DUP2 PUSH2 0x2D6B JUMP JUMPDEST SWAP3 POP PUSH1 0x20 DUP5 ADD CALLDATALOAD SWAP2 POP PUSH1 0x40 DUP5 ADD CALLDATALOAD PUSH2 0x29FE DUP2 PUSH2 0x2D6B JUMP JUMPDEST DUP1 SWAP2 POP POP SWAP3 POP SWAP3 POP SWAP3 JUMP JUMPDEST PUSH1 0x0 DUP1 PUSH1 0x0 DUP1 PUSH1 0x80 DUP6 DUP8 SUB SLT ISZERO PUSH2 0x2A1F JUMPI PUSH1 0x0 DUP1 REVERT JUMPDEST DUP5 CALLDATALOAD PUSH2 0x2A2A DUP2 PUSH2 0x2D6B JUMP JUMPDEST SWAP4 POP PUSH1 0x20 DUP6 ADD CALLDATALOAD SWAP3 POP PUSH1 0x40 DUP6 ADD CALLDATALOAD SWAP2 POP PUSH1 0x60 DUP6 ADD CALLDATALOAD PUSH2 0x2990 DUP2 PUSH2 0x2D6B JUMP JUMPDEST PUSH1 0x0 PUSH1 0x20 DUP3 DUP5 SUB SLT ISZERO PUSH2 0x2A5A JUMPI PUSH1 0x0 DUP1 REVERT JUMPDEST DUP2 MLOAD DUP1 ISZERO ISZERO DUP2 EQ PUSH2 0xCD0 JUMPI PUSH1 0x0 DUP1 REVERT JUMPDEST PUSH1 0x0 PUSH1 0x20 DUP3 DUP5 SUB SLT ISZERO PUSH2 0x2A7C JUMPI PUSH1 0x0 DUP1 REVERT JUMPDEST DUP2 CALLDATALOAD PUSH32 0xFFFFFFFF00000000000000000000000000000000000000000000000000000000 DUP2 AND DUP2 EQ PUSH2 0xCD0 JUMPI PUSH1 0x0 DUP1 REVERT JUMPDEST PUSH1 0x0 PUSH1 0x20 DUP3 DUP5 SUB SLT ISZERO PUSH2 0x2ABE JUMPI PUSH1 0x0 DUP1 REVERT JUMPDEST POP CALLDATALOAD SWAP2 SWAP1 POP JUMP JUMPDEST PUSH1 0x0 PUSH1 0x20 DUP3 DUP5 SUB SLT ISZERO PUSH2 0x2AD7 JUMPI PUSH1 0x0 DUP1 REVERT JUMPDEST POP MLOAD SWAP2 SWAP1 POP JUMP JUMPDEST PUSH1 0x0 DUP1 PUSH1 0x40 DUP4 DUP6 SUB SLT ISZERO PUSH2 0x2AF1 JUMPI PUSH1 0x0 DUP1 REVERT JUMPDEST DUP3 CALLDATALOAD SWAP2 POP PUSH1 0x20 DUP4 ADD CALLDATALOAD PUSH2 0x2743 DUP2 PUSH2 0x2D6B JUMP JUMPDEST PUSH1 0x0 DUP2 MLOAD DUP1 DUP5 MSTORE PUSH1 0x20 DUP1 DUP6 ADD SWAP5 POP DUP1 DUP5 ADD PUSH1 0x0 JUMPDEST DUP4 DUP2 LT ISZERO PUSH2 0x2B33 JUMPI DUP2 MLOAD DUP8 MSTORE SWAP6 DUP3 ADD SWAP6 SWAP1 DUP3 ADD SWAP1 PUSH1 0x1 ADD PUSH2 0x2B17 JUMP JUMPDEST POP SWAP5 SWAP6 SWAP5 POP POP POP POP POP JUMP JUMPDEST PUSH1 0x0 PUSH20 0xFFFFFFFFFFFFFFFFFFFFFFFFFFFFFFFFFFFFFFFF DUP1 DUP8 AND DUP4 MSTORE DUP1 DUP7 AND PUSH1 0x20 DUP5 ADD MSTORE POP PUSH1 0xA0 PUSH1 0x40 DUP4 ADD MSTORE PUSH2 0x2B77 PUSH1 0xA0 DUP4 ADD DUP6 PUSH2 0x2B03 JUMP JUMPDEST DUP3 DUP2 SUB PUSH1 0x60 DUP5 ADD MSTORE PUSH2 0x2B89 DUP2 DUP6 PUSH2 0x2B03 JUMP JUMPDEST DUP4 DUP2 SUB PUSH1 0x80 SWAP1 SWAP5 ADD SWAP4 SWAP1 SWAP4 MSTORE POP POP PUSH1 0x0 DUP2 MSTORE PUSH1 0x20 ADD SWAP5 SWAP4 POP POP POP POP JUMP JUMPDEST PUSH1 0x0 PUSH1 0x20 DUP1 DUP4 MSTORE DUP4 MLOAD DUP1 DUP3 DUP6 ADD MSTORE PUSH1 0x0 JUMPDEST DUP2 DUP2 LT ISZERO PUSH2 0x2BD3 JUMPI DUP6 DUP2 ADD DUP4 ADD MLOAD DUP6 DUP3 ADD PUSH1 0x40 ADD MSTORE DUP3 ADD PUSH2 0x2BB7 JUMP JUMPDEST DUP2 DUP2 GT ISZERO PUSH2 0x2BE5 JUMPI PUSH1 0x0 PUSH1 0x40 DUP4 DUP8 ADD ADD MSTORE JUMPDEST POP PUSH1 0x1F ADD PUSH32 0xFFFFFFFFFFFFFFFFFFFFFFFFFFFFFFFFFFFFFFFFFFFFFFFFFFFFFFFFFFFFFFE0 AND SWAP3 SWAP1 SWAP3 ADD PUSH1 0x40 ADD SWAP4 SWAP3 POP POP POP JUMP JUMPDEST PUSH1 0x40 MLOAD PUSH1 0x1F DUP3 ADD PUSH32 0xFFFFFFFFFFFFFFFFFFFFFFFFFFFFFFFFFFFFFFFFFFFFFFFFFFFFFFFFFFFFFFE0 AND DUP2 ADD PUSH8 0xFFFFFFFFFFFFFFFF DUP2 GT DUP3 DUP3 LT OR ISZERO PUSH2 0x2C60 JUMPI PUSH2 0x2C60 PUSH2 0x2D3C JUMP JUMPDEST PUSH1 0x40 MSTORE SWAP2 SWAP1 POP JUMP JUMPDEST PUSH1 0x0 DUP3 NOT DUP3 GT ISZERO PUSH2 0x2C7B JUMPI PUSH2 0x2C7B PUSH2 0x2D0D JUMP JUMPDEST POP ADD SWAP1 JUMP JUMPDEST PUSH1 0x1 DUP2 DUP2 SHR SWAP1 DUP3 AND DUP1 PUSH2 0x2C94 JUMPI PUSH1 0x7F DUP3 AND SWAP2 POP JUMPDEST PUSH1 0x20 DUP3 LT DUP2 EQ ISZERO PUSH2 0x2CCE JUMPI PUSH32 0x4E487B7100000000000000000000000000000000000000000000000000000000 PUSH1 0x0 MSTORE PUSH1 0x22 PUSH1 0x4 MSTORE PUSH1 0x24 PUSH1 0x0 REVERT JUMPDEST POP SWAP2 SWAP1 POP JUMP JUMPDEST PUSH1 0x0 PUSH32 0xFFFFFFFFFFFFFFFFFFFFFFFFFFFFFFFFFFFFFFFFFFFFFFFFFFFFFFFFFFFFFFFF DUP3 EQ ISZERO PUSH2 0x2D06 JUMPI PUSH2 0x2D06 PUSH2 0x2D0D JUMP JUMPDEST POP PUSH1 0x1 ADD SWAP1 JUMP JUMPDEST PUSH32 0x4E487B7100000000000000000000000000000000000000000000000000000000 PUSH1 0x0 MSTORE PUSH1 0x11 PUSH1 0x4 MSTORE PUSH1 0x24 PUSH1 0x0 REVERT JUMPDEST PUSH32 0x4E487B7100000000000000000000000000000000000000000000000000000000 PUSH1 0x0 MSTORE PUSH1 0x41 PUSH1 0x4 MSTORE PUSH1 0x24 PUSH1 0x0 REVERT JUMPDEST PUSH20 0xFFFFFFFFFFFFFFFFFFFFFFFFFFFFFFFFFFFFFFFF DUP2 AND DUP2 EQ PUSH2 0x2D8D JUMPI PUSH1 0x0 DUP1 REVERT JUMPDEST POP JUMP INVALID LOG2 PUSH5 0x6970667358 0x22 SLT KECCAK256 JUMP PUSH8 0xAF3C54B69425B58B MSTORE 0xE8 CALL 0xEE 0xC8 SAR RETURNDATASIZE 0xA6 SWAP2 PUSH31 0xA1F2A33E56FB468AF4A7741464736F6C634300080700336080604052601580 SLOAD PUSH2 0xFFFF NOT AND SWAP1 SSTORE CALLVALUE DUP1 ISZERO PUSH3 0x1C JUMPI PUSH1 0x0 DUP1 REVERT JUMPDEST POP PUSH1 0x40 DUP1 MLOAD DUP1 DUP3 ADD DUP3 MSTORE PUSH1 0x9 DUP2 MSTORE PUSH9 0x434D44205469746C65 PUSH1 0xB8 SHL PUSH1 0x20 DUP1 DUP4 ADD SWAP2 DUP3 MSTORE DUP4 MLOAD DUP1 DUP6 ADD SWAP1 SWAP5 MSTORE PUSH1 0x3 DUP5 MSTORE PUSH3 0x151513 PUSH1 0xEA SHL SWAP1 DUP5 ADD MSTORE DUP2 MLOAD ADDRESS SWAP4 DUP5 SWAP4 SWAP3 SWAP1 SWAP2 PUSH3 0x6D SWAP2 PUSH1 0x0 SWAP2 PUSH3 0xA24 JUMP JUMPDEST POP DUP1 MLOAD PUSH3 0x83 SWAP1 PUSH1 0x1 SWAP1 PUSH1 0x20 DUP5 ADD SWAP1 PUSH3 0xA24 JUMP JUMPDEST POP POP PUSH1 0xA DUP1 SLOAD PUSH1 0x1 PUSH1 0x1 PUSH1 0xA0 SHL SUB NOT SWAP1 DUP2 AND PUSH1 0x1 PUSH1 0x1 PUSH1 0xA0 SHL SUB SWAP5 DUP6 AND OR DUP3 SSTORE PUSH1 0xB DUP1 SLOAD CALLER SWAP1 DUP4 AND DUP2 OR SWAP1 SWAP2 SSTORE PUSH1 0x18 DUP1 SLOAD DUP4 AND SWAP7 SWAP1 SWAP6 AND SWAP6 SWAP1 SWAP6 OR SWAP1 SWAP4 SSTORE PUSH1 0x25 DUP1 SLOAD SWAP1 SWAP4 AND SWAP1 SWAP4 OR SWAP1 SWAP2 SSTORE POP PUSH1 0x40 DUP1 MLOAD DUP1 DUP3 ADD SWAP1 SWAP2 MSTORE PUSH1 0x1B DUP1 DUP3 MSTORE PUSH32 0x68747470733A2F2F7469746C65732E77726C64636F696E2E696F2F0000000000 PUSH1 0x20 SWAP1 SWAP3 ADD SWAP2 DUP3 MSTORE PUSH1 0x0 SWAP3 PUSH10 0x8AC7230489E80000000 SWAP3 SWAP1 SWAP2 PUSH3 0x126 SWAP2 PUSH1 0x2A SWAP2 PUSH3 0xA24 JUMP JUMPDEST POP PUSH1 0x0 SWAP3 POP JUMPDEST PUSH1 0xD DUP4 PUSH1 0xFF AND LT ISZERO PUSH3 0x1AC JUMPI PUSH1 0x40 DUP1 MLOAD DUP1 DUP3 ADD DUP3 MSTORE DUP4 DUP2 MSTORE PUSH1 0x1 PUSH1 0x1 PUSH1 0x40 SHL SUB DUP4 DUP2 AND PUSH1 0x20 DUP1 DUP5 ADD SWAP2 DUP3 MSTORE PUSH1 0xFF DUP9 AND PUSH1 0x0 SWAP1 DUP2 MSTORE PUSH1 0x29 SWAP1 SWAP2 MSTORE SWAP4 SWAP1 SWAP4 KECCAK256 SWAP2 MLOAD DUP3 SSTORE SWAP2 MLOAD PUSH1 0x1 SWAP1 SWAP2 ADD DUP1 SLOAD PUSH1 0x1 PUSH1 0x1 PUSH1 0x40 SHL SUB NOT AND SWAP2 SWAP1 SWAP3 AND OR SWAP1 SSTORE PUSH3 0x195 PUSH1 0x2 DUP4 PUSH3 0xB93 JUMP JUMPDEST SWAP2 POP DUP3 PUSH3 0x1A3 DUP2 PUSH3 0xC37 JUMP JUMPDEST SWAP4 POP POP PUSH3 0x12C JUMP JUMPDEST PUSH1 0x0 SWAP3 POP JUMPDEST PUSH1 0x32 DUP4 PUSH1 0xFF AND LT ISZERO PUSH3 0x1DF JUMPI PUSH3 0x1C9 CALLER PUSH3 0x1E8 JUMP JUMPDEST POP DUP3 PUSH3 0x1D6 DUP2 PUSH3 0xC37 JUMP JUMPDEST SWAP4 POP POP PUSH3 0x1B1 JUMP JUMPDEST POP POP POP PUSH3 0xC9C JUMP JUMPDEST PUSH1 0x23 DUP1 SLOAD PUSH1 0x0 SWAP2 PUSH1 0x1 PUSH1 0xA0 SHL SWAP1 SWAP2 DIV PUSH1 0x1 PUSH1 0x1 PUSH1 0x40 SHL SUB AND SWAP1 DUP2 SWAP1 PUSH1 0x14 PUSH3 0x210 DUP4 PUSH3 0xC0D JUMP JUMPDEST DUP3 SLOAD PUSH2 0x100 SWAP3 SWAP1 SWAP3 EXP PUSH1 0x1 PUSH1 0x1 PUSH1 0x40 SHL SUB DUP2 DUP2 MUL NOT SWAP1 SWAP4 AND SWAP2 DUP4 AND MUL OR SWAP1 SWAP2 SSTORE PUSH1 0x40 DUP1 MLOAD PUSH1 0xC0 DUP2 ADD DUP3 MSTORE PUSH1 0x0 DUP1 DUP3 MSTORE PUSH1 0x20 DUP1 DUP4 ADD DUP8 DUP2 MSTORE DUP4 DUP6 ADD DUP4 DUP2 MSTORE PUSH32 0xB7634EC2165A7280A285AAC3EC10CF370ECA86D8AA9D3243C90B2151434091AD DUP1 SLOAD DUP9 AND PUSH1 0x60 DUP8 ADD SWAP1 DUP2 MSTORE PUSH1 0x80 DUP8 ADD DUP7 DUP2 MSTORE CALLER PUSH1 0xA0 DUP10 ADD SWAP1 DUP2 MSTORE DUP13 DUP9 MSTORE PUSH1 0x28 DUP8 MSTORE SWAP9 DUP8 KECCAK256 SWAP8 MLOAD DUP9 SLOAD PUSH1 0xFF NOT AND PUSH1 0xFF SWAP1 SWAP2 AND OR DUP9 SSTORE SWAP4 MLOAD PUSH1 0x1 DUP9 ADD SSTORE SWAP2 MLOAD PUSH1 0x2 DUP8 ADD SSTORE SWAP1 MLOAD PUSH1 0x3 DUP7 ADD DUP1 SLOAD SWAP4 MLOAD SWAP2 DUP10 AND PUSH1 0x1 PUSH1 0x1 PUSH1 0x80 SHL SUB NOT SWAP1 SWAP5 AND SWAP4 SWAP1 SWAP4 OR PUSH9 0x10000000000000000 SWAP2 DUP10 AND SWAP2 SWAP1 SWAP2 MUL OR SWAP1 SWAP2 SSTORE SWAP4 MLOAD PUSH1 0x4 SWAP1 SWAP4 ADD DUP1 SLOAD PUSH1 0x1 PUSH1 0x1 PUSH1 0xA0 SHL SUB NOT AND PUSH1 0x1 PUSH1 0x1 PUSH1 0xA0 SHL SUB SWAP1 SWAP5 AND SWAP4 SWAP1 SWAP4 OR SWAP1 SWAP3 SSTORE DUP1 DUP1 MSTORE PUSH1 0x24 SWAP1 SWAP2 MSTORE DUP2 SLOAD SWAP1 SWAP3 AND SWAP3 POP SWAP1 PUSH3 0x322 DUP4 PUSH3 0xC0D JUMP JUMPDEST SWAP2 SWAP1 PUSH2 0x100 EXP DUP2 SLOAD DUP2 PUSH1 0x1 PUSH1 0x1 PUSH1 0x40 SHL SUB MUL NOT AND SWAP1 DUP4 PUSH1 0x1 PUSH1 0x1 PUSH1 0x40 SHL SUB AND MUL OR SWAP1 SSTORE POP POP PUSH3 0x359 DUP4 DUP3 PUSH3 0x397 PUSH1 0x20 SHL PUSH1 0x20 SHR JUMP JUMPDEST PUSH1 0x40 DUP1 MLOAD DUP3 DUP2 MSTORE CALLER PUSH1 0x20 DUP3 ADD MSTORE PUSH32 0xB31D8E8FA42B269769F65CB3FBEE94D28EFB43A3A870E2417A6AEF591601A9F8 SWAP2 ADD PUSH1 0x40 MLOAD DUP1 SWAP2 SUB SWAP1 LOG1 SWAP3 SWAP2 POP POP JUMP JUMPDEST PUSH3 0x3B9 DUP3 DUP3 PUSH1 0x40 MLOAD DUP1 PUSH1 0x20 ADD PUSH1 0x40 MSTORE DUP1 PUSH1 0x0 DUP2 MSTORE POP PUSH3 0x3BD PUSH1 0x20 SHL PUSH1 0x20 SHR JUMP JUMPDEST POP POP JUMP JUMPDEST PUSH3 0x3C9 DUP4 DUP4 PUSH3 0x439 JUMP JUMPDEST PUSH3 0x3D8 PUSH1 0x0 DUP5 DUP5 DUP5 PUSH3 0x58F JUMP JUMPDEST PUSH3 0x434 JUMPI PUSH1 0x40 MLOAD PUSH3 0x461BCD PUSH1 0xE5 SHL DUP2 MSTORE PUSH1 0x20 PUSH1 0x4 DUP3 ADD MSTORE PUSH1 0x32 PUSH1 0x24 DUP3 ADD MSTORE PUSH1 0x0 DUP1 MLOAD PUSH1 0x20 PUSH3 0x8715 DUP4 CODECOPY DUP2 MLOAD SWAP2 MSTORE PUSH1 0x44 DUP3 ADD MSTORE PUSH18 0x31B2B4BB32B91034B6B83632B6B2B73A32B9 PUSH1 0x71 SHL PUSH1 0x64 DUP3 ADD MSTORE PUSH1 0x84 ADD JUMPDEST PUSH1 0x40 MLOAD DUP1 SWAP2 SUB SWAP1 REVERT JUMPDEST POP POP POP JUMP JUMPDEST PUSH1 0x1 PUSH1 0x1 PUSH1 0xA0 SHL SUB DUP3 AND PUSH3 0x491 JUMPI PUSH1 0x40 MLOAD PUSH3 0x461BCD PUSH1 0xE5 SHL DUP2 MSTORE PUSH1 0x20 PUSH1 0x4 DUP3 ADD DUP2 SWAP1 MSTORE PUSH1 0x24 DUP3 ADD MSTORE PUSH32 0x4552433732313A206D696E7420746F20746865207A65726F2061646472657373 PUSH1 0x44 DUP3 ADD MSTORE PUSH1 0x64 ADD PUSH3 0x42B JUMP JUMPDEST PUSH1 0x0 DUP2 DUP2 MSTORE PUSH1 0x2 PUSH1 0x20 MSTORE PUSH1 0x40 SWAP1 KECCAK256 SLOAD PUSH1 0x1 PUSH1 0x1 PUSH1 0xA0 SHL SUB AND ISZERO PUSH3 0x4F8 JUMPI PUSH1 0x40 MLOAD PUSH3 0x461BCD PUSH1 0xE5 SHL DUP2 MSTORE PUSH1 0x20 PUSH1 0x4 DUP3 ADD MSTORE PUSH1 0x1C PUSH1 0x24 DUP3 ADD MSTORE PUSH32 0x4552433732313A20746F6B656E20616C7265616479206D696E74656400000000 PUSH1 0x44 DUP3 ADD MSTORE PUSH1 0x64 ADD PUSH3 0x42B JUMP JUMPDEST PUSH3 0x506 PUSH1 0x0 DUP4 DUP4 PUSH3 0x6F8 JUMP JUMPDEST PUSH1 0x1 PUSH1 0x1 PUSH1 0xA0 SHL SUB DUP3 AND PUSH1 0x0 SWAP1 DUP2 MSTORE PUSH1 0x3 PUSH1 0x20 MSTORE PUSH1 0x40 DUP2 KECCAK256 DUP1 SLOAD PUSH1 0x1 SWAP3 SWAP1 PUSH3 0x531 SWAP1 DUP5 SWAP1 PUSH3 0xB78 JUMP JUMPDEST SWAP1 SWAP2 SSTORE POP POP PUSH1 0x0 DUP2 DUP2 MSTORE PUSH1 0x2 PUSH1 0x20 MSTORE PUSH1 0x40 DUP1 DUP3 KECCAK256 DUP1 SLOAD PUSH1 0x1 PUSH1 0x1 PUSH1 0xA0 SHL SUB NOT AND PUSH1 0x1 PUSH1 0x1 PUSH1 0xA0 SHL SUB DUP7 AND SWAP1 DUP2 OR SWAP1 SWAP2 SSTORE SWAP1 MLOAD DUP4 SWAP3 SWAP1 PUSH32 0xDDF252AD1BE2C89B69C2B068FC378DAA952BA7F163C4A11628F55A4DF523B3EF SWAP1 DUP3 SWAP1 LOG4 POP POP JUMP JUMPDEST PUSH1 0x0 PUSH3 0x5B0 DUP5 PUSH1 0x1 PUSH1 0x1 PUSH1 0xA0 SHL SUB AND PUSH3 0x7D4 PUSH1 0x20 SHL PUSH3 0x50FD OR PUSH1 0x20 SHR JUMP JUMPDEST ISZERO PUSH3 0x6EC JUMPI PUSH1 0x40 MLOAD PUSH4 0xA85BD01 PUSH1 0xE1 SHL DUP2 MSTORE PUSH1 0x1 PUSH1 0x1 PUSH1 0xA0 SHL SUB DUP6 AND SWAP1 PUSH4 0x150B7A02 SWAP1 PUSH3 0x5EA SWAP1 CALLER SWAP1 DUP10 SWAP1 DUP9 SWAP1 DUP9 SWAP1 PUSH1 0x4 ADD PUSH3 0xAFD JUMP JUMPDEST PUSH1 0x20 PUSH1 0x40 MLOAD DUP1 DUP4 SUB DUP2 PUSH1 0x0 DUP8 DUP1 EXTCODESIZE ISZERO DUP1 ISZERO PUSH3 0x605 JUMPI PUSH1 0x0 DUP1 REVERT JUMPDEST POP GAS CALL SWAP3 POP POP POP DUP1 ISZERO PUSH3 0x638 JUMPI POP PUSH1 0x40 DUP1 MLOAD PUSH1 0x1F RETURNDATASIZE SWAP1 DUP2 ADD PUSH1 0x1F NOT AND DUP3 ADD SWAP1 SWAP3 MSTORE PUSH3 0x635 SWAP2 DUP2 ADD SWAP1 PUSH3 0xACA JUMP JUMPDEST PUSH1 0x1 JUMPDEST PUSH3 0x6D1 JUMPI RETURNDATASIZE DUP1 DUP1 ISZERO PUSH3 0x669 JUMPI PUSH1 0x40 MLOAD SWAP2 POP PUSH1 0x1F NOT PUSH1 0x3F RETURNDATASIZE ADD AND DUP3 ADD PUSH1 0x40 MSTORE RETURNDATASIZE DUP3 MSTORE RETURNDATASIZE PUSH1 0x0 PUSH1 0x20 DUP5 ADD RETURNDATACOPY PUSH3 0x66E JUMP JUMPDEST PUSH1 0x60 SWAP2 POP JUMPDEST POP DUP1 MLOAD PUSH3 0x6C9 JUMPI PUSH1 0x40 MLOAD PUSH3 0x461BCD PUSH1 0xE5 SHL DUP2 MSTORE PUSH1 0x20 PUSH1 0x4 DUP3 ADD MSTORE PUSH1 0x32 PUSH1 0x24 DUP3 ADD MSTORE PUSH1 0x0 DUP1 MLOAD PUSH1 0x20 PUSH3 0x8715 DUP4 CODECOPY DUP2 MLOAD SWAP2 MSTORE PUSH1 0x44 DUP3 ADD MSTORE PUSH18 0x31B2B4BB32B91034B6B83632B6B2B73A32B9 PUSH1 0x71 SHL PUSH1 0x64 DUP3 ADD MSTORE PUSH1 0x84 ADD PUSH3 0x42B JUMP JUMPDEST DUP1 MLOAD DUP2 PUSH1 0x20 ADD REVERT JUMPDEST PUSH1 0x1 PUSH1 0x1 PUSH1 0xE0 SHL SUB NOT AND PUSH4 0xA85BD01 PUSH1 0xE1 SHL EQ SWAP1 POP PUSH3 0x6F0 JUMP JUMPDEST POP PUSH1 0x1 JUMPDEST SWAP5 SWAP4 POP POP POP POP JUMP JUMPDEST PUSH3 0x710 DUP4 DUP4 DUP4 PUSH3 0x434 PUSH1 0x20 SHL PUSH3 0xC36 OR PUSH1 0x20 SHR JUMP JUMPDEST PUSH1 0x1 PUSH1 0x1 PUSH1 0xA0 SHL SUB DUP4 AND PUSH3 0x76E JUMPI PUSH3 0x768 DUP2 PUSH1 0x8 DUP1 SLOAD PUSH1 0x0 DUP4 DUP2 MSTORE PUSH1 0x9 PUSH1 0x20 MSTORE PUSH1 0x40 DUP2 KECCAK256 DUP3 SWAP1 SSTORE PUSH1 0x1 DUP3 ADD DUP4 SSTORE SWAP2 SWAP1 SWAP2 MSTORE PUSH32 0xF3F7A9FE364FAAB93B216DA50A3214154F22A0A2B415B23A84C8169E8B636EE3 ADD SSTORE JUMP JUMPDEST PUSH3 0x794 JUMP JUMPDEST DUP2 PUSH1 0x1 PUSH1 0x1 PUSH1 0xA0 SHL SUB AND DUP4 PUSH1 0x1 PUSH1 0x1 PUSH1 0xA0 SHL SUB AND EQ PUSH3 0x794 JUMPI PUSH3 0x794 DUP4 DUP3 PUSH3 0x7E3 JUMP JUMPDEST PUSH1 0x1 PUSH1 0x1 PUSH1 0xA0 SHL SUB DUP3 AND PUSH3 0x7AE JUMPI PUSH3 0x434 DUP2 PUSH3 0x890 JUMP JUMPDEST DUP3 PUSH1 0x1 PUSH1 0x1 PUSH1 0xA0 SHL SUB AND DUP3 PUSH1 0x1 PUSH1 0x1 PUSH1 0xA0 SHL SUB AND EQ PUSH3 0x434 JUMPI PUSH3 0x434 DUP3 DUP3 PUSH3 0x94A JUMP JUMPDEST PUSH1 0x1 PUSH1 0x1 PUSH1 0xA0 SHL SUB AND EXTCODESIZE ISZERO ISZERO SWAP1 JUMP JUMPDEST PUSH1 0x0 PUSH1 0x1 PUSH3 0x7FD DUP5 PUSH3 0x99B PUSH1 0x20 SHL PUSH3 0x2682 OR PUSH1 0x20 SHR JUMP JUMPDEST PUSH3 0x809 SWAP2 SWAP1 PUSH3 0xBB6 JUMP JUMPDEST PUSH1 0x0 DUP4 DUP2 MSTORE PUSH1 0x7 PUSH1 0x20 MSTORE PUSH1 0x40 SWAP1 KECCAK256 SLOAD SWAP1 SWAP2 POP DUP1 DUP3 EQ PUSH3 0x85D JUMPI PUSH1 0x1 PUSH1 0x1 PUSH1 0xA0 SHL SUB DUP5 AND PUSH1 0x0 SWAP1 DUP2 MSTORE PUSH1 0x6 PUSH1 0x20 SWAP1 DUP2 MSTORE PUSH1 0x40 DUP1 DUP4 KECCAK256 DUP6 DUP5 MSTORE DUP3 MSTORE DUP1 DUP4 KECCAK256 SLOAD DUP5 DUP5 MSTORE DUP2 DUP5 KECCAK256 DUP2 SWAP1 SSTORE DUP4 MSTORE PUSH1 0x7 SWAP1 SWAP2 MSTORE SWAP1 KECCAK256 DUP2 SWAP1 SSTORE JUMPDEST POP PUSH1 0x0 SWAP2 DUP3 MSTORE PUSH1 0x7 PUSH1 0x20 SWAP1 DUP2 MSTORE PUSH1 0x40 DUP1 DUP5 KECCAK256 DUP5 SWAP1 SSTORE PUSH1 0x1 PUSH1 0x1 PUSH1 0xA0 SHL SUB SWAP1 SWAP5 AND DUP4 MSTORE PUSH1 0x6 DUP2 MSTORE DUP4 DUP4 KECCAK256 SWAP2 DUP4 MSTORE MSTORE SWAP1 DUP2 KECCAK256 SSTORE JUMP JUMPDEST PUSH1 0x8 SLOAD PUSH1 0x0 SWAP1 PUSH3 0x8A4 SWAP1 PUSH1 0x1 SWAP1 PUSH3 0xBB6 JUMP JUMPDEST PUSH1 0x0 DUP4 DUP2 MSTORE PUSH1 0x9 PUSH1 0x20 MSTORE PUSH1 0x40 DUP2 KECCAK256 SLOAD PUSH1 0x8 DUP1 SLOAD SWAP4 SWAP5 POP SWAP1 SWAP3 DUP5 SWAP1 DUP2 LT PUSH3 0x8CF JUMPI PUSH3 0x8CF PUSH3 0xC86 JUMP JUMPDEST SWAP1 PUSH1 0x0 MSTORE PUSH1 0x20 PUSH1 0x0 KECCAK256 ADD SLOAD SWAP1 POP DUP1 PUSH1 0x8 DUP4 DUP2 SLOAD DUP2 LT PUSH3 0x8F3 JUMPI PUSH3 0x8F3 PUSH3 0xC86 JUMP JUMPDEST PUSH1 0x0 SWAP2 DUP3 MSTORE PUSH1 0x20 DUP1 DUP4 KECCAK256 SWAP1 SWAP2 ADD SWAP3 SWAP1 SWAP3 SSTORE DUP3 DUP2 MSTORE PUSH1 0x9 SWAP1 SWAP2 MSTORE PUSH1 0x40 DUP1 DUP3 KECCAK256 DUP5 SWAP1 SSTORE DUP6 DUP3 MSTORE DUP2 KECCAK256 SSTORE PUSH1 0x8 DUP1 SLOAD DUP1 PUSH3 0x92E JUMPI PUSH3 0x92E PUSH3 0xC70 JUMP JUMPDEST PUSH1 0x1 SWAP1 SUB DUP2 DUP2 SWAP1 PUSH1 0x0 MSTORE PUSH1 0x20 PUSH1 0x0 KECCAK256 ADD PUSH1 0x0 SWAP1 SSTORE SWAP1 SSTORE POP POP POP POP JUMP JUMPDEST PUSH1 0x0 PUSH3 0x962 DUP4 PUSH3 0x99B PUSH1 0x20 SHL PUSH3 0x2682 OR PUSH1 0x20 SHR JUMP JUMPDEST PUSH1 0x1 PUSH1 0x1 PUSH1 0xA0 SHL SUB SWAP1 SWAP4 AND PUSH1 0x0 SWAP1 DUP2 MSTORE PUSH1 0x6 PUSH1 0x20 SWAP1 DUP2 MSTORE PUSH1 0x40 DUP1 DUP4 KECCAK256 DUP7 DUP5 MSTORE DUP3 MSTORE DUP1 DUP4 KECCAK256 DUP6 SWAP1 SSTORE SWAP4 DUP3 MSTORE PUSH1 0x7 SWAP1 MSTORE SWAP2 SWAP1 SWAP2 KECCAK256 SWAP2 SWAP1 SWAP2 SSTORE POP JUMP JUMPDEST PUSH1 0x0 PUSH1 0x1 PUSH1 0x1 PUSH1 0xA0 SHL SUB DUP3 AND PUSH3 0xA08 JUMPI PUSH1 0x40 MLOAD PUSH3 0x461BCD PUSH1 0xE5 SHL DUP2 MSTORE PUSH1 0x20 PUSH1 0x4 DUP3 ADD MSTORE PUSH1 0x2A PUSH1 0x24 DUP3 ADD MSTORE PUSH32 0x4552433732313A2062616C616E636520717565727920666F7220746865207A65 PUSH1 0x44 DUP3 ADD MSTORE PUSH10 0x726F2061646472657373 PUSH1 0xB0 SHL PUSH1 0x64 DUP3 ADD MSTORE PUSH1 0x84 ADD PUSH3 0x42B JUMP JUMPDEST POP PUSH1 0x1 PUSH1 0x1 PUSH1 0xA0 SHL SUB AND PUSH1 0x0 SWAP1 DUP2 MSTORE PUSH1 0x3 PUSH1 0x20 MSTORE PUSH1 0x40 SWAP1 KECCAK256 SLOAD SWAP1 JUMP JUMPDEST DUP3 DUP1 SLOAD PUSH3 0xA32 SWAP1 PUSH3 0xBD0 JUMP JUMPDEST SWAP1 PUSH1 0x0 MSTORE PUSH1 0x20 PUSH1 0x0 KECCAK256 SWAP1 PUSH1 0x1F ADD PUSH1 0x20 SWAP1 DIV DUP2 ADD SWAP3 DUP3 PUSH3 0xA56 JUMPI PUSH1 0x0 DUP6 SSTORE PUSH3 0xAA1 JUMP JUMPDEST DUP3 PUSH1 0x1F LT PUSH3 0xA71 JUMPI DUP1 MLOAD PUSH1 0xFF NOT AND DUP4 DUP1 ADD OR DUP6 SSTORE PUSH3 0xAA1 JUMP JUMPDEST DUP3 DUP1 ADD PUSH1 0x1 ADD DUP6 SSTORE DUP3 ISZERO PUSH3 0xAA1 JUMPI SWAP2 DUP3 ADD JUMPDEST DUP3 DUP2 GT ISZERO PUSH3 0xAA1 JUMPI DUP3 MLOAD DUP3 SSTORE SWAP2 PUSH1 0x20 ADD SWAP2 SWAP1 PUSH1 0x1 ADD SWAP1 PUSH3 0xA84 JUMP JUMPDEST POP PUSH3 0xAAF SWAP3 SWAP2 POP PUSH3 0xAB3 JUMP JUMPDEST POP SWAP1 JUMP JUMPDEST JUMPDEST DUP1 DUP3 GT ISZERO PUSH3 0xAAF JUMPI PUSH1 0x0 DUP2 SSTORE PUSH1 0x1 ADD PUSH3 0xAB4 JUMP JUMPDEST PUSH1 0x0 PUSH1 0x20 DUP3 DUP5 SUB SLT ISZERO PUSH3 0xADD JUMPI PUSH1 0x0 DUP1 REVERT JUMPDEST DUP2 MLOAD PUSH1 0x1 PUSH1 0x1 PUSH1 0xE0 SHL SUB NOT DUP2 AND DUP2 EQ PUSH3 0xAF6 JUMPI PUSH1 0x0 DUP1 REVERT JUMPDEST SWAP4 SWAP3 POP POP POP JUMP JUMPDEST PUSH1 0x0 PUSH1 0x1 DUP1 PUSH1 0xA0 SHL SUB DUP1 DUP8 AND DUP4 MSTORE PUSH1 0x20 DUP2 DUP8 AND DUP2 DUP6 ADD MSTORE DUP6 PUSH1 0x40 DUP6 ADD MSTORE PUSH1 0x80 PUSH1 0x60 DUP6 ADD MSTORE DUP5 MLOAD SWAP2 POP DUP2 PUSH1 0x80 DUP6 ADD MSTORE PUSH1 0x0 JUMPDEST DUP3 DUP2 LT ISZERO PUSH3 0xB4C JUMPI DUP6 DUP2 ADD DUP3 ADD MLOAD DUP6 DUP3 ADD PUSH1 0xA0 ADD MSTORE DUP2 ADD PUSH3 0xB2E JUMP JUMPDEST DUP3 DUP2 GT ISZERO PUSH3 0xB5F JUMPI PUSH1 0x0 PUSH1 0xA0 DUP5 DUP8 ADD ADD MSTORE JUMPDEST POP POP PUSH1 0x1F ADD PUSH1 0x1F NOT AND SWAP2 SWAP1 SWAP2 ADD PUSH1 0xA0 ADD SWAP6 SWAP5 POP POP POP POP POP JUMP JUMPDEST PUSH1 0x0 DUP3 NOT DUP3 GT ISZERO PUSH3 0xB8E JUMPI PUSH3 0xB8E PUSH3 0xC5A JUMP JUMPDEST POP ADD SWAP1 JUMP JUMPDEST PUSH1 0x0 DUP3 PUSH3 0xBB1 JUMPI PUSH4 0x4E487B71 PUSH1 0xE0 SHL PUSH1 0x0 MSTORE PUSH1 0x12 PUSH1 0x4 MSTORE PUSH1 0x24 PUSH1 0x0 REVERT JUMPDEST POP DIV SWAP1 JUMP JUMPDEST PUSH1 0x0 DUP3 DUP3 LT ISZERO PUSH3 0xBCB JUMPI PUSH3 0xBCB PUSH3 0xC5A JUMP JUMPDEST POP SUB SWAP1 JUMP JUMPDEST PUSH1 0x1 DUP2 DUP2 SHR SWAP1 DUP3 AND DUP1 PUSH3 0xBE5 JUMPI PUSH1 0x7F DUP3 AND SWAP2 POP JUMPDEST PUSH1 0x20 DUP3 LT DUP2 EQ ISZERO PUSH3 0xC07 JUMPI PUSH4 0x4E487B71 PUSH1 0xE0 SHL PUSH1 0x0 MSTORE PUSH1 0x22 PUSH1 0x4 MSTORE PUSH1 0x24 PUSH1 0x0 REVERT JUMPDEST POP SWAP2 SWAP1 POP JUMP JUMPDEST PUSH1 0x0 PUSH1 0x1 PUSH1 0x1 PUSH1 0x40 SHL SUB DUP3 DUP2 AND DUP1 DUP3 EQ ISZERO PUSH3 0xC2D JUMPI PUSH3 0xC2D PUSH3 0xC5A JUMP JUMPDEST PUSH1 0x1 ADD SWAP4 SWAP3 POP POP POP JUMP JUMPDEST PUSH1 0x0 PUSH1 0xFF DUP3 AND PUSH1 0xFF DUP2 EQ ISZERO PUSH3 0xC51 JUMPI PUSH3 0xC51 PUSH3 0xC5A JUMP JUMPDEST PUSH1 0x1 ADD SWAP3 SWAP2 POP POP JUMP JUMPDEST PUSH4 0x4E487B71 PUSH1 0xE0 SHL PUSH1 0x0 MSTORE PUSH1 0x11 PUSH1 0x4 MSTORE PUSH1 0x24 PUSH1 0x0 REVERT JUMPDEST PUSH4 0x4E487B71 PUSH1 0xE0 SHL PUSH1 0x0 MSTORE PUSH1 0x31 PUSH1 0x4 MSTORE PUSH1 0x24 PUSH1 0x0 REVERT JUMPDEST PUSH4 0x4E487B71 PUSH1 0xE0 SHL PUSH1 0x0 MSTORE PUSH1 0x32 PUSH1 0x4 MSTORE PUSH1 0x24 PUSH1 0x0 REVERT JUMPDEST PUSH2 0x7A69 DUP1 PUSH3 0xCAC PUSH1 0x0 CODECOPY PUSH1 0x0 RETURN INVALID PUSH1 0x80 PUSH1 0x40 MSTORE CALLVALUE DUP1 ISZERO PUSH2 0x10 JUMPI PUSH1 0x0 DUP1 REVERT JUMPDEST POP PUSH1 0x4 CALLDATASIZE LT PUSH2 0x38E JUMPI PUSH1 0x0 CALLDATALOAD PUSH1 0xE0 SHR DUP1 PUSH4 0x82F68DC4 GT PUSH2 0x1DE JUMPI DUP1 PUSH4 0xBE5BACEB GT PUSH2 0x10F JUMPI DUP1 PUSH4 0xF2386A36 GT PUSH2 0xAD JUMPI DUP1 PUSH4 0xFC04E65D GT PUSH2 0x7C JUMPI DUP1 PUSH4 0xFC04E65D EQ PUSH2 0x8DE JUMPI DUP1 PUSH4 0xFC185B83 EQ PUSH2 0x8F1 JUMPI DUP1 PUSH4 0xFE5A3380 EQ PUSH2 0x904 JUMPI DUP1 PUSH4 0xFF24C1FF EQ PUSH2 0x917 JUMPI PUSH1 0x0 DUP1 REVERT JUMPDEST DUP1 PUSH4 0xF2386A36 EQ PUSH2 0x86D JUMPI DUP1 PUSH4 0xF23A6E61 EQ PUSH2 0x880 JUMPI DUP1 PUSH4 0xF3A0AE2C EQ PUSH2 0x8B8 JUMPI DUP1 PUSH4 0xF9000BA8 EQ PUSH2 0x8CB JUMPI PUSH1 0x0 DUP1 REVERT JUMPDEST DUP1 PUSH4 0xDC2C28F0 GT PUSH2 0xE9 JUMPI DUP1 PUSH4 0xDC2C28F0 EQ PUSH2 0x7E0 JUMPI DUP1 PUSH4 0xDFE5576B EQ PUSH2 0x7F3 JUMPI DUP1 PUSH4 0xE121158E EQ PUSH2 0x811 JUMPI DUP1 PUSH4 0xE985E9C5 EQ PUSH2 0x824 JUMPI PUSH1 0x0 DUP1 REVERT JUMPDEST DUP1 PUSH4 0xBE5BACEB EQ PUSH2 0x7A7 JUMPI DUP1 PUSH4 0xC5584D41 EQ PUSH2 0x7BA JUMPI DUP1 PUSH4 0xC87B56DD EQ PUSH2 0x7CD JUMPI PUSH1 0x0 DUP1 REVERT JUMPDEST DUP1 PUSH4 0xA1F4225B GT PUSH2 0x17C JUMPI DUP1 PUSH4 0xB88D4FDE GT PUSH2 0x156 JUMPI DUP1 PUSH4 0xB88D4FDE EQ PUSH2 0x736 JUMPI DUP1 PUSH4 0xBB993BB4 EQ PUSH2 0x749 JUMPI DUP1 PUSH4 0xBC197C81 EQ PUSH2 0x75C JUMPI DUP1 PUSH4 0xBD96237D EQ PUSH2 0x794 JUMPI PUSH1 0x0 DUP1 REVERT JUMPDEST DUP1 PUSH4 0xA1F4225B EQ PUSH2 0x6FD JUMPI DUP1 PUSH4 0xA22CB465 EQ PUSH2 0x710 JUMPI DUP1 PUSH4 0xB0EB385D EQ PUSH2 0x723 JUMPI PUSH1 0x0 DUP1 REVERT JUMPDEST DUP1 PUSH4 0x8FC4718F GT PUSH2 0x1B8 JUMPI DUP1 PUSH4 0x8FC4718F EQ PUSH2 0x6AF JUMPI DUP1 PUSH4 0x95D89B41 EQ PUSH2 0x6C2 JUMPI DUP1 PUSH4 0x9634540B EQ PUSH2 0x6CA JUMPI DUP1 PUSH4 0x9FE321AF EQ PUSH2 0x6DD JUMPI PUSH1 0x0 DUP1 REVERT JUMPDEST DUP1 PUSH4 0x82F68DC4 EQ PUSH2 0x664 JUMPI DUP1 PUSH4 0x85AA033D EQ PUSH2 0x689 JUMPI DUP1 PUSH4 0x8B07AF2B EQ PUSH2 0x69C JUMPI PUSH1 0x0 DUP1 REVERT JUMPDEST DUP1 PUSH4 0x42842E0E GT PUSH2 0x2C3 JUMPI DUP1 PUSH4 0x5EB3009C GT PUSH2 0x261 JUMPI DUP1 PUSH4 0x6A7DAC7D GT PUSH2 0x230 JUMPI DUP1 PUSH4 0x6A7DAC7D EQ PUSH2 0x606 JUMPI DUP1 PUSH4 0x70A08231 EQ PUSH2 0x619 JUMPI DUP1 PUSH4 0x764019E0 EQ PUSH2 0x62C JUMPI DUP1 PUSH4 0x800B0160 EQ PUSH2 0x651 JUMPI PUSH1 0x0 DUP1 REVERT JUMPDEST DUP1 PUSH4 0x5EB3009C EQ PUSH2 0x5BA JUMPI DUP1 PUSH4 0x62DFCC07 EQ PUSH2 0x5CD JUMPI DUP1 PUSH4 0x6352211E EQ PUSH2 0x5E0 JUMPI DUP1 PUSH4 0x67D81B32 EQ PUSH2 0x5F3 JUMPI PUSH1 0x0 DUP1 REVERT JUMPDEST DUP1 PUSH4 0x4A0E2AA1 GT PUSH2 0x29D JUMPI DUP1 PUSH4 0x4A0E2AA1 EQ PUSH2 0x56E JUMPI DUP1 PUSH4 0x4F6CCCE7 EQ PUSH2 0x581 JUMPI DUP1 PUSH4 0x50089621 EQ PUSH2 0x594 JUMPI DUP1 PUSH4 0x567C6E07 EQ PUSH2 0x5A7 JUMPI PUSH1 0x0 DUP1 REVERT JUMPDEST DUP1 PUSH4 0x42842E0E EQ PUSH2 0x540 JUMPI DUP1 PUSH4 0x46582CA4 EQ PUSH2 0x553 JUMPI DUP1 PUSH4 0x485456BC EQ PUSH2 0x566 JUMPI PUSH1 0x0 DUP1 REVERT JUMPDEST DUP1 PUSH4 0x18160DDD GT PUSH2 0x330 JUMPI DUP1 PUSH4 0x23B872DD GT PUSH2 0x30A JUMPI DUP1 PUSH4 0x23B872DD EQ PUSH2 0x4F4 JUMPI DUP1 PUSH4 0x2F745C59 EQ PUSH2 0x507 JUMPI DUP1 PUSH4 0x3B81B0BB EQ PUSH2 0x51A JUMPI DUP1 PUSH4 0x40BE2765 EQ PUSH2 0x52D JUMPI PUSH1 0x0 DUP1 REVERT JUMPDEST DUP1 PUSH4 0x18160DDD EQ PUSH2 0x4B9 JUMPI DUP1 PUSH4 0x19E6E158 EQ PUSH2 0x4C1 JUMPI DUP1 PUSH4 0x1E7AA37D EQ PUSH2 0x4E1 JUMPI PUSH1 0x0 DUP1 REVERT JUMPDEST DUP1 PUSH4 0x81812FC GT PUSH2 0x36C JUMPI DUP1 PUSH4 0x81812FC EQ PUSH2 0x415 JUMPI DUP1 PUSH4 0x95EA7B3 EQ PUSH2 0x44D JUMPI DUP1 PUSH4 0x142CD06A EQ PUSH2 0x462 JUMPI DUP1 PUSH4 0x150B7A02 EQ PUSH2 0x475 JUMPI PUSH1 0x0 DUP1 REVERT JUMPDEST DUP1 PUSH4 0x1FFC9A7 EQ PUSH2 0x393 JUMPI DUP1 PUSH4 0x6FDDE03 EQ PUSH2 0x3BB JUMPI DUP1 PUSH4 0x7A48F8F EQ PUSH2 0x3D0 JUMPI JUMPDEST PUSH1 0x0 DUP1 REVERT JUMPDEST PUSH2 0x3A6 PUSH2 0x3A1 CALLDATASIZE PUSH1 0x4 PUSH2 0x7325 JUMP JUMPDEST PUSH2 0x92C JUMP JUMPDEST PUSH1 0x40 MLOAD SWAP1 ISZERO ISZERO DUP2 MSTORE PUSH1 0x20 ADD JUMPDEST PUSH1 0x40 MLOAD DUP1 SWAP2 SUB SWAP1 RETURN JUMPDEST PUSH2 0x3C3 PUSH2 0x93D JUMP JUMPDEST PUSH1 0x40 MLOAD PUSH2 0x3B2 SWAP2 SWAP1 PUSH2 0x76A5 JUMP JUMPDEST PUSH1 0xC PUSH1 0x0 MSTORE PUSH1 0x24 PUSH1 0x20 MSTORE PUSH32 0xCFD901BA1675B89E59C977E85E6E7A7C4FF7751B63723061DCE346746771B925 SLOAD PUSH8 0xFFFFFFFFFFFFFFFF AND JUMPDEST PUSH1 0x40 MLOAD SWAP1 DUP2 MSTORE PUSH1 0x20 ADD PUSH2 0x3B2 JUMP JUMPDEST PUSH2 0x428 PUSH2 0x423 CALLDATASIZE PUSH1 0x4 PUSH2 0x73CC JUMP JUMPDEST PUSH2 0x9CF JUMP JUMPDEST PUSH1 0x40 MLOAD PUSH20 0xFFFFFFFFFFFFFFFFFFFFFFFFFFFFFFFFFFFFFFFF SWAP1 SWAP2 AND DUP2 MSTORE PUSH1 0x20 ADD PUSH2 0x3B2 JUMP JUMPDEST PUSH2 0x460 PUSH2 0x45B CALLDATASIZE PUSH1 0x4 PUSH2 0x7220 JUMP JUMPDEST PUSH2 0xAAE JUMP JUMPDEST STOP JUMPDEST PUSH2 0x407 PUSH2 0x470 CALLDATASIZE PUSH1 0x4 PUSH2 0x74A1 JUMP JUMPDEST PUSH2 0xC3B JUMP JUMPDEST PUSH2 0x488 PUSH2 0x483 CALLDATASIZE PUSH1 0x4 PUSH2 0x7094 JUMP JUMPDEST PUSH2 0xCCA JUMP JUMPDEST PUSH1 0x40 MLOAD PUSH32 0xFFFFFFFF00000000000000000000000000000000000000000000000000000000 SWAP1 SWAP2 AND DUP2 MSTORE PUSH1 0x20 ADD PUSH2 0x3B2 JUMP JUMPDEST PUSH1 0x8 SLOAD PUSH2 0x407 JUMP JUMPDEST PUSH2 0x407 PUSH2 0x4CF CALLDATASIZE PUSH1 0x4 PUSH2 0x73CC JUMP JUMPDEST PUSH1 0x0 SWAP1 DUP2 MSTORE PUSH1 0x11 PUSH1 0x20 MSTORE PUSH1 0x40 SWAP1 KECCAK256 SLOAD SWAP1 JUMP JUMPDEST PUSH2 0x407 PUSH2 0x4EF CALLDATASIZE PUSH1 0x4 PUSH2 0x73CC JUMP JUMPDEST PUSH2 0xCF4 JUMP JUMPDEST PUSH2 0x460 PUSH2 0x502 CALLDATASIZE PUSH1 0x4 PUSH2 0x7053 JUMP JUMPDEST PUSH2 0xD1E JUMP JUMPDEST PUSH2 0x407 PUSH2 0x515 CALLDATASIZE PUSH1 0x4 PUSH2 0x7220 JUMP JUMPDEST PUSH2 0xDBF JUMP JUMPDEST PUSH2 0x460 PUSH2 0x528 CALLDATASIZE PUSH1 0x4 PUSH2 0x6F4F JUMP JUMPDEST PUSH2 0xE8E JUMP JUMPDEST PUSH2 0x407 PUSH2 0x53B CALLDATASIZE PUSH1 0x4 PUSH2 0x73A8 JUMP JUMPDEST PUSH2 0xF70 JUMP JUMPDEST PUSH2 0x460 PUSH2 0x54E CALLDATASIZE PUSH1 0x4 PUSH2 0x7053 JUMP JUMPDEST PUSH2 0x1025 JUMP JUMPDEST PUSH2 0x407 PUSH2 0x561 CALLDATASIZE PUSH1 0x4 PUSH2 0x74BC JUMP JUMPDEST PUSH2 0x1040 JUMP JUMPDEST PUSH2 0x407 PUSH2 0x11D8 JUMP JUMPDEST PUSH2 0x407 PUSH2 0x57C CALLDATASIZE PUSH1 0x4 PUSH2 0x72CD JUMP JUMPDEST PUSH2 0x12D9 JUMP JUMPDEST PUSH2 0x407 PUSH2 0x58F CALLDATASIZE PUSH1 0x4 PUSH2 0x73CC JUMP JUMPDEST PUSH2 0x148C JUMP JUMPDEST PUSH2 0x3A6 PUSH2 0x5A2 CALLDATASIZE PUSH1 0x4 PUSH2 0x7220 JUMP JUMPDEST PUSH2 0x154A JUMP JUMPDEST PUSH2 0x407 PUSH2 0x5B5 CALLDATASIZE PUSH1 0x4 PUSH2 0x735F JUMP JUMPDEST PUSH2 0x158A JUMP JUMPDEST PUSH2 0x460 PUSH2 0x5C8 CALLDATASIZE PUSH1 0x4 PUSH2 0x73CC JUMP JUMPDEST PUSH2 0x16E1 JUMP JUMPDEST PUSH2 0x407 PUSH2 0x5DB CALLDATASIZE PUSH1 0x4 PUSH2 0x7169 JUMP JUMPDEST PUSH2 0x1993 JUMP JUMPDEST PUSH2 0x428 PUSH2 0x5EE CALLDATASIZE PUSH1 0x4 PUSH2 0x73CC JUMP JUMPDEST PUSH2 0x19C8 JUMP JUMPDEST PUSH2 0x407 PUSH2 0x601 CALLDATASIZE PUSH1 0x4 PUSH2 0x74F4 JUMP JUMPDEST PUSH2 0x1A7A JUMP JUMPDEST PUSH2 0x407 PUSH2 0x614 CALLDATASIZE PUSH1 0x4 PUSH2 0x73CC JUMP JUMPDEST PUSH2 0x1D3D JUMP JUMPDEST PUSH2 0x407 PUSH2 0x627 CALLDATASIZE PUSH1 0x4 PUSH2 0x6F4F JUMP JUMPDEST PUSH2 0x2682 JUMP JUMPDEST PUSH2 0x3A6 PUSH2 0x63A CALLDATASIZE PUSH1 0x4 PUSH2 0x73CC JUMP JUMPDEST PUSH1 0x0 SWAP1 DUP2 MSTORE PUSH1 0xE PUSH1 0x20 MSTORE PUSH1 0x40 SWAP1 KECCAK256 PUSH1 0x5 ADD SLOAD TIMESTAMP LT SWAP1 JUMP JUMPDEST PUSH2 0x460 PUSH2 0x65F CALLDATASIZE PUSH1 0x4 PUSH2 0x73CC JUMP JUMPDEST PUSH2 0x2750 JUMP JUMPDEST PUSH2 0x677 PUSH2 0x672 CALLDATASIZE PUSH1 0x4 PUSH2 0x73CC JUMP JUMPDEST PUSH2 0x28DA JUMP JUMPDEST PUSH1 0x40 MLOAD PUSH1 0xFF SWAP1 SWAP2 AND DUP2 MSTORE PUSH1 0x20 ADD PUSH2 0x3B2 JUMP JUMPDEST PUSH2 0x3A6 PUSH2 0x697 CALLDATASIZE PUSH1 0x4 PUSH2 0x73FE JUMP JUMPDEST PUSH2 0x2963 JUMP JUMPDEST PUSH2 0x407 PUSH2 0x6AA CALLDATASIZE PUSH1 0x4 PUSH2 0x73FE JUMP JUMPDEST PUSH2 0x2CF9 JUMP JUMPDEST PUSH2 0x3A6 PUSH2 0x6BD CALLDATASIZE PUSH1 0x4 PUSH2 0x73CC JUMP JUMPDEST PUSH2 0x2D2A JUMP JUMPDEST PUSH2 0x3C3 PUSH2 0x2DD2 JUMP JUMPDEST PUSH2 0x460 PUSH2 0x6D8 CALLDATASIZE PUSH1 0x4 PUSH2 0x73CC JUMP JUMPDEST PUSH2 0x2DE1 JUMP JUMPDEST PUSH2 0x6F0 PUSH2 0x6EB CALLDATASIZE PUSH1 0x4 PUSH2 0x7423 JUMP JUMPDEST PUSH2 0x2FBE JUMP JUMPDEST PUSH1 0x40 MLOAD PUSH2 0x3B2 SWAP2 SWAP1 PUSH2 0x7692 JUMP JUMPDEST PUSH2 0x407 PUSH2 0x70B CALLDATASIZE PUSH1 0x4 PUSH2 0x728E JUMP JUMPDEST PUSH2 0x3735 JUMP JUMPDEST PUSH2 0x460 PUSH2 0x71E CALLDATASIZE PUSH1 0x4 PUSH2 0x71F2 JUMP JUMPDEST PUSH2 0x3761 JUMP JUMPDEST PUSH2 0x460 PUSH2 0x731 CALLDATASIZE PUSH1 0x4 PUSH2 0x73CC JUMP JUMPDEST PUSH2 0x376C JUMP JUMPDEST PUSH2 0x460 PUSH2 0x744 CALLDATASIZE PUSH1 0x4 PUSH2 0x7094 JUMP JUMPDEST PUSH2 0x3952 JUMP JUMPDEST PUSH2 0x460 PUSH2 0x757 CALLDATASIZE PUSH1 0x4 PUSH2 0x6F4F JUMP JUMPDEST PUSH2 0x39FA JUMP JUMPDEST PUSH2 0x488 PUSH2 0x76A CALLDATASIZE PUSH1 0x4 PUSH2 0x6FA5 JUMP JUMPDEST PUSH32 0xBC197C8100000000000000000000000000000000000000000000000000000000 SWAP6 SWAP5 POP POP POP POP POP JUMP JUMPDEST PUSH2 0x407 PUSH2 0x7A2 CALLDATASIZE PUSH1 0x4 PUSH2 0x74A1 JUMP JUMPDEST PUSH2 0x3AE5 JUMP JUMPDEST PUSH2 0x460 PUSH2 0x7B5 CALLDATASIZE PUSH1 0x4 PUSH2 0x73CC JUMP JUMPDEST PUSH2 0x3B6A JUMP JUMPDEST PUSH2 0x460 PUSH2 0x7C8 CALLDATASIZE PUSH1 0x4 PUSH2 0x73CC JUMP JUMPDEST PUSH2 0x3D53 JUMP JUMPDEST PUSH2 0x3C3 PUSH2 0x7DB CALLDATASIZE PUSH1 0x4 PUSH2 0x73CC JUMP JUMPDEST PUSH2 0x404E JUMP JUMPDEST PUSH2 0x3A6 PUSH2 0x7EE CALLDATASIZE PUSH1 0x4 PUSH2 0x73CC JUMP JUMPDEST PUSH2 0x415D JUMP JUMPDEST PUSH1 0x18 SLOAD PUSH20 0xFFFFFFFFFFFFFFFFFFFFFFFFFFFFFFFFFFFFFFFF AND PUSH2 0x428 JUMP JUMPDEST PUSH2 0x407 PUSH2 0x81F CALLDATASIZE PUSH1 0x4 PUSH2 0x724C JUMP JUMPDEST PUSH2 0x41F3 JUMP JUMPDEST PUSH2 0x3A6 PUSH2 0x832 CALLDATASIZE PUSH1 0x4 PUSH2 0x6F6C JUMP JUMPDEST PUSH20 0xFFFFFFFFFFFFFFFFFFFFFFFFFFFFFFFFFFFFFFFF SWAP2 DUP3 AND PUSH1 0x0 SWAP1 DUP2 MSTORE PUSH1 0x5 PUSH1 0x20 SWAP1 DUP2 MSTORE PUSH1 0x40 DUP1 DUP4 KECCAK256 SWAP4 SWAP1 SWAP5 AND DUP3 MSTORE SWAP2 SWAP1 SWAP2 MSTORE KECCAK256 SLOAD PUSH1 0xFF AND SWAP1 JUMP JUMPDEST PUSH2 0x407 PUSH2 0x87B CALLDATASIZE PUSH1 0x4 PUSH2 0x724C JUMP JUMPDEST PUSH2 0x421E JUMP JUMPDEST PUSH2 0x488 PUSH2 0x88E CALLDATASIZE PUSH1 0x4 PUSH2 0x7100 JUMP JUMPDEST PUSH32 0xF23A6E6100000000000000000000000000000000000000000000000000000000 SWAP6 SWAP5 POP POP POP POP POP JUMP JUMPDEST PUSH2 0x460 PUSH2 0x8C6 CALLDATASIZE PUSH1 0x4 PUSH2 0x73CC JUMP JUMPDEST PUSH2 0x4249 JUMP JUMPDEST PUSH2 0x407 PUSH2 0x8D9 CALLDATASIZE PUSH1 0x4 PUSH2 0x7473 JUMP JUMPDEST PUSH2 0x4461 JUMP JUMPDEST PUSH2 0x460 PUSH2 0x8EC CALLDATASIZE PUSH1 0x4 PUSH2 0x73CC JUMP JUMPDEST PUSH2 0x4B2B JUMP JUMPDEST PUSH2 0x460 PUSH2 0x8FF CALLDATASIZE PUSH1 0x4 PUSH2 0x73CC JUMP JUMPDEST PUSH2 0x4CC6 JUMP JUMPDEST PUSH2 0x407 PUSH2 0x912 CALLDATASIZE PUSH1 0x4 PUSH2 0x74D8 JUMP JUMPDEST PUSH2 0x4E91 JUMP JUMPDEST CALLER PUSH1 0x0 SWAP1 DUP2 MSTORE PUSH1 0x26 PUSH1 0x20 MSTORE PUSH1 0x40 SWAP1 KECCAK256 SLOAD PUSH2 0x407 JUMP JUMPDEST PUSH1 0x0 PUSH2 0x937 DUP3 PUSH2 0x5119 JUMP JUMPDEST SWAP3 SWAP2 POP POP JUMP JUMPDEST PUSH1 0x60 PUSH1 0x0 DUP1 SLOAD PUSH2 0x94C SWAP1 PUSH2 0x77D8 JUMP JUMPDEST DUP1 PUSH1 0x1F ADD PUSH1 0x20 DUP1 SWAP2 DIV MUL PUSH1 0x20 ADD PUSH1 0x40 MLOAD SWAP1 DUP2 ADD PUSH1 0x40 MSTORE DUP1 SWAP3 SWAP2 SWAP1 DUP2 DUP2 MSTORE PUSH1 0x20 ADD DUP3 DUP1 SLOAD PUSH2 0x978 SWAP1 PUSH2 0x77D8 JUMP JUMPDEST DUP1 ISZERO PUSH2 0x9C5 JUMPI DUP1 PUSH1 0x1F LT PUSH2 0x99A JUMPI PUSH2 0x100 DUP1 DUP4 SLOAD DIV MUL DUP4 MSTORE SWAP2 PUSH1 0x20 ADD SWAP2 PUSH2 0x9C5 JUMP JUMPDEST DUP3 ADD SWAP2 SWAP1 PUSH1 0x0 MSTORE PUSH1 0x20 PUSH1 0x0 KECCAK256 SWAP1 JUMPDEST DUP2 SLOAD DUP2 MSTORE SWAP1 PUSH1 0x1 ADD SWAP1 PUSH1 0x20 ADD DUP1 DUP4 GT PUSH2 0x9A8 JUMPI DUP3 SWAP1 SUB PUSH1 0x1F AND DUP3 ADD SWAP2 JUMPDEST POP POP POP POP POP SWAP1 POP SWAP1 JUMP JUMPDEST PUSH1 0x0 DUP2 DUP2 MSTORE PUSH1 0x2 PUSH1 0x20 MSTORE PUSH1 0x40 DUP2 KECCAK256 SLOAD PUSH20 0xFFFFFFFFFFFFFFFFFFFFFFFFFFFFFFFFFFFFFFFF AND PUSH2 0xA85 JUMPI PUSH1 0x40 MLOAD PUSH32 0x8C379A000000000000000000000000000000000000000000000000000000000 DUP2 MSTORE PUSH1 0x20 PUSH1 0x4 DUP3 ADD MSTORE PUSH1 0x2C PUSH1 0x24 DUP3 ADD MSTORE PUSH32 0x4552433732313A20617070726F76656420717565727920666F72206E6F6E6578 PUSH1 0x44 DUP3 ADD MSTORE PUSH32 0x697374656E7420746F6B656E0000000000000000000000000000000000000000 PUSH1 0x64 DUP3 ADD MSTORE PUSH1 0x84 ADD JUMPDEST PUSH1 0x40 MLOAD DUP1 SWAP2 SUB SWAP1 REVERT JUMPDEST POP PUSH1 0x0 SWAP1 DUP2 MSTORE PUSH1 0x4 PUSH1 0x20 MSTORE PUSH1 0x40 SWAP1 KECCAK256 SLOAD PUSH20 0xFFFFFFFFFFFFFFFFFFFFFFFFFFFFFFFFFFFFFFFF AND SWAP1 JUMP JUMPDEST PUSH1 0x0 PUSH2 0xAB9 DUP3 PUSH2 0x19C8 JUMP JUMPDEST SWAP1 POP DUP1 PUSH20 0xFFFFFFFFFFFFFFFFFFFFFFFFFFFFFFFFFFFFFFFF AND DUP4 PUSH20 0xFFFFFFFFFFFFFFFFFFFFFFFFFFFFFFFFFFFFFFFF AND EQ ISZERO PUSH2 0xB77 JUMPI PUSH1 0x40 MLOAD PUSH32 0x8C379A000000000000000000000000000000000000000000000000000000000 DUP2 MSTORE PUSH1 0x20 PUSH1 0x4 DUP3 ADD MSTORE PUSH1 0x21 PUSH1 0x24 DUP3 ADD MSTORE PUSH32 0x4552433732313A20617070726F76616C20746F2063757272656E74206F776E65 PUSH1 0x44 DUP3 ADD MSTORE PUSH32 0x7200000000000000000000000000000000000000000000000000000000000000 PUSH1 0x64 DUP3 ADD MSTORE PUSH1 0x84 ADD PUSH2 0xA7C JUMP JUMPDEST CALLER PUSH20 0xFFFFFFFFFFFFFFFFFFFFFFFFFFFFFFFFFFFFFFFF DUP3 AND EQ DUP1 PUSH2 0xBA0 JUMPI POP PUSH2 0xBA0 DUP2 CALLER PUSH2 0x832 JUMP JUMPDEST PUSH2 0xC2C JUMPI PUSH1 0x40 MLOAD PUSH32 0x8C379A000000000000000000000000000000000000000000000000000000000 DUP2 MSTORE PUSH1 0x20 PUSH1 0x4 DUP3 ADD MSTORE PUSH1 0x38 PUSH1 0x24 DUP3 ADD MSTORE PUSH32 0x4552433732313A20617070726F76652063616C6C6572206973206E6F74206F77 PUSH1 0x44 DUP3 ADD MSTORE PUSH32 0x6E6572206E6F7220617070726F76656420666F7220616C6C0000000000000000 PUSH1 0x64 DUP3 ADD MSTORE PUSH1 0x84 ADD PUSH2 0xA7C JUMP JUMPDEST PUSH2 0xC36 DUP4 DUP4 PUSH2 0x5253 JUMP JUMPDEST POP POP POP JUMP JUMPDEST PUSH1 0x0 PUSH1 0xD DUP3 PUSH1 0xFF AND LT PUSH2 0xCAA JUMPI PUSH1 0x40 MLOAD PUSH32 0x8C379A000000000000000000000000000000000000000000000000000000000 DUP2 MSTORE PUSH1 0x20 PUSH1 0x4 DUP3 ADD MSTORE PUSH1 0xD PUSH1 0x24 DUP3 ADD MSTORE PUSH32 0x4E6F20737563682072616E6B2100000000000000000000000000000000000000 PUSH1 0x44 DUP3 ADD MSTORE PUSH1 0x64 ADD PUSH2 0xA7C JUMP JUMPDEST POP PUSH1 0xFF AND PUSH1 0x0 SWAP1 DUP2 MSTORE PUSH1 0x24 PUSH1 0x20 MSTORE PUSH1 0x40 SWAP1 KECCAK256 SLOAD PUSH8 0xFFFFFFFFFFFFFFFF AND SWAP1 JUMP JUMPDEST PUSH32 0x150B7A0200000000000000000000000000000000000000000000000000000000 JUMPDEST SWAP5 SWAP4 POP POP POP POP JUMP JUMPDEST PUSH1 0x0 DUP2 DUP2 MSTORE PUSH1 0x28 PUSH1 0x20 MSTORE PUSH1 0x40 DUP2 KECCAK256 SLOAD PUSH1 0xFF AND PUSH1 0xC EQ ISZERO PUSH2 0xD16 JUMPI POP PUSH1 0x1 SWAP2 SWAP1 POP JUMP JUMPDEST POP PUSH1 0x0 SWAP2 SWAP1 POP JUMP JUMPDEST PUSH2 0xD28 CALLER DUP3 PUSH2 0x52F3 JUMP JUMPDEST PUSH2 0xDB4 JUMPI PUSH1 0x40 MLOAD PUSH32 0x8C379A000000000000000000000000000000000000000000000000000000000 DUP2 MSTORE PUSH1 0x20 PUSH1 0x4 DUP3 ADD MSTORE PUSH1 0x31 PUSH1 0x24 DUP3 ADD MSTORE PUSH32 0x4552433732313A207472616E736665722063616C6C6572206973206E6F74206F PUSH1 0x44 DUP3 ADD MSTORE PUSH32 0x776E6572206E6F7220617070726F766564000000000000000000000000000000 PUSH1 0x64 DUP3 ADD MSTORE PUSH1 0x84 ADD PUSH2 0xA7C JUMP JUMPDEST PUSH2 0xC36 DUP4 DUP4 DUP4 PUSH2 0x545F JUMP JUMPDEST PUSH1 0x0 PUSH2 0xDCA DUP4 PUSH2 0x2682 JUMP JUMPDEST DUP3 LT PUSH2 0xE58 JUMPI PUSH1 0x40 MLOAD PUSH32 0x8C379A000000000000000000000000000000000000000000000000000000000 DUP2 MSTORE PUSH1 0x20 PUSH1 0x4 DUP3 ADD MSTORE PUSH1 0x2B PUSH1 0x24 DUP3 ADD MSTORE PUSH32 0x455243373231456E756D657261626C653A206F776E657220696E646578206F75 PUSH1 0x44 DUP3 ADD MSTORE PUSH32 0x74206F6620626F756E6473000000000000000000000000000000000000000000 PUSH1 0x64 DUP3 ADD MSTORE PUSH1 0x84 ADD PUSH2 0xA7C JUMP JUMPDEST POP PUSH20 0xFFFFFFFFFFFFFFFFFFFFFFFFFFFFFFFFFFFFFFFF SWAP2 SWAP1 SWAP2 AND PUSH1 0x0 SWAP1 DUP2 MSTORE PUSH1 0x6 PUSH1 0x20 SWAP1 DUP2 MSTORE PUSH1 0x40 DUP1 DUP4 KECCAK256 SWAP4 DUP4 MSTORE SWAP3 SWAP1 MSTORE KECCAK256 SLOAD SWAP1 JUMP JUMPDEST PUSH1 0x25 SLOAD PUSH20 0xFFFFFFFFFFFFFFFFFFFFFFFFFFFFFFFFFFFFFFFF AND CALLER EQ PUSH2 0xF0F JUMPI PUSH1 0x40 MLOAD PUSH32 0x8C379A000000000000000000000000000000000000000000000000000000000 DUP2 MSTORE PUSH1 0x20 PUSH1 0x4 DUP3 ADD MSTORE PUSH1 0xC PUSH1 0x24 DUP3 ADD MSTORE PUSH32 0x4E6F742063726561746F72210000000000000000000000000000000000000000 PUSH1 0x44 DUP3 ADD MSTORE PUSH1 0x64 ADD PUSH2 0xA7C JUMP JUMPDEST PUSH1 0x23 SLOAD PUSH20 0xFFFFFFFFFFFFFFFFFFFFFFFFFFFFFFFFFFFFFFFF AND PUSH2 0xF6D JUMPI PUSH1 0x23 DUP1 SLOAD PUSH32 0xFFFFFFFFFFFFFFFFFFFFFFFF0000000000000000000000000000000000000000 AND PUSH20 0xFFFFFFFFFFFFFFFFFFFFFFFFFFFFFFFFFFFFFFFF DUP4 AND OR SWAP1 SSTORE JUMPDEST POP JUMP JUMPDEST PUSH1 0x0 PUSH2 0x3E8 DUP3 PUSH2 0xFFFF AND LT PUSH2 0xF84 JUMPI PUSH1 0x0 DUP1 REVERT JUMPDEST PUSH1 0x17 DUP1 SLOAD SWAP1 DUP2 SWAP1 PUSH1 0x0 PUSH2 0xF96 DUP4 PUSH2 0x7826 JUMP JUMPDEST SWAP1 SWAP2 SSTORE POP PUSH1 0x0 SWAP1 POP PUSH2 0xFC0 CALLER PUSH3 0x4C4B40 PUSH2 0xFB3 TIMESTAMP PUSH3 0x15180 PUSH2 0x7707 JUMP JUMPDEST PUSH2 0x57C TIMESTAMP PUSH3 0xA8C00 PUSH2 0x7707 JUMP JUMPDEST PUSH1 0x40 DUP1 MLOAD DUP1 DUP3 ADD DUP3 MSTORE PUSH2 0xFFFF SWAP7 DUP8 AND DUP2 MSTORE PUSH1 0x20 DUP1 DUP3 ADD SWAP4 DUP5 MSTORE PUSH1 0x0 DUP7 DUP2 MSTORE PUSH1 0x16 SWAP1 SWAP2 MSTORE SWAP2 SWAP1 SWAP2 KECCAK256 SWAP1 MLOAD DUP2 SLOAD PUSH32 0xFFFFFFFFFFFFFFFFFFFFFFFFFFFFFFFFFFFFFFFFFFFFFFFFFFFFFFFFFFFF0000 AND SWAP7 AND SWAP6 SWAP1 SWAP6 OR DUP6 SSTORE MLOAD PUSH1 0x1 SWAP1 SWAP5 ADD SWAP4 SWAP1 SWAP4 SSTORE SWAP3 SWAP2 POP POP JUMP JUMPDEST PUSH2 0xC36 DUP4 DUP4 DUP4 PUSH1 0x40 MLOAD DUP1 PUSH1 0x20 ADD PUSH1 0x40 MSTORE DUP1 PUSH1 0x0 DUP2 MSTORE POP PUSH2 0x3952 JUMP JUMPDEST PUSH1 0x2C DUP1 SLOAD PUSH1 0x0 SWAP2 DUP2 SWAP1 DUP4 PUSH2 0x1053 DUP4 PUSH2 0x7826 JUMP JUMPDEST SWAP1 SWAP2 SSTORE POP POP PUSH1 0x18 SLOAD PUSH1 0x0 SWAP1 PUSH20 0xFFFFFFFFFFFFFFFFFFFFFFFFFFFFFFFFFFFFFFFF AND PUSH4 0x4A0E2AA1 CALLER PUSH3 0x4C4B40 PUSH2 0x108B TIMESTAMP PUSH3 0x15180 PUSH2 0x7707 JUMP JUMPDEST PUSH2 0x1098 TIMESTAMP PUSH3 0xA8C00 PUSH2 0x7707 JUMP JUMPDEST PUSH1 0x40 MLOAD PUSH32 0xFFFFFFFF00000000000000000000000000000000000000000000000000000000 PUSH1 0xE0 DUP8 SWAP1 SHL AND DUP2 MSTORE PUSH20 0xFFFFFFFFFFFFFFFFFFFFFFFFFFFFFFFFFFFFFFFF SWAP1 SWAP5 AND PUSH1 0x4 DUP6 ADD MSTORE PUSH1 0x24 DUP5 ADD SWAP3 SWAP1 SWAP3 MSTORE PUSH1 0x44 DUP4 ADD MSTORE PUSH1 0x64 DUP3 ADD MSTORE PUSH1 0x84 ADD PUSH1 0x20 PUSH1 0x40 MLOAD DUP1 DUP4 SUB DUP2 PUSH1 0x0 DUP8 DUP1 EXTCODESIZE ISZERO DUP1 ISZERO PUSH2 0x1110 JUMPI PUSH1 0x0 DUP1 REVERT JUMPDEST POP GAS CALL ISZERO DUP1 ISZERO PUSH2 0x1124 JUMPI RETURNDATASIZE PUSH1 0x0 DUP1 RETURNDATACOPY RETURNDATASIZE PUSH1 0x0 REVERT JUMPDEST POP POP POP POP PUSH1 0x40 MLOAD RETURNDATASIZE PUSH1 0x1F NOT PUSH1 0x1F DUP3 ADD AND DUP3 ADD DUP1 PUSH1 0x40 MSTORE POP DUP2 ADD SWAP1 PUSH2 0x1148 SWAP2 SWAP1 PUSH2 0x73E5 JUMP JUMPDEST PUSH1 0x40 DUP1 MLOAD PUSH1 0x60 DUP2 ADD DUP3 MSTORE PUSH1 0xFF DUP1 DUP10 AND DUP3 MSTORE PUSH20 0xFFFFFFFFFFFFFFFFFFFFFFFFFFFFFFFFFFFFFFFF DUP1 DUP10 AND PUSH1 0x20 DUP1 DUP6 ADD SWAP2 DUP3 MSTORE DUP5 DUP7 ADD SWAP7 DUP8 MSTORE PUSH1 0x0 DUP10 DUP2 MSTORE PUSH1 0x2F SWAP1 SWAP2 MSTORE SWAP5 SWAP1 SWAP5 KECCAK256 SWAP3 MLOAD DUP4 SLOAD SWAP5 MLOAD SWAP1 SWAP2 AND PUSH2 0x100 MUL PUSH32 0xFFFFFFFFFFFFFFFFFFFFFF000000000000000000000000000000000000000000 SWAP1 SWAP5 AND SWAP2 AND OR SWAP2 SWAP1 SWAP2 OR DUP2 SSTORE SWAP1 MLOAD PUSH1 0x1 SWAP1 SWAP2 ADD SSTORE POP SWAP1 POP SWAP3 SWAP2 POP POP JUMP JUMPDEST CALLER PUSH1 0x0 SWAP1 DUP2 MSTORE PUSH1 0x26 PUSH1 0x20 MSTORE PUSH1 0x40 DUP2 KECCAK256 SLOAD PUSH1 0x27 SLOAD DUP2 GT ISZERO PUSH2 0x11FA JUMPI PUSH2 0x11FA PUSH2 0x78BB JUMP JUMPDEST CALLER PUSH1 0x0 SWAP1 DUP2 MSTORE PUSH1 0x26 PUSH1 0x20 MSTORE PUSH1 0x40 DUP2 KECCAK256 DUP2 SWAP1 SSTORE PUSH1 0x27 DUP1 SLOAD DUP4 SWAP3 SWAP1 PUSH2 0x121E SWAP1 DUP5 SWAP1 PUSH2 0x7795 JUMP JUMPDEST SWAP1 SWAP2 SSTORE POP POP PUSH1 0x23 SLOAD PUSH1 0x40 MLOAD PUSH32 0x23B872DD00000000000000000000000000000000000000000000000000000000 DUP2 MSTORE ADDRESS PUSH1 0x4 DUP3 ADD MSTORE CALLER PUSH1 0x24 DUP3 ADD MSTORE PUSH1 0x44 DUP2 ADD DUP4 SWAP1 MSTORE PUSH20 0xFFFFFFFFFFFFFFFFFFFFFFFFFFFFFFFFFFFFFFFF SWAP1 SWAP2 AND SWAP1 PUSH4 0x23B872DD SWAP1 PUSH1 0x64 ADD PUSH1 0x20 PUSH1 0x40 MLOAD DUP1 DUP4 SUB DUP2 PUSH1 0x0 DUP8 DUP1 EXTCODESIZE ISZERO DUP1 ISZERO PUSH2 0x129B JUMPI PUSH1 0x0 DUP1 REVERT JUMPDEST POP GAS CALL ISZERO DUP1 ISZERO PUSH2 0x12AF JUMPI RETURNDATASIZE PUSH1 0x0 DUP1 RETURNDATACOPY RETURNDATASIZE PUSH1 0x0 REVERT JUMPDEST POP POP POP POP PUSH1 0x40 MLOAD RETURNDATASIZE PUSH1 0x1F NOT PUSH1 0x1F DUP3 ADD AND DUP3 ADD DUP1 PUSH1 0x40 MSTORE POP DUP2 ADD SWAP1 PUSH2 0x12D3 SWAP2 SWAP1 PUSH2 0x7308 JUMP JUMPDEST POP SWAP2 SWAP1 POP JUMP JUMPDEST PUSH1 0x0 DUP1 JUMPDEST PUSH1 0x15 SLOAD PUSH2 0xFFFF AND DUP2 LT ISZERO PUSH2 0x12FD JUMPI DUP1 PUSH2 0x12F5 DUP2 PUSH2 0x7826 JUMP JUMPDEST SWAP2 POP POP PUSH2 0x12DD JUMP JUMPDEST POP PUSH1 0xC DUP1 SLOAD SWAP1 DUP2 SWAP1 PUSH1 0x0 PUSH2 0x1310 DUP4 PUSH2 0x7826 JUMP JUMPDEST SWAP1 SWAP2 SSTORE POP POP PUSH1 0x40 DUP1 MLOAD PUSH1 0xE0 DUP2 ADD DUP3 MSTORE DUP3 DUP2 MSTORE PUSH20 0xFFFFFFFFFFFFFFFFFFFFFFFFFFFFFFFFFFFFFFFF DUP1 DUP10 AND PUSH1 0x20 DUP1 DUP5 ADD SWAP2 DUP3 MSTORE CALLER DUP5 DUP7 ADD DUP2 DUP2 MSTORE PUSH1 0x60 DUP7 ADD DUP13 DUP2 MSTORE PUSH1 0x80 DUP8 ADD DUP13 DUP2 MSTORE PUSH1 0xA0 DUP9 ADD DUP13 DUP2 MSTORE PUSH1 0x0 PUSH1 0xC0 DUP11 ADD DUP2 DUP2 MSTORE DUP13 DUP3 MSTORE PUSH1 0xE SWAP1 SWAP8 MSTORE DUP11 SWAP1 KECCAK256 SWAP9 MLOAD DUP10 SSTORE SWAP6 MLOAD PUSH1 0x1 DUP10 ADD DUP1 SLOAD SWAP2 DUP10 AND PUSH32 0xFFFFFFFFFFFFFFFFFFFFFFFF0000000000000000000000000000000000000000 SWAP3 DUP4 AND OR SWAP1 SSTORE SWAP3 MLOAD PUSH1 0x2 DUP10 ADD DUP1 SLOAD SWAP2 SWAP1 SWAP9 AND SWAP4 AND SWAP3 SWAP1 SWAP3 OR SWAP1 SWAP6 SSTORE SWAP4 MLOAD PUSH1 0x3 DUP7 ADD SSTORE SWAP3 MLOAD PUSH1 0x4 DUP6 ADD SSTORE SWAP1 MLOAD PUSH1 0x5 DUP5 ADD SSTORE MLOAD PUSH1 0x6 SWAP1 SWAP3 ADD DUP1 SLOAD SWAP3 ISZERO ISZERO PUSH32 0xFFFFFFFFFFFFFFFFFFFFFFFFFFFFFFFFFFFFFFFFFFFFFFFFFFFFFFFFFFFFFF00 SWAP1 SWAP4 AND SWAP3 SWAP1 SWAP3 OR SWAP1 SWAP2 SSTORE SWAP1 MLOAD PUSH32 0xFDE04A75A21F54E1E560D7A3CD1DBBF903F911BB966606480451365FF8E51ECA SWAP2 PUSH2 0x147B SWAP2 DUP5 SWAP2 DUP11 SWAP2 DUP11 SWAP1 DUP11 SWAP1 DUP11 SWAP1 SWAP6 DUP7 MSTORE PUSH20 0xFFFFFFFFFFFFFFFFFFFFFFFFFFFFFFFFFFFFFFFF SWAP5 DUP6 AND PUSH1 0x20 DUP8 ADD MSTORE SWAP3 SWAP1 SWAP4 AND PUSH1 0x40 DUP6 ADD MSTORE PUSH1 0x60 DUP5 ADD MSTORE PUSH1 0x80 DUP4 ADD SWAP2 SWAP1 SWAP2 MSTORE PUSH1 0xA0 DUP3 ADD MSTORE PUSH1 0xC0 ADD SWAP1 JUMP JUMPDEST PUSH1 0x40 MLOAD DUP1 SWAP2 SUB SWAP1 LOG1 SWAP6 SWAP5 POP POP POP POP POP JUMP JUMPDEST PUSH1 0x0 PUSH2 0x1497 PUSH1 0x8 SLOAD SWAP1 JUMP JUMPDEST DUP3 LT PUSH2 0x1525 JUMPI PUSH1 0x40 MLOAD PUSH32 0x8C379A000000000000000000000000000000000000000000000000000000000 DUP2 MSTORE PUSH1 0x20 PUSH1 0x4 DUP3 ADD MSTORE PUSH1 0x2C PUSH1 0x24 DUP3 ADD MSTORE PUSH32 0x455243373231456E756D657261626C653A20676C6F62616C20696E646578206F PUSH1 0x44 DUP3 ADD MSTORE PUSH32 0x7574206F6620626F756E64730000000000000000000000000000000000000000 PUSH1 0x64 DUP3 ADD MSTORE PUSH1 0x84 ADD PUSH2 0xA7C JUMP JUMPDEST PUSH1 0x8 DUP3 DUP2 SLOAD DUP2 LT PUSH2 0x1538 JUMPI PUSH2 0x1538 PUSH2 0x7977 JUMP JUMPDEST SWAP1 PUSH1 0x0 MSTORE PUSH1 0x20 PUSH1 0x0 KECCAK256 ADD SLOAD SWAP1 POP SWAP2 SWAP1 POP JUMP JUMPDEST PUSH1 0x0 DUP3 PUSH20 0xFFFFFFFFFFFFFFFFFFFFFFFFFFFFFFFFFFFFFFFF AND PUSH2 0x156C DUP4 PUSH2 0x19C8 JUMP JUMPDEST PUSH20 0xFFFFFFFFFFFFFFFFFFFFFFFFFFFFFFFFFFFFFFFF AND EQ SWAP4 SWAP3 POP POP POP JUMP JUMPDEST PUSH1 0x2D DUP1 SLOAD PUSH1 0x0 SWAP2 DUP2 SWAP1 DUP4 PUSH2 0x159D DUP4 PUSH2 0x7826 JUMP JUMPDEST SWAP1 SWAP2 SSTORE POP POP PUSH1 0x18 SLOAD PUSH1 0x0 SWAP1 PUSH20 0xFFFFFFFFFFFFFFFFFFFFFFFFFFFFFFFFFFFFFFFF AND PUSH4 0x4A0E2AA1 CALLER PUSH3 0x4C4B40 PUSH2 0x15D5 TIMESTAMP PUSH3 0x15180 PUSH2 0x7707 JUMP JUMPDEST PUSH2 0x15E2 TIMESTAMP PUSH3 0xA8C00 PUSH2 0x7707 JUMP JUMPDEST PUSH1 0x40 MLOAD PUSH32 0xFFFFFFFF00000000000000000000000000000000000000000000000000000000 PUSH1 0xE0 DUP8 SWAP1 SHL AND DUP2 MSTORE PUSH20 0xFFFFFFFFFFFFFFFFFFFFFFFFFFFFFFFFFFFFFFFF SWAP1 SWAP5 AND PUSH1 0x4 DUP6 ADD MSTORE PUSH1 0x24 DUP5 ADD SWAP3 SWAP1 SWAP3 MSTORE PUSH1 0x44 DUP4 ADD MSTORE PUSH1 0x64 DUP3 ADD MSTORE PUSH1 0x84 ADD PUSH1 0x20 PUSH1 0x40 MLOAD DUP1 DUP4 SUB DUP2 PUSH1 0x0 DUP8 DUP1 EXTCODESIZE ISZERO DUP1 ISZERO PUSH2 0x165A JUMPI PUSH1 0x0 DUP1 REVERT JUMPDEST POP GAS CALL ISZERO DUP1 ISZERO PUSH2 0x166E JUMPI RETURNDATASIZE PUSH1 0x0 DUP1 RETURNDATACOPY RETURNDATASIZE PUSH1 0x0 REVERT JUMPDEST POP POP POP POP PUSH1 0x40 MLOAD RETURNDATASIZE PUSH1 0x1F NOT PUSH1 0x1F DUP3 ADD AND DUP3 ADD DUP1 PUSH1 0x40 MSTORE POP DUP2 ADD SWAP1 PUSH2 0x1692 SWAP2 SWAP1 PUSH2 0x73E5 JUMP JUMPDEST PUSH1 0x40 DUP1 MLOAD DUP1 DUP3 ADD DUP3 MSTORE DUP7 DUP2 MSTORE PUSH1 0x20 DUP1 DUP3 ADD DUP5 SWAP1 MSTORE PUSH1 0x0 DUP7 DUP2 MSTORE PUSH1 0x30 DUP3 MSTORE SWAP3 SWAP1 SWAP3 KECCAK256 DUP2 MLOAD DUP1 MLOAD SWAP5 SWAP6 POP SWAP2 SWAP4 SWAP1 SWAP3 PUSH2 0x16CC SWAP3 DUP5 SWAP3 SWAP2 ADD SWAP1 PUSH2 0x6D4A JUMP JUMPDEST POP PUSH1 0x20 SWAP2 SWAP1 SWAP2 ADD MLOAD PUSH1 0x1 SWAP1 SWAP2 ADD SSTORE POP SWAP3 SWAP2 POP POP JUMP JUMPDEST PUSH1 0x22 SLOAD DUP2 LT PUSH2 0x174C JUMPI PUSH1 0x40 MLOAD PUSH32 0x8C379A000000000000000000000000000000000000000000000000000000000 DUP2 MSTORE PUSH1 0x20 PUSH1 0x4 DUP3 ADD MSTORE PUSH1 0x10 PUSH1 0x24 DUP3 ADD MSTORE PUSH32 0x4E6F207375636820726571756573742E00000000000000000000000000000000 PUSH1 0x44 DUP3 ADD MSTORE PUSH1 0x64 ADD PUSH2 0xA7C JUMP JUMPDEST PUSH1 0x0 DUP2 DUP2 MSTORE PUSH1 0x1D PUSH1 0x20 SWAP1 DUP2 MSTORE PUSH1 0x40 DUP1 DUP4 KECCAK256 DUP2 MLOAD PUSH1 0xA0 DUP2 ADD DUP4 MSTORE DUP2 SLOAD PUSH20 0xFFFFFFFFFFFFFFFFFFFFFFFFFFFFFFFFFFFFFFFF AND DUP2 MSTORE PUSH1 0x1 DUP3 ADD DUP1 SLOAD DUP5 MLOAD DUP2 DUP8 MUL DUP2 ADD DUP8 ADD SWAP1 SWAP6 MSTORE DUP1 DUP6 MSTORE SWAP2 SWAP5 SWAP3 SWAP4 DUP6 DUP5 ADD SWAP4 SWAP1 SWAP3 SWAP1 DUP4 ADD DUP3 DUP3 DUP1 ISZERO PUSH2 0x17CE JUMPI PUSH1 0x20 MUL DUP3 ADD SWAP2 SWAP1 PUSH1 0x0 MSTORE PUSH1 0x20 PUSH1 0x0 KECCAK256 SWAP1 JUMPDEST DUP2 SLOAD DUP2 MSTORE PUSH1 0x20 ADD SWAP1 PUSH1 0x1 ADD SWAP1 DUP1 DUP4 GT PUSH2 0x17BA JUMPI JUMPDEST POP POP POP POP POP DUP2 MSTORE PUSH1 0x20 ADD PUSH1 0x2 DUP3 ADD DUP1 SLOAD DUP1 PUSH1 0x20 MUL PUSH1 0x20 ADD PUSH1 0x40 MLOAD SWAP1 DUP2 ADD PUSH1 0x40 MSTORE DUP1 SWAP3 SWAP2 SWAP1 DUP2 DUP2 MSTORE PUSH1 0x20 ADD DUP3 DUP1 SLOAD DUP1 ISZERO PUSH2 0x1826 JUMPI PUSH1 0x20 MUL DUP3 ADD SWAP2 SWAP1 PUSH1 0x0 MSTORE PUSH1 0x20 PUSH1 0x0 KECCAK256 SWAP1 JUMPDEST DUP2 SLOAD DUP2 MSTORE PUSH1 0x20 ADD SWAP1 PUSH1 0x1 ADD SWAP1 DUP1 DUP4 GT PUSH2 0x1812 JUMPI JUMPDEST POP POP POP SWAP2 DUP4 MSTORE POP POP PUSH1 0x3 DUP3 ADD SLOAD PUSH20 0xFFFFFFFFFFFFFFFFFFFFFFFFFFFFFFFFFFFFFFFF SWAP1 DUP2 AND PUSH1 0x20 DUP4 ADD MSTORE PUSH1 0x4 SWAP3 DUP4 ADD SLOAD PUSH1 0x40 SWAP3 DUP4 ADD MSTORE PUSH1 0x18 SLOAD PUSH1 0x80 DUP6 ADD MLOAD SWAP3 MLOAD PUSH32 0x85AA033D00000000000000000000000000000000000000000000000000000000 DUP2 MSTORE SWAP4 DUP5 ADD SWAP3 SWAP1 SWAP3 MSTORE CALLER PUSH1 0x24 DUP5 ADD MSTORE SWAP3 SWAP4 POP SWAP1 SWAP2 AND SWAP1 PUSH4 0x85AA033D SWAP1 PUSH1 0x44 ADD PUSH1 0x20 PUSH1 0x40 MLOAD DUP1 DUP4 SUB DUP2 PUSH1 0x0 DUP8 DUP1 EXTCODESIZE ISZERO DUP1 ISZERO PUSH2 0x18C0 JUMPI PUSH1 0x0 DUP1 REVERT JUMPDEST POP GAS CALL ISZERO DUP1 ISZERO PUSH2 0x18D4 JUMPI RETURNDATASIZE PUSH1 0x0 DUP1 RETURNDATACOPY RETURNDATASIZE PUSH1 0x0 REVERT JUMPDEST POP POP POP POP PUSH1 0x40 MLOAD RETURNDATASIZE PUSH1 0x1F NOT PUSH1 0x1F DUP3 ADD AND DUP3 ADD DUP1 PUSH1 0x40 MSTORE POP DUP2 ADD SWAP1 PUSH2 0x18F8 SWAP2 SWAP1 PUSH2 0x7308 JUMP JUMPDEST POP DUP1 MLOAD PUSH1 0x60 DUP3 ADD MLOAD PUSH1 0x20 DUP4 ADD MLOAD PUSH1 0x40 DUP1 DUP6 ADD MLOAD SWAP1 MLOAD PUSH32 0x2EB2C2D600000000000000000000000000000000000000000000000000000000 DUP2 MSTORE PUSH20 0xFFFFFFFFFFFFFFFFFFFFFFFFFFFFFFFFFFFFFFFF DUP6 AND SWAP4 PUSH4 0x2EB2C2D6 SWAP4 PUSH2 0x195C SWAP4 ADDRESS SWAP4 PUSH1 0x4 ADD PUSH2 0x75E1 JUMP JUMPDEST PUSH1 0x0 PUSH1 0x40 MLOAD DUP1 DUP4 SUB DUP2 PUSH1 0x0 DUP8 DUP1 EXTCODESIZE ISZERO DUP1 ISZERO PUSH2 0x1976 JUMPI PUSH1 0x0 DUP1 REVERT JUMPDEST POP GAS CALL ISZERO DUP1 ISZERO PUSH2 0x198A JUMPI RETURNDATASIZE PUSH1 0x0 DUP1 RETURNDATACOPY RETURNDATASIZE PUSH1 0x0 REVERT JUMPDEST POP POP POP POP POP POP POP JUMP JUMPDEST PUSH1 0x0 PUSH2 0x19BF DUP6 DUP6 DUP6 PUSH3 0x4C4B40 DUP7 PUSH2 0x19AD TIMESTAMP PUSH3 0x15180 PUSH2 0x7707 JUMP JUMPDEST PUSH2 0x19BA TIMESTAMP PUSH3 0x2A300 PUSH2 0x7707 JUMP JUMPDEST PUSH2 0x56D1 JUMP JUMPDEST SWAP6 SWAP5 POP POP POP POP POP JUMP JUMPDEST PUSH1 0x0 DUP2 DUP2 MSTORE PUSH1 0x2 PUSH1 0x20 MSTORE PUSH1 0x40 DUP2 KECCAK256 SLOAD PUSH20 0xFFFFFFFFFFFFFFFFFFFFFFFFFFFFFFFFFFFFFFFF AND DUP1 PUSH2 0x937 JUMPI PUSH1 0x40 MLOAD PUSH32 0x8C379A000000000000000000000000000000000000000000000000000000000 DUP2 MSTORE PUSH1 0x20 PUSH1 0x4 DUP3 ADD MSTORE PUSH1 0x29 PUSH1 0x24 DUP3 ADD MSTORE PUSH32 0x4552433732313A206F776E657220717565727920666F72206E6F6E6578697374 PUSH1 0x44 DUP3 ADD MSTORE PUSH32 0x656E7420746F6B656E0000000000000000000000000000000000000000000000 PUSH1 0x64 DUP3 ADD MSTORE PUSH1 0x84 ADD PUSH2 0xA7C JUMP JUMPDEST PUSH1 0x0 DUP1 DUP4 PUSH1 0xFF AND GT PUSH2 0x1B0D JUMPI PUSH1 0x40 MLOAD PUSH32 0x8C379A000000000000000000000000000000000000000000000000000000000 DUP2 MSTORE PUSH1 0x20 PUSH1 0x4 DUP3 ADD MSTORE PUSH1 0x24 DUP1 DUP3 ADD MSTORE PUSH32 0x43616E277420736574206D696E74206C696D697420666F7220676F6420746974 PUSH1 0x44 DUP3 ADD MSTORE PUSH32 0x6C65732E00000000000000000000000000000000000000000000000000000000 PUSH1 0x64 DUP3 ADD MSTORE PUSH1 0x84 ADD PUSH2 0xA7C JUMP JUMPDEST PUSH1 0xC DUP4 PUSH1 0xFF AND LT PUSH2 0x1BA0 JUMPI PUSH1 0x40 MLOAD PUSH32 0x8C379A000000000000000000000000000000000000000000000000000000000 DUP2 MSTORE PUSH1 0x20 PUSH1 0x4 DUP3 ADD MSTORE PUSH1 0x39 PUSH1 0x24 DUP3 ADD MSTORE PUSH32 0x4F6E6C79207469746C657320686967686572207468616E20612070726F76696E PUSH1 0x44 DUP3 ADD MSTORE PUSH32 0x6369616C207469746C652063616E206265206D696E7465642E00000000000000 PUSH1 0x64 DUP3 ADD MSTORE PUSH1 0x84 ADD PUSH2 0xA7C JUMP JUMPDEST PUSH1 0x2B DUP1 SLOAD SWAP1 DUP2 SWAP1 PUSH1 0x0 PUSH2 0x1BB2 DUP4 PUSH2 0x7826 JUMP JUMPDEST SWAP1 SWAP2 SSTORE POP POP PUSH1 0x18 SLOAD PUSH1 0x0 SWAP1 PUSH20 0xFFFFFFFFFFFFFFFFFFFFFFFFFFFFFFFFFFFFFFFF AND PUSH4 0x4A0E2AA1 CALLER PUSH3 0x4C4B40 PUSH2 0x1BEA TIMESTAMP PUSH3 0x15180 PUSH2 0x7707 JUMP JUMPDEST PUSH2 0x1BF7 TIMESTAMP PUSH3 0xA8C00 PUSH2 0x7707 JUMP JUMPDEST PUSH1 0x40 MLOAD PUSH32 0xFFFFFFFF00000000000000000000000000000000000000000000000000000000 PUSH1 0xE0 DUP8 SWAP1 SHL AND DUP2 MSTORE PUSH20 0xFFFFFFFFFFFFFFFFFFFFFFFFFFFFFFFFFFFFFFFF SWAP1 SWAP5 AND PUSH1 0x4 DUP6 ADD MSTORE PUSH1 0x24 DUP5 ADD SWAP3 SWAP1 SWAP3 MSTORE PUSH1 0x44 DUP4 ADD MSTORE PUSH1 0x64 DUP3 ADD MSTORE PUSH1 0x84 ADD PUSH1 0x20 PUSH1 0x40 MLOAD DUP1 DUP4 SUB DUP2 PUSH1 0x0 DUP8 DUP1 EXTCODESIZE ISZERO DUP1 ISZERO PUSH2 0x1C6F JUMPI PUSH1 0x0 DUP1 REVERT JUMPDEST POP GAS CALL ISZERO DUP1 ISZERO PUSH2 0x1C83 JUMPI RETURNDATASIZE PUSH1 0x0 DUP1 RETURNDATACOPY RETURNDATASIZE PUSH1 0x0 REVERT JUMPDEST POP POP POP POP PUSH1 0x40 MLOAD RETURNDATASIZE PUSH1 0x1F NOT PUSH1 0x1F DUP3 ADD AND DUP3 ADD DUP1 PUSH1 0x40 MSTORE POP DUP2 ADD SWAP1 PUSH2 0x1CA7 SWAP2 SWAP1 PUSH2 0x73E5 JUMP JUMPDEST PUSH1 0x40 DUP1 MLOAD PUSH1 0x80 DUP2 ADD DUP3 MSTORE PUSH1 0xFF DUP1 DUP10 AND DUP3 MSTORE PUSH8 0xFFFFFFFFFFFFFFFF DUP9 AND PUSH1 0x20 DUP1 DUP5 ADD SWAP2 DUP3 MSTORE PUSH1 0x0 DUP5 DUP7 ADD DUP2 DUP2 MSTORE PUSH1 0x60 DUP7 ADD SWAP8 DUP9 MSTORE DUP10 DUP3 MSTORE PUSH1 0x2E SWAP1 SWAP3 MSTORE SWAP5 SWAP1 SWAP5 KECCAK256 SWAP3 MLOAD DUP4 SLOAD SWAP3 AND PUSH32 0xFFFFFFFFFFFFFFFFFFFFFFFFFFFFFFFFFFFFFFFFFFFFFFFFFFFFFFFFFFFFFF00 SWAP3 DUP4 AND OR DUP4 SSTORE MLOAD PUSH1 0x1 DUP4 ADD SSTORE SWAP2 MLOAD PUSH1 0x2 DUP3 ADD DUP1 SLOAD SWAP2 ISZERO ISZERO SWAP2 SWAP1 SWAP4 AND OR SWAP1 SWAP2 SSTORE SWAP1 MLOAD PUSH1 0x3 SWAP1 SWAP2 ADD SSTORE POP SWAP1 POP SWAP3 SWAP2 POP POP JUMP JUMPDEST PUSH1 0x0 DUP2 DUP2 MSTORE PUSH1 0x28 PUSH1 0x20 MSTORE PUSH1 0x40 DUP2 KECCAK256 CALLER PUSH2 0x1D55 DUP5 PUSH2 0x19C8 JUMP JUMPDEST PUSH20 0xFFFFFFFFFFFFFFFFFFFFFFFFFFFFFFFFFFFFFFFF AND EQ PUSH2 0x1DD2 JUMPI PUSH1 0x40 MLOAD PUSH32 0x8C379A000000000000000000000000000000000000000000000000000000000 DUP2 MSTORE PUSH1 0x20 PUSH1 0x4 DUP3 ADD MSTORE PUSH1 0x1D PUSH1 0x24 DUP3 ADD MSTORE PUSH32 0x5573657220646F6573206E6F74206F776E2074686973207469746C652E000000 PUSH1 0x44 DUP3 ADD MSTORE PUSH1 0x64 ADD PUSH2 0xA7C JUMP JUMPDEST DUP1 SLOAD PUSH1 0x0 SWAP1 PUSH2 0x1DE5 SWAP1 PUSH1 0xFF AND PUSH1 0x1 PUSH2 0x771F JUMP JUMPDEST SWAP1 POP PUSH1 0x0 DUP2 PUSH1 0xFF AND GT PUSH2 0x1E7A JUMPI PUSH1 0x40 MLOAD PUSH32 0x8C379A000000000000000000000000000000000000000000000000000000000 DUP2 MSTORE PUSH1 0x20 PUSH1 0x4 DUP3 ADD MSTORE PUSH1 0x27 PUSH1 0x24 DUP3 ADD MSTORE PUSH32 0x476F64207469746C6573206D757374206265206D696E746564207468726F7567 PUSH1 0x44 DUP3 ADD MSTORE PUSH32 0x6820766F74652E00000000000000000000000000000000000000000000000000 PUSH1 0x64 DUP3 ADD MSTORE PUSH1 0x84 ADD PUSH2 0xA7C JUMP JUMPDEST PUSH1 0xC DUP2 PUSH1 0xFF AND LT PUSH2 0x1F0D JUMPI PUSH1 0x40 MLOAD PUSH32 0x8C379A000000000000000000000000000000000000000000000000000000000 DUP2 MSTORE PUSH1 0x20 PUSH1 0x4 DUP3 ADD MSTORE PUSH1 0x30 PUSH1 0x24 DUP3 ADD MSTORE PUSH32 0x50726F76696E6369616C207469746C65732063616E6E6F74206D696E74206C6F PUSH1 0x44 DUP3 ADD MSTORE PUSH32 0x7765722074696572207469746C65732E00000000000000000000000000000000 PUSH1 0x64 DUP3 ADD MSTORE PUSH1 0x84 ADD PUSH2 0xA7C JUMP JUMPDEST PUSH1 0xFF DUP2 AND PUSH1 0x0 SWAP1 DUP2 MSTORE PUSH1 0x29 PUSH1 0x20 MSTORE PUSH1 0x40 SWAP1 DUP2 SWAP1 KECCAK256 SLOAD PUSH1 0x23 SLOAD SWAP2 MLOAD PUSH32 0x70A0823100000000000000000000000000000000000000000000000000000000 DUP2 MSTORE CALLER PUSH1 0x4 DUP3 ADD MSTORE SWAP1 SWAP2 DUP3 SWAP2 PUSH20 0xFFFFFFFFFFFFFFFFFFFFFFFFFFFFFFFFFFFFFFFF SWAP1 SWAP2 AND SWAP1 PUSH4 0x70A08231 SWAP1 PUSH1 0x24 ADD PUSH1 0x20 PUSH1 0x40 MLOAD DUP1 DUP4 SUB DUP2 DUP7 DUP1 EXTCODESIZE ISZERO DUP1 ISZERO PUSH2 0x1F8E JUMPI PUSH1 0x0 DUP1 REVERT JUMPDEST POP GAS STATICCALL ISZERO DUP1 ISZERO PUSH2 0x1FA2 JUMPI RETURNDATASIZE PUSH1 0x0 DUP1 RETURNDATACOPY RETURNDATASIZE PUSH1 0x0 REVERT JUMPDEST POP POP POP POP PUSH1 0x40 MLOAD RETURNDATASIZE PUSH1 0x1F NOT PUSH1 0x1F DUP3 ADD AND DUP3 ADD DUP1 PUSH1 0x40 MSTORE POP DUP2 ADD SWAP1 PUSH2 0x1FC6 SWAP2 SWAP1 PUSH2 0x73E5 JUMP JUMPDEST LT ISZERO PUSH2 0x202E JUMPI PUSH1 0x40 MLOAD PUSH32 0x8C379A000000000000000000000000000000000000000000000000000000000 DUP2 MSTORE PUSH1 0x20 PUSH1 0x4 DUP3 ADD MSTORE PUSH1 0x12 PUSH1 0x24 DUP3 ADD MSTORE PUSH32 0x496E73756666696369656E742046756E64730000000000000000000000000000 PUSH1 0x44 DUP3 ADD MSTORE PUSH1 0x64 ADD PUSH2 0xA7C JUMP JUMPDEST PUSH1 0x23 SLOAD PUSH1 0x40 MLOAD PUSH32 0xDD62ED3E00000000000000000000000000000000000000000000000000000000 DUP2 MSTORE CALLER PUSH1 0x4 DUP3 ADD MSTORE ADDRESS PUSH1 0x24 DUP3 ADD MSTORE DUP3 SWAP2 PUSH20 0xFFFFFFFFFFFFFFFFFFFFFFFFFFFFFFFFFFFFFFFF AND SWAP1 PUSH4 0xDD62ED3E SWAP1 PUSH1 0x44 ADD PUSH1 0x20 PUSH1 0x40 MLOAD DUP1 DUP4 SUB DUP2 DUP7 DUP1 EXTCODESIZE ISZERO DUP1 ISZERO PUSH2 0x209D JUMPI PUSH1 0x0 DUP1 REVERT JUMPDEST POP GAS STATICCALL ISZERO DUP1 ISZERO PUSH2 0x20B1 JUMPI RETURNDATASIZE PUSH1 0x0 DUP1 RETURNDATACOPY RETURNDATASIZE PUSH1 0x0 REVERT JUMPDEST POP POP POP POP PUSH1 0x40 MLOAD RETURNDATASIZE PUSH1 0x1F NOT PUSH1 0x1F DUP3 ADD AND DUP3 ADD DUP1 PUSH1 0x40 MSTORE POP DUP2 ADD SWAP1 PUSH2 0x20D5 SWAP2 SWAP1 PUSH2 0x73E5 JUMP JUMPDEST LT ISZERO PUSH2 0x213D JUMPI PUSH1 0x40 MLOAD PUSH32 0x8C379A000000000000000000000000000000000000000000000000000000000 DUP2 MSTORE PUSH1 0x20 PUSH1 0x4 DUP3 ADD MSTORE PUSH1 0x15 PUSH1 0x24 DUP3 ADD MSTORE PUSH32 0x496E73756666696369656E7420417070726F76616C0000000000000000000000 PUSH1 0x44 DUP3 ADD MSTORE PUSH1 0x64 ADD PUSH2 0xA7C JUMP JUMPDEST PUSH1 0x3 DUP4 ADD SLOAD PUSH1 0xFF DUP4 AND PUSH1 0x0 SWAP1 DUP2 MSTORE PUSH1 0x29 PUSH1 0x20 MSTORE PUSH1 0x40 SWAP1 KECCAK256 PUSH1 0x1 ADD SLOAD PUSH8 0xFFFFFFFFFFFFFFFF PUSH9 0x10000000000000000 SWAP1 SWAP3 DIV DUP3 AND SWAP2 AND DUP2 LT PUSH2 0x2200 JUMPI PUSH1 0x40 MLOAD PUSH32 0x8C379A000000000000000000000000000000000000000000000000000000000 DUP2 MSTORE PUSH1 0x20 PUSH1 0x4 DUP3 ADD MSTORE PUSH1 0x2E PUSH1 0x24 DUP3 ADD MSTORE PUSH32 0x54686973207469746C6520686173207265616368656420697473206D6178696D PUSH1 0x44 DUP3 ADD MSTORE PUSH32 0x756D206D696E7420636F756E742E000000000000000000000000000000000000 PUSH1 0x64 DUP3 ADD MSTORE PUSH1 0x84 ADD PUSH2 0xA7C JUMP JUMPDEST PUSH1 0x3 DUP5 ADD DUP1 SLOAD PUSH9 0x10000000000000000 SWAP1 DIV PUSH8 0xFFFFFFFFFFFFFFFF AND SWAP1 PUSH1 0x8 PUSH2 0x2228 DUP4 PUSH2 0x785F JUMP JUMPDEST DUP3 SLOAD PUSH2 0x100 SWAP3 SWAP1 SWAP3 EXP PUSH8 0xFFFFFFFFFFFFFFFF DUP2 DUP2 MUL NOT SWAP1 SWAP4 AND SWAP2 DUP4 AND MUL OR SWAP1 SWAP2 SSTORE PUSH1 0x23 DUP1 SLOAD PUSH21 0x10000000000000000000000000000000000000000 SWAP1 DIV SWAP1 SWAP2 AND SWAP2 POP DUP2 SWAP1 PUSH1 0x14 PUSH2 0x2277 DUP4 PUSH2 0x785F JUMP JUMPDEST DUP3 SLOAD PUSH2 0x100 SWAP3 SWAP1 SWAP3 EXP PUSH8 0xFFFFFFFFFFFFFFFF DUP2 DUP2 MUL NOT SWAP1 SWAP4 AND SWAP2 DUP4 AND MUL OR SWAP1 SWAP2 SSTORE PUSH1 0x40 DUP1 MLOAD PUSH1 0xC0 DUP2 ADD DUP3 MSTORE PUSH1 0xFF DUP9 DUP2 AND DUP3 MSTORE PUSH1 0x20 DUP1 DUP4 ADD DUP8 DUP2 MSTORE DUP4 DUP6 ADD DUP15 DUP2 MSTORE DUP10 DUP8 AND PUSH1 0x60 DUP7 ADD SWAP1 DUP2 MSTORE PUSH1 0x0 PUSH1 0x80 DUP8 ADD DUP2 DUP2 MSTORE CALLER PUSH1 0xA0 DUP10 ADD DUP2 DUP2 MSTORE DUP14 DUP5 MSTORE PUSH1 0x28 SWAP1 SWAP8 MSTORE SWAP9 SWAP1 SWAP2 KECCAK256 SWAP7 MLOAD DUP8 SLOAD PUSH32 0xFFFFFFFFFFFFFFFFFFFFFFFFFFFFFFFFFFFFFFFFFFFFFFFFFFFFFFFFFFFFFF00 AND SWAP7 AND SWAP6 SWAP1 SWAP6 OR DUP7 SSTORE SWAP2 MLOAD PUSH1 0x1 DUP7 ADD SSTORE MLOAD PUSH1 0x2 DUP6 ADD SSTORE MLOAD PUSH1 0x3 DUP5 ADD DUP1 SLOAD SWAP4 MLOAD SWAP2 DUP8 AND PUSH32 0xFFFFFFFFFFFFFFFFFFFFFFFFFFFFFFFF00000000000000000000000000000000 SWAP1 SWAP5 AND SWAP4 SWAP1 SWAP4 OR PUSH9 0x10000000000000000 SWAP2 SWAP1 SWAP7 AND MUL SWAP5 SWAP1 SWAP5 OR SWAP1 SSTORE SWAP2 MLOAD PUSH1 0x4 SWAP1 SWAP3 ADD DUP1 SLOAD PUSH32 0xFFFFFFFFFFFFFFFFFFFFFFFF0000000000000000000000000000000000000000 AND PUSH20 0xFFFFFFFFFFFFFFFFFFFFFFFFFFFFFFFFFFFFFFFF SWAP1 SWAP4 AND SWAP3 SWAP1 SWAP3 OR SWAP1 SWAP2 SSTORE PUSH2 0x23B7 SWAP2 POP DUP3 PUSH2 0x58BB JUMP JUMPDEST PUSH1 0xFF DUP5 AND PUSH1 0x0 SWAP1 DUP2 MSTORE PUSH1 0x24 PUSH1 0x20 MSTORE PUSH1 0x40 DUP2 KECCAK256 DUP1 SLOAD PUSH8 0xFFFFFFFFFFFFFFFF AND SWAP2 PUSH2 0x23DF DUP4 PUSH2 0x785F JUMP JUMPDEST DUP3 SLOAD PUSH8 0xFFFFFFFFFFFFFFFF SWAP2 DUP3 AND PUSH2 0x100 SWAP4 SWAP1 SWAP4 EXP SWAP3 DUP4 MUL SWAP2 SWAP1 SWAP3 MUL NOT SWAP1 SWAP2 AND OR SWAP1 SSTORE POP PUSH1 0x23 SLOAD PUSH1 0x40 MLOAD PUSH32 0x23B872DD00000000000000000000000000000000000000000000000000000000 DUP2 MSTORE CALLER PUSH1 0x4 DUP3 ADD MSTORE ADDRESS PUSH1 0x24 DUP3 ADD MSTORE PUSH1 0x44 DUP2 ADD DUP6 SWAP1 MSTORE PUSH20 0xFFFFFFFFFFFFFFFFFFFFFFFFFFFFFFFFFFFFFFFF SWAP1 SWAP2 AND SWAP1 PUSH4 0x23B872DD SWAP1 PUSH1 0x64 ADD PUSH1 0x20 PUSH1 0x40 MLOAD DUP1 DUP4 SUB DUP2 PUSH1 0x0 DUP8 DUP1 EXTCODESIZE ISZERO DUP1 ISZERO PUSH2 0x247B JUMPI PUSH1 0x0 DUP1 REVERT JUMPDEST POP GAS CALL ISZERO DUP1 ISZERO PUSH2 0x248F JUMPI RETURNDATASIZE PUSH1 0x0 DUP1 RETURNDATACOPY RETURNDATASIZE PUSH1 0x0 REVERT JUMPDEST POP POP POP POP PUSH1 0x40 MLOAD RETURNDATASIZE PUSH1 0x1F NOT PUSH1 0x1F DUP3 ADD AND DUP3 ADD DUP1 PUSH1 0x40 MSTORE POP DUP2 ADD SWAP1 PUSH2 0x24B3 SWAP2 SWAP1 PUSH2 0x7308 JUMP JUMPDEST POP PUSH1 0x0 PUSH2 0x24C1 PUSH1 0x3 DUP6 PUSH2 0x7744 JUMP JUMPDEST PUSH1 0x40 DUP1 MLOAD PUSH1 0xC0 DUP2 ADD DUP3 MSTORE DUP9 SLOAD PUSH1 0xFF AND DUP2 MSTORE PUSH1 0x1 DUP10 ADD SLOAD PUSH1 0x20 DUP3 ADD MSTORE PUSH1 0x2 DUP10 ADD SLOAD SWAP2 DUP2 ADD SWAP2 SWAP1 SWAP2 MSTORE PUSH1 0x3 DUP9 ADD SLOAD PUSH8 0xFFFFFFFFFFFFFFFF DUP1 DUP3 AND PUSH1 0x60 DUP5 ADD MSTORE PUSH9 0x10000000000000000 SWAP1 SWAP2 DIV AND PUSH1 0x80 DUP3 ADD MSTORE PUSH1 0x4 DUP9 ADD SLOAD PUSH20 0xFFFFFFFFFFFFFFFFFFFFFFFFFFFFFFFFFFFFFFFF AND PUSH1 0xA0 DUP3 ADD MSTORE SWAP1 SWAP2 POP JUMPDEST DUP2 PUSH1 0x27 PUSH1 0x0 DUP3 DUP3 SLOAD PUSH2 0x2547 SWAP2 SWAP1 PUSH2 0x7707 JUMP JUMPDEST SWAP3 POP POP DUP2 SWAP1 SSTORE POP PUSH1 0x0 PUSH2 0x255D DUP3 PUSH1 0x20 ADD MLOAD PUSH2 0x19C8 JUMP JUMPDEST PUSH20 0xFFFFFFFFFFFFFFFFFFFFFFFFFFFFFFFFFFFFFFFF DUP2 AND PUSH1 0x0 SWAP1 DUP2 MSTORE PUSH1 0x26 PUSH1 0x20 MSTORE PUSH1 0x40 DUP2 KECCAK256 DUP1 SLOAD SWAP3 SWAP4 POP DUP6 SWAP3 SWAP1 SWAP2 SWAP1 PUSH2 0x2597 SWAP1 DUP5 SWAP1 PUSH2 0x7707 JUMP JUMPDEST SWAP1 SWAP2 SSTORE POP POP PUSH1 0x40 SWAP2 DUP3 ADD MLOAD PUSH1 0x0 SWAP1 DUP2 MSTORE PUSH1 0x28 PUSH1 0x20 SWAP1 DUP2 MSTORE SWAP1 DUP4 SWAP1 KECCAK256 DUP4 MLOAD PUSH1 0xC0 DUP2 ADD DUP6 MSTORE DUP2 SLOAD PUSH1 0xFF AND DUP2 MSTORE PUSH1 0x1 DUP3 ADD SLOAD SWAP3 DUP2 ADD SWAP3 SWAP1 SWAP3 MSTORE PUSH1 0x2 DUP1 DUP3 ADD SLOAD SWAP5 DUP4 ADD SWAP5 SWAP1 SWAP5 MSTORE PUSH1 0x3 DUP2 ADD SLOAD PUSH8 0xFFFFFFFFFFFFFFFF DUP1 DUP3 AND PUSH1 0x60 DUP6 ADD MSTORE PUSH9 0x10000000000000000 SWAP1 SWAP2 DIV AND PUSH1 0x80 DUP4 ADD MSTORE PUSH1 0x4 ADD SLOAD PUSH20 0xFFFFFFFFFFFFFFFFFFFFFFFFFFFFFFFFFFFFFFFF AND PUSH1 0xA0 DUP3 ADD MSTORE SWAP2 PUSH2 0x262D SWAP1 DUP5 PUSH2 0x7744 JUMP JUMPDEST DUP3 MLOAD SWAP1 SWAP4 POP PUSH1 0xFF AND ISZERO ISZERO SWAP1 POP PUSH2 0x2535 JUMPI PUSH1 0x40 DUP1 MLOAD DUP5 DUP2 MSTORE CALLER PUSH1 0x20 DUP3 ADD MSTORE PUSH32 0xB31D8E8FA42B269769F65CB3FBEE94D28EFB43A3A870E2417A6AEF591601A9F8 SWAP2 ADD PUSH1 0x40 MLOAD DUP1 SWAP2 SUB SWAP1 LOG1 POP SWAP1 SWAP8 SWAP7 POP POP POP POP POP POP POP JUMP JUMPDEST PUSH1 0x0 PUSH20 0xFFFFFFFFFFFFFFFFFFFFFFFFFFFFFFFFFFFFFFFF DUP3 AND PUSH2 0x2727 JUMPI PUSH1 0x40 MLOAD PUSH32 0x8C379A000000000000000000000000000000000000000000000000000000000 DUP2 MSTORE PUSH1 0x20 PUSH1 0x4 DUP3 ADD MSTORE PUSH1 0x2A PUSH1 0x24 DUP3 ADD MSTORE PUSH32 0x4552433732313A2062616C616E636520717565727920666F7220746865207A65 PUSH1 0x44 DUP3 ADD MSTORE PUSH32 0x726F206164647265737300000000000000000000000000000000000000000000 PUSH1 0x64 DUP3 ADD MSTORE PUSH1 0x84 ADD PUSH2 0xA7C JUMP JUMPDEST POP PUSH20 0xFFFFFFFFFFFFFFFFFFFFFFFFFFFFFFFFFFFFFFFF AND PUSH1 0x0 SWAP1 DUP2 MSTORE PUSH1 0x3 PUSH1 0x20 MSTORE PUSH1 0x40 SWAP1 KECCAK256 SLOAD SWAP1 JUMP JUMPDEST PUSH1 0x2C SLOAD DUP2 LT PUSH2 0x27BB JUMPI PUSH1 0x40 MLOAD PUSH32 0x8C379A000000000000000000000000000000000000000000000000000000000 DUP2 MSTORE PUSH1 0x20 PUSH1 0x4 DUP3 ADD MSTORE PUSH1 0x10 PUSH1 0x24 DUP3 ADD MSTORE PUSH32 0x4E6F207375636820726571756573742E00000000000000000000000000000000 PUSH1 0x44 DUP3 ADD MSTORE PUSH1 0x64 ADD PUSH2 0xA7C JUMP JUMPDEST PUSH1 0x0 DUP2 DUP2 MSTORE PUSH1 0x2F PUSH1 0x20 SWAP1 DUP2 MSTORE PUSH1 0x40 SWAP2 DUP3 SWAP1 KECCAK256 DUP3 MLOAD PUSH1 0x60 DUP2 ADD DUP5 MSTORE DUP2 SLOAD PUSH1 0xFF DUP2 AND DUP3 MSTORE PUSH2 0x100 SWAP1 DIV PUSH20 0xFFFFFFFFFFFFFFFFFFFFFFFFFFFFFFFFFFFFFFFF SWAP1 DUP2 AND SWAP4 DUP3 ADD SWAP4 SWAP1 SWAP4 MSTORE PUSH1 0x1 SWAP1 SWAP2 ADD SLOAD DUP2 DUP5 ADD DUP2 SWAP1 MSTORE PUSH1 0x18 SLOAD SWAP4 MLOAD PUSH32 0x85AA033D00000000000000000000000000000000000000000000000000000000 DUP2 MSTORE PUSH1 0x4 DUP2 ADD SWAP2 SWAP1 SWAP2 MSTORE CALLER PUSH1 0x24 DUP3 ADD MSTORE SWAP1 SWAP3 SWAP1 SWAP2 AND SWAP1 PUSH4 0x85AA033D SWAP1 PUSH1 0x44 ADD PUSH1 0x20 PUSH1 0x40 MLOAD DUP1 DUP4 SUB DUP2 PUSH1 0x0 DUP8 DUP1 EXTCODESIZE ISZERO DUP1 ISZERO PUSH2 0x286C JUMPI PUSH1 0x0 DUP1 REVERT JUMPDEST POP GAS CALL ISZERO DUP1 ISZERO PUSH2 0x2880 JUMPI RETURNDATASIZE PUSH1 0x0 DUP1 RETURNDATACOPY RETURNDATASIZE PUSH1 0x0 REVERT JUMPDEST POP POP POP POP PUSH1 0x40 MLOAD RETURNDATASIZE PUSH1 0x1F NOT PUSH1 0x1F DUP3 ADD AND DUP3 ADD DUP1 PUSH1 0x40 MSTORE POP DUP2 ADD SWAP1 PUSH2 0x28A4 SWAP2 SWAP1 PUSH2 0x7308 JUMP JUMPDEST POP PUSH1 0x0 JUMPDEST DUP2 PUSH1 0x0 ADD MLOAD PUSH1 0xFF AND DUP2 PUSH1 0xFF AND LT ISZERO PUSH2 0xC36 JUMPI PUSH2 0x28C7 DUP3 PUSH1 0x20 ADD MLOAD PUSH2 0x58D5 JUMP JUMPDEST POP DUP1 PUSH2 0x28D2 DUP2 PUSH2 0x7887 JUMP JUMPDEST SWAP2 POP POP PUSH2 0x28A8 JUMP JUMPDEST PUSH1 0x0 PUSH2 0x28E5 PUSH1 0x8 SLOAD SWAP1 JUMP JUMPDEST DUP3 LT PUSH2 0x294D JUMPI PUSH1 0x40 MLOAD PUSH32 0x8C379A000000000000000000000000000000000000000000000000000000000 DUP2 MSTORE PUSH1 0x20 PUSH1 0x4 DUP3 ADD MSTORE PUSH1 0xE PUSH1 0x24 DUP3 ADD MSTORE PUSH32 0x4E6F2073756368207469746C6521000000000000000000000000000000000000 PUSH1 0x44 DUP3 ADD MSTORE PUSH1 0x64 ADD PUSH2 0xA7C JUMP JUMPDEST POP PUSH1 0x0 SWAP1 DUP2 MSTORE PUSH1 0x28 PUSH1 0x20 MSTORE PUSH1 0x40 SWAP1 KECCAK256 SLOAD PUSH1 0xFF AND SWAP1 JUMP JUMPDEST PUSH1 0x0 DUP3 DUP2 MSTORE PUSH1 0xE PUSH1 0x20 MSTORE PUSH1 0x40 DUP2 KECCAK256 PUSH1 0x5 DUP2 ADD SLOAD TIMESTAMP GT PUSH2 0x2A03 JUMPI PUSH1 0x40 MLOAD PUSH32 0x8C379A000000000000000000000000000000000000000000000000000000000 DUP2 MSTORE PUSH1 0x20 PUSH1 0x4 DUP3 ADD MSTORE PUSH1 0x24 DUP1 DUP3 ADD MSTORE PUSH32 0x50726F706F736974696F6E20766F74696E67206973207374696C6C206F6E676F PUSH1 0x44 DUP3 ADD MSTORE PUSH32 0x696E672E00000000000000000000000000000000000000000000000000000000 PUSH1 0x64 DUP3 ADD MSTORE PUSH1 0x84 ADD PUSH2 0xA7C JUMP JUMPDEST PUSH3 0x278D00 DUP2 PUSH1 0x5 ADD SLOAD TIMESTAMP PUSH2 0x2A17 SWAP2 SWAP1 PUSH2 0x7795 JUMP JUMPDEST LT PUSH2 0x2AA4 JUMPI PUSH1 0x40 MLOAD PUSH32 0x8C379A000000000000000000000000000000000000000000000000000000000 DUP2 MSTORE PUSH1 0x20 PUSH1 0x4 DUP3 ADD MSTORE PUSH1 0x30 PUSH1 0x24 DUP3 ADD MSTORE PUSH32 0x457865637574696F6E206F6620657870697265642070726F706F736974696F6E PUSH1 0x44 DUP3 ADD MSTORE PUSH32 0x206973206E6F7420616C6C6F7765642E00000000000000000000000000000000 PUSH1 0x64 DUP3 ADD MSTORE PUSH1 0x84 ADD PUSH2 0xA7C JUMP JUMPDEST PUSH2 0x2AAD DUP5 PUSH2 0x5AE8 JUMP JUMPDEST PUSH2 0x2B39 JUMPI PUSH1 0x40 MLOAD PUSH32 0x8C379A000000000000000000000000000000000000000000000000000000000 DUP2 MSTORE PUSH1 0x20 PUSH1 0x4 DUP3 ADD MSTORE PUSH1 0x22 PUSH1 0x24 DUP3 ADD MSTORE PUSH32 0x50726F706F736974696F6E20686173206E6F74206265656E20617070726F7665 PUSH1 0x44 DUP3 ADD MSTORE PUSH32 0x642E000000000000000000000000000000000000000000000000000000000000 PUSH1 0x64 DUP3 ADD MSTORE PUSH1 0x84 ADD PUSH2 0xA7C JUMP JUMPDEST PUSH1 0x6 DUP2 ADD SLOAD PUSH1 0xFF AND ISZERO PUSH2 0x2BA8 JUMPI PUSH1 0x40 MLOAD PUSH32 0x8C379A000000000000000000000000000000000000000000000000000000000 DUP2 MSTORE PUSH1 0x20 PUSH1 0x4 DUP3 ADD MSTORE PUSH1 0x1D PUSH1 0x24 DUP3 ADD MSTORE PUSH32 0x50726F706F736974696F6E20616C72656164792065786563757465642E000000 PUSH1 0x44 DUP3 ADD MSTORE PUSH1 0x64 ADD PUSH2 0xA7C JUMP JUMPDEST PUSH1 0x2 DUP2 ADD SLOAD PUSH20 0xFFFFFFFFFFFFFFFFFFFFFFFFFFFFFFFFFFFFFFFF AND CALLER EQ PUSH2 0x2C77 JUMPI PUSH1 0x40 MLOAD PUSH32 0x8C379A000000000000000000000000000000000000000000000000000000000 DUP2 MSTORE PUSH1 0x20 PUSH1 0x4 DUP3 ADD MSTORE PUSH1 0x42 PUSH1 0x24 DUP3 ADD MSTORE PUSH32 0x54686973206973206E6F74207468652064656D6F63726174697A656420636F6E PUSH1 0x44 DUP3 ADD MSTORE PUSH32 0x7472616374207468617420696E69746961746564207468652070726F706F7361 PUSH1 0x64 DUP3 ADD MSTORE PUSH32 0x6C2E000000000000000000000000000000000000000000000000000000000000 PUSH1 0x84 DUP3 ADD MSTORE PUSH1 0xA4 ADD PUSH2 0xA7C JUMP JUMPDEST PUSH1 0x6 DUP2 ADD DUP1 SLOAD PUSH32 0xFFFFFFFFFFFFFFFFFFFFFFFFFFFFFFFFFFFFFFFFFFFFFFFFFFFFFFFFFFFFFF00 AND PUSH1 0x1 OR SWAP1 SSTORE PUSH1 0x40 DUP1 MLOAD DUP6 DUP2 MSTORE PUSH20 0xFFFFFFFFFFFFFFFFFFFFFFFFFFFFFFFFFFFFFFFF DUP6 AND PUSH1 0x20 DUP3 ADD MSTORE PUSH32 0x9DC434E2CCBAA88F9C399D53EEB38DB0706ADFB1D49BB3152FB14A53B3995EB0 SWAP2 ADD PUSH1 0x40 MLOAD DUP1 SWAP2 SUB SWAP1 LOG1 POP SWAP3 SWAP2 POP POP JUMP JUMPDEST PUSH1 0x0 PUSH2 0x2D23 DUP4 PUSH3 0x4C4B40 DUP5 PUSH2 0x2D11 TIMESTAMP PUSH3 0x15180 PUSH2 0x7707 JUMP JUMPDEST PUSH2 0x2D1E TIMESTAMP PUSH3 0x2A300 PUSH2 0x7707 JUMP JUMPDEST PUSH2 0x5B30 JUMP JUMPDEST SWAP4 SWAP3 POP POP POP JUMP JUMPDEST PUSH1 0x0 DUP2 DUP2 MSTORE PUSH1 0xE PUSH1 0x20 SWAP1 DUP2 MSTORE PUSH1 0x40 DUP1 DUP4 KECCAK256 DUP2 MLOAD PUSH1 0xE0 DUP2 ADD DUP4 MSTORE DUP2 SLOAD DUP2 MSTORE PUSH1 0x1 DUP3 ADD SLOAD PUSH20 0xFFFFFFFFFFFFFFFFFFFFFFFFFFFFFFFFFFFFFFFF SWAP1 DUP2 AND SWAP5 DUP3 ADD SWAP5 SWAP1 SWAP5 MSTORE PUSH1 0x2 DUP3 ADD SLOAD SWAP1 SWAP4 AND SWAP2 DUP4 ADD SWAP2 SWAP1 SWAP2 MSTORE PUSH1 0x3 DUP2 ADD SLOAD PUSH1 0x60 DUP4 ADD MSTORE PUSH1 0x4 DUP2 ADD SLOAD PUSH1 0x80 DUP4 ADD DUP2 SWAP1 MSTORE PUSH1 0x5 DUP3 ADD SLOAD PUSH1 0xA0 DUP5 ADD MSTORE PUSH1 0x6 SWAP1 SWAP2 ADD SLOAD PUSH1 0xFF AND ISZERO ISZERO PUSH1 0xC0 DUP4 ADD MSTORE TIMESTAMP LT DUP1 PUSH2 0x2DBB JUMPI POP DUP1 PUSH1 0xA0 ADD MLOAD TIMESTAMP LT ISZERO JUMPDEST ISZERO PUSH2 0x2DC9 JUMPI POP PUSH1 0x0 SWAP3 SWAP2 POP POP JUMP JUMPDEST PUSH2 0x2D23 DUP4 PUSH2 0x5AE8 JUMP JUMPDEST PUSH1 0x60 PUSH1 0x1 DUP1 SLOAD PUSH2 0x94C SWAP1 PUSH2 0x77D8 JUMP JUMPDEST PUSH1 0x2B SLOAD DUP2 LT PUSH2 0x2E4C JUMPI PUSH1 0x40 MLOAD PUSH32 0x8C379A000000000000000000000000000000000000000000000000000000000 DUP2 MSTORE PUSH1 0x20 PUSH1 0x4 DUP3 ADD MSTORE PUSH1 0x10 PUSH1 0x24 DUP3 ADD MSTORE PUSH32 0x4E6F207375636820726571756573742E00000000000000000000000000000000 PUSH1 0x44 DUP3 ADD MSTORE PUSH1 0x64 ADD PUSH2 0xA7C JUMP JUMPDEST PUSH1 0x0 DUP2 DUP2 MSTORE PUSH1 0x2E PUSH1 0x20 SWAP1 DUP2 MSTORE PUSH1 0x40 SWAP2 DUP3 SWAP1 KECCAK256 DUP3 MLOAD PUSH1 0x80 DUP2 ADD DUP5 MSTORE DUP2 SLOAD PUSH1 0xFF SWAP1 DUP2 AND DUP3 MSTORE PUSH1 0x1 DUP4 ADD SLOAD SWAP4 DUP3 ADD SWAP4 SWAP1 SWAP4 MSTORE PUSH1 0x2 DUP3 ADD SLOAD SWAP1 SWAP3 AND ISZERO ISZERO DUP3 DUP5 ADD MSTORE PUSH1 0x3 ADD SLOAD PUSH1 0x60 DUP3 ADD DUP2 SWAP1 MSTORE PUSH1 0x18 SLOAD SWAP3 MLOAD PUSH32 0x85AA033D00000000000000000000000000000000000000000000000000000000 DUP2 MSTORE PUSH1 0x4 DUP2 ADD SWAP2 SWAP1 SWAP2 MSTORE CALLER PUSH1 0x24 DUP3 ADD MSTORE SWAP1 SWAP2 PUSH20 0xFFFFFFFFFFFFFFFFFFFFFFFFFFFFFFFFFFFFFFFF AND SWAP1 PUSH4 0x85AA033D SWAP1 PUSH1 0x44 ADD PUSH1 0x20 PUSH1 0x40 MLOAD DUP1 DUP4 SUB DUP2 PUSH1 0x0 DUP8 DUP1 EXTCODESIZE ISZERO DUP1 ISZERO PUSH2 0x2F06 JUMPI PUSH1 0x0 DUP1 REVERT JUMPDEST POP GAS CALL ISZERO DUP1 ISZERO PUSH2 0x2F1A JUMPI RETURNDATASIZE PUSH1 0x0 DUP1 RETURNDATACOPY RETURNDATASIZE PUSH1 0x0 REVERT JUMPDEST POP POP POP POP PUSH1 0x40 MLOAD RETURNDATASIZE PUSH1 0x1F NOT PUSH1 0x1F DUP3 ADD AND DUP3 ADD DUP1 PUSH1 0x40 MSTORE POP DUP2 ADD SWAP1 PUSH2 0x2F3E SWAP2 SWAP1 PUSH2 0x7308 JUMP JUMPDEST POP DUP1 PUSH1 0x40 ADD MLOAD ISZERO PUSH2 0x2F66 JUMPI PUSH1 0x20 DUP2 DUP2 ADD MLOAD SWAP2 MLOAD PUSH1 0xFF AND PUSH1 0x0 SWAP1 DUP2 MSTORE PUSH1 0x29 SWAP1 SWAP2 MSTORE PUSH1 0x40 SWAP1 KECCAK256 SSTORE POP JUMP JUMPDEST PUSH1 0x20 DUP2 DUP2 ADD MLOAD DUP3 MLOAD PUSH1 0xFF AND PUSH1 0x0 SWAP1 DUP2 MSTORE PUSH1 0x29 SWAP1 SWAP3 MSTORE PUSH1 0x40 SWAP1 SWAP2 KECCAK256 PUSH1 0x1 ADD DUP1 SLOAD PUSH32 0xFFFFFFFFFFFFFFFFFFFFFFFFFFFFFFFFFFFFFFFFFFFFFFFF0000000000000000 AND PUSH8 0xFFFFFFFFFFFFFFFF SWAP1 SWAP3 AND SWAP2 SWAP1 SWAP2 OR SWAP1 SSTORE JUMPDEST POP POP JUMP JUMPDEST PUSH1 0x60 PUSH1 0x0 DUP4 MLOAD PUSH8 0xFFFFFFFFFFFFFFFF DUP2 GT ISZERO PUSH2 0x2FDC JUMPI PUSH2 0x2FDC PUSH2 0x79A6 JUMP JUMPDEST PUSH1 0x40 MLOAD SWAP1 DUP1 DUP3 MSTORE DUP1 PUSH1 0x20 MUL PUSH1 0x20 ADD DUP3 ADD PUSH1 0x40 MSTORE DUP1 ISZERO PUSH2 0x3005 JUMPI DUP2 PUSH1 0x20 ADD PUSH1 0x20 DUP3 MUL DUP1 CALLDATASIZE DUP4 CALLDATACOPY ADD SWAP1 POP JUMPDEST POP SWAP1 POP PUSH1 0x0 JUMPDEST DUP5 MLOAD DUP2 LT ISZERO PUSH2 0x372C JUMPI PUSH1 0x0 DUP6 DUP3 DUP2 MLOAD DUP2 LT PUSH2 0x3028 JUMPI PUSH2 0x3028 PUSH2 0x7977 JUMP JUMPDEST PUSH1 0x20 SWAP1 DUP2 MUL SWAP2 SWAP1 SWAP2 ADD DUP2 ADD MLOAD PUSH1 0x0 DUP10 DUP2 MSTORE PUSH1 0x14 DUP4 MSTORE PUSH1 0x40 DUP1 DUP3 KECCAK256 DUP4 DUP4 MSTORE SWAP1 SWAP4 MSTORE SWAP2 SWAP1 SWAP2 KECCAK256 SLOAD SWAP1 SWAP2 POP PUSH1 0xFF AND ISZERO PUSH2 0x3106 JUMPI PUSH1 0x40 MLOAD PUSH32 0x8C379A000000000000000000000000000000000000000000000000000000000 DUP2 MSTORE PUSH1 0x20 PUSH1 0x4 DUP3 ADD MSTORE PUSH1 0x41 PUSH1 0x24 DUP3 ADD MSTORE PUSH32 0x5468697320766F7465722068617320616C726561647920636173742074686569 PUSH1 0x44 DUP3 ADD MSTORE PUSH32 0x7220766F746520666F722074686520676976656E2070726F706F736974696F6E PUSH1 0x64 DUP3 ADD MSTORE PUSH32 0x2E00000000000000000000000000000000000000000000000000000000000000 PUSH1 0x84 DUP3 ADD MSTORE PUSH1 0xA4 ADD PUSH2 0xA7C JUMP JUMPDEST PUSH1 0xA SLOAD PUSH1 0x40 MLOAD PUSH32 0x1E7AA37D00000000000000000000000000000000000000000000000000000000 DUP2 MSTORE PUSH1 0x4 DUP2 ADD DUP4 SWAP1 MSTORE PUSH1 0x0 SWAP2 PUSH20 0xFFFFFFFFFFFFFFFFFFFFFFFFFFFFFFFFFFFFFFFF AND SWAP1 PUSH4 0x1E7AA37D SWAP1 PUSH1 0x24 ADD PUSH1 0x20 PUSH1 0x40 MLOAD DUP1 DUP4 SUB DUP2 DUP7 DUP1 EXTCODESIZE ISZERO DUP1 ISZERO PUSH2 0x3171 JUMPI PUSH1 0x0 DUP1 REVERT JUMPDEST POP GAS STATICCALL ISZERO DUP1 ISZERO PUSH2 0x3185 JUMPI RETURNDATASIZE PUSH1 0x0 DUP1 RETURNDATACOPY RETURNDATASIZE PUSH1 0x0 REVERT JUMPDEST POP POP POP POP PUSH1 0x40 MLOAD RETURNDATASIZE PUSH1 0x1F NOT PUSH1 0x1F DUP3 ADD AND DUP3 ADD DUP1 PUSH1 0x40 MSTORE POP DUP2 ADD SWAP1 PUSH2 0x31A9 SWAP2 SWAP1 PUSH2 0x73E5 JUMP JUMPDEST SWAP1 POP PUSH1 0x0 DUP2 GT PUSH2 0x3215 JUMPI PUSH1 0x40 MLOAD PUSH32 0x8C379A000000000000000000000000000000000000000000000000000000000 DUP2 MSTORE PUSH1 0x20 PUSH1 0x4 DUP3 ADD DUP2 SWAP1 MSTORE PUSH1 0x24 DUP3 ADD MSTORE PUSH32 0x5468697320766F74657220686173206E6F20766F74696E67207765696768742E PUSH1 0x44 DUP3 ADD MSTORE PUSH1 0x64 ADD PUSH2 0xA7C JUMP JUMPDEST PUSH1 0xA SLOAD PUSH1 0x40 MLOAD PUSH32 0x5008962100000000000000000000000000000000000000000000000000000000 DUP2 MSTORE CALLER PUSH1 0x4 DUP3 ADD MSTORE PUSH1 0x24 DUP2 ADD DUP5 SWAP1 MSTORE PUSH20 0xFFFFFFFFFFFFFFFFFFFFFFFFFFFFFFFFFFFFFFFF SWAP1 SWAP2 AND SWAP1 PUSH4 0x50089621 SWAP1 PUSH1 0x44 ADD PUSH1 0x20 PUSH1 0x40 MLOAD DUP1 DUP4 SUB DUP2 DUP7 DUP1 EXTCODESIZE ISZERO DUP1 ISZERO PUSH2 0x3285 JUMPI PUSH1 0x0 DUP1 REVERT JUMPDEST POP GAS STATICCALL ISZERO DUP1 ISZERO PUSH2 0x3299 JUMPI RETURNDATASIZE PUSH1 0x0 DUP1 RETURNDATACOPY RETURNDATASIZE PUSH1 0x0 REVERT JUMPDEST POP POP POP POP PUSH1 0x40 MLOAD RETURNDATASIZE PUSH1 0x1F NOT PUSH1 0x1F DUP3 ADD AND DUP3 ADD DUP1 PUSH1 0x40 MSTORE POP DUP2 ADD SWAP1 PUSH2 0x32BD SWAP2 SWAP1 PUSH2 0x7308 JUMP JUMPDEST PUSH2 0x3349 JUMPI PUSH1 0x40 MLOAD PUSH32 0x8C379A000000000000000000000000000000000000000000000000000000000 DUP2 MSTORE PUSH1 0x20 PUSH1 0x4 DUP3 ADD MSTORE PUSH1 0x35 PUSH1 0x24 DUP3 ADD MSTORE PUSH32 0x5468652073656E64657220646F6573206E6F74206861766520706F7765722074 PUSH1 0x44 DUP3 ADD MSTORE PUSH32 0x6F20766F746520756E64657220746869732049442E0000000000000000000000 PUSH1 0x64 DUP3 ADD MSTORE PUSH1 0x84 ADD PUSH2 0xA7C JUMP JUMPDEST PUSH1 0x0 DUP9 DUP2 MSTORE PUSH1 0x14 PUSH1 0x20 SWAP1 DUP2 MSTORE PUSH1 0x40 DUP1 DUP4 KECCAK256 DUP6 DUP5 MSTORE DUP3 MSTORE DUP1 DUP4 KECCAK256 DUP1 SLOAD PUSH32 0xFFFFFFFFFFFFFFFFFFFFFFFFFFFFFFFFFFFFFFFFFFFFFFFFFFFFFFFFFFFFFF00 AND PUSH1 0x1 OR SWAP1 SSTORE DUP11 DUP4 MSTORE PUSH1 0xE SWAP1 SWAP2 MSTORE SWAP1 KECCAK256 PUSH1 0x4 DUP2 ADD SLOAD TIMESTAMP LT DUP1 ISZERO SWAP1 PUSH2 0x33AC JUMPI POP DUP1 PUSH1 0x5 ADD SLOAD TIMESTAMP LT JUMPDEST PUSH2 0x3412 JUMPI PUSH1 0x40 MLOAD PUSH32 0x8C379A000000000000000000000000000000000000000000000000000000000 DUP2 MSTORE PUSH1 0x20 PUSH1 0x4 DUP3 ADD MSTORE PUSH1 0x15 PUSH1 0x24 DUP3 ADD MSTORE PUSH32 0x496E6163746976652070726F706F736974696F6E2E0000000000000000000000 PUSH1 0x44 DUP3 ADD MSTORE PUSH1 0x64 ADD PUSH2 0xA7C JUMP JUMPDEST PUSH1 0xD DUP1 SLOAD SWAP1 DUP2 SWAP1 PUSH1 0x0 PUSH2 0x3424 DUP4 PUSH2 0x7826 JUMP JUMPDEST SWAP1 SWAP2 SSTORE POP POP PUSH1 0x0 DUP11 DUP2 MSTORE PUSH1 0x11 PUSH1 0x20 MSTORE PUSH1 0x40 DUP2 KECCAK256 DUP1 SLOAD SWAP2 DUP3 SWAP2 SWAP1 PUSH2 0x3446 DUP4 PUSH2 0x7826 JUMP JUMPDEST SWAP2 SWAP1 POP SSTORE POP PUSH1 0x40 MLOAD DUP1 PUSH1 0xE0 ADD PUSH1 0x40 MSTORE DUP1 DUP4 DUP2 MSTORE PUSH1 0x20 ADD CALLER PUSH20 0xFFFFFFFFFFFFFFFFFFFFFFFFFFFFFFFFFFFFFFFF AND DUP2 MSTORE PUSH1 0x20 ADD DUP7 DUP2 MSTORE PUSH1 0x20 ADD DUP13 DUP2 MSTORE PUSH1 0x20 ADD DUP3 DUP2 MSTORE PUSH1 0x20 ADD DUP11 ISZERO ISZERO DUP2 MSTORE PUSH1 0x20 ADD DUP6 DUP2 MSTORE POP PUSH1 0x10 PUSH1 0x0 DUP5 DUP2 MSTORE PUSH1 0x20 ADD SWAP1 DUP2 MSTORE PUSH1 0x20 ADD PUSH1 0x0 KECCAK256 PUSH1 0x0 DUP3 ADD MLOAD DUP2 PUSH1 0x0 ADD SSTORE PUSH1 0x20 DUP3 ADD MLOAD DUP2 PUSH1 0x1 ADD PUSH1 0x0 PUSH2 0x100 EXP DUP2 SLOAD DUP2 PUSH20 0xFFFFFFFFFFFFFFFFFFFFFFFFFFFFFFFFFFFFFFFF MUL NOT AND SWAP1 DUP4 PUSH20 0xFFFFFFFFFFFFFFFFFFFFFFFFFFFFFFFFFFFFFFFF AND MUL OR SWAP1 SSTORE POP PUSH1 0x40 DUP3 ADD MLOAD DUP2 PUSH1 0x2 ADD SSTORE PUSH1 0x60 DUP3 ADD MLOAD DUP2 PUSH1 0x3 ADD SSTORE PUSH1 0x80 DUP3 ADD MLOAD DUP2 PUSH1 0x4 ADD SSTORE PUSH1 0xA0 DUP3 ADD MLOAD DUP2 PUSH1 0x5 ADD PUSH1 0x0 PUSH2 0x100 EXP DUP2 SLOAD DUP2 PUSH1 0xFF MUL NOT AND SWAP1 DUP4 ISZERO ISZERO MUL OR SWAP1 SSTORE POP PUSH1 0xC0 DUP3 ADD MLOAD DUP2 PUSH1 0x6 ADD SSTORE SWAP1 POP POP PUSH1 0x10 PUSH1 0x0 DUP4 DUP2 MSTORE PUSH1 0x20 ADD SWAP1 DUP2 MSTORE PUSH1 0x20 ADD PUSH1 0x0 KECCAK256 PUSH1 0xF PUSH1 0x0 DUP14 DUP2 MSTORE PUSH1 0x20 ADD SWAP1 DUP2 MSTORE PUSH1 0x20 ADD PUSH1 0x0 KECCAK256 PUSH1 0x0 DUP4 DUP2 MSTORE PUSH1 0x20 ADD SWAP1 DUP2 MSTORE PUSH1 0x20 ADD PUSH1 0x0 KECCAK256 PUSH1 0x0 DUP3 ADD SLOAD DUP2 PUSH1 0x0 ADD SSTORE PUSH1 0x1 DUP3 ADD PUSH1 0x0 SWAP1 SLOAD SWAP1 PUSH2 0x100 EXP SWAP1 DIV PUSH20 0xFFFFFFFFFFFFFFFFFFFFFFFFFFFFFFFFFFFFFFFF AND DUP2 PUSH1 0x1 ADD PUSH1 0x0 PUSH2 0x100 EXP DUP2 SLOAD DUP2 PUSH20 0xFFFFFFFFFFFFFFFFFFFFFFFFFFFFFFFFFFFFFFFF MUL NOT AND SWAP1 DUP4 PUSH20 0xFFFFFFFFFFFFFFFFFFFFFFFFFFFFFFFFFFFFFFFF AND MUL OR SWAP1 SSTORE POP PUSH1 0x2 DUP3 ADD SLOAD DUP2 PUSH1 0x2 ADD SSTORE PUSH1 0x3 DUP3 ADD SLOAD DUP2 PUSH1 0x3 ADD SSTORE PUSH1 0x4 DUP3 ADD SLOAD DUP2 PUSH1 0x4 ADD SSTORE PUSH1 0x5 DUP3 ADD PUSH1 0x0 SWAP1 SLOAD SWAP1 PUSH2 0x100 EXP SWAP1 DIV PUSH1 0xFF AND DUP2 PUSH1 0x5 ADD PUSH1 0x0 PUSH2 0x100 EXP DUP2 SLOAD DUP2 PUSH1 0xFF MUL NOT AND SWAP1 DUP4 ISZERO ISZERO MUL OR SWAP1 SSTORE POP PUSH1 0x6 DUP3 ADD SLOAD DUP2 PUSH1 0x6 ADD SSTORE SWAP1 POP POP DUP9 ISZERO PUSH2 0x3674 JUMPI PUSH1 0x0 DUP12 DUP2 MSTORE PUSH1 0x12 PUSH1 0x20 MSTORE PUSH1 0x40 DUP2 KECCAK256 DUP1 SLOAD DUP7 SWAP3 SWAP1 PUSH2 0x3669 SWAP1 DUP5 SWAP1 PUSH2 0x7707 JUMP JUMPDEST SWAP1 SWAP2 SSTORE POP PUSH2 0x3698 SWAP1 POP JUMP JUMPDEST PUSH1 0x0 DUP12 DUP2 MSTORE PUSH1 0x13 PUSH1 0x20 MSTORE PUSH1 0x40 DUP2 KECCAK256 DUP1 SLOAD DUP7 SWAP3 SWAP1 PUSH2 0x3692 SWAP1 DUP5 SWAP1 PUSH2 0x7707 JUMP JUMPDEST SWAP1 SWAP2 SSTORE POP POP JUMPDEST PUSH1 0x40 DUP1 MLOAD DUP4 DUP2 MSTORE CALLER PUSH1 0x20 DUP3 ADD MSTORE SWAP1 DUP2 ADD DUP7 SWAP1 MSTORE PUSH1 0x60 DUP2 ADD DUP13 SWAP1 MSTORE PUSH1 0x80 DUP2 ADD DUP3 SWAP1 MSTORE DUP10 ISZERO ISZERO PUSH1 0xA0 DUP3 ADD MSTORE PUSH1 0xC0 DUP2 ADD DUP6 SWAP1 MSTORE PUSH32 0x1B1281172C5F1B23EE6378B9604001823BF5D738B7447DA0A8B63D3E04468FE7 SWAP1 PUSH1 0xE0 ADD PUSH1 0x40 MLOAD DUP1 SWAP2 SUB SWAP1 LOG1 DUP2 DUP8 DUP8 DUP2 MLOAD DUP2 LT PUSH2 0x3708 JUMPI PUSH2 0x3708 PUSH2 0x7977 JUMP JUMPDEST PUSH1 0x20 MUL PUSH1 0x20 ADD ADD DUP2 DUP2 MSTORE POP POP POP POP POP POP POP DUP1 DUP1 PUSH2 0x3724 SWAP1 PUSH2 0x7826 JUMP JUMPDEST SWAP2 POP POP PUSH2 0x300B JUMP JUMPDEST POP SWAP5 SWAP4 POP POP POP POP JUMP JUMPDEST PUSH1 0x0 PUSH2 0x19BF DUP6 DUP6 DUP6 PUSH3 0x4C4B40 DUP7 PUSH2 0x374F TIMESTAMP PUSH3 0x15180 PUSH2 0x7707 JUMP JUMPDEST PUSH2 0x375C TIMESTAMP PUSH3 0x2A300 PUSH2 0x7707 JUMP JUMPDEST PUSH2 0x5CC4 JUMP JUMPDEST PUSH2 0x2FBA CALLER DUP4 DUP4 PUSH2 0x5E4B JUMP JUMPDEST PUSH1 0x2D SLOAD DUP2 LT PUSH2 0x37D7 JUMPI PUSH1 0x40 MLOAD PUSH32 0x8C379A000000000000000000000000000000000000000000000000000000000 DUP2 MSTORE PUSH1 0x20 PUSH1 0x4 DUP3 ADD MSTORE PUSH1 0x10 PUSH1 0x24 DUP3 ADD MSTORE PUSH32 0x4E6F207375636820726571756573742E00000000000000000000000000000000 PUSH1 0x44 DUP3 ADD MSTORE PUSH1 0x64 ADD PUSH2 0xA7C JUMP JUMPDEST PUSH1 0x0 DUP2 DUP2 MSTORE PUSH1 0x30 PUSH1 0x20 MSTORE PUSH1 0x40 DUP1 DUP3 KECCAK256 DUP2 MLOAD DUP1 DUP4 ADD SWAP1 SWAP3 MSTORE DUP1 SLOAD DUP3 SWAP1 DUP3 SWAP1 PUSH2 0x37FD SWAP1 PUSH2 0x77D8 JUMP JUMPDEST DUP1 PUSH1 0x1F ADD PUSH1 0x20 DUP1 SWAP2 DIV MUL PUSH1 0x20 ADD PUSH1 0x40 MLOAD SWAP1 DUP2 ADD PUSH1 0x40 MSTORE DUP1 SWAP3 SWAP2 SWAP1 DUP2 DUP2 MSTORE PUSH1 0x20 ADD DUP3 DUP1 SLOAD PUSH2 0x3829 SWAP1 PUSH2 0x77D8 JUMP JUMPDEST DUP1 ISZERO PUSH2 0x3876 JUMPI DUP1 PUSH1 0x1F LT PUSH2 0x384B JUMPI PUSH2 0x100 DUP1 DUP4 SLOAD DIV MUL DUP4 MSTORE SWAP2 PUSH1 0x20 ADD SWAP2 PUSH2 0x3876 JUMP JUMPDEST DUP3 ADD SWAP2 SWAP1 PUSH1 0x0 MSTORE PUSH1 0x20 PUSH1 0x0 KECCAK256 SWAP1 JUMPDEST DUP2 SLOAD DUP2 MSTORE SWAP1 PUSH1 0x1 ADD SWAP1 PUSH1 0x20 ADD DUP1 DUP4 GT PUSH2 0x3859 JUMPI DUP3 SWAP1 SUB PUSH1 0x1F AND DUP3 ADD SWAP2 JUMPDEST POP POP POP SWAP2 DUP4 MSTORE POP POP PUSH1 0x1 SWAP2 SWAP1 SWAP2 ADD SLOAD PUSH1 0x20 SWAP2 DUP3 ADD MSTORE PUSH1 0x18 SLOAD SWAP1 DUP3 ADD MLOAD PUSH1 0x40 MLOAD PUSH32 0x85AA033D00000000000000000000000000000000000000000000000000000000 DUP2 MSTORE PUSH1 0x4 DUP2 ADD SWAP2 SWAP1 SWAP2 MSTORE CALLER PUSH1 0x24 DUP3 ADD MSTORE SWAP2 SWAP3 POP PUSH20 0xFFFFFFFFFFFFFFFFFFFFFFFFFFFFFFFFFFFFFFFF AND SWAP1 PUSH4 0x85AA033D SWAP1 PUSH1 0x44 ADD PUSH1 0x20 PUSH1 0x40 MLOAD DUP1 DUP4 SUB DUP2 PUSH1 0x0 DUP8 DUP1 EXTCODESIZE ISZERO DUP1 ISZERO PUSH2 0x3903 JUMPI PUSH1 0x0 DUP1 REVERT JUMPDEST POP GAS CALL ISZERO DUP1 ISZERO PUSH2 0x3917 JUMPI RETURNDATASIZE PUSH1 0x0 DUP1 RETURNDATACOPY RETURNDATASIZE PUSH1 0x0 REVERT JUMPDEST POP POP POP POP PUSH1 0x40 MLOAD RETURNDATASIZE PUSH1 0x1F NOT PUSH1 0x1F DUP3 ADD AND DUP3 ADD DUP1 PUSH1 0x40 MSTORE POP DUP2 ADD SWAP1 PUSH2 0x393B SWAP2 SWAP1 PUSH2 0x7308 JUMP JUMPDEST POP DUP1 MLOAD DUP1 MLOAD PUSH2 0xC36 SWAP2 PUSH1 0x2A SWAP2 PUSH1 0x20 SWAP1 SWAP2 ADD SWAP1 PUSH2 0x6D4A JUMP JUMPDEST PUSH2 0x395C CALLER DUP4 PUSH2 0x52F3 JUMP JUMPDEST PUSH2 0x39E8 JUMPI PUSH1 0x40 MLOAD PUSH32 0x8C379A000000000000000000000000000000000000000000000000000000000 DUP2 MSTORE PUSH1 0x20 PUSH1 0x4 DUP3 ADD MSTORE PUSH1 0x31 PUSH1 0x24 DUP3 ADD MSTORE PUSH32 0x4552433732313A207472616E736665722063616C6C6572206973206E6F74206F PUSH1 0x44 DUP3 ADD MSTORE PUSH32 0x776E6572206E6F7220617070726F766564000000000000000000000000000000 PUSH1 0x64 DUP3 ADD MSTORE PUSH1 0x84 ADD PUSH2 0xA7C JUMP JUMPDEST PUSH2 0x39F4 DUP5 DUP5 DUP5 DUP5 PUSH2 0x5F79 JUMP JUMPDEST POP POP POP POP JUMP JUMPDEST PUSH1 0xB SLOAD PUSH20 0xFFFFFFFFFFFFFFFFFFFFFFFFFFFFFFFFFFFFFFFF AND CALLER EQ PUSH2 0x3A1E JUMPI PUSH1 0x0 DUP1 REVERT JUMPDEST PUSH1 0xA SLOAD PUSH20 0xFFFFFFFFFFFFFFFFFFFFFFFFFFFFFFFFFFFFFFFF AND ISZERO PUSH2 0x3A9E JUMPI PUSH1 0x40 MLOAD PUSH32 0x8C379A000000000000000000000000000000000000000000000000000000000 DUP2 MSTORE PUSH1 0x20 PUSH1 0x4 DUP3 ADD MSTORE PUSH1 0x1C PUSH1 0x24 DUP3 ADD MSTORE PUSH32 0x52696768747320636F6E747261637420616C7265616479207365742E00000000 PUSH1 0x44 DUP3 ADD MSTORE PUSH1 0x64 ADD PUSH2 0xA7C JUMP JUMPDEST PUSH1 0xA DUP1 SLOAD PUSH32 0xFFFFFFFFFFFFFFFFFFFFFFFF0000000000000000000000000000000000000000 AND PUSH20 0xFFFFFFFFFFFFFFFFFFFFFFFFFFFFFFFFFFFFFFFF SWAP3 SWAP1 SWAP3 AND SWAP2 SWAP1 SWAP2 OR SWAP1 SSTORE JUMP JUMPDEST PUSH1 0x0 PUSH1 0xD DUP3 PUSH1 0xFF AND LT PUSH2 0x3B54 JUMPI PUSH1 0x40 MLOAD PUSH32 0x8C379A000000000000000000000000000000000000000000000000000000000 DUP2 MSTORE PUSH1 0x20 PUSH1 0x4 DUP3 ADD MSTORE PUSH1 0xD PUSH1 0x24 DUP3 ADD MSTORE PUSH32 0x4E6F20737563682072616E6B2100000000000000000000000000000000000000 PUSH1 0x44 DUP3 ADD MSTORE PUSH1 0x64 ADD PUSH2 0xA7C JUMP JUMPDEST POP PUSH1 0xFF AND PUSH1 0x0 SWAP1 DUP2 MSTORE PUSH1 0x29 PUSH1 0x20 MSTORE PUSH1 0x40 SWAP1 KECCAK256 SLOAD SWAP1 JUMP JUMPDEST PUSH1 0x21 SLOAD DUP2 LT PUSH2 0x3BD5 JUMPI PUSH1 0x40 MLOAD PUSH32 0x8C379A000000000000000000000000000000000000000000000000000000000 DUP2 MSTORE PUSH1 0x20 PUSH1 0x4 DUP3 ADD MSTORE PUSH1 0x10 PUSH1 0x24 DUP3 ADD MSTORE PUSH32 0x4E6F207375636820726571756573742E00000000000000000000000000000000 PUSH1 0x44 DUP3 ADD MSTORE PUSH1 0x64 ADD PUSH2 0xA7C JUMP JUMPDEST PUSH1 0x0 DUP2 DUP2 MSTORE PUSH1 0x1C PUSH1 0x20 SWAP1 DUP2 MSTORE PUSH1 0x40 SWAP2 DUP3 SWAP1 KECCAK256 DUP3 MLOAD PUSH1 0xA0 DUP2 ADD DUP5 MSTORE DUP2 SLOAD PUSH20 0xFFFFFFFFFFFFFFFFFFFFFFFFFFFFFFFFFFFFFFFF SWAP1 DUP2 AND DUP3 MSTORE PUSH1 0x1 DUP4 ADD SLOAD SWAP4 DUP3 ADD SWAP4 SWAP1 SWAP4 MSTORE PUSH1 0x2 DUP3 ADD SLOAD DUP2 DUP6 ADD MSTORE PUSH1 0x3 DUP3 ADD SLOAD DUP4 AND PUSH1 0x60 DUP3 ADD MSTORE PUSH1 0x4 SWAP2 DUP3 ADD SLOAD PUSH1 0x80 DUP3 ADD DUP2 SWAP1 MSTORE PUSH1 0x18 SLOAD SWAP5 MLOAD PUSH32 0x85AA033D00000000000000000000000000000000000000000000000000000000 DUP2 MSTORE SWAP3 DUP4 ADD MSTORE CALLER PUSH1 0x24 DUP4 ADD MSTORE SWAP3 SWAP1 SWAP2 AND SWAP1 PUSH4 0x85AA033D SWAP1 PUSH1 0x44 ADD PUSH1 0x20 PUSH1 0x40 MLOAD DUP1 DUP4 SUB DUP2 PUSH1 0x0 DUP8 DUP1 EXTCODESIZE ISZERO DUP1 ISZERO PUSH2 0x3C93 JUMPI PUSH1 0x0 DUP1 REVERT JUMPDEST POP GAS CALL ISZERO DUP1 ISZERO PUSH2 0x3CA7 JUMPI RETURNDATASIZE PUSH1 0x0 DUP1 RETURNDATACOPY RETURNDATASIZE PUSH1 0x0 REVERT JUMPDEST POP POP POP POP PUSH1 0x40 MLOAD RETURNDATASIZE PUSH1 0x1F NOT PUSH1 0x1F DUP3 ADD AND DUP3 ADD DUP1 PUSH1 0x40 MSTORE POP DUP2 ADD SWAP1 PUSH2 0x3CCB SWAP2 SWAP1 PUSH2 0x7308 JUMP JUMPDEST POP DUP1 MLOAD PUSH1 0x60 DUP3 ADD MLOAD PUSH1 0x20 DUP4 ADD MLOAD PUSH1 0x40 DUP1 DUP6 ADD MLOAD SWAP1 MLOAD PUSH32 0xF242432A00000000000000000000000000000000000000000000000000000000 DUP2 MSTORE ADDRESS PUSH1 0x4 DUP3 ADD MSTORE PUSH20 0xFFFFFFFFFFFFFFFFFFFFFFFFFFFFFFFFFFFFFFFF SWAP4 DUP5 AND PUSH1 0x24 DUP3 ADD MSTORE PUSH1 0x44 DUP2 ADD SWAP3 SWAP1 SWAP3 MSTORE PUSH1 0x64 DUP3 ADD MSTORE PUSH1 0xA0 PUSH1 0x84 DUP3 ADD MSTORE PUSH1 0x0 PUSH1 0xA4 DUP3 ADD MSTORE SWAP1 DUP3 AND SWAP1 PUSH4 0xF242432A SWAP1 PUSH1 0xC4 ADD PUSH2 0x195C JUMP JUMPDEST PUSH1 0x17 SLOAD DUP2 LT PUSH2 0x3DBE JUMPI PUSH1 0x40 MLOAD PUSH32 0x8C379A000000000000000000000000000000000000000000000000000000000 DUP2 MSTORE PUSH1 0x20 PUSH1 0x4 DUP3 ADD MSTORE PUSH1 0x10 PUSH1 0x24 DUP3 ADD MSTORE PUSH32 0x4E6F207375636820726571756573742E00000000000000000000000000000000 PUSH1 0x44 DUP3 ADD MSTORE PUSH1 0x64 ADD PUSH2 0xA7C JUMP JUMPDEST PUSH1 0x0 DUP2 DUP2 MSTORE PUSH1 0x16 PUSH1 0x20 SWAP1 DUP2 MSTORE PUSH1 0x40 DUP1 DUP4 KECCAK256 DUP2 MLOAD DUP1 DUP4 ADD DUP4 MSTORE DUP2 SLOAD PUSH2 0xFFFF AND DUP2 MSTORE PUSH1 0x1 SWAP1 SWAP2 ADD SLOAD DUP2 DUP5 ADD DUP2 SWAP1 MSTORE DUP5 MSTORE PUSH1 0xE SWAP1 SWAP3 MSTORE SWAP1 SWAP2 KECCAK256 PUSH1 0x5 DUP2 ADD SLOAD TIMESTAMP GT PUSH2 0x3E86 JUMPI PUSH1 0x40 MLOAD PUSH32 0x8C379A000000000000000000000000000000000000000000000000000000000 DUP2 MSTORE PUSH1 0x20 PUSH1 0x4 DUP3 ADD MSTORE PUSH1 0x24 DUP1 DUP3 ADD MSTORE PUSH32 0x50726F706F736974696F6E20766F74696E67206973207374696C6C206F6E676F PUSH1 0x44 DUP3 ADD MSTORE PUSH32 0x696E672E00000000000000000000000000000000000000000000000000000000 PUSH1 0x64 DUP3 ADD MSTORE PUSH1 0x84 ADD PUSH2 0xA7C JUMP JUMPDEST PUSH2 0x3E93 DUP3 PUSH1 0x20 ADD MLOAD PUSH2 0x5AE8 JUMP JUMPDEST PUSH2 0x3F1F JUMPI PUSH1 0x40 MLOAD PUSH32 0x8C379A000000000000000000000000000000000000000000000000000000000 DUP2 MSTORE PUSH1 0x20 PUSH1 0x4 DUP3 ADD MSTORE PUSH1 0x22 PUSH1 0x24 DUP3 ADD MSTORE PUSH32 0x50726F706F736974696F6E20686173206E6F74206265656E20617070726F7665 PUSH1 0x44 DUP3 ADD MSTORE PUSH32 0x642E000000000000000000000000000000000000000000000000000000000000 PUSH1 0x64 DUP3 ADD MSTORE PUSH1 0x84 ADD PUSH2 0xA7C JUMP JUMPDEST PUSH1 0x6 DUP2 ADD SLOAD PUSH1 0xFF AND ISZERO PUSH2 0x3F8E JUMPI PUSH1 0x40 MLOAD PUSH32 0x8C379A000000000000000000000000000000000000000000000000000000000 DUP2 MSTORE PUSH1 0x20 PUSH1 0x4 DUP3 ADD MSTORE PUSH1 0x1D PUSH1 0x24 DUP3 ADD MSTORE PUSH32 0x50726F706F736974696F6E20616C72656164792065786563757465642E000000 PUSH1 0x44 DUP3 ADD MSTORE PUSH1 0x64 ADD PUSH2 0xA7C JUMP JUMPDEST PUSH1 0x6 DUP2 ADD DUP1 SLOAD PUSH32 0xFFFFFFFFFFFFFFFFFFFFFFFFFFFFFFFFFFFFFFFFFFFFFFFFFFFFFFFFFFFFFF00 AND PUSH1 0x1 OR SWAP1 SSTORE PUSH1 0x20 DUP3 ADD MLOAD PUSH1 0x40 MLOAD PUSH32 0x9DC434E2CCBAA88F9C399D53EEB38DB0706ADFB1D49BB3152FB14A53B3995EB0 SWAP2 PUSH2 0x400F SWAP2 CALLER SWAP1 SWAP2 DUP3 MSTORE PUSH20 0xFFFFFFFFFFFFFFFFFFFFFFFFFFFFFFFFFFFFFFFF AND PUSH1 0x20 DUP3 ADD MSTORE PUSH1 0x40 ADD SWAP1 JUMP JUMPDEST PUSH1 0x40 MLOAD DUP1 SWAP2 SUB SWAP1 LOG1 POP MLOAD PUSH1 0x15 DUP1 SLOAD PUSH32 0xFFFFFFFFFFFFFFFFFFFFFFFFFFFFFFFFFFFFFFFFFFFFFFFFFFFFFFFFFFFF0000 AND PUSH2 0xFFFF SWAP1 SWAP3 AND SWAP2 SWAP1 SWAP2 OR SWAP1 SSTORE POP JUMP JUMPDEST PUSH1 0x0 DUP2 DUP2 MSTORE PUSH1 0x2 PUSH1 0x20 MSTORE PUSH1 0x40 SWAP1 KECCAK256 SLOAD PUSH1 0x60 SWAP1 PUSH20 0xFFFFFFFFFFFFFFFFFFFFFFFFFFFFFFFFFFFFFFFF AND PUSH2 0x4102 JUMPI PUSH1 0x40 MLOAD PUSH32 0x8C379A000000000000000000000000000000000000000000000000000000000 DUP2 MSTORE PUSH1 0x20 PUSH1 0x4 DUP3 ADD MSTORE PUSH1 0x2F PUSH1 0x24 DUP3 ADD MSTORE PUSH32 0x4552433732314D657461646174613A2055524920717565727920666F72206E6F PUSH1 0x44 DUP3 ADD MSTORE PUSH32 0x6E6578697374656E7420746F6B656E0000000000000000000000000000000000 PUSH1 0x64 DUP3 ADD MSTORE PUSH1 0x84 ADD PUSH2 0xA7C JUMP JUMPDEST PUSH1 0x0 PUSH2 0x410C PUSH2 0x601C JUMP JUMPDEST SWAP1 POP PUSH1 0x0 DUP2 MLOAD GT PUSH2 0x412C JUMPI PUSH1 0x40 MLOAD DUP1 PUSH1 0x20 ADD PUSH1 0x40 MSTORE DUP1 PUSH1 0x0 DUP2 MSTORE POP PUSH2 0x2D23 JUMP JUMPDEST DUP1 PUSH2 0x4136 DUP5 PUSH2 0x602B JUMP JUMPDEST PUSH1 0x40 MLOAD PUSH1 0x20 ADD PUSH2 0x4147 SWAP3 SWAP2 SWAP1 PUSH2 0x75B2 JUMP JUMPDEST PUSH1 0x40 MLOAD PUSH1 0x20 DUP2 DUP4 SUB SUB DUP2 MSTORE SWAP1 PUSH1 0x40 MSTORE SWAP4 SWAP3 POP POP POP JUMP JUMPDEST PUSH1 0x0 DUP2 DUP2 MSTORE PUSH1 0xE PUSH1 0x20 SWAP1 DUP2 MSTORE PUSH1 0x40 DUP1 DUP4 KECCAK256 DUP2 MLOAD PUSH1 0xE0 DUP2 ADD DUP4 MSTORE DUP2 SLOAD DUP2 MSTORE PUSH1 0x1 DUP3 ADD SLOAD PUSH20 0xFFFFFFFFFFFFFFFFFFFFFFFFFFFFFFFFFFFFFFFF SWAP1 DUP2 AND SWAP5 DUP3 ADD SWAP5 SWAP1 SWAP5 MSTORE PUSH1 0x2 DUP3 ADD SLOAD SWAP1 SWAP4 AND SWAP2 DUP4 ADD SWAP2 SWAP1 SWAP2 MSTORE PUSH1 0x3 DUP2 ADD SLOAD PUSH1 0x60 DUP4 ADD MSTORE PUSH1 0x4 DUP2 ADD SLOAD PUSH1 0x80 DUP4 ADD DUP2 SWAP1 MSTORE PUSH1 0x5 DUP3 ADD SLOAD PUSH1 0xA0 DUP5 ADD MSTORE PUSH1 0x6 SWAP1 SWAP2 ADD SLOAD PUSH1 0xFF AND ISZERO ISZERO PUSH1 0xC0 DUP4 ADD MSTORE TIMESTAMP LT DUP1 ISZERO SWAP1 PUSH2 0x2D23 JUMPI POP PUSH1 0xA0 ADD MLOAD TIMESTAMP LT SWAP3 SWAP2 POP POP JUMP JUMPDEST PUSH1 0x0 PUSH2 0xCEC DUP5 DUP5 PUSH3 0x4C4B40 DUP6 PUSH2 0x420C TIMESTAMP PUSH3 0x15180 PUSH2 0x7707 JUMP JUMPDEST PUSH2 0x4219 TIMESTAMP PUSH3 0x2A300 PUSH2 0x7707 JUMP JUMPDEST PUSH2 0x615D JUMP JUMPDEST PUSH1 0x0 PUSH2 0xCEC DUP5 DUP5 PUSH3 0x4C4B40 DUP6 PUSH2 0x4237 TIMESTAMP PUSH3 0x15180 PUSH2 0x7707 JUMP JUMPDEST PUSH2 0x4244 TIMESTAMP PUSH3 0x2A300 PUSH2 0x7707 JUMP JUMPDEST PUSH2 0x62D6 JUMP JUMPDEST PUSH1 0x1F SLOAD DUP2 LT PUSH2 0x42B4 JUMPI PUSH1 0x40 MLOAD PUSH32 0x8C379A000000000000000000000000000000000000000000000000000000000 DUP2 MSTORE PUSH1 0x20 PUSH1 0x4 DUP3 ADD MSTORE PUSH1 0x10 PUSH1 0x24 DUP3 ADD MSTORE PUSH32 0x4E6F207375636820726571756573742E00000000000000000000000000000000 PUSH1 0x44 DUP3 ADD MSTORE PUSH1 0x64 ADD PUSH2 0xA7C JUMP JUMPDEST PUSH1 0x0 DUP2 DUP2 MSTORE PUSH1 0x1A PUSH1 0x20 SWAP1 DUP2 MSTORE PUSH1 0x40 SWAP2 DUP3 SWAP1 KECCAK256 DUP3 MLOAD PUSH1 0x80 DUP2 ADD DUP5 MSTORE DUP2 SLOAD PUSH20 0xFFFFFFFFFFFFFFFFFFFFFFFFFFFFFFFFFFFFFFFF SWAP1 DUP2 AND DUP3 MSTORE PUSH1 0x1 DUP4 ADD SLOAD SWAP4 DUP3 ADD SWAP4 SWAP1 SWAP4 MSTORE PUSH1 0x2 DUP3 ADD SLOAD DUP4 AND DUP2 DUP6 ADD MSTORE PUSH1 0x3 SWAP1 SWAP2 ADD SLOAD PUSH1 0x60 DUP3 ADD DUP2 SWAP1 MSTORE PUSH1 0x18 SLOAD SWAP4 MLOAD PUSH32 0x85AA033D00000000000000000000000000000000000000000000000000000000 DUP2 MSTORE PUSH1 0x4 DUP2 ADD SWAP2 SWAP1 SWAP2 MSTORE CALLER PUSH1 0x24 DUP3 ADD MSTORE SWAP1 SWAP3 SWAP1 SWAP2 AND SWAP1 PUSH4 0x85AA033D SWAP1 PUSH1 0x44 ADD PUSH1 0x20 PUSH1 0x40 MLOAD DUP1 DUP4 SUB DUP2 PUSH1 0x0 DUP8 DUP1 EXTCODESIZE ISZERO DUP1 ISZERO PUSH2 0x436D JUMPI PUSH1 0x0 DUP1 REVERT JUMPDEST POP GAS CALL ISZERO DUP1 ISZERO PUSH2 0x4381 JUMPI RETURNDATASIZE PUSH1 0x0 DUP1 RETURNDATACOPY RETURNDATASIZE PUSH1 0x0 REVERT JUMPDEST POP POP POP POP PUSH1 0x40 MLOAD RETURNDATASIZE PUSH1 0x1F NOT PUSH1 0x1F DUP3 ADD AND DUP3 ADD DUP1 PUSH1 0x40 MSTORE POP DUP2 ADD SWAP1 PUSH2 0x43A5 SWAP2 SWAP1 PUSH2 0x7308 JUMP JUMPDEST POP DUP1 MLOAD PUSH1 0x40 DUP1 DUP4 ADD MLOAD PUSH1 0x20 DUP5 ADD MLOAD SWAP2 MLOAD PUSH32 0x23B872DD00000000000000000000000000000000000000000000000000000000 DUP2 MSTORE ADDRESS PUSH1 0x4 DUP3 ADD MSTORE PUSH20 0xFFFFFFFFFFFFFFFFFFFFFFFFFFFFFFFFFFFFFFFF SWAP2 DUP3 AND PUSH1 0x24 DUP3 ADD MSTORE PUSH1 0x44 DUP2 ADD SWAP3 SWAP1 SWAP3 MSTORE DUP3 AND SWAP1 PUSH4 0x23B872DD SWAP1 PUSH1 0x64 ADD PUSH1 0x20 PUSH1 0x40 MLOAD DUP1 DUP4 SUB DUP2 PUSH1 0x0 DUP8 DUP1 EXTCODESIZE ISZERO DUP1 ISZERO PUSH2 0x4429 JUMPI PUSH1 0x0 DUP1 REVERT JUMPDEST POP GAS CALL ISZERO DUP1 ISZERO PUSH2 0x443D JUMPI RETURNDATASIZE PUSH1 0x0 DUP1 RETURNDATACOPY RETURNDATASIZE PUSH1 0x0 REVERT JUMPDEST POP POP POP POP PUSH1 0x40 MLOAD RETURNDATASIZE PUSH1 0x1F NOT PUSH1 0x1F DUP3 ADD AND DUP3 ADD DUP1 PUSH1 0x40 MSTORE POP DUP2 ADD SWAP1 PUSH2 0x39F4 SWAP2 SWAP1 PUSH2 0x7308 JUMP JUMPDEST PUSH1 0x0 DUP4 DUP2 MSTORE PUSH1 0x14 PUSH1 0x20 SWAP1 DUP2 MSTORE PUSH1 0x40 DUP1 DUP4 KECCAK256 DUP6 DUP5 MSTORE SWAP1 SWAP2 MSTORE DUP2 KECCAK256 SLOAD PUSH1 0xFF AND ISZERO PUSH2 0x4531 JUMPI PUSH1 0x40 MLOAD PUSH32 0x8C379A000000000000000000000000000000000000000000000000000000000 DUP2 MSTORE PUSH1 0x20 PUSH1 0x4 DUP3 ADD MSTORE PUSH1 0x41 PUSH1 0x24 DUP3 ADD MSTORE PUSH32 0x5468697320766F7465722068617320616C726561647920636173742074686569 PUSH1 0x44 DUP3 ADD MSTORE PUSH32 0x7220766F746520666F722074686520676976656E2070726F706F736974696F6E PUSH1 0x64 DUP3 ADD MSTORE PUSH32 0x2E00000000000000000000000000000000000000000000000000000000000000 PUSH1 0x84 DUP3 ADD MSTORE PUSH1 0xA4 ADD PUSH2 0xA7C JUMP JUMPDEST PUSH1 0xA SLOAD PUSH1 0x40 MLOAD PUSH32 0x1E7AA37D00000000000000000000000000000000000000000000000000000000 DUP2 MSTORE PUSH1 0x4 DUP2 ADD DUP6 SWAP1 MSTORE PUSH1 0x0 SWAP2 PUSH20 0xFFFFFFFFFFFFFFFFFFFFFFFFFFFFFFFFFFFFFFFF AND SWAP1 PUSH4 0x1E7AA37D SWAP1 PUSH1 0x24 ADD PUSH1 0x20 PUSH1 0x40 MLOAD DUP1 DUP4 SUB DUP2 DUP7 DUP1 EXTCODESIZE ISZERO DUP1 ISZERO PUSH2 0x459C JUMPI PUSH1 0x0 DUP1 REVERT JUMPDEST POP GAS STATICCALL ISZERO DUP1 ISZERO PUSH2 0x45B0 JUMPI RETURNDATASIZE PUSH1 0x0 DUP1 RETURNDATACOPY RETURNDATASIZE PUSH1 0x0 REVERT JUMPDEST POP POP POP POP PUSH1 0x40 MLOAD RETURNDATASIZE PUSH1 0x1F NOT PUSH1 0x1F DUP3 ADD AND DUP3 ADD DUP1 PUSH1 0x40 MSTORE POP DUP2 ADD SWAP1 PUSH2 0x45D4 SWAP2 SWAP1 PUSH2 0x73E5 JUMP JUMPDEST SWAP1 POP PUSH1 0x0 DUP2 GT PUSH2 0x4640 JUMPI PUSH1 0x40 MLOAD PUSH32 0x8C379A000000000000000000000000000000000000000000000000000000000 DUP2 MSTORE PUSH1 0x20 PUSH1 0x4 DUP3 ADD DUP2 SWAP1 MSTORE PUSH1 0x24 DUP3 ADD MSTORE PUSH32 0x5468697320766F74657220686173206E6F20766F74696E67207765696768742E PUSH1 0x44 DUP3 ADD MSTORE PUSH1 0x64 ADD PUSH2 0xA7C JUMP JUMPDEST PUSH1 0xA SLOAD PUSH1 0x40 MLOAD PUSH32 0x5008962100000000000000000000000000000000000000000000000000000000 DUP2 MSTORE CALLER PUSH1 0x4 DUP3 ADD MSTORE PUSH1 0x24 DUP2 ADD DUP7 SWAP1 MSTORE PUSH20 0xFFFFFFFFFFFFFFFFFFFFFFFFFFFFFFFFFFFFFFFF SWAP1 SWAP2 AND SWAP1 PUSH4 0x50089621 SWAP1 PUSH1 0x44 ADD PUSH1 0x20 PUSH1 0x40 MLOAD DUP1 DUP4 SUB DUP2 DUP7 DUP1 EXTCODESIZE ISZERO DUP1 ISZERO PUSH2 0x46B0 JUMPI PUSH1 0x0 DUP1 REVERT JUMPDEST POP GAS STATICCALL ISZERO DUP1 ISZERO PUSH2 0x46C4 JUMPI RETURNDATASIZE PUSH1 0x0 DUP1 RETURNDATACOPY RETURNDATASIZE PUSH1 0x0 REVERT JUMPDEST POP POP POP POP PUSH1 0x40 MLOAD RETURNDATASIZE PUSH1 0x1F NOT PUSH1 0x1F DUP3 ADD AND DUP3 ADD DUP1 PUSH1 0x40 MSTORE POP DUP2 ADD SWAP1 PUSH2 0x46E8 SWAP2 SWAP1 PUSH2 0x7308 JUMP JUMPDEST PUSH2 0x4774 JUMPI PUSH1 0x40 MLOAD PUSH32 0x8C379A000000000000000000000000000000000000000000000000000000000 DUP2 MSTORE PUSH1 0x20 PUSH1 0x4 DUP3 ADD MSTORE PUSH1 0x35 PUSH1 0x24 DUP3 ADD MSTORE PUSH32 0x5468652073656E64657220646F6573206E6F74206861766520706F7765722074 PUSH1 0x44 DUP3 ADD MSTORE PUSH32 0x6F20766F746520756E64657220746869732049442E0000000000000000000000 PUSH1 0x64 DUP3 ADD MSTORE PUSH1 0x84 ADD PUSH2 0xA7C JUMP JUMPDEST PUSH1 0x0 DUP6 DUP2 MSTORE PUSH1 0x14 PUSH1 0x20 SWAP1 DUP2 MSTORE PUSH1 0x40 DUP1 DUP4 KECCAK256 DUP8 DUP5 MSTORE DUP3 MSTORE DUP1 DUP4 KECCAK256 DUP1 SLOAD PUSH32 0xFFFFFFFFFFFFFFFFFFFFFFFFFFFFFFFFFFFFFFFFFFFFFFFFFFFFFFFFFFFFFF00 AND PUSH1 0x1 OR SWAP1 SSTORE DUP8 DUP4 MSTORE PUSH1 0xE SWAP1 SWAP2 MSTORE SWAP1 KECCAK256 PUSH1 0x4 DUP2 ADD SLOAD TIMESTAMP LT DUP1 ISZERO SWAP1 PUSH2 0x47D7 JUMPI POP DUP1 PUSH1 0x5 ADD SLOAD TIMESTAMP LT JUMPDEST PUSH2 0x483D JUMPI PUSH1 0x40 MLOAD PUSH32 0x8C379A000000000000000000000000000000000000000000000000000000000 DUP2 MSTORE PUSH1 0x20 PUSH1 0x4 DUP3 ADD MSTORE PUSH1 0x15 PUSH1 0x24 DUP3 ADD MSTORE PUSH32 0x496E6163746976652070726F706F736974696F6E2E0000000000000000000000 PUSH1 0x44 DUP3 ADD MSTORE PUSH1 0x64 ADD PUSH2 0xA7C JUMP JUMPDEST PUSH1 0xD DUP1 SLOAD SWAP1 DUP2 SWAP1 PUSH1 0x0 PUSH2 0x484F DUP4 PUSH2 0x7826 JUMP JUMPDEST SWAP1 SWAP2 SSTORE POP POP PUSH1 0x0 DUP8 DUP2 MSTORE PUSH1 0x11 PUSH1 0x20 MSTORE PUSH1 0x40 DUP2 KECCAK256 DUP1 SLOAD SWAP2 DUP3 SWAP2 SWAP1 PUSH2 0x4871 DUP4 PUSH2 0x7826 JUMP JUMPDEST SWAP2 SWAP1 POP SSTORE POP PUSH1 0x40 MLOAD DUP1 PUSH1 0xE0 ADD PUSH1 0x40 MSTORE DUP1 DUP4 DUP2 MSTORE PUSH1 0x20 ADD CALLER PUSH20 0xFFFFFFFFFFFFFFFFFFFFFFFFFFFFFFFFFFFFFFFF AND DUP2 MSTORE PUSH1 0x20 ADD DUP9 DUP2 MSTORE PUSH1 0x20 ADD DUP10 DUP2 MSTORE PUSH1 0x20 ADD DUP3 DUP2 MSTORE PUSH1 0x20 ADD DUP8 ISZERO ISZERO DUP2 MSTORE PUSH1 0x20 ADD DUP6 DUP2 MSTORE POP PUSH1 0x10 PUSH1 0x0 DUP5 DUP2 MSTORE PUSH1 0x20 ADD SWAP1 DUP2 MSTORE PUSH1 0x20 ADD PUSH1 0x0 KECCAK256 PUSH1 0x0 DUP3 ADD MLOAD DUP2 PUSH1 0x0 ADD SSTORE PUSH1 0x20 DUP3 ADD MLOAD DUP2 PUSH1 0x1 ADD PUSH1 0x0 PUSH2 0x100 EXP DUP2 SLOAD DUP2 PUSH20 0xFFFFFFFFFFFFFFFFFFFFFFFFFFFFFFFFFFFFFFFF MUL NOT AND SWAP1 DUP4 PUSH20 0xFFFFFFFFFFFFFFFFFFFFFFFFFFFFFFFFFFFFFFFF AND MUL OR SWAP1 SSTORE POP PUSH1 0x40 DUP3 ADD MLOAD DUP2 PUSH1 0x2 ADD SSTORE PUSH1 0x60 DUP3 ADD MLOAD DUP2 PUSH1 0x3 ADD SSTORE PUSH1 0x80 DUP3 ADD MLOAD DUP2 PUSH1 0x4 ADD SSTORE PUSH1 0xA0 DUP3 ADD MLOAD DUP2 PUSH1 0x5 ADD PUSH1 0x0 PUSH2 0x100 EXP DUP2 SLOAD DUP2 PUSH1 0xFF MUL NOT AND SWAP1 DUP4 ISZERO ISZERO MUL OR SWAP1 SSTORE POP PUSH1 0xC0 DUP3 ADD MLOAD DUP2 PUSH1 0x6 ADD SSTORE SWAP1 POP POP PUSH1 0x10 PUSH1 0x0 DUP4 DUP2 MSTORE PUSH1 0x20 ADD SWAP1 DUP2 MSTORE PUSH1 0x20 ADD PUSH1 0x0 KECCAK256 PUSH1 0xF PUSH1 0x0 DUP11 DUP2 MSTORE PUSH1 0x20 ADD SWAP1 DUP2 MSTORE PUSH1 0x20 ADD PUSH1 0x0 KECCAK256 PUSH1 0x0 DUP4 DUP2 MSTORE PUSH1 0x20 ADD SWAP1 DUP2 MSTORE PUSH1 0x20 ADD PUSH1 0x0 KECCAK256 PUSH1 0x0 DUP3 ADD SLOAD DUP2 PUSH1 0x0 ADD SSTORE PUSH1 0x1 DUP3 ADD PUSH1 0x0 SWAP1 SLOAD SWAP1 PUSH2 0x100 EXP SWAP1 DIV PUSH20 0xFFFFFFFFFFFFFFFFFFFFFFFFFFFFFFFFFFFFFFFF AND DUP2 PUSH1 0x1 ADD PUSH1 0x0 PUSH2 0x100 EXP DUP2 SLOAD DUP2 PUSH20 0xFFFFFFFFFFFFFFFFFFFFFFFFFFFFFFFFFFFFFFFF MUL NOT AND SWAP1 DUP4 PUSH20 0xFFFFFFFFFFFFFFFFFFFFFFFFFFFFFFFFFFFFFFFF AND MUL OR SWAP1 SSTORE POP PUSH1 0x2 DUP3 ADD SLOAD DUP2 PUSH1 0x2 ADD SSTORE PUSH1 0x3 DUP3 ADD SLOAD DUP2 PUSH1 0x3 ADD SSTORE PUSH1 0x4 DUP3 ADD SLOAD DUP2 PUSH1 0x4 ADD SSTORE PUSH1 0x5 DUP3 ADD PUSH1 0x0 SWAP1 SLOAD SWAP1 PUSH2 0x100 EXP SWAP1 DIV PUSH1 0xFF AND DUP2 PUSH1 0x5 ADD PUSH1 0x0 PUSH2 0x100 EXP DUP2 SLOAD DUP2 PUSH1 0xFF MUL NOT AND SWAP1 DUP4 ISZERO ISZERO MUL OR SWAP1 SSTORE POP PUSH1 0x6 DUP3 ADD SLOAD DUP2 PUSH1 0x6 ADD SSTORE SWAP1 POP POP DUP6 ISZERO PUSH2 0x4A9F JUMPI PUSH1 0x0 DUP9 DUP2 MSTORE PUSH1 0x12 PUSH1 0x20 MSTORE PUSH1 0x40 DUP2 KECCAK256 DUP1 SLOAD DUP7 SWAP3 SWAP1 PUSH2 0x4A94 SWAP1 DUP5 SWAP1 PUSH2 0x7707 JUMP JUMPDEST SWAP1 SWAP2 SSTORE POP PUSH2 0x4AC3 SWAP1 POP JUMP JUMPDEST PUSH1 0x0 DUP9 DUP2 MSTORE PUSH1 0x13 PUSH1 0x20 MSTORE PUSH1 0x40 DUP2 KECCAK256 DUP1 SLOAD DUP7 SWAP3 SWAP1 PUSH2 0x4ABD SWAP1 DUP5 SWAP1 PUSH2 0x7707 JUMP JUMPDEST SWAP1 SWAP2 SSTORE POP POP JUMPDEST PUSH1 0x40 DUP1 MLOAD DUP4 DUP2 MSTORE CALLER PUSH1 0x20 DUP3 ADD MSTORE SWAP1 DUP2 ADD DUP9 SWAP1 MSTORE PUSH1 0x60 DUP2 ADD DUP10 SWAP1 MSTORE PUSH1 0x80 DUP2 ADD DUP3 SWAP1 MSTORE DUP7 ISZERO ISZERO PUSH1 0xA0 DUP3 ADD MSTORE PUSH1 0xC0 DUP2 ADD DUP6 SWAP1 MSTORE PUSH32 0x1B1281172C5F1B23EE6378B9604001823BF5D738B7447DA0A8B63D3E04468FE7 SWAP1 PUSH1 0xE0 ADD PUSH1 0x40 MLOAD DUP1 SWAP2 SUB SWAP1 LOG1 POP SWAP7 SWAP6 POP POP POP POP POP POP JUMP JUMPDEST PUSH1 0x1E SLOAD DUP2 LT PUSH2 0x4B96 JUMPI PUSH1 0x40 MLOAD PUSH32 0x8C379A000000000000000000000000000000000000000000000000000000000 DUP2 MSTORE PUSH1 0x20 PUSH1 0x4 DUP3 ADD MSTORE PUSH1 0x10 PUSH1 0x24 DUP3 ADD MSTORE PUSH32 0x4E6F207375636820726571756573742E00000000000000000000000000000000 PUSH1 0x44 DUP3 ADD MSTORE PUSH1 0x64 ADD PUSH2 0xA7C JUMP JUMPDEST PUSH1 0x0 DUP2 DUP2 MSTORE PUSH1 0x19 PUSH1 0x20 SWAP1 DUP2 MSTORE PUSH1 0x40 SWAP2 DUP3 SWAP1 KECCAK256 DUP3 MLOAD PUSH1 0x60 DUP2 ADD DUP5 MSTORE DUP2 SLOAD DUP2 MSTORE PUSH1 0x1 DUP3 ADD SLOAD PUSH20 0xFFFFFFFFFFFFFFFFFFFFFFFFFFFFFFFFFFFFFFFF SWAP1 DUP2 AND SWAP4 DUP3 ADD SWAP4 SWAP1 SWAP4 MSTORE PUSH1 0x2 SWAP1 SWAP2 ADD SLOAD DUP2 DUP5 ADD DUP2 SWAP1 MSTORE PUSH1 0x18 SLOAD SWAP4 MLOAD PUSH32 0x85AA033D00000000000000000000000000000000000000000000000000000000 DUP2 MSTORE PUSH1 0x4 DUP2 ADD SWAP2 SWAP1 SWAP2 MSTORE CALLER PUSH1 0x24 DUP3 ADD MSTORE SWAP1 SWAP3 SWAP1 SWAP2 AND SWAP1 PUSH4 0x85AA033D SWAP1 PUSH1 0x44 ADD PUSH1 0x20 PUSH1 0x40 MLOAD DUP1 DUP4 SUB DUP2 PUSH1 0x0 DUP8 DUP1 EXTCODESIZE ISZERO DUP1 ISZERO PUSH2 0x4C43 JUMPI PUSH1 0x0 DUP1 REVERT JUMPDEST POP GAS CALL ISZERO DUP1 ISZERO PUSH2 0x4C57 JUMPI RETURNDATASIZE PUSH1 0x0 DUP1 RETURNDATACOPY RETURNDATASIZE PUSH1 0x0 REVERT JUMPDEST POP POP POP POP PUSH1 0x40 MLOAD RETURNDATASIZE PUSH1 0x1F NOT PUSH1 0x1F DUP3 ADD AND DUP3 ADD DUP1 PUSH1 0x40 MSTORE POP DUP2 ADD SWAP1 PUSH2 0x4C7B SWAP2 SWAP1 PUSH2 0x7308 JUMP JUMPDEST POP PUSH1 0x20 DUP2 ADD MLOAD DUP2 MLOAD PUSH1 0x40 MLOAD PUSH20 0xFFFFFFFFFFFFFFFFFFFFFFFFFFFFFFFFFFFFFFFF SWAP1 SWAP3 AND SWAP2 DUP2 ISZERO PUSH2 0x8FC MUL SWAP2 SWAP1 PUSH1 0x0 DUP2 DUP2 DUP2 DUP6 DUP9 DUP9 CALL SWAP4 POP POP POP POP ISZERO DUP1 ISZERO PUSH2 0xC36 JUMPI RETURNDATASIZE PUSH1 0x0 DUP1 RETURNDATACOPY RETURNDATASIZE PUSH1 0x0 REVERT JUMPDEST PUSH1 0x20 SLOAD DUP2 LT PUSH2 0x4D31 JUMPI PUSH1 0x40 MLOAD PUSH32 0x8C379A000000000000000000000000000000000000000000000000000000000 DUP2 MSTORE PUSH1 0x20 PUSH1 0x4 DUP3 ADD MSTORE PUSH1 0x10 PUSH1 0x24 DUP3 ADD MSTORE PUSH32 0x4E6F207375636820726571756573742E00000000000000000000000000000000 PUSH1 0x44 DUP3 ADD MSTORE PUSH1 0x64 ADD PUSH2 0xA7C JUMP JUMPDEST PUSH1 0x0 DUP2 DUP2 MSTORE PUSH1 0x1B PUSH1 0x20 SWAP1 DUP2 MSTORE PUSH1 0x40 SWAP2 DUP3 SWAP1 KECCAK256 DUP3 MLOAD PUSH1 0x80 DUP2 ADD DUP5 MSTORE DUP2 SLOAD PUSH20 0xFFFFFFFFFFFFFFFFFFFFFFFFFFFFFFFFFFFFFFFF SWAP1 DUP2 AND DUP3 MSTORE PUSH1 0x1 DUP4 ADD SLOAD SWAP4 DUP3 ADD SWAP4 SWAP1 SWAP4 MSTORE PUSH1 0x2 DUP3 ADD SLOAD DUP4 AND DUP2 DUP6 ADD MSTORE PUSH1 0x3 SWAP1 SWAP2 ADD SLOAD PUSH1 0x60 DUP3 ADD DUP2 SWAP1 MSTORE PUSH1 0x18 SLOAD SWAP4 MLOAD PUSH32 0x85AA033D00000000000000000000000000000000000000000000000000000000 DUP2 MSTORE PUSH1 0x4 DUP2 ADD SWAP2 SWAP1 SWAP2 MSTORE CALLER PUSH1 0x24 DUP3 ADD MSTORE SWAP1 SWAP3 SWAP1 SWAP2 AND SWAP1 PUSH4 0x85AA033D SWAP1 PUSH1 0x44 ADD PUSH1 0x20 PUSH1 0x40 MLOAD DUP1 DUP4 SUB DUP2 PUSH1 0x0 DUP8 DUP1 EXTCODESIZE ISZERO DUP1 ISZERO PUSH2 0x4DEA JUMPI PUSH1 0x0 DUP1 REVERT JUMPDEST POP GAS CALL ISZERO DUP1 ISZERO PUSH2 0x4DFE JUMPI RETURNDATASIZE PUSH1 0x0 DUP1 RETURNDATACOPY RETURNDATASIZE PUSH1 0x0 REVERT JUMPDEST POP POP POP POP PUSH1 0x40 MLOAD RETURNDATASIZE PUSH1 0x1F NOT PUSH1 0x1F DUP3 ADD AND DUP3 ADD DUP1 PUSH1 0x40 MSTORE POP DUP2 ADD SWAP1 PUSH2 0x4E22 SWAP2 SWAP1 PUSH2 0x7308 JUMP JUMPDEST POP DUP1 MLOAD PUSH1 0x40 DUP1 DUP4 ADD MLOAD PUSH1 0x20 DUP5 ADD MLOAD SWAP2 MLOAD PUSH32 0x42842E0E00000000000000000000000000000000000000000000000000000000 DUP2 MSTORE ADDRESS PUSH1 0x4 DUP3 ADD MSTORE PUSH20 0xFFFFFFFFFFFFFFFFFFFFFFFFFFFFFFFFFFFFFFFF SWAP2 DUP3 AND PUSH1 0x24 DUP3 ADD MSTORE PUSH1 0x44 DUP2 ADD SWAP3 SWAP1 SWAP3 MSTORE DUP3 AND SWAP1 PUSH4 0x42842E0E SWAP1 PUSH1 0x64 ADD PUSH2 0x195C JUMP JUMPDEST PUSH1 0x0 PUSH1 0xD DUP4 PUSH1 0xFF AND LT PUSH2 0x4F00 JUMPI PUSH1 0x40 MLOAD PUSH32 0x8C379A000000000000000000000000000000000000000000000000000000000 DUP2 MSTORE PUSH1 0x20 PUSH1 0x4 DUP3 ADD MSTORE PUSH1 0x14 PUSH1 0x24 DUP3 ADD MSTORE PUSH32 0x4E6F20737563682072616E6B206578697374732E000000000000000000000000 PUSH1 0x44 DUP3 ADD MSTORE PUSH1 0x64 ADD PUSH2 0xA7C JUMP JUMPDEST PUSH1 0x0 DUP3 GT PUSH2 0x4F6A JUMPI PUSH1 0x40 MLOAD PUSH32 0x8C379A000000000000000000000000000000000000000000000000000000000 DUP2 MSTORE PUSH1 0x20 PUSH1 0x4 DUP3 ADD MSTORE PUSH1 0x1E PUSH1 0x24 DUP3 ADD MSTORE PUSH32 0x46726565206D696E74696E67206973206E6576657220616C6C6F7765642E0000 PUSH1 0x44 DUP3 ADD MSTORE PUSH1 0x64 ADD PUSH2 0xA7C JUMP JUMPDEST PUSH1 0x2B DUP1 SLOAD SWAP1 DUP2 SWAP1 PUSH1 0x0 PUSH2 0x4F7C DUP4 PUSH2 0x7826 JUMP JUMPDEST SWAP1 SWAP2 SSTORE POP POP PUSH1 0x18 SLOAD PUSH1 0x0 SWAP1 PUSH20 0xFFFFFFFFFFFFFFFFFFFFFFFFFFFFFFFFFFFFFFFF AND PUSH4 0x4A0E2AA1 CALLER PUSH3 0x4C4B40 PUSH2 0x4FB4 TIMESTAMP PUSH3 0x15180 PUSH2 0x7707 JUMP JUMPDEST PUSH2 0x4FC1 TIMESTAMP PUSH3 0xA8C00 PUSH2 0x7707 JUMP JUMPDEST PUSH1 0x40 MLOAD PUSH32 0xFFFFFFFF00000000000000000000000000000000000000000000000000000000 PUSH1 0xE0 DUP8 SWAP1 SHL AND DUP2 MSTORE PUSH20 0xFFFFFFFFFFFFFFFFFFFFFFFFFFFFFFFFFFFFFFFF SWAP1 SWAP5 AND PUSH1 0x4 DUP6 ADD MSTORE PUSH1 0x24 DUP5 ADD SWAP3 SWAP1 SWAP3 MSTORE PUSH1 0x44 DUP4 ADD MSTORE PUSH1 0x64 DUP3 ADD MSTORE PUSH1 0x84 ADD PUSH1 0x20 PUSH1 0x40 MLOAD DUP1 DUP4 SUB DUP2 PUSH1 0x0 DUP8 DUP1 EXTCODESIZE ISZERO DUP1 ISZERO PUSH2 0x5039 JUMPI PUSH1 0x0 DUP1 REVERT JUMPDEST POP GAS CALL ISZERO DUP1 ISZERO PUSH2 0x504D JUMPI RETURNDATASIZE PUSH1 0x0 DUP1 RETURNDATACOPY RETURNDATASIZE PUSH1 0x0 REVERT JUMPDEST POP POP POP POP PUSH1 0x40 MLOAD RETURNDATASIZE PUSH1 0x1F NOT PUSH1 0x1F DUP3 ADD AND DUP3 ADD DUP1 PUSH1 0x40 MSTORE POP DUP2 ADD SWAP1 PUSH2 0x5071 SWAP2 SWAP1 PUSH2 0x73E5 JUMP JUMPDEST PUSH1 0x40 DUP1 MLOAD PUSH1 0x80 DUP2 ADD DUP3 MSTORE PUSH1 0xFF DUP1 DUP10 AND DUP3 MSTORE PUSH1 0x20 DUP1 DUP4 ADD DUP10 DUP2 MSTORE PUSH1 0x1 DUP5 DUP7 ADD DUP2 DUP2 MSTORE PUSH1 0x60 DUP7 ADD SWAP8 DUP9 MSTORE PUSH1 0x0 DUP11 DUP2 MSTORE PUSH1 0x2E SWAP1 SWAP5 MSTORE SWAP6 SWAP1 SWAP3 KECCAK256 SWAP4 MLOAD DUP5 SLOAD SWAP4 AND PUSH32 0xFFFFFFFFFFFFFFFFFFFFFFFFFFFFFFFFFFFFFFFFFFFFFFFFFFFFFFFFFFFFFF00 SWAP4 DUP5 AND OR DUP5 SSTORE MLOAD SWAP1 DUP4 ADD SSTORE SWAP2 MLOAD PUSH1 0x2 DUP3 ADD DUP1 SLOAD SWAP2 ISZERO ISZERO SWAP2 SWAP1 SWAP4 AND OR SWAP1 SWAP2 SSTORE SWAP1 MLOAD PUSH1 0x3 SWAP1 SWAP2 ADD SSTORE POP SWAP1 POP SWAP3 SWAP2 POP POP JUMP JUMPDEST PUSH20 0xFFFFFFFFFFFFFFFFFFFFFFFFFFFFFFFFFFFFFFFF AND EXTCODESIZE ISZERO ISZERO SWAP1 JUMP JUMPDEST PUSH1 0x0 PUSH32 0xFFFFFFFF00000000000000000000000000000000000000000000000000000000 DUP3 AND PUSH32 0x80AC58CD00000000000000000000000000000000000000000000000000000000 EQ DUP1 PUSH2 0x51AC JUMPI POP PUSH32 0xFFFFFFFF00000000000000000000000000000000000000000000000000000000 DUP3 AND PUSH32 0x5B5E139F00000000000000000000000000000000000000000000000000000000 EQ JUMPDEST DUP1 PUSH2 0x51F8 JUMPI POP PUSH32 0xFFFFFFFF00000000000000000000000000000000000000000000000000000000 DUP3 AND PUSH32 0x780E9D6300000000000000000000000000000000000000000000000000000000 EQ JUMPDEST DUP1 PUSH2 0x5244 JUMPI POP PUSH32 0xFFFFFFFF00000000000000000000000000000000000000000000000000000000 DUP3 AND PUSH32 0xD9B67A2600000000000000000000000000000000000000000000000000000000 EQ JUMPDEST DUP1 PUSH2 0x937 JUMPI POP PUSH2 0x937 DUP3 PUSH2 0x6491 JUMP JUMPDEST PUSH1 0x0 DUP2 DUP2 MSTORE PUSH1 0x4 PUSH1 0x20 MSTORE PUSH1 0x40 SWAP1 KECCAK256 DUP1 SLOAD PUSH32 0xFFFFFFFFFFFFFFFFFFFFFFFF0000000000000000000000000000000000000000 AND PUSH20 0xFFFFFFFFFFFFFFFFFFFFFFFFFFFFFFFFFFFFFFFF DUP5 AND SWAP1 DUP2 OR SWAP1 SWAP2 SSTORE DUP2 SWAP1 PUSH2 0x52AD DUP3 PUSH2 0x19C8 JUMP JUMPDEST PUSH20 0xFFFFFFFFFFFFFFFFFFFFFFFFFFFFFFFFFFFFFFFF AND PUSH32 0x8C5BE1E5EBEC7D5BD14F71427D1E84F3DD0314C0F7B2291E5B200AC8C7C3B925 PUSH1 0x40 MLOAD PUSH1 0x40 MLOAD DUP1 SWAP2 SUB SWAP1 LOG4 POP POP JUMP JUMPDEST PUSH1 0x0 DUP2 DUP2 MSTORE PUSH1 0x2 PUSH1 0x20 MSTORE PUSH1 0x40 DUP2 KECCAK256 SLOAD PUSH20 0xFFFFFFFFFFFFFFFFFFFFFFFFFFFFFFFFFFFFFFFF AND PUSH2 0x53A4 JUMPI PUSH1 0x40 MLOAD PUSH32 0x8C379A000000000000000000000000000000000000000000000000000000000 DUP2 MSTORE PUSH1 0x20 PUSH1 0x4 DUP3 ADD MSTORE PUSH1 0x2C PUSH1 0x24 DUP3 ADD MSTORE PUSH32 0x4552433732313A206F70657261746F7220717565727920666F72206E6F6E6578 PUSH1 0x44 DUP3 ADD MSTORE PUSH32 0x697374656E7420746F6B656E0000000000000000000000000000000000000000 PUSH1 0x64 DUP3 ADD MSTORE PUSH1 0x84 ADD PUSH2 0xA7C JUMP JUMPDEST PUSH1 0x0 PUSH2 0x53AF DUP4 PUSH2 0x19C8 JUMP JUMPDEST SWAP1 POP DUP1 PUSH20 0xFFFFFFFFFFFFFFFFFFFFFFFFFFFFFFFFFFFFFFFF AND DUP5 PUSH20 0xFFFFFFFFFFFFFFFFFFFFFFFFFFFFFFFFFFFFFFFF AND EQ DUP1 PUSH2 0x541E JUMPI POP DUP4 PUSH20 0xFFFFFFFFFFFFFFFFFFFFFFFFFFFFFFFFFFFFFFFF AND PUSH2 0x5406 DUP5 PUSH2 0x9CF JUMP JUMPDEST PUSH20 0xFFFFFFFFFFFFFFFFFFFFFFFFFFFFFFFFFFFFFFFF AND EQ JUMPDEST DUP1 PUSH2 0xCEC JUMPI POP PUSH20 0xFFFFFFFFFFFFFFFFFFFFFFFFFFFFFFFFFFFFFFFF DUP1 DUP3 AND PUSH1 0x0 SWAP1 DUP2 MSTORE PUSH1 0x5 PUSH1 0x20 SWAP1 DUP2 MSTORE PUSH1 0x40 DUP1 DUP4 KECCAK256 SWAP4 DUP9 AND DUP4 MSTORE SWAP3 SWAP1 MSTORE KECCAK256 SLOAD PUSH1 0xFF AND PUSH2 0xCEC JUMP JUMPDEST DUP3 PUSH20 0xFFFFFFFFFFFFFFFFFFFFFFFFFFFFFFFFFFFFFFFF AND PUSH2 0x547F DUP3 PUSH2 0x19C8 JUMP JUMPDEST PUSH20 0xFFFFFFFFFFFFFFFFFFFFFFFFFFFFFFFFFFFFFFFF AND EQ PUSH2 0x5522 JUMPI PUSH1 0x40 MLOAD PUSH32 0x8C379A000000000000000000000000000000000000000000000000000000000 DUP2 MSTORE PUSH1 0x20 PUSH1 0x4 DUP3 ADD MSTORE PUSH1 0x25 PUSH1 0x24 DUP3 ADD MSTORE PUSH32 0x4552433732313A207472616E736665722066726F6D20696E636F727265637420 PUSH1 0x44 DUP3 ADD MSTORE PUSH32 0x6F776E6572000000000000000000000000000000000000000000000000000000 PUSH1 0x64 DUP3 ADD MSTORE PUSH1 0x84 ADD PUSH2 0xA7C JUMP JUMPDEST PUSH20 0xFFFFFFFFFFFFFFFFFFFFFFFFFFFFFFFFFFFFFFFF DUP3 AND PUSH2 0x55C4 JUMPI PUSH1 0x40 MLOAD PUSH32 0x8C379A000000000000000000000000000000000000000000000000000000000 DUP2 MSTORE PUSH1 0x20 PUSH1 0x4 DUP3 ADD MSTORE PUSH1 0x24 DUP1 DUP3 ADD MSTORE PUSH32 0x4552433732313A207472616E7366657220746F20746865207A65726F20616464 PUSH1 0x44 DUP3 ADD MSTORE PUSH32 0x7265737300000000000000000000000000000000000000000000000000000000 PUSH1 0x64 DUP3 ADD MSTORE PUSH1 0x84 ADD PUSH2 0xA7C JUMP JUMPDEST PUSH2 0x55CF DUP4 DUP4 DUP4 PUSH2 0x64E7 JUMP JUMPDEST PUSH2 0x55DA PUSH1 0x0 DUP3 PUSH2 0x5253 JUMP JUMPDEST PUSH20 0xFFFFFFFFFFFFFFFFFFFFFFFFFFFFFFFFFFFFFFFF DUP4 AND PUSH1 0x0 SWAP1 DUP2 MSTORE PUSH1 0x3 PUSH1 0x20 MSTORE PUSH1 0x40 DUP2 KECCAK256 DUP1 SLOAD PUSH1 0x1 SWAP3 SWAP1 PUSH2 0x5610 SWAP1 DUP5 SWAP1 PUSH2 0x7795 JUMP JUMPDEST SWAP1 SWAP2 SSTORE POP POP PUSH20 0xFFFFFFFFFFFFFFFFFFFFFFFFFFFFFFFFFFFFFFFF DUP3 AND PUSH1 0x0 SWAP1 DUP2 MSTORE PUSH1 0x3 PUSH1 0x20 MSTORE PUSH1 0x40 DUP2 KECCAK256 DUP1 SLOAD PUSH1 0x1 SWAP3 SWAP1 PUSH2 0x564B SWAP1 DUP5 SWAP1 PUSH2 0x7707 JUMP JUMPDEST SWAP1 SWAP2 SSTORE POP POP PUSH1 0x0 DUP2 DUP2 MSTORE PUSH1 0x2 PUSH1 0x20 MSTORE PUSH1 0x40 DUP1 DUP3 KECCAK256 DUP1 SLOAD PUSH32 0xFFFFFFFFFFFFFFFFFFFFFFFF0000000000000000000000000000000000000000 AND PUSH20 0xFFFFFFFFFFFFFFFFFFFFFFFFFFFFFFFFFFFFFFFF DUP7 DUP2 AND SWAP2 DUP3 OR SWAP1 SWAP3 SSTORE SWAP2 MLOAD DUP5 SWAP4 SWAP2 DUP8 AND SWAP2 PUSH32 0xDDF252AD1BE2C89B69C2B068FC378DAA952BA7F163C4A11628F55A4DF523B3EF SWAP2 LOG4 POP POP POP JUMP JUMPDEST PUSH1 0x22 DUP1 SLOAD PUSH1 0x0 SWAP2 DUP2 SWAP1 DUP4 PUSH2 0x56E4 DUP4 PUSH2 0x7826 JUMP JUMPDEST SWAP1 SWAP2 SSTORE POP POP PUSH1 0x18 SLOAD PUSH1 0x40 MLOAD PUSH32 0x4A0E2AA100000000000000000000000000000000000000000000000000000000 DUP2 MSTORE CALLER PUSH1 0x4 DUP3 ADD MSTORE PUSH1 0x24 DUP2 ADD DUP9 SWAP1 MSTORE PUSH1 0x44 DUP2 ADD DUP7 SWAP1 MSTORE PUSH1 0x64 DUP2 ADD DUP6 SWAP1 MSTORE PUSH1 0x0 SWAP2 PUSH20 0xFFFFFFFFFFFFFFFFFFFFFFFFFFFFFFFFFFFFFFFF AND SWAP1 PUSH4 0x4A0E2AA1 SWAP1 PUSH1 0x84 ADD PUSH1 0x20 PUSH1 0x40 MLOAD DUP1 DUP4 SUB DUP2 PUSH1 0x0 DUP8 DUP1 EXTCODESIZE ISZERO DUP1 ISZERO PUSH2 0x576A JUMPI PUSH1 0x0 DUP1 REVERT JUMPDEST POP GAS CALL ISZERO DUP1 ISZERO PUSH2 0x577E JUMPI RETURNDATASIZE PUSH1 0x0 DUP1 RETURNDATACOPY RETURNDATASIZE PUSH1 0x0 REVERT JUMPDEST POP POP POP POP PUSH1 0x40 MLOAD RETURNDATASIZE PUSH1 0x1F NOT PUSH1 0x1F DUP3 ADD AND DUP3 ADD DUP1 PUSH1 0x40 MSTORE POP DUP2 ADD SWAP1 PUSH2 0x57A2 SWAP2 SWAP1 PUSH2 0x73E5 JUMP JUMPDEST PUSH1 0x40 DUP1 MLOAD PUSH1 0xA0 DUP2 ADD DUP3 MSTORE PUSH20 0xFFFFFFFFFFFFFFFFFFFFFFFFFFFFFFFFFFFFFFFF DUP14 DUP2 AND DUP3 MSTORE PUSH1 0x20 DUP1 DUP4 ADD DUP15 DUP2 MSTORE DUP4 DUP6 ADD DUP15 SWAP1 MSTORE DUP12 DUP4 AND PUSH1 0x60 DUP6 ADD MSTORE PUSH1 0x80 DUP5 ADD DUP7 SWAP1 MSTORE PUSH1 0x0 DUP9 DUP2 MSTORE PUSH1 0x1D DUP4 MSTORE SWAP5 SWAP1 SWAP5 KECCAK256 DUP4 MLOAD DUP2 SLOAD PUSH32 0xFFFFFFFFFFFFFFFFFFFFFFFF0000000000000000000000000000000000000000 AND SWAP4 AND SWAP3 SWAP1 SWAP3 OR DUP3 SSTORE SWAP3 MLOAD DUP1 MLOAD SWAP5 SWAP6 POP SWAP2 SWAP4 SWAP1 SWAP3 PUSH2 0x583A SWAP3 PUSH1 0x1 DUP6 ADD SWAP3 SWAP2 ADD SWAP1 PUSH2 0x6DCE JUMP JUMPDEST POP PUSH1 0x40 DUP3 ADD MLOAD DUP1 MLOAD PUSH2 0x5856 SWAP2 PUSH1 0x2 DUP5 ADD SWAP2 PUSH1 0x20 SWAP1 SWAP2 ADD SWAP1 PUSH2 0x6DCE JUMP JUMPDEST POP PUSH1 0x60 DUP3 ADD MLOAD PUSH1 0x3 DUP3 ADD DUP1 SLOAD PUSH32 0xFFFFFFFFFFFFFFFFFFFFFFFF0000000000000000000000000000000000000000 AND PUSH20 0xFFFFFFFFFFFFFFFFFFFFFFFFFFFFFFFFFFFFFFFF SWAP1 SWAP3 AND SWAP2 SWAP1 SWAP2 OR SWAP1 SSTORE PUSH1 0x80 SWAP1 SWAP2 ADD MLOAD PUSH1 0x4 SWAP1 SWAP2 ADD SSTORE SWAP10 SWAP9 POP POP POP POP POP POP POP POP POP JUMP JUMPDEST PUSH2 0x2FBA DUP3 DUP3 PUSH1 0x40 MLOAD DUP1 PUSH1 0x20 ADD PUSH1 0x40 MSTORE DUP1 PUSH1 0x0 DUP2 MSTORE POP PUSH2 0x65ED JUMP JUMPDEST PUSH1 0x23 DUP1 SLOAD PUSH1 0x0 SWAP2 PUSH21 0x10000000000000000000000000000000000000000 SWAP1 SWAP2 DIV PUSH8 0xFFFFFFFFFFFFFFFF AND SWAP1 DUP2 SWAP1 PUSH1 0x14 PUSH2 0x590D DUP4 PUSH2 0x785F JUMP JUMPDEST DUP3 SLOAD PUSH2 0x100 SWAP3 SWAP1 SWAP3 EXP PUSH8 0xFFFFFFFFFFFFFFFF DUP2 DUP2 MUL NOT SWAP1 SWAP4 AND SWAP2 DUP4 AND MUL OR SWAP1 SWAP2 SSTORE PUSH1 0x40 DUP1 MLOAD PUSH1 0xC0 DUP2 ADD DUP3 MSTORE PUSH1 0x0 DUP1 DUP3 MSTORE PUSH1 0x20 DUP1 DUP4 ADD DUP8 DUP2 MSTORE DUP4 DUP6 ADD DUP4 DUP2 MSTORE PUSH32 0xB7634EC2165A7280A285AAC3EC10CF370ECA86D8AA9D3243C90B2151434091AD DUP1 SLOAD DUP9 AND PUSH1 0x60 DUP8 ADD SWAP1 DUP2 MSTORE PUSH1 0x80 DUP8 ADD DUP7 DUP2 MSTORE CALLER PUSH1 0xA0 DUP10 ADD SWAP1 DUP2 MSTORE DUP13 DUP9 MSTORE PUSH1 0x28 DUP8 MSTORE SWAP9 DUP8 KECCAK256 SWAP8 MLOAD DUP9 SLOAD PUSH32 0xFFFFFFFFFFFFFFFFFFFFFFFFFFFFFFFFFFFFFFFFFFFFFFFFFFFFFFFFFFFFFF00 AND PUSH1 0xFF SWAP1 SWAP2 AND OR DUP9 SSTORE SWAP4 MLOAD PUSH1 0x1 DUP9 ADD SSTORE SWAP2 MLOAD PUSH1 0x2 DUP8 ADD SSTORE SWAP1 MLOAD PUSH1 0x3 DUP7 ADD DUP1 SLOAD SWAP4 MLOAD SWAP2 DUP10 AND PUSH32 0xFFFFFFFFFFFFFFFFFFFFFFFFFFFFFFFF00000000000000000000000000000000 SWAP1 SWAP5 AND SWAP4 SWAP1 SWAP4 OR PUSH9 0x10000000000000000 SWAP2 DUP10 AND SWAP2 SWAP1 SWAP2 MUL OR SWAP1 SWAP2 SSTORE SWAP4 MLOAD PUSH1 0x4 SWAP1 SWAP4 ADD DUP1 SLOAD PUSH32 0xFFFFFFFFFFFFFFFFFFFFFFFF0000000000000000000000000000000000000000 AND PUSH20 0xFFFFFFFFFFFFFFFFFFFFFFFFFFFFFFFFFFFFFFFF SWAP1 SWAP5 AND SWAP4 SWAP1 SWAP4 OR SWAP1 SWAP3 SSTORE DUP1 DUP1 MSTORE PUSH1 0x24 SWAP1 SWAP2 MSTORE DUP2 SLOAD SWAP1 SWAP3 AND SWAP3 POP SWAP1 PUSH2 0x5A79 DUP4 PUSH2 0x785F JUMP JUMPDEST SWAP2 SWAP1 PUSH2 0x100 EXP DUP2 SLOAD DUP2 PUSH8 0xFFFFFFFFFFFFFFFF MUL NOT AND SWAP1 DUP4 PUSH8 0xFFFFFFFFFFFFFFFF AND MUL OR SWAP1 SSTORE POP POP PUSH2 0x5AAA DUP4 DUP3 PUSH2 0x58BB JUMP JUMPDEST PUSH1 0x40 DUP1 MLOAD DUP3 DUP2 MSTORE CALLER PUSH1 0x20 DUP3 ADD MSTORE PUSH32 0xB31D8E8FA42B269769F65CB3FBEE94D28EFB43A3A870E2417A6AEF591601A9F8 SWAP2 ADD PUSH1 0x40 MLOAD DUP1 SWAP2 SUB SWAP1 LOG1 SWAP3 SWAP2 POP POP JUMP JUMPDEST PUSH1 0x0 DUP2 DUP2 MSTORE PUSH1 0xE PUSH1 0x20 SWAP1 DUP2 MSTORE PUSH1 0x40 DUP1 DUP4 KECCAK256 PUSH1 0x3 ADD SLOAD PUSH1 0x13 DUP4 MSTORE DUP2 DUP5 KECCAK256 SLOAD PUSH1 0x12 SWAP1 SWAP4 MSTORE SWAP1 DUP4 KECCAK256 SLOAD SWAP1 SWAP2 SWAP1 PUSH2 0x5B1E SWAP1 PUSH3 0x186A0 PUSH2 0x7758 JUMP JUMPDEST PUSH2 0x5B28 SWAP2 SWAP1 PUSH2 0x7744 JUMP JUMPDEST LT ISZERO SWAP3 SWAP2 POP POP JUMP JUMPDEST PUSH1 0x1E DUP1 SLOAD PUSH1 0x0 SWAP2 DUP2 SWAP1 DUP4 PUSH2 0x5B43 DUP4 PUSH2 0x7826 JUMP JUMPDEST SWAP1 SWAP2 SSTORE POP POP PUSH1 0x18 SLOAD PUSH1 0x40 MLOAD PUSH32 0x4A0E2AA100000000000000000000000000000000000000000000000000000000 DUP2 MSTORE CALLER PUSH1 0x4 DUP3 ADD MSTORE PUSH1 0x24 DUP2 ADD DUP9 SWAP1 MSTORE PUSH1 0x44 DUP2 ADD DUP7 SWAP1 MSTORE PUSH1 0x64 DUP2 ADD DUP6 SWAP1 MSTORE PUSH1 0x0 SWAP2 PUSH20 0xFFFFFFFFFFFFFFFFFFFFFFFFFFFFFFFFFFFFFFFF AND SWAP1 PUSH4 0x4A0E2AA1 SWAP1 PUSH1 0x84 ADD PUSH1 0x20 PUSH1 0x40 MLOAD DUP1 DUP4 SUB DUP2 PUSH1 0x0 DUP8 DUP1 EXTCODESIZE ISZERO DUP1 ISZERO PUSH2 0x5BC9 JUMPI PUSH1 0x0 DUP1 REVERT JUMPDEST POP GAS CALL ISZERO DUP1 ISZERO PUSH2 0x5BDD JUMPI RETURNDATASIZE PUSH1 0x0 DUP1 RETURNDATACOPY RETURNDATASIZE PUSH1 0x0 REVERT JUMPDEST POP POP POP POP PUSH1 0x40 MLOAD RETURNDATASIZE PUSH1 0x1F NOT PUSH1 0x1F DUP3 ADD AND DUP3 ADD DUP1 PUSH1 0x40 MSTORE POP DUP2 ADD SWAP1 PUSH2 0x5C01 SWAP2 SWAP1 PUSH2 0x73E5 JUMP JUMPDEST PUSH1 0x40 DUP1 MLOAD PUSH1 0x60 DUP2 ADD DUP3 MSTORE DUP11 DUP2 MSTORE PUSH20 0xFFFFFFFFFFFFFFFFFFFFFFFFFFFFFFFFFFFFFFFF DUP10 DUP2 AND PUSH1 0x20 DUP1 DUP5 ADD SWAP2 DUP3 MSTORE DUP4 DUP6 ADD DUP7 DUP2 MSTORE PUSH1 0x0 DUP10 DUP2 MSTORE PUSH1 0x19 DUP4 MSTORE DUP7 SWAP1 KECCAK256 SWAP5 MLOAD DUP6 SSTORE SWAP2 MLOAD PUSH1 0x1 DUP6 ADD DUP1 SLOAD PUSH32 0xFFFFFFFFFFFFFFFFFFFFFFFF0000000000000000000000000000000000000000 AND SWAP2 SWAP1 SWAP5 AND OR SWAP1 SWAP3 SSTORE MLOAD PUSH1 0x2 SWAP1 SWAP3 ADD SWAP2 SWAP1 SWAP2 SSTORE DUP2 MLOAD DUP12 DUP2 MSTORE SWAP1 DUP2 ADD DUP6 SWAP1 MSTORE SWAP2 SWAP3 POP PUSH32 0x5BD988AF35B5D201645E02C3E7C48D1829B4D37CC8A45258EAF0719B1DE6D395 SWAP2 ADD PUSH1 0x40 MLOAD DUP1 SWAP2 SUB SWAP1 LOG1 SWAP8 SWAP7 POP POP POP POP POP POP POP JUMP JUMPDEST PUSH1 0x21 DUP1 SLOAD PUSH1 0x0 SWAP2 DUP2 SWAP1 DUP4 PUSH2 0x5CD7 DUP4 PUSH2 0x7826 JUMP JUMPDEST SWAP1 SWAP2 SSTORE POP POP PUSH1 0x18 SLOAD PUSH1 0x40 MLOAD PUSH32 0x4A0E2AA100000000000000000000000000000000000000000000000000000000 DUP2 MSTORE CALLER PUSH1 0x4 DUP3 ADD MSTORE PUSH1 0x24 DUP2 ADD DUP9 SWAP1 MSTORE PUSH1 0x44 DUP2 ADD DUP7 SWAP1 MSTORE PUSH1 0x64 DUP2 ADD DUP6 SWAP1 MSTORE PUSH1 0x0 SWAP2 PUSH20 0xFFFFFFFFFFFFFFFFFFFFFFFFFFFFFFFFFFFFFFFF AND SWAP1 PUSH4 0x4A0E2AA1 SWAP1 PUSH1 0x84 ADD PUSH1 0x20 PUSH1 0x40 MLOAD DUP1 DUP4 SUB DUP2 PUSH1 0x0 DUP8 DUP1 EXTCODESIZE ISZERO DUP1 ISZERO PUSH2 0x5D5D JUMPI PUSH1 0x0 DUP1 REVERT JUMPDEST POP GAS CALL ISZERO DUP1 ISZERO PUSH2 0x5D71 JUMPI RETURNDATASIZE PUSH1 0x0 DUP1 RETURNDATACOPY RETURNDATASIZE PUSH1 0x0 REVERT JUMPDEST POP POP POP POP PUSH1 0x40 MLOAD RETURNDATASIZE PUSH1 0x1F NOT PUSH1 0x1F DUP3 ADD AND DUP3 ADD DUP1 PUSH1 0x40 MSTORE POP DUP2 ADD SWAP1 PUSH2 0x5D95 SWAP2 SWAP1 PUSH2 0x73E5 JUMP JUMPDEST PUSH1 0x40 DUP1 MLOAD PUSH1 0xA0 DUP2 ADD DUP3 MSTORE PUSH20 0xFFFFFFFFFFFFFFFFFFFFFFFFFFFFFFFFFFFFFFFF SWAP13 DUP14 AND DUP2 MSTORE PUSH1 0x20 DUP1 DUP3 ADD SWAP13 DUP14 MSTORE DUP2 DUP4 ADD SWAP12 DUP13 MSTORE SWAP9 DUP14 AND PUSH1 0x60 DUP3 ADD SWAP1 DUP2 MSTORE PUSH1 0x80 DUP3 ADD DUP5 DUP2 MSTORE PUSH1 0x0 SWAP7 DUP8 MSTORE PUSH1 0x1C SWAP1 SWAP11 MSTORE SWAP2 SWAP1 SWAP5 KECCAK256 SWAP4 MLOAD DUP5 SLOAD SWAP1 DUP14 AND PUSH32 0xFFFFFFFFFFFFFFFFFFFFFFFF0000000000000000000000000000000000000000 SWAP2 DUP3 AND OR DUP6 SSTORE SWAP11 MLOAD PUSH1 0x1 DUP6 ADD SSTORE SWAP9 MLOAD PUSH1 0x2 DUP5 ADD SSTORE SWAP8 MLOAD PUSH1 0x3 DUP4 ADD DUP1 SLOAD SWAP2 SWAP1 SWAP12 AND SWAP10 AND SWAP9 SWAP1 SWAP9 OR SWAP1 SWAP9 SSTORE POP POP SWAP1 MLOAD PUSH1 0x4 SWAP1 SWAP6 ADD SWAP5 SWAP1 SWAP5 SSTORE POP SWAP3 SWAP2 POP POP JUMP JUMPDEST DUP2 PUSH20 0xFFFFFFFFFFFFFFFFFFFFFFFFFFFFFFFFFFFFFFFF AND DUP4 PUSH20 0xFFFFFFFFFFFFFFFFFFFFFFFFFFFFFFFFFFFFFFFF AND EQ ISZERO PUSH2 0x5EE1 JUMPI PUSH1 0x40 MLOAD PUSH32 0x8C379A000000000000000000000000000000000000000000000000000000000 DUP2 MSTORE PUSH1 0x20 PUSH1 0x4 DUP3 ADD MSTORE PUSH1 0x19 PUSH1 0x24 DUP3 ADD MSTORE PUSH32 0x4552433732313A20617070726F766520746F2063616C6C657200000000000000 PUSH1 0x44 DUP3 ADD MSTORE PUSH1 0x64 ADD PUSH2 0xA7C JUMP JUMPDEST PUSH20 0xFFFFFFFFFFFFFFFFFFFFFFFFFFFFFFFFFFFFFFFF DUP4 DUP2 AND PUSH1 0x0 DUP2 DUP2 MSTORE PUSH1 0x5 PUSH1 0x20 SWAP1 DUP2 MSTORE PUSH1 0x40 DUP1 DUP4 KECCAK256 SWAP5 DUP8 AND DUP1 DUP5 MSTORE SWAP5 DUP3 MSTORE SWAP2 DUP3 SWAP1 KECCAK256 DUP1 SLOAD PUSH32 0xFFFFFFFFFFFFFFFFFFFFFFFFFFFFFFFFFFFFFFFFFFFFFFFFFFFFFFFFFFFFFF00 AND DUP7 ISZERO ISZERO SWAP1 DUP2 OR SWAP1 SWAP2 SSTORE SWAP2 MLOAD SWAP2 DUP3 MSTORE PUSH32 0x17307EAB39AB6107E8899845AD3D59BD9653F200F220920489CA2B5937696C31 SWAP2 ADD PUSH1 0x40 MLOAD DUP1 SWAP2 SUB SWAP1 LOG3 POP POP POP JUMP JUMPDEST PUSH2 0x5F84 DUP5 DUP5 DUP5 PUSH2 0x545F JUMP JUMPDEST PUSH2 0x5F90 DUP5 DUP5 DUP5 DUP5 PUSH2 0x6690 JUMP JUMPDEST PUSH2 0x39F4 JUMPI PUSH1 0x40 MLOAD PUSH32 0x8C379A000000000000000000000000000000000000000000000000000000000 DUP2 MSTORE PUSH1 0x20 PUSH1 0x4 DUP3 ADD MSTORE PUSH1 0x32 PUSH1 0x24 DUP3 ADD MSTORE PUSH32 0x4552433732313A207472616E7366657220746F206E6F6E204552433732315265 PUSH1 0x44 DUP3 ADD MSTORE PUSH32 0x63656976657220696D706C656D656E7465720000000000000000000000000000 PUSH1 0x64 DUP3 ADD MSTORE PUSH1 0x84 ADD PUSH2 0xA7C JUMP JUMPDEST PUSH1 0x60 PUSH1 0x2A DUP1 SLOAD PUSH2 0x94C SWAP1 PUSH2 0x77D8 JUMP JUMPDEST PUSH1 0x60 DUP2 PUSH2 0x606B JUMPI POP POP PUSH1 0x40 DUP1 MLOAD DUP1 DUP3 ADD SWAP1 SWAP2 MSTORE PUSH1 0x1 DUP2 MSTORE PUSH32 0x3000000000000000000000000000000000000000000000000000000000000000 PUSH1 0x20 DUP3 ADD MSTORE SWAP1 JUMP JUMPDEST DUP2 PUSH1 0x0 JUMPDEST DUP2 ISZERO PUSH2 0x6095 JUMPI DUP1 PUSH2 0x607F DUP2 PUSH2 0x7826 JUMP JUMPDEST SWAP2 POP PUSH2 0x608E SWAP1 POP PUSH1 0xA DUP4 PUSH2 0x7744 JUMP JUMPDEST SWAP2 POP PUSH2 0x606F JUMP JUMPDEST PUSH1 0x0 DUP2 PUSH8 0xFFFFFFFFFFFFFFFF DUP2 GT ISZERO PUSH2 0x60B0 JUMPI PUSH2 0x60B0 PUSH2 0x79A6 JUMP JUMPDEST PUSH1 0x40 MLOAD SWAP1 DUP1 DUP3 MSTORE DUP1 PUSH1 0x1F ADD PUSH1 0x1F NOT AND PUSH1 0x20 ADD DUP3 ADD PUSH1 0x40 MSTORE DUP1 ISZERO PUSH2 0x60DA JUMPI PUSH1 0x20 DUP3 ADD DUP2 DUP1 CALLDATASIZE DUP4 CALLDATACOPY ADD SWAP1 POP JUMPDEST POP SWAP1 POP JUMPDEST DUP5 ISZERO PUSH2 0xCEC JUMPI PUSH2 0x60EF PUSH1 0x1 DUP4 PUSH2 0x7795 JUMP JUMPDEST SWAP2 POP PUSH2 0x60FC PUSH1 0xA DUP7 PUSH2 0x78A7 JUMP JUMPDEST PUSH2 0x6107 SWAP1 PUSH1 0x30 PUSH2 0x7707 JUMP JUMPDEST PUSH1 0xF8 SHL DUP2 DUP4 DUP2 MLOAD DUP2 LT PUSH2 0x611C JUMPI PUSH2 0x611C PUSH2 0x7977 JUMP JUMPDEST PUSH1 0x20 ADD ADD SWAP1 PUSH31 0xFFFFFFFFFFFFFFFFFFFFFFFFFFFFFFFFFFFFFFFFFFFFFFFFFFFFFFFFFFFFFF NOT AND SWAP1 DUP2 PUSH1 0x0 BYTE SWAP1 MSTORE8 POP PUSH2 0x6156 PUSH1 0xA DUP7 PUSH2 0x7744 JUMP JUMPDEST SWAP5 POP PUSH2 0x60DE JUMP JUMPDEST PUSH1 0x20 DUP1 SLOAD PUSH1 0x0 SWAP2 DUP2 SWAP1 DUP4 PUSH2 0x6170 DUP4 PUSH2 0x7826 JUMP JUMPDEST SWAP1 SWAP2 SSTORE POP POP PUSH1 0x18 SLOAD PUSH1 0x40 MLOAD PUSH32 0x4A0E2AA100000000000000000000000000000000000000000000000000000000 DUP2 MSTORE CALLER PUSH1 0x4 DUP3 ADD MSTORE PUSH1 0x24 DUP2 ADD DUP9 SWAP1 MSTORE PUSH1 0x44 DUP2 ADD DUP7 SWAP1 MSTORE PUSH1 0x64 DUP2 ADD DUP6 SWAP1 MSTORE PUSH1 0x0 SWAP2 PUSH20 0xFFFFFFFFFFFFFFFFFFFFFFFFFFFFFFFFFFFFFFFF AND SWAP1 PUSH4 0x4A0E2AA1 SWAP1 PUSH1 0x84 ADD PUSH1 0x20 PUSH1 0x40 MLOAD DUP1 DUP4 SUB DUP2 PUSH1 0x0 DUP8 DUP1 EXTCODESIZE ISZERO DUP1 ISZERO PUSH2 0x61F6 JUMPI PUSH1 0x0 DUP1 REVERT JUMPDEST POP GAS CALL ISZERO DUP1 ISZERO PUSH2 0x620A JUMPI RETURNDATASIZE PUSH1 0x0 DUP1 RETURNDATACOPY RETURNDATASIZE PUSH1 0x0 REVERT JUMPDEST POP POP POP POP PUSH1 0x40 MLOAD RETURNDATASIZE PUSH1 0x1F NOT PUSH1 0x1F DUP3 ADD AND DUP3 ADD DUP1 PUSH1 0x40 MSTORE POP DUP2 ADD SWAP1 PUSH2 0x622E SWAP2 SWAP1 PUSH2 0x73E5 JUMP JUMPDEST PUSH1 0x40 DUP1 MLOAD PUSH1 0x80 DUP2 ADD DUP3 MSTORE PUSH20 0xFFFFFFFFFFFFFFFFFFFFFFFFFFFFFFFFFFFFFFFF SWAP12 DUP13 AND DUP2 MSTORE PUSH1 0x20 DUP1 DUP3 ADD SWAP12 DUP13 MSTORE SWAP9 DUP13 AND DUP2 DUP4 ADD SWAP1 DUP2 MSTORE PUSH1 0x60 DUP3 ADD DUP5 DUP2 MSTORE PUSH1 0x0 SWAP7 DUP8 MSTORE PUSH1 0x1B SWAP1 SWAP11 MSTORE SWAP2 SWAP1 SWAP5 KECCAK256 SWAP4 MLOAD DUP5 SLOAD SWAP1 DUP13 AND PUSH32 0xFFFFFFFFFFFFFFFFFFFFFFFF0000000000000000000000000000000000000000 SWAP2 DUP3 AND OR DUP6 SSTORE SWAP10 MLOAD PUSH1 0x1 DUP6 ADD SSTORE MLOAD PUSH1 0x2 DUP5 ADD DUP1 SLOAD SWAP2 SWAP1 SWAP12 AND SWAP10 AND SWAP9 SWAP1 SWAP9 OR SWAP1 SWAP9 SSTORE SWAP4 MLOAD PUSH1 0x3 SWAP1 SWAP5 ADD SWAP4 SWAP1 SWAP4 SSTORE POP SWAP3 SWAP5 SWAP4 POP POP POP POP JUMP JUMPDEST PUSH1 0x1F DUP1 SLOAD PUSH1 0x0 SWAP2 DUP2 SWAP1 DUP4 PUSH2 0x62E9 DUP4 PUSH2 0x7826 JUMP JUMPDEST SWAP1 SWAP2 SSTORE POP POP PUSH1 0x18 SLOAD PUSH1 0x40 MLOAD PUSH32 0x4A0E2AA100000000000000000000000000000000000000000000000000000000 DUP2 MSTORE CALLER PUSH1 0x4 DUP3 ADD MSTORE PUSH1 0x24 DUP2 ADD DUP9 SWAP1 MSTORE PUSH1 0x44 DUP2 ADD DUP7 SWAP1 MSTORE PUSH1 0x64 DUP2 ADD DUP6 SWAP1 MSTORE PUSH1 0x0 SWAP2 PUSH20 0xFFFFFFFFFFFFFFFFFFFFFFFFFFFFFFFFFFFFFFFF AND SWAP1 PUSH4 0x4A0E2AA1 SWAP1 PUSH1 0x84 ADD PUSH1 0x20 PUSH1 0x40 MLOAD DUP1 DUP4 SUB DUP2 PUSH1 0x0 DUP8 DUP1 EXTCODESIZE ISZERO DUP1 ISZERO PUSH2 0x636F JUMPI PUSH1 0x0 DUP1 REVERT JUMPDEST POP GAS CALL ISZERO DUP1 ISZERO PUSH2 0x6383 JUMPI RETURNDATASIZE PUSH1 0x0 DUP1 RETURNDATACOPY RETURNDATASIZE PUSH1 0x0 REVERT JUMPDEST POP POP POP POP PUSH1 0x40 MLOAD RETURNDATASIZE PUSH1 0x1F NOT PUSH1 0x1F DUP3 ADD AND DUP3 ADD DUP1 PUSH1 0x40 MSTORE POP DUP2 ADD SWAP1 PUSH2 0x63A7 SWAP2 SWAP1 PUSH2 0x73E5 JUMP JUMPDEST PUSH1 0x40 DUP1 MLOAD PUSH1 0x80 DUP2 ADD DUP3 MSTORE PUSH20 0xFFFFFFFFFFFFFFFFFFFFFFFFFFFFFFFFFFFFFFFF DUP13 DUP2 AND DUP1 DUP4 MSTORE PUSH1 0x20 DUP1 DUP5 ADD DUP15 DUP2 MSTORE DUP13 DUP5 AND DUP6 DUP8 ADD SWAP1 DUP2 MSTORE PUSH1 0x60 DUP1 DUP8 ADD DUP10 DUP2 MSTORE PUSH1 0x0 DUP13 DUP2 MSTORE PUSH1 0x1A DUP7 MSTORE DUP10 SWAP1 KECCAK256 SWAP8 MLOAD DUP9 SLOAD SWAP1 DUP9 AND PUSH32 0xFFFFFFFFFFFFFFFFFFFFFFFF0000000000000000000000000000000000000000 SWAP2 DUP3 AND OR DUP10 SSTORE SWAP4 MLOAD PUSH1 0x1 DUP10 ADD SSTORE SWAP2 MLOAD PUSH1 0x2 DUP9 ADD DUP1 SLOAD SWAP2 SWAP1 SWAP8 AND SWAP4 AND SWAP3 SWAP1 SWAP3 OR SWAP1 SWAP5 SSTORE SWAP3 MLOAD PUSH1 0x3 SWAP1 SWAP5 ADD SWAP4 SWAP1 SWAP4 SSTORE DUP4 MLOAD SWAP1 DUP2 MSTORE SWAP2 DUP3 ADD DUP13 SWAP1 MSTORE SWAP2 DUP2 ADD DUP6 SWAP1 MSTORE SWAP2 SWAP3 POP PUSH32 0x910585F63ACC02D6018F09A37FBAABC1337981145D31B4EC43B8D459E8CE67BA SWAP2 ADD PUSH1 0x40 MLOAD DUP1 SWAP2 SUB SWAP1 LOG1 SWAP9 SWAP8 POP POP POP POP POP POP POP POP JUMP JUMPDEST PUSH1 0x0 PUSH32 0xFFFFFFFF00000000000000000000000000000000000000000000000000000000 DUP3 AND PUSH32 0x4E2312E000000000000000000000000000000000000000000000000000000000 EQ DUP1 PUSH2 0x937 JUMPI POP PUSH2 0x937 DUP3 PUSH2 0x688C JUMP JUMPDEST PUSH20 0xFFFFFFFFFFFFFFFFFFFFFFFFFFFFFFFFFFFFFFFF DUP4 AND PUSH2 0x654F JUMPI PUSH2 0x654A DUP2 PUSH1 0x8 DUP1 SLOAD PUSH1 0x0 DUP4 DUP2 MSTORE PUSH1 0x9 PUSH1 0x20 MSTORE PUSH1 0x40 DUP2 KECCAK256 DUP3 SWAP1 SSTORE PUSH1 0x1 DUP3 ADD DUP4 SSTORE SWAP2 SWAP1 SWAP2 MSTORE PUSH32 0xF3F7A9FE364FAAB93B216DA50A3214154F22A0A2B415B23A84C8169E8B636EE3 ADD SSTORE JUMP JUMPDEST PUSH2 0x658C JUMP JUMPDEST DUP2 PUSH20 0xFFFFFFFFFFFFFFFFFFFFFFFFFFFFFFFFFFFFFFFF AND DUP4 PUSH20 0xFFFFFFFFFFFFFFFFFFFFFFFFFFFFFFFFFFFFFFFF AND EQ PUSH2 0x658C JUMPI PUSH2 0x658C DUP4 DUP3 PUSH2 0x68E2 JUMP JUMPDEST PUSH20 0xFFFFFFFFFFFFFFFFFFFFFFFFFFFFFFFFFFFFFFFF DUP3 AND PUSH2 0x65B0 JUMPI PUSH2 0xC36 DUP2 PUSH2 0x6999 JUMP JUMPDEST DUP3 PUSH20 0xFFFFFFFFFFFFFFFFFFFFFFFFFFFFFFFFFFFFFFFF AND DUP3 PUSH20 0xFFFFFFFFFFFFFFFFFFFFFFFFFFFFFFFFFFFFFFFF AND EQ PUSH2 0xC36 JUMPI PUSH2 0xC36 DUP3 DUP3 PUSH2 0x6A48 JUMP JUMPDEST PUSH2 0x65F7 DUP4 DUP4 PUSH2 0x6A99 JUMP JUMPDEST PUSH2 0x6604 PUSH1 0x0 DUP5 DUP5 DUP5 PUSH2 0x6690 JUMP JUMPDEST PUSH2 0xC36 JUMPI PUSH1 0x40 MLOAD PUSH32 0x8C379A000000000000000000000000000000000000000000000000000000000 DUP2 MSTORE PUSH1 0x20 PUSH1 0x4 DUP3 ADD MSTORE PUSH1 0x32 PUSH1 0x24 DUP3 ADD MSTORE PUSH32 0x4552433732313A207472616E7366657220746F206E6F6E204552433732315265 PUSH1 0x44 DUP3 ADD MSTORE PUSH32 0x63656976657220696D706C656D656E7465720000000000000000000000000000 PUSH1 0x64 DUP3 ADD MSTORE PUSH1 0x84 ADD PUSH2 0xA7C JUMP JUMPDEST PUSH1 0x0 PUSH20 0xFFFFFFFFFFFFFFFFFFFFFFFFFFFFFFFFFFFFFFFF DUP5 AND EXTCODESIZE ISZERO PUSH2 0x6884 JUMPI PUSH1 0x40 MLOAD PUSH32 0x150B7A0200000000000000000000000000000000000000000000000000000000 DUP2 MSTORE PUSH20 0xFFFFFFFFFFFFFFFFFFFFFFFFFFFFFFFFFFFFFFFF DUP6 AND SWAP1 PUSH4 0x150B7A02 SWAP1 PUSH2 0x6707 SWAP1 CALLER SWAP1 DUP10 SWAP1 DUP9 SWAP1 DUP9 SWAP1 PUSH1 0x4 ADD PUSH2 0x7649 JUMP JUMPDEST PUSH1 0x20 PUSH1 0x40 MLOAD DUP1 DUP4 SUB DUP2 PUSH1 0x0 DUP8 DUP1 EXTCODESIZE ISZERO DUP1 ISZERO PUSH2 0x6721 JUMPI PUSH1 0x0 DUP1 REVERT JUMPDEST POP GAS CALL SWAP3 POP POP POP DUP1 ISZERO PUSH2 0x676F JUMPI POP PUSH1 0x40 DUP1 MLOAD PUSH1 0x1F RETURNDATASIZE SWAP1 DUP2 ADD PUSH32 0xFFFFFFFFFFFFFFFFFFFFFFFFFFFFFFFFFFFFFFFFFFFFFFFFFFFFFFFFFFFFFFE0 AND DUP3 ADD SWAP1 SWAP3 MSTORE PUSH2 0x676C SWAP2 DUP2 ADD SWAP1 PUSH2 0x7342 JUMP JUMPDEST PUSH1 0x1 JUMPDEST PUSH2 0x6839 JUMPI RETURNDATASIZE DUP1 DUP1 ISZERO PUSH2 0x679D JUMPI PUSH1 0x40 MLOAD SWAP2 POP PUSH1 0x1F NOT PUSH1 0x3F RETURNDATASIZE ADD AND DUP3 ADD PUSH1 0x40 MSTORE RETURNDATASIZE DUP3 MSTORE RETURNDATASIZE PUSH1 0x0 PUSH1 0x20 DUP5 ADD RETURNDATACOPY PUSH2 0x67A2 JUMP JUMPDEST PUSH1 0x60 SWAP2 POP JUMPDEST POP DUP1 MLOAD PUSH2 0x6831 JUMPI PUSH1 0x40 MLOAD PUSH32 0x8C379A000000000000000000000000000000000000000000000000000000000 DUP2 MSTORE PUSH1 0x20 PUSH1 0x4 DUP3 ADD MSTORE PUSH1 0x32 PUSH1 0x24 DUP3 ADD MSTORE PUSH32 0x4552433732313A207472616E7366657220746F206E6F6E204552433732315265 PUSH1 0x44 DUP3 ADD MSTORE PUSH32 0x63656976657220696D706C656D656E7465720000000000000000000000000000 PUSH1 0x64 DUP3 ADD MSTORE PUSH1 0x84 ADD PUSH2 0xA7C JUMP JUMPDEST DUP1 MLOAD DUP2 PUSH1 0x20 ADD REVERT JUMPDEST PUSH32 0xFFFFFFFF00000000000000000000000000000000000000000000000000000000 AND PUSH32 0x150B7A0200000000000000000000000000000000000000000000000000000000 EQ SWAP1 POP PUSH2 0xCEC JUMP JUMPDEST POP PUSH1 0x1 PUSH2 0xCEC JUMP JUMPDEST PUSH1 0x0 PUSH32 0xFFFFFFFF00000000000000000000000000000000000000000000000000000000 DUP3 AND PUSH32 0x780E9D6300000000000000000000000000000000000000000000000000000000 EQ DUP1 PUSH2 0x937 JUMPI POP PUSH2 0x937 DUP3 PUSH2 0x6C67 JUMP JUMPDEST PUSH1 0x0 PUSH1 0x1 PUSH2 0x68EF DUP5 PUSH2 0x2682 JUMP JUMPDEST PUSH2 0x68F9 SWAP2 SWAP1 PUSH2 0x7795 JUMP JUMPDEST PUSH1 0x0 DUP4 DUP2 MSTORE PUSH1 0x7 PUSH1 0x20 MSTORE PUSH1 0x40 SWAP1 KECCAK256 SLOAD SWAP1 SWAP2 POP DUP1 DUP3 EQ PUSH2 0x6959 JUMPI PUSH20 0xFFFFFFFFFFFFFFFFFFFFFFFFFFFFFFFFFFFFFFFF DUP5 AND PUSH1 0x0 SWAP1 DUP2 MSTORE PUSH1 0x6 PUSH1 0x20 SWAP1 DUP2 MSTORE PUSH1 0x40 DUP1 DUP4 KECCAK256 DUP6 DUP5 MSTORE DUP3 MSTORE DUP1 DUP4 KECCAK256 SLOAD DUP5 DUP5 MSTORE DUP2 DUP5 KECCAK256 DUP2 SWAP1 SSTORE DUP4 MSTORE PUSH1 0x7 SWAP1 SWAP2 MSTORE SWAP1 KECCAK256 DUP2 SWAP1 SSTORE JUMPDEST POP PUSH1 0x0 SWAP2 DUP3 MSTORE PUSH1 0x7 PUSH1 0x20 SWAP1 DUP2 MSTORE PUSH1 0x40 DUP1 DUP5 KECCAK256 DUP5 SWAP1 SSTORE PUSH20 0xFFFFFFFFFFFFFFFFFFFFFFFFFFFFFFFFFFFFFFFF SWAP1 SWAP5 AND DUP4 MSTORE PUSH1 0x6 DUP2 MSTORE DUP4 DUP4 KECCAK256 SWAP2 DUP4 MSTORE MSTORE SWAP1 DUP2 KECCAK256 SSTORE JUMP JUMPDEST PUSH1 0x8 SLOAD PUSH1 0x0 SWAP1 PUSH2 0x69AB SWAP1 PUSH1 0x1 SWAP1 PUSH2 0x7795 JUMP JUMPDEST PUSH1 0x0 DUP4 DUP2 MSTORE PUSH1 0x9 PUSH1 0x20 MSTORE PUSH1 0x40 DUP2 KECCAK256 SLOAD PUSH1 0x8 DUP1 SLOAD SWAP4 SWAP5 POP SWAP1 SWAP3 DUP5 SWAP1 DUP2 LT PUSH2 0x69D3 JUMPI PUSH2 0x69D3 PUSH2 0x7977 JUMP JUMPDEST SWAP1 PUSH1 0x0 MSTORE PUSH1 0x20 PUSH1 0x0 KECCAK256 ADD SLOAD SWAP1 POP DUP1 PUSH1 0x8 DUP4 DUP2 SLOAD DUP2 LT PUSH2 0x69F4 JUMPI PUSH2 0x69F4 PUSH2 0x7977 JUMP JUMPDEST PUSH1 0x0 SWAP2 DUP3 MSTORE PUSH1 0x20 DUP1 DUP4 KECCAK256 SWAP1 SWAP2 ADD SWAP3 SWAP1 SWAP3 SSTORE DUP3 DUP2 MSTORE PUSH1 0x9 SWAP1 SWAP2 MSTORE PUSH1 0x40 DUP1 DUP3 KECCAK256 DUP5 SWAP1 SSTORE DUP6 DUP3 MSTORE DUP2 KECCAK256 SSTORE PUSH1 0x8 DUP1 SLOAD DUP1 PUSH2 0x6A2C JUMPI PUSH2 0x6A2C PUSH2 0x7948 JUMP JUMPDEST PUSH1 0x1 SWAP1 SUB DUP2 DUP2 SWAP1 PUSH1 0x0 MSTORE PUSH1 0x20 PUSH1 0x0 KECCAK256 ADD PUSH1 0x0 SWAP1 SSTORE SWAP1 SSTORE POP POP POP POP JUMP JUMPDEST PUSH1 0x0 PUSH2 0x6A53 DUP4 PUSH2 0x2682 JUMP JUMPDEST PUSH20 0xFFFFFFFFFFFFFFFFFFFFFFFFFFFFFFFFFFFFFFFF SWAP1 SWAP4 AND PUSH1 0x0 SWAP1 DUP2 MSTORE PUSH1 0x6 PUSH1 0x20 SWAP1 DUP2 MSTORE PUSH1 0x40 DUP1 DUP4 KECCAK256 DUP7 DUP5 MSTORE DUP3 MSTORE DUP1 DUP4 KECCAK256 DUP6 SWAP1 SSTORE SWAP4 DUP3 MSTORE PUSH1 0x7 SWAP1 MSTORE SWAP2 SWAP1 SWAP2 KECCAK256 SWAP2 SWAP1 SWAP2 SSTORE POP JUMP JUMPDEST PUSH20 0xFFFFFFFFFFFFFFFFFFFFFFFFFFFFFFFFFFFFFFFF DUP3 AND PUSH2 0x6B16 JUMPI PUSH1 0x40 MLOAD PUSH32 0x8C379A000000000000000000000000000000000000000000000000000000000 DUP2 MSTORE PUSH1 0x20 PUSH1 0x4 DUP3 ADD DUP2 SWAP1 MSTORE PUSH1 0x24 DUP3 ADD MSTORE PUSH32 0x4552433732313A206D696E7420746F20746865207A65726F2061646472657373 PUSH1 0x44 DUP3 ADD MSTORE PUSH1 0x64 ADD PUSH2 0xA7C JUMP JUMPDEST PUSH1 0x0 DUP2 DUP2 MSTORE PUSH1 0x2 PUSH1 0x20 MSTORE PUSH1 0x40 SWAP1 KECCAK256 SLOAD PUSH20 0xFFFFFFFFFFFFFFFFFFFFFFFFFFFFFFFFFFFFFFFF AND ISZERO PUSH2 0x6BA2 JUMPI PUSH1 0x40 MLOAD PUSH32 0x8C379A000000000000000000000000000000000000000000000000000000000 DUP2 MSTORE PUSH1 0x20 PUSH1 0x4 DUP3 ADD MSTORE PUSH1 0x1C PUSH1 0x24 DUP3 ADD MSTORE PUSH32 0x4552433732313A20746F6B656E20616C7265616479206D696E74656400000000 PUSH1 0x44 DUP3 ADD MSTORE PUSH1 0x64 ADD PUSH2 0xA7C JUMP JUMPDEST PUSH2 0x6BAE PUSH1 0x0 DUP4 DUP4 PUSH2 0x64E7 JUMP JUMPDEST PUSH20 0xFFFFFFFFFFFFFFFFFFFFFFFFFFFFFFFFFFFFFFFF DUP3 AND PUSH1 0x0 SWAP1 DUP2 MSTORE PUSH1 0x3 PUSH1 0x20 MSTORE PUSH1 0x40 DUP2 KECCAK256 DUP1 SLOAD PUSH1 0x1 SWAP3 SWAP1 PUSH2 0x6BE4 SWAP1 DUP5 SWAP1 PUSH2 0x7707 JUMP JUMPDEST SWAP1 SWAP2 SSTORE POP POP PUSH1 0x0 DUP2 DUP2 MSTORE PUSH1 0x2 PUSH1 0x20 MSTORE PUSH1 0x40 DUP1 DUP3 KECCAK256 DUP1 SLOAD PUSH32 0xFFFFFFFFFFFFFFFFFFFFFFFF0000000000000000000000000000000000000000 AND PUSH20 0xFFFFFFFFFFFFFFFFFFFFFFFFFFFFFFFFFFFFFFFF DUP7 AND SWAP1 DUP2 OR SWAP1 SWAP2 SSTORE SWAP1 MLOAD DUP4 SWAP3 SWAP1 PUSH32 0xDDF252AD1BE2C89B69C2B068FC378DAA952BA7F163C4A11628F55A4DF523B3EF SWAP1 DUP3 SWAP1 LOG4 POP POP JUMP JUMPDEST PUSH1 0x0 PUSH32 0xFFFFFFFF00000000000000000000000000000000000000000000000000000000 DUP3 AND PUSH32 0x80AC58CD00000000000000000000000000000000000000000000000000000000 EQ DUP1 PUSH2 0x6CFA JUMPI POP PUSH32 0xFFFFFFFF00000000000000000000000000000000000000000000000000000000 DUP3 AND PUSH32 0x5B5E139F00000000000000000000000000000000000000000000000000000000 EQ JUMPDEST DUP1 PUSH2 0x937 JUMPI POP PUSH32 0x1FFC9A700000000000000000000000000000000000000000000000000000000 PUSH32 0xFFFFFFFF00000000000000000000000000000000000000000000000000000000 DUP4 AND EQ PUSH2 0x937 JUMP JUMPDEST DUP3 DUP1 SLOAD PUSH2 0x6D56 SWAP1 PUSH2 0x77D8 JUMP JUMPDEST SWAP1 PUSH1 0x0 MSTORE PUSH1 0x20 PUSH1 0x0 KECCAK256 SWAP1 PUSH1 0x1F ADD PUSH1 0x20 SWAP1 DIV DUP2 ADD SWAP3 DUP3 PUSH2 0x6D78 JUMPI PUSH1 0x0 DUP6 SSTORE PUSH2 0x6DBE JUMP JUMPDEST DUP3 PUSH1 0x1F LT PUSH2 0x6D91 JUMPI DUP1 MLOAD PUSH1 0xFF NOT AND DUP4 DUP1 ADD OR DUP6 SSTORE PUSH2 0x6DBE JUMP JUMPDEST DUP3 DUP1 ADD PUSH1 0x1 ADD DUP6 SSTORE DUP3 ISZERO PUSH2 0x6DBE JUMPI SWAP2 DUP3 ADD JUMPDEST DUP3 DUP2 GT ISZERO PUSH2 0x6DBE JUMPI DUP3 MLOAD DUP3 SSTORE SWAP2 PUSH1 0x20 ADD SWAP2 SWAP1 PUSH1 0x1 ADD SWAP1 PUSH2 0x6DA3 JUMP JUMPDEST POP PUSH2 0x6DCA SWAP3 SWAP2 POP PUSH2 0x6E08 JUMP JUMPDEST POP SWAP1 JUMP JUMPDEST DUP3 DUP1 SLOAD DUP3 DUP3 SSTORE SWAP1 PUSH1 0x0 MSTORE PUSH1 0x20 PUSH1 0x0 KECCAK256 SWAP1 DUP2 ADD SWAP3 DUP3 ISZERO PUSH2 0x6DBE JUMPI SWAP2 PUSH1 0x20 MUL DUP3 ADD DUP3 DUP2 GT ISZERO PUSH2 0x6DBE JUMPI DUP3 MLOAD DUP3 SSTORE SWAP2 PUSH1 0x20 ADD SWAP2 SWAP1 PUSH1 0x1 ADD SWAP1 PUSH2 0x6DA3 JUMP JUMPDEST JUMPDEST DUP1 DUP3 GT ISZERO PUSH2 0x6DCA JUMPI PUSH1 0x0 DUP2 SSTORE PUSH1 0x1 ADD PUSH2 0x6E09 JUMP JUMPDEST PUSH1 0x0 PUSH8 0xFFFFFFFFFFFFFFFF DUP4 GT ISZERO PUSH2 0x6E37 JUMPI PUSH2 0x6E37 PUSH2 0x79A6 JUMP JUMPDEST PUSH2 0x6E68 PUSH1 0x20 PUSH32 0xFFFFFFFFFFFFFFFFFFFFFFFFFFFFFFFFFFFFFFFFFFFFFFFFFFFFFFFFFFFFFFE0 PUSH1 0x1F DUP7 ADD AND ADD PUSH2 0x76B8 JUMP JUMPDEST SWAP1 POP DUP3 DUP2 MSTORE DUP4 DUP4 DUP4 ADD GT ISZERO PUSH2 0x6E7C JUMPI PUSH1 0x0 DUP1 REVERT JUMPDEST DUP3 DUP3 PUSH1 0x20 DUP4 ADD CALLDATACOPY PUSH1 0x0 PUSH1 0x20 DUP5 DUP4 ADD ADD MSTORE SWAP4 SWAP3 POP POP POP JUMP JUMPDEST PUSH1 0x0 DUP3 PUSH1 0x1F DUP4 ADD SLT PUSH2 0x6EA4 JUMPI PUSH1 0x0 DUP1 REVERT JUMPDEST DUP2 CALLDATALOAD PUSH1 0x20 PUSH8 0xFFFFFFFFFFFFFFFF DUP3 GT ISZERO PUSH2 0x6EC0 JUMPI PUSH2 0x6EC0 PUSH2 0x79A6 JUMP JUMPDEST DUP2 PUSH1 0x5 SHL PUSH2 0x6ECF DUP3 DUP3 ADD PUSH2 0x76B8 JUMP JUMPDEST DUP4 DUP2 MSTORE DUP3 DUP2 ADD SWAP1 DUP7 DUP5 ADD DUP4 DUP9 ADD DUP6 ADD DUP10 LT ISZERO PUSH2 0x6EEA JUMPI PUSH1 0x0 DUP1 REVERT JUMPDEST PUSH1 0x0 SWAP4 POP JUMPDEST DUP6 DUP5 LT ISZERO PUSH2 0x6F0D JUMPI DUP1 CALLDATALOAD DUP4 MSTORE PUSH1 0x1 SWAP4 SWAP1 SWAP4 ADD SWAP3 SWAP2 DUP5 ADD SWAP2 DUP5 ADD PUSH2 0x6EEF JUMP JUMPDEST POP SWAP8 SWAP7 POP POP POP POP POP POP POP JUMP JUMPDEST PUSH1 0x0 DUP3 PUSH1 0x1F DUP4 ADD SLT PUSH2 0x6F2A JUMPI PUSH1 0x0 DUP1 REVERT JUMPDEST PUSH2 0x2D23 DUP4 DUP4 CALLDATALOAD PUSH1 0x20 DUP6 ADD PUSH2 0x6E1D JUMP JUMPDEST DUP1 CALLDATALOAD PUSH1 0xFF DUP2 AND DUP2 EQ PUSH2 0x6F4A JUMPI PUSH1 0x0 DUP1 REVERT JUMPDEST SWAP2 SWAP1 POP JUMP JUMPDEST PUSH1 0x0 PUSH1 0x20 DUP3 DUP5 SUB SLT ISZERO PUSH2 0x6F61 JUMPI PUSH1 0x0 DUP1 REVERT JUMPDEST DUP2 CALLDATALOAD PUSH2 0x2D23 DUP2 PUSH2 0x79D5 JUMP JUMPDEST PUSH1 0x0 DUP1 PUSH1 0x40 DUP4 DUP6 SUB SLT ISZERO PUSH2 0x6F7F JUMPI PUSH1 0x0 DUP1 REVERT JUMPDEST DUP3 CALLDATALOAD PUSH2 0x6F8A DUP2 PUSH2 0x79D5 JUMP JUMPDEST SWAP2 POP PUSH1 0x20 DUP4 ADD CALLDATALOAD PUSH2 0x6F9A DUP2 PUSH2 0x79D5 JUMP JUMPDEST DUP1 SWAP2 POP POP SWAP3 POP SWAP3 SWAP1 POP JUMP JUMPDEST PUSH1 0x0 DUP1 PUSH1 0x0 DUP1 PUSH1 0x0 PUSH1 0xA0 DUP7 DUP9 SUB SLT ISZERO PUSH2 0x6FBD JUMPI PUSH1 0x0 DUP1 REVERT JUMPDEST DUP6 CALLDATALOAD PUSH2 0x6FC8 DUP2 PUSH2 0x79D5 JUMP JUMPDEST SWAP5 POP PUSH1 0x20 DUP7 ADD CALLDATALOAD PUSH2 0x6FD8 DUP2 PUSH2 0x79D5 JUMP JUMPDEST SWAP4 POP PUSH1 0x40 DUP7 ADD CALLDATALOAD PUSH8 0xFFFFFFFFFFFFFFFF DUP1 DUP3 GT ISZERO PUSH2 0x6FF5 JUMPI PUSH1 0x0 DUP1 REVERT JUMPDEST PUSH2 0x7001 DUP10 DUP4 DUP11 ADD PUSH2 0x6E93 JUMP JUMPDEST SWAP5 POP PUSH1 0x60 DUP9 ADD CALLDATALOAD SWAP2 POP DUP1 DUP3 GT ISZERO PUSH2 0x7017 JUMPI PUSH1 0x0 DUP1 REVERT JUMPDEST PUSH2 0x7023 DUP10 DUP4 DUP11 ADD PUSH2 0x6E93 JUMP JUMPDEST SWAP4 POP PUSH1 0x80 DUP9 ADD CALLDATALOAD SWAP2 POP DUP1 DUP3 GT ISZERO PUSH2 0x7039 JUMPI PUSH1 0x0 DUP1 REVERT JUMPDEST POP PUSH2 0x7046 DUP9 DUP3 DUP10 ADD PUSH2 0x6F19 JUMP JUMPDEST SWAP2 POP POP SWAP3 SWAP6 POP SWAP3 SWAP6 SWAP1 SWAP4 POP JUMP JUMPDEST PUSH1 0x0 DUP1 PUSH1 0x0 PUSH1 0x60 DUP5 DUP7 SUB SLT ISZERO PUSH2 0x7068 JUMPI PUSH1 0x0 DUP1 REVERT JUMPDEST DUP4 CALLDATALOAD PUSH2 0x7073 DUP2 PUSH2 0x79D5 JUMP JUMPDEST SWAP3 POP PUSH1 0x20 DUP5 ADD CALLDATALOAD PUSH2 0x7083 DUP2 PUSH2 0x79D5 JUMP JUMPDEST SWAP3 SWAP6 SWAP3 SWAP5 POP POP POP PUSH1 0x40 SWAP2 SWAP1 SWAP2 ADD CALLDATALOAD SWAP1 JUMP JUMPDEST PUSH1 0x0 DUP1 PUSH1 0x0 DUP1 PUSH1 0x80 DUP6 DUP8 SUB SLT ISZERO PUSH2 0x70AA JUMPI PUSH1 0x0 DUP1 REVERT JUMPDEST DUP5 CALLDATALOAD PUSH2 0x70B5 DUP2 PUSH2 0x79D5 JUMP JUMPDEST SWAP4 POP PUSH1 0x20 DUP6 ADD CALLDATALOAD PUSH2 0x70C5 DUP2 PUSH2 0x79D5 JUMP JUMPDEST SWAP3 POP PUSH1 0x40 DUP6 ADD CALLDATALOAD SWAP2 POP PUSH1 0x60 DUP6 ADD CALLDATALOAD PUSH8 0xFFFFFFFFFFFFFFFF DUP2 GT ISZERO PUSH2 0x70E8 JUMPI PUSH1 0x0 DUP1 REVERT JUMPDEST PUSH2 0x70F4 DUP8 DUP3 DUP9 ADD PUSH2 0x6F19 JUMP JUMPDEST SWAP2 POP POP SWAP3 SWAP6 SWAP2 SWAP5 POP SWAP3 POP JUMP JUMPDEST PUSH1 0x0 DUP1 PUSH1 0x0 DUP1 PUSH1 0x0 PUSH1 0xA0 DUP7 DUP9 SUB SLT ISZERO PUSH2 0x7118 JUMPI PUSH1 0x0 DUP1 REVERT JUMPDEST DUP6 CALLDATALOAD PUSH2 0x7123 DUP2 PUSH2 0x79D5 JUMP JUMPDEST SWAP5 POP PUSH1 0x20 DUP7 ADD CALLDATALOAD PUSH2 0x7133 DUP2 PUSH2 0x79D5 JUMP JUMPDEST SWAP4 POP PUSH1 0x40 DUP7 ADD CALLDATALOAD SWAP3 POP PUSH1 0x60 DUP7 ADD CALLDATALOAD SWAP2 POP PUSH1 0x80 DUP7 ADD CALLDATALOAD PUSH8 0xFFFFFFFFFFFFFFFF DUP2 GT ISZERO PUSH2 0x715D JUMPI PUSH1 0x0 DUP1 REVERT JUMPDEST PUSH2 0x7046 DUP9 DUP3 DUP10 ADD PUSH2 0x6F19 JUMP JUMPDEST PUSH1 0x0 DUP1 PUSH1 0x0 DUP1 PUSH1 0x80 DUP6 DUP8 SUB SLT ISZERO PUSH2 0x717F JUMPI PUSH1 0x0 DUP1 REVERT JUMPDEST DUP5 CALLDATALOAD PUSH2 0x718A DUP2 PUSH2 0x79D5 JUMP JUMPDEST SWAP4 POP PUSH1 0x20 DUP6 ADD CALLDATALOAD PUSH8 0xFFFFFFFFFFFFFFFF DUP1 DUP3 GT ISZERO PUSH2 0x71A7 JUMPI PUSH1 0x0 DUP1 REVERT JUMPDEST PUSH2 0x71B3 DUP9 DUP4 DUP10 ADD PUSH2 0x6E93 JUMP JUMPDEST SWAP5 POP PUSH1 0x40 DUP8 ADD CALLDATALOAD SWAP2 POP DUP1 DUP3 GT ISZERO PUSH2 0x71C9 JUMPI PUSH1 0x0 DUP1 REVERT JUMPDEST POP PUSH2 0x71D6 DUP8 DUP3 DUP9 ADD PUSH2 0x6E93 JUMP JUMPDEST SWAP3 POP POP PUSH1 0x60 DUP6 ADD CALLDATALOAD PUSH2 0x71E7 DUP2 PUSH2 0x79D5 JUMP JUMPDEST SWAP4 SWAP7 SWAP3 SWAP6 POP SWAP1 SWAP4 POP POP JUMP JUMPDEST PUSH1 0x0 DUP1 PUSH1 0x40 DUP4 DUP6 SUB SLT ISZERO PUSH2 0x7205 JUMPI PUSH1 0x0 DUP1 REVERT JUMPDEST DUP3 CALLDATALOAD PUSH2 0x7210 DUP2 PUSH2 0x79D5 JUMP JUMPDEST SWAP2 POP PUSH1 0x20 DUP4 ADD CALLDATALOAD PUSH2 0x6F9A DUP2 PUSH2 0x79F7 JUMP JUMPDEST PUSH1 0x0 DUP1 PUSH1 0x40 DUP4 DUP6 SUB SLT ISZERO PUSH2 0x7233 JUMPI PUSH1 0x0 DUP1 REVERT JUMPDEST DUP3 CALLDATALOAD PUSH2 0x723E DUP2 PUSH2 0x79D5 JUMP JUMPDEST SWAP5 PUSH1 0x20 SWAP4 SWAP1 SWAP4 ADD CALLDATALOAD SWAP4 POP POP POP JUMP JUMPDEST PUSH1 0x0 DUP1 PUSH1 0x0 PUSH1 0x60 DUP5 DUP7 SUB SLT ISZERO PUSH2 0x7261 JUMPI PUSH1 0x0 DUP1 REVERT JUMPDEST DUP4 CALLDATALOAD PUSH2 0x726C DUP2 PUSH2 0x79D5 JUMP JUMPDEST SWAP3 POP PUSH1 0x20 DUP5 ADD CALLDATALOAD SWAP2 POP PUSH1 0x40 DUP5 ADD CALLDATALOAD PUSH2 0x7283 DUP2 PUSH2 0x79D5 JUMP JUMPDEST DUP1 SWAP2 POP POP SWAP3 POP SWAP3 POP SWAP3 JUMP JUMPDEST PUSH1 0x0 DUP1 PUSH1 0x0 DUP1 PUSH1 0x80 DUP6 DUP8 SUB SLT ISZERO PUSH2 0x72A4 JUMPI PUSH1 0x0 DUP1 REVERT JUMPDEST DUP5 CALLDATALOAD PUSH2 0x72AF DUP2 PUSH2 0x79D5 JUMP JUMPDEST SWAP4 POP PUSH1 0x20 DUP6 ADD CALLDATALOAD SWAP3 POP PUSH1 0x40 DUP6 ADD CALLDATALOAD SWAP2 POP PUSH1 0x60 DUP6 ADD CALLDATALOAD PUSH2 0x71E7 DUP2 PUSH2 0x79D5 JUMP JUMPDEST PUSH1 0x0 DUP1 PUSH1 0x0 DUP1 PUSH1 0x80 DUP6 DUP8 SUB SLT ISZERO PUSH2 0x72E3 JUMPI PUSH1 0x0 DUP1 REVERT JUMPDEST DUP5 CALLDATALOAD PUSH2 0x72EE DUP2 PUSH2 0x79D5 JUMP JUMPDEST SWAP7 PUSH1 0x20 DUP7 ADD CALLDATALOAD SWAP7 POP PUSH1 0x40 DUP7 ADD CALLDATALOAD SWAP6 PUSH1 0x60 ADD CALLDATALOAD SWAP5 POP SWAP3 POP POP POP JUMP JUMPDEST PUSH1 0x0 PUSH1 0x20 DUP3 DUP5 SUB SLT ISZERO PUSH2 0x731A JUMPI PUSH1 0x0 DUP1 REVERT JUMPDEST DUP2 MLOAD PUSH2 0x2D23 DUP2 PUSH2 0x79F7 JUMP JUMPDEST PUSH1 0x0 PUSH1 0x20 DUP3 DUP5 SUB SLT ISZERO PUSH2 0x7337 JUMPI PUSH1 0x0 DUP1 REVERT JUMPDEST DUP2 CALLDATALOAD PUSH2 0x2D23 DUP2 PUSH2 0x7A05 JUMP JUMPDEST PUSH1 0x0 PUSH1 0x20 DUP3 DUP5 SUB SLT ISZERO PUSH2 0x7354 JUMPI PUSH1 0x0 DUP1 REVERT JUMPDEST DUP2 MLOAD PUSH2 0x2D23 DUP2 PUSH2 0x7A05 JUMP JUMPDEST PUSH1 0x0 PUSH1 0x20 DUP3 DUP5 SUB SLT ISZERO PUSH2 0x7371 JUMPI PUSH1 0x0 DUP1 REVERT JUMPDEST DUP2 CALLDATALOAD PUSH8 0xFFFFFFFFFFFFFFFF DUP2 GT ISZERO PUSH2 0x7388 JUMPI PUSH1 0x0 DUP1 REVERT JUMPDEST DUP3 ADD PUSH1 0x1F DUP2 ADD DUP5 SGT PUSH2 0x7399 JUMPI PUSH1 0x0 DUP1 REVERT JUMPDEST PUSH2 0xCEC DUP5 DUP3 CALLDATALOAD PUSH1 0x20 DUP5 ADD PUSH2 0x6E1D JUMP JUMPDEST PUSH1 0x0 PUSH1 0x20 DUP3 DUP5 SUB SLT ISZERO PUSH2 0x73BA JUMPI PUSH1 0x0 DUP1 REVERT JUMPDEST DUP2 CALLDATALOAD PUSH2 0xFFFF DUP2 AND DUP2 EQ PUSH2 0x2D23 JUMPI PUSH1 0x0 DUP1 REVERT JUMPDEST PUSH1 0x0 PUSH1 0x20 DUP3 DUP5 SUB SLT ISZERO PUSH2 0x73DE JUMPI PUSH1 0x0 DUP1 REVERT JUMPDEST POP CALLDATALOAD SWAP2 SWAP1 POP JUMP JUMPDEST PUSH1 0x0 PUSH1 0x20 DUP3 DUP5 SUB SLT ISZERO PUSH2 0x73F7 JUMPI PUSH1 0x0 DUP1 REVERT JUMPDEST POP MLOAD SWAP2 SWAP1 POP JUMP JUMPDEST PUSH1 0x0 DUP1 PUSH1 0x40 DUP4 DUP6 SUB SLT ISZERO PUSH2 0x7411 JUMPI PUSH1 0x0 DUP1 REVERT JUMPDEST DUP3 CALLDATALOAD SWAP2 POP PUSH1 0x20 DUP4 ADD CALLDATALOAD PUSH2 0x6F9A DUP2 PUSH2 0x79D5 JUMP JUMPDEST PUSH1 0x0 DUP1 PUSH1 0x0 PUSH1 0x60 DUP5 DUP7 SUB SLT ISZERO PUSH2 0x7438 JUMPI PUSH1 0x0 DUP1 REVERT JUMPDEST DUP4 CALLDATALOAD SWAP3 POP PUSH1 0x20 DUP5 ADD CALLDATALOAD PUSH8 0xFFFFFFFFFFFFFFFF DUP2 GT ISZERO PUSH2 0x7456 JUMPI PUSH1 0x0 DUP1 REVERT JUMPDEST PUSH2 0x7462 DUP7 DUP3 DUP8 ADD PUSH2 0x6E93 JUMP JUMPDEST SWAP3 POP POP PUSH1 0x40 DUP5 ADD CALLDATALOAD PUSH2 0x7283 DUP2 PUSH2 0x79F7 JUMP JUMPDEST PUSH1 0x0 DUP1 PUSH1 0x0 PUSH1 0x60 DUP5 DUP7 SUB SLT ISZERO PUSH2 0x7488 JUMPI PUSH1 0x0 DUP1 REVERT JUMPDEST DUP4 CALLDATALOAD SWAP3 POP PUSH1 0x20 DUP5 ADD CALLDATALOAD SWAP2 POP PUSH1 0x40 DUP5 ADD CALLDATALOAD PUSH2 0x7283 DUP2 PUSH2 0x79F7 JUMP JUMPDEST PUSH1 0x0 PUSH1 0x20 DUP3 DUP5 SUB SLT ISZERO PUSH2 0x74B3 JUMPI PUSH1 0x0 DUP1 REVERT JUMPDEST PUSH2 0x2D23 DUP3 PUSH2 0x6F39 JUMP JUMPDEST PUSH1 0x0 DUP1 PUSH1 0x40 DUP4 DUP6 SUB SLT ISZERO PUSH2 0x74CF JUMPI PUSH1 0x0 DUP1 REVERT JUMPDEST PUSH2 0x6F8A DUP4 PUSH2 0x6F39 JUMP JUMPDEST PUSH1 0x0 DUP1 PUSH1 0x40 DUP4 DUP6 SUB SLT ISZERO PUSH2 0x74EB JUMPI PUSH1 0x0 DUP1 REVERT JUMPDEST PUSH2 0x723E DUP4 PUSH2 0x6F39 JUMP JUMPDEST PUSH1 0x0 DUP1 PUSH1 0x40 DUP4 DUP6 SUB SLT ISZERO PUSH2 0x7507 JUMPI PUSH1 0x0 DUP1 REVERT JUMPDEST PUSH2 0x7510 DUP4 PUSH2 0x6F39 JUMP JUMPDEST SWAP2 POP PUSH1 0x20 DUP4 ADD CALLDATALOAD PUSH8 0xFFFFFFFFFFFFFFFF DUP2 AND DUP2 EQ PUSH2 0x6F9A JUMPI PUSH1 0x0 DUP1 REVERT JUMPDEST PUSH1 0x0 DUP2 MLOAD DUP1 DUP5 MSTORE PUSH1 0x20 DUP1 DUP6 ADD SWAP5 POP DUP1 DUP5 ADD PUSH1 0x0 JUMPDEST DUP4 DUP2 LT ISZERO PUSH2 0x755D JUMPI DUP2 MLOAD DUP8 MSTORE SWAP6 DUP3 ADD SWAP6 SWAP1 DUP3 ADD SWAP1 PUSH1 0x1 ADD PUSH2 0x7541 JUMP JUMPDEST POP SWAP5 SWAP6 SWAP5 POP POP POP POP POP JUMP JUMPDEST PUSH1 0x0 DUP2 MLOAD DUP1 DUP5 MSTORE PUSH2 0x7580 DUP2 PUSH1 0x20 DUP7 ADD PUSH1 0x20 DUP7 ADD PUSH2 0x77AC JUMP JUMPDEST PUSH1 0x1F ADD PUSH32 0xFFFFFFFFFFFFFFFFFFFFFFFFFFFFFFFFFFFFFFFFFFFFFFFFFFFFFFFFFFFFFFE0 AND SWAP3 SWAP1 SWAP3 ADD PUSH1 0x20 ADD SWAP3 SWAP2 POP POP JUMP JUMPDEST PUSH1 0x0 DUP4 MLOAD PUSH2 0x75C4 DUP2 DUP5 PUSH1 0x20 DUP9 ADD PUSH2 0x77AC JUMP JUMPDEST DUP4 MLOAD SWAP1 DUP4 ADD SWAP1 PUSH2 0x75D8 DUP2 DUP4 PUSH1 0x20 DUP9 ADD PUSH2 0x77AC JUMP JUMPDEST ADD SWAP5 SWAP4 POP POP POP POP JUMP JUMPDEST PUSH1 0x0 PUSH20 0xFFFFFFFFFFFFFFFFFFFFFFFFFFFFFFFFFFFFFFFF DUP1 DUP8 AND DUP4 MSTORE DUP1 DUP7 AND PUSH1 0x20 DUP5 ADD MSTORE POP PUSH1 0xA0 PUSH1 0x40 DUP4 ADD MSTORE PUSH2 0x761A PUSH1 0xA0 DUP4 ADD DUP6 PUSH2 0x752D JUMP JUMPDEST DUP3 DUP2 SUB PUSH1 0x60 DUP5 ADD MSTORE PUSH2 0x762C DUP2 DUP6 PUSH2 0x752D JUMP JUMPDEST DUP4 DUP2 SUB PUSH1 0x80 SWAP1 SWAP5 ADD SWAP4 SWAP1 SWAP4 MSTORE POP POP PUSH1 0x0 DUP2 MSTORE PUSH1 0x20 ADD SWAP5 SWAP4 POP POP POP POP JUMP JUMPDEST PUSH1 0x0 PUSH20 0xFFFFFFFFFFFFFFFFFFFFFFFFFFFFFFFFFFFFFFFF DUP1 DUP8 AND DUP4 MSTORE DUP1 DUP7 AND PUSH1 0x20 DUP5 ADD MSTORE POP DUP4 PUSH1 0x40 DUP4 ADD MSTORE PUSH1 0x80 PUSH1 0x60 DUP4 ADD MSTORE PUSH2 0x7688 PUSH1 0x80 DUP4 ADD DUP5 PUSH2 0x7568 JUMP JUMPDEST SWAP7 SWAP6 POP POP POP POP POP POP JUMP JUMPDEST PUSH1 0x20 DUP2 MSTORE PUSH1 0x0 PUSH2 0x2D23 PUSH1 0x20 DUP4 ADD DUP5 PUSH2 0x752D JUMP JUMPDEST PUSH1 0x20 DUP2 MSTORE PUSH1 0x0 PUSH2 0x2D23 PUSH1 0x20 DUP4 ADD DUP5 PUSH2 0x7568 JUMP JUMPDEST PUSH1 0x40 MLOAD PUSH1 0x1F DUP3 ADD PUSH32 0xFFFFFFFFFFFFFFFFFFFFFFFFFFFFFFFFFFFFFFFFFFFFFFFFFFFFFFFFFFFFFFE0 AND DUP2 ADD PUSH8 0xFFFFFFFFFFFFFFFF DUP2 GT DUP3 DUP3 LT OR ISZERO PUSH2 0x76FF JUMPI PUSH2 0x76FF PUSH2 0x79A6 JUMP JUMPDEST PUSH1 0x40 MSTORE SWAP2 SWAP1 POP JUMP JUMPDEST PUSH1 0x0 DUP3 NOT DUP3 GT ISZERO PUSH2 0x771A JUMPI PUSH2 0x771A PUSH2 0x78EA JUMP JUMPDEST POP ADD SWAP1 JUMP JUMPDEST PUSH1 0x0 PUSH1 0xFF DUP3 AND PUSH1 0xFF DUP5 AND DUP1 PUSH1 0xFF SUB DUP3 GT ISZERO PUSH2 0x773C JUMPI PUSH2 0x773C PUSH2 0x78EA JUMP JUMPDEST ADD SWAP4 SWAP3 POP POP POP JUMP JUMPDEST PUSH1 0x0 DUP3 PUSH2 0x7753 JUMPI PUSH2 0x7753 PUSH2 0x7919 JUMP JUMPDEST POP DIV SWAP1 JUMP JUMPDEST PUSH1 0x0 DUP2 PUSH32 0xFFFFFFFFFFFFFFFFFFFFFFFFFFFFFFFFFFFFFFFFFFFFFFFFFFFFFFFFFFFFFFFF DIV DUP4 GT DUP3 ISZERO ISZERO AND ISZERO PUSH2 0x7790 JUMPI PUSH2 0x7790 PUSH2 0x78EA JUMP JUMPDEST POP MUL SWAP1 JUMP JUMPDEST PUSH1 0x0 DUP3 DUP3 LT ISZERO PUSH2 0x77A7 JUMPI PUSH2 0x77A7 PUSH2 0x78EA JUMP JUMPDEST POP SUB SWAP1 JUMP JUMPDEST PUSH1 0x0 JUMPDEST DUP4 DUP2 LT ISZERO PUSH2 0x77C7 JUMPI DUP2 DUP2 ADD MLOAD DUP4 DUP3 ADD MSTORE PUSH1 0x20 ADD PUSH2 0x77AF JUMP JUMPDEST DUP4 DUP2 GT ISZERO PUSH2 0x39F4 JUMPI POP POP PUSH1 0x0 SWAP2 ADD MSTORE JUMP JUMPDEST PUSH1 0x1 DUP2 DUP2 SHR SWAP1 DUP3 AND DUP1 PUSH2 0x77EC JUMPI PUSH1 0x7F DUP3 AND SWAP2 POP JUMPDEST PUSH1 0x20 DUP3 LT DUP2 EQ ISZERO PUSH2 0x12D3 JUMPI PUSH32 0x4E487B7100000000000000000000000000000000000000000000000000000000 PUSH1 0x0 MSTORE PUSH1 0x22 PUSH1 0x4 MSTORE PUSH1 0x24 PUSH1 0x0 REVERT JUMPDEST PUSH1 0x0 PUSH32 0xFFFFFFFFFFFFFFFFFFFFFFFFFFFFFFFFFFFFFFFFFFFFFFFFFFFFFFFFFFFFFFFF DUP3 EQ ISZERO PUSH2 0x7858 JUMPI PUSH2 0x7858 PUSH2 0x78EA JUMP JUMPDEST POP PUSH1 0x1 ADD SWAP1 JUMP JUMPDEST PUSH1 0x0 PUSH8 0xFFFFFFFFFFFFFFFF DUP1 DUP4 AND DUP2 DUP2 EQ ISZERO PUSH2 0x787D JUMPI PUSH2 0x787D PUSH2 0x78EA JUMP JUMPDEST PUSH1 0x1 ADD SWAP4 SWAP3 POP POP POP JUMP JUMPDEST PUSH1 0x0 PUSH1 0xFF DUP3 AND PUSH1 0xFF DUP2 EQ ISZERO PUSH2 0x789E JUMPI PUSH2 0x789E PUSH2 0x78EA JUMP JUMPDEST PUSH1 0x1 ADD SWAP3 SWAP2 POP POP JUMP JUMPDEST PUSH1 0x0 DUP3 PUSH2 0x78B6 JUMPI PUSH2 0x78B6 PUSH2 0x7919 JUMP JUMPDEST POP MOD SWAP1 JUMP JUMPDEST PUSH32 0x4E487B7100000000000000000000000000000000000000000000000000000000 PUSH1 0x0 MSTORE PUSH1 0x1 PUSH1 0x4 MSTORE PUSH1 0x24 PUSH1 0x0 REVERT JUMPDEST PUSH32 0x4E487B7100000000000000000000000000000000000000000000000000000000 PUSH1 0x0 MSTORE PUSH1 0x11 PUSH1 0x4 MSTORE PUSH1 0x24 PUSH1 0x0 REVERT JUMPDEST PUSH32 0x4E487B7100000000000000000000000000000000000000000000000000000000 PUSH1 0x0 MSTORE PUSH1 0x12 PUSH1 0x4 MSTORE PUSH1 0x24 PUSH1 0x0 REVERT JUMPDEST PUSH32 0x4E487B7100000000000000000000000000000000000000000000000000000000 PUSH1 0x0 MSTORE PUSH1 0x31 PUSH1 0x4 MSTORE PUSH1 0x24 PUSH1 0x0 REVERT JUMPDEST PUSH32 0x4E487B7100000000000000000000000000000000000000000000000000000000 PUSH1 0x0 MSTORE PUSH1 0x32 PUSH1 0x4 MSTORE PUSH1 0x24 PUSH1 0x0 REVERT JUMPDEST PUSH32 0x4E487B7100000000000000000000000000000000000000000000000000000000 PUSH1 0x0 MSTORE PUSH1 0x41 PUSH1 0x4 MSTORE PUSH1 0x24 PUSH1 0x0 REVERT JUMPDEST PUSH20 0xFFFFFFFFFFFFFFFFFFFFFFFFFFFFFFFFFFFFFFFF DUP2 AND DUP2 EQ PUSH2 0xF6D JUMPI PUSH1 0x0 DUP1 REVERT JUMPDEST DUP1 ISZERO ISZERO DUP2 EQ PUSH2 0xF6D JUMPI PUSH1 0x0 DUP1 REVERT JUMPDEST PUSH32 0xFFFFFFFF00000000000000000000000000000000000000000000000000000000 DUP2 AND DUP2 EQ PUSH2 0xF6D JUMPI PUSH1 0x0 DUP1 REVERT INVALID LOG2 PUSH5 0x6970667358 0x22 SLT KECCAK256 0xDE PUSH21 0x679D64C41E38D95729AE4A913B7C05933415A7E97D SWAP4 DELEGATECALL ORIGIN 0xAD 0xC7 0xEF 0xC0 0xD6 DUP15 PUSH5 0x736F6C6343 STOP ADDMOD SMOD STOP CALLER GASLIMIT MSTORE NUMBER CALLDATACOPY ORIGIN BALANCE GASPRICE KECCAK256 PUSH21 0x72616E7366657220746F206E6F6E20455243373231 MSTORE PUSH6 0x608060405234 DUP1 ISZERO PUSH3 0x11 JUMPI PUSH1 0x0 DUP1 REVERT JUMPDEST POP PUSH1 0x40 MLOAD PUSH3 0x4BE6 CODESIZE SUB DUP1 PUSH3 0x4BE6 DUP4 CODECOPY DUP2 ADD PUSH1 0x40 DUP2 SWAP1 MSTORE PUSH3 0x34 SWAP2 PUSH3 0x39C JUMP JUMPDEST PUSH1 0x40 MLOAD DUP1 PUSH1 0x40 ADD PUSH1 0x40 MSTORE DUP1 PUSH1 0x7 DUP2 MSTORE PUSH1 0x20 ADD PUSH7 0x10DBDB5B585B99 PUSH1 0xCA SHL DUP2 MSTORE POP PUSH1 0x40 MLOAD DUP1 PUSH1 0x40 ADD PUSH1 0x40 MSTORE DUP1 PUSH1 0x3 DUP2 MSTORE PUSH1 0x20 ADD PUSH3 0x10D351 PUSH1 0xEA SHL DUP2 MSTORE POP PUSH8 0x16345785D8A0000 DUP4 PUSH1 0x64 PUSH10 0x21E19E0C9BAB2400000 PUSH10 0xD3C21BCECCEDA1000000 DUP9 DUP8 DUP8 DUP2 PUSH1 0x3 SWAP1 DUP1 MLOAD SWAP1 PUSH1 0x20 ADD SWAP1 PUSH3 0xAD SWAP3 SWAP2 SWAP1 PUSH3 0x2F6 JUMP JUMPDEST POP DUP1 MLOAD PUSH3 0xC3 SWAP1 PUSH1 0x4 SWAP1 PUSH1 0x20 DUP5 ADD SWAP1 PUSH3 0x2F6 JUMP JUMPDEST POP POP PUSH1 0x5 DUP1 SLOAD PUSH1 0x1 PUSH1 0x1 PUSH1 0xA0 SHL SUB NOT SWAP1 DUP2 AND PUSH1 0x1 PUSH1 0x1 PUSH1 0xA0 SHL SUB SWAP5 DUP6 AND OR SWAP1 SWAP2 SSTORE PUSH1 0x40 DUP1 MLOAD PUSH1 0xA0 DUP2 ADD DUP3 MSTORE DUP9 DUP6 AND DUP2 MSTORE PUSH1 0x20 DUP1 DUP3 ADD DUP10 DUP2 MSTORE SWAP3 DUP3 ADD DUP9 DUP2 MSTORE PUSH1 0x0 PUSH1 0x60 DUP5 ADD DUP2 DUP2 MSTORE PUSH1 0x1 PUSH1 0x80 DUP7 ADD DUP2 DUP2 MSTORE SWAP3 DUP1 MSTORE PUSH1 0x11 SWAP1 SWAP5 MSTORE SWAP4 MLOAD PUSH32 0x4AD3B33220DDDC71B994A52D72C06B10862965F7D926534C05C00FB7E819E7B7 DUP1 SLOAD SWAP1 SWAP8 AND SWAP9 AND SWAP8 SWAP1 SWAP8 OR SWAP1 SWAP5 SSTORE SWAP2 MLOAD PUSH32 0x4AD3B33220DDDC71B994A52D72C06B10862965F7D926534C05C00FB7E819E7B8 SSTORE SWAP2 MLOAD PUSH32 0x4AD3B33220DDDC71B994A52D72C06B10862965F7D926534C05C00FB7E819E7B9 SSTORE SWAP1 MLOAD PUSH32 0x4AD3B33220DDDC71B994A52D72C06B10862965F7D926534C05C00FB7E819E7BA SSTORE SWAP2 MLOAD PUSH32 0x4AD3B33220DDDC71B994A52D72C06B10862965F7D926534C05C00FB7E819E7BB DUP1 SLOAD PUSH1 0xFF NOT AND SWAP2 ISZERO ISZERO SWAP2 SWAP1 SWAP2 OR SWAP1 SSTORE POP PUSH1 0x10 SSTORE PUSH1 0x15 DUP6 SWAP1 SSTORE PUSH3 0x1FF CALLER DUP3 PUSH3 0x20E JUMP JUMPDEST POP POP POP POP POP POP POP POP POP PUSH3 0x458 JUMP JUMPDEST PUSH1 0x1 PUSH1 0x1 PUSH1 0xA0 SHL SUB DUP3 AND PUSH3 0x269 JUMPI PUSH1 0x40 MLOAD PUSH3 0x461BCD PUSH1 0xE5 SHL DUP2 MSTORE PUSH1 0x20 PUSH1 0x4 DUP3 ADD MSTORE PUSH1 0x1F PUSH1 0x24 DUP3 ADD MSTORE PUSH32 0x45524332303A206D696E7420746F20746865207A65726F206164647265737300 PUSH1 0x44 DUP3 ADD MSTORE PUSH1 0x64 ADD PUSH1 0x40 MLOAD DUP1 SWAP2 SUB SWAP1 REVERT JUMPDEST DUP1 PUSH1 0x2 PUSH1 0x0 DUP3 DUP3 SLOAD PUSH3 0x27D SWAP2 SWAP1 PUSH3 0x3DB JUMP JUMPDEST SWAP1 SWAP2 SSTORE POP POP PUSH1 0x1 PUSH1 0x1 PUSH1 0xA0 SHL SUB DUP3 AND PUSH1 0x0 SWAP1 DUP2 MSTORE PUSH1 0x20 DUP2 SWAP1 MSTORE PUSH1 0x40 DUP2 KECCAK256 DUP1 SLOAD DUP4 SWAP3 SWAP1 PUSH3 0x2AC SWAP1 DUP5 SWAP1 PUSH3 0x3DB JUMP JUMPDEST SWAP1 SWAP2 SSTORE POP POP PUSH1 0x40 MLOAD DUP2 DUP2 MSTORE PUSH1 0x1 PUSH1 0x1 PUSH1 0xA0 SHL SUB DUP4 AND SWAP1 PUSH1 0x0 SWAP1 PUSH32 0xDDF252AD1BE2C89B69C2B068FC378DAA952BA7F163C4A11628F55A4DF523B3EF SWAP1 PUSH1 0x20 ADD PUSH1 0x40 MLOAD DUP1 SWAP2 SUB SWAP1 LOG3 POP POP JUMP JUMPDEST DUP3 DUP1 SLOAD PUSH3 0x304 SWAP1 PUSH3 0x402 JUMP JUMPDEST SWAP1 PUSH1 0x0 MSTORE PUSH1 0x20 PUSH1 0x0 KECCAK256 SWAP1 PUSH1 0x1F ADD PUSH1 0x20 SWAP1 DIV DUP2 ADD SWAP3 DUP3 PUSH3 0x328 JUMPI PUSH1 0x0 DUP6 SSTORE PUSH3 0x373 JUMP JUMPDEST DUP3 PUSH1 0x1F LT PUSH3 0x343 JUMPI DUP1 MLOAD PUSH1 0xFF NOT AND DUP4 DUP1 ADD OR DUP6 SSTORE PUSH3 0x373 JUMP JUMPDEST DUP3 DUP1 ADD PUSH1 0x1 ADD DUP6 SSTORE DUP3 ISZERO PUSH3 0x373 JUMPI SWAP2 DUP3 ADD JUMPDEST DUP3 DUP2 GT ISZERO PUSH3 0x373 JUMPI DUP3 MLOAD DUP3 SSTORE SWAP2 PUSH1 0x20 ADD SWAP2 SWAP1 PUSH1 0x1 ADD SWAP1 PUSH3 0x356 JUMP JUMPDEST POP PUSH3 0x381 SWAP3 SWAP2 POP PUSH3 0x385 JUMP JUMPDEST POP SWAP1 JUMP JUMPDEST JUMPDEST DUP1 DUP3 GT ISZERO PUSH3 0x381 JUMPI PUSH1 0x0 DUP2 SSTORE PUSH1 0x1 ADD PUSH3 0x386 JUMP JUMPDEST PUSH1 0x0 DUP1 PUSH1 0x40 DUP4 DUP6 SUB SLT ISZERO PUSH3 0x3B0 JUMPI PUSH1 0x0 DUP1 REVERT JUMPDEST DUP3 MLOAD PUSH3 0x3BD DUP2 PUSH3 0x43F JUMP JUMPDEST PUSH1 0x20 DUP5 ADD MLOAD SWAP1 SWAP3 POP PUSH3 0x3D0 DUP2 PUSH3 0x43F JUMP JUMPDEST DUP1 SWAP2 POP POP SWAP3 POP SWAP3 SWAP1 POP JUMP JUMPDEST PUSH1 0x0 DUP3 NOT DUP3 GT ISZERO PUSH3 0x3FD JUMPI PUSH4 0x4E487B71 PUSH1 0xE0 SHL PUSH1 0x0 MSTORE PUSH1 0x11 PUSH1 0x4 MSTORE PUSH1 0x24 PUSH1 0x0 REVERT JUMPDEST POP ADD SWAP1 JUMP JUMPDEST PUSH1 0x1 DUP2 DUP2 SHR SWAP1 DUP3 AND DUP1 PUSH3 0x417 JUMPI PUSH1 0x7F DUP3 AND SWAP2 POP JUMPDEST PUSH1 0x20 DUP3 LT DUP2 EQ ISZERO PUSH3 0x439 JUMPI PUSH4 0x4E487B71 PUSH1 0xE0 SHL PUSH1 0x0 MSTORE PUSH1 0x22 PUSH1 0x4 MSTORE PUSH1 0x24 PUSH1 0x0 REVERT JUMPDEST POP SWAP2 SWAP1 POP JUMP JUMPDEST PUSH1 0x1 PUSH1 0x1 PUSH1 0xA0 SHL SUB DUP2 AND DUP2 EQ PUSH3 0x455 JUMPI PUSH1 0x0 DUP1 REVERT JUMPDEST POP JUMP JUMPDEST PUSH2 0x477E DUP1 PUSH3 0x468 PUSH1 0x0 CODECOPY PUSH1 0x0 RETURN INVALID PUSH1 0x80 PUSH1 0x40 MSTORE PUSH1 0x4 CALLDATASIZE LT PUSH2 0x334 JUMPI PUSH1 0x0 CALLDATALOAD PUSH1 0xE0 SHR DUP1 PUSH4 0x81989415 GT PUSH2 0x1B0 JUMPI DUP1 PUSH4 0xCD992EEC GT PUSH2 0xEC JUMPI DUP1 PUSH4 0xE121158E GT PUSH2 0x95 JUMPI DUP1 PUSH4 0xF23A6E61 GT PUSH2 0x6F JUMPI DUP1 PUSH4 0xF23A6E61 EQ PUSH2 0xAB0 JUMPI DUP1 PUSH4 0xF3A0AE2C EQ PUSH2 0xAF5 JUMPI DUP1 PUSH4 0xFC04E65D EQ PUSH2 0xB15 JUMPI DUP1 PUSH4 0xFC185B83 EQ PUSH2 0xB35 JUMPI PUSH1 0x0 DUP1 REVERT JUMPDEST DUP1 PUSH4 0xE121158E EQ PUSH2 0xA50 JUMPI DUP1 PUSH4 0xEF0B8784 EQ PUSH2 0xA70 JUMPI DUP1 PUSH4 0xF2386A36 EQ PUSH2 0xA90 JUMPI PUSH1 0x0 DUP1 REVERT JUMPDEST DUP1 PUSH4 0xD3DF2B61 GT PUSH2 0xC6 JUMPI DUP1 PUSH4 0xD3DF2B61 EQ PUSH2 0x9A8 JUMPI DUP1 PUSH4 0xDD62ED3E EQ PUSH2 0x9C8 JUMPI DUP1 PUSH4 0xDFE5576B EQ PUSH2 0xA1B JUMPI PUSH1 0x0 DUP1 REVERT JUMPDEST DUP1 PUSH4 0xCD992EEC EQ PUSH2 0x948 JUMPI DUP1 PUSH4 0xCEB2C006 EQ PUSH2 0x968 JUMPI DUP1 PUSH4 0xD3AAB25C EQ PUSH2 0x988 JUMPI PUSH1 0x0 DUP1 REVERT JUMPDEST DUP1 PUSH4 0xA9059CBB GT PUSH2 0x159 JUMPI DUP1 PUSH4 0xBC197C81 GT PUSH2 0x133 JUMPI DUP1 PUSH4 0xBC197C81 EQ PUSH2 0x87D JUMPI DUP1 PUSH4 0xBE5BACEB EQ PUSH2 0x8C2 JUMPI DUP1 PUSH4 0xC24BF5B8 EQ PUSH2 0x8E2 JUMPI DUP1 PUSH4 0xCB131CE6 EQ PUSH2 0x902 JUMPI PUSH1 0x0 DUP1 REVERT JUMPDEST DUP1 PUSH4 0xA9059CBB EQ PUSH2 0x818 JUMPI DUP1 PUSH4 0xA94E834B EQ PUSH2 0x838 JUMPI DUP1 PUSH4 0xBBA87A1A EQ PUSH2 0x858 JUMPI PUSH1 0x0 DUP1 REVERT JUMPDEST DUP1 PUSH4 0x95D89B41 GT PUSH2 0x18A JUMPI DUP1 PUSH4 0x95D89B41 EQ PUSH2 0x7C3 JUMPI DUP1 PUSH4 0xA1F4225B EQ PUSH2 0x7D8 JUMPI DUP1 PUSH4 0xA457C2D7 EQ PUSH2 0x7F8 JUMPI PUSH1 0x0 DUP1 REVERT JUMPDEST DUP1 PUSH4 0x81989415 EQ PUSH2 0x758 JUMPI DUP1 PUSH4 0x8B07AF2B EQ PUSH2 0x760 JUMPI DUP1 PUSH4 0x91250900 EQ PUSH2 0x780 JUMPI PUSH1 0x0 DUP1 REVERT JUMPDEST DUP1 PUSH4 0x3AB5E5BE GT PUSH2 0x27F JUMPI DUP1 PUSH4 0x635ACB8F GT PUSH2 0x228 JUMPI DUP1 PUSH4 0x712B71C8 GT PUSH2 0x202 JUMPI DUP1 PUSH4 0x712B71C8 EQ PUSH2 0x68E JUMPI DUP1 PUSH4 0x72F4D88A EQ PUSH2 0x6BE JUMPI DUP1 PUSH4 0x76E9280F EQ PUSH2 0x6DE JUMPI DUP1 PUSH4 0x7FFDF53E EQ PUSH2 0x71B JUMPI PUSH1 0x0 DUP1 REVERT JUMPDEST DUP1 PUSH4 0x635ACB8F EQ PUSH2 0x5FB JUMPI DUP1 PUSH4 0x6F95F2C3 EQ PUSH2 0x62B JUMPI DUP1 PUSH4 0x70A08231 EQ PUSH2 0x64B JUMPI PUSH1 0x0 DUP1 REVERT JUMPDEST DUP1 PUSH4 0x5B5A83E3 GT PUSH2 0x259 JUMPI DUP1 PUSH4 0x5B5A83E3 EQ PUSH2 0x5A4 JUMPI DUP1 PUSH4 0x5EB3009C EQ PUSH2 0x5B9 JUMPI DUP1 PUSH4 0x62DFCC07 EQ PUSH2 0x5DB JUMPI PUSH1 0x0 DUP1 REVERT JUMPDEST DUP1 PUSH4 0x3AB5E5BE EQ PUSH2 0x542 JUMPI DUP1 PUSH4 0x4ECB7795 EQ PUSH2 0x562 JUMPI DUP1 PUSH4 0x586FC5B5 EQ PUSH2 0x582 JUMPI PUSH1 0x0 DUP1 REVERT JUMPDEST DUP1 PUSH4 0x18160DDD GT PUSH2 0x2E1 JUMPI DUP1 PUSH4 0x26140D16 GT PUSH2 0x2BB JUMPI DUP1 PUSH4 0x26140D16 EQ PUSH2 0x4E6 JUMPI DUP1 PUSH4 0x313CE567 EQ PUSH2 0x506 JUMPI DUP1 PUSH4 0x39509351 EQ PUSH2 0x522 JUMPI PUSH1 0x0 DUP1 REVERT JUMPDEST DUP1 PUSH4 0x18160DDD EQ PUSH2 0x481 JUMPI DUP1 PUSH4 0x1D55513B EQ PUSH2 0x496 JUMPI DUP1 PUSH4 0x23B872DD EQ PUSH2 0x4C6 JUMPI PUSH1 0x0 DUP1 REVERT JUMPDEST DUP1 PUSH4 0x95EA7B3 GT PUSH2 0x312 JUMPI DUP1 PUSH4 0x95EA7B3 EQ PUSH2 0x3AF JUMPI DUP1 PUSH4 0xA36495E EQ PUSH2 0x3CF JUMPI DUP1 PUSH4 0x150B7A02 EQ PUSH2 0x40C JUMPI PUSH1 0x0 DUP1 REVERT JUMPDEST DUP1 PUSH4 0x1FFC9A7 EQ PUSH2 0x339 JUMPI DUP1 PUSH4 0x6FDDE03 EQ PUSH2 0x36E JUMPI DUP1 PUSH4 0x8D18169 EQ PUSH2 0x390 JUMPI JUMPDEST PUSH1 0x0 DUP1 REVERT JUMPDEST CALLVALUE DUP1 ISZERO PUSH2 0x345 JUMPI PUSH1 0x0 DUP1 REVERT JUMPDEST POP PUSH2 0x359 PUSH2 0x354 CALLDATASIZE PUSH1 0x4 PUSH2 0x4354 JUMP JUMPDEST PUSH2 0xB55 JUMP JUMPDEST PUSH1 0x40 MLOAD SWAP1 ISZERO ISZERO DUP2 MSTORE PUSH1 0x20 ADD JUMPDEST PUSH1 0x40 MLOAD DUP1 SWAP2 SUB SWAP1 RETURN JUMPDEST CALLVALUE DUP1 ISZERO PUSH2 0x37A JUMPI PUSH1 0x0 DUP1 REVERT JUMPDEST POP PUSH2 0x383 PUSH2 0xC95 JUMP JUMPDEST PUSH1 0x40 MLOAD PUSH2 0x365 SWAP2 SWAP1 PUSH2 0x44FE JUMP JUMPDEST CALLVALUE DUP1 ISZERO PUSH2 0x39C JUMPI PUSH1 0x0 DUP1 REVERT JUMPDEST POP PUSH1 0x15 SLOAD JUMPDEST PUSH1 0x40 MLOAD SWAP1 DUP2 MSTORE PUSH1 0x20 ADD PUSH2 0x365 JUMP JUMPDEST CALLVALUE DUP1 ISZERO PUSH2 0x3BB JUMPI PUSH1 0x0 DUP1 REVERT JUMPDEST POP PUSH2 0x359 PUSH2 0x3CA CALLDATASIZE PUSH1 0x4 PUSH2 0x4255 JUMP JUMPDEST PUSH2 0xD27 JUMP JUMPDEST CALLVALUE DUP1 ISZERO PUSH2 0x3DB JUMPI PUSH1 0x0 DUP1 REVERT JUMPDEST POP PUSH1 0x0 DUP1 MSTORE PUSH1 0x11 PUSH1 0x20 MSTORE PUSH32 0x4AD3B33220DDDC71B994A52D72C06B10862965F7D926534C05C00FB7E819E7B9 SLOAD PUSH2 0x3A1 JUMP JUMPDEST CALLVALUE DUP1 ISZERO PUSH2 0x418 JUMPI PUSH1 0x0 DUP1 REVERT JUMPDEST POP PUSH2 0x450 PUSH2 0x427 CALLDATASIZE PUSH1 0x4 PUSH2 0x40F7 JUMP JUMPDEST PUSH32 0x150B7A0200000000000000000000000000000000000000000000000000000000 SWAP5 SWAP4 POP POP POP POP JUMP JUMPDEST PUSH1 0x40 MLOAD PUSH32 0xFFFFFFFF00000000000000000000000000000000000000000000000000000000 SWAP1 SWAP2 AND DUP2 MSTORE PUSH1 0x20 ADD PUSH2 0x365 JUMP JUMPDEST CALLVALUE DUP1 ISZERO PUSH2 0x48D JUMPI PUSH1 0x0 DUP1 REVERT JUMPDEST POP PUSH1 0x2 SLOAD PUSH2 0x3A1 JUMP JUMPDEST CALLVALUE DUP1 ISZERO PUSH2 0x4A2 JUMPI PUSH1 0x0 DUP1 REVERT JUMPDEST POP PUSH2 0x3A1 PUSH2 0x4B1 CALLDATASIZE PUSH1 0x4 PUSH2 0x4396 JUMP JUMPDEST PUSH1 0x0 SWAP1 DUP2 MSTORE PUSH1 0x11 PUSH1 0x20 MSTORE PUSH1 0x40 SWAP1 KECCAK256 PUSH1 0x2 ADD SLOAD SWAP1 JUMP JUMPDEST CALLVALUE DUP1 ISZERO PUSH2 0x4D2 JUMPI PUSH1 0x0 DUP1 REVERT JUMPDEST POP PUSH2 0x359 PUSH2 0x4E1 CALLDATASIZE PUSH1 0x4 PUSH2 0x40B6 JUMP JUMPDEST PUSH2 0xD3D JUMP JUMPDEST CALLVALUE DUP1 ISZERO PUSH2 0x4F2 JUMPI PUSH1 0x0 DUP1 REVERT JUMPDEST POP PUSH2 0x3A1 PUSH2 0x501 CALLDATASIZE PUSH1 0x4 PUSH2 0x42C3 JUMP JUMPDEST PUSH2 0xE4D JUMP JUMPDEST CALLVALUE DUP1 ISZERO PUSH2 0x512 JUMPI PUSH1 0x0 DUP1 REVERT JUMPDEST POP PUSH1 0x40 MLOAD PUSH1 0x12 DUP2 MSTORE PUSH1 0x20 ADD PUSH2 0x365 JUMP JUMPDEST CALLVALUE DUP1 ISZERO PUSH2 0x52E JUMPI PUSH1 0x0 DUP1 REVERT JUMPDEST POP PUSH2 0x359 PUSH2 0x53D CALLDATASIZE PUSH1 0x4 PUSH2 0x4255 JUMP JUMPDEST PUSH2 0x1037 JUMP JUMPDEST CALLVALUE DUP1 ISZERO PUSH2 0x54E JUMPI PUSH1 0x0 DUP1 REVERT JUMPDEST POP PUSH2 0x3A1 PUSH2 0x55D CALLDATASIZE PUSH1 0x4 PUSH2 0x3FB2 JUMP JUMPDEST PUSH2 0x1080 JUMP JUMPDEST CALLVALUE DUP1 ISZERO PUSH2 0x56E JUMPI PUSH1 0x0 DUP1 REVERT JUMPDEST POP PUSH2 0x359 PUSH2 0x57D CALLDATASIZE PUSH1 0x4 PUSH2 0x3FB2 JUMP JUMPDEST PUSH2 0x10DA JUMP JUMPDEST CALLVALUE DUP1 ISZERO PUSH2 0x58E JUMPI PUSH1 0x0 DUP1 REVERT JUMPDEST POP CALLER PUSH1 0x0 SWAP1 DUP2 MSTORE PUSH1 0x13 PUSH1 0x20 MSTORE PUSH1 0x40 SWAP1 KECCAK256 SLOAD PUSH2 0x3A1 JUMP JUMPDEST CALLVALUE DUP1 ISZERO PUSH2 0x5B0 JUMPI PUSH1 0x0 DUP1 REVERT JUMPDEST POP PUSH1 0x14 SLOAD PUSH2 0x3A1 JUMP JUMPDEST CALLVALUE DUP1 ISZERO PUSH2 0x5C5 JUMPI PUSH1 0x0 DUP1 REVERT JUMPDEST POP PUSH2 0x5D9 PUSH2 0x5D4 CALLDATASIZE PUSH1 0x4 PUSH2 0x4396 JUMP JUMPDEST PUSH2 0x1152 JUMP JUMPDEST STOP JUMPDEST CALLVALUE DUP1 ISZERO PUSH2 0x5E7 JUMPI PUSH1 0x0 DUP1 REVERT JUMPDEST POP PUSH2 0x3A1 PUSH2 0x5F6 CALLDATASIZE PUSH1 0x4 PUSH2 0x41CC JUMP JUMPDEST PUSH2 0x1404 JUMP JUMPDEST CALLVALUE DUP1 ISZERO PUSH2 0x607 JUMPI PUSH1 0x0 DUP1 REVERT JUMPDEST POP PUSH2 0x3A1 PUSH2 0x616 CALLDATASIZE PUSH1 0x4 PUSH2 0x4396 JUMP JUMPDEST PUSH1 0x0 SWAP1 DUP2 MSTORE PUSH1 0x11 PUSH1 0x20 MSTORE PUSH1 0x40 SWAP1 KECCAK256 PUSH1 0x3 ADD SLOAD SWAP1 JUMP JUMPDEST CALLVALUE DUP1 ISZERO PUSH2 0x637 JUMPI PUSH1 0x0 DUP1 REVERT JUMPDEST POP PUSH2 0x3A1 PUSH2 0x646 CALLDATASIZE PUSH1 0x4 PUSH2 0x4396 JUMP JUMPDEST PUSH2 0x1439 JUMP JUMPDEST CALLVALUE DUP1 ISZERO PUSH2 0x657 JUMPI PUSH1 0x0 DUP1 REVERT JUMPDEST POP PUSH2 0x3A1 PUSH2 0x666 CALLDATASIZE PUSH1 0x4 PUSH2 0x3FB2 JUMP JUMPDEST PUSH20 0xFFFFFFFFFFFFFFFFFFFFFFFFFFFFFFFFFFFFFFFF AND PUSH1 0x0 SWAP1 DUP2 MSTORE PUSH1 0x20 DUP2 SWAP1 MSTORE PUSH1 0x40 SWAP1 KECCAK256 SLOAD SWAP1 JUMP JUMPDEST CALLVALUE DUP1 ISZERO PUSH2 0x69A JUMPI PUSH1 0x0 DUP1 REVERT JUMPDEST POP PUSH2 0x3A1 PUSH2 0x6A9 CALLDATASIZE PUSH1 0x4 PUSH2 0x4396 JUMP JUMPDEST PUSH1 0x0 SWAP1 DUP2 MSTORE PUSH1 0x11 PUSH1 0x20 MSTORE PUSH1 0x40 SWAP1 KECCAK256 PUSH1 0x1 ADD SLOAD SWAP1 JUMP JUMPDEST CALLVALUE DUP1 ISZERO PUSH2 0x6CA JUMPI PUSH1 0x0 DUP1 REVERT JUMPDEST POP PUSH2 0x3A1 PUSH2 0x6D9 CALLDATASIZE PUSH1 0x4 PUSH2 0x4396 JUMP JUMPDEST PUSH2 0x1612 JUMP JUMPDEST CALLVALUE DUP1 ISZERO PUSH2 0x6EA JUMPI PUSH1 0x0 DUP1 REVERT JUMPDEST POP PUSH1 0x0 DUP1 MSTORE PUSH1 0x11 PUSH1 0x20 MSTORE PUSH32 0x4AD3B33220DDDC71B994A52D72C06B10862965F7D926534C05C00FB7E819E7BA SLOAD PUSH2 0x3A1 JUMP JUMPDEST CALLVALUE DUP1 ISZERO PUSH2 0x727 JUMPI PUSH1 0x0 DUP1 REVERT JUMPDEST POP PUSH1 0x0 DUP1 MSTORE PUSH1 0x11 PUSH1 0x20 MSTORE PUSH32 0x4AD3B33220DDDC71B994A52D72C06B10862965F7D926534C05C00FB7E819E7B8 SLOAD PUSH2 0x3A1 JUMP JUMPDEST PUSH2 0x359 PUSH2 0x174D JUMP JUMPDEST CALLVALUE DUP1 ISZERO PUSH2 0x76C JUMPI PUSH1 0x0 DUP1 REVERT JUMPDEST POP PUSH2 0x3A1 PUSH2 0x77B CALLDATASIZE PUSH1 0x4 PUSH2 0x43C8 JUMP JUMPDEST PUSH2 0x1897 JUMP JUMPDEST CALLVALUE DUP1 ISZERO PUSH2 0x78C JUMPI PUSH1 0x0 DUP1 REVERT JUMPDEST POP PUSH2 0x3A1 PUSH2 0x79B CALLDATASIZE PUSH1 0x4 PUSH2 0x3FB2 JUMP JUMPDEST PUSH20 0xFFFFFFFFFFFFFFFFFFFFFFFFFFFFFFFFFFFFFFFF AND PUSH1 0x0 SWAP1 DUP2 MSTORE PUSH1 0x12 PUSH1 0x20 MSTORE PUSH1 0x40 SWAP1 KECCAK256 SLOAD SWAP1 JUMP JUMPDEST CALLVALUE DUP1 ISZERO PUSH2 0x7CF JUMPI PUSH1 0x0 DUP1 REVERT JUMPDEST POP PUSH2 0x383 PUSH2 0x18C1 JUMP JUMPDEST CALLVALUE DUP1 ISZERO PUSH2 0x7E4 JUMPI PUSH1 0x0 DUP1 REVERT JUMPDEST POP PUSH2 0x3A1 PUSH2 0x7F3 CALLDATASIZE PUSH1 0x4 PUSH2 0x42F8 JUMP JUMPDEST PUSH2 0x18D0 JUMP JUMPDEST CALLVALUE DUP1 ISZERO PUSH2 0x804 JUMPI PUSH1 0x0 DUP1 REVERT JUMPDEST POP PUSH2 0x359 PUSH2 0x813 CALLDATASIZE PUSH1 0x4 PUSH2 0x4255 JUMP JUMPDEST PUSH2 0x18FC JUMP JUMPDEST CALLVALUE DUP1 ISZERO PUSH2 0x824 JUMPI PUSH1 0x0 DUP1 REVERT JUMPDEST POP PUSH2 0x359 PUSH2 0x833 CALLDATASIZE PUSH1 0x4 PUSH2 0x4255 JUMP JUMPDEST PUSH2 0x19D4 JUMP JUMPDEST CALLVALUE DUP1 ISZERO PUSH2 0x844 JUMPI PUSH1 0x0 DUP1 REVERT JUMPDEST POP PUSH2 0x3A1 PUSH2 0x853 CALLDATASIZE PUSH1 0x4 PUSH2 0x4396 JUMP JUMPDEST PUSH2 0x19E1 JUMP JUMPDEST CALLVALUE DUP1 ISZERO PUSH2 0x864 JUMPI PUSH1 0x0 DUP1 REVERT JUMPDEST POP CALLER PUSH1 0x0 SWAP1 DUP2 MSTORE PUSH1 0x16 PUSH1 0x20 MSTORE PUSH1 0x40 SWAP1 KECCAK256 SLOAD PUSH1 0xFF AND PUSH2 0x359 JUMP JUMPDEST CALLVALUE DUP1 ISZERO PUSH2 0x889 JUMPI PUSH1 0x0 DUP1 REVERT JUMPDEST POP PUSH2 0x450 PUSH2 0x898 CALLDATASIZE PUSH1 0x4 PUSH2 0x4008 JUMP JUMPDEST PUSH32 0xBC197C8100000000000000000000000000000000000000000000000000000000 SWAP6 SWAP5 POP POP POP POP POP JUMP JUMPDEST CALLVALUE DUP1 ISZERO PUSH2 0x8CE JUMPI PUSH1 0x0 DUP1 REVERT JUMPDEST POP PUSH2 0x5D9 PUSH2 0x8DD CALLDATASIZE PUSH1 0x4 PUSH2 0x4396 JUMP JUMPDEST PUSH2 0x19EE JUMP JUMPDEST CALLVALUE DUP1 ISZERO PUSH2 0x8EE JUMPI PUSH1 0x0 DUP1 REVERT JUMPDEST POP PUSH2 0x5D9 PUSH2 0x8FD CALLDATASIZE PUSH1 0x4 PUSH2 0x4396 JUMP JUMPDEST PUSH2 0x1BD7 JUMP JUMPDEST CALLVALUE DUP1 ISZERO PUSH2 0x90E JUMPI PUSH1 0x0 DUP1 REVERT JUMPDEST POP PUSH2 0x359 PUSH2 0x91D CALLDATASIZE PUSH1 0x4 PUSH2 0x3FB2 JUMP JUMPDEST PUSH20 0xFFFFFFFFFFFFFFFFFFFFFFFFFFFFFFFFFFFFFFFF AND PUSH1 0x0 SWAP1 DUP2 MSTORE PUSH1 0x16 PUSH1 0x20 MSTORE PUSH1 0x40 SWAP1 KECCAK256 SLOAD PUSH1 0xFF AND SWAP1 JUMP JUMPDEST CALLVALUE DUP1 ISZERO PUSH2 0x954 JUMPI PUSH1 0x0 DUP1 REVERT JUMPDEST POP PUSH2 0x3A1 PUSH2 0x963 CALLDATASIZE PUSH1 0x4 PUSH2 0x4412 JUMP JUMPDEST PUSH2 0x1D6B JUMP JUMPDEST CALLVALUE DUP1 ISZERO PUSH2 0x974 JUMPI PUSH1 0x0 DUP1 REVERT JUMPDEST POP PUSH2 0x3A1 PUSH2 0x983 CALLDATASIZE PUSH1 0x4 PUSH2 0x43ED JUMP JUMPDEST PUSH2 0x1F60 JUMP JUMPDEST CALLVALUE DUP1 ISZERO PUSH2 0x994 JUMPI PUSH1 0x0 DUP1 REVERT JUMPDEST POP PUSH2 0x5D9 PUSH2 0x9A3 CALLDATASIZE PUSH1 0x4 PUSH2 0x4396 JUMP JUMPDEST PUSH2 0x2148 JUMP JUMPDEST CALLVALUE DUP1 ISZERO PUSH2 0x9B4 JUMPI PUSH1 0x0 DUP1 REVERT JUMPDEST POP PUSH2 0x5D9 PUSH2 0x9C3 CALLDATASIZE PUSH1 0x4 PUSH2 0x4396 JUMP JUMPDEST PUSH2 0x228D JUMP JUMPDEST CALLVALUE DUP1 ISZERO PUSH2 0x9D4 JUMPI PUSH1 0x0 DUP1 REVERT JUMPDEST POP PUSH2 0x3A1 PUSH2 0x9E3 CALLDATASIZE PUSH1 0x4 PUSH2 0x3FCF JUMP JUMPDEST PUSH20 0xFFFFFFFFFFFFFFFFFFFFFFFFFFFFFFFFFFFFFFFF SWAP2 DUP3 AND PUSH1 0x0 SWAP1 DUP2 MSTORE PUSH1 0x1 PUSH1 0x20 SWAP1 DUP2 MSTORE PUSH1 0x40 DUP1 DUP4 KECCAK256 SWAP4 SWAP1 SWAP5 AND DUP3 MSTORE SWAP2 SWAP1 SWAP2 MSTORE KECCAK256 SLOAD SWAP1 JUMP JUMPDEST CALLVALUE DUP1 ISZERO PUSH2 0xA27 JUMPI PUSH1 0x0 DUP1 REVERT JUMPDEST POP PUSH1 0x5 SLOAD PUSH1 0x40 MLOAD PUSH20 0xFFFFFFFFFFFFFFFFFFFFFFFFFFFFFFFFFFFFFFFF SWAP1 SWAP2 AND DUP2 MSTORE PUSH1 0x20 ADD PUSH2 0x365 JUMP JUMPDEST CALLVALUE DUP1 ISZERO PUSH2 0xA5C JUMPI PUSH1 0x0 DUP1 REVERT JUMPDEST POP PUSH2 0x3A1 PUSH2 0xA6B CALLDATASIZE PUSH1 0x4 PUSH2 0x4281 JUMP JUMPDEST PUSH2 0x2427 JUMP JUMPDEST CALLVALUE DUP1 ISZERO PUSH2 0xA7C JUMPI PUSH1 0x0 DUP1 REVERT JUMPDEST POP PUSH2 0x3A1 PUSH2 0xA8B CALLDATASIZE PUSH1 0x4 PUSH2 0x4439 JUMP JUMPDEST PUSH2 0x245A JUMP JUMPDEST CALLVALUE DUP1 ISZERO PUSH2 0xA9C JUMPI PUSH1 0x0 DUP1 REVERT JUMPDEST POP PUSH2 0x3A1 PUSH2 0xAAB CALLDATASIZE PUSH1 0x4 PUSH2 0x4281 JUMP JUMPDEST PUSH2 0x2466 JUMP JUMPDEST CALLVALUE DUP1 ISZERO PUSH2 0xABC JUMPI PUSH1 0x0 DUP1 REVERT JUMPDEST POP PUSH2 0x450 PUSH2 0xACB CALLDATASIZE PUSH1 0x4 PUSH2 0x4163 JUMP JUMPDEST PUSH32 0xF23A6E6100000000000000000000000000000000000000000000000000000000 SWAP6 SWAP5 POP POP POP POP POP JUMP JUMPDEST CALLVALUE DUP1 ISZERO PUSH2 0xB01 JUMPI PUSH1 0x0 DUP1 REVERT JUMPDEST POP PUSH2 0x5D9 PUSH2 0xB10 CALLDATASIZE PUSH1 0x4 PUSH2 0x4396 JUMP JUMPDEST PUSH2 0x2491 JUMP JUMPDEST CALLVALUE DUP1 ISZERO PUSH2 0xB21 JUMPI PUSH1 0x0 DUP1 REVERT JUMPDEST POP PUSH2 0x5D9 PUSH2 0xB30 CALLDATASIZE PUSH1 0x4 PUSH2 0x4396 JUMP JUMPDEST PUSH2 0x26AF JUMP JUMPDEST CALLVALUE DUP1 ISZERO PUSH2 0xB41 JUMPI PUSH1 0x0 DUP1 REVERT JUMPDEST POP PUSH2 0x5D9 PUSH2 0xB50 CALLDATASIZE PUSH1 0x4 PUSH2 0x4396 JUMP JUMPDEST PUSH2 0x284A JUMP JUMPDEST PUSH1 0x0 PUSH32 0xFFFFFFFF00000000000000000000000000000000000000000000000000000000 DUP3 AND PUSH32 0x80AC58CD00000000000000000000000000000000000000000000000000000000 EQ DUP1 PUSH2 0xBE8 JUMPI POP PUSH32 0xFFFFFFFF00000000000000000000000000000000000000000000000000000000 DUP3 AND PUSH32 0x5B5E139F00000000000000000000000000000000000000000000000000000000 EQ JUMPDEST DUP1 PUSH2 0xC34 JUMPI POP PUSH32 0xFFFFFFFF00000000000000000000000000000000000000000000000000000000 DUP3 AND PUSH32 0x780E9D6300000000000000000000000000000000000000000000000000000000 EQ JUMPDEST DUP1 PUSH2 0xC80 JUMPI POP PUSH32 0xFFFFFFFF00000000000000000000000000000000000000000000000000000000 DUP3 AND PUSH32 0xD9B67A2600000000000000000000000000000000000000000000000000000000 EQ JUMPDEST DUP1 PUSH2 0xC8F JUMPI POP PUSH2 0xC8F DUP3 PUSH2 0x2A15 JUMP JUMPDEST SWAP3 SWAP2 POP POP JUMP JUMPDEST PUSH1 0x60 PUSH1 0x3 DUP1 SLOAD PUSH2 0xCA4 SWAP1 PUSH2 0x462A JUMP JUMPDEST DUP1 PUSH1 0x1F ADD PUSH1 0x20 DUP1 SWAP2 DIV MUL PUSH1 0x20 ADD PUSH1 0x40 MLOAD SWAP1 DUP2 ADD PUSH1 0x40 MSTORE DUP1 SWAP3 SWAP2 SWAP1 DUP2 DUP2 MSTORE PUSH1 0x20 ADD DUP3 DUP1 SLOAD PUSH2 0xCD0 SWAP1 PUSH2 0x462A JUMP JUMPDEST DUP1 ISZERO PUSH2 0xD1D JUMPI DUP1 PUSH1 0x1F LT PUSH2 0xCF2 JUMPI PUSH2 0x100 DUP1 DUP4 SLOAD DIV MUL DUP4 MSTORE SWAP2 PUSH1 0x20 ADD SWAP2 PUSH2 0xD1D JUMP JUMPDEST DUP3 ADD SWAP2 SWAP1 PUSH1 0x0 MSTORE PUSH1 0x20 PUSH1 0x0 KECCAK256 SWAP1 JUMPDEST DUP2 SLOAD DUP2 MSTORE SWAP1 PUSH1 0x1 ADD SWAP1 PUSH1 0x20 ADD DUP1 DUP4 GT PUSH2 0xD00 JUMPI DUP3 SWAP1 SUB PUSH1 0x1F AND DUP3 ADD SWAP2 JUMPDEST POP POP POP POP POP SWAP1 POP SWAP1 JUMP JUMPDEST PUSH1 0x0 PUSH2 0xD34 CALLER DUP5 DUP5 PUSH2 0x2AAC JUMP JUMPDEST POP PUSH1 0x1 SWAP3 SWAP2 POP POP JUMP JUMPDEST PUSH20 0xFFFFFFFFFFFFFFFFFFFFFFFFFFFFFFFFFFFFFFFF DUP4 AND PUSH1 0x0 SWAP1 DUP2 MSTORE PUSH1 0x1 PUSH1 0x20 SWAP1 DUP2 MSTORE PUSH1 0x40 DUP1 DUP4 KECCAK256 CALLER DUP5 MSTORE SWAP1 SWAP2 MSTORE DUP2 KECCAK256 SLOAD PUSH32 0xFFFFFFFFFFFFFFFFFFFFFFFFFFFFFFFFFFFFFFFFFFFFFFFFFFFFFFFFFFFFFFFF DUP2 EQ PUSH2 0xE37 JUMPI DUP3 DUP2 LT ISZERO PUSH2 0xE2A JUMPI PUSH1 0x40 MLOAD PUSH32 0x8C379A000000000000000000000000000000000000000000000000000000000 DUP2 MSTORE PUSH1 0x20 PUSH1 0x4 DUP3 ADD MSTORE PUSH1 0x28 PUSH1 0x24 DUP3 ADD MSTORE PUSH32 0x45524332303A207472616E7366657220616D6F756E7420657863656564732061 PUSH1 0x44 DUP3 ADD MSTORE PUSH32 0x6C6C6F77616E6365000000000000000000000000000000000000000000000000 PUSH1 0x64 DUP3 ADD MSTORE PUSH1 0x84 ADD JUMPDEST PUSH1 0x40 MLOAD DUP1 SWAP2 SUB SWAP1 REVERT JUMPDEST PUSH2 0xE37 DUP6 CALLER DUP6 DUP5 SUB PUSH2 0x2AAC JUMP JUMPDEST PUSH2 0xE42 DUP6 DUP6 DUP6 PUSH2 0x2C5F JUMP JUMPDEST POP PUSH1 0x1 SWAP5 SWAP4 POP POP POP POP JUMP JUMPDEST PUSH1 0x1B DUP1 SLOAD PUSH1 0x0 SWAP2 DUP2 SWAP1 DUP4 PUSH2 0xE60 DUP4 PUSH2 0x467E JUMP JUMPDEST SWAP1 SWAP2 SSTORE POP POP PUSH1 0x5 SLOAD PUSH1 0x0 SWAP1 PUSH20 0xFFFFFFFFFFFFFFFFFFFFFFFFFFFFFFFFFFFFFFFF AND PUSH4 0x4A0E2AA1 CALLER PUSH3 0x4C4B40 PUSH2 0xE98 TIMESTAMP PUSH3 0x15180 PUSH2 0x45C0 JUMP JUMPDEST PUSH2 0xEA5 TIMESTAMP PUSH3 0xA8C00 PUSH2 0x45C0 JUMP JUMPDEST PUSH1 0x40 MLOAD PUSH32 0xFFFFFFFF00000000000000000000000000000000000000000000000000000000 PUSH1 0xE0 DUP8 SWAP1 SHL AND DUP2 MSTORE PUSH20 0xFFFFFFFFFFFFFFFFFFFFFFFFFFFFFFFFFFFFFFFF SWAP1 SWAP5 AND PUSH1 0x4 DUP6 ADD MSTORE PUSH1 0x24 DUP5 ADD SWAP3 SWAP1 SWAP3 MSTORE PUSH1 0x44 DUP4 ADD MSTORE PUSH1 0x64 DUP3 ADD MSTORE PUSH1 0x84 ADD PUSH1 0x20 PUSH1 0x40 MLOAD DUP1 DUP4 SUB DUP2 PUSH1 0x0 DUP8 DUP1 EXTCODESIZE ISZERO DUP1 ISZERO PUSH2 0xF1D JUMPI PUSH1 0x0 DUP1 REVERT JUMPDEST POP GAS CALL ISZERO DUP1 ISZERO PUSH2 0xF31 JUMPI RETURNDATASIZE PUSH1 0x0 DUP1 RETURNDATACOPY RETURNDATASIZE PUSH1 0x0 REVERT JUMPDEST POP POP POP POP PUSH1 0x40 MLOAD RETURNDATASIZE PUSH1 0x1F NOT PUSH1 0x1F DUP3 ADD AND DUP3 ADD DUP1 PUSH1 0x40 MSTORE POP DUP2 ADD SWAP1 PUSH2 0xF55 SWAP2 SWAP1 PUSH2 0x43AF JUMP JUMPDEST PUSH1 0x40 DUP1 MLOAD PUSH1 0x80 DUP1 DUP3 ADD DUP4 MSTORE PUSH20 0xFFFFFFFFFFFFFFFFFFFFFFFFFFFFFFFFFFFFFFFF DUP11 DUP2 AND DUP1 DUP5 MSTORE PUSH1 0x20 DUP1 DUP6 ADD DUP13 DUP2 MSTORE DUP6 DUP8 ADD DUP13 DUP2 MSTORE PUSH1 0x60 DUP1 DUP9 ADD DUP11 DUP2 MSTORE PUSH1 0x0 DUP14 DUP2 MSTORE PUSH1 0x17 DUP7 MSTORE DUP11 SWAP1 KECCAK256 SWAP9 MLOAD DUP10 SLOAD PUSH32 0xFFFFFFFFFFFFFFFFFFFFFFFF0000000000000000000000000000000000000000 AND SWAP8 AND SWAP7 SWAP1 SWAP7 OR DUP9 SSTORE SWAP2 MLOAD PUSH1 0x1 DUP9 ADD SSTORE MLOAD PUSH1 0x2 DUP8 ADD SSTORE SWAP3 MLOAD PUSH1 0x3 SWAP1 SWAP6 ADD SWAP5 SWAP1 SWAP5 SSTORE DUP5 MLOAD DUP9 DUP2 MSTORE SWAP4 DUP5 ADD MSTORE SWAP3 DUP3 ADD DUP10 SWAP1 MSTORE SWAP2 DUP2 ADD DUP8 SWAP1 MSTORE SWAP1 DUP2 ADD DUP3 SWAP1 MSTORE SWAP1 SWAP2 POP PUSH32 0x1D17FC23EE270662541F5C2B538E155CA4A87CBB501982116065D55F8058CFE0 SWAP1 PUSH1 0xA0 ADD PUSH1 0x40 MLOAD DUP1 SWAP2 SUB SWAP1 LOG1 POP SWAP5 SWAP4 POP POP POP POP JUMP JUMPDEST CALLER PUSH1 0x0 DUP2 DUP2 MSTORE PUSH1 0x1 PUSH1 0x20 SWAP1 DUP2 MSTORE PUSH1 0x40 DUP1 DUP4 KECCAK256 PUSH20 0xFFFFFFFFFFFFFFFFFFFFFFFFFFFFFFFFFFFFFFFF DUP8 AND DUP5 MSTORE SWAP1 SWAP2 MSTORE DUP2 KECCAK256 SLOAD SWAP1 SWAP2 PUSH2 0xD34 SWAP2 DUP6 SWAP1 PUSH2 0x107B SWAP1 DUP7 SWAP1 PUSH2 0x45C0 JUMP JUMPDEST PUSH2 0x2AAC JUMP JUMPDEST PUSH20 0xFFFFFFFFFFFFFFFFFFFFFFFFFFFFFFFFFFFFFFFF DUP2 AND PUSH1 0x0 SWAP1 DUP2 MSTORE PUSH1 0x13 PUSH1 0x20 MSTORE PUSH1 0x40 DUP2 KECCAK256 SLOAD DUP2 SWAP1 PUSH2 0x10B2 SWAP1 TIMESTAMP PUSH2 0x4613 JUMP JUMPDEST SWAP1 POP PUSH2 0xE10 DUP2 GT ISZERO PUSH2 0x10C7 JUMPI POP PUSH1 0x0 SWAP3 SWAP2 POP POP JUMP JUMPDEST PUSH2 0x10D3 DUP2 PUSH2 0xE10 PUSH2 0x4613 JUMP JUMPDEST SWAP4 SWAP3 POP POP POP JUMP JUMPDEST PUSH20 0xFFFFFFFFFFFFFFFFFFFFFFFFFFFFFFFFFFFFFFFF DUP2 AND PUSH1 0x0 SWAP1 DUP2 MSTORE PUSH1 0x12 PUSH1 0x20 MSTORE PUSH1 0x40 DUP2 KECCAK256 SLOAD ISZERO ISZERO DUP1 PUSH2 0xC8F JUMPI POP POP PUSH1 0x0 DUP1 MSTORE PUSH1 0x11 PUSH1 0x20 MSTORE PUSH32 0x4AD3B33220DDDC71B994A52D72C06B10862965F7D926534C05C00FB7E819E7B7 SLOAD PUSH20 0xFFFFFFFFFFFFFFFFFFFFFFFFFFFFFFFFFFFFFFFF SWAP2 DUP3 AND SWAP2 AND EQ SWAP1 JUMP JUMPDEST PUSH1 0xF SLOAD DUP2 LT PUSH2 0x11BD JUMPI PUSH1 0x40 MLOAD PUSH32 0x8C379A000000000000000000000000000000000000000000000000000000000 DUP2 MSTORE PUSH1 0x20 PUSH1 0x4 DUP3 ADD MSTORE PUSH1 0x10 PUSH1 0x24 DUP3 ADD MSTORE PUSH32 0x4E6F207375636820726571756573742E00000000000000000000000000000000 PUSH1 0x44 DUP3 ADD MSTORE PUSH1 0x64 ADD PUSH2 0xE21 JUMP JUMPDEST PUSH1 0x0 DUP2 DUP2 MSTORE PUSH1 0xA PUSH1 0x20 SWAP1 DUP2 MSTORE PUSH1 0x40 DUP1 DUP4 KECCAK256 DUP2 MLOAD PUSH1 0xA0 DUP2 ADD DUP4 MSTORE DUP2 SLOAD PUSH20 0xFFFFFFFFFFFFFFFFFFFFFFFFFFFFFFFFFFFFFFFF AND DUP2 MSTORE PUSH1 0x1 DUP3 ADD DUP1 SLOAD DUP5 MLOAD DUP2 DUP8 MUL DUP2 ADD DUP8 ADD SWAP1 SWAP6 MSTORE DUP1 DUP6 MSTORE SWAP2 SWAP5 SWAP3 SWAP4 DUP6 DUP5 ADD SWAP4 SWAP1 SWAP3 SWAP1 DUP4 ADD DUP3 DUP3 DUP1 ISZERO PUSH2 0x123F JUMPI PUSH1 0x20 MUL DUP3 ADD SWAP2 SWAP1 PUSH1 0x0 MSTORE PUSH1 0x20 PUSH1 0x0 KECCAK256 SWAP1 JUMPDEST DUP2 SLOAD DUP2 MSTORE PUSH1 0x20 ADD SWAP1 PUSH1 0x1 ADD SWAP1 DUP1 DUP4 GT PUSH2 0x122B JUMPI JUMPDEST POP POP POP POP POP DUP2 MSTORE PUSH1 0x20 ADD PUSH1 0x2 DUP3 ADD DUP1 SLOAD DUP1 PUSH1 0x20 MUL PUSH1 0x20 ADD PUSH1 0x40 MLOAD SWAP1 DUP2 ADD PUSH1 0x40 MSTORE DUP1 SWAP3 SWAP2 SWAP1 DUP2 DUP2 MSTORE PUSH1 0x20 ADD DUP3 DUP1 SLOAD DUP1 ISZERO PUSH2 0x1297 JUMPI PUSH1 0x20 MUL DUP3 ADD SWAP2 SWAP1 PUSH1 0x0 MSTORE PUSH1 0x20 PUSH1 0x0 KECCAK256 SWAP1 JUMPDEST DUP2 SLOAD DUP2 MSTORE PUSH1 0x20 ADD SWAP1 PUSH1 0x1 ADD SWAP1 DUP1 DUP4 GT PUSH2 0x1283 JUMPI JUMPDEST POP POP POP SWAP2 DUP4 MSTORE POP POP PUSH1 0x3 DUP3 ADD SLOAD PUSH20 0xFFFFFFFFFFFFFFFFFFFFFFFFFFFFFFFFFFFFFFFF SWAP1 DUP2 AND PUSH1 0x20 DUP4 ADD MSTORE PUSH1 0x4 SWAP3 DUP4 ADD SLOAD PUSH1 0x40 SWAP3 DUP4 ADD MSTORE PUSH1 0x5 SLOAD PUSH1 0x80 DUP6 ADD MLOAD SWAP3 MLOAD PUSH32 0x85AA033D00000000000000000000000000000000000000000000000000000000 DUP2 MSTORE SWAP4 DUP5 ADD SWAP3 SWAP1 SWAP3 MSTORE CALLER PUSH1 0x24 DUP5 ADD MSTORE SWAP3 SWAP4 POP SWAP1 SWAP2 AND SWAP1 PUSH4 0x85AA033D SWAP1 PUSH1 0x44 ADD PUSH1 0x20 PUSH1 0x40 MLOAD DUP1 DUP4 SUB DUP2 PUSH1 0x0 DUP8 DUP1 EXTCODESIZE ISZERO DUP1 ISZERO PUSH2 0x1331 JUMPI PUSH1 0x0 DUP1 REVERT JUMPDEST POP GAS CALL ISZERO DUP1 ISZERO PUSH2 0x1345 JUMPI RETURNDATASIZE PUSH1 0x0 DUP1 RETURNDATACOPY RETURNDATASIZE PUSH1 0x0 REVERT JUMPDEST POP POP POP POP PUSH1 0x40 MLOAD RETURNDATASIZE PUSH1 0x1F NOT PUSH1 0x1F DUP3 ADD AND DUP3 ADD DUP1 PUSH1 0x40 MSTORE POP DUP2 ADD SWAP1 PUSH2 0x1369 SWAP2 SWAP1 PUSH2 0x4337 JUMP JUMPDEST POP DUP1 MLOAD PUSH1 0x60 DUP3 ADD MLOAD PUSH1 0x20 DUP4 ADD MLOAD PUSH1 0x40 DUP1 DUP6 ADD MLOAD SWAP1 MLOAD PUSH32 0x2EB2C2D600000000000000000000000000000000000000000000000000000000 DUP2 MSTORE PUSH20 0xFFFFFFFFFFFFFFFFFFFFFFFFFFFFFFFFFFFFFFFF DUP6 AND SWAP4 PUSH4 0x2EB2C2D6 SWAP4 PUSH2 0x13CD SWAP4 ADDRESS SWAP4 PUSH1 0x4 ADD PUSH2 0x4496 JUMP JUMPDEST PUSH1 0x0 PUSH1 0x40 MLOAD DUP1 DUP4 SUB DUP2 PUSH1 0x0 DUP8 DUP1 EXTCODESIZE ISZERO DUP1 ISZERO PUSH2 0x13E7 JUMPI PUSH1 0x0 DUP1 REVERT JUMPDEST POP GAS CALL ISZERO DUP1 ISZERO PUSH2 0x13FB JUMPI RETURNDATASIZE PUSH1 0x0 DUP1 RETURNDATACOPY RETURNDATASIZE PUSH1 0x0 REVERT JUMPDEST POP POP POP POP POP POP POP JUMP JUMPDEST PUSH1 0x0 PUSH2 0x1430 DUP6 DUP6 DUP6 PUSH3 0x4C4B40 DUP7 PUSH2 0x141E TIMESTAMP PUSH3 0x15180 PUSH2 0x45C0 JUMP JUMPDEST PUSH2 0x142B TIMESTAMP PUSH3 0x2A300 PUSH2 0x45C0 JUMP JUMPDEST PUSH2 0x2F12 JUMP JUMPDEST SWAP6 SWAP5 POP POP POP POP POP JUMP JUMPDEST PUSH1 0x0 PUSH1 0x1B SLOAD DUP3 LT PUSH2 0x14A6 JUMPI PUSH1 0x40 MLOAD PUSH32 0x8C379A000000000000000000000000000000000000000000000000000000000 DUP2 MSTORE PUSH1 0x20 PUSH1 0x4 DUP3 ADD MSTORE PUSH1 0x10 PUSH1 0x24 DUP3 ADD MSTORE PUSH32 0x4E6F207375636820726571756573742E00000000000000000000000000000000 PUSH1 0x44 DUP3 ADD MSTORE PUSH1 0x64 ADD PUSH2 0xE21 JUMP JUMPDEST PUSH1 0x0 DUP3 DUP2 MSTORE PUSH1 0x17 PUSH1 0x20 SWAP1 DUP2 MSTORE PUSH1 0x40 SWAP2 DUP3 SWAP1 KECCAK256 DUP3 MLOAD PUSH1 0x80 DUP2 ADD DUP5 MSTORE DUP2 SLOAD PUSH20 0xFFFFFFFFFFFFFFFFFFFFFFFFFFFFFFFFFFFFFFFF SWAP1 DUP2 AND DUP3 MSTORE PUSH1 0x1 DUP4 ADD SLOAD SWAP4 DUP3 ADD SWAP4 SWAP1 SWAP4 MSTORE PUSH1 0x2 DUP3 ADD SLOAD DUP2 DUP6 ADD MSTORE PUSH1 0x3 SWAP1 SWAP2 ADD SLOAD PUSH1 0x60 DUP3 ADD DUP2 SWAP1 MSTORE PUSH1 0x5 SLOAD SWAP4 MLOAD PUSH32 0x85AA033D00000000000000000000000000000000000000000000000000000000 DUP2 MSTORE PUSH1 0x4 DUP2 ADD SWAP2 SWAP1 SWAP2 MSTORE CALLER PUSH1 0x24 DUP3 ADD MSTORE SWAP1 SWAP3 SWAP1 SWAP2 AND SWAP1 PUSH4 0x85AA033D SWAP1 PUSH1 0x44 ADD PUSH1 0x20 PUSH1 0x40 MLOAD DUP1 DUP4 SUB DUP2 PUSH1 0x0 DUP8 DUP1 EXTCODESIZE ISZERO DUP1 ISZERO PUSH2 0x155D JUMPI PUSH1 0x0 DUP1 REVERT JUMPDEST POP GAS CALL ISZERO DUP1 ISZERO PUSH2 0x1571 JUMPI RETURNDATASIZE PUSH1 0x0 DUP1 RETURNDATACOPY RETURNDATASIZE PUSH1 0x0 REVERT JUMPDEST POP POP POP POP PUSH1 0x40 MLOAD RETURNDATASIZE PUSH1 0x1F NOT PUSH1 0x1F DUP3 ADD AND DUP3 ADD DUP1 PUSH1 0x40 MSTORE POP DUP2 ADD SWAP1 PUSH2 0x1595 SWAP2 SWAP1 PUSH2 0x4337 JUMP JUMPDEST POP PUSH1 0x0 PUSH2 0x15AF DUP3 PUSH1 0x0 ADD MLOAD DUP4 PUSH1 0x20 ADD MLOAD DUP5 PUSH1 0x40 ADD MLOAD PUSH2 0x30FC JUMP JUMPDEST DUP3 MLOAD PUSH1 0x40 DUP1 MLOAD DUP4 DUP2 MSTORE PUSH1 0x20 DUP2 ADD DUP9 SWAP1 MSTORE PUSH20 0xFFFFFFFFFFFFFFFFFFFFFFFFFFFFFFFFFFFFFFFF SWAP1 SWAP3 AND SWAP1 DUP3 ADD MSTORE SWAP1 SWAP2 POP PUSH32 0x78876FF03ABDDC92B8DF7FD42C0865EE2BB3DECC2D9411ADE07A5B6FCD8079CF SWAP1 PUSH1 0x60 ADD PUSH1 0x40 MLOAD DUP1 SWAP2 SUB SWAP1 LOG1 SWAP4 SWAP3 POP POP POP JUMP JUMPDEST PUSH1 0x1D DUP1 SLOAD PUSH1 0x0 SWAP2 DUP2 SWAP1 DUP4 PUSH2 0x1625 DUP4 PUSH2 0x467E JUMP JUMPDEST SWAP1 SWAP2 SSTORE POP POP PUSH1 0x5 SLOAD PUSH1 0x0 SWAP1 PUSH20 0xFFFFFFFFFFFFFFFFFFFFFFFFFFFFFFFFFFFFFFFF AND PUSH4 0x4A0E2AA1 CALLER PUSH3 0x4C4B40 PUSH2 0x165D TIMESTAMP PUSH3 0x15180 PUSH2 0x45C0 JUMP JUMPDEST PUSH2 0x166A TIMESTAMP PUSH3 0xA8C00 PUSH2 0x45C0 JUMP JUMPDEST PUSH1 0x40 MLOAD PUSH32 0xFFFFFFFF00000000000000000000000000000000000000000000000000000000 PUSH1 0xE0 DUP8 SWAP1 SHL AND DUP2 MSTORE PUSH20 0xFFFFFFFFFFFFFFFFFFFFFFFFFFFFFFFFFFFFFFFF SWAP1 SWAP5 AND PUSH1 0x4 DUP6 ADD MSTORE PUSH1 0x24 DUP5 ADD SWAP3 SWAP1 SWAP3 MSTORE PUSH1 0x44 DUP4 ADD MSTORE PUSH1 0x64 DUP3 ADD MSTORE PUSH1 0x84 ADD PUSH1 0x20 PUSH1 0x40 MLOAD DUP1 DUP4 SUB DUP2 PUSH1 0x0 DUP8 DUP1 EXTCODESIZE ISZERO DUP1 ISZERO PUSH2 0x16E2 JUMPI PUSH1 0x0 DUP1 REVERT JUMPDEST POP GAS CALL ISZERO DUP1 ISZERO PUSH2 0x16F6 JUMPI RETURNDATASIZE PUSH1 0x0 DUP1 RETURNDATACOPY RETURNDATASIZE PUSH1 0x0 REVERT JUMPDEST POP POP POP POP PUSH1 0x40 MLOAD RETURNDATASIZE PUSH1 0x1F NOT PUSH1 0x1F DUP3 ADD AND DUP3 ADD DUP1 PUSH1 0x40 MSTORE POP DUP2 ADD SWAP1 PUSH2 0x171A SWAP2 SWAP1 PUSH2 0x43AF JUMP JUMPDEST PUSH1 0x40 DUP1 MLOAD DUP1 DUP3 ADD DUP3 MSTORE SWAP6 DUP7 MSTORE PUSH1 0x20 DUP1 DUP8 ADD SWAP3 DUP4 MSTORE PUSH1 0x0 DUP6 DUP2 MSTORE PUSH1 0x19 SWAP1 SWAP2 MSTORE KECCAK256 SWAP5 MLOAD DUP6 SSTORE MLOAD PUSH1 0x1 SWAP1 SWAP5 ADD SWAP4 SWAP1 SWAP4 SSTORE SWAP3 SWAP2 POP POP JUMP JUMPDEST CALLER PUSH1 0x0 SWAP1 DUP2 MSTORE PUSH1 0x16 PUSH1 0x20 MSTORE PUSH1 0x40 DUP2 KECCAK256 SLOAD PUSH1 0xFF AND ISZERO PUSH2 0x17ED JUMPI PUSH1 0x40 MLOAD PUSH32 0x8C379A000000000000000000000000000000000000000000000000000000000 DUP2 MSTORE PUSH1 0x20 PUSH1 0x4 DUP3 ADD MSTORE PUSH1 0x21 PUSH1 0x24 DUP3 ADD MSTORE PUSH32 0x5468697320736D69746820697320616C72656164792072656769737465726564 PUSH1 0x44 DUP3 ADD MSTORE PUSH32 0x2E00000000000000000000000000000000000000000000000000000000000000 PUSH1 0x64 DUP3 ADD MSTORE PUSH1 0x84 ADD PUSH2 0xE21 JUMP JUMPDEST PUSH1 0x15 SLOAD CALLVALUE EQ PUSH2 0x1858 JUMPI PUSH1 0x40 MLOAD PUSH32 0x8C379A000000000000000000000000000000000000000000000000000000000 DUP2 MSTORE PUSH1 0x20 PUSH1 0x4 DUP3 ADD MSTORE PUSH1 0xE PUSH1 0x24 DUP3 ADD MSTORE PUSH32 0x496E636F7272656374206665652E000000000000000000000000000000000000 PUSH1 0x44 DUP3 ADD MSTORE PUSH1 0x64 ADD PUSH2 0xE21 JUMP JUMPDEST POP CALLER PUSH1 0x0 SWAP1 DUP2 MSTORE PUSH1 0x16 PUSH1 0x20 MSTORE PUSH1 0x40 SWAP1 KECCAK256 DUP1 SLOAD PUSH32 0xFFFFFFFFFFFFFFFFFFFFFFFFFFFFFFFFFFFFFFFFFFFFFFFFFFFFFFFFFFFFFF00 AND PUSH1 0x1 SWAP1 DUP2 OR SWAP1 SWAP2 SSTORE SWAP1 JUMP JUMPDEST PUSH1 0x0 PUSH2 0x10D3 DUP4 PUSH3 0x4C4B40 DUP5 PUSH2 0x18AF TIMESTAMP PUSH3 0x15180 PUSH2 0x45C0 JUMP JUMPDEST PUSH2 0x18BC TIMESTAMP PUSH3 0x2A300 PUSH2 0x45C0 JUMP JUMPDEST PUSH2 0x3252 JUMP JUMPDEST PUSH1 0x60 PUSH1 0x4 DUP1 SLOAD PUSH2 0xCA4 SWAP1 PUSH2 0x462A JUMP JUMPDEST PUSH1 0x0 PUSH2 0x1430 DUP6 DUP6 DUP6 PUSH3 0x4C4B40 DUP7 PUSH2 0x18EA TIMESTAMP PUSH3 0x15180 PUSH2 0x45C0 JUMP JUMPDEST PUSH2 0x18F7 TIMESTAMP PUSH3 0x2A300 PUSH2 0x45C0 JUMP JUMPDEST PUSH2 0x33E6 JUMP JUMPDEST CALLER PUSH1 0x0 SWAP1 DUP2 MSTORE PUSH1 0x1 PUSH1 0x20 SWAP1 DUP2 MSTORE PUSH1 0x40 DUP1 DUP4 KECCAK256 PUSH20 0xFFFFFFFFFFFFFFFFFFFFFFFFFFFFFFFFFFFFFFFF DUP7 AND DUP5 MSTORE SWAP1 SWAP2 MSTORE DUP2 KECCAK256 SLOAD DUP3 DUP2 LT ISZERO PUSH2 0x19BD JUMPI PUSH1 0x40 MLOAD PUSH32 0x8C379A000000000000000000000000000000000000000000000000000000000 DUP2 MSTORE PUSH1 0x20 PUSH1 0x4 DUP3 ADD MSTORE PUSH1 0x25 PUSH1 0x24 DUP3 ADD MSTORE PUSH32 0x45524332303A2064656372656173656420616C6C6F77616E63652062656C6F77 PUSH1 0x44 DUP3 ADD MSTORE PUSH32 0x207A65726F000000000000000000000000000000000000000000000000000000 PUSH1 0x64 DUP3 ADD MSTORE PUSH1 0x84 ADD PUSH2 0xE21 JUMP JUMPDEST PUSH2 0x19CA CALLER DUP6 DUP6 DUP5 SUB PUSH2 0x2AAC JUMP JUMPDEST POP PUSH1 0x1 SWAP4 SWAP3 POP POP POP JUMP JUMPDEST PUSH1 0x0 PUSH2 0xD34 CALLER DUP5 DUP5 PUSH2 0x2C5F JUMP JUMPDEST PUSH1 0x0 PUSH2 0xC8F PUSH1 0x0 DUP4 PUSH2 0x356D JUMP JUMPDEST PUSH1 0xE SLOAD DUP2 LT PUSH2 0x1A59 JUMPI PUSH1 0x40 MLOAD PUSH32 0x8C379A000000000000000000000000000000000000000000000000000000000 DUP2 MSTORE PUSH1 0x20 PUSH1 0x4 DUP3 ADD MSTORE PUSH1 0x10 PUSH1 0x24 DUP3 ADD MSTORE PUSH32 0x4E6F207375636820726571756573742E00000000000000000000000000000000 PUSH1 0x44 DUP3 ADD MSTORE PUSH1 0x64 ADD PUSH2 0xE21 JUMP JUMPDEST PUSH1 0x0 DUP2 DUP2 MSTORE PUSH1 0x9 PUSH1 0x20 SWAP1 DUP2 MSTORE PUSH1 0x40 SWAP2 DUP3 SWAP1 KECCAK256 DUP3 MLOAD PUSH1 0xA0 DUP2 ADD DUP5 MSTORE DUP2 SLOAD PUSH20 0xFFFFFFFFFFFFFFFFFFFFFFFFFFFFFFFFFFFFFFFF SWAP1 DUP2 AND DUP3 MSTORE PUSH1 0x1 DUP4 ADD SLOAD SWAP4 DUP3 ADD SWAP4 SWAP1 SWAP4 MSTORE PUSH1 0x2 DUP3 ADD SLOAD DUP2 DUP6 ADD MSTORE PUSH1 0x3 DUP3 ADD SLOAD DUP4 AND PUSH1 0x60 DUP3 ADD MSTORE PUSH1 0x4 SWAP2 DUP3 ADD SLOAD PUSH1 0x80 DUP3 ADD DUP2 SWAP1 MSTORE PUSH1 0x5 SLOAD SWAP5 MLOAD PUSH32 0x85AA033D00000000000000000000000000000000000000000000000000000000 DUP2 MSTORE SWAP3 DUP4 ADD MSTORE CALLER PUSH1 0x24 DUP4 ADD MSTORE SWAP3 SWAP1 SWAP2 AND SWAP1 PUSH4 0x85AA033D SWAP1 PUSH1 0x44 ADD PUSH1 0x20 PUSH1 0x40 MLOAD DUP1 DUP4 SUB DUP2 PUSH1 0x0 DUP8 DUP1 EXTCODESIZE ISZERO DUP1 ISZERO PUSH2 0x1B17 JUMPI PUSH1 0x0 DUP1 REVERT JUMPDEST POP GAS CALL ISZERO DUP1 ISZERO PUSH2 0x1B2B JUMPI RETURNDATASIZE PUSH1 0x0 DUP1 RETURNDATACOPY RETURNDATASIZE PUSH1 0x0 REVERT JUMPDEST POP POP POP POP PUSH1 0x40 MLOAD RETURNDATASIZE PUSH1 0x1F NOT PUSH1 0x1F DUP3 ADD AND DUP3 ADD DUP1 PUSH1 0x40 MSTORE POP DUP2 ADD SWAP1 PUSH2 0x1B4F SWAP2 SWAP1 PUSH2 0x4337 JUMP JUMPDEST POP DUP1 MLOAD PUSH1 0x60 DUP3 ADD MLOAD PUSH1 0x20 DUP4 ADD MLOAD PUSH1 0x40 DUP1 DUP6 ADD MLOAD SWAP1 MLOAD PUSH32 0xF242432A00000000000000000000000000000000000000000000000000000000 DUP2 MSTORE ADDRESS PUSH1 0x4 DUP3 ADD MSTORE PUSH20 0xFFFFFFFFFFFFFFFFFFFFFFFFFFFFFFFFFFFFFFFF SWAP4 DUP5 AND PUSH1 0x24 DUP3 ADD MSTORE PUSH1 0x44 DUP2 ADD SWAP3 SWAP1 SWAP3 MSTORE PUSH1 0x64 DUP3 ADD MSTORE PUSH1 0xA0 PUSH1 0x84 DUP3 ADD MSTORE PUSH1 0x0 PUSH1 0xA4 DUP3 ADD MSTORE SWAP1 DUP3 AND SWAP1 PUSH4 0xF242432A SWAP1 PUSH1 0xC4 ADD PUSH2 0x13CD JUMP JUMPDEST PUSH1 0x1B SLOAD DUP2 LT PUSH2 0x1C42 JUMPI PUSH1 0x40 MLOAD PUSH32 0x8C379A000000000000000000000000000000000000000000000000000000000 DUP2 MSTORE PUSH1 0x20 PUSH1 0x4 DUP3 ADD MSTORE PUSH1 0x10 PUSH1 0x24 DUP3 ADD MSTORE PUSH32 0x4E6F207375636820726571756573742E00000000000000000000000000000000 PUSH1 0x44 DUP3 ADD MSTORE PUSH1 0x64 ADD PUSH2 0xE21 JUMP JUMPDEST PUSH1 0x0 DUP2 DUP2 MSTORE PUSH1 0x18 PUSH1 0x20 SWAP1 DUP2 MSTORE PUSH1 0x40 SWAP2 DUP3 SWAP1 KECCAK256 DUP3 MLOAD PUSH1 0x80 DUP2 ADD DUP5 MSTORE DUP2 SLOAD DUP2 MSTORE PUSH1 0x1 DUP3 ADD SLOAD PUSH1 0xFF AND ISZERO ISZERO SWAP3 DUP2 ADD SWAP3 SWAP1 SWAP3 MSTORE PUSH1 0x2 DUP2 ADD SLOAD DUP3 DUP5 ADD MSTORE PUSH1 0x3 ADD SLOAD PUSH1 0x60 DUP3 ADD DUP2 SWAP1 MSTORE PUSH1 0x5 SLOAD SWAP3 MLOAD PUSH32 0x85AA033D00000000000000000000000000000000000000000000000000000000 DUP2 MSTORE PUSH1 0x4 DUP2 ADD SWAP2 SWAP1 SWAP2 MSTORE CALLER PUSH1 0x24 DUP3 ADD MSTORE SWAP1 SWAP2 PUSH20 0xFFFFFFFFFFFFFFFFFFFFFFFFFFFFFFFFFFFFFFFF AND SWAP1 PUSH4 0x85AA033D SWAP1 PUSH1 0x44 ADD PUSH1 0x20 PUSH1 0x40 MLOAD DUP1 DUP4 SUB DUP2 PUSH1 0x0 DUP8 DUP1 EXTCODESIZE ISZERO DUP1 ISZERO PUSH2 0x1CF7 JUMPI PUSH1 0x0 DUP1 REVERT JUMPDEST POP GAS CALL ISZERO DUP1 ISZERO PUSH2 0x1D0B JUMPI RETURNDATASIZE PUSH1 0x0 DUP1 RETURNDATACOPY RETURNDATASIZE PUSH1 0x0 REVERT JUMPDEST POP POP POP POP PUSH1 0x40 MLOAD RETURNDATASIZE PUSH1 0x1F NOT PUSH1 0x1F DUP3 ADD AND DUP3 ADD DUP1 PUSH1 0x40 MSTORE POP DUP2 ADD SWAP1 PUSH2 0x1D2F SWAP2 SWAP1 PUSH2 0x4337 JUMP JUMPDEST POP DUP1 MLOAD PUSH1 0x0 SWAP1 DUP2 MSTORE PUSH1 0x11 PUSH1 0x20 SWAP1 DUP2 MSTORE PUSH1 0x40 SWAP1 SWAP2 KECCAK256 SWAP1 DUP3 ADD MLOAD ISZERO PUSH2 0x1D5B JUMPI PUSH1 0x40 DUP3 ADD MLOAD PUSH1 0x1 DUP3 ADD SSTORE POP POP POP JUMP JUMPDEST PUSH1 0x40 DUP3 ADD MLOAD PUSH1 0x2 DUP3 ADD SSTORE JUMPDEST POP POP POP JUMP JUMPDEST PUSH1 0x0 PUSH1 0x10 SLOAD DUP5 LT PUSH2 0x1DD8 JUMPI PUSH1 0x40 MLOAD PUSH32 0x8C379A000000000000000000000000000000000000000000000000000000000 DUP2 MSTORE PUSH1 0x20 PUSH1 0x4 DUP3 ADD MSTORE PUSH1 0x19 PUSH1 0x24 DUP3 ADD MSTORE PUSH32 0x4E6F2073756368207265736F7572636520646566696E65642E00000000000000 PUSH1 0x44 DUP3 ADD MSTORE PUSH1 0x64 ADD PUSH2 0xE21 JUMP JUMPDEST PUSH1 0x1C DUP1 SLOAD SWAP1 DUP2 SWAP1 PUSH1 0x0 PUSH2 0x1DEA DUP4 PUSH2 0x467E JUMP JUMPDEST SWAP1 SWAP2 SSTORE POP POP PUSH1 0x5 SLOAD PUSH1 0x0 SWAP1 PUSH20 0xFFFFFFFFFFFFFFFFFFFFFFFFFFFFFFFFFFFFFFFF AND PUSH4 0x4A0E2AA1 CALLER PUSH3 0x4C4B40 PUSH2 0x1E22 TIMESTAMP PUSH3 0x15180 PUSH2 0x45C0 JUMP JUMPDEST PUSH2 0x1E2F TIMESTAMP PUSH3 0xA8C00 PUSH2 0x45C0 JUMP JUMPDEST PUSH1 0x40 MLOAD PUSH32 0xFFFFFFFF00000000000000000000000000000000000000000000000000000000 PUSH1 0xE0 DUP8 SWAP1 SHL AND DUP2 MSTORE PUSH20 0xFFFFFFFFFFFFFFFFFFFFFFFFFFFFFFFFFFFFFFFF SWAP1 SWAP5 AND PUSH1 0x4 DUP6 ADD MSTORE PUSH1 0x24 DUP5 ADD SWAP3 SWAP1 SWAP3 MSTORE PUSH1 0x44 DUP4 ADD MSTORE PUSH1 0x64 DUP3 ADD MSTORE PUSH1 0x84 ADD PUSH1 0x20 PUSH1 0x40 MLOAD DUP1 DUP4 SUB DUP2 PUSH1 0x0 DUP8 DUP1 EXTCODESIZE ISZERO DUP1 ISZERO PUSH2 0x1EA7 JUMPI PUSH1 0x0 DUP1 REVERT JUMPDEST POP GAS CALL ISZERO DUP1 ISZERO PUSH2 0x1EBB JUMPI RETURNDATASIZE PUSH1 0x0 DUP1 RETURNDATACOPY RETURNDATASIZE PUSH1 0x0 REVERT JUMPDEST POP POP POP POP PUSH1 0x40 MLOAD RETURNDATASIZE PUSH1 0x1F NOT PUSH1 0x1F DUP3 ADD AND DUP3 ADD DUP1 PUSH1 0x40 MSTORE POP DUP2 ADD SWAP1 PUSH2 0x1EDF SWAP2 SWAP1 PUSH2 0x43AF JUMP JUMPDEST PUSH1 0x40 DUP1 MLOAD PUSH1 0x80 DUP2 ADD DUP3 MSTORE SWAP8 DUP9 MSTORE SWAP6 ISZERO ISZERO PUSH1 0x20 DUP1 DUP10 ADD SWAP2 DUP3 MSTORE DUP9 DUP9 ADD SWAP7 DUP8 MSTORE PUSH1 0x60 DUP10 ADD SWAP3 DUP4 MSTORE PUSH1 0x0 DUP6 DUP2 MSTORE PUSH1 0x18 SWAP1 SWAP2 MSTORE SWAP7 SWAP1 SWAP7 KECCAK256 SWAP7 MLOAD DUP8 SSTORE SWAP5 MLOAD PUSH1 0x1 DUP8 ADD DUP1 SLOAD PUSH32 0xFFFFFFFFFFFFFFFFFFFFFFFFFFFFFFFFFFFFFFFFFFFFFFFFFFFFFFFFFFFFFF00 AND SWAP2 ISZERO ISZERO SWAP2 SWAP1 SWAP2 OR SWAP1 SSTORE POP SWAP2 MLOAD PUSH1 0x2 DUP6 ADD SSTORE POP SWAP1 MLOAD PUSH1 0x3 SWAP1 SWAP3 ADD SWAP2 SWAP1 SWAP2 SSTORE SWAP1 JUMP JUMPDEST PUSH1 0x0 PUSH1 0x10 SLOAD DUP4 LT PUSH2 0x1FCD JUMPI PUSH1 0x40 MLOAD PUSH32 0x8C379A000000000000000000000000000000000000000000000000000000000 DUP2 MSTORE PUSH1 0x20 PUSH1 0x4 DUP3 ADD MSTORE PUSH1 0x19 PUSH1 0x24 DUP3 ADD MSTORE PUSH32 0x4E6F2073756368207265736F7572636520646566696E65642E00000000000000 PUSH1 0x44 DUP3 ADD MSTORE PUSH1 0x64 ADD PUSH2 0xE21 JUMP JUMPDEST PUSH1 0x1E DUP1 SLOAD SWAP1 DUP2 SWAP1 PUSH1 0x0 PUSH2 0x1FDF DUP4 PUSH2 0x467E JUMP JUMPDEST SWAP1 SWAP2 SSTORE POP POP PUSH1 0x5 SLOAD PUSH1 0x0 SWAP1 PUSH20 0xFFFFFFFFFFFFFFFFFFFFFFFFFFFFFFFFFFFFFFFF AND PUSH4 0x4A0E2AA1 CALLER PUSH3 0x4C4B40 PUSH2 0x2017 TIMESTAMP PUSH3 0x15180 PUSH2 0x45C0 JUMP JUMPDEST PUSH2 0x2024 TIMESTAMP PUSH3 0xA8C00 PUSH2 0x45C0 JUMP JUMPDEST PUSH1 0x40 MLOAD PUSH32 0xFFFFFFFF00000000000000000000000000000000000000000000000000000000 PUSH1 0xE0 DUP8 SWAP1 SHL AND DUP2 MSTORE PUSH20 0xFFFFFFFFFFFFFFFFFFFFFFFFFFFFFFFFFFFFFFFF SWAP1 SWAP5 AND PUSH1 0x4 DUP6 ADD MSTORE PUSH1 0x24 DUP5 ADD SWAP3 SWAP1 SWAP3 MSTORE PUSH1 0x44 DUP4 ADD MSTORE PUSH1 0x64 DUP3 ADD MSTORE PUSH1 0x84 ADD PUSH1 0x20 PUSH1 0x40 MLOAD DUP1 DUP4 SUB DUP2 PUSH1 0x0 DUP8 DUP1 EXTCODESIZE ISZERO DUP1 ISZERO PUSH2 0x209C JUMPI PUSH1 0x0 DUP1 REVERT JUMPDEST POP GAS CALL ISZERO DUP1 ISZERO PUSH2 0x20B0 JUMPI RETURNDATASIZE PUSH1 0x0 DUP1 RETURNDATACOPY RETURNDATASIZE PUSH1 0x0 REVERT JUMPDEST POP POP POP POP PUSH1 0x40 MLOAD RETURNDATASIZE PUSH1 0x1F NOT PUSH1 0x1F DUP3 ADD AND DUP3 ADD DUP1 PUSH1 0x40 MSTORE POP DUP2 ADD SWAP1 PUSH2 0x20D4 SWAP2 SWAP1 PUSH2 0x43AF JUMP JUMPDEST PUSH1 0x40 DUP1 MLOAD PUSH1 0x60 DUP2 ADD DUP3 MSTORE SWAP7 DUP8 MSTORE SWAP5 ISZERO ISZERO PUSH1 0x20 DUP1 DUP9 ADD SWAP2 DUP3 MSTORE DUP8 DUP8 ADD SWAP3 DUP4 MSTORE PUSH1 0x0 DUP6 DUP2 MSTORE PUSH1 0x1A SWAP1 SWAP2 MSTORE SWAP6 SWAP1 SWAP6 KECCAK256 SWAP6 MLOAD DUP7 SSTORE SWAP4 MLOAD PUSH1 0x1 DUP7 ADD DUP1 SLOAD PUSH32 0xFFFFFFFFFFFFFFFFFFFFFFFFFFFFFFFFFFFFFFFFFFFFFFFFFFFFFFFFFFFFFF00 AND SWAP2 ISZERO ISZERO SWAP2 SWAP1 SWAP2 OR SWAP1 SSTORE POP SWAP2 MLOAD PUSH1 0x2 SWAP1 SWAP4 ADD SWAP3 SWAP1 SWAP3 SSTORE SWAP2 SWAP1 POP JUMP JUMPDEST PUSH1 0x1D SLOAD DUP2 LT PUSH2 0x21B3 JUMPI PUSH1 0x40 MLOAD PUSH32 0x8C379A000000000000000000000000000000000000000000000000000000000 DUP2 MSTORE PUSH1 0x20 PUSH1 0x4 DUP3 ADD MSTORE PUSH1 0x10 PUSH1 0x24 DUP3 ADD MSTORE PUSH32 0x4E6F207375636820726571756573742E00000000000000000000000000000000 PUSH1 0x44 DUP3 ADD MSTORE PUSH1 0x64 ADD PUSH2 0xE21 JUMP JUMPDEST PUSH1 0x0 DUP2 DUP2 MSTORE PUSH1 0x19 PUSH1 0x20 SWAP1 DUP2 MSTORE PUSH1 0x40 SWAP2 DUP3 SWAP1 KECCAK256 DUP3 MLOAD DUP1 DUP5 ADD DUP5 MSTORE DUP2 SLOAD DUP2 MSTORE PUSH1 0x1 SWAP1 SWAP2 ADD SLOAD SWAP2 DUP2 ADD DUP3 SWAP1 MSTORE PUSH1 0x5 SLOAD SWAP3 MLOAD PUSH32 0x85AA033D00000000000000000000000000000000000000000000000000000000 DUP2 MSTORE PUSH1 0x4 DUP2 ADD SWAP3 SWAP1 SWAP3 MSTORE CALLER PUSH1 0x24 DUP4 ADD MSTORE SWAP2 PUSH20 0xFFFFFFFFFFFFFFFFFFFFFFFFFFFFFFFFFFFFFFFF AND SWAP1 PUSH4 0x85AA033D SWAP1 PUSH1 0x44 ADD PUSH1 0x20 PUSH1 0x40 MLOAD DUP1 DUP4 SUB DUP2 PUSH1 0x0 DUP8 DUP1 EXTCODESIZE ISZERO DUP1 ISZERO PUSH2 0x224D JUMPI PUSH1 0x0 DUP1 REVERT JUMPDEST POP GAS CALL ISZERO DUP1 ISZERO PUSH2 0x2261 JUMPI RETURNDATASIZE PUSH1 0x0 DUP1 RETURNDATACOPY RETURNDATASIZE PUSH1 0x0 REVERT JUMPDEST POP POP POP POP PUSH1 0x40 MLOAD RETURNDATASIZE PUSH1 0x1F NOT PUSH1 0x1F DUP3 ADD AND DUP3 ADD DUP1 PUSH1 0x40 MSTORE POP DUP2 ADD SWAP1 PUSH2 0x2285 SWAP2 SWAP1 PUSH2 0x4337 JUMP JUMPDEST POP MLOAD PUSH1 0x15 SSTORE POP JUMP JUMPDEST PUSH1 0x1E SLOAD DUP2 LT PUSH2 0x22F8 JUMPI PUSH1 0x40 MLOAD PUSH32 0x8C379A000000000000000000000000000000000000000000000000000000000 DUP2 MSTORE PUSH1 0x20 PUSH1 0x4 DUP3 ADD MSTORE PUSH1 0x10 PUSH1 0x24 DUP3 ADD MSTORE PUSH32 0x4E6F207375636820726571756573742E00000000000000000000000000000000 PUSH1 0x44 DUP3 ADD MSTORE PUSH1 0x64 ADD PUSH2 0xE21 JUMP JUMPDEST PUSH1 0x0 DUP2 DUP2 MSTORE PUSH1 0x1A PUSH1 0x20 SWAP1 DUP2 MSTORE PUSH1 0x40 SWAP2 DUP3 SWAP1 KECCAK256 DUP3 MLOAD PUSH1 0x60 DUP2 ADD DUP5 MSTORE DUP2 SLOAD DUP2 MSTORE PUSH1 0x1 DUP3 ADD SLOAD PUSH1 0xFF AND ISZERO ISZERO SWAP3 DUP2 ADD SWAP3 SWAP1 SWAP3 MSTORE PUSH1 0x2 ADD SLOAD DUP2 DUP4 ADD DUP2 SWAP1 MSTORE PUSH1 0x5 SLOAD SWAP3 MLOAD PUSH32 0x85AA033D00000000000000000000000000000000000000000000000000000000 DUP2 MSTORE PUSH1 0x4 DUP2 ADD SWAP2 SWAP1 SWAP2 MSTORE CALLER PUSH1 0x24 DUP3 ADD MSTORE SWAP1 SWAP2 PUSH20 0xFFFFFFFFFFFFFFFFFFFFFFFFFFFFFFFFFFFFFFFF AND SWAP1 PUSH4 0x85AA033D SWAP1 PUSH1 0x44 ADD PUSH1 0x20 PUSH1 0x40 MLOAD DUP1 DUP4 SUB DUP2 PUSH1 0x0 DUP8 DUP1 EXTCODESIZE ISZERO DUP1 ISZERO PUSH2 0x23A3 JUMPI PUSH1 0x0 DUP1 REVERT JUMPDEST POP GAS CALL ISZERO DUP1 ISZERO PUSH2 0x23B7 JUMPI RETURNDATASIZE PUSH1 0x0 DUP1 RETURNDATACOPY RETURNDATASIZE PUSH1 0x0 REVERT JUMPDEST POP POP POP POP PUSH1 0x40 MLOAD RETURNDATASIZE PUSH1 0x1F NOT PUSH1 0x1F DUP3 ADD AND DUP3 ADD DUP1 PUSH1 0x40 MSTORE POP DUP2 ADD SWAP1 PUSH2 0x23DB SWAP2 SWAP1 PUSH2 0x4337 JUMP JUMPDEST POP DUP1 MLOAD PUSH1 0x0 SWAP1 DUP2 MSTORE PUSH1 0x11 PUSH1 0x20 SWAP1 DUP2 MSTORE PUSH1 0x40 SWAP1 SWAP2 KECCAK256 SWAP2 ADD MLOAD PUSH1 0x4 SWAP1 SWAP2 ADD DUP1 SLOAD PUSH32 0xFFFFFFFFFFFFFFFFFFFFFFFFFFFFFFFFFFFFFFFFFFFFFFFFFFFFFFFFFFFFFF00 AND SWAP2 ISZERO ISZERO SWAP2 SWAP1 SWAP2 OR SWAP1 SSTORE POP JUMP JUMPDEST PUSH1 0x0 PUSH2 0x2452 DUP5 DUP5 PUSH3 0x4C4B40 DUP6 PUSH2 0x2440 TIMESTAMP PUSH3 0x15180 PUSH2 0x45C0 JUMP JUMPDEST PUSH2 0x244D TIMESTAMP PUSH3 0x2A300 PUSH2 0x45C0 JUMP JUMPDEST PUSH2 0x39EA JUMP JUMPDEST SWAP5 SWAP4 POP POP POP POP JUMP JUMPDEST PUSH1 0x0 PUSH2 0x10D3 DUP4 DUP4 PUSH2 0x356D JUMP JUMPDEST PUSH1 0x0 PUSH2 0x2452 DUP5 DUP5 PUSH3 0x4C4B40 DUP6 PUSH2 0x247F TIMESTAMP PUSH3 0x15180 PUSH2 0x45C0 JUMP JUMPDEST PUSH2 0x248C TIMESTAMP PUSH3 0x2A300 PUSH2 0x45C0 JUMP JUMPDEST PUSH2 0x3B63 JUMP JUMPDEST PUSH1 0xC SLOAD DUP2 LT PUSH2 0x24FC JUMPI PUSH1 0x40 MLOAD PUSH32 0x8C379A000000000000000000000000000000000000000000000000000000000 DUP2 MSTORE PUSH1 0x20 PUSH1 0x4 DUP3 ADD MSTORE PUSH1 0x10 PUSH1 0x24 DUP3 ADD MSTORE PUSH32 0x4E6F207375636820726571756573742E00000000000000000000000000000000 PUSH1 0x44 DUP3 ADD MSTORE PUSH1 0x64 ADD PUSH2 0xE21 JUMP JUMPDEST PUSH1 0x0 DUP2 DUP2 MSTORE PUSH1 0x7 PUSH1 0x20 SWAP1 DUP2 MSTORE PUSH1 0x40 SWAP2 DUP3 SWAP1 KECCAK256 DUP3 MLOAD PUSH1 0x80 DUP2 ADD DUP5 MSTORE DUP2 SLOAD PUSH20 0xFFFFFFFFFFFFFFFFFFFFFFFFFFFFFFFFFFFFFFFF SWAP1 DUP2 AND DUP3 MSTORE PUSH1 0x1 DUP4 ADD SLOAD SWAP4 DUP3 ADD SWAP4 SWAP1 SWAP4 MSTORE PUSH1 0x2 DUP3 ADD SLOAD DUP4 AND DUP2 DUP6 ADD MSTORE PUSH1 0x3 SWAP1 SWAP2 ADD SLOAD PUSH1 0x60 DUP3 ADD DUP2 SWAP1 MSTORE PUSH1 0x5 SLOAD SWAP4 MLOAD PUSH32 0x85AA033D00000000000000000000000000000000000000000000000000000000 DUP2 MSTORE PUSH1 0x4 DUP2 ADD SWAP2 SWAP1 SWAP2 MSTORE CALLER PUSH1 0x24 DUP3 ADD MSTORE SWAP1 SWAP3 SWAP1 SWAP2 AND SWAP1 PUSH4 0x85AA033D SWAP1 PUSH1 0x44 ADD PUSH1 0x20 PUSH1 0x40 MLOAD DUP1 DUP4 SUB DUP2 PUSH1 0x0 DUP8 DUP1 EXTCODESIZE ISZERO DUP1 ISZERO PUSH2 0x25B5 JUMPI PUSH1 0x0 DUP1 REVERT JUMPDEST POP GAS CALL ISZERO DUP1 ISZERO PUSH2 0x25C9 JUMPI RETURNDATASIZE PUSH1 0x0 DUP1 RETURNDATACOPY RETURNDATASIZE PUSH1 0x0 REVERT JUMPDEST POP POP POP POP PUSH1 0x40 MLOAD RETURNDATASIZE PUSH1 0x1F NOT PUSH1 0x1F DUP3 ADD AND DUP3 ADD DUP1 PUSH1 0x40 MSTORE POP DUP2 ADD SWAP1 PUSH2 0x25ED SWAP2 SWAP1 PUSH2 0x4337 JUMP JUMPDEST POP DUP1 MLOAD PUSH1 0x40 DUP1 DUP4 ADD MLOAD PUSH1 0x20 DUP5 ADD MLOAD SWAP2 MLOAD PUSH32 0x23B872DD00000000000000000000000000000000000000000000000000000000 DUP2 MSTORE ADDRESS PUSH1 0x4 DUP3 ADD MSTORE PUSH20 0xFFFFFFFFFFFFFFFFFFFFFFFFFFFFFFFFFFFFFFFF SWAP2 DUP3 AND PUSH1 0x24 DUP3 ADD MSTORE PUSH1 0x44 DUP2 ADD SWAP3 SWAP1 SWAP3 MSTORE DUP3 AND SWAP1 PUSH4 0x23B872DD SWAP1 PUSH1 0x64 ADD PUSH1 0x20 PUSH1 0x40 MLOAD DUP1 DUP4 SUB DUP2 PUSH1 0x0 DUP8 DUP1 EXTCODESIZE ISZERO DUP1 ISZERO PUSH2 0x2671 JUMPI PUSH1 0x0 DUP1 REVERT JUMPDEST POP GAS CALL ISZERO DUP1 ISZERO PUSH2 0x2685 JUMPI RETURNDATASIZE PUSH1 0x0 DUP1 RETURNDATACOPY RETURNDATASIZE PUSH1 0x0 REVERT JUMPDEST POP POP POP POP PUSH1 0x40 MLOAD RETURNDATASIZE PUSH1 0x1F NOT PUSH1 0x1F DUP3 ADD AND DUP3 ADD DUP1 PUSH1 0x40 MSTORE POP DUP2 ADD SWAP1 PUSH2 0x26A9 SWAP2 SWAP1 PUSH2 0x4337 JUMP JUMPDEST POP POP POP POP JUMP JUMPDEST PUSH1 0xB SLOAD DUP2 LT PUSH2 0x271A JUMPI PUSH1 0x40 MLOAD PUSH32 0x8C379A000000000000000000000000000000000000000000000000000000000 DUP2 MSTORE PUSH1 0x20 PUSH1 0x4 DUP3 ADD MSTORE PUSH1 0x10 PUSH1 0x24 DUP3 ADD MSTORE PUSH32 0x4E6F207375636820726571756573742E00000000000000000000000000000000 PUSH1 0x44 DUP3 ADD MSTORE PUSH1 0x64 ADD PUSH2 0xE21 JUMP JUMPDEST PUSH1 0x0 DUP2 DUP2 MSTORE PUSH1 0x6 PUSH1 0x20 SWAP1 DUP2 MSTORE PUSH1 0x40 SWAP2 DUP3 SWAP1 KECCAK256 DUP3 MLOAD PUSH1 0x60 DUP2 ADD DUP5 MSTORE DUP2 SLOAD DUP2 MSTORE PUSH1 0x1 DUP3 ADD SLOAD PUSH20 0xFFFFFFFFFFFFFFFFFFFFFFFFFFFFFFFFFFFFFFFF SWAP1 DUP2 AND SWAP4 DUP3 ADD SWAP4 SWAP1 SWAP4 MSTORE PUSH1 0x2 SWAP1 SWAP2 ADD SLOAD DUP2 DUP5 ADD DUP2 SWAP1 MSTORE PUSH1 0x5 SLOAD SWAP4 MLOAD PUSH32 0x85AA033D00000000000000000000000000000000000000000000000000000000 DUP2 MSTORE PUSH1 0x4 DUP2 ADD SWAP2 SWAP1 SWAP2 MSTORE CALLER PUSH1 0x24 DUP3 ADD MSTORE SWAP1 SWAP3 SWAP1 SWAP2 AND SWAP1 PUSH4 0x85AA033D SWAP1 PUSH1 0x44 ADD PUSH1 0x20 PUSH1 0x40 MLOAD DUP1 DUP4 SUB DUP2 PUSH1 0x0 DUP8 DUP1 EXTCODESIZE ISZERO DUP1 ISZERO PUSH2 0x27C7 JUMPI PUSH1 0x0 DUP1 REVERT JUMPDEST POP GAS CALL ISZERO DUP1 ISZERO PUSH2 0x27DB JUMPI RETURNDATASIZE PUSH1 0x0 DUP1 RETURNDATACOPY RETURNDATASIZE PUSH1 0x0 REVERT JUMPDEST POP POP POP POP PUSH1 0x40 MLOAD RETURNDATASIZE PUSH1 0x1F NOT PUSH1 0x1F DUP3 ADD AND DUP3 ADD DUP1 PUSH1 0x40 MSTORE POP DUP2 ADD SWAP1 PUSH2 0x27FF SWAP2 SWAP1 PUSH2 0x4337 JUMP JUMPDEST POP PUSH1 0x20 DUP2 ADD MLOAD DUP2 MLOAD PUSH1 0x40 MLOAD PUSH20 0xFFFFFFFFFFFFFFFFFFFFFFFFFFFFFFFFFFFFFFFF SWAP1 SWAP3 AND SWAP2 DUP2 ISZERO PUSH2 0x8FC MUL SWAP2 SWAP1 PUSH1 0x0 DUP2 DUP2 DUP2 DUP6 DUP9 DUP9 CALL SWAP4 POP POP POP POP ISZERO DUP1 ISZERO PUSH2 0x1D66 JUMPI RETURNDATASIZE PUSH1 0x0 DUP1 RETURNDATACOPY RETURNDATASIZE PUSH1 0x0 REVERT JUMPDEST PUSH1 0xD SLOAD DUP2 LT PUSH2 0x28B5 JUMPI PUSH1 0x40 MLOAD PUSH32 0x8C379A000000000000000000000000000000000000000000000000000000000 DUP2 MSTORE PUSH1 0x20 PUSH1 0x4 DUP3 ADD MSTORE PUSH1 0x10 PUSH1 0x24 DUP3 ADD MSTORE PUSH32 0x4E6F207375636820726571756573742E00000000000000000000000000000000 PUSH1 0x44 DUP3 ADD MSTORE PUSH1 0x64 ADD PUSH2 0xE21 JUMP JUMPDEST PUSH1 0x0 DUP2 DUP2 MSTORE PUSH1 0x8 PUSH1 0x20 SWAP1 DUP2 MSTORE PUSH1 0x40 SWAP2 DUP3 SWAP1 KECCAK256 DUP3 MLOAD PUSH1 0x80 DUP2 ADD DUP5 MSTORE DUP2 SLOAD PUSH20 0xFFFFFFFFFFFFFFFFFFFFFFFFFFFFFFFFFFFFFFFF SWAP1 DUP2 AND DUP3 MSTORE PUSH1 0x1 DUP4 ADD SLOAD SWAP4 DUP3 ADD SWAP4 SWAP1 SWAP4 MSTORE PUSH1 0x2 DUP3 ADD SLOAD DUP4 AND DUP2 DUP6 ADD MSTORE PUSH1 0x3 SWAP1 SWAP2 ADD SLOAD PUSH1 0x60 DUP3 ADD DUP2 SWAP1 MSTORE PUSH1 0x5 SLOAD SWAP4 MLOAD PUSH32 0x85AA033D00000000000000000000000000000000000000000000000000000000 DUP2 MSTORE PUSH1 0x4 DUP2 ADD SWAP2 SWAP1 SWAP2 MSTORE CALLER PUSH1 0x24 DUP3 ADD MSTORE SWAP1 SWAP3 SWAP1 SWAP2 AND SWAP1 PUSH4 0x85AA033D SWAP1 PUSH1 0x44 ADD PUSH1 0x20 PUSH1 0x40 MLOAD DUP1 DUP4 SUB DUP2 PUSH1 0x0 DUP8 DUP1 EXTCODESIZE ISZERO DUP1 ISZERO PUSH2 0x296E JUMPI PUSH1 0x0 DUP1 REVERT JUMPDEST POP GAS CALL ISZERO DUP1 ISZERO PUSH2 0x2982 JUMPI RETURNDATASIZE PUSH1 0x0 DUP1 RETURNDATACOPY RETURNDATASIZE PUSH1 0x0 REVERT JUMPDEST POP POP POP POP PUSH1 0x40 MLOAD RETURNDATASIZE PUSH1 0x1F NOT PUSH1 0x1F DUP3 ADD AND DUP3 ADD DUP1 PUSH1 0x40 MSTORE POP DUP2 ADD SWAP1 PUSH2 0x29A6 SWAP2 SWAP1 PUSH2 0x4337 JUMP JUMPDEST POP DUP1 MLOAD PUSH1 0x40 DUP1 DUP4 ADD MLOAD PUSH1 0x20 DUP5 ADD MLOAD SWAP2 MLOAD PUSH32 0x42842E0E00000000000000000000000000000000000000000000000000000000 DUP2 MSTORE ADDRESS PUSH1 0x4 DUP3 ADD MSTORE PUSH20 0xFFFFFFFFFFFFFFFFFFFFFFFFFFFFFFFFFFFFFFFF SWAP2 DUP3 AND PUSH1 0x24 DUP3 ADD MSTORE PUSH1 0x44 DUP2 ADD SWAP3 SWAP1 SWAP3 MSTORE DUP3 AND SWAP1 PUSH4 0x42842E0E SWAP1 PUSH1 0x64 ADD PUSH2 0x13CD JUMP JUMPDEST PUSH1 0x0 PUSH32 0xFFFFFFFF00000000000000000000000000000000000000000000000000000000 DUP3 AND PUSH32 0x4E2312E000000000000000000000000000000000000000000000000000000000 EQ DUP1 PUSH2 0xC8F JUMPI POP PUSH32 0x1FFC9A700000000000000000000000000000000000000000000000000000000 PUSH32 0xFFFFFFFF00000000000000000000000000000000000000000000000000000000 DUP4 AND EQ PUSH2 0xC8F JUMP JUMPDEST PUSH20 0xFFFFFFFFFFFFFFFFFFFFFFFFFFFFFFFFFFFFFFFF DUP4 AND PUSH2 0x2B4E JUMPI PUSH1 0x40 MLOAD PUSH32 0x8C379A000000000000000000000000000000000000000000000000000000000 DUP2 MSTORE PUSH1 0x20 PUSH1 0x4 DUP3 ADD MSTORE PUSH1 0x24 DUP1 DUP3 ADD MSTORE PUSH32 0x45524332303A20617070726F76652066726F6D20746865207A65726F20616464 PUSH1 0x44 DUP3 ADD MSTORE PUSH32 0x7265737300000000000000000000000000000000000000000000000000000000 PUSH1 0x64 DUP3 ADD MSTORE PUSH1 0x84 ADD PUSH2 0xE21 JUMP JUMPDEST PUSH20 0xFFFFFFFFFFFFFFFFFFFFFFFFFFFFFFFFFFFFFFFF DUP3 AND PUSH2 0x2BF1 JUMPI PUSH1 0x40 MLOAD PUSH32 0x8C379A000000000000000000000000000000000000000000000000000000000 DUP2 MSTORE PUSH1 0x20 PUSH1 0x4 DUP3 ADD MSTORE PUSH1 0x22 PUSH1 0x24 DUP3 ADD MSTORE PUSH32 0x45524332303A20617070726F766520746F20746865207A65726F206164647265 PUSH1 0x44 DUP3 ADD MSTORE PUSH32 0x7373000000000000000000000000000000000000000000000000000000000000 PUSH1 0x64 DUP3 ADD MSTORE PUSH1 0x84 ADD PUSH2 0xE21 JUMP JUMPDEST PUSH20 0xFFFFFFFFFFFFFFFFFFFFFFFFFFFFFFFFFFFFFFFF DUP4 DUP2 AND PUSH1 0x0 DUP2 DUP2 MSTORE PUSH1 0x1 PUSH1 0x20 SWAP1 DUP2 MSTORE PUSH1 0x40 DUP1 DUP4 KECCAK256 SWAP5 DUP8 AND DUP1 DUP5 MSTORE SWAP5 DUP3 MSTORE SWAP2 DUP3 SWAP1 KECCAK256 DUP6 SWAP1 SSTORE SWAP1 MLOAD DUP5 DUP2 MSTORE PUSH32 0x8C5BE1E5EBEC7D5BD14F71427D1E84F3DD0314C0F7B2291E5B200AC8C7C3B925 SWAP2 ADD PUSH1 0x40 MLOAD DUP1 SWAP2 SUB SWAP1 LOG3 POP POP POP JUMP JUMPDEST PUSH20 0xFFFFFFFFFFFFFFFFFFFFFFFFFFFFFFFFFFFFFFFF DUP4 AND PUSH2 0x2D02 JUMPI PUSH1 0x40 MLOAD PUSH32 0x8C379A000000000000000000000000000000000000000000000000000000000 DUP2 MSTORE PUSH1 0x20 PUSH1 0x4 DUP3 ADD MSTORE PUSH1 0x25 PUSH1 0x24 DUP3 ADD MSTORE PUSH32 0x45524332303A207472616E736665722066726F6D20746865207A65726F206164 PUSH1 0x44 DUP3 ADD MSTORE PUSH32 0x6472657373000000000000000000000000000000000000000000000000000000 PUSH1 0x64 DUP3 ADD MSTORE PUSH1 0x84 ADD PUSH2 0xE21 JUMP JUMPDEST PUSH20 0xFFFFFFFFFFFFFFFFFFFFFFFFFFFFFFFFFFFFFFFF DUP3 AND PUSH2 0x2DA5 JUMPI PUSH1 0x40 MLOAD PUSH32 0x8C379A000000000000000000000000000000000000000000000000000000000 DUP2 MSTORE PUSH1 0x20 PUSH1 0x4 DUP3 ADD MSTORE PUSH1 0x23 PUSH1 0x24 DUP3 ADD MSTORE PUSH32 0x45524332303A207472616E7366657220746F20746865207A65726F2061646472 PUSH1 0x44 DUP3 ADD MSTORE PUSH32 0x6573730000000000000000000000000000000000000000000000000000000000 PUSH1 0x64 DUP3 ADD MSTORE PUSH1 0x84 ADD PUSH2 0xE21 JUMP JUMPDEST PUSH20 0xFFFFFFFFFFFFFFFFFFFFFFFFFFFFFFFFFFFFFFFF DUP4 AND PUSH1 0x0 SWAP1 DUP2 MSTORE PUSH1 0x20 DUP2 SWAP1 MSTORE PUSH1 0x40 SWAP1 KECCAK256 SLOAD DUP2 DUP2 LT ISZERO PUSH2 0x2E5B JUMPI PUSH1 0x40 MLOAD PUSH32 0x8C379A000000000000000000000000000000000000000000000000000000000 DUP2 MSTORE PUSH1 0x20 PUSH1 0x4 DUP3 ADD MSTORE PUSH1 0x26 PUSH1 0x24 DUP3 ADD MSTORE PUSH32 0x45524332303A207472616E7366657220616D6F756E7420657863656564732062 PUSH1 0x44 DUP3 ADD MSTORE PUSH32 0x616C616E63650000000000000000000000000000000000000000000000000000 PUSH1 0x64 DUP3 ADD MSTORE PUSH1 0x84 ADD PUSH2 0xE21 JUMP JUMPDEST PUSH20 0xFFFFFFFFFFFFFFFFFFFFFFFFFFFFFFFFFFFFFFFF DUP1 DUP6 AND PUSH1 0x0 SWAP1 DUP2 MSTORE PUSH1 0x20 DUP2 SWAP1 MSTORE PUSH1 0x40 DUP1 DUP3 KECCAK256 DUP6 DUP6 SUB SWAP1 SSTORE SWAP2 DUP6 AND DUP2 MSTORE SWAP1 DUP2 KECCAK256 DUP1 SLOAD DUP5 SWAP3 SWAP1 PUSH2 0x2E9F SWAP1 DUP5 SWAP1 PUSH2 0x45C0 JUMP JUMPDEST SWAP3 POP POP DUP2 SWAP1 SSTORE POP DUP3 PUSH20 0xFFFFFFFFFFFFFFFFFFFFFFFFFFFFFFFFFFFFFFFF AND DUP5 PUSH20 0xFFFFFFFFFFFFFFFFFFFFFFFFFFFFFFFFFFFFFFFF AND PUSH32 0xDDF252AD1BE2C89B69C2B068FC378DAA952BA7F163C4A11628F55A4DF523B3EF DUP5 PUSH1 0x40 MLOAD PUSH2 0x2F05 SWAP2 DUP2 MSTORE PUSH1 0x20 ADD SWAP1 JUMP JUMPDEST PUSH1 0x40 MLOAD DUP1 SWAP2 SUB SWAP1 LOG3 PUSH2 0x26A9 JUMP JUMPDEST PUSH1 0xF DUP1 SLOAD PUSH1 0x0 SWAP2 DUP2 SWAP1 DUP4 PUSH2 0x2F25 DUP4 PUSH2 0x467E JUMP JUMPDEST SWAP1 SWAP2 SSTORE POP POP PUSH1 0x5 SLOAD PUSH1 0x40 MLOAD PUSH32 0x4A0E2AA100000000000000000000000000000000000000000000000000000000 DUP2 MSTORE CALLER PUSH1 0x4 DUP3 ADD MSTORE PUSH1 0x24 DUP2 ADD DUP9 SWAP1 MSTORE PUSH1 0x44 DUP2 ADD DUP7 SWAP1 MSTORE PUSH1 0x64 DUP2 ADD DUP6 SWAP1 MSTORE PUSH1 0x0 SWAP2 PUSH20 0xFFFFFFFFFFFFFFFFFFFFFFFFFFFFFFFFFFFFFFFF AND SWAP1 PUSH4 0x4A0E2AA1 SWAP1 PUSH1 0x84 ADD PUSH1 0x20 PUSH1 0x40 MLOAD DUP1 DUP4 SUB DUP2 PUSH1 0x0 DUP8 DUP1 EXTCODESIZE ISZERO DUP1 ISZERO PUSH2 0x2FAB JUMPI PUSH1 0x0 DUP1 REVERT JUMPDEST POP GAS CALL ISZERO DUP1 ISZERO PUSH2 0x2FBF JUMPI RETURNDATASIZE PUSH1 0x0 DUP1 RETURNDATACOPY RETURNDATASIZE PUSH1 0x0 REVERT JUMPDEST POP POP POP POP PUSH1 0x40 MLOAD RETURNDATASIZE PUSH1 0x1F NOT PUSH1 0x1F DUP3 ADD AND DUP3 ADD DUP1 PUSH1 0x40 MSTORE POP DUP2 ADD SWAP1 PUSH2 0x2FE3 SWAP2 SWAP1 PUSH2 0x43AF JUMP JUMPDEST PUSH1 0x40 DUP1 MLOAD PUSH1 0xA0 DUP2 ADD DUP3 MSTORE PUSH20 0xFFFFFFFFFFFFFFFFFFFFFFFFFFFFFFFFFFFFFFFF DUP14 DUP2 AND DUP3 MSTORE PUSH1 0x20 DUP1 DUP4 ADD DUP15 DUP2 MSTORE DUP4 DUP6 ADD DUP15 SWAP1 MSTORE DUP12 DUP4 AND PUSH1 0x60 DUP6 ADD MSTORE PUSH1 0x80 DUP5 ADD DUP7 SWAP1 MSTORE PUSH1 0x0 DUP9 DUP2 MSTORE PUSH1 0xA DUP4 MSTORE SWAP5 SWAP1 SWAP5 KECCAK256 DUP4 MLOAD DUP2 SLOAD PUSH32 0xFFFFFFFFFFFFFFFFFFFFFFFF0000000000000000000000000000000000000000 AND SWAP4 AND SWAP3 SWAP1 SWAP3 OR DUP3 SSTORE SWAP3 MLOAD DUP1 MLOAD SWAP5 SWAP6 POP SWAP2 SWAP4 SWAP1 SWAP3 PUSH2 0x307B SWAP3 PUSH1 0x1 DUP6 ADD SWAP3 SWAP2 ADD SWAP1 PUSH2 0x3E3E JUMP JUMPDEST POP PUSH1 0x40 DUP3 ADD MLOAD DUP1 MLOAD PUSH2 0x3097 SWAP2 PUSH1 0x2 DUP5 ADD SWAP2 PUSH1 0x20 SWAP1 SWAP2 ADD SWAP1 PUSH2 0x3E3E JUMP JUMPDEST POP PUSH1 0x60 DUP3 ADD MLOAD PUSH1 0x3 DUP3 ADD DUP1 SLOAD PUSH32 0xFFFFFFFFFFFFFFFFFFFFFFFF0000000000000000000000000000000000000000 AND PUSH20 0xFFFFFFFFFFFFFFFFFFFFFFFFFFFFFFFFFFFFFFFF SWAP1 SWAP3 AND SWAP2 SWAP1 SWAP2 OR SWAP1 SSTORE PUSH1 0x80 SWAP1 SWAP2 ADD MLOAD PUSH1 0x4 SWAP1 SWAP2 ADD SSTORE SWAP10 SWAP9 POP POP POP POP POP POP POP POP POP JUMP JUMPDEST PUSH1 0x0 PUSH2 0x3107 DUP5 PUSH2 0x10DA JUMP JUMPDEST ISZERO PUSH2 0x316E JUMPI PUSH1 0x40 MLOAD PUSH32 0x8C379A000000000000000000000000000000000000000000000000000000000 DUP2 MSTORE PUSH1 0x20 PUSH1 0x4 DUP3 ADD MSTORE PUSH1 0x1D PUSH1 0x24 DUP3 ADD MSTORE PUSH32 0x546F6B656E20616C7265616479206861732061207265736F7572636521000000 PUSH1 0x44 DUP3 ADD MSTORE PUSH1 0x64 ADD PUSH2 0xE21 JUMP JUMPDEST PUSH1 0x10 DUP1 SLOAD SWAP1 DUP2 SWAP1 PUSH1 0x0 PUSH2 0x3180 DUP4 PUSH2 0x467E JUMP JUMPDEST SWAP1 SWAP2 SSTORE POP POP PUSH1 0x40 DUP1 MLOAD PUSH1 0xA0 DUP2 ADD DUP3 MSTORE PUSH20 0xFFFFFFFFFFFFFFFFFFFFFFFFFFFFFFFFFFFFFFFF SWAP7 DUP8 AND DUP2 MSTORE PUSH1 0x20 DUP1 DUP3 ADD SWAP7 DUP8 MSTORE DUP2 DUP4 ADD SWAP6 DUP7 MSTORE PUSH1 0x0 PUSH1 0x60 DUP4 ADD DUP2 DUP2 MSTORE PUSH1 0x1 PUSH1 0x80 DUP6 ADD DUP2 DUP2 MSTORE DUP8 DUP5 MSTORE PUSH1 0x11 SWAP1 SWAP5 MSTORE SWAP5 SWAP1 SWAP2 KECCAK256 SWAP3 MLOAD DUP4 SLOAD PUSH32 0xFFFFFFFFFFFFFFFFFFFFFFFF0000000000000000000000000000000000000000 AND SWAP10 AND SWAP9 SWAP1 SWAP9 OR DUP3 SSTORE SWAP6 MLOAD SWAP2 DUP2 ADD SWAP2 SWAP1 SWAP2 SSTORE SWAP3 MLOAD PUSH1 0x2 DUP5 ADD SSTORE SWAP4 MLOAD PUSH1 0x3 DUP4 ADD SSTORE POP SWAP1 MLOAD PUSH1 0x4 SWAP1 SWAP2 ADD DUP1 SLOAD PUSH32 0xFFFFFFFFFFFFFFFFFFFFFFFFFFFFFFFFFFFFFFFFFFFFFFFFFFFFFFFFFFFFFF00 AND SWAP2 ISZERO ISZERO SWAP2 SWAP1 SWAP2 OR SWAP1 SSTORE SWAP1 JUMP JUMPDEST PUSH1 0xB DUP1 SLOAD PUSH1 0x0 SWAP2 DUP2 SWAP1 DUP4 PUSH2 0x3265 DUP4 PUSH2 0x467E JUMP JUMPDEST SWAP1 SWAP2 SSTORE POP POP PUSH1 0x5 SLOAD PUSH1 0x40 MLOAD PUSH32 0x4A0E2AA100000000000000000000000000000000000000000000000000000000 DUP2 MSTORE CALLER PUSH1 0x4 DUP3 ADD MSTORE PUSH1 0x24 DUP2 ADD DUP9 SWAP1 MSTORE PUSH1 0x44 DUP2 ADD DUP7 SWAP1 MSTORE PUSH1 0x64 DUP2 ADD DUP6 SWAP1 MSTORE PUSH1 0x0 SWAP2 PUSH20 0xFFFFFFFFFFFFFFFFFFFFFFFFFFFFFFFFFFFFFFFF AND SWAP1 PUSH4 0x4A0E2AA1 SWAP1 PUSH1 0x84 ADD PUSH1 0x20 PUSH1 0x40 MLOAD DUP1 DUP4 SUB DUP2 PUSH1 0x0 DUP8 DUP1 EXTCODESIZE ISZERO DUP1 ISZERO PUSH2 0x32EB JUMPI PUSH1 0x0 DUP1 REVERT JUMPDEST POP GAS CALL ISZERO DUP1 ISZERO PUSH2 0x32FF JUMPI RETURNDATASIZE PUSH1 0x0 DUP1 RETURNDATACOPY RETURNDATASIZE PUSH1 0x0 REVERT JUMPDEST POP POP POP POP PUSH1 0x40 MLOAD RETURNDATASIZE PUSH1 0x1F NOT PUSH1 0x1F DUP3 ADD AND DUP3 ADD DUP1 PUSH1 0x40 MSTORE POP DUP2 ADD SWAP1 PUSH2 0x3323 SWAP2 SWAP1 PUSH2 0x43AF JUMP JUMPDEST PUSH1 0x40 DUP1 MLOAD PUSH1 0x60 DUP2 ADD DUP3 MSTORE DUP11 DUP2 MSTORE PUSH20 0xFFFFFFFFFFFFFFFFFFFFFFFFFFFFFFFFFFFFFFFF DUP10 DUP2 AND PUSH1 0x20 DUP1 DUP5 ADD SWAP2 DUP3 MSTORE DUP4 DUP6 ADD DUP7 DUP2 MSTORE PUSH1 0x0 DUP10 DUP2 MSTORE PUSH1 0x6 DUP4 MSTORE DUP7 SWAP1 KECCAK256 SWAP5 MLOAD DUP6 SSTORE SWAP2 MLOAD PUSH1 0x1 DUP6 ADD DUP1 SLOAD PUSH32 0xFFFFFFFFFFFFFFFFFFFFFFFF0000000000000000000000000000000000000000 AND SWAP2 SWAP1 SWAP5 AND OR SWAP1 SWAP3 SSTORE MLOAD PUSH1 0x2 SWAP1 SWAP3 ADD SWAP2 SWAP1 SWAP2 SSTORE DUP2 MLOAD DUP12 DUP2 MSTORE SWAP1 DUP2 ADD DUP6 SWAP1 MSTORE SWAP2 SWAP3 POP PUSH32 0x5BD988AF35B5D201645E02C3E7C48D1829B4D37CC8A45258EAF0719B1DE6D395 SWAP2 ADD PUSH1 0x40 MLOAD DUP1 SWAP2 SUB SWAP1 LOG1 SWAP8 SWAP7 POP POP POP POP POP POP POP JUMP JUMPDEST PUSH1 0xE DUP1 SLOAD PUSH1 0x0 SWAP2 DUP2 SWAP1 DUP4 PUSH2 0x33F9 DUP4 PUSH2 0x467E JUMP JUMPDEST SWAP1 SWAP2 SSTORE POP POP PUSH1 0x5 SLOAD PUSH1 0x40 MLOAD PUSH32 0x4A0E2AA100000000000000000000000000000000000000000000000000000000 DUP2 MSTORE CALLER PUSH1 0x4 DUP3 ADD MSTORE PUSH1 0x24 DUP2 ADD DUP9 SWAP1 MSTORE PUSH1 0x44 DUP2 ADD DUP7 SWAP1 MSTORE PUSH1 0x64 DUP2 ADD DUP6 SWAP1 MSTORE PUSH1 0x0 SWAP2 PUSH20 0xFFFFFFFFFFFFFFFFFFFFFFFFFFFFFFFFFFFFFFFF AND SWAP1 PUSH4 0x4A0E2AA1 SWAP1 PUSH1 0x84 ADD PUSH1 0x20 PUSH1 0x40 MLOAD DUP1 DUP4 SUB DUP2 PUSH1 0x0 DUP8 DUP1 EXTCODESIZE ISZERO DUP1 ISZERO PUSH2 0x347F JUMPI PUSH1 0x0 DUP1 REVERT JUMPDEST POP GAS CALL ISZERO DUP1 ISZERO PUSH2 0x3493 JUMPI RETURNDATASIZE PUSH1 0x0 DUP1 RETURNDATACOPY RETURNDATASIZE PUSH1 0x0 REVERT JUMPDEST POP POP POP POP PUSH1 0x40 MLOAD RETURNDATASIZE PUSH1 0x1F NOT PUSH1 0x1F DUP3 ADD AND DUP3 ADD DUP1 PUSH1 0x40 MSTORE POP DUP2 ADD SWAP1 PUSH2 0x34B7 SWAP2 SWAP1 PUSH2 0x43AF JUMP JUMPDEST PUSH1 0x40 DUP1 MLOAD PUSH1 0xA0 DUP2 ADD DUP3 MSTORE PUSH20 0xFFFFFFFFFFFFFFFFFFFFFFFFFFFFFFFFFFFFFFFF SWAP13 DUP14 AND DUP2 MSTORE PUSH1 0x20 DUP1 DUP3 ADD SWAP13 DUP14 MSTORE DUP2 DUP4 ADD SWAP12 DUP13 MSTORE SWAP9 DUP14 AND PUSH1 0x60 DUP3 ADD SWAP1 DUP2 MSTORE PUSH1 0x80 DUP3 ADD DUP5 DUP2 MSTORE PUSH1 0x0 SWAP7 DUP8 MSTORE PUSH1 0x9 SWAP1 SWAP11 MSTORE SWAP2 SWAP1 SWAP5 KECCAK256 SWAP4 MLOAD DUP5 SLOAD SWAP1 DUP14 AND PUSH32 0xFFFFFFFFFFFFFFFFFFFFFFFF0000000000000000000000000000000000000000 SWAP2 DUP3 AND OR DUP6 SSTORE SWAP11 MLOAD PUSH1 0x1 DUP6 ADD SSTORE SWAP9 MLOAD PUSH1 0x2 DUP5 ADD SSTORE SWAP8 MLOAD PUSH1 0x3 DUP4 ADD DUP1 SLOAD SWAP2 SWAP1 SWAP12 AND SWAP10 AND SWAP9 SWAP1 SWAP9 OR SWAP1 SWAP9 SSTORE POP POP SWAP1 MLOAD PUSH1 0x4 SWAP1 SWAP6 ADD SWAP5 SWAP1 SWAP5 SSTORE POP SWAP3 SWAP2 POP POP JUMP JUMPDEST PUSH1 0x0 PUSH1 0x10 SLOAD DUP4 LT PUSH2 0x35DA JUMPI PUSH1 0x40 MLOAD PUSH32 0x8C379A000000000000000000000000000000000000000000000000000000000 DUP2 MSTORE PUSH1 0x20 PUSH1 0x4 DUP3 ADD MSTORE PUSH1 0x17 PUSH1 0x24 DUP3 ADD MSTORE PUSH32 0x4E6F2073756368207265736F7572636520746F6B656E2E000000000000000000 PUSH1 0x44 DUP3 ADD MSTORE PUSH1 0x64 ADD PUSH2 0xE21 JUMP JUMPDEST PUSH1 0x0 DUP4 DUP2 MSTORE PUSH1 0x11 PUSH1 0x20 SWAP1 DUP2 MSTORE PUSH1 0x40 SWAP2 DUP3 SWAP1 KECCAK256 DUP3 MLOAD PUSH1 0xA0 DUP2 ADD DUP5 MSTORE DUP2 SLOAD PUSH20 0xFFFFFFFFFFFFFFFFFFFFFFFFFFFFFFFFFFFFFFFF AND DUP2 MSTORE PUSH1 0x1 DUP3 ADD SLOAD SWAP3 DUP2 ADD SWAP3 SWAP1 SWAP3 MSTORE PUSH1 0x2 DUP2 ADD SLOAD SWAP3 DUP3 ADD DUP4 SWAP1 MSTORE PUSH1 0x3 DUP2 ADD SLOAD PUSH1 0x60 DUP4 ADD MSTORE PUSH1 0x4 ADD SLOAD PUSH1 0xFF AND ISZERO ISZERO PUSH1 0x80 DUP3 ADD MSTORE SWAP1 DUP4 GT ISZERO PUSH2 0x36CD JUMPI PUSH1 0x40 MLOAD PUSH32 0x8C379A000000000000000000000000000000000000000000000000000000000 DUP2 MSTORE PUSH1 0x20 PUSH1 0x4 DUP3 ADD MSTORE PUSH1 0x3F PUSH1 0x24 DUP3 ADD MSTORE PUSH32 0x54686520666F72676520697320746F6F20736D616C6C20746F20666974207468 PUSH1 0x44 DUP3 ADD MSTORE PUSH32 0x6520616D6F756E74206F66206D6174657269616C207265717565737465642E00 PUSH1 0x64 DUP3 ADD MSTORE PUSH1 0x84 ADD PUSH2 0xE21 JUMP JUMPDEST DUP1 MLOAD PUSH1 0x40 MLOAD PUSH32 0x70A0823100000000000000000000000000000000000000000000000000000000 DUP2 MSTORE CALLER PUSH1 0x4 DUP3 ADD MSTORE DUP5 SWAP1 PUSH20 0xFFFFFFFFFFFFFFFFFFFFFFFFFFFFFFFFFFFFFFFF DUP4 AND SWAP1 PUSH4 0x70A08231 SWAP1 PUSH1 0x24 ADD PUSH1 0x20 PUSH1 0x40 MLOAD DUP1 DUP4 SUB DUP2 DUP7 DUP1 EXTCODESIZE ISZERO DUP1 ISZERO PUSH2 0x3736 JUMPI PUSH1 0x0 DUP1 REVERT JUMPDEST POP GAS STATICCALL ISZERO DUP1 ISZERO PUSH2 0x374A JUMPI RETURNDATASIZE PUSH1 0x0 DUP1 RETURNDATACOPY RETURNDATASIZE PUSH1 0x0 REVERT JUMPDEST POP POP POP POP PUSH1 0x40 MLOAD RETURNDATASIZE PUSH1 0x1F NOT PUSH1 0x1F DUP3 ADD AND DUP3 ADD DUP1 PUSH1 0x40 MSTORE POP DUP2 ADD SWAP1 PUSH2 0x376E SWAP2 SWAP1 PUSH2 0x43AF JUMP JUMPDEST LT ISZERO PUSH2 0x37D6 JUMPI PUSH1 0x40 MLOAD PUSH32 0x8C379A000000000000000000000000000000000000000000000000000000000 DUP2 MSTORE PUSH1 0x20 PUSH1 0x4 DUP3 ADD MSTORE PUSH1 0x1B PUSH1 0x24 DUP3 ADD MSTORE PUSH32 0x496E73756666696369656E742066756E647320746F206D696E742E0000000000 PUSH1 0x44 DUP3 ADD MSTORE PUSH1 0x64 ADD PUSH2 0xE21 JUMP JUMPDEST PUSH1 0x40 MLOAD PUSH32 0xDD62ED3E00000000000000000000000000000000000000000000000000000000 DUP2 MSTORE CALLER PUSH1 0x4 DUP3 ADD MSTORE ADDRESS PUSH1 0x24 DUP3 ADD MSTORE DUP5 SWAP1 PUSH20 0xFFFFFFFFFFFFFFFFFFFFFFFFFFFFFFFFFFFFFFFF DUP4 AND SWAP1 PUSH4 0xDD62ED3E SWAP1 PUSH1 0x44 ADD PUSH1 0x20 PUSH1 0x40 MLOAD DUP1 DUP4 SUB DUP2 DUP7 DUP1 EXTCODESIZE ISZERO DUP1 ISZERO PUSH2 0x3843 JUMPI PUSH1 0x0 DUP1 REVERT JUMPDEST POP GAS STATICCALL ISZERO DUP1 ISZERO PUSH2 0x3857 JUMPI RETURNDATASIZE PUSH1 0x0 DUP1 RETURNDATACOPY RETURNDATASIZE PUSH1 0x0 REVERT JUMPDEST POP POP POP POP PUSH1 0x40 MLOAD RETURNDATASIZE PUSH1 0x1F NOT PUSH1 0x1F DUP3 ADD AND DUP3 ADD DUP1 PUSH1 0x40 MSTORE POP DUP2 ADD SWAP1 PUSH2 0x387B SWAP2 SWAP1 PUSH2 0x43AF JUMP JUMPDEST LT ISZERO PUSH2 0x38E3 JUMPI PUSH1 0x40 MLOAD PUSH32 0x8C379A000000000000000000000000000000000000000000000000000000000 DUP2 MSTORE PUSH1 0x20 PUSH1 0x4 DUP3 ADD MSTORE PUSH1 0x1C PUSH1 0x24 DUP3 ADD MSTORE PUSH32 0x496E73756666696369656E7420617070726F7665642066756E64732E00000000 PUSH1 0x44 DUP3 ADD MSTORE PUSH1 0x64 ADD PUSH2 0xE21 JUMP JUMPDEST PUSH1 0x40 MLOAD PUSH32 0x23B872DD00000000000000000000000000000000000000000000000000000000 DUP2 MSTORE CALLER PUSH1 0x4 DUP3 ADD MSTORE ADDRESS PUSH1 0x24 DUP3 ADD MSTORE PUSH1 0x44 DUP2 ADD DUP6 SWAP1 MSTORE PUSH20 0xFFFFFFFFFFFFFFFFFFFFFFFFFFFFFFFFFFFFFFFF DUP3 AND SWAP1 PUSH4 0x23B872DD SWAP1 PUSH1 0x64 ADD PUSH1 0x20 PUSH1 0x40 MLOAD DUP1 DUP4 SUB DUP2 PUSH1 0x0 DUP8 DUP1 EXTCODESIZE ISZERO DUP1 ISZERO PUSH2 0x3957 JUMPI PUSH1 0x0 DUP1 REVERT JUMPDEST POP GAS CALL ISZERO DUP1 ISZERO PUSH2 0x396B JUMPI RETURNDATASIZE PUSH1 0x0 DUP1 RETURNDATACOPY RETURNDATASIZE PUSH1 0x0 REVERT JUMPDEST POP POP POP POP PUSH1 0x40 MLOAD RETURNDATASIZE PUSH1 0x1F NOT PUSH1 0x1F DUP3 ADD AND DUP3 ADD DUP1 PUSH1 0x40 MSTORE POP DUP2 ADD SWAP1 PUSH2 0x398F SWAP2 SWAP1 PUSH2 0x4337 JUMP JUMPDEST POP PUSH1 0x0 DUP3 PUSH1 0x20 ADD MLOAD DUP6 PUSH2 0x39A2 SWAP2 SWAP1 PUSH2 0x45D8 JUMP JUMPDEST PUSH1 0x40 DUP1 MLOAD DUP8 DUP2 MSTORE PUSH1 0x20 DUP2 ADD DUP4 SWAP1 MSTORE SWAP2 SWAP3 POP CALLER SWAP2 PUSH32 0x3ADF92E6F32049BA19076BA71279A2A6C4A61BF23125EC746C2814B4B03EC16E SWAP2 ADD PUSH1 0x40 MLOAD DUP1 SWAP2 SUB SWAP1 LOG2 PUSH2 0x1430 CALLER DUP3 PUSH2 0x3D1E JUMP JUMPDEST PUSH1 0xD DUP1 SLOAD PUSH1 0x0 SWAP2 DUP2 SWAP1 DUP4 PUSH2 0x39FD DUP4 PUSH2 0x467E JUMP JUMPDEST SWAP1 SWAP2 SSTORE POP POP PUSH1 0x5 SLOAD PUSH1 0x40 MLOAD PUSH32 0x4A0E2AA100000000000000000000000000000000000000000000000000000000 DUP2 MSTORE CALLER PUSH1 0x4 DUP3 ADD MSTORE PUSH1 0x24 DUP2 ADD DUP9 SWAP1 MSTORE PUSH1 0x44 DUP2 ADD DUP7 SWAP1 MSTORE PUSH1 0x64 DUP2 ADD DUP6 SWAP1 MSTORE PUSH1 0x0 SWAP2 PUSH20 0xFFFFFFFFFFFFFFFFFFFFFFFFFFFFFFFFFFFFFFFF AND SWAP1 PUSH4 0x4A0E2AA1 SWAP1 PUSH1 0x84 ADD PUSH1 0x20 PUSH1 0x40 MLOAD DUP1 DUP4 SUB DUP2 PUSH1 0x0 DUP8 DUP1 EXTCODESIZE ISZERO DUP1 ISZERO PUSH2 0x3A83 JUMPI PUSH1 0x0 DUP1 REVERT JUMPDEST POP GAS CALL ISZERO DUP1 ISZERO PUSH2 0x3A97 JUMPI RETURNDATASIZE PUSH1 0x0 DUP1 RETURNDATACOPY RETURNDATASIZE PUSH1 0x0 REVERT JUMPDEST POP POP POP POP PUSH1 0x40 MLOAD RETURNDATASIZE PUSH1 0x1F NOT PUSH1 0x1F DUP3 ADD AND DUP3 ADD DUP1 PUSH1 0x40 MSTORE POP DUP2 ADD SWAP1 PUSH2 0x3ABB SWAP2 SWAP1 PUSH2 0x43AF JUMP JUMPDEST PUSH1 0x40 DUP1 MLOAD PUSH1 0x80 DUP2 ADD DUP3 MSTORE PUSH20 0xFFFFFFFFFFFFFFFFFFFFFFFFFFFFFFFFFFFFFFFF SWAP12 DUP13 AND DUP2 MSTORE PUSH1 0x20 DUP1 DUP3 ADD SWAP12 DUP13 MSTORE SWAP9 DUP13 AND DUP2 DUP4 ADD SWAP1 DUP2 MSTORE PUSH1 0x60 DUP3 ADD DUP5 DUP2 MSTORE PUSH1 0x0 SWAP7 DUP8 MSTORE PUSH1 0x8 SWAP1 SWAP11 MSTORE SWAP2 SWAP1 SWAP5 KECCAK256 SWAP4 MLOAD DUP5 SLOAD SWAP1 DUP13 AND PUSH32 0xFFFFFFFFFFFFFFFFFFFFFFFF0000000000000000000000000000000000000000 SWAP2 DUP3 AND OR DUP6 SSTORE SWAP10 MLOAD PUSH1 0x1 DUP6 ADD SSTORE MLOAD PUSH1 0x2 DUP5 ADD DUP1 SLOAD SWAP2 SWAP1 SWAP12 AND SWAP10 AND SWAP9 SWAP1 SWAP9 OR SWAP1 SWAP9 SSTORE SWAP4 MLOAD PUSH1 0x3 SWAP1 SWAP5 ADD SWAP4 SWAP1 SWAP4 SSTORE POP SWAP3 SWAP5 SWAP4 POP POP POP POP JUMP JUMPDEST PUSH1 0xC DUP1 SLOAD PUSH1 0x0 SWAP2 DUP2 SWAP1 DUP4 PUSH2 0x3B76 DUP4 PUSH2 0x467E JUMP JUMPDEST SWAP1 SWAP2 SSTORE POP POP PUSH1 0x5 SLOAD PUSH1 0x40 MLOAD PUSH32 0x4A0E2AA100000000000000000000000000000000000000000000000000000000 DUP2 MSTORE CALLER PUSH1 0x4 DUP3 ADD MSTORE PUSH1 0x24 DUP2 ADD DUP9 SWAP1 MSTORE PUSH1 0x44 DUP2 ADD DUP7 SWAP1 MSTORE PUSH1 0x64 DUP2 ADD DUP6 SWAP1 MSTORE PUSH1 0x0 SWAP2 PUSH20 0xFFFFFFFFFFFFFFFFFFFFFFFFFFFFFFFFFFFFFFFF AND SWAP1 PUSH4 0x4A0E2AA1 SWAP1 PUSH1 0x84 ADD PUSH1 0x20 PUSH1 0x40 MLOAD DUP1 DUP4 SUB DUP2 PUSH1 0x0 DUP8 DUP1 EXTCODESIZE ISZERO DUP1 ISZERO PUSH2 0x3BFC JUMPI PUSH1 0x0 DUP1 REVERT JUMPDEST POP GAS CALL ISZERO DUP1 ISZERO PUSH2 0x3C10 JUMPI RETURNDATASIZE PUSH1 0x0 DUP1 RETURNDATACOPY RETURNDATASIZE PUSH1 0x0 REVERT JUMPDEST POP POP POP POP PUSH1 0x40 MLOAD RETURNDATASIZE PUSH1 0x1F NOT PUSH1 0x1F DUP3 ADD AND DUP3 ADD DUP1 PUSH1 0x40 MSTORE POP DUP2 ADD SWAP1 PUSH2 0x3C34 SWAP2 SWAP1 PUSH2 0x43AF JUMP JUMPDEST PUSH1 0x40 DUP1 MLOAD PUSH1 0x80 DUP2 ADD DUP3 MSTORE PUSH20 0xFFFFFFFFFFFFFFFFFFFFFFFFFFFFFFFFFFFFFFFF DUP13 DUP2 AND DUP1 DUP4 MSTORE PUSH1 0x20 DUP1 DUP5 ADD DUP15 DUP2 MSTORE DUP13 DUP5 AND DUP6 DUP8 ADD SWAP1 DUP2 MSTORE PUSH1 0x60 DUP1 DUP8 ADD DUP10 DUP2 MSTORE PUSH1 0x0 DUP13 DUP2 MSTORE PUSH1 0x7 DUP7 MSTORE DUP10 SWAP1 KECCAK256 SWAP8 MLOAD DUP9 SLOAD SWAP1 DUP9 AND PUSH32 0xFFFFFFFFFFFFFFFFFFFFFFFF0000000000000000000000000000000000000000 SWAP2 DUP3 AND OR DUP10 SSTORE SWAP4 MLOAD PUSH1 0x1 DUP10 ADD SSTORE SWAP2 MLOAD PUSH1 0x2 DUP9 ADD DUP1 SLOAD SWAP2 SWAP1 SWAP8 AND SWAP4 AND SWAP3 SWAP1 SWAP3 OR SWAP1 SWAP5 SSTORE SWAP3 MLOAD PUSH1 0x3 SWAP1 SWAP5 ADD SWAP4 SWAP1 SWAP4 SSTORE DUP4 MLOAD SWAP1 DUP2 MSTORE SWAP2 DUP3 ADD DUP13 SWAP1 MSTORE SWAP2 DUP2 ADD DUP6 SWAP1 MSTORE SWAP2 SWAP3 POP PUSH32 0x910585F63ACC02D6018F09A37FBAABC1337981145D31B4EC43B8D459E8CE67BA SWAP2 ADD PUSH1 0x40 MLOAD DUP1 SWAP2 SUB SWAP1 LOG1 SWAP9 SWAP8 POP POP POP POP POP POP POP POP JUMP JUMPDEST PUSH20 0xFFFFFFFFFFFFFFFFFFFFFFFFFFFFFFFFFFFFFFFF DUP3 AND PUSH2 0x3D9B JUMPI PUSH1 0x40 MLOAD PUSH32 0x8C379A000000000000000000000000000000000000000000000000000000000 DUP2 MSTORE PUSH1 0x20 PUSH1 0x4 DUP3 ADD MSTORE PUSH1 0x1F PUSH1 0x24 DUP3 ADD MSTORE PUSH32 0x45524332303A206D696E7420746F20746865207A65726F206164647265737300 PUSH1 0x44 DUP3 ADD MSTORE PUSH1 0x64 ADD PUSH2 0xE21 JUMP JUMPDEST DUP1 PUSH1 0x2 PUSH1 0x0 DUP3 DUP3 SLOAD PUSH2 0x3DAD SWAP2 SWAP1 PUSH2 0x45C0 JUMP JUMPDEST SWAP1 SWAP2 SSTORE POP POP PUSH20 0xFFFFFFFFFFFFFFFFFFFFFFFFFFFFFFFFFFFFFFFF DUP3 AND PUSH1 0x0 SWAP1 DUP2 MSTORE PUSH1 0x20 DUP2 SWAP1 MSTORE PUSH1 0x40 DUP2 KECCAK256 DUP1 SLOAD DUP4 SWAP3 SWAP1 PUSH2 0x3DE7 SWAP1 DUP5 SWAP1 PUSH2 0x45C0 JUMP JUMPDEST SWAP1 SWAP2 SSTORE POP POP PUSH1 0x40 MLOAD DUP2 DUP2 MSTORE PUSH20 0xFFFFFFFFFFFFFFFFFFFFFFFFFFFFFFFFFFFFFFFF DUP4 AND SWAP1 PUSH1 0x0 SWAP1 PUSH32 0xDDF252AD1BE2C89B69C2B068FC378DAA952BA7F163C4A11628F55A4DF523B3EF SWAP1 PUSH1 0x20 ADD PUSH1 0x40 MLOAD DUP1 SWAP2 SUB SWAP1 LOG3 POP POP JUMP JUMPDEST DUP3 DUP1 SLOAD DUP3 DUP3 SSTORE SWAP1 PUSH1 0x0 MSTORE PUSH1 0x20 PUSH1 0x0 KECCAK256 SWAP1 DUP2 ADD SWAP3 DUP3 ISZERO PUSH2 0x3E79 JUMPI SWAP2 PUSH1 0x20 MUL DUP3 ADD JUMPDEST DUP3 DUP2 GT ISZERO PUSH2 0x3E79 JUMPI DUP3 MLOAD DUP3 SSTORE SWAP2 PUSH1 0x20 ADD SWAP2 SWAP1 PUSH1 0x1 ADD SWAP1 PUSH2 0x3E5E JUMP JUMPDEST POP PUSH2 0x3E85 SWAP3 SWAP2 POP PUSH2 0x3E89 JUMP JUMPDEST POP SWAP1 JUMP JUMPDEST JUMPDEST DUP1 DUP3 GT ISZERO PUSH2 0x3E85 JUMPI PUSH1 0x0 DUP2 SSTORE PUSH1 0x1 ADD PUSH2 0x3E8A JUMP JUMPDEST PUSH1 0x0 DUP3 PUSH1 0x1F DUP4 ADD SLT PUSH2 0x3EAF JUMPI PUSH1 0x0 DUP1 REVERT JUMPDEST DUP2 CALLDATALOAD PUSH1 0x20 PUSH8 0xFFFFFFFFFFFFFFFF DUP3 GT ISZERO PUSH2 0x3ECB JUMPI PUSH2 0x3ECB PUSH2 0x46E6 JUMP JUMPDEST DUP2 PUSH1 0x5 SHL PUSH2 0x3EDA DUP3 DUP3 ADD PUSH2 0x4571 JUMP JUMPDEST DUP4 DUP2 MSTORE DUP3 DUP2 ADD SWAP1 DUP7 DUP5 ADD DUP4 DUP9 ADD DUP6 ADD DUP10 LT ISZERO PUSH2 0x3EF5 JUMPI PUSH1 0x0 DUP1 REVERT JUMPDEST PUSH1 0x0 SWAP4 POP JUMPDEST DUP6 DUP5 LT ISZERO PUSH2 0x3F18 JUMPI DUP1 CALLDATALOAD DUP4 MSTORE PUSH1 0x1 SWAP4 SWAP1 SWAP4 ADD SWAP3 SWAP2 DUP5 ADD SWAP2 DUP5 ADD PUSH2 0x3EFA JUMP JUMPDEST POP SWAP8 SWAP7 POP POP POP POP POP POP POP JUMP JUMPDEST PUSH1 0x0 DUP3 PUSH1 0x1F DUP4 ADD SLT PUSH2 0x3F35 JUMPI PUSH1 0x0 DUP1 REVERT JUMPDEST DUP2 CALLDATALOAD PUSH8 0xFFFFFFFFFFFFFFFF DUP2 GT ISZERO PUSH2 0x3F4F JUMPI PUSH2 0x3F4F PUSH2 0x46E6 JUMP JUMPDEST PUSH2 0x3F80 PUSH1 0x20 PUSH32 0xFFFFFFFFFFFFFFFFFFFFFFFFFFFFFFFFFFFFFFFFFFFFFFFFFFFFFFFFFFFFFFE0 PUSH1 0x1F DUP5 ADD AND ADD PUSH2 0x4571 JUMP JUMPDEST DUP2 DUP2 MSTORE DUP5 PUSH1 0x20 DUP4 DUP7 ADD ADD GT ISZERO PUSH2 0x3F95 JUMPI PUSH1 0x0 DUP1 REVERT JUMPDEST DUP2 PUSH1 0x20 DUP6 ADD PUSH1 0x20 DUP4 ADD CALLDATACOPY PUSH1 0x0 SWAP2 DUP2 ADD PUSH1 0x20 ADD SWAP2 SWAP1 SWAP2 MSTORE SWAP4 SWAP3 POP POP POP JUMP JUMPDEST PUSH1 0x0 PUSH1 0x20 DUP3 DUP5 SUB SLT ISZERO PUSH2 0x3FC4 JUMPI PUSH1 0x0 DUP1 REVERT JUMPDEST DUP2 CALLDATALOAD PUSH2 0x10D3 DUP2 PUSH2 0x4715 JUMP JUMPDEST PUSH1 0x0 DUP1 PUSH1 0x40 DUP4 DUP6 SUB SLT ISZERO PUSH2 0x3FE2 JUMPI PUSH1 0x0 DUP1 REVERT JUMPDEST DUP3 CALLDATALOAD PUSH2 0x3FED DUP2 PUSH2 0x4715 JUMP JUMPDEST SWAP2 POP PUSH1 0x20 DUP4 ADD CALLDATALOAD PUSH2 0x3FFD DUP2 PUSH2 0x4715 JUMP JUMPDEST DUP1 SWAP2 POP POP SWAP3 POP SWAP3 SWAP1 POP JUMP JUMPDEST PUSH1 0x0 DUP1 PUSH1 0x0 DUP1 PUSH1 0x0 PUSH1 0xA0 DUP7 DUP9 SUB SLT ISZERO PUSH2 0x4020 JUMPI PUSH1 0x0 DUP1 REVERT JUMPDEST DUP6 CALLDATALOAD PUSH2 0x402B DUP2 PUSH2 0x4715 JUMP JUMPDEST SWAP5 POP PUSH1 0x20 DUP7 ADD CALLDATALOAD PUSH2 0x403B DUP2 PUSH2 0x4715 JUMP JUMPDEST SWAP4 POP PUSH1 0x40 DUP7 ADD CALLDATALOAD PUSH8 0xFFFFFFFFFFFFFFFF DUP1 DUP3 GT ISZERO PUSH2 0x4058 JUMPI PUSH1 0x0 DUP1 REVERT JUMPDEST PUSH2 0x4064 DUP10 DUP4 DUP11 ADD PUSH2 0x3E9E JUMP JUMPDEST SWAP5 POP PUSH1 0x60 DUP9 ADD CALLDATALOAD SWAP2 POP DUP1 DUP3 GT ISZERO PUSH2 0x407A JUMPI PUSH1 0x0 DUP1 REVERT JUMPDEST PUSH2 0x4086 DUP10 DUP4 DUP11 ADD PUSH2 0x3E9E JUMP JUMPDEST SWAP4 POP PUSH1 0x80 DUP9 ADD CALLDATALOAD SWAP2 POP DUP1 DUP3 GT ISZERO PUSH2 0x409C JUMPI PUSH1 0x0 DUP1 REVERT JUMPDEST POP PUSH2 0x40A9 DUP9 DUP3 DUP10 ADD PUSH2 0x3F24 JUMP JUMPDEST SWAP2 POP POP SWAP3 SWAP6 POP SWAP3 SWAP6 SWAP1 SWAP4 POP JUMP JUMPDEST PUSH1 0x0 DUP1 PUSH1 0x0 PUSH1 0x60 DUP5 DUP7 SUB SLT ISZERO PUSH2 0x40CB JUMPI PUSH1 0x0 DUP1 REVERT JUMPDEST DUP4 CALLDATALOAD PUSH2 0x40D6 DUP2 PUSH2 0x4715 JUMP JUMPDEST SWAP3 POP PUSH1 0x20 DUP5 ADD CALLDATALOAD PUSH2 0x40E6 DUP2 PUSH2 0x4715 JUMP JUMPDEST SWAP3 SWAP6 SWAP3 SWAP5 POP POP POP PUSH1 0x40 SWAP2 SWAP1 SWAP2 ADD CALLDATALOAD SWAP1 JUMP JUMPDEST PUSH1 0x0 DUP1 PUSH1 0x0 DUP1 PUSH1 0x80 DUP6 DUP8 SUB SLT ISZERO PUSH2 0x410D JUMPI PUSH1 0x0 DUP1 REVERT JUMPDEST DUP5 CALLDATALOAD PUSH2 0x4118 DUP2 PUSH2 0x4715 JUMP JUMPDEST SWAP4 POP PUSH1 0x20 DUP6 ADD CALLDATALOAD PUSH2 0x4128 DUP2 PUSH2 0x4715 JUMP JUMPDEST SWAP3 POP PUSH1 0x40 DUP6 ADD CALLDATALOAD SWAP2 POP PUSH1 0x60 DUP6 ADD CALLDATALOAD PUSH8 0xFFFFFFFFFFFFFFFF DUP2 GT ISZERO PUSH2 0x414B JUMPI PUSH1 0x0 DUP1 REVERT JUMPDEST PUSH2 0x4157 DUP8 DUP3 DUP9 ADD PUSH2 0x3F24 JUMP JUMPDEST SWAP2 POP POP SWAP3 SWAP6 SWAP2 SWAP5 POP SWAP3 POP JUMP JUMPDEST PUSH1 0x0 DUP1 PUSH1 0x0 DUP1 PUSH1 0x0 PUSH1 0xA0 DUP7 DUP9 SUB SLT ISZERO PUSH2 0x417B JUMPI PUSH1 0x0 DUP1 REVERT JUMPDEST DUP6 CALLDATALOAD PUSH2 0x4186 DUP2 PUSH2 0x4715 JUMP JUMPDEST SWAP5 POP PUSH1 0x20 DUP7 ADD CALLDATALOAD PUSH2 0x4196 DUP2 PUSH2 0x4715 JUMP JUMPDEST SWAP4 POP PUSH1 0x40 DUP7 ADD CALLDATALOAD SWAP3 POP PUSH1 0x60 DUP7 ADD CALLDATALOAD SWAP2 POP PUSH1 0x80 DUP7 ADD CALLDATALOAD PUSH8 0xFFFFFFFFFFFFFFFF DUP2 GT ISZERO PUSH2 0x41C0 JUMPI PUSH1 0x0 DUP1 REVERT JUMPDEST PUSH2 0x40A9 DUP9 DUP3 DUP10 ADD PUSH2 0x3F24 JUMP JUMPDEST PUSH1 0x0 DUP1 PUSH1 0x0 DUP1 PUSH1 0x80 DUP6 DUP8 SUB SLT ISZERO PUSH2 0x41E2 JUMPI PUSH1 0x0 DUP1 REVERT JUMPDEST DUP5 CALLDATALOAD PUSH2 0x41ED DUP2 PUSH2 0x4715 JUMP JUMPDEST SWAP4 POP PUSH1 0x20 DUP6 ADD CALLDATALOAD PUSH8 0xFFFFFFFFFFFFFFFF DUP1 DUP3 GT ISZERO PUSH2 0x420A JUMPI PUSH1 0x0 DUP1 REVERT JUMPDEST PUSH2 0x4216 DUP9 DUP4 DUP10 ADD PUSH2 0x3E9E JUMP JUMPDEST SWAP5 POP PUSH1 0x40 DUP8 ADD CALLDATALOAD SWAP2 POP DUP1 DUP3 GT ISZERO PUSH2 0x422C JUMPI PUSH1 0x0 DUP1 REVERT JUMPDEST POP PUSH2 0x4239 DUP8 DUP3 DUP9 ADD PUSH2 0x3E9E JUMP JUMPDEST SWAP3 POP POP PUSH1 0x60 DUP6 ADD CALLDATALOAD PUSH2 0x424A DUP2 PUSH2 0x4715 JUMP JUMPDEST SWAP4 SWAP7 SWAP3 SWAP6 POP SWAP1 SWAP4 POP POP JUMP JUMPDEST PUSH1 0x0 DUP1 PUSH1 0x40 DUP4 DUP6 SUB SLT ISZERO PUSH2 0x4268 JUMPI PUSH1 0x0 DUP1 REVERT JUMPDEST DUP3 CALLDATALOAD PUSH2 0x4273 DUP2 PUSH2 0x4715 JUMP JUMPDEST SWAP5 PUSH1 0x20 SWAP4 SWAP1 SWAP4 ADD CALLDATALOAD SWAP4 POP POP POP JUMP JUMPDEST PUSH1 0x0 DUP1 PUSH1 0x0 PUSH1 0x60 DUP5 DUP7 SUB SLT ISZERO PUSH2 0x4296 JUMPI PUSH1 0x0 DUP1 REVERT JUMPDEST DUP4 CALLDATALOAD PUSH2 0x42A1 DUP2 PUSH2 0x4715 JUMP JUMPDEST SWAP3 POP PUSH1 0x20 DUP5 ADD CALLDATALOAD SWAP2 POP PUSH1 0x40 DUP5 ADD CALLDATALOAD PUSH2 0x42B8 DUP2 PUSH2 0x4715 JUMP JUMPDEST DUP1 SWAP2 POP POP SWAP3 POP SWAP3 POP SWAP3 JUMP JUMPDEST PUSH1 0x0 DUP1 PUSH1 0x0 PUSH1 0x60 DUP5 DUP7 SUB SLT ISZERO PUSH2 0x42D8 JUMPI PUSH1 0x0 DUP1 REVERT JUMPDEST DUP4 CALLDATALOAD PUSH2 0x42E3 DUP2 PUSH2 0x4715 JUMP JUMPDEST SWAP6 PUSH1 0x20 DUP6 ADD CALLDATALOAD SWAP6 POP PUSH1 0x40 SWAP1 SWAP5 ADD CALLDATALOAD SWAP4 SWAP3 POP POP POP JUMP JUMPDEST PUSH1 0x0 DUP1 PUSH1 0x0 DUP1 PUSH1 0x80 DUP6 DUP8 SUB SLT ISZERO PUSH2 0x430E JUMPI PUSH1 0x0 DUP1 REVERT JUMPDEST DUP5 CALLDATALOAD PUSH2 0x4319 DUP2 PUSH2 0x4715 JUMP JUMPDEST SWAP4 POP PUSH1 0x20 DUP6 ADD CALLDATALOAD SWAP3 POP PUSH1 0x40 DUP6 ADD CALLDATALOAD SWAP2 POP PUSH1 0x60 DUP6 ADD CALLDATALOAD PUSH2 0x424A DUP2 PUSH2 0x4715 JUMP JUMPDEST PUSH1 0x0 PUSH1 0x20 DUP3 DUP5 SUB SLT ISZERO PUSH2 0x4349 JUMPI PUSH1 0x0 DUP1 REVERT JUMPDEST DUP2 MLOAD PUSH2 0x10D3 DUP2 PUSH2 0x473A JUMP JUMPDEST PUSH1 0x0 PUSH1 0x20 DUP3 DUP5 SUB SLT ISZERO PUSH2 0x4366 JUMPI PUSH1 0x0 DUP1 REVERT JUMPDEST DUP2 CALLDATALOAD PUSH32 0xFFFFFFFF00000000000000000000000000000000000000000000000000000000 DUP2 AND DUP2 EQ PUSH2 0x10D3 JUMPI PUSH1 0x0 DUP1 REVERT JUMPDEST PUSH1 0x0 PUSH1 0x20 DUP3 DUP5 SUB SLT ISZERO PUSH2 0x43A8 JUMPI PUSH1 0x0 DUP1 REVERT JUMPDEST POP CALLDATALOAD SWAP2 SWAP1 POP JUMP JUMPDEST PUSH1 0x0 PUSH1 0x20 DUP3 DUP5 SUB SLT ISZERO PUSH2 0x43C1 JUMPI PUSH1 0x0 DUP1 REVERT JUMPDEST POP MLOAD SWAP2 SWAP1 POP JUMP JUMPDEST PUSH1 0x0 DUP1 PUSH1 0x40 DUP4 DUP6 SUB SLT ISZERO PUSH2 0x43DB JUMPI PUSH1 0x0 DUP1 REVERT JUMPDEST DUP3 CALLDATALOAD SWAP2 POP PUSH1 0x20 DUP4 ADD CALLDATALOAD PUSH2 0x3FFD DUP2 PUSH2 0x4715 JUMP JUMPDEST PUSH1 0x0 DUP1 PUSH1 0x40 DUP4 DUP6 SUB SLT ISZERO PUSH2 0x4400 JUMPI PUSH1 0x0 DUP1 REVERT JUMPDEST DUP3 CALLDATALOAD SWAP2 POP PUSH1 0x20 DUP4 ADD CALLDATALOAD PUSH2 0x3FFD DUP2 PUSH2 0x473A JUMP JUMPDEST PUSH1 0x0 DUP1 PUSH1 0x0 PUSH1 0x60 DUP5 DUP7 SUB SLT ISZERO PUSH2 0x4427 JUMPI PUSH1 0x0 DUP1 REVERT JUMPDEST DUP4 CALLDATALOAD SWAP3 POP PUSH1 0x20 DUP5 ADD CALLDATALOAD PUSH2 0x40E6 DUP2 PUSH2 0x473A JUMP JUMPDEST PUSH1 0x0 DUP1 PUSH1 0x40 DUP4 DUP6 SUB SLT ISZERO PUSH2 0x444C JUMPI PUSH1 0x0 DUP1 REVERT JUMPDEST POP POP DUP1 CALLDATALOAD SWAP3 PUSH1 0x20 SWAP1 SWAP2 ADD CALLDATALOAD SWAP2 POP JUMP JUMPDEST PUSH1 0x0 DUP2 MLOAD DUP1 DUP5 MSTORE PUSH1 0x20 DUP1 DUP6 ADD SWAP5 POP DUP1 DUP5 ADD PUSH1 0x0 JUMPDEST DUP4 DUP2 LT ISZERO PUSH2 0x448B JUMPI DUP2 MLOAD DUP8 MSTORE SWAP6 DUP3 ADD SWAP6 SWAP1 DUP3 ADD SWAP1 PUSH1 0x1 ADD PUSH2 0x446F JUMP JUMPDEST POP SWAP5 SWAP6 SWAP5 POP POP POP POP POP JUMP JUMPDEST PUSH1 0x0 PUSH20 0xFFFFFFFFFFFFFFFFFFFFFFFFFFFFFFFFFFFFFFFF DUP1 DUP8 AND DUP4 MSTORE DUP1 DUP7 AND PUSH1 0x20 DUP5 ADD MSTORE POP PUSH1 0xA0 PUSH1 0x40 DUP4 ADD MSTORE PUSH2 0x44CF PUSH1 0xA0 DUP4 ADD DUP6 PUSH2 0x445B JUMP JUMPDEST DUP3 DUP2 SUB PUSH1 0x60 DUP5 ADD MSTORE PUSH2 0x44E1 DUP2 DUP6 PUSH2 0x445B JUMP JUMPDEST DUP4 DUP2 SUB PUSH1 0x80 SWAP1 SWAP5 ADD SWAP4 SWAP1 SWAP4 MSTORE POP POP PUSH1 0x0 DUP2 MSTORE PUSH1 0x20 ADD SWAP5 SWAP4 POP POP POP POP JUMP JUMPDEST PUSH1 0x0 PUSH1 0x20 DUP1 DUP4 MSTORE DUP4 MLOAD DUP1 DUP3 DUP6 ADD MSTORE PUSH1 0x0 JUMPDEST DUP2 DUP2 LT ISZERO PUSH2 0x452B JUMPI DUP6 DUP2 ADD DUP4 ADD MLOAD DUP6 DUP3 ADD PUSH1 0x40 ADD MSTORE DUP3 ADD PUSH2 0x450F JUMP JUMPDEST DUP2 DUP2 GT ISZERO PUSH2 0x453D JUMPI PUSH1 0x0 PUSH1 0x40 DUP4 DUP8 ADD ADD MSTORE JUMPDEST POP PUSH1 0x1F ADD PUSH32 0xFFFFFFFFFFFFFFFFFFFFFFFFFFFFFFFFFFFFFFFFFFFFFFFFFFFFFFFFFFFFFFE0 AND SWAP3 SWAP1 SWAP3 ADD PUSH1 0x40 ADD SWAP4 SWAP3 POP POP POP JUMP JUMPDEST PUSH1 0x40 MLOAD PUSH1 0x1F DUP3 ADD PUSH32 0xFFFFFFFFFFFFFFFFFFFFFFFFFFFFFFFFFFFFFFFFFFFFFFFFFFFFFFFFFFFFFFE0 AND DUP2 ADD PUSH8 0xFFFFFFFFFFFFFFFF DUP2 GT DUP3 DUP3 LT OR ISZERO PUSH2 0x45B8 JUMPI PUSH2 0x45B8 PUSH2 0x46E6 JUMP JUMPDEST PUSH1 0x40 MSTORE SWAP2 SWAP1 POP JUMP JUMPDEST PUSH1 0x0 DUP3 NOT DUP3 GT ISZERO PUSH2 0x45D3 JUMPI PUSH2 0x45D3 PUSH2 0x46B7 JUMP JUMPDEST POP ADD SWAP1 JUMP JUMPDEST PUSH1 0x0 DUP3 PUSH2 0x460E JUMPI PUSH32 0x4E487B7100000000000000000000000000000000000000000000000000000000 PUSH1 0x0 MSTORE PUSH1 0x12 PUSH1 0x4 MSTORE PUSH1 0x24 PUSH1 0x0 REVERT JUMPDEST POP DIV SWAP1 JUMP JUMPDEST PUSH1 0x0 DUP3 DUP3 LT ISZERO PUSH2 0x4625 JUMPI PUSH2 0x4625 PUSH2 0x46B7 JUMP JUMPDEST POP SUB SWAP1 JUMP JUMPDEST PUSH1 0x1 DUP2 DUP2 SHR SWAP1 DUP3 AND DUP1 PUSH2 0x463E JUMPI PUSH1 0x7F DUP3 AND SWAP2 POP JUMPDEST PUSH1 0x20 DUP3 LT DUP2 EQ ISZERO PUSH2 0x4678 JUMPI PUSH32 0x4E487B7100000000000000000000000000000000000000000000000000000000 PUSH1 0x0 MSTORE PUSH1 0x22 PUSH1 0x4 MSTORE PUSH1 0x24 PUSH1 0x0 REVERT JUMPDEST POP SWAP2 SWAP1 POP JUMP JUMPDEST PUSH1 0x0 PUSH32 0xFFFFFFFFFFFFFFFFFFFFFFFFFFFFFFFFFFFFFFFFFFFFFFFFFFFFFFFFFFFFFFFF DUP3 EQ ISZERO PUSH2 0x46B0 JUMPI PUSH2 0x46B0 PUSH2 0x46B7 JUMP JUMPDEST POP PUSH1 0x1 ADD SWAP1 JUMP JUMPDEST PUSH32 0x4E487B7100000000000000000000000000000000000000000000000000000000 PUSH1 0x0 MSTORE PUSH1 0x11 PUSH1 0x4 MSTORE PUSH1 0x24 PUSH1 0x0 REVERT JUMPDEST PUSH32 0x4E487B7100000000000000000000000000000000000000000000000000000000 PUSH1 0x0 MSTORE PUSH1 0x41 PUSH1 0x4 MSTORE PUSH1 0x24 PUSH1 0x0 REVERT JUMPDEST PUSH20 0xFFFFFFFFFFFFFFFFFFFFFFFFFFFFFFFFFFFFFFFF DUP2 AND DUP2 EQ PUSH2 0x4737 JUMPI PUSH1 0x0 DUP1 REVERT JUMPDEST POP JUMP JUMPDEST DUP1 ISZERO ISZERO DUP2 EQ PUSH2 0x4737 JUMPI PUSH1 0x0 DUP1 REVERT INVALID LOG2 PUSH5 0x6970667358 0x22 SLT KECCAK256 0x5E 0xAB 0x28 DUP1 0xD7 LOG2 0x5E 0xD8 RETURNDATACOPY SWAP13 0xEA 0xB9 JUMPI AND LOG4 SWAP8 EXP DUP6 SAR 0xA6 0xC8 0x4A PUSH18 0x253501FFE0D94CC65264736F6C6343000807 STOP CALLER "
		},
		"gasEstimates": {
			"creation": {
				"codeDepositCost": "2343600",
				"executionCost": "infinite",
				"totalCost": "infinite"
			},
			"external": {
				"allowance(address,address)": "infinite",
				"approve(address,uint256)": "24622",
				"balanceOf(address)": "2577",
				"decimals()": "289",
				"decreaseAllowance(address,uint256)": "26879",
				"executeETHWithdraw(uint256)": "infinite",
				"executeMint(uint256)": "infinite",
				"executeWithdrawERC1155(uint256)": "infinite",
				"executeWithdrawERC1155Batch(uint256)": "infinite",
				"executeWithdrawERC20(uint256)": "infinite",
				"executeWithdrawERC721(uint256)": "infinite",
				"getVotingMachine()": "2400",
				"increaseAllowance(address,uint256)": "26925",
				"name()": "infinite",
				"onERC1155BatchReceived(address,address,uint256[],uint256[],bytes)": "infinite",
				"onERC1155Received(address,address,uint256,uint256,bytes)": "infinite",
				"onERC721Received(address,address,uint256,bytes)": "infinite",
				"requestETHWithdraw(uint256,address)": "infinite",
				"requestMint(address,uint256)": "infinite",
				"requestWithdrawERC1155(address,uint256,uint256,address)": "infinite",
				"requestWithdrawERC1155(address,uint256[],uint256[],address)": "infinite",
				"requestWithdrawERC20(address,uint256,address)": "infinite",
				"requestWithdrawERC721(address,uint256,address)": "infinite",
				"supportsInterface(bytes4)": "infinite",
				"symbol()": "infinite",
				"totalSupply()": "2349",
				"transfer(address,uint256)": "51166",
				"transferFrom(address,address,uint256)": "infinite"
			}
		},
		"methodIdentifiers": {
			"allowance(address,address)": "dd62ed3e",
			"approve(address,uint256)": "095ea7b3",
			"balanceOf(address)": "70a08231",
			"decimals()": "313ce567",
			"decreaseAllowance(address,uint256)": "a457c2d7",
			"executeETHWithdraw(uint256)": "fc04e65d",
			"executeMint(uint256)": "e7a486fb",
			"executeWithdrawERC1155(uint256)": "be5baceb",
			"executeWithdrawERC1155Batch(uint256)": "5eb3009c",
			"executeWithdrawERC20(uint256)": "f3a0ae2c",
			"executeWithdrawERC721(uint256)": "fc185b83",
			"getVotingMachine()": "dfe5576b",
			"increaseAllowance(address,uint256)": "39509351",
			"name()": "06fdde03",
			"onERC1155BatchReceived(address,address,uint256[],uint256[],bytes)": "bc197c81",
			"onERC1155Received(address,address,uint256,uint256,bytes)": "f23a6e61",
			"onERC721Received(address,address,uint256,bytes)": "150b7a02",
			"requestETHWithdraw(uint256,address)": "8b07af2b",
			"requestMint(address,uint256)": "31a02bce",
			"requestWithdrawERC1155(address,uint256,uint256,address)": "a1f4225b",
			"requestWithdrawERC1155(address,uint256[],uint256[],address)": "62dfcc07",
			"requestWithdrawERC20(address,uint256,address)": "f2386a36",
			"requestWithdrawERC721(address,uint256,address)": "e121158e",
			"supportsInterface(bytes4)": "01ffc9a7",
			"symbol()": "95d89b41",
			"totalSupply()": "18160ddd",
			"transfer(address,uint256)": "a9059cbb",
			"transferFrom(address,address,uint256)": "23b872dd"
		}
	},
	"abi": [
		{
			"inputs": [],
			"stateMutability": "nonpayable",
			"type": "constructor"
		},
		{
			"anonymous": false,
			"inputs": [
				{
					"indexed": true,
					"internalType": "address",
					"name": "owner",
					"type": "address"
				},
				{
					"indexed": true,
					"internalType": "address",
					"name": "spender",
					"type": "address"
				},
				{
					"indexed": false,
					"internalType": "uint256",
					"name": "value",
					"type": "uint256"
				}
			],
			"name": "Approval",
			"type": "event"
		},
		{
			"anonymous": false,
			"inputs": [
				{
					"indexed": false,
					"internalType": "address",
					"name": "token",
					"type": "address"
				},
				{
					"indexed": false,
					"internalType": "uint256",
					"name": "tokenID",
					"type": "uint256"
				},
				{
					"indexed": false,
					"internalType": "uint256",
					"name": "amt",
					"type": "uint256"
				},
				{
					"indexed": false,
					"internalType": "uint256",
					"name": "requestID",
					"type": "uint256"
				}
			],
			"name": "ERC1155WithdrawExecuted",
			"type": "event"
		},
		{
			"anonymous": false,
			"inputs": [
				{
					"indexed": false,
					"internalType": "address",
					"name": "token",
					"type": "address"
				},
				{
					"indexed": false,
					"internalType": "uint256[]",
					"name": "tokenIDs",
					"type": "uint256[]"
				},
				{
					"indexed": false,
					"internalType": "uint256[]",
					"name": "amts",
					"type": "uint256[]"
				},
				{
					"indexed": false,
					"internalType": "uint256",
					"name": "requestID",
					"type": "uint256"
				}
			],
			"name": "ERC1155WithdrawExecuted",
			"type": "event"
		},
		{
			"anonymous": false,
			"inputs": [
				{
					"indexed": false,
					"internalType": "address",
					"name": "token",
					"type": "address"
				},
				{
					"indexed": false,
					"internalType": "uint256",
					"name": "tokenID",
					"type": "uint256"
				},
				{
					"indexed": false,
					"internalType": "uint256",
					"name": "amt",
					"type": "uint256"
				},
				{
					"indexed": false,
					"internalType": "uint256",
					"name": "requestID",
					"type": "uint256"
				}
			],
			"name": "ERC1155WithdrawRequested",
			"type": "event"
		},
		{
			"anonymous": false,
			"inputs": [
				{
					"indexed": false,
					"internalType": "address",
					"name": "token",
					"type": "address"
				},
				{
					"indexed": false,
					"internalType": "uint256[]",
					"name": "tokenIDs",
					"type": "uint256[]"
				},
				{
					"indexed": false,
					"internalType": "uint256[]",
					"name": "amts",
					"type": "uint256[]"
				},
				{
					"indexed": false,
					"internalType": "uint256",
					"name": "requestID",
					"type": "uint256"
				}
			],
			"name": "ERC1155WithdrawRequested",
			"type": "event"
		},
		{
			"anonymous": false,
			"inputs": [
				{
					"indexed": false,
					"internalType": "address",
					"name": "token",
					"type": "address"
				},
				{
					"indexed": false,
					"internalType": "uint256",
					"name": "amt",
					"type": "uint256"
				},
				{
					"indexed": false,
					"internalType": "uint256",
					"name": "requestID",
					"type": "uint256"
				}
			],
			"name": "ERC20WithdrawExecuted",
			"type": "event"
		},
		{
			"anonymous": false,
			"inputs": [
				{
					"indexed": false,
					"internalType": "address",
					"name": "token",
					"type": "address"
				},
				{
					"indexed": false,
					"internalType": "uint256",
					"name": "amt",
					"type": "uint256"
				},
				{
					"indexed": false,
					"internalType": "uint256",
					"name": "requestID",
					"type": "uint256"
				}
			],
			"name": "ERC20WithdrawRequested",
			"type": "event"
		},
		{
			"anonymous": false,
			"inputs": [
				{
					"indexed": false,
					"internalType": "address",
					"name": "token",
					"type": "address"
				},
				{
					"indexed": false,
					"internalType": "uint256",
					"name": "tokenID",
					"type": "uint256"
				},
				{
					"indexed": false,
					"internalType": "uint256",
					"name": "requestID",
					"type": "uint256"
				}
			],
			"name": "ERC721WithdrawExecuted",
			"type": "event"
		},
		{
			"anonymous": false,
			"inputs": [
				{
					"indexed": false,
					"internalType": "address",
					"name": "token",
					"type": "address"
				},
				{
					"indexed": false,
					"internalType": "uint256",
					"name": "tokeNID",
					"type": "uint256"
				},
				{
					"indexed": false,
					"internalType": "uint256",
					"name": "requestID",
					"type": "uint256"
				}
			],
			"name": "ERC721WithdrawRequested",
			"type": "event"
		},
		{
			"anonymous": false,
			"inputs": [
				{
					"indexed": false,
					"internalType": "uint256",
					"name": "amt",
					"type": "uint256"
				},
				{
					"indexed": false,
					"internalType": "uint256",
					"name": "requestID",
					"type": "uint256"
				}
			],
			"name": "ETHWithdrawRequested",
			"type": "event"
		},
		{
			"anonymous": false,
			"inputs": [
				{
					"indexed": true,
					"internalType": "address",
					"name": "from",
					"type": "address"
				},
				{
					"indexed": true,
					"internalType": "address",
					"name": "to",
					"type": "address"
				},
				{
					"indexed": false,
					"internalType": "uint256",
					"name": "value",
					"type": "uint256"
				}
			],
			"name": "Transfer",
			"type": "event"
		},
		{
			"inputs": [
				{
					"internalType": "address",
					"name": "owner",
					"type": "address"
				},
				{
					"internalType": "address",
					"name": "spender",
					"type": "address"
				}
			],
			"name": "allowance",
			"outputs": [
				{
					"internalType": "uint256",
					"name": "",
					"type": "uint256"
				}
			],
			"stateMutability": "view",
			"type": "function"
		},
		{
			"inputs": [
				{
					"internalType": "address",
					"name": "spender",
					"type": "address"
				},
				{
					"internalType": "uint256",
					"name": "amount",
					"type": "uint256"
				}
			],
			"name": "approve",
			"outputs": [
				{
					"internalType": "bool",
					"name": "",
					"type": "bool"
				}
			],
			"stateMutability": "nonpayable",
			"type": "function"
		},
		{
			"inputs": [
				{
					"internalType": "address",
					"name": "account",
					"type": "address"
				}
			],
			"name": "balanceOf",
			"outputs": [
				{
					"internalType": "uint256",
					"name": "",
					"type": "uint256"
				}
			],
			"stateMutability": "view",
			"type": "function"
		},
		{
			"inputs": [],
			"name": "decimals",
			"outputs": [
				{
					"internalType": "uint8",
					"name": "",
					"type": "uint8"
				}
			],
			"stateMutability": "view",
			"type": "function"
		},
		{
			"inputs": [
				{
					"internalType": "address",
					"name": "spender",
					"type": "address"
				},
				{
					"internalType": "uint256",
					"name": "subtractedValue",
					"type": "uint256"
				}
			],
			"name": "decreaseAllowance",
			"outputs": [
				{
					"internalType": "bool",
					"name": "",
					"type": "bool"
				}
			],
			"stateMutability": "nonpayable",
			"type": "function"
		},
		{
			"inputs": [
				{
					"internalType": "uint256",
					"name": "requestID",
					"type": "uint256"
				}
			],
			"name": "executeETHWithdraw",
			"outputs": [],
			"stateMutability": "nonpayable",
			"type": "function"
		},
		{
			"inputs": [
				{
					"internalType": "uint256",
					"name": "requestID_",
					"type": "uint256"
				}
			],
			"name": "executeMint",
			"outputs": [],
			"stateMutability": "nonpayable",
			"type": "function"
		},
		{
			"inputs": [
				{
					"internalType": "uint256",
					"name": "requestID",
					"type": "uint256"
				}
			],
			"name": "executeWithdrawERC1155",
			"outputs": [],
			"stateMutability": "nonpayable",
			"type": "function"
		},
		{
			"inputs": [
				{
					"internalType": "uint256",
					"name": "requestID",
					"type": "uint256"
				}
			],
			"name": "executeWithdrawERC1155Batch",
			"outputs": [],
			"stateMutability": "nonpayable",
			"type": "function"
		},
		{
			"inputs": [
				{
					"internalType": "uint256",
					"name": "requestID",
					"type": "uint256"
				}
			],
			"name": "executeWithdrawERC20",
			"outputs": [],
			"stateMutability": "nonpayable",
			"type": "function"
		},
		{
			"inputs": [
				{
					"internalType": "uint256",
					"name": "requestID",
					"type": "uint256"
				}
			],
			"name": "executeWithdrawERC721",
			"outputs": [],
			"stateMutability": "nonpayable",
			"type": "function"
		},
		{
			"inputs": [],
			"name": "getVotingMachine",
			"outputs": [
				{
					"internalType": "address",
					"name": "machine",
					"type": "address"
				}
			],
			"stateMutability": "view",
			"type": "function"
		},
		{
			"inputs": [
				{
					"internalType": "address",
					"name": "spender",
					"type": "address"
				},
				{
					"internalType": "uint256",
					"name": "addedValue",
					"type": "uint256"
				}
			],
			"name": "increaseAllowance",
			"outputs": [
				{
					"internalType": "bool",
					"name": "",
					"type": "bool"
				}
			],
			"stateMutability": "nonpayable",
			"type": "function"
		},
		{
			"inputs": [],
			"name": "name",
			"outputs": [
				{
					"internalType": "string",
					"name": "",
					"type": "string"
				}
			],
			"stateMutability": "view",
			"type": "function"
		},
		{
			"inputs": [
				{
					"internalType": "address",
					"name": "",
					"type": "address"
				},
				{
					"internalType": "address",
					"name": "",
					"type": "address"
				},
				{
					"internalType": "uint256[]",
					"name": "",
					"type": "uint256[]"
				},
				{
					"internalType": "uint256[]",
					"name": "",
					"type": "uint256[]"
				},
				{
					"internalType": "bytes",
					"name": "",
					"type": "bytes"
				}
			],
			"name": "onERC1155BatchReceived",
			"outputs": [
				{
					"internalType": "bytes4",
					"name": "",
					"type": "bytes4"
				}
			],
			"stateMutability": "nonpayable",
			"type": "function"
		},
		{
			"inputs": [
				{
					"internalType": "address",
					"name": "",
					"type": "address"
				},
				{
					"internalType": "address",
					"name": "",
					"type": "address"
				},
				{
					"internalType": "uint256",
					"name": "",
					"type": "uint256"
				},
				{
					"internalType": "uint256",
					"name": "",
					"type": "uint256"
				},
				{
					"internalType": "bytes",
					"name": "",
					"type": "bytes"
				}
			],
			"name": "onERC1155Received",
			"outputs": [
				{
					"internalType": "bytes4",
					"name": "",
					"type": "bytes4"
				}
			],
			"stateMutability": "nonpayable",
			"type": "function"
		},
		{
			"inputs": [
				{
					"internalType": "address",
					"name": "",
					"type": "address"
				},
				{
					"internalType": "address",
					"name": "",
					"type": "address"
				},
				{
					"internalType": "uint256",
					"name": "",
					"type": "uint256"
				},
				{
					"internalType": "bytes",
					"name": "",
					"type": "bytes"
				}
			],
			"name": "onERC721Received",
			"outputs": [
				{
					"internalType": "bytes4",
					"name": "",
					"type": "bytes4"
				}
			],
			"stateMutability": "nonpayable",
			"type": "function"
		},
		{
			"inputs": [
				{
					"internalType": "uint256",
					"name": "amt",
					"type": "uint256"
				},
				{
					"internalType": "address payable",
					"name": "receiver",
					"type": "address"
				}
			],
			"name": "requestETHWithdraw",
			"outputs": [
				{
					"internalType": "uint256",
					"name": "propositionID",
					"type": "uint256"
				}
			],
			"stateMutability": "nonpayable",
			"type": "function"
		},
		{
			"inputs": [
				{
					"internalType": "address",
					"name": "receiver_",
					"type": "address"
				},
				{
					"internalType": "uint256",
					"name": "amt_",
					"type": "uint256"
				}
			],
			"name": "requestMint",
			"outputs": [
				{
					"internalType": "uint256",
					"name": "propID",
					"type": "uint256"
				}
			],
			"stateMutability": "nonpayable",
			"type": "function"
		},
		{
			"inputs": [
				{
					"internalType": "address",
					"name": "token",
					"type": "address"
				},
				{
					"internalType": "uint256[]",
					"name": "tokenIDs",
					"type": "uint256[]"
				},
				{
					"internalType": "uint256[]",
					"name": "amts",
					"type": "uint256[]"
				},
				{
					"internalType": "address",
					"name": "receiver",
					"type": "address"
				}
			],
			"name": "requestWithdrawERC1155",
			"outputs": [
				{
					"internalType": "uint256",
					"name": "propositionID",
					"type": "uint256"
				}
			],
			"stateMutability": "nonpayable",
			"type": "function"
		},
		{
			"inputs": [
				{
					"internalType": "address",
					"name": "token",
					"type": "address"
				},
				{
					"internalType": "uint256",
					"name": "tokenID",
					"type": "uint256"
				},
				{
					"internalType": "uint256",
					"name": "amt",
					"type": "uint256"
				},
				{
					"internalType": "address",
					"name": "receiver",
					"type": "address"
				}
			],
			"name": "requestWithdrawERC1155",
			"outputs": [
				{
					"internalType": "uint256",
					"name": "propositionID",
					"type": "uint256"
				}
			],
			"stateMutability": "nonpayable",
			"type": "function"
		},
		{
			"inputs": [
				{
					"internalType": "address",
					"name": "token",
					"type": "address"
				},
				{
					"internalType": "uint256",
					"name": "amt",
					"type": "uint256"
				},
				{
					"internalType": "address",
					"name": "receiver",
					"type": "address"
				}
			],
			"name": "requestWithdrawERC20",
			"outputs": [
				{
					"internalType": "uint256",
					"name": "propositionID",
					"type": "uint256"
				}
			],
			"stateMutability": "nonpayable",
			"type": "function"
		},
		{
			"inputs": [
				{
					"internalType": "address",
					"name": "token",
					"type": "address"
				},
				{
					"internalType": "uint256",
					"name": "tokenID",
					"type": "uint256"
				},
				{
					"internalType": "address",
					"name": "receiver",
					"type": "address"
				}
			],
			"name": "requestWithdrawERC721",
			"outputs": [
				{
					"internalType": "uint256",
					"name": "propositionID",
					"type": "uint256"
				}
			],
			"stateMutability": "nonpayable",
			"type": "function"
		},
		{
			"inputs": [
				{
					"internalType": "bytes4",
					"name": "interfaceId",
					"type": "bytes4"
				}
			],
			"name": "supportsInterface",
			"outputs": [
				{
					"internalType": "bool",
					"name": "",
					"type": "bool"
				}
			],
			"stateMutability": "view",
			"type": "function"
		},
		{
			"inputs": [],
			"name": "symbol",
			"outputs": [
				{
					"internalType": "string",
					"name": "",
					"type": "string"
				}
			],
			"stateMutability": "view",
			"type": "function"
		},
		{
			"inputs": [],
			"name": "totalSupply",
			"outputs": [
				{
					"internalType": "uint256",
					"name": "",
					"type": "uint256"
				}
			],
			"stateMutability": "view",
			"type": "function"
		},
		{
			"inputs": [
				{
					"internalType": "address",
					"name": "recipient",
					"type": "address"
				},
				{
					"internalType": "uint256",
					"name": "amount",
					"type": "uint256"
				}
			],
			"name": "transfer",
			"outputs": [
				{
					"internalType": "bool",
					"name": "",
					"type": "bool"
				}
			],
			"stateMutability": "nonpayable",
			"type": "function"
		},
		{
			"inputs": [
				{
					"internalType": "address",
					"name": "sender",
					"type": "address"
				},
				{
					"internalType": "address",
					"name": "recipient",
					"type": "address"
				},
				{
					"internalType": "uint256",
					"name": "amount",
					"type": "uint256"
				}
			],
			"name": "transferFrom",
			"outputs": [
				{
					"internalType": "bool",
					"name": "",
					"type": "bool"
				}
			],
			"stateMutability": "nonpayable",
			"type": "function"
		}
	]
}